:100000000C9460020C94B9050C948E050C947D023E
:100010000C947D020C947D020C947D020C947D0264
:100020000C947D020C947D020C94DF060C947D02EE
:100030000C947D020C9400090C9444090C947D02EC
:100040000C947D020C947D020C947D020C947D0234
:100050000C947D0245525220414354495645004577
:100060005252205245560045525220535441525448
:1000700000424F4F54343A205343484544554C4571
:10008000522052454144592C2052554E4E494E471C
:100090002E2E2E0D0A00424F4F54333A2048414C29
:1000A000204F4B0D0A00424F4F54323A204D4341EE
:1000B0004C204F4B0D0A00424F4F54313A205541CE
:1000C0005254204F4B0D0A000D0A2D2D2D2053594F
:1000D0005354454D205354415254494E47202D2DE1
:1000E0002D0D0A000048454C5020202020202020C3
:1000F0002020202D2053686F772074686973206D4D
:10010000656E750053415645202020202020202078
:1001100020202D205361766520636F6E666967200D
:10012000746F20454550524F4D0054554E453F2069
:1001300020202020202020202D2053686F77205061
:100140004920696E7465726E616C7300484F555238
:10015000533F20202020202020202D2053686F771F
:100160002072756E20686F75727300545249505337
:100170003F20202020202020202D2053686F772032
:1001800074726970206C6F6700545249503F202090
:10019000202020202020202D2053686F77206163AD
:1001A0007469766520747269700041434B20202089
:1001B00020202020202020202D2041636B6E6F778F
:1001C0006C65646765207472697000534554203C07
:1001D000706172616D3E203C76616C75653E202DCC
:1001E0002053657420706172616D6574657200439F
:1001F00046473F202020202020202020202D205353
:10020000686F7720636F6E66696775726174696F76
:100210006E004449523F2020202020202020202012
:100220002D2053686F7720646972656374696F6EFF
:100230000053504545443F20202020202020202DE1
:100240002053686F772063757272656E74207370C7
:10025000656564005350454544203C6E3E20202097
:1002600020202D205365742073706565642028302C
:100270002D6D617852706D29005245562020202046
:10028000202020202020202D205265766572736565
:1002900020646972656374696F6E202872656D6F82
:1002A0007465206F6E6C79290053544F50202020C4
:1002B000202020202020202D2053746F70206D6F6F
:1002C000746F720052554E202020202020202020C4
:1002D00020202D205374617274206D6F746F722012
:1002E0002872656D6F7465206F6E6C7929005354A8
:1002F0004154555320202020202020202D205368B9
:100300006F772074656C656D65747279000D0A3DB8
:100310003D3D20417661696C61626C6520436F6D83
:100320006D616E6473203D3D3D000D0A00455252E3
:100330004F523A20004F4B003D3D3D20456E64201A
:100340003D3D3D005452502C302C4E4F4E45003D0B
:100350003D3D2054726970204C6F67203D3D3D004B
:1003600045525220414354495645004F4B00455297
:100370005220504152414D004F4B004552522052A5
:10038000414E4745004F4B004552522052414E4787
:1003900045004F4B004552522052414E4745004FB9
:1003A0004B004552522052414E4745004F4B0045AD
:1003B00052522052414E4745004F4B004552522069
:1003C00052414E4745004F4B004552522052414E3C
:1003D0004745004F4B004552522052414E47450081
:1003E0004F4B004552522052414E4745004F4B0063
:1003F0004552522052414E474500455252205241EB
:100400004E4745004552522041524753004F4B0042
:100410004552522052414E474500455252205241CA
:100420004E474500455252204152475300455252D3
:10043000204D4F44450045525220524556004F4BE7
:1004400000455252204D4F444500455252205354CE
:100450004F50004F4B0045525220535441525400CC
:100460004F4B00455252205452495050454400458C
:100470005252204D4F44450045525220434D4400B6
:100480000D0A547970652048454C5020666F7220E3
:10049000636F6D6D616E64730D0A3E20000D0A4935
:1004A0006E647573747269616C204D6F746F722025
:1004B000436F6E74726F6C6C65722076312E3000F3
:1004C00011241FBECFE5D8E0DEBFCDBF14E0A0E60B
:1004D000B0E0E4E9F3E402C005900D92A23AB1075E
:1004E000D9F726E0A2EAB4E001C01D92A738B2070E
:1004F000E1F70E9418040C94C8210C94000063E0FA
:1005000083E00E94410691E0813009F090E0809103
:10051000430690FB81F9809343060E949E0E0E9441
:100520002E0F82309105F1F140F5019791F10E9473
:10053000201660E08330910539F08230910519F082
:10054000049709F03FC061E081E00E94410F0E94E2
:1005500048168823D1F181E00E94590F0E94371676
:100560000E94610F0E94370F90914306882379F112
:100570009E7F909343060C940F0B83309105D9F026
:100580000497A9F60E943E17811110C084E590E0FF
:1005900006C00E945416811109C087E690E00E94AF
:1005A000F00FC5CF0E94E316882309F284E090E0A3
:1005B0000E94E90ABCCF0E9419178111F7CF8FE57D
:1005C00090E0EDCF60E080E0C0CF80E0C5CF9160EB
:1005D000D0CFEF92FF920F931F93CF93DF93CDB7BE
:1005E000DEB7A8970FB6F894DEBF0FBECDBF0E944E
:1005F000BA170E94CA0D0E943C0E90932E0680935B
:100600002D068091430680FF5DC080912906909160
:100610002A06BC0182E596E00E94D61B82E596E0A0
:100620000E94FA1B90932C0680932B0620912D0696
:1006300030912E06821B930B9093300680932F06E9
:1006400061E676E089E296E00E94311A8C0100971B
:1006500009F454C01F938F9386E593E09F938F9383
:10066000CE0101967C019F938F930E94F01EC701DB
:100670000E94C908C8010E945E190E94880D0F904F
:100680000F900F900F900F900F908091A404909175
:10069000A5048017910749F069E276E0C8010E943D
:1006A000ED141093A5040093A404A8960FB6F89433
:1006B000DEBF0FBECDBFDF91CF911F910F91FF9095
:1006C000EF9008950E94E90990932A0680932906E5
:1006D000A0CF40912D0650912E0660912B0670916F
:1006E0002C0688E196E00E9499190E945F0D809186
:1006F0003D0690913E060E943E0DD7CF1092A50474
:100700001092A4040E943C168111E3CF88E196E088
:100710000E94FC1990E080E0E8CFCF93DF930E9425
:100720007C1BEC010E944816882329F0CE01DF9142
:10073000CF910C94F90C89E296E0DF91CF910C9463
:100740005E0CEF92FF920F931F93CF93DF93CDB781
:10075000DEB7C055D1090FB6F894DEBF0FBECDBFCE
:100760000E94710A09E216E0F801858796879F9337
:100770008F939F938F9388E790E09F938F93CE0101
:1007800001967C019F938F930E94F01EC7010E94E7
:10079000C9080E94B50AF80187870FB6F894DEBF32
:1007A0000FBECDBFC05BDF4F0FB6F894DEBF0FBEEC
:1007B000CDBFDF91CF911F910F91FF90EF900895E2
:1007C00089E296E00C94A314CF93DF930E942D0A44
:1007D000EC01909335068093340660917206709117
:1007E00073060E94191B8091740690917506C817B4
:1007F000D907C8F082E090E00E945E198091A604BB
:100800009091A704029761F069E276E082E090E0BF
:100810000E94ED1482E090E09093A7048093A604D8
:10082000DF91CF9108951092A7041092A604F8CFFB
:10083000CF93DF93CDB7DEB768970FB6F894DEBFDE
:100840000FBECDBFF8948AE0E2E6F0E0DE0111963B
:1008500001900D928A95E1F7CE0101960E942F0832
:10086000789488EC90E00E94DB0887EB90E00E948F
:10087000DB0880EA96E8A1E0B0E08B8B9C8BAD8B27
:10088000BE8BCE0143960E948409FF24F394FF8A15
:1008900087E0888FCE0147960E947406BE01655F8F
:1008A0007F4F80E00E94B406BE01655F7F4F81E00C
:1008B0000E94B406BE01655F7F4F82E00E94B406CD
:1008C000BE01655F7F4F83E00E94B4060E94C706A9
:1008D0000E945F0780916C0090916D00A0916E0066
:1008E000B0916F008F87988BA98BBA8B1C861B8663
:1008F00003E010E01E870D87CE010F960E94F807D7
:10090000CE010B960E94F80786EA90E00E94DB0871
:100910000E94530C0E94A50D0E94D7090E94410E0F
:100920000E94D40A0E94160D86E990E00E94DB081E
:1009300084E49DE49093620680936106F0926306DE
:1009400088EB9BE0909365068093640688EC90E0CA
:10095000909367068093660688E592E09093690617
:100960008093680684E893E090936B0680936A0610
:1009700084EF91E090936D0680936C0680E891E09F
:1009800090936F0680936E068AE190E090937106D3
:100990008093700680E49FE19093730680937206C3
:1009A00080E596E490937506809374068EE68093B6
:1009B000760680E29EE4909378068093770688ED31
:1009C00096ED90937A068093790610937C060093B7
:1009D0007B0610927D0610927E0610927F06109282
:1009E0008006109282061092810610928306109261
:1009F000850610928406109286064AE150E060E86F
:100A000071E088E196E00E947D194FE851E068E2CC
:100A100070E088E196E00E94931982E596E00E94DA
:100A2000BC1B40916406509165066091660670910A
:100A3000670682E596E00E94EE1B40916A0650919F
:100A40006B06609168067091690682E596E00E94E7
:100A5000F41B0E94161A0E94FC1560916C0670919E
:100A60006D0690E080E00E9474190E94DD0F0E94E4
:100A7000951489E89FE00E94EF080E94710A909304
:100A80003706809336060E94681C30E020E04AE07A
:100A900050E068E870E08FE792E00E94A51D21E039
:100AA00030E042E350E06EE870E084EE93E00E94B4
:100AB000A51D22E030E044E650E066E970E089EEF2
:100AC00092E00E94A51D24E030E04AEF50E06EE97C
:100AD00070E08DE893E00E94A51D23E030E044EF34
:100AE00051E062EA70E081EA93E00E94A51D25E0F2
:100AF00030E048EE53E06EEA70E080EE93E00E9452
:100B0000A51D81E790E00E94DB080E94A11C0E94C5
:100B100092148823D1F30E94FC10F7CF1F920F92FA
:100B20000FB60F9211242F933F934F935F936F93C0
:100B30007F938F939F93AF93BF93EF93FF9390E037
:100B400080E00E944407C198C09881E08093A80487
:100B5000FF91EF91BF91AF919F918F917F916F9195
:100B60005F914F913F912F910F900FBE0F901F906B
:100B700018951F920F920FB60F9211242F933F9347
:100B80004F935F936F937F938F939F93AF93BF9395
:100B9000EF93FF930E949B0DFF91EF91BF91AF9157
:100BA0009F918F917F916F915F914F913F912F9185
:100BB0000F900FBE0F901F9018958430E0F46830AE
:100BC000D0F4E82FF0E0EE0FFF1FE853FF4F019045
:100BD000F081E02D81E090E001C0880F6A95EAF78E
:100BE0009081413029F4892B808390E080E0089542
:100BF00080958923F9CF81E090E008958430D8F47E
:100C00006830C8F441155105B1F0E82FF0E0EE0F5F
:100C1000FF1FE854FF4F0190F081E02D808190E0AC
:100C200002C0959587956A95E2F78170FA018083F5
:100C300090E080E0089581E090E008958430E0F451
:100C40006830D0F4E82FF0E0EE0FFF1FE054FF4FC4
:100C50000190F081E02D81E090E001C0880F6A955D
:100C6000EAF79081413029F4892B808390E080E07D
:100C7000089580958923F9CF81E090E008950C9440
:100C80001E06CF93DF931F92CDB7DEB71982AE0158
:100C90004F5F5F4F0E94FE0589810F90DF91CF91DA
:100CA00008958430B8F46830A8F4E82FF0E0EE0F2F
:100CB000FF1FE054FF4F0190F081E02D808121E083
:100CC00030E001C0220F6A95EAF78227808390E026
:100CD00080E0089581E090E0089591E0411101C025
:100CE00090E0492F0C941E06892B71F03E9A3F9894
:100CF0003D98389839983A983B983098319A329A7A
:100D0000379A90E080E0089581E090E0089588307F
:100D100080F4389839983A983B9880FD389A81FD4C
:100D2000399A8695869509F03A9A369A90E080E04D
:100D3000089581E090E00895009759F034B125B10D
:100D4000232732272327FC013183208390E080E092
:100D5000089581E090E0089586B182958695869504
:100D60008370809581700895CF93DF93EB010E948B
:100D70008706009749F40E94AC068823E1F3CE0170
:100D8000DF91CF910C949C06DF91CF91089583B7AA
:100D90008F7B83BF83B7886083BF12BE89EF8CBF10
:100DA00083B78B7F83BF83B7826083BF83B7816044
:100DB00083BF89B7826089BF90E080E008951F9269
:100DC0000F920FB60F9211242F933F934F935F937F
:100DD0006F937F938F939F93AF93BF93EF93FF9303
:100DE0008091A9049091AA04A091AB04B091AC04A5
:100DF0000196A11DB11D8093A9049093AA04A0930C
:100E0000AB04B093AC04E091AD04F091AE04309724
:100E100009F00995FF91EF91BF91AF919F918F914B
:100E20007F916F915F914F913F912F910F900FBEE6
:100E30000F901F9018958FB58E7F8FBD8FB58260F4
:100E40008FBD8EB588608EBD8EB580618EBD8FB52D
:100E50008F7B8FBD8FB580688FBD1DBC1CBC8FE89C
:100E600091E097BD86BD8EB58B7F8EBD8EB58D7F93
:100E70008EBD8EB581608EBD41E065E083E00E944D
:100E8000DD0590E080E0089585369105A8F400978F
:100E900029F41BBC1ABC90E080E008959C01AFE8E7
:100EA000B1E00E94441E24E630E040E050E00E94A1
:100EB000F51D3BBD2ABDEFCF81E090E0089585B5DB
:100EC0008F7B85BD85B5886085BD14BC85B5846084
:100ED00085BD85B58D7F85BD85B5816085BD85B5B1
:100EE0008F7D85BD85B5806185BD41E067E083E08C
:100EF0000E94DD0590E080E008958F3F910509F0A4
:100F000020F483BD90E080E0089581E090E00895B2
:100F10002FB7F8946091A9047091AA048091AB0452
:100F20009091AC042FBF08958330910588F48130EF
:100F3000910541F0029749F08BB780648BBF90E038
:100F400080E008958BB78068F9CF8BB78062F6CFC9
:100F500081E090E0089583309105A8F481309105F7
:100F600009F10297C1F185B78E7F85BF85B78D7F67
:100F700085BF6130710551F060F06230710579F024
:100F80006330710549F081E090E0089585B7816094
:100F900085BF90E080E0089585B7816085BF85B703
:100FA0008260F6CF85B78B7F85BF85B7877F85BF8A
:100FB0006130710569F068F36230710531F06330BA
:100FC000710509F785B7846085BF85B78860E0CF74
:100FD00085B78460DDCF6230710531F06330710513
:100FE00091F684B7806402C084B78F7B84BFD1CF71
:100FF000CF93DF93EC01892B99F08881998183301D
:10100000910570F46A817B810E94AB07009751F4CF
:10101000888199818130910589F038F0029789F0B3
:1010200081E090E0DF91CF9108958AB780648ABF14
:1010300088819981DF91CF910C9494078AB7806859
:10104000F6CF8AB78062F3CF039730F481E090E067
:10105000672B21F080E0089581E090E00895CF9320
:10106000DF93EC01892B09F44CC088819981AA8116
:10107000BB810097A105B10509F443C09C01AD01F6
:1010800084E0220F331F441F551F8A95D1F760E07B
:1010900074E284EF90E00E94F51D21503109832F06
:1010A0008F7080BD29B98E81829580739885990F44
:1010B000990F990F9870892B80689C81990F967071
:1010C000892B80BD8C819D810797C9F4529A539AD0
:1010D000549A579A1092C8041092C7041092C604EA
:1010E0001092C5041092B4041092B3041092B2048A
:1010F0001092B10490E080E0DF91CF910895529872
:10110000E6CF81E090E0F8CF2091C7043091C80489
:101110002F5F3F4F2F7133274091C5045091C60474
:1011200042175307C9F39FB7F894E091C704F091B1
:10113000C804E753FB4F80833093C8042093C7044F
:101140009FBF559A90E080E008954FB7F8942091A2
:10115000C7043091C8042F5F3F4F2F713327609130
:10116000C5047091C6046217730781F0E091C7044B
:10117000F091C804E753FB4F80833093C804209359
:10118000C704559A90E080E04FBF089581E090E059
:10119000FBCFCF93DF93EC01892B29F481E090E022
:1011A00007C00E94840889918111FBCF90E080E004
:1011B000DF91CF910895CF93DF93EC01892B29F430
:1011C00081E090E009C00E948408FE01849121968C
:1011D0008111F9CF90E080E0DF91CF9108950097E1
:1011E00041F09093B0048093AF04579A90E080E070
:1011F000089581E090E008950C94C9080C94DB08F0
:101200001F920F920FB60F9211242F933F934F937B
:101210005F936F937F938F939F93AF93BF93EF935E
:10122000FF938CB12091B3043091B4042F5F3F4FF2
:101230002F7033274091B1045091B20442175307E5
:1012400059F0E091B304F091B404EB54FB4F808368
:101250003093B4042093B304E091AF04F091B00450
:10126000309709F00995FF91EF91BF91AF919F9150
:101270008F917F916F915F914F913F912F910F903F
:101280000FBE0F901F9018951F920F920FB60F92DE
:1012900011242F933F938F939F93EF93FF9320916C
:1012A000C7043091C8048091C5049091C6042817E2
:1012B0003907F1F0E091C504F091C604E753FB4F04
:1012C00020818091C5049091C60401968F71992761
:1012D0009093C6048093C5042CB9FF91EF919F9120
:1012E0008F913F912F910F900FBE0F901F901895E7
:1012F0005598F3CF88E480B90898099886B7846038
:1013000086BF90E080E008950C947A0984EA86BF55
:1013100090E080E006B607FE08C021B1287F81E09A
:1013200090E0283049F480E008950196813127E269
:10133000920781F781E090E0089584E986BF90E00C
:1013400080E0089583B984E886BF90E080E006B627
:1013500007FE0AC021B1287F283171F081E090E0BA
:10136000283249F480E008950196813127E29207FE
:1013700071F781E090E0089580E0FCCFCF93DF9398
:10138000D82FC62F0E948609009761F48D2F880FF1
:10139000C1708C2B0E94A209009721F084E986BFBE
:1013A00081E090E0DF91CF9108950C94A209CF9352
:1013B000DF9300D0CDB7DEB781E0898387E08A83F1
:1013C000CE0101960E9474060F900F90DF91CF918D
:1013D00008950F931F93CF93DF93CDB7DEB7AA97EE
:1013E0000FB6F894DEBF0FBECDBF1AA619A6BE0178
:1013F000675D7F4F80E00E94B4068AA58F9389A520
:101400008F9380ED90E09F938F938E010F5F1F4F1E
:101410001F930F930E94F01EC8010E94C90829A5BE
:101420003AA5A8EBBBE00E94441E0F900F900F90CE
:101430000F900F900F902FEF33E040E050E00E94AC
:10144000F51DC901AA960FB6F894DEBF0FBECDBF39
:10145000DF91CF911F910F9108950F931F93CF9319
:10146000DF93CDB7DEB7A2970FB6F894DEBF0FBEFD
:10147000CDBF1AA219A2BE016F5D7F4F81E00E940D
:10148000B4068AA18F9389A18F9383ED90E09F93F7
:101490008F938E010F5F1F4F1F930F930E94F01EBB
:1014A000C8010E94C90829A13AA1A0E2BEE40E9495
:1014B000441E0F900F900F900F900F900F902FEFF2
:1014C00033E040E050E00E94F51DC901A2960FB63E
:1014D000F894DEBF0FBECDBFDF91CF911F910F916A
:1014E00008950F931F93CF93DF93CDB7DEB7AA97DD
:1014F0000FB6F894DEBF0FBECDBF1AA619A6BE0167
:10150000675D7F4F82E00E94B4068AA58F9389A50C
:101510008F9383ED90E09F938F938E010F5F1F4F0A
:101520001F930F930E94F01EC8010E94C90829A5AD
:101530003AA5A0E6BAEE0E94441E2FEF33E040E049
:1015400050E00E94F51D0F900F900F900F900F909C
:101550000F90C901AA960FB6F894DEBF0FBECDBF9B
:10156000DF91CF911F910F910895CF93DF9300D01A
:10157000CDB7DEB71A821982BE016F5F7F4F83E05D
:101580000E94B40629813A81A6E9B0E00E94441E77
:101590002FEF33E040E050E00E94F51D822F0F90C6
:1015A0000F90DF91CF910895CF93DF930E945F0753
:1015B000EC0190E080E00E947D071092ED04109213
:1015C000EC041092EB041092EA04CE01DF91CF916B
:1015D00008959093ED048093EC041092EB04109224
:1015E000EA0481309105A9F068F00597A8F090E031
:1015F00080E00E947D071092ED041092EC0481E0DF
:1016000090E0089590E080E00E947D0790E080E007
:10161000089586E990E0F8CF8CE390E0F5CF209133
:10162000EC043091ED042115310509F446C0233056
:10163000310509F442C08091EA049091EB040196CF
:1016400024303105A9F48A30910528F49093EB04F5
:101650008093EA0408951092EB041092EA0490E05B
:1016600080E00E947D071092ED041092EC04089532
:1016700042E350E02130310511F04AE050E0841798
:10168000950720F31092EB041092EA048091E9048C
:10169000882339F090E080E00E947D071092E904F1
:1016A000089586E990E02130310511F08CE390E057
:1016B0000E947D0781E08093E9040895CF93DF9332
:1016C000009731F4C1E0D0E0CE01DF91CF910895D1
:1016D000C62F60E0FC0180810E94BE09892B91F732
:1016E00080E00E94D509892B19F00E949D09EACF5C
:1016F0008C2F0E94D509EC01892BB9F70E949D0916
:101700008FE39FE10197F1F700C00000DDCFCF9399
:10171000DF93009731F4C1E0D0E0CE01DF91CF91AB
:101720000895C62F60E0FC0180810E94BE09892BCC
:1017300091F780E40E94D509892B19F00E949D0938
:10174000EACF8C2F0E94D509EC01892BB9F70E94B2
:101750009D098FE891E00197F1F700C00000DDCF0F
:10176000009781F0FC012181621760F42281421709
:1017700048F4E62FF0E0E459FE4F6081640F6068A2
:101780000C945E0B81E090E008950F931F93CF932C
:10179000DF93EB01209711F4C6EED1E040E0682F13
:1017A0008EEE94E00E94B00B8E01005F1F4F699196
:1017B000611101C060E28EEE94E00E94870BC017B9
:1017C000D107A9F7DF91CF911F910F910895CF9283
:1017D000DF92EF92FF921F93CF93DF93EC01142FD0
:1017E0007901892B61F4CC24C394D12CC601DF91FB
:1017F000CF911F91FF90EF90DF90CF900895232B12
:1018000091F38981681778F78A81481760F7CE01CC
:101810000E94B00B6C01892B31F78A81181730F7C1
:10182000F7016081662351F0FFEFEF1AFF0ACE0146
:101830000E94870B892BB9F61F5FEFCF60E2F7CFCD
:1018400061E00E945E0BEFE3FFE13197F1F700C02A
:1018500000000895CF93DF93009729F481E090E092
:10186000DF91CF910895EC0168E30E945E0B892B14
:10187000A9F784E0809360006CE0CE010E945E0BCB
:10188000892B61F7CE010E94200C892B39F766E085
:10189000CE010E945E0B31E020E0892B09F430E09C
:1018A000832F922FDDCFEEEEF4E08EE3808382E093
:1018B000818380E18283CF010C942A0CDF92EF9226
:1018C000FF920F931F93CF93DF93CDB7DEB7A2970D
:1018D0000FB6F894DEBF0FBECDBFFC01892B81F49B
:1018E00081E090E0A2960FB6F894DEBF0FBECDBFA8
:1018F000DF91CF911F910F91FF90EF90DF900895AE
:10190000848995898130910509F46FC0029709F4A3
:101910006EC09DE28F011F929F9385818F9384817A
:101920008F9383818F9382818F938CED90E09F932F
:101930008F931F9281E1D82EDF927E0122E1E20E89
:10194000F11CFF92EF920E94C01ED8011B96ED91F0
:10195000FC911C971D968D919C9128EE33E0B90166
:101960000E94E11D7F936F93CF0164E670E00E94B7
:10197000E11DCB016AE070E00E94E11D9F938F930F
:10198000CF01B9010E94E11D7F936F93F801828519
:101990001F928F9389EE90E09F938F931F92DF9217
:1019A0008E010F5F1F4F1F930F930E94C01E970160
:1019B00040E060E08EEE94E00E94E70B0FB6F894F2
:1019C000DEBF0FBECDBF892B09F08ACF980140E062
:1019D00061E08EEE94E00E94E70B31E020E0892B7D
:1019E00009F430E0832F922F7DCF96E493CF92E5D8
:1019F00091CFCF93DF930197CDEFD0E08930910560
:101A000038F4880F991FFC01E65AFE4FC081D1813E
:101A100062E071E080E00E94C50BBE0181E00E949F
:101A2000C50B90E080E0DF91CF9108958091F104A3
:101A3000811121C041E060E081E00E94DD0541E0CC
:101A400061E081E00E94DD0540E060E081E00E940D
:101A50003F0640E061E081E00E943F060E941B07D4
:101A600090E080E00E9444071092F3041092F20488
:101A700081E08093F10490E080E008958130910549
:101A800049F00297A1F040E060E081E00E943F064B
:101A900040E013C040E061E081E00E943F0641E089
:101AA00060E081E00E943F0690E080E0089540E021
:101AB00060E081E00E943F0641E061E0F2CF2091CA
:101AC000F2043091F304232B29F41BBC1ABC90E0E0
:101AD00080E008959C01203981E0380710F02FE85C
:101AE00031E03BBD2ABDF3CF81E090E09093F30459
:101AF0008093F20490E080E008951092F304109235
:101B0000F20490E080E00E94440790E080E00895B5
:101B100090E080E00E94440740E060E081E00E94A5
:101B20003F0640E061E081E00E943F061092F3042E
:101B30001092F20408958091F6049091F7040196B2
:101B40009093F7048093F6040895CF93DF9300D029
:101B500000D0CDB7DEB71092F7041092F6041092C1
:101B6000F5041092F4041A82198283E090E09C83B9
:101B70008B83CE0101960E94F8076BE97DE090E02F
:101B800080E00E9424080F900F900F900F90DF913B
:101B9000CF9108958F929F92AF92BF92EF92FF9252
:101BA0000F931F93CF93DF93CDB7DEB7C055D10905
:101BB0000FB6F894DEBF0FBECDBFF8940091F604C7
:101BC0001091F7041092F7041092F6047894F12C17
:101BD000E12C0430110530F08CE3809F7001819F6F
:101BE000F00C1124A091F404B091F50423E030E04E
:101BF0000E94531E47010F2C000CAA08BB08680D59
:101C0000791D8A1D9B1D24E030E040E050E00E94D9
:101C1000171E3093F5042093F4048091F4049091FE
:101C2000F5049F938F93FF92EF921F930F938EE68D
:101C300091E09F938F938E010F5F1F4F1F930F9320
:101C40000E94F01EC8010E94C9080FB6F894DEBFBA
:101C50000FBECDBFC05BDF4F0FB6F894DEBF0FBE27
:101C6000CDBFDF91CF911F910F91FF90EF90BF906B
:101C7000AF909F908F9008958091F4049091F50417
:101C8000089540E065E082E00E94DD0540E066E006
:101C900082E00E94DD0540E067E082E00E94DD0511
:101CA00040E066E083E00E94DD0540E064E083E020
:101CB0000E94DD0541E065E082E00E946D0641E0A2
:101CC00066E082E00E946D0641E067E082E00E94EB
:101CD0006D0641E066E083E00E946D0641E064E04D
:101CE00083E00E946D0641E063E081E00E94DD0533
:101CF00041E062E082E00E94DD0541E063E082E0D5
:101D00000E94DD0541E064E082E00E94DD0540E0E4
:101D100063E081E00E941E0640E062E082E00E94F3
:101D20001E0640E063E082E00E941E0640E064E0A0
:101D300082E00E941E0690E080E00895EF92FF92FC
:101D40000F931F93CF93DF93CDB7DEB72C970FB6CA
:101D5000F894DEBF0FBECDBF65E082E00E94410671
:101D6000F82E66E082E00E944106082F67E082E0DC
:101D70000E944106182F66E083E00E94410691E030
:101D8000F11090E0998791E0011190E09A8791E03D
:101D9000111190E09B8791E0811190E09C8788E091
:101DA000E0E7F0E0DE01119601900D928A95E1F7EF
:101DB0004091050550910605BE01675F7F4FE9EF31
:101DC000EE2EE4E0FE2EEDEFF4E090E080E0DB01AB
:101DD0002D91BD01D7013D917D012317E1F01082C6
:101DE0008D0101501109D8012C9301963196843050
:101DF000910569F750930605409305052C960FB69B
:101E0000F894DEBF0FBECDBFDF91CF911F910F9130
:101E1000FF90EF9008952130D1F430813F5F3083FF
:101E2000353018F38C010F5F1A4FD8013C913111F6
:101E3000DCCF2C939C01220F331F41E050E04C0F6C
:101E40005D1F240F351FD9014D915C91CECF1082BB
:101E50009C012F5F3A4FD9011C92C7CF8091050595
:101E6000909106051092060510920505089564E00C
:101E700083E00E94410691E0813009F090E0892FD3
:101E80000895662371F08091F8048F5F8A3018F40A
:101E90008093F80408951092F80463E081E00C94B4
:101EA000510641E0811101C040E063E081E00C9403
:101EB0001E0641E0811101C040E062E082E00C9426
:101EC0001E068130910521F0029749F040E001C0E3
:101ED00041E063E082E00E941E0640E006C040E070
:101EE00063E082E00E941E0641E064E082E00C9420
:101EF0001E06009761F0FC012081222341F08191B0
:101F0000811102C081E0089580538A30C0F380E0DF
:101F10000895CF93C82F80913A05882319F08C2F0C
:101F20000E94A508E0913805C83011F0CF3781F440
:101F3000EE23A9F1E150E0933805F0E0E85EFA4FB6
:101F4000108280E20E94A50888E0CF910C94A50839
:101F5000CD3011F0CA30C9F4EE2361F0F0E0E85E54
:101F6000FA4F108281E0809339058DE00E94A50828
:101F70008AE0EBCF8DE00E94A5088AE00E94A508C8
:101F80008EE30E94A50880E2E0CFEF3140F481E0CB
:101F90008E0F80933805F0E0E85EFA4FC083CF9152
:101FA00008950E94FC0884EE91E00C94FC080E94C5
:101FB000FE0884EE91E00C94FC08E8E1F5E010A244
:101FC00011A281E082A380E2DF011D928A95E9F7E8
:101FD0008DE994E00E94D70F80E894E00C94D70F2D
:101FE000CF93DF93EC018DE293E00E94FE08CE01D7
:101FF0000E94FE088AE293E0DF91CF910C94FE08E4
:102000007F928F929F92AF92BF92CF92DF92EF9288
:10201000FF920F931F93CF93DF93CDB7DEB7C058D6
:10202000D1090FB6F894DEBF0FBECDBF8C01FC0105
:1020300083A074A0C78CB0A0A1A092A00E94861B10
:10204000D82EF801F08CE18C0E942516F801248925
:1020500035892130310509F470C02230310509F489
:102060006EC02DE27F928F929F92AF92BF92CF92DD
:102070001F92DF92EF92FF929F938F931F922F9365
:10208000F80187851F928F9386858F9385858F931F
:1020900084858F9383858F9382851F928F9385810B
:1020A0008F9384818F9383818F9382818F9389E82B
:1020B00091E09F938F938E010F5F1F4F1F930F939C
:1020C0000E94F01E0FB6F894DEBF0FBECDBF81E0B8
:1020D00020E0F801E80FF11D9081911132C0F80164
:1020E00001900020E9F7CF011F922F9324ED31E0FA
:1020F0003F932F9301979F938F930E94F01EC801E7
:102100000E94FC080F900F900F900F900F900F906F
:10211000C058DF4F0FB6F894DEBF0FBECDBFDF91C2
:10212000CF911F910F91FF90EF90DF90CF90BF90D4
:10213000AF909F908F907F90089526E493CF22E5F3
:1021400091CF29278F5FC5CFCF93DF93EC018CED23
:1021500091E00E94FC08CE010E94FC0884EE91E010
:10216000DF91CF910C94FC088DE093E00E94D70F93
:102170008EEE92E00E94D70F84EC92E00E94D70F7F
:1021800089EA92E00E94D70F89E792E00E94D70F78
:1021900084E592E00E94D70F81E392E00E94D70F7E
:1021A00082E192E00E94D70F8FEE91E00E94D70F5C
:1021B0008BEC91E00E94D70F8AEA91E00E94D70F42
:1021C00089E891E00E94D70F8BE691E00E94D70F3B
:1021D0008CE491E00E94D70F8AE291E00E94D70F31
:1021E00084E091E00E94D70F85EE90E00E94D70F27
:1021F00084EE90E00C94D70FEF92FF920F931F9311
:10220000CF93DF93CDB7DEB7C058D1090FB6F8949E
:10221000DEBF0FBECDBF80913905882379F11092C2
:10222000070562EE71E088E195E00E94831EF09060
:102230000705009719F027E02F1570F51092390562
:10224000FF2079F0009108051091090567EE71E013
:10225000C8010E94881E892B81F589E296E00E94C0
:10226000001010923805E8E1F5E080E2DF011D92F0
:102270008A95E9F781E193E00E94FC08C058DF4F9E
:102280000FB6F894DEBF0FBECDBFDF91CF911F9187
:102290000F91FF90EF90089521E02F0D20930705F7
:1022A000EF2DF0E0EE0FFF1FE85FFA4F9183808380
:1022B00062EE71E090E080E0B8CF6EEE71E0C801B0
:1022C0000E94881E892B01F58091430680FD05C080
:1022D0008FE694E00E94F00FC4CF0E944816882336
:1022E00019F083E694E0F6CF0E945416882349F053
:1022F00080E694E00E94D70F82EF91E00E94A41044
:10230000B0CF86E594E0E6CF6FE071E0C8010E94AF
:10231000881E892B71F40E94E316882339F083E527
:1023200094E00E94D70F8FEF91E0E8CF8AE494E029
:10233000D1CF6BE072E0C8010E94881E892BA9F4FE
:102340008091430680FD03C081E494E0C3CF0E94E6
:102350001917882339F08EE394E00E94D70F8FE09D
:1023600092E0CCCF86E394E0B5CF69E471E0C80198
:102370000E94881E892B09F05BC081E08F1510F543
:102380006BEE72E080910A0590910B050E94881E09
:10239000892BC1F480912E068F9380912D068F9307
:1023A00080912C068F9380912B068F938EE192E083
:1023B0009F938F938E010F5F1F4F1F930F930E9468
:1023C000F01EBBC08091430680FD03C08DE294E007
:1023D00081CFB1E084E294E0BF1508F07BCF00919B
:1023E0000A0510910B05C8010E94790F811103C0E5
:1023F0008AE194E06FCFC8010E94651E97FD07C077
:1024000020916406309165062817390718F480E199
:1024100094E060CF90932A0680932906BC0182E560
:1024200096E00E94D61B8DE094E00E94D70F19CF52
:102430006AE272E0C8010E94881E892B29F580910A
:102440003D0690913E0681309105D1F00297D1F47E
:1024500082E51F928F938FE292E09F938F938E017C
:102460000F5F1F4F1F930F930E94F01EC8010E9421
:10247000D10F0F900F900F900F900F900F90F1CE03
:1024800086E4E7CF8DE2E5CF66E372E0C8010E9403
:10249000881E892B09F05AC080917A068F9380910B
:1024A00079068F93809178068F93809177068F932A
:1024B000809176061F928F93809175068F938091FD
:1024C00074068F93809173068F93809172068F9319
:1024D000809171068F93809170068F9380916F0623
:1024E0008F9380916E068F9380916D068F9380916C
:1024F0006C068F9380916B068F9380916A068F9301
:10250000809169068F93809168068F93809167060A
:102510008F93809166068F93809165068F9380914B
:1025200064068F938BE392E09F938F938E010F5FEE
:102530001F4F1F930F930E94F01EC8010E94D10FDE
:102540000FB6F894DEBF0FBECDBF8BCE63E672E050
:10255000C8010E94881E892B09F026C192E09F15B0
:1025600060F400910C0510910D05C8010E94790FCF
:10257000811106C08AEF93E0ADCE84E094E0AACE4C
:10258000E0900A05F0900B05C8010E94651E8C01C1
:1025900067E672E0C7010E94881E892B81F4C8019A
:1025A000845F91408D37954118F080EF93E092CE93
:1025B00010936506009364068DEE93E036CF6EE6C9
:1025C00072E0C7010E94881E892B79F4C801C29766
:1025D000873B934018F083EE93E07CCE1093670620
:1025E0000093660680EE93E020CF65E772E0C701B6
:1025F0000E94881E892BC9F4C8018456910985352B
:102600009B4018F086ED93E065CE10936906009329
:10261000680640916A0650916B06B80182E596E023
:102620000E94F41B83ED93E000CF6BE772E0C701DB
:102630000E94881E892BC9F4C801845691098535EA
:102640009B4018F089EC93E045CE10936B06009305
:102650006A066091680670916906A80182E596E0B5
:102660000E94F41B86EC93E0E0CE61E872E0C701C3
:102670000E94881E892BB1F4C801885C91098930B9
:10268000974018F08CEB93E025CE10936D060093E5
:102690006C06B801110F880B990B0E94741989EB15
:1026A00093E0C3CE6AE872E0C7010E94881E892BBE
:1026B000B9F48FEA93E0013020E1120708F00ACE66
:1026C00010936F0600936E0640917006509171064C
:1026D000B80188E196E00E94061A8CEA93E0A5CE44
:1026E0006DE872E0C7010E94881E892BB9F40130A1
:1026F00082E0180718F082EA93E0ECCD109371069F
:102700000093700660916E0670916F06A80188E1D3
:1027100096E00E94061A8FE993E087CE60E972E0A6
:10272000C7010E94881E892B81F4C801885E9340EE
:10273000813B964318F085E993E0CCCD1093730666
:102740000093720682E993E070CE64E171E0C70104
:102750000E94881E892B89F48091720690917306DD
:102760008017910718F088E893E0B4CD10937506B0
:102770000093740685E893E058CE63E271E0C701E8
:102780000E94881E892B69F4C801CC978135910578
:1027900018F08BE793E09ECD0093760688E793E0F0
:1027A00044CE8EE693E096CD66E571E0C8010E94C6
:1027B000881E892B91F40E943E17882339F08BE6FE
:1027C00093E00E94D70F86E992E098CD80E693E0EF
:1027D0000E94F00F8DE992E091CD60EB72E0C801AC
:1027E0000E94881E892B91F40E947C1B8C01892BEE
:1027F00019F40E94811B8C01C8010E94AE1B9F939B
:102800008F931F930F9386EB92E0D2CD61EC72E031
:10281000C8010E94881E892B59F48FE493E00E941E
:10282000D70F84E493E00E94D70F88E393E0FDCDB7
:1028300068EC72E0C8010E94881E892B91F56091B6
:1028400048067091490680914A0690914B06209166
:102850004D062F9320914C062F9320E13EE040E05F
:1028600050E00E94F51D122F032FF42EE52E2CE3CD
:1028700030E040E050E00E94F51D5F934F933F939E
:102880002F93EF92FF920F931F938FEC92E09F9301
:102890008F938E010F5F1F4F1F930F930E94F01EA7
:1028A0004CCE67EE72E0C8010E94881E892BF9F4B5
:1028B00088E196E00E94121A182F092F88E196E00D
:1028C0000E940C1A0F931F939F938F937F936F9384
:1028D000809171068F93809170068F9380916F061F
:1028E0008F9380916E068F938DEE92E0D0CF6FEF35
:1028F00072E0C8010E94881E892B39F485E393E0B9
:102900000E94D70F84E093E0F9CC6CE073E0C8013B
:102910000E94881E892B19F40E94B410A2CC88E76B
:1029200094E0D8CC80913905089581E080936100CE
:102930000E94880760933E0570933F058093400591
:10294000909341050895CF92DF92EF92FF92CF933B
:10295000DF930097A1F020916100222381F0EC0128
:102960008E899F890897029788F480913B05811191
:1029700006C0CE010E94001081E080933B05DF91EC
:10298000CF91FF90EF90DF90CF90089510923B058C
:102990000E9488076B017C0180913E0590913F0564
:1029A000A0914005B0914105A7019601281B390B64
:1029B0004A0B5B0BDA01C901883E9340A105B105C2
:1029C000F0F2CE010E940010C0923E05D0923F0569
:1029D000E0924005F0924105D2CFCF92DF92EF9284
:1029E000FF920F931F93CF93DF93CDB7DEB7C05401
:1029F000D1090FB6F894DEBF0FBECDBF20913C05C4
:102A000030913D052817390759F17B018C019093CE
:102A10003D0580933C050E94861BC82EF701D38498
:102A2000F484C8010E94AE1B1F92CF92FF92DF92E6
:102A30009F938F9384E193E09F938F931F9280E401
:102A40008F938E010F5F1F4F1F930F930E94C01E25
:102A5000C8010E94A4100FB6F894DEBF0FBECDBF10
:102A6000C05CDF4F0FB6F894DEBF0FBECDBFDF9165
:102A7000CF911F910F91FF90EF90DF90CF9008952D
:102A8000CF93DF93EC012091420530914305233031
:102A9000310521F58091480690914906A0914A069A
:102AA000B0914B0640914406509145066091460610
:102AB00070914706840F951FA61FB71F8093480685
:102AC00090934906A0934A06B0934B061092440691
:102AD000109245061092460610924706309345051F
:102AE00020934405D0934305C093420510924F05AF
:102AF000109250051092510510925205C430D10524
:102B000009F455C048F5C130D105C1F1C230D10535
:102B100009F046C0809148059091490590933E0682
:102B200080933D0688E196E00E94FC1982E596E0DC
:102B30000E94611C80914C0690914D0601969093E5
:102B40004D0680934C06109257051092580510922E
:102B5000590510925A0524C0C530D10521F0CE0187
:102B600007970397E8F410923E0610923D061092E4
:102B70003206109231061092330612C010923E06B1
:102B800010923D06109232061092310610923306D2
:102B900088E196E00E94FC1982E596E00E94611CA3
:102BA000D0934006C0933F06DF91CF91089570E027
:102BB00060E082E596E00E94D61BF2CF809142054C
:102BC000909143058530910550F4029768F080910B
:102BD0004805909149050E943E0D0C94740D853076
:102BE000910511F0079731F490E080E00E943E0DCE
:102BF0000C947D0D0C94880DE2E4F5E011821082B6
:102C0000138212821782168211861086128613860C
:102C10001486158616861786108A84EF91E0A0E048
:102C2000B0E0818B928BA38BB48B158A168A178A9E
:102C3000108E118E128E138E148E81E0858F089562
:102C400080914205909143050895809142059091AD
:102C500043058A30910540F4880F991FFC01EF5914
:102C6000FB4F80819181089588E293E008958091DF
:102C700048059091490508952091420530914305FA
:102C80002250310981E02230310508F080E00895BA
:102C900020914205309143052850310981E02230CE
:102CA000310508F080E008950F931F93CF93DF93D1
:102CB000CDB7DEB7C055D1090FB6F894DEBF0FBE51
:102CC000CDBF8091430681701F928F938DE293E078
:102CD0009F938F938E010F5F1F4F1F930F930E943F
:102CE000F01EC8010E94C908809143060F900F9002
:102CF0000F900F900F900F9080FD06C00E94E90981
:102D000090932A06809329060E947C1B9F938F93A1
:102D1000809167068F93809166068F9380912A0633
:102D20008F93809129068F93809143058F93809193
:102D300042058F9389E393E09F938F931F930F93A3
:102D40000E94F01EC8010E94C9080FB6F894DEBFA9
:102D50000FBECDBF009142051091430587EF93E070
:102D60000130110569F42091290630912A068091DD
:102D70006606909167062817390788F480E693E085
:102D80000E94C90880E0C05BDF4F0FB6F894DEBF39
:102D90000FBECDBFDF91CF911F910F9108958DE6AA
:102DA00093E00E94C90810934905009348051092CA
:102DB0004B0510924A0510924C0582E090E00E946B
:102DC000401581E0E0CF80914205909143059C0140
:102DD000225031092230310560F410924C051092D6
:102DE0004B0510924A0584E090E00E94401581E076
:102DF00008958430910559F41092320610923106EC
:102E0000109233060E94880D81E090E0EECF9C0185
:102E10002D7F2530310581F3019749F41092320658
:102E200010923106109233060E94880DE0CF80E0A8
:102E30000895809142059091430502970297E0F42E
:102E400080914C05811118C08091480590914905E9
:102E5000019779F482E090E090934B0580934A05C6
:102E600081E080934C0584E090E00E94401581E071
:102E7000089581E090E0F0CF80E008950F931F93D4
:102E8000CF93DF93CDB7DEB7C055D1090FB6F89415
:102E9000DEBF0FBECDBF10914306169511700E9484
:102EA0007C1B1F921F939F938F93809143058F9359
:102EB000809142058F9388E793E09F938F938E01D3
:102EC0000F5F1F4F1F930F930E94F01EC8010E94B7
:102ED000C90880914205909143050FB6F894DEBF72
:102EE0000FBECDBF8830910519F50E947C1B892B40
:102EF000C9F48DE993E00E94C90810924D050E9423
:102F0000701B81E090E00E94401581E0C05BDF4FC4
:102F10000FB6F894DEBF0FBECDBFDF91CF911F91EA
:102F20000F9108958EEA93E00E94C90880E0EECFE9
:102F3000099761F48091430681FD05C087EC93E019
:102F40000E94C908DECF8EED93E0EECF81EF93E0D3
:102F5000EBCF8091420590914305099749F081E0BC
:102F600080934E0589E090E00E94401581E008952D
:102F700080E00895AF92BF92CF92DF92EF92FF92DE
:102F80000F931F93CF93DF93CDB7DEB7C456D1090C
:102F90000FB6F894DEBF0FBECDBF80915F058111E3
:102FA00014C00E94FC15CC59DF4F0FB6F894DEBF59
:102FB0000FBECDBFDF91CF911F910F91FF90EF908A
:102FC000DF90CF90BF90AF90089580914F05909182
:102FD0005005A0915105B09152058C599F4FAF4FAC
:102FE000BF4F80934F0590935005A0935105B09328
:102FF000520520914306E0914205F091430521FFDF
:103000004CC1399711F00E94A9170E94DE15CBCF51
:103010008091840690918506892B19F481E090E0D7
:1030200002C088E090E00E944015EFCF1092320677
:103030001092310610923306E8CF20FD06C00E94A0
:10304000E90990932A0680932906D0905705C090ED
:103050005805B0905905A0905A05E0902D06F090C3
:103060002E0600912B0610912C0682E596E00E9418
:103070005E1CAF92BF92CF92DF929701201B310B63
:1030800037FF03C03195219531093F932F93FF926C
:10309000EF921F930F931F928F9384E094E09F937E
:1030A0008F938E010F5F1F4F1F930F930E94F01E8F
:1030B000C8010E94C90882E596E00E945E1C0FB616
:1030C000F894DEBF0FBECDBF882309F445C08091C0
:1030D0002D0690912E0620912B0630912C06821BF6
:1030E000930B86509F4F853F9140B0F580915705D7
:1030F00090915805A0915905B0915A0584319105D8
:10310000A105B105C0F40196A11DB11D809357051D
:1031100090935805A0935905B0935A05809157058F
:1031200090915805A0915905B0915A054497A10571
:10313000B10508F46ACF84E394E00E94C90883E0F3
:1031400090E00E9440151092570510925805109279
:10315000590510925A0559CF88E294E00E94C90897
:103160008091570590915805A0915905B0915A0545
:103170000097A105B10509F448CF0197A109B1094C
:10318000C5CF2091290630912A068091660690913C
:1031900067062817390708F038CF0E94E31635CFA5
:1031A00020912D0630912E06121613068CF14091B7
:1031B0005B0550915C0560915D0570915E054F5F08
:1031C0005F4F6F4F7F4F433051056105710570F4BC
:1031D00040935B0550935C0560935D0570935E05BD
:1031E000803D9740A105B10508F40FCF10925B0513
:1031F00010925C0510925D0510925E0580914C0561
:10320000882319F085E090E00ECF87E090E00BCFA7
:1032100010925B0510925C0510925D0510925E05A0
:10322000DFCF409153055091540560915505709141
:10323000560584179507A607B70708F4E6CE8091D0
:103240004A0590914B05909349058093480510924B
:103250004C0510925B0510925C0510925D05109272
:103260005E0510925705109258051092590510925C
:103270005A0582E090E0D7CE843F9140A105B10588
:1032800008F4C3CECBCE0E947C1B892B09F0BDCEA7
:103290001092420610924106C1CEE930F10508F0C5
:1032A000B4CEEB5AF64E0C94361E081816181D189C
:1032B000C118D018111905183C194319209142055D
:1032C000309143052830310569F021E020934D0508
:1032D000909342068093410688E090E00E9440155A
:1032E00081E0089580E0089560935305709354053C
:1032F00080935505909356050895FC017183608372
:103300005383428314821582168217821186108697
:103310008FE891E093878287158614861786168634
:1033200081E0808B0895FC01718760875387428715
:103330000895CF92DF92EF92FF920F931F93FC01BB
:10334000CB01841B950BAC01A281B3819C010E942F
:103350003C1E04811581268137816B017C01C00EE2
:10336000D11EE21EF31EA081B1819A010E943C1E73
:10337000072F182F292F332727FD3A95BB27F7FC56
:10338000BA95AF2D9E2D8D2D080F191F2A1F3B1F9B
:1033900082859385092E000CAA0BBB0B8017910721
:1033A000A207B30754F457FF16C02089222399F0CF
:1033B000C482D582E682F7820EC080859185092E6F
:1033C000000CAA0BBB0B081719072A073B0774F45C
:1033D0001416150654F355874487978786871F91DF
:1033E0000F91FF90EF90DF90CF900895C482D58227
:1033F000E682F782C801EFCFFC01148215821682A3
:10340000178215861486178616860895FC01718327
:103410006083538342830895FC01648175818681B2
:1034200097810895FC01848595850895E0E6F5E08F
:1034300011821082138212821482158216821782E0
:103440001086118680E89EEEA6E3B0E0828793871F
:10345000A487B58716861786108A118A128A138A5E
:103460000895CF92DF92EF92FF920F931F93CF9325
:10347000DF93CDB7DEB7A8970FB6F894DEBF0FBEC7
:10348000CDBF8C017B01FC0185859685FB01208DDC
:10349000318D28173907B8F43F932F939F938F935B
:1034A00085E794E09F938F93CE0101966C019F93E3
:1034B0008F930E94F01EC6010E94C9080FB6F894AF
:1034C000DEBF0FBECDBFF801828D81FD93C0238585
:1034D0003485F701838994892817390708F094C047
:1034E0004091660550916705609168057091690586
:1034F00080916A0590916B05A0916C05B0916D0566
:10350000481759076A077B0708F081C0F8019785BB
:10351000F7018589981708F45EC080916E058F5F6A
:1035200080936E05843108F075C0F80125853685D5
:10353000F701808D918D8217930708F04FC080911D
:1035400070058F5F80937005823008F066C0F801C7
:10355000428524813581433308F443C02436310544
:103560000CF03FC0809171058F5F809371058E31A3
:1035700008F056C0F801808191818C509E4F8217CF
:10358000930794F5809172058F5F809372058A305E
:1035900008F049C0453158F1232B49F58091730556
:1035A0008F5F80937305843108F040C010926105ED
:1035B0001092600590E080E0A8960FB6F894DEBF08
:1035C0000FBECDBFDF91CF911F910F91FF90EF9074
:1035D000DF90CF90089510926E05A7CF10927005DE
:1035E000B6CF10927105C6CF10927205D3CF10924C
:1035F0007305DCCF81E090E09093610580936005D6
:1036000021E020936405D8CF82E090E0F5CF83E0FD
:1036100090E0F2CF84E090E0EFCF86E090E0ECCF56
:1036200087E090E0E9CF88E090E0E6CF89E090E0A5
:10363000E3CF8F929F92AF92BF92CF92DF92EF92A1
:10364000FF92B0E0A0E06C017D01C61AD70AE10844
:10365000F108A7019601C701B6010E94D11D809013
:10366000660590906705A0906805B09069051C14E8
:103670001D041E041F04DCF428EE33E040E050E09B
:103680000E94171E820E931EA41EB51E8092660510
:1036900090926705A0926805B0926905FF90EF903F
:1036A000DF90CF90BF90AF909F908F90089520EAC9
:1036B0003FE040E050E00E94171E281539054A05FA
:1036C0005B0528F4821A930AA40AB50ADFCF109288
:1036D0006605109267051092680510926905DECFA5
:1036E000E0E6F5E014821182108216861786108AB1
:1036F000118A128A138A089580916005909161055C
:10370000089580916205909163050895CF92DF92AC
:10371000EF92FF92C0906A05D0906B05E0906C0527
:10372000F0906D0580E0C114D104E104F10489F04A
:1037300020916605309167054091680550916905B3
:10374000A4E6B0E00E945A1EA70196010E94F51D52
:10375000822FFF90EF90DF90CF9008958A309105EF
:1037600040F4880F991FFC01E357FB4F8081918142
:10377000089585E894E00895FC0111821082138277
:1037800012821582148288E592E09783868384E80A
:1037900093E09187808788EC90E09387828788EB1D
:1037A0009BE09587848781E086870895FC01161643
:1037B000170624F011821082168608959485858557
:1037C000228533856217730734F0292F382F62174B
:1037D00073070CF49B0131832083EECFFC017387C8
:1037E0006287558744870895FC01778366835187F4
:1037F000408708950F931F93CF93DF93FC01C081FF
:10380000D181028113819E01201B310B12161306F8
:1038100054F54681578164E6649FC001659F900D11
:10382000112468EE73E00E94E11D621773070CF427
:103830009B01200F311F3383228322813381209704
:1038400069F537FF02C013821282828193819583CA
:103850008483C817D90711F421E02687DF91CF911F
:103860001F910F9108952115310539F34085518538
:1038700064E6649FC001659F900D112468EE73E0BB
:103880000E94E11D319521953109621773070CF4EF
:103890009B01021B130B13830283CFCF54854585F5
:1038A000828593852817390734F0852F942F2817A0
:1038B00039070CF4C90193838283C7CFFC01868545
:1038C0000895FC01138212821582148216860895CF
:1038D000E2E8F5E0118210821382128215821482CE
:1038E0001782168210861186128613861486158614
:1038F00016861786118A108A108E799686E0E8312E
:10390000F80741F71092810510927D0510927E050F
:1039100010927F05109280051092790510927A0519
:1039200010927B0510927C050E94880760937505B4
:1039300070937605809377059093780510927405BF
:1039400008954F925F926F927F92AF92BF92CF9203
:10395000DF92EF92FF920F931F93CF93DF930E941A
:1039600088076B017C01B12C89E1A82E809181052B
:10397000B81608F464C08091750590917605A09101
:103980007705B0917805A7019601281B390B4A0BE2
:103990005B0BDA01C901883E9340A105B10508F42B
:1039A0003FC02091790530917A0540917B05509177
:1039B0007C0540907D0550907E0560907F0570905D
:1039C0008005420E531E641E751E4114510461048D
:1039D000710471F0A4E6B0E00E945A1EA3019201A6
:1039E0000E94F51D80917405821710F420937405D0
:1039F0001092790510927A0510927B0510927C0541
:103A000010927D0510927E0510927F051092800520
:103A1000C0927505D0927605E0927705F092780510
:103A2000DF91CF911F910F91FF90EF90DF90CF909A
:103A3000BF90AF907F906F905F904F9008950B2D47
:103A400010E0A09EE001A19ED00D1124CE57DA4FC8
:103A5000888D882309F477C088819981892B09F49E
:103A600072C08C859D85AE85BF85C816D906EA06CD
:103A7000FB0608F468C00E9488072B013C014C8AB1
:103A80005D8A6E8A7F8AE881F98109950E9488079C
:103A9000DC01CB0184199509A609B7094A885B881E
:103AA000712C612C481659066A067B0610F49B8B14
:103AB0008A8B4090790550907A0560907B057090D4
:103AC0007C05480E591E6A1E7B1E40927905509255
:103AD0007A0560927B0570927C05A09EF001A19E04
:103AE000F00D1124EE57FA4F2481358180859185A0
:103AF000A285B385B701A601481B590B6A0B7B0B46
:103B0000C9010596B0E0A0E084179507A607B7079E
:103B100028F4808991890196918B808BA09EF00179
:103B2000A19EF00D1124EE57FA4FC086D186E28691
:103B3000F386D701C601820F931FA11DB11D848793
:103B40009587A687B787B39411CFDC019091810543
:103B5000963028F5109719F189E1989FF00111240A
:103B6000EE57FA4FB183A0837383628355834483F6
:103B7000378326831086118612861386A90170E08A
:103B800060E04487558766877787118A108A138A91
:103B9000128A81E0808F9F5F90938105089580E075
:103BA0000895DB018F939F930E945A1EBF91AF919E
:103BB000A29F800D911DA39F900DB29F900D112487
:103BC0000895AA1BBB1B51E107C0AA1FBB1FA61764
:103BD000B70710F0A61BB70B881F991F5A95A9F7B6
:103BE00080959095BC01CD010895A1E21A2EAA1BE3
:103BF000BB1BFD010DC0AA1FBB1FEE1FFF1FA2179D
:103C0000B307E407F50720F0A21BB30BE40BF50B99
:103C1000661F771F881F991F1A9469F76095709522
:103C2000809590959B01AC01BD01CF010895052EB3
:103C300097FB1EF400940E942E1E57FD07D00E9491
:103C4000F51D07FC03D04EF40C942E1E50954095A4
:103C5000309521953F4F4F4F5F4F08959095809538
:103C6000709561957F4F8F4F9F4F0895EE0FFF1F07
:103C70000590F491E02D09940E94441E332312F420
:103C80008A1B9B0B0C94551EA29FB001B39FC001D1
:103C9000A39F700D811D1124911DB29F700D811D78
:103CA0001124911D08950E94441EB7FF0895821BA0
:103CB000930B08950E94441EA59F900DB49F900DF4
:103CC000A49F800D911D11240895FC018827992738
:103CD000E89421912032E9F3293010F02E30C8F316
:103CE0002B3241F02D3239F4689404C00E94B81E82
:103CF000820F911D219120532A30C0F31EF490951C
:103D000081959F4F089542EA54E00E94911E0895C4
:103D1000FB01DC018D91019080190110D9F3990B01
:103D20000895FA01A191B081009719F41097E1F07C
:103D3000CD01DC01CD010D90002011F4C00113C0B4
:103D4000FB012191222319F02015D9F7F3CFFB01B4
:103D50002191201519F41E92119606C02223C1F755
:103D60000D900020A1F7D001FA01A193B08308952E
:103D70007AE0979F902D879F802D910D11240895B3
:103D8000AEE0B0E0E6ECFEE10C949F210D891E89C7
:103D90008F89988D26E02C831A83098397FF02C0B0
:103DA00080E090E801979E838D83AE01455E5F4F72
:103DB000698D7A8DCE0101960E94131F4D815E811F
:103DC00057FD0AC02F813885421753070CF49A011A
:103DD000020F131FF80110822E96E4E00C94BB2111
:103DE000AEE0B0E0E6EFFEE10C949F210D891E8964
:103DF00086E08C831A8309838FEF9FE79E838D83F0
:103E0000AE01475E5F4F6F89788DCE0101960E94AB
:103E1000131F2F813885020F131FF80110822E9671
:103E2000E4E00C94BB21ABE0B0E0E9E1FFE10C94ED
:103E300091217C013B018A01FC011782168283815A
:103E400081FFC8C1CE0101965C01F7019381F301A6
:103E500093FD859193FF81913F01882309F453C11C
:103E6000853239F493FD859193FF81913F0185322D
:103E700029F4B70190E00E940321E7CF912C212C77
:103E8000312CFFE1F31538F08B3211F190F48032D0
:103E900009F1833229F137FC3CC020ED280F2A308C
:103EA00050F536FE20C08AE0989E200D1124922EF7
:103EB00006C08D3291F0803371F7689430F8F301C9
:103EC00093FD859193FF81913F018111DACF21C04C
:103ED000689431F8689432F8F2CF689433F8EFCFF1
:103EE000689434F8ECCFEAE02E9E200D1124222EA7
:103EF000689435F8E4CF8E3229F436FC04C1689416
:103F000036F8DDCF8C3619F4689437F8D8CF883678
:103F1000B1F2982F9F7D95549330E0F08336A1F154
:103F20008337C1F1833509F063C02801F2E04F0EF9
:103F3000511CF801C080D180692D70E036FC02C0B0
:103F40006FEF7FEFC6010E94ED204C01689437F8B7
:103F500082010AC00C5F1F4FFFE3F983882483941A
:103F6000912C6501E89437F833FE2DC0522C811452
:103F7000910471F5552009F468CFB70180E290E013
:103F80000E9403215A94F6CFF801808189830E5F45
:103F90001F4FE4CF2801F2E04F0E511CF801C08002
:103FA000D180692D70E036FC02C06FEF7FEFC60153
:103FB0000E94F8204C018201D5CFB70180E290E049
:103FC0000E9403212A942814190409F0B0F7CECFD7
:103FD000F60137FC859137FE81916F01B70190E0C2
:103FE0000E94032151105A94F1E08F1A9108BFCF1B
:103FF000843619F0893609F077C0F80137FE6BC0B6
:1040000060817181828193810C5F1F4FF32DFF7658
:104010003F2E97FF09C090958095709561957F4FD1
:104020008F4F9F4F689437F82AE030E0A5010E9437
:104030003321C82ECA188C2C432C36FE0CC0E894B1
:1040400040F8C91440F434FE05C032FC03C0F32D1F
:10405000FE7E4F2E892C44FE95C0FE01EC0DF11D15
:104060008081803309F087C0242D297E422E842D43
:104070008870582E43FC95C040FE8FC09C2C821443
:1040800018F42C0C922C981844FE91C0B70180E3D0
:1040900090E00E94032142FE09C088E790E041FEC3
:1040A00002C088E590E0B7010E940321C91408F41A
:1040B0008AC0CA94D12C9FEFC91AD90ACA0CDB1C3A
:1040C000F60182916F01B70190E00E940321AC14C8
:1040D000BD04B1F74FCF60817181072E000C880BB2
:1040E000990B0E5F1F4F92CFD32CE894D4F82AE09F
:1040F00030E0853739F1232D297FD22E8F3601F11B
:1041000048F48835A9F0F701868197812B96E2E182
:104110000C94AD21803749F08837A9F7D4FE02C04E
:104120006894D2F820E130E00DC06894D4F8F6CF5E
:1041300034FE03C0822F8660D82E20E132E002C018
:1041400028E030E0F801D7FE0FC0608171818281E4
:1041500093810C5F1F4FA5010E943321C82ECA18FE
:104160003D2CE89437F867CF6081718190E080E062
:104170000E5F1F4FF0CF42FC02C0839478CF839430
:10418000839475CF842D867809F471CFF6CFB7016B
:1041900080E290E00E94032183948214C0F3512CAA
:1041A00073CF522C5818821408F46ECFF8CF842D98
:1041B000867809F47BCF8BE241FE80E247FC8DE2FA
:1041C000B70190E071CFB70180E390E00E94032136
:1041D0009A946CCF8FEF9FEF99CFFC0105906150BF
:1041E00070400110D8F7809590958E0F9F1F08950D
:1041F000FC016150704001900110D8F780959095B6
:104200008E0F9F1F08950F931F93CF93DF93182F47
:10421000092FEB018B8181FD09C01FEF0FEF812F6B
:10422000902FDF91CF911F910F91089582FF14C0BD
:104230002E813F818C819D81281739073CF4E881CC
:10424000F981CF0101969983888310838E819F81A4
:1042500001969F838E83E3CFE885F985812F0995A9
:10426000892BA1F3DACFFA01AA27283051F12031A6
:1042700081F1E8946F936E7F6E5F7F4F8F4F9F4FFA
:10428000AF4FB1E03ED0B4E03CD0670F781F891F3C
:104290009A1FA11D680F791F8A1F911DA11D6A0F0A
:1042A000711D811D911DA11D20D009F468943F91BD
:1042B0002AE0269F11243019305D3193DEF6CF01BC
:1042C0000895462F4770405D4193B3E00FD0C9F782
:1042D000F6CF462F4F70405D4A3318F0495D31FDEF
:1042E0004052419302D0A9F7EACFB4E0A695979542
:1042F000879577956795BA95C9F700976105710518
:1043000008959B01AC010A2E069457954795379561
:104310002795BA95C9F7620F731F841F951FA01DBB
:1043200008952F923F924F925F926F927F928F9259
:104330009F92AF92BF92CF92DF92EF92FF920F9334
:104340001F93CF93DF93CDB7DEB7CA1BDB0B0FB63E
:10435000F894DEBF0FBECDBF09942A8839884888FB
:104360005F846E847D848C849B84AA84B984C88491
:10437000DF80EE80FD800C811B81AA81B981CE0F88
:10438000D11D0FB6F894DEBF0FBECDBFED0108956D
:04439000F894FFCFCF
:104394000401802500000300000000000100030068
:1043A4000100020003000400563D25752053544FBC
:1043B40052453D25750D0A0050616E656C004375CC
:1043C4007272656E7400436F6E74726F6C004C434E
:1043D4004400536C6F7753656E736F72730054654A
:1043E4006C656D65747279003900360033003000F5
:1043F4003B003800350032003A0037003400310009
:1044040053505F5241573D25750D0A0053253464BE
:104414002041253464202563002533752525202576
:1044240031752E253175412025327556004E4F4E7B
:104434004500212054524950504544202100455301
:10444400544F500053484F5254004F5645524C4F0E
:104454004144004F56455254454D5000554E444535
:1044640052564F4C54004F564552564F4C540053DD
:1044740054414C4C004F5645525350454544004E10
:104484004F464545444241434B000E0114011A0175
:1044940023012C0136013F0145014F010040434FE8
:1044A400554E543D257520494E53543D25642046B0
:1044B400494C543D25640D0A00244D442C53503D71
:1044C40025642C52503D25642C443D25642C493DE3
:1044D40025642C563D25752C543D25642C444952A5
:1044E4003D25632C53543D25732C54523D25642C97
:1044F4004932543D25642C52483D256C752C534358
:104504003D2564002A253032580D0A0021455654B1
:104514002C0020090D0A00535441545553005255A0
:104524004E0053544152542C52454D4F5445005360
:10453400544F502C52454D4F54450052455600524D
:104544004556455253452C52454D4F544500535002
:104554004545443D25642C2564004449523F0044AC
:1045640049523D2563004346473F004346473D25A6
:10457400642C25642C25642C25642C25642C25644A
:104584002C25642C25642C25642C25642C25642C72
:10459400256400534554004D415852504D004D4937
:1045A4004E52504D00414343454C00444543454C15
:1045B400004445414454494D45004B50004B49008B
:1045C40052415445440041434B2C4F4B0041434B13
:1045D4002C524546555345442C41435449564500B5
:1045E400545249503F00545249503D25642C257380
:1045F4000054524950533F00484F5552533F0048CE
:104604004F5552533D2530326C753A2530326C7516
:104614002C53433D25640054554E453F0054554E9C
:10462400453D25642C25642C256C642C256400539D
:1046340041564500534156452C4F4B0048454C507C
:10464400003E2000545249502C25732C493D2575B9
:104654002C4932543D257500554E4B4E0052454D64
:104664004F54453D25640D0A0053544152543A2099
:1046740053544154453D25642053503D2564204DF9
:10468400494E3D256420545249503D25640D0A008D
:104694004641494C2053504545440D0A005354416A
:1046A4005254204F4B0D0A0052455345543A20535F
:1046B400544154453D2564204143544956453D25C4
:1046C40064204553544F503D25640D0A0052455310
:1046D40045542D3E53544F505045440D0A00524505
:1046E400534554204641494C2041435449564520A2
:1046F400545249500D0A00524553455420455354D1
:104704004F502D3E53544F505045440D0A005245CE
:10471400534554204641494C204553544F500D0AAB
:10472400005245534554204641494C20535441546A
:10473400450D0A0052543D25752052523D256420F2
:104744004D523D256420444946463D256420434E50
:10475400543D256C750D0A00524553455420434E73
:10476400540D0A0052554E4E494E470D0A00494E0B
:1047740049540053545254005244574E0044454146
:10478400440042524B00434F415354005452495049
:10479400003E040F014304EE0148044D0452045644
:1047A400045C040E014255533D2575204C494D3D92
:1047B40025750D0A00554E4B4E4F574E00FD000E09
:1047C4000114011A0123012C0136013F0145014F57
:0247D4000100E2
:00000001FF
