:100000000C942A000C9461010C9485010C94470017
:100010000C9447000C9447000C9447000C94470044
:100020000C9447000C9447000C9403030C94470075
:100030000C9447000C9499010C9447000C944700D1
:100040000C9447000C9447000C9447000C94470014
:100050000C94470011241FBECFE5D8E0DEBFCDBF12
:1000600016E0A0E6B0E0E2E3F3E402C005900D92F2
:10007000A234B107D9F728E0A2E4B6E001C01D928E
:10008000AC3FB207E1F70E94881D0C9497210C94B5
:1000900000000E94240F0E94B40F83309105E1F10B
:1000A00030F5019781F10E94331660E083309105AD
:1000B00031F08230910511F00497C1F561E081E0E3
:1000C0000E94C60F0E945B16882399F181E00E946E
:1000D000DE0F0E944A160E94E60F0E94BD0F90910B
:1000E000B808882341F19E7F9093B8080895843022
:1000F0009105A9F00597B9F60E94B8168111D3CFE2
:1001000081EE90E006C00E9467168111CCCF8FEC83
:1001100090E00E946910C7CF0E948516C4CF0E944C
:1001200094168111C0CF89ED90E0F3CF60E080E0BC
:10013000C7CF80E0CCCF9160D7CFCF93DF930E9421
:100140004106EC019093AA088093A9086091E70802
:100150007091E8080E945D198091E9089091EA0881
:10016000C817D90760F082E090E00E94C9176EE9D5
:1001700078E082E090E0DF91CF910C942615DF913A
:10018000CF910895CF93DF930E949E0E0E94B30EED
:100190009093A3088093A2088091B80880FF2FC095
:1001A00080919E0890919F08BC0187EC98E00E9486
:1001B0002A1A87EC98E00E94481A9093A10880932D
:1001C000A0082091A2083091A308821B930B909362
:1001D000A5088093A40866ED78E08EE998E00E9477
:1001E000A118EC01009791F00E94C9170E94E10B41
:1001F0006EE978E0CE01DF91CF910C9426150E9434
:10020000220690939F0880939E08CECF0E944F169F
:100210008823F9F04091A2085091A3086091A008AA
:100220007091A1088DE898E00E940D18EC01CE01B4
:100230000E943B1BCE010E94C90B8091B208909195
:10024000B3080E94A30B0E94E516DF91CF910C9496
:10025000581B8DE898E00E947018D0E0C0E0E7CF0E
:100260000E945B16882331F08091B6089091B70800
:100270000C94340B8EE998E00C94A40ACF93DF938E
:100280000E946006CEE9D8E09E878D870E947F0697
:100290008F87DF91CF9108950E944F16882369F0D0
:1002A0002091A2083091A3088091DB089091DC088E
:1002B0002817390710F00E94651B8EE998E00C940E
:1002C000EE141F920F920FB60F9211242F933F93AB
:1002D0004F935F936F937F938F939F93AF93BF934E
:1002E000EF93FF930E94820EFF91EF91BF91AF9128
:1002F0009F918F917F916F915F914F913F912F913E
:100300000F900FBE0F901F9018951F920F920FB66F
:100310000F9211248F931BBC1ABCC298C198C0982D
:1003200081E0809342068F910F900FBE0F901F9037
:1003300018951F920F920FB60F9211242F933F938F
:100340004F935F936F937F938F939F93AF93BF93DD
:10035000EF93FF938CB10E940E10FF91EF91BF912C
:10036000AF919F918F917F916F915F914F913F914D
:100370002F910F900FBE0F901F9018958430E0F4CE
:100380006830D0F4E82FF0E0EE0FFF1FEF57FF4F7B
:100390000190F081E02D81E090E001C0880F6A9526
:1003A000EAF79081413029F4892B808390E080E046
:1003B000089580958923F9CF81E090E008958430F5
:1003C000D8F46830C8F441155105B1F0E82FF0E0D9
:1003D000EE0FFF1FEF58FF4F0190F081E02D80815D
:1003E00090E002C0959587956A95E2F78170FA01D1
:1003F000808390E080E0089581E090E0089584306B
:1004000090F46115710579F0E82FF0E0EE0FFF1F11
:10041000EF58FF4F0190F081E02D8081FB01808338
:1004200090E080E0089581E090E008958430E0F469
:100430006830D0F4E82FF0E0EE0FFF1FE758FF4FD1
:100440000190F081E02D81E090E001C0880F6A9575
:10045000EAF79081413029F4892B808390E080E095
:10046000089580958923F9CF81E090E008950C9458
:100470001602CF93DF931F92CDB7DEB71982AE017C
:100480004F5F5F4F0E94DF0189810F90DF91CF9115
:1004900008958430B8F46830A8F4E82FF0E0EE0F47
:1004A000FF1FE758FF4F0190F081E02D808121E090
:1004B00030E001C0220F6A95EAF78227808390E03E
:1004C00080E0089581E090E0089591E0411101C03D
:1004D00090E0492F0C941602892B71F03E9A3F98B8
:1004E0003D98389839983A983B983098319A329A92
:1004F000379A90E080E0089581E090E00895883098
:1005000080F4389839983A983B9880FD389A81FD64
:10051000399A8695869509F03A9A369A90E080E065
:10052000089581E090E00895009759F034B125B125
:10053000232732272327FC013183208390E080E0AA
:10054000089581E090E0089586B18295869586951C
:100550008370809581700895CF93DF93EB010E94A3
:100560007F02009749F40E94A4028823E1F3CE01A0
:10057000DF91CF910C949402DF91CF910895379839
:1005800090E080E0089583B78F7B83BF83B7886056
:1005900083BF12BE8DE48CBF83B7846083BF83B7F3
:1005A0008D7F83BF83B7816083BF90E080E0089533
:1005B000892B51F489B791E0672B09F092E0892BE0
:1005C00089BF90E080E0089581E090E00895892B54
:1005D00051F489B79EEF672B09F09DEF892389BFFE
:1005E00090E080E0089581E090E008954115510584
:1005F00039F0509348064093470690E080E0089514
:1006000081E090E008951F920F920FB60F9211248F
:100610002F933F934F935F936F937F938F939F930A
:10062000AF93BF93EF93FF93E0914706F091480695
:10063000309709F00995FF91EF91BF91AF919F918C
:100640008F917F916F915F914F913F912F910F907B
:100650000FBE0F901F9018958FB58E7F8FBD8FB5F1
:1006600082608FBD8EB588608EBD8EB580618EBD77
:100670008FB58F7B8FBD8FB580688FBD1DBC1CBCB7
:100680008FE891E097BD86BD8EB58B7F8EBD8EB510
:100690008D7F8EBD8EB581608EBD41E065E083E0CB
:1006A0000E94BE0190E080E0089585369105B8F47F
:1006B000009729F41BBC1ABC90E080E008959C01CF
:1006C000A0E9B1E00E94431E24E630E040E050E0A3
:1006D0000E94F41D215031093BBD2ABDEDCF81E0C0
:1006E00090E0089585B58F7B85BD85B5886085BD13
:1006F00014BC85B5846085BD85B58D7F85BD85B508
:10070000816085BD85B58F7D85BD85B5806185BDE1
:1007100041E067E083E00E94BE0190E080E0089540
:100720008F3F910509F020F483BD90E080E00895AB
:1007300081E090E008958FB780688FBF08958FB7EC
:100740008F778FBF08958091430690914406A091C2
:100750004506B09146060196A11DB11D8093430642
:1007600090934406A0934506B09346060895CF9211
:10077000DF92EF92FF920E949F03C0904306D090B9
:100780004406E0904506F09046060E949B03C70190
:10079000B601FF90EF90DF90CF90089583309105E0
:1007A00088F48130910541F0029749F08BB780645D
:1007B0008BBF90E080E008958BB78068F9CF8BB74E
:1007C0008062F6CF81E090E008958330910588F44F
:1007D0008130910541F0029749F08BB78F7B8BBF39
:1007E00090E080E008958BB78F77F9CF8BB78F7D3E
:1007F000F6CF81E090E0089583309105A8F4813030
:10080000910509F10297C1F185B78E7F85BF85B744
:100810008D7F85BF6130710551F060F062307105E8
:1008200079F06330710549F081E090E0089585B773
:10083000816085BF90E080E0089585B7816085BFC5
:1008400085B78260F6CF85B78B7F85BF85B7877FF9
:1008500085BF6130710569F068F36230710531F070
:100860006330710509F785B7846085BF85B78860F7
:10087000E0CF85B78460DDCF6230710531F0633041
:10088000710591F684B7806402C084B78F7B84BF02
:10089000D1CFCF93DF93EC01892B99F08881998197
:1008A0008330910570F46A817B810E94FC0300977C
:1008B00051F4888199818130910589F038F002974F
:1008C00089F081E090E0DF91CF9108958AB780644C
:1008D0008ABF88819981DF91CF910C94CE038AB72A
:1008E0008068F6CF8AB78062F3CF039730F481E057
:1008F00090E0672B21F080E0089581E090E008957A
:100900008FB780688FBF08958FB78F778FBF089597
:1009100040914B0650914C062091490630914A0671
:1009200042175307A9F3E0914906F0914A06E35BA9
:10093000F94F2081FC0120838091490690914A065D
:1009400001968F73992790934A068093490690E009
:1009500080E00895CF93DF93EC01892B09F44CC01C
:1009600088819981AA81BB810097A105B10509F40D
:1009700043C09C01AD0184E0220F331F441F551F6B
:100980008A95D1F760E074E284EF90E00E94F41D54
:1009900021503109832F8F7080BD29B98E818295B6
:1009A00080739885990F990F990F9870892B80689B
:1009B0009C81990F9670892B80BD8C819D810797B2
:1009C000C9F4529A539A549A579A109290061092D8
:1009D0008F0610928E0610928D0610924C06109281
:1009E0004B0610924A061092490690E080E0DF9193
:1009F000CF9108955298E6CF81E090E0F8CF5398D8
:100A0000549857985698559890E080E00895209112
:100A10008F06309190062F5F3F4F2F733327409101
:100A20008D0650918E0642175307C9F3E0918F0649
:100A3000F0919006EF56F94F808330939006209303
:100A40008F06559A90E080E00895009711F00C947D
:100A5000880481E090E00895009711F140914B06E1
:100A600050914C062091490630914A06421753078F
:100A7000B9F0E0914906F0914A06E35BF94F208115
:100A8000FC0120838091490690914A0601968F735C
:100A9000992790934A068093490690E080E0089554
:100AA00081E090E00895CF93DF93EC01892B29F446
:100AB00081E090E007C00E94070589918111FBCF7A
:100AC00090E080E0DF91CF9108959F92AF92BF9226
:100AD000CF92DF92EF92FF920F931F93CF93DF930A
:100AE0001F92CDB7DEB71982009779F481E090E0CC
:100AF0000F90DF91CF911F910F91FF90EF90DF90BA
:100B0000CF90BF90AF909F9008956115710571F3DC
:100B1000942E6C015C0110E000E07B0181E0E81A9A
:100B2000F1080E151F0548F4CE0101960E948804B5
:100B3000892BE1F68981891107C00C0D1D1DF80173
:100B4000108290E080E0D4CFF50181935F010F5FC8
:100B50001F4FE7CF892B21F0579A90E080E008954E
:100B600081E090E0089520918F0630919006809169
:100B70008D0690918E062817390719F490E080E0D1
:100B8000089582E090E008950C9407050C945305B5
:100B900080E280B90898099886B7846086BF90E0A3
:100BA00080E008950C94C80584EA86BF06B607FE67
:100BB000FDCF91B1987F21E030E0983011F430E022
:100BC00020E0C901089584E986BF90E080E008959F
:100BD00083B984E886BF06B607FEFDCF21B1287F22
:100BE000283141F0283231F081E090E0203421F4C6
:100BF00080E0089580E090E00895CF93DF93D82FB0
:100C0000C62F0E94D405009741F48D2F880FC17024
:100C10008C2BDF91CF910C94E805DF91CF91089553
:100C20000C94E805CF93DF9300D0CDB7DEB71A82DE
:100C30001982CE0101960E946C020F900F90DF91F5
:100C4000CF910895CF93DF9300D0CDB7DEB71A824E
:100C50001982BE016F5F7F4F80E00E94AC02298144
:100C60003A81A8EBBBE00E94431E2FEF33E040E047
:100C700050E00E94F41DC9010F900F90DF91CF91B9
:100C80000895CF93DF9300D0CDB7DEB71A821982D3
:100C9000BE016F5F7F4F81E00E94AC0229813A81E3
:100CA000A0E2BEE40E94431E2FEF33E040E050E09C
:100CB0000E94F41DC9010F900F90DF91CF9108950C
:100CC000CF93DF9300D0CDB7DEB71A821982BE0171
:100CD0006F5F7F4F82E00E94AC0229813A81A0E6DB
:100CE000BAEE0E94431E2FEF33E040E050E00E9436
:100CF000F41DC9010F900F90DF91CF910895CF930C
:100D0000DF9300D0CDB7DEB71A821982BE016F5FC4
:100D10007F4F83E00E94AC0229813A81A6E9B0E0CE
:100D20000E94431E2FEF33E040E050E00E94F41D8C
:100D3000822F0F900F90DF91CF9108951092D406DB
:100D40001092D3061092D2061092D1060C94720320
:100D50009093D4068093D3061092D2061092D106B7
:100D60008130910551F028F0049750F081E090E037
:100D7000089590E080E00C94900386E990E0FBCF2A
:100D80008CE390E0F8CF8091D3069091D406009741
:100D900059F18330910541F14AE050E081309105ED
:100DA00011F442E350E02091D1063091D2062F5F3A
:100DB0003F4F2417350728F43093D2062093D106ED
:100DC00008951092D2061092D1062091600022233D
:100DD00061F090E080E00E94900381E090916000DB
:100DE000911180E0809360000895019719F08CE3E1
:100DF00090E0F1CF86E990E0EECFDB01FA0182309E
:100E00009105A1F028F4019761F01C9210820895D9
:100E10008330910579F00497C1F783E08C9387E0E4
:100E200003C081E08C9383E08083089583E08C93FA
:100E300085E0FACF83E08C9384E0F6CF8230910591
:100E400061F018F4019739F008958330910549F065
:100E5000049759F008956CBF089570E07BBD6ABD9A
:100E6000089570E079BD68BD089563BD0895EF925F
:100E7000FF921F93CF93DF93EC017B01CB0101978E
:100E800010E040E08330910540F4FC01E457FF4F4F
:100E90004081FC01E757FF4F10812885222329F06C
:100EA000029718F4842F412F182F50E0698170E0C9
:100EB000888190E00E943702412F50E06B8170E002
:100EC0008A8190E00E943702FC86EB86DF91CF9109
:100ED0001F91FF90EF9008958230910591F018F4E2
:100EE000019739F008958330910599F00497C1F086
:100EF000089583B7662319F0806283BF08958F7DBC
:100F0000FCCF8FB5662319F080688FBD08958F7769
:100F1000FCCF8FB5662311F08062F7CF8F7DF5CFC0
:100F200085B5662319F0806285BD08958F7DFCCF5D
:100F30000F931F93CF93DF9300D0CDB7DEB78C0113
:100F40001A821982FC01868197810097A9F441E0F9
:100F500050E08285811102C050E040E0F8016581D7
:100F600070E0848190E00E9437020F900F90DF9133
:100F7000CF911F910F910895AE014F5F5F4FBE015A
:100F80006E5F7F4F0E94FD06F801828526813781C2
:100F900081110AC060E0C9010E946C07698170E09C
:100FA0008A8150E040E0DECFFFEF8F9FC001112427
:100FB00064E670E00E94E01DC9010E941E0761E026
:100FC000F801868197810E946C07CFCF0F931F9302
:100FD000CF93DF9300D0CDB7DEB7FC011A82198220
:100FE000892B49F481E090E00F900F90DF91CF9131
:100FF0001F910F91089580818430A0F792819430E1
:1010000088F7268137812530310560F78F0141E06F
:1010100061810E94BE0141E0F801638182810E94EA
:10102000BE01F801618170E0808150E040E090E015
:101030000E943702F801638170E0828150E040E055
:1010400090E00E943702F801868197810097F9F4B9
:101050008481843038F641E065810E94BE01F80148
:10106000658170E0848150E040E090E00E943702AA
:10107000F801128681E0818770E060E0C8010E947B
:101080003707C8010E94980790E080E0ADCFAE011D
:101090004F5F5F4FBE016E5F7F4F0E94FD0641E0D4
:1010A00069818A810E94BE01698170E08A8150E075
:1010B00040E090E00E943702F801868197818430F9
:1010C000910560F48230910598F4019769F060E031
:1010D000F801868197810E946C07CACF0497B9F7FF
:1010E0008CE485BD13BCF3CF8BE483BF1CBEEFCF74
:1010F0008FB581608FBD8EB588608EBD8EB58260E4
:101100008EBD8EB581608EBDE2CF009771F0FC017F
:101110002185222351F0653608F064E6FC016287E0
:101120000E94980790E080E0089581E090E00895A3
:10113000CF93DF93009789F0FC012185222369F08A
:10114000EC0161E070E00E943707CE010E94980731
:1011500090E080E0DF91CF91089581E090E0FACFB8
:10116000CF93DF93009789F0FC012185222369F05A
:10117000EC0162E070E00E943707CE010E94980700
:1011800090E080E0DF91CF91089581E090E0FACF88
:10119000009769F0FC012185222349F06230710536
:1011A00030F4672B11F40C9498080C94B00881E08B
:1011B00090E008950F931F93CF93DF9300D0CDB7A6
:1011C000DEB71A821982009789F1FC01218522235A
:1011D00069F18C0170E060E00E943707F8018681B8
:1011E0009781009789F4658170E0848150E040E048
:1011F00090E00E94370290E080E00F900F90DF9126
:10120000CF911F910F910895AE014F5F5F4FBE01C7
:101210006E5F7F4F0E94FD0660E0F8018681978136
:101220000E946C07698170E08A81E0CF81E090E0E4
:10123000E4CFCF93DF93009719F1FC01218522239E
:10124000F9F0EC0163E070E00E9437078E819F8126
:10125000009769F46D8170E08C8141E050E090E08E
:101260000E94370290E080E0DF91CF9108956FEF08
:101270000E941E0761E08E819F810E946C07F2CF61
:1012800081E090E0F1CF009779F0FC0121852223E5
:1012900059F06115710541F083859485FB019183B7
:1012A000808390E080E0089581E090E008950097C9
:1012B00069F0FC012185222349F06115710531F0A7
:1012C0008285FB01808390E080E0089581E090E0DA
:1012D00008950F931F93CF93DF9300D0CDB7DEB760
:1012E0001A8219820097A1F1FC012185222381F144
:1012F0008C010E94DA08F801868197810097E1F05D
:10130000AE014F5F5F4FBE016E5F7F4F0E94FD06D3
:1013100060E0F801868197810E946C0760E0F80127
:10132000868197810E941E07698170E08A8150E062
:1013300040E090E00E943702F8011286118690E0AA
:1013400080E00F900F90DF91CF911F910F91089542
:1013500081E090E0F6CFCF93DF93009731F4C1E0C6
:10136000D0E0CE01DF91CF910895C62F60E0FC015F
:1013700080810E94FD05892B91F780E00E94100674
:10138000892B19F00E94E305EACF8C2F0E941006EA
:10139000EC01892BB9F70E94E305E3CFCF93DF93EC
:1013A000009731F4C1E0D0E0CE01DF91CF910895F4
:1013B000C62F60E0FC0180810E94FD05892B91F71A
:1013C00080E40E941006892B19F00E94E305EACF01
:1013D0008C2F0E941006EC01892BB9F70E94E305BF
:1013E000E3CF0F931F93CF93DF93009741F401E076
:1013F00010E0C801DF91CF911F910F910895611501
:101400007105A9F3EB0160E0FC0180810E94FD05FC
:10141000892B69F780E40E9410068C01892B51F416
:101420008991811103C00E94E305E3CF0E94100659
:10143000892BB1F30E94E305DACFCF93DF9300D07D
:10144000CDB7DEB7198220E42A83009799F0FC011A
:101450002181621778F42281421760F4FE01E60FC1
:10146000F11D6181640F60680F900F90DF91CF9143
:101470000C94AB0981E090E00F900F90DF91CF9139
:1014800008950F931F93CF93DF93EC0189010E947E
:101490001D0A892B41F4B801CE01DF91CF911F9134
:1014A0000F910C94F10981E090E0DF91CF911F91B1
:1014B0000F91089561E00C94AB0962E00C94AB09C4
:1014C0009C0190916100662349F0946090936100C3
:1014D000609161006860C9010C94AB099B7FF6CFF5
:1014E000CF93DF93009729F481E090E0DF91CF91D3
:1014F0000895EC0168E30E94AB09892BA9F78CE001
:10150000809361006CE0CE010E94AB09892B61F7EA
:10151000CE010E945A0A892B39F766E0CE010E945B
:10152000AB0931E020E0892B09F430E0832F922FC2
:10153000DDCFE8EDF6E08EE3808382E0818380E119
:101540008283CF010C94700AEF92FF920F931F9346
:10155000CF93DF93CDB7DEB7A2970FB6F894DEBF77
:101560000FBECDBFFC0181E090E0309709F46BC065
:10157000848995898130910509F474C0029709F036
:101580006FC092E58F011F929F9385818F93848115
:101590008F9383818F9382818F938CEE90E09F93C2
:1015A0008F937E0182E1E80EF11CFF92EF920E9480
:1015B000BF1ED8011B96ED91FC911C971F968C9134
:1015C0001F971F928F931D968D919C9128EE33E06B
:1015D000B9010E94E01D7F936F93CF0164E670E034
:1015E0000E94E01DCB016AE070E00E94E01D9F9325
:1015F0008F93CF01B9010E94E01D7F936F93F80193
:1016000082851F928F938EEF90E09F938F938E0130
:101610000F5F1F4F1F930F930E94BF1E970140E063
:1016200060E088ED96E00E94410A980140E061E0A8
:1016300088ED96E00E94410A0FB6F894DEBF0FBE17
:10164000CDBF90E080E0A2960FB6F894DEBF0FBE4B
:10165000CDBFDF91CF911F910F91FF90EF90089533
:101660009DE290CF96E48ECF0F931F93CF93DF939D
:10167000CDB7DEB761970FB6F894DEBF0FBECDBF12
:10168000182F092F8091D6069091D70601968F309A
:101690009105B8F59093D7068093D60626E131E000
:1016A00040E060E088ED96E00E94410A8091D50616
:1016B000882399F10F931F9387E291E09F938F9373
:1016C0008E010F5F1F4F1F930F930E94BF1E980143
:1016D00040E061E088ED96E00E94410A0F900F9093
:1016E0000F900F900F900F9090E080E061960FB6F2
:1016F000F894DEBF0FBECDBFDF91CF911F910F9148
:1017000008951092D7061092D60681E09091D506E2
:10171000911180E08093D506C1CF8EE998E00E94B8
:10172000A40AE2CF41E060E081E00E94BE0141E016
:1017300061E081E00E94BE0141E062E081E00E9440
:10174000BE010C942C038130910529F0029771F0B1
:1017500050E040E002C041E050E070E060E081E035
:1017600090E00E94370250E040E00AC050E040E0C4
:1017700070E060E081E090E00E94370241E050E0DC
:1017800061E070E081E090E00E94370290E080E04C
:1017900008950C94550341E050E062E070E081E070
:1017A00090E00E94370290E080E0089550E040E031
:1017B00062E070E081E090E00E94370290E080E01B
:1017C000089590E080E00E94550350E040E062E020
:1017D00070E081E090E00E94370250E040E070E06D
:1017E00060E081E090E00E94370250E040E061E07C
:1017F00070E081E090E00C943702009741F002978E
:1018000069F06370E62FF0E0E956FF4F05C06370A2
:10181000E62FF0E0E556FF4F808108956770E62FD0
:10182000F0E0E157FF4FF8CF1F93CF93DF93EC0128
:10183000162F462F4170698170E0888150E090E05A
:101840000E94370211FB442740F96B8170E08A81C6
:1018500050E090E00E94370212FB442740F96D816E
:1018600070E08C8150E090E00E94370213FB442727
:1018700040F96F8170E08E8150E090E00E94370265
:1018800081E0111101C080E08D8BDF91CF911F911C
:101890000895CF93DF93009709F451C0FC01278589
:1018A0003089232B09F44BC0EC0141E06181808138
:1018B0000E94BE0141E06B818A810E94BE0141E02D
:1018C0006D818C810E94BE0141E06F818E810E94FA
:1018D000BE018C858823D1F041E0698588850E940E
:1018E000BE0141E06B858A850E94BE01698570E07A
:1018F000888541E050E090E00E9437026B8570E0FF
:101900008A8541E050E090E00E94370289899A89F7
:10191000892B21F481E090E09A8B898B1C8A1E8AA6
:101920001F8A188E198E1D8A60E0CE010E94140C49
:1019300081E08B8B90E080E0DF91CF91089581E092
:1019400090E0FACFFC01892B61F08389882349F06C
:101950006330710530F476876587148A90E080E003
:10196000089581E090E00895009779F0FC012389C3
:10197000222359F06115710511F461E070E0FC015A
:10198000728B618B90E080E0089581E090E0089593
:10199000CF93DF93EC01892B49F18B89882331F1B7
:1019A0006115710519F12F85388950E040E08D856A
:1019B0009E85029721F4220F331F441F551FDB0120
:1019C0000E94591E9B01AC0160E67AEE80E090E037
:1019D0000E94F41D211531054105510539F03A8B5E
:1019E000298B90E080E0DF91CF91089581E090E035
:1019F000FACFCF92DF92EF92FF92CF93DF93EC0179
:101A0000AB01892B09F440C08B898823E9F162304E
:101A10007105D0F52D853E8564E02230310509F44D
:101A200068E08C8970E0CE88DF88E88CF98C90E0E3
:101A3000452BF1F401960E94E01D8C8B8FEFC81AA4
:101A4000D80AE80AF80ACE8ADF8AE88EF98E6C890D
:101A5000C9010E94FD0B682FCE010E94140C90E07A
:101A600080E0DF91CF91FF90EF90DF90CF900895CD
:101A7000860F971F01970E94E01D8C8B81E0C81A8A
:101A8000D108E108F108DFCF81E090E0EACF2F92A2
:101A90003F924F925F926F927F928F929F92AF92FE
:101AA000BF92CF92DF92EF92FF920F931F93CF934B
:101AB000DF9300D000D0CDB7DEB7009709F458C04F
:101AC000FC012389222309F453C04230510508F058
:101AD0004FC07A011B018C01D12CC12C80EA482E09
:101AE0008FE0582E612C712C2C143D04C9F490E029
:101AF00080E00F900F900F900F90DF91CF911F918A
:101B00000F91FF90EF90DF90CF90BF90AF909F909C
:101B10008F907F906F905F904F903F902F9008959F
:101B2000B701C8010E94F90CF801818992890097D8
:101B300021F42FEFC21AD20AD7CF49825A826B8280
:101B40007C8249815A816B817C814A015B01F1E091
:101B50008F1A9108A108B10889829A82AB82BC824F
:101B6000452B462B472B11F40197E1CF0000E9CF1D
:101B700081E090E0BECF0F931F93CF93DF93EC01F2
:101B80008A01892B09F18B898823F1F02F85388907
:101B900050E040E08D859E85029721F4220F331F8F
:101BA000441F551FDB010E94591E28E631E040E02A
:101BB00050E00E94F41DB901A801CE01DF91CF9140
:101BC0001F910F910C94470D81E090E0DF91CF9130
:101BD0001F910F910895CF93DF93009731F1FC018E
:101BE0002389222311F1EC018485882381F061850A
:101BF00070E0808541E050E090E00E9437026B8504
:101C000070E08A8541E050E090E00E9437026C89E4
:101C10008D859E850E94FD0B682FCE010E94140CBD
:101C200090E080E0DF91CF91089581E090E0FACFDD
:101C3000CF93DF93009709F1FC0123892223E9F078
:101C4000EC0160E00E94140C8C85882381F069858A
:101C500070E0888550E040E090E00E9437026B859C
:101C600070E08A8550E040E090E00E9437021D8AD3
:101C700090E080E0DF91CF91089581E090E0FACF8D
:101C8000009799F0FC012389222379F061157105F1
:101C900061F086899789A08DB18DFB018083918346
:101CA000A283B38390E080E0089581E090E00895FE
:101CB000009759F0FC012389222339F0168A178AEC
:101CC000108E118E90E080E0089581E090E00895FC
:101CD000FC01892BA1F08389882389F061157105A6
:101CE00071F02785308985859685029711F4220F3A
:101CF000331FFB013183208390E080E0089581E071
:101D000090E008958091E2069091E3060196909309
:101D1000E3068093E20608951092E3061092E2062D
:101D20001092E1061092E00662E87EE090E080E02A
:101D30000E94750490E080E00C94CE03F89420910A
:101D4000E2063091E3061092E3061092E2067894E0
:101D50004CE3429FC001439F900D11249093E106F4
:101D60008093E00608958091E0069091E106089541
:101D700040E065E082E00E94BE0140E066E082E073
:101D80000E94BE0140E067E082E00E94BE0140E0A8
:101D900066E083E00E94BE0140E064E083E00E94D0
:101DA000BE0141E050E065E070E082E090E00E941A
:101DB000650241E050E066E070E082E090E00E9461
:101DC000650241E050E067E070E082E090E00E9450
:101DD000650241E050E066E070E083E090E00E9440
:101DE000650241E050E064E070E083E090E00E9432
:101DF000650241E063E081E00E94BE0141E062E0F3
:101E000082E00E94BE0141E063E082E00E94BE01E8
:101E100041E064E082E00E94BE0140E063E081E0D6
:101E20000E94160240E062E082E00E94160240E05A
:101E300063E082E00E94160240E064E082E00E94DB
:101E4000160290E080E00895EF92FF920F931F93A7
:101E5000CF93DF93CDB7DEB72C970FB6F894DEBFE4
:101E60000FBECDBF65E082E00E943902F82E66E029
:101E700082E00E943902082F67E082E00E94390266
:101E8000182F66E083E00E94390291E0F11090E0A3
:101E9000998791E0011190E09A8791E0111190E00B
:101EA0009B8791E0811190E09C8788E0EFE9F0E06A
:101EB000DE01119601900D928A95E1F74091F106AD
:101EC0005091F206BE01675F7F4FE5EEEE2EE6E031
:101ED000FE2EE9EEF6E090E080E0DB012D91BD0101
:101EE000D7013D917D012317E1F010828D01015052
:101EF0001109D8012C93019631968430910569F728
:101F00005093F2064093F1062C960FB6F894DEBF7C
:101F10000FBECDBFDF91CF911F910F91FF90EF903A
:101F200008952130D1F430813F5F3083353018F38C
:101F30008C010351194FD8013C913111DCCF2C9306
:101F40009C01220F331F41E050E04C0F5D1F240F16
:101F5000351FD9014D915C91CECF10829C01235148
:101F6000394FD9011C92C7CF8091F1069091F206AA
:101F70001092F2061092F106089564E083E00E9448
:101F8000390291E0811190E0892F0895662371F064
:101F90008091E4068F5F8A3018F48093E4060895F8
:101FA0001092E40663E081E00C94490241E0811163
:101FB00001C040E063E081E00C94160241E0811131
:101FC00001C040E062E082E00C941602813091058D
:101FD00021F0029749F040E001C041E063E082E077
:101FE0000E94160240E006C040E063E082E00E94EA
:101FF000160241E064E082E00C941602009761F062
:10200000FC012081222341F08191811102C081E0F5
:10201000089580538A30C0F380E00895CF93C82F8D
:1020200080914607882319F08C2F0E94C405E09107
:102030004407C83011F0CF3781F4EE2361F1E1504D
:10204000E0934407F0E0EC5FF84F108280E20E94DA
:10205000C40588E0CF910C94C405CD3011F0CA308E
:1020600081F480E791E0EE2349F0F0E0EC5FF84F77
:10207000108281E0809345078DE194E0CF910C942C
:10208000C605EF3340F481E08E0F80934407F0E003
:10209000EC5FF84FC083CF9108950E94C6058DE193
:1020A00094E00C94C605109244071092450781E015
:1020B00080934607E4E0F7E080E4DF011D928A9513
:1020C000E9F785E391E00E944D1088E591E00C94DA
:1020D0004D10CF93DF93EC0185E791E00E94C60598
:1020E000CE010E94C6058DE194E0DF91CF910C9462
:1020F000C6057F928F929F92AF92BF92CF92DF924E
:10210000EF92FF920F931F93CF93DF93CDB7DEB77C
:10211000C058D1090FB6F894DEBF0FBECDBF8C01F9
:10212000FC0183A074A0C78CB0A0A1A092A00E94C3
:10213000E719D82EF801F08CE18C0E943816F801CE
:10214000248935892130310509F470C022303105E8
:1021500009F46EC02DE27F928F929F92AF92BF9250
:10216000CF921F92DF92EF92FF929F938F931F92D5
:102170002F93F80187851F928F9386858F9385858E
:102180008F9384858F9383858F9382851F928F93FE
:1021900085818F9384818F9383818F9382818F93A5
:1021A0008DE791E09F938F938E010F5F1F4F1F93D9
:1021B0000F930E94BF1E0FB6F894DEBF0FBECDBFB7
:1021C00081E020E0F801E80FF11D9081911132C00B
:1021D000F80101900020E9F7CF011F922F9328EC1E
:1021E00031E03F932F9301979F938F930E94BF1EDF
:1021F000C8010E94C6050F900F900F900F900F908E
:102200000F90C058DF4F0FB6F894DEBF0FBECDBFA2
:10221000DF91CF911F910F91FF90EF90DF90CF90C2
:10222000BF90AF909F908F907F90089526E493CFBA
:1022300022E591CF29278F5FC5CFCF93DF93EC01A4
:1022400080ED91E00E94C605CE010E94C6058DE199
:1022500094E0DF91CF910C94C60586ED91E00E9449
:102260004D1083EF91E00E944D1082E192E00E94B8
:102270004D108CE392E00E944D1087E592E00E94A1
:102280004D1087E892E00E944D108CEA92E00E9487
:102290004D108FEC92E00E944D108EEE92E00E9465
:1022A0004D1081E193E00E944D1085E393E00E9480
:1022B0004D1086E593E00E944D1087E793E00E9461
:1022C0004D1085E993E00E944D1084EB93E00E944D
:1022D0004D1086ED93E00E944D108CEF93E00E942C
:1022E0004D108FE194E00C944D10EF92FF920F93FC
:1022F0001F93CF93DF93CDB7DEB7C058D1090FB688
:10230000F894DEBF0FBECDBF80914507882379F1D9
:102310001092F3066BE174E084E097E00E94821E65
:10232000F090F306009719F027E02F1570F5109242
:10233000450710924407E4E0F7E080E4DF011D92D6
:102340008A95E9F7FF2079F00091F4061091F506DF
:1023500060E274E0C8010E94871E892B39F58EE97E
:1023600098E00E94791082E791E00E94C605C0586B
:10237000DF4F0FB6F894DEBF0FBECDBFDF91CF9118
:102380001F910F91FF90EF90089521E02F0D209362
:10239000F306EF2DF0E0EE0FFF1FEC50F94F9183A5
:1023A00080836BE174E090E080E0B8CF67E274E096
:1023B000C8010E94871E892B01F58091B80880FD15
:1023C00005C08BE294E00E946910CDCF0E945B169D
:1023D000882319F084E394E0F6CF0E9467168823DF
:1023E00049F080EB95E00E944D1080E494E00E945B
:1023F0001D11B9CF8FEC90E0E6CF6DE574E0C80118
:102400000E94871E892B71F40E948516882339F05B
:1024100080EB95E00E944D108DE494E0E8CF89E5D3
:1024200094E0D1CF6DED70E0C8010E94871E892B2A
:1024300091F48091B80880FFC4CF0E94941688233D
:1024400039F080EB95E00E944D1082E694E0CFCF0A
:1024500089ED90E0B8CF60E376E0C8010E94871E66
:10246000892B09F055C0B1E0BF1510F562E975E0A0
:102470008091F6069091F7060E94871E892BC1F481
:102480008091A3088F938091A2088F938091A108D7
:102490008F938091A0088F9381E794E09F938F930F
:1024A0008E010F5F1F4F1F930F930E94BF1EB5C079
:1024B0008091B80880FF85CF91E09F1518F08DE7D7
:1024C00094E081CF0091F6061091F706C8010E94B2
:1024D000FE0F811103C086E894E075CFC8010E9409
:1024E000641E97FDF8CF2091D9083091DA0828179B
:1024F000390788F390939F0880939E08BC0187EC6E
:1025000098E00E942A1A80EB95E00E944D102BCF94
:1025100060E974E0C8010E94871E892B29F580912B
:10252000B2089091B30881309105D1F00297D1F4AF
:1025300082E51F928F9385E994E09F938F938E019C
:102540000F5F1F4F1F930F930E94BF1EC8010E9471
:102550004D100F900F900F900F900F900F9003CF92
:1025600086E4E7CF8DE2E5CF6CE974E0C8010E9414
:10257000871E892B09F05AC08091EF088F938091B4
:10258000EE088F938091ED088F938091EC088F93E4
:102590008091EB081F928F938091EA088F9380912E
:1025A000E9088F938091E8088F938091E7088F93D3
:1025B0008091E6088F938091E5088F938091E408DD
:1025C0008F938091E3088F938091E2088F9380919D
:1025D000E1088F938091E0088F938091DF088F93BB
:1025E0008091DE088F938091DD088F938091DC08C5
:1025F0008F938091DB088F938091DA088F9380917D
:10260000D9088F9381EA94E09F938F938E010F5F97
:102610001F4F1F930F930E94BF1EC8010E944D10B1
:102620000FB6F894DEBF0FBECDBF9DCE69EC74E04F
:10263000C8010E94871E892B09F0F2C0B2E0BF15C5
:1026400008F03DCF0091F8061091F906C8010E94EC
:10265000FE0F882309F43FCFE090F606F090F706CE
:10266000C8010E94641E8C016DEC74E0C7010E94D9
:10267000871E892B61F4C801845F91408D37954195
:1026800008F029CF1093DA080093D9083CCF64ED05
:1026900074E0C7010E94871E892B59F4C801C297B4
:1026A000873B934008F017CF1093DC080093DB08BA
:1026B0002ACF6BED74E0C7010E94871E892BA9F415
:1026C000C8018456910985359B4008F004CF1093CA
:1026D000DE080093DD084091DF085091E008B80162
:1026E00087EC98E00E94421A0ECF61EE74E0C701B9
:1026F0000E94871E892B89F4C8018456910985356B
:102700009B4008F0E8CE1093E0080093DF0860914A
:10271000DD087091DE08A801E3CF67EE74E0C70121
:102720000E94871E892B91F4C801885C9109893029
:10273000974008F0D0CE1093E2080093E108B8016A
:10274000110F880B990B0E94DF17DDCE60EF74E04C
:10275000C7010E94871E892B99F40130B0E11B0745
:1027600008F0B9CE1093E4080093E3084091E5081F
:102770005091E608B8018DE898E00E947A18C3CE1F
:1027800063EF74E0C7010E94871E892B79F4013042
:1027900022E0120708F09FCE1093E6080093E508A8
:1027A0006091E3087091E408A801E5CF66EF74E05A
:1027B000C7010E94871E892B61F4C801885E93407F
:1027C000813B964308F087CE1093E8080093E70812
:1027D0009ACE6CEF74E0C7010E94871E892B69F4C2
:1027E0008091E7089091E8088017910708F073CE70
:1027F0001093EA080093E90886CE62E075E0C7010D
:102800000E94871E892B49F4C801CC978135910518
:1028100008F061CE0093EB0876CE8BE095E0D3CD47
:102820006DE376E0C8010E94871E892B91F40E9417
:10283000B816882339F080EB95E00E944D1085E1B1
:1028400095E0D5CD81EE90E00E9469108CE195E095
:10285000CECD6FE275E0C8010E94871E892B91F4EE
:102860000E94DD198C01892B19F40E94E2198C0158
:10287000C8010E94021A9F938F931F930F9385E3C1
:1028800095E00CCE60E475E0C8010E94871E892B9C
:1028900059F487E495E00E944D1088E595E00E9488
:1028A0004D1083E695E031CE6FE675E0C8010E94D9
:1028B000871E892B91F56091BD087091BE088091AB
:1028C000BF089091C0082091C2082F932091C108A1
:1028D0002F9320E13EE040E050E00E94F41D122FD3
:1028E000032FF42EE52E2CE330E040E050E00E9470
:1028F000F41D5F934F933F932F93EF92FF920F93AB
:102900001F9386E795E09F938F938E010F5F1F4F74
:102910001F930F930E94BF1E80CE6EE875E0C80122
:102920000E94871E892BF9F48DE898E00E94861892
:10293000182F092F8DE898E00E9480180F931F939D
:102940009F938F937F936F938091E6088F938091ED
:10295000E5088F938091E4088F938091E3088F932B
:1029600084E995E0D0CF66EA75E0C8010E94871E31
:10297000892B39F480EB95E00E944D108BEA95E0AD
:1029800036CD63EB75E0C8010E94871E892B19F4D0
:102990000E942D11E8CC88EB95E015CD809145077C
:1029A000089584E097E00895109245071092440737
:1029B000E4E0F7E080E4DF011D928A95E9F70895ED
:1029C00081E0809362000E94B70360934707709391
:1029D00048078093490790934A070895CF92DF9262
:1029E000EF92FF92CF93DF9320916200222329F18F
:1029F000EC010E94B7036B017C0180914707909125
:102A00004807A0914907B0914A07A7019601281BE2
:102A1000390B4A0B5B0BDA01C901883E9340A105D3
:102A2000B10558F0CE010E947910C0924707D092AC
:102A30004807E0924907F0924A07DF91CF91FF9053
:102A4000EF90DF90CF9008950C947910CF92DF92A1
:102A5000EF92FF920F931F93CF93DF93CDB7DEB723
:102A6000C054D1090FB6F894DEBF0FBECDBF6C01C4
:102A70008B010E94E719E82EF801F3841485C60142
:102A80000E94021A1F92EF921F93FF929F938F93BF
:102A900080EC95E09F938F938E010F5F1F4F1F93E4
:102AA0000F930E94BF1EC8010E941D110FB6F8941B
:102AB000DEBF0FBECDBFC05CDF4F0FB6F894DEBFE8
:102AC0000FBECDBFDF91CF911F910F91FF90EF907F
:102AD000DF90CF9008958093620008958091620006
:102AE0000895CF93DF93EC0120914B0730914C0771
:102AF0002330310521F58091BD089091BE08A09149
:102B0000BF08B091C0084091B9085091BA086091CF
:102B1000BB087091BC08840F951FA61FB71F809338
:102B2000BD089093BE08A093BF08B093C008109250
:102B3000B9081092BA081092BB081092BC083093E2
:102B40004E0720934D07D0934C07C0934B0710922C
:102B500058071092590710925A0710925B07C43019
:102B6000D10509F455C048F5C130D105C1F1C230D5
:102B7000D10509F046C0809151079091520790937A
:102B8000B3088093B2088DE898E00E94701887EC33
:102B900098E00E94AA1A8091C1089091C2080196FB
:102BA0009093C2088093C108109260071092610749
:102BB000109262071092630724C0C530D10521F03E
:102BC000CE0107970397E8F41092B3081092B20869
:102BD0001092A7081092A6081092A80812C010928E
:102BE000B3081092B2081092A7081092A60810928B
:102BF000A8088DE898E00E94701887EC98E00E9481
:102C0000AA1AD093B508C093B408DF91CF91089564
:102C100070E060E087EC98E00E942A1AF2CFEBE4C3
:102C2000F7E01182108213821282178216821186B7
:102C30001086128613861486158616861786108AC5
:102C400084EF91E0A0E0B0E0818B928BA38BB48BFA
:102C5000158A168A178A108E118E128E138E148E74
:102C600081E0858F089580914B0790914C070895DE
:102C700080914B0790914C078A30910540F4880F62
:102C8000991FFC01E955FF4F80819181089584EDE2
:102C900095E00895809151079091520708952091F1
:102CA0004B0730914C072250310981E02230310529
:102CB00008F080E0089520914B0730914C07285090
:102CC000310981E02230310508F080E008958091DB
:102CD0004B0790914C0781309105A9F440919E08D3
:102CE00050919F082091DB083091DC084217530770
:102CF00050F0909352078093510782E090E00E9439
:102D0000711581E0089580E0089580914B079091BE
:102D10004C070297029730F484E090E00E9471150E
:102D200081E0089580E0089580914B0790914C07D1
:102D30000397E1F480915507811118C080915107E4
:102D400090915207019779F482E090E090935407B4
:102D50008093530781E08093550784E090E00E94C0
:102D6000711581E0089581E090E0F0CF80E0089552
:102D700080914B0790914C078830910571F40E9427
:102D8000DD19892B11F080E008951092560781E03B
:102D900090E00E94711581E008950997A1F7809154
:102DA000B80881FDF0CFF3CF80914B0790914C078D
:102DB000099749F081E08093570789E090E00E94ED
:102DC000711581E0089580E0089580916807811170
:102DD00002C00C940F168091580790915907A0914A
:102DE0005A07B0915B070A96A11DB11D8093580741
:102DF00090935907A0935A07B0935B07E0914B0754
:102E0000F0914C072091B80821FFB4C0399709F41C
:102E1000B0C00C94D4168091F9089091FA08892BCF
:102E200021F481E090E00C94711588E090E0FBCFF4
:102E30001092A7081092A6081092A808089587EC8F
:102E400098E00E94A71A882359F18091A2089091D6
:102E5000A3082091A0083091A108821B930B8C59E4
:102E60009F4F893C9105E0F4809160079091610744
:102E7000A0916207B09163070196A11DB11D8093D7
:102E8000600790936107A0936207B09363070A9766
:102E9000A105B10508F46DC083E090E00E947115B2
:102EA00010926007109261071092620710926307F8
:102EB000089520919E0830919F088091DB089091A1
:102EC000DC082817390708F054C00C948516809147
:102ED000A2089091A30818161906FCF080916407C7
:102EE00090916507A0916607B09167070196A11DB3
:102EF000B11D8093640790936507A0936607B09314
:102F000067070397A105B105A0F1809155078823B4
:102F100069F085E090E00E947115109264071092AC
:102F200065071092660710926707089587E090E0A2
:102F3000F2CF40915C0750915D0760915E07709100
:102F40005F0784179507A607B70798F08091530786
:102F50009091540790935207809351071092550710
:102F600082E090E060CF843F9140A105B10508F078
:102F700058CF0895E830F105E0F7EF53F84E0C9480
:102F8000351E0B1718171F17591767179917B917F9
:102F9000B31720914B0730914C072830310569F069
:102FA00021E0209356079093B7088093B60888E0F5
:102FB00090E00E94711581E0089580E0089560938B
:102FC0005C0770935D0780935E0790935F07089599
:102FD000609158077091590780915A0790915B074B
:102FE0000895FC01718360835383428314821582A8
:102FF00016821782118610868FE891E09387828768
:10300000158614861786168681E0808B0895FC014C
:1030100071876087538742870895CF92DF92EF923E
:10302000FF920F931F93FC01CB01841B950BAC0106
:10303000A281B3819C010E943B1E048115812681DF
:1030400037816B017C01C00ED11EE21EF31EA081F0
:10305000B1819A010E943B1E072F182F292F332779
:1030600027FD3A95BB27F7FCBA95AF2D9E2D8D2DE8
:10307000080F191F2A1F3B1F82859385092E000CFC
:10308000AA0BBB0B80179107A207B30754F457FF95
:1030900016C02089222399F0C482D582E682F78265
:1030A0000EC080859185092E000CAA0BBB0B08175A
:1030B00019072A073B0774F41416150654F35587AD
:1030C0004487978786871F910F91FF90EF90DF903D
:1030D000CF900895C482D582E682F782C801EFCFEF
:1030E000FC011482158216821782158614861786B3
:1030F00016860895FC01718360835383428308958B
:10310000FC0164817581868197810895FC01848525
:1031100095850895E9E6F7E0118210821382128204
:1031200014821582168217821086118680E89EEE20
:10313000938782871486158616861786108A118AC9
:1031400008950F931F93FC01DB01828D81FD93C0D5
:103150002385348553968D919C9154972817390770
:1031600008F093C0409173075091740770E060E0DD
:1031700000916F07109170072091710730917207CD
:10318000041715072607370708F082C0978555965C
:103190008C915597981708F45CC0809175078F5FE4
:1031A00080937507843108F076C02585368556965C
:1031B0008D919C9157972817390708F04DC0809141
:1031C00076078F5F80937607853008F067C0589642
:1031D0008D919C918217930708F041C080917707E9
:1031E0008F5F80937707823008F05BC0428524812F
:1031F00035814333B8F124363105A4F58091780741
:103200008F5F809378078E3108F04EC08081918166
:103210008C509E4F8217930744F5809179078F5FFA
:10322000809379078A3008F042C0453108F1232B9A
:10323000F9F480917A078F5F80937A078431D0F513
:1032400010926A071092690790E080E01F910F9139
:10325000089510927507A9CF10927607B8CF1092F3
:103260007707C4CF10927807D1CF10927907DDCFBE
:1032700010927A07E5CF81E090E090936A078093FF
:10328000690721E020936D07E1CF82E090E0F5CF60
:1032900083E090E0F2CF84E090E0EFCF85E090E033
:1032A000ECCF86E090E0E9CF87E090E0E6CF88E0E1
:1032B00090E0E3CF89E090E0E0CF8F929F92AF92D1
:1032C000BF92CF92DF92EF92FF92B0E0A0E06C014C
:1032D0007D01C61AD70AE108F108A7019601C701C6
:1032E000B6010E94D01D80906F0790907007A0904B
:1032F0007107B09072071C141D041E041F04DCF437
:1033000028EE33E040E050E00E94161E820E931E2D
:10331000A41EB51E80926F0790927007A09271074D
:10332000B0927207FF90EF90DF90CF90BF90AF9078
:103330009F908F90089520EA3FE040E050E00E9487
:10334000161E281539054A055B0528F4821A930ACA
:10335000A40AB50ADFCF10926F071092700710927F
:10336000710710927207DECFE9E6F7E0148211824E
:1033700010821486158616861786108A118A08957B
:1033800020916B0730916C072817390741F4109290
:103390006C0710926B0710926E070C94B419089585
:1033A00080916D07811107C081E090916E079111A6
:1033B00003C080E0089581E00895809169079091AD
:1033C0006A07089580916B0790916C070895E091CA
:1033D0007307F0917407309799F020916F0730913F
:1033E00070074091710750917207A4E6B0E00E9407
:1033F000591E9F0150E040E00E94F41D822F089565
:1034000080E008958A30910540F4880F991FFC01EF
:10341000E554FF4F80819181089582E096E0089500
:10342000FC0111821082138212821582148288E5B7
:1034300092E09783868384E893E09187808788EC85
:1034400090E09387828788EB9BE09587848781E073
:1034500086870895FC0194858585228533856217CA
:10346000730734F0292F382F621773070CF49B0170
:103470003183208316860895FC0173876287558700
:1034800044870895FC0177836683518740870895B8
:103490000F931F93CF93DF93FC01C081D1810281F1
:1034A00013819E01201B310B121613068CF54681E9
:1034B000578164E6649FC001659F900D112468EEFA
:1034C00073E00E94E01D621773070CF49B01200F4C
:1034D000311F3383228354854585828593852281DC
:1034E00033812817390734F0852F942F281739078F
:1034F0000CF4C9019383828395838483C817D90709
:1035000011F421E02687DF91CF911F910F9108954B
:103510002115310501F34085518564E6649FC001A2
:10352000659F900D112468EE73E00E94E01D3195B7
:1035300021953109621773070CF49B01021B130BD1
:1035400013830283C8CFFC01848195810895FC0117
:1035500086850895FC0113821282158214821686D4
:103560000895FC012081318182819381281B390BD0
:103570001216130694F4668177816115710559F06E
:1035800048EE53E0249FC001259F900D349F900D7D
:1035900011240E94E01DCB01089570E060E0211528
:1035A0003105C9F360857185319521953109E5CFE4
:1035B000FC0190938207809381077093800760934A
:1035C0007F07118210821382128215821482178261
:1035D0001682118610861286148613861686158624
:1035E0001786108A118A128A138A158A148A178AF2
:1035F000168A118E108E828D8C7F8B7F828F138E18
:10360000148E158E168E178E10A211A212A214A25D
:1036100013A215A216A217A210A6089580918107E1
:1036200090918207089580917F0790918007089577
:10363000E0918107F0918207958384837487638783
:103640005687458727870895E0917F07F091800787
:1036500053814481E0918107F091820730E020E0BE
:1036600097FD06C0252F342F821793070CF49C0179
:10367000318320830895E0918107F091820780399A
:1036800021E0920714F08FE891E097FF02C090E0EC
:1036900080E09187808744E6489F9001499F300DE4
:1036A0001124C9016FE871E00E94E01D628708954E
:1036B000E0918107F0918207828193812481358195
:1036C000821B930B978386830895E0918107F09185
:1036D0008207838D948DA58DB68D0196A11DB11D98
:1036E000838F948FA58FB68F878D90A1A1A1B2A152
:1036F0000196A11DB11D878F90A3A1A3B2A3089528
:1037000080917B0790917C07A0917D07B0917E0707
:103710000196A11DB11D8C3221E09207A105B105D2
:1037200048F480937B0790937C07A0937D07B09328
:103730007E07089510927B0710927C0710927D07F8
:1037400010927E07A0918107B0918207E0917F07D8
:10375000F09180075F964D915D916D917C9192976C
:10376000448F558F668F778F93968D919C9191A3FF
:1037700080A3089590E080E0089590E080E00895AF
:1037800081E090E00895089590E080E0089590E051
:1037900080E00895E1E9F7E011821082138212823D
:1037A000158214821782168210861186128613865D
:1037B0001486158616861786118A108A108E7996B9
:1037C00088E0EB38F80741F71092900710928C07C9
:1037D00010928D0710928E0710928F071092880713
:1037E0001092890710928A0710928B070E94B703E4
:1037F000609384077093850780938607909387076B
:103800001092830708954F925F926F927F92AF92CA
:10381000BF92CF92DF92EF92FF920F931F93CF93BD
:10382000DF930E94B7036B017C01B12C89E1A82EC4
:1038300080919007B81608F464C080918407909135
:103840008507A0918607B0918707A7019601281BDD
:10385000390B4A0B5B0BDA01C901883E9340A10585
:10386000B10508F43FC02091880730918907409145
:103870008A0750918B0740908C0750908D0760907D
:103880008E0770908F07420E531E641E751E4114E2
:1038900051046104710471F0A4E6B0E00E94591E65
:1038A000A30192010E94F41D80918307821710F4F6
:1038B00020938307109288071092890710928A0735
:1038C00010928B0710928C0710928D0710928E0722
:1038D00010928F07C0928407D0928507E0928607E6
:1038E000F0928707DF91CF911F910F91FF90EF909A
:1038F000DF90CF90BF90AF907F906F905F904F9090
:1039000008950B2D10E0A09EE001A19ED00D112482
:10391000CF56D84F888D882309F477C08881998144
:10392000892B09F472C08C859D85AE85BF85C8162C
:10393000D906EA06FB0608F468C00E94B7032B010B
:103940003C014C8A5D8A6E8A7F8AE881F9810995FB
:103950000E94B703DC01CB0184199509A609B709B8
:103960004A885B88712C612C481659066A067B06CA
:1039700010F49B8B8A8B4090880750908907609049
:103980008A0770908B07480E591E6A1E7B1E409254
:1039900088075092890760928A0770928B07A09ED1
:1039A000F001A19EF00D1124EF56F84F24813581CE
:1039B00080859185A285B385B701A601481B590B67
:1039C0006A0B7B0BC9010596B0E0A0E08417950750
:1039D000A607B70728F4808991890196918B808B7F
:1039E000A09EF001A19EF00D1124EF56F84FC08665
:1039F000D186E286F386D701C601820F931FA11DEF
:103A0000B11D84879587A687B787B39411CFDC0152
:103A1000909190079A3028F5109719F189E1989FB5
:103A2000F0011124EF56F84FB183A08373836283B2
:103A30005583448337832683108611861286138626
:103A4000A90170E060E04487558766877787118A0F
:103A5000108A138A128A81E0808F9F5F909390076B
:103A6000089580E0089590919007891748F499E1AE
:103A7000899FF0011124EF56F84F808991890895AC
:103A800090E080E00895CF92DF92EF92FF920E9443
:103A9000B703C0908407D0908507E0908607F09028
:103AA00087076C197D098E099F09683E734081055F
:103AB000910510F00E94031C20918807309189071E
:103AC00040918A0750918B07C0908C07D0908D074A
:103AD000E0908E07F0908F07C20ED31EE41EF51EF5
:103AE00080E0C114D104E104F10449F0A4E6B0E09F
:103AF0000E94591EA70196010E94F41D822FFF907B
:103B0000EF90DF90CF9008958091830708950895F6
:103B1000CF93DF93CDB7DEB764970FB6F894DEBFCF
:103B20000FBECDBF0E94920B81E08B8B87E08C8B08
:103B30008091630090916400A0916500B09166004F
:103B40008F87988BA98BBA8B1C861B8683E090E0AD
:103B50009E878D878AE0E7E6F0E0DE01119601900E
:103B60000D928A95E1F7CE0143960E946C020E9465
:103B7000C3020E942C030E947203CE010F960E9482
:103B80004904CE010B960E944904CE0101960E9481
:103B9000AA040E94B80E60E081E00E94C60FFBCF2D
:103BA000DB018F939F930E94591EBF91AF91A29FFB
:103BB000800D911DA39F900DB29F900D112408952B
:103BC000AA1BBB1B51E107C0AA1FBB1FA617B70743
:103BD00010F0A61BB70B881F991F5A95A9F780955F
:103BE0009095BC01CD010895A1E21A2EAA1BBB1B22
:103BF000FD010DC0AA1FBB1FEE1FFF1FA217B307B9
:103C0000E407F50720F0A21BB30BE40BF50B661FCE
:103C1000771F881F991F1A9469F760957095809592
:103C200090959B01AC01BD01CF010895052E97FB36
:103C30001EF400940E942D1E57FD07D00E94F41D13
:103C400007FC03D04EF40C942D1E509540953095F2
:103C500021953F4F4F4F5F4F0895909580957095F8
:103C600061957F4F8F4F9F4F0895EE0FFF1F059077
:103C7000F491E02D09940E94431E332312F48A1B11
:103C80009B0B0C94541EA29FB001B39FC001A39F35
:103C9000700D811D1124911DB29F700D811D112485
:103CA000911D08950E94431EB7FF0895821B930B38
:103CB00008950E94431EA59F900DB49F900DA49F50
:103CC000800D911D11240895FC0188279927E894FF
:103CD00021912032E9F3293010F02E30C8F32B3235
:103CE00041F02D3239F4689404C00E94B71E820F4F
:103CF000911D219120532A30C0F31EF49095819597
:103D00009F4F08954BE858E00E94901E0895FB01D4
:103D1000DC018D91019080190110D9F3990B089560
:103D2000FA01A191B081009719F41097E1F0CD014B
:103D3000DC01CD010D90002011F4C00113C0FB0186
:103D40002191222319F02015D9F7F3CFFB012191FE
:103D5000201519F41E92119606C02223C1F70D906A
:103D60000020A1F7D001FA01A193B08308957AE071
:103D7000979F902D879F802D910D11240895AEE07F
:103D8000B0E0E5ECFEE10C946E210D891E8986E021
:103D90008C831A8309838FEF9FE79E838D83AE0107
:103DA000475E5F4F6F89788DCE0101960E94E21EBB
:103DB0002F813885020F131FF80110822E96E4E040
:103DC0000C948A21ABE0B0E0E8EEFEE10C946021B7
:103DD0007C013B018A01FC0117821682838181FFED
:103DE000C8C1CE0101965C01F7019381F30193FDF7
:103DF000859193FF81913F01882309F453C1853256
:103E000039F493FD859193FF81913F01853229F427
:103E1000B70190E00E94D220E7CF912C212C312CC9
:103E2000FFE1F31538F08B3211F190F4803209F193
:103E3000833229F137FC3CC020ED280F2A3050F5A1
:103E400036FE20C08AE0989E200D1124922E06C0D6
:103E50008D3291F0803371F7689430F8F30193FD5F
:103E6000859193FF81913F018111DACF21C0689440
:103E700031F8689432F8F2CF689433F8EFCF689451
:103E800034F8ECCFEAE02E9E200D1124222E689407
:103E900035F8E4CF8E3229F436FC04C1689436F844
:103EA000DDCF8C3619F4689437F8D8CF8836B1F264
:103EB000982F9F7D95549330E0F08336A1F183379E
:103EC000C1F1833509F063C02801F2E04F0E511CA7
:103ED000F801C080D180692D70E036FC02C06FEF20
:103EE0007FEFC6010E94BC204C01689437F8820124
:103EF0000AC00C5F1F4FFFE3F98388248394912C41
:103F00006501E89437F833FE2DC0522C81149104DA
:103F100071F5552009F468CFB70180E290E00E9466
:103F2000D2205A94F6CFF801808189830E5F1F4F0B
:103F3000E4CF2801F2E04F0E511CF801C080D1807F
:103F4000692D70E036FC02C06FEF7FEFC6010E9462
:103F5000C7204C018201D5CFB70180E290E00E94DA
:103F6000D2202A942814190409F0B0F7CECFF60114
:103F700037FC859137FE81916F01B70190E00E9477
:103F8000D22051105A94F1E08F1A9108BFCF843695
:103F900019F0893609F077C0F80137FE6BC06081EF
:103FA0007181828193810C5F1F4FF32DFF763F2E2D
:103FB00097FF09C090958095709561957F4F8F4FC1
:103FC0009F4F689437F82AE030E0A5010E94022153
:103FD000C82ECA188C2C432C36FE0CC0E89440F82E
:103FE000C91440F434FE05C032FC03C0F32DFE7E3C
:103FF0004F2E892C44FE95C0FE01EC0DF11D8081F1
:10400000803309F087C0242D297E422E842D8870AC
:10401000582E43FC95C040FE8FC09C2C821418F48F
:104020002C0C922C981844FE91C0B70180E390E0CC
:104030000E94D22042FE09C088E790E041FE02C003
:1040400088E590E0B7010E94D220C91408F48AC024
:10405000CA94D12C9FEFC91AD90ACA0CDB1CF601ED
:1040600082916F01B70190E00E94D220AC14BD0490
:10407000B1F74FCF60817181072E000C880B990B2F
:104080000E5F1F4F92CFD32CE894D4F82AE030E093
:10409000853739F1232D297FD22E8F3601F148F44F
:1040A0008835A9F0F701868197812B96E2E10C947F
:1040B0007C21803749F08837A9F7D4FE02C0689484
:1040C000D2F820E130E00DC06894D4F8F6CF34FE89
:1040D00003C0822F8660D82E20E132E002C028E0A3
:1040E00030E0F801D7FE0FC0608171818281938139
:1040F0000C5F1F4FA5010E940221C82ECA183D2C3B
:10410000E89437F867CF6081718190E080E00E5FBE
:104110001F4FF0CF42FC02C0839478CF83948394E6
:1041200075CF842D867809F471CFF6CFB70180E280
:1041300090E00E94D22083948214C0F3512C73CF5C
:10414000522C5818821408F46ECFF8CF842D86783C
:1041500009F47BCF8BE241FE80E247FC8DE2B701A0
:1041600090E071CFB70180E390E00E94D2209A9452
:104170006CCF8FEF9FEF99CFFC010590615070409D
:104180000110D8F7809590958E0F9F1F0895FC0120
:104190006150704001900110D8F7809590958E0F76
:1041A0009F1F08950F931F93CF93DF93182F092F0D
:1041B000EB018B8181FD09C01FEF0FEF812F902F45
:1041C000DF91CF911F910F91089582FF14C02E812E
:1041D0003F818C819D81281739073CF4E881F98162
:1041E000CF0101969983888310838E819F810196E8
:1041F0009F838E83E3CFE885F985812F0995892BED
:10420000A1F3DACFFA01AA27283051F1203181F148
:10421000E8946F936E7F6E5F7F4F8F4F9F4FAF4FCE
:10422000B1E03ED0B4E03CD0670F781F891F9A1FE1
:10423000A11D680F791F8A1F911DA11D6A0F711D95
:10424000811D911DA11D20D009F468943F912AE0A1
:10425000269F11243019305D3193DEF6CF01089589
:10426000462F4770405D4193B3E00FD0C9F7F6CFBA
:10427000462F4F70405D4A3318F0495D31FD405282
:10428000419302D0A9F7EACFB4E0A6959795879518
:1042900077956795BA95C9F70097610571050895F7
:1042A0009B01AC010A2E06945795479537952795A3
:1042B000BA95C9F7620F731F841F951FA01D08953B
:1042C0002F923F924F925F926F927F928F929F9226
:1042D000AF92BF92CF92DF92EF92FF920F931F9314
:1042E000CF93DF93CDB7DEB7CA1BDB0B0FB6F894C5
:1042F000DEBF0FBECDBF09942A88398848885F8405
:104300006E847D848C849B84AA84B984C884DF8075
:10431000EE80FD800C811B81AA81B981CE0FD11D59
:104320000FB6F894DEBF0FBECDBFED010895F8942F
:02433000FFCFBD
:10433200010C0101000200802500000300000000C2
:104342000039003600330030003B003800350032BF
:10435200003A003700340031000001010100010180
:10436200030206040C080903060C090102040801F1
:1043720000020003000400D9055D04DE052704E302
:1043820005E805ED05F105F705FC055E05FC05FCF4
:10439200040A06020513061D0626062C06360645E5
:1043A20052522053544152540045525220524556C3
:1043B2000045525220414354495645005345542525
:1043C2002D346420414354252D3464256300253364
:1043D200642525202532642E256441202532645629
:1043E2002025336443002121205452495050454432
:1043F20020212120202000215452495020434F44A3
:10440200453D2564000D0A496E64757374726961D5
:104412006C204D6F746F7220436F6E74726F6C6C90
:1044220065722076312E30000D0A5479706520486D
:10443200454C5020666F7220636F6D6D616E6473C0
:104442000D0A3E20004552524F523A2000244D445C
:104452002C53503D25642C52503D25642C443D255F
:10446200642C493D25642C563D25642C543D25641D
:104472002C4449523D25632C53543D25732C5452F0
:104482003D25642C4932543D25642C52483D256C0F
:10449200752C53433D2564002A253032580D0A00FD
:1044A200214556542C000D0A3D3D3D20417661695F
:1044B2006C61626C6520436F6D6D616E6473203D4B
:1044C2003D3D0053544154555320202020202020AC
:1044D200202D2053686F772074656C656D6574724A
:1044E200790052554E2020202020202020202020FC
:1044F2002D205374617274206D6F746F7220287254
:10450200656D6F7465206F6E6C79290053544F503E
:10451200202020202020202020202D2053746F7066
:10452200206D6F746F72005245562020202020208B
:1045320020202020202D205265766572736520642C
:104542006972656374696F6E202872656D6F746538
:10455200206F6E6C7929005350454544203C6E3ED5
:1045620020202020202D20536574207370656564FF
:104572002028302D6D617852706D290053504545C9
:10458200443F20202020202020202D2053686F77B8
:104592002063757272656E74207370656564004481
:1045A20049523F202020202020202020202D20534F
:1045B200686F7720646972656374696F6E00434641
:1045C200473F202020202020202020202D2053681B
:1045D2006F7720636F6E66696775726174696F6E5B
:1045E20000534554203C706172616D3E203C7661FF
:1045F2006C75653E202D2053657420706172616D6B
:10460200657465720041434B202020202020202029
:104612002020202D2041636B6E6F776C6564676587
:10462200207472697000545249503F20202020208B
:10463200202020202D2053686F77206163746976D3
:104642006520747269700054524950533F202020F3
:1046520020202020202D2053686F772074726970EB
:10466200206C6F6700484F5552533F202020202076
:104672002020202D2053686F772072756E20686F7E
:104682007572730054554E453F2020202020202073
:1046920020202D2053686F7720504920696E746561
:1046A200726E616C730053415645202020202020F9
:1046B200202020202D205361766520636F6E66696D
:1046C2006720746F20454550524F4D0048454C506D
:1046D200202020202020202020202D2053686F77AA
:1046E2002074686973206D656E750020090D0A00DB
:1046F2005354415455530052554E00455252204D89
:104702004F444500455252205452495050454400AE
:1047120053544152542C52454D4F54450053544F1B
:10472200502C52454D4F5445004552522053544F40
:104732005000524556455253452C52454D4F544513
:104742000053504545443D25642C25640045525292
:104752002041524753004552522052414E47450094
:104762004449523F004449523D2563004346473F76
:10477200004346473D25642C25642C25642C256482
:104782002C25642C25642C25642C25642C25642C72
:1047920025642C25642C256400534554004D415852
:1047A20052504D004D494E52504D00414343454CED
:1047B20000444543454C004445414454494D45005D
:1047C2004B50004B490052415445440053484F520C
:1047D20054004F56455254454D50004552522050B8
:1047E2004152414D0041434B2C4F4B0041434B2C16
:1047F200524546555345442C41435449564500546D
:104802005249503F00545249503D25642C257300B3
:1048120054524950533F003D3D3D2054726970202F
:104822004C6F67203D3D3D005452502C302C4E4F72
:104832004E45003D3D3D20456E64203D3D3D0048D6
:104842004F5552533F00484F5552533D2530326C1D
:10485200753A2530326C752C53433D25640054550E
:104862004E453F0054554E453D25642C25642C256C
:104872006C642C2564005341564500534156452C27
:104882004F4B0048454C500045525220434D440086
:10489200545249502C25732C493D25642C493254DD
:1048A2003D256400554E4B4E00494E495400535429
:1048B2005254005244574E00444541440042524B28
:1048C20000434F4153540054524950004553544FF2
:1048D2005000554E4B4E4F574E004F5645524C4F7F
:1048E200414400554E444552564F4C54004F564594
:1048F20052564F4C54005354414C4C004F56455263
:104902005350454544004E4F464545444241434B72
:024912000000A3
:00000001FF
