:100000000C9460020C94BD050C9492050C947D0236
:100010000C947D020C947D020C947D020C947D0264
:100020000C947D020C947D020C94E3060C947D02EA
:100030000C947D020C94F9080C943D090C947D02FB
:100040000C947D020C947D020C947D020C947D0234
:100050000C947D0245525220414354495645004577
:100060005252205245560045525220535441525448
:1000700000424F4F54343A205343484544554C4571
:10008000522052454144592C2052554E4E494E471C
:100090002E2E2E0D0A00424F4F54333A2048414C29
:1000A000204F4B0D0A00424F4F54323A204D4341EE
:1000B0004C204F4B0D0A00424F4F54313A205541CE
:1000C0005254204F4B0D0A000D0A2D2D2D2053594F
:1000D0005354454D205354415254494E47202D2DE1
:1000E0002D0D0A000048454C5020202020202020C3
:1000F0002020202D2053686F772074686973206D4D
:10010000656E750053415645202020202020202078
:1001100020202D205361766520636F6E666967200D
:10012000746F20454550524F4D0054554E453F2069
:1001300020202020202020202D2053686F77205061
:100140004920696E7465726E616C7300484F555238
:10015000533F20202020202020202D2053686F771F
:100160002072756E20686F75727300545249505337
:100170003F20202020202020202D2053686F772032
:1001800074726970206C6F6700545249503F202090
:10019000202020202020202D2053686F77206163AD
:1001A0007469766520747269700041434B20202089
:1001B00020202020202020202D2041636B6E6F778F
:1001C0006C65646765207472697000534554203C07
:1001D000706172616D3E203C76616C75653E202DCC
:1001E0002053657420706172616D6574657200439F
:1001F00046473F202020202020202020202D205353
:10020000686F7720636F6E66696775726174696F76
:100210006E004449523F2020202020202020202012
:100220002D2053686F7720646972656374696F6EFF
:100230000053504545443F20202020202020202DE1
:100240002053686F772063757272656E74207370C7
:10025000656564005350454544203C6E3E20202097
:1002600020202D205365742073706565642028302C
:100270002D6D617852706D29005245562020202046
:10028000202020202020202D205265766572736565
:1002900020646972656374696F6E202872656D6F82
:1002A0007465206F6E6C79290053544F50202020C4
:1002B000202020202020202D2053746F70206D6F6F
:1002C000746F720052554E202020202020202020C4
:1002D00020202D205374617274206D6F746F722012
:1002E0002872656D6F7465206F6E6C7929005354A8
:1002F0004154555320202020202020202D205368B9
:100300006F772074656C656D65747279000D0A3DB8
:100310003D3D20417661696C61626C6520436F6D83
:100320006D616E6473203D3D3D000D0A00455252E3
:100330004F523A20004F4B003D3D3D20456E64201A
:100340003D3D3D005452502C302C4E4F4E45003D0B
:100350003D3D2054726970204C6F67203D3D3D004B
:1003600045525220414354495645004F4B00455297
:100370005220504152414D004F4B004552522052A5
:10038000414E4745004F4B004552522052414E4787
:1003900045004F4B004552522052414E4745004FB9
:1003A0004B004552522052414E4745004F4B0045AD
:1003B00052522052414E4745004F4B004552522069
:1003C00052414E4745004F4B004552522052414E3C
:1003D0004745004F4B004552522052414E47450081
:1003E0004F4B004552522052414E4745004F4B0063
:1003F0004552522052414E474500455252205241EB
:100400004E4745004552522041524753004F4B0042
:100410004552522052414E474500455252205241CA
:100420004E474500455252204152475300455252D3
:10043000204D4F44450045525220524556004F4BE7
:1004400000455252204D4F444500455252205354CE
:100450004F50004F4B0045525220535441525400CC
:100460004F4B00455252205452495050454400458C
:100470005252204D4F44450045525220434D4400B6
:100480000D0A547970652048454C5020666F7220E3
:10049000636F6D6D616E64730D0A3E20000D0A4935
:1004A0006E647573747269616C204D6F746F722025
:1004B000436F6E74726F6C6C65722076312E3000F3
:1004C00011241FBECFE5D8E0DEBFCDBF14E0A0E60B
:1004D000B0E0ECECF1E402C005900D92AA3AB1074D
:1004E000D9F726E0AAEAB4E001C01D92A239B2070A
:1004F000E1F70E941C040C94E4200C94000063E0DB
:1005000083E00E94450691E0813009F090E08091FF
:100510004E0690FB81F980934E060E940E0E0E94BB
:100520009E0E82309105E1F130F5019781F10E9434
:10053000901560E08330910531F08230910511F023
:100540000497C1F561E081E00E94B10E0E94B815E8
:10055000882399F181E00E94C90E0E94A7150E948C
:10056000D10E0E94A70E90914E06882341F19E7FE6
:1005700090934E06089583309105A9F00497B9F63B
:100580000E9480168111D3CF84E590E006C00E94BE
:10059000C4158111CCCF87E690E00E94600FC7CFD1
:1005A0000E944D16C4CF0E945C168111C0CF8FE50A
:1005B00090E0F3CF60E080E0C7CF80E0CCCF9160E7
:1005C000D7CFEF92FF920F931F93CF93DF93CDB7C7
:1005D000DEB7A8970FB6F894DEBF0FBECDBF0E945E
:1005E000FC160E943A0D0E94AC0D90933906809340
:1005F000380680914E0680FF5DC080913406909150
:100600003506BC018DE596E00E94F21A8DE596E074
:100610000E94161B90933706809336062091380669
:1006200030913906821B930B90933B0680933A06D8
:100630006CE676E084E396E00E944D198C01009709
:1006400009F454C01F938F938CE193E09F938F9391
:10065000CE0101967C019F938F930E940C1EC701CF
:100660000E94C208C8010E947A180E94F80C0F90DC
:100670000F900F900F900F900F908091AD0490917C
:10068000AE048017910749F064E376E0C8010E9448
:100690005D141093AE040093AD04A8960FB6F894C1
:1006A000DEBF0FBECDBFDF91CF911F910F91FF90A5
:1006B000EF9008950E94E0099093350680933406E8
:1006C000A0CF40913806509139066091360670915E
:1006D000370683E296E00E94B5180E94CF0C809105
:1006E0004806909149060E94AE0CD7CF1092AE04F6
:1006F0001092AD040E94AC158111E3CF83E296E025
:100700000E94181990E080E0E8CFEF92FF920F93DB
:100710001F93CF93DF93CDB7DEB7C055D1090FB686
:10072000F894DEBF0FBECDBF0E94680A04E316E056
:10073000F801858796879F938F939F938F9388E780
:1007400090E09F938F93CE0101967C019F938F93AE
:100750000E940C1EC7010E94C2080E94AC0AF80148
:1007600087870FB6F894DEBF0FBECDBFC05BDF4FEB
:100770000FB6F894DEBF0FBECDBFDF91CF911F91B2
:100780000F91FF90EF90089584E396E00C9413147A
:10079000CF93DF930E94240AEC019093400680934C
:1007A0003F0660917D0670917E060E94351A809109
:1007B0007F0690918006C817D907C8F082E090E0C4
:1007C0000E947A188091AF049091B004029761F072
:1007D00064E376E082E090E00E945D1482E090E0C5
:1007E0009093B0048093AF04DF91CF91089510925D
:1007F000B0041092AF04F8CFCF93DF930E94981A01
:10080000EC010E94B815882361F08091AC048C172C
:100810001D0679F0C093AC04CE01DF91CF910C940A
:10082000280C1092AC0484E396E0DF91CF910C94F5
:10083000980BDF91CF910895CF93DF93CDB7DEB7BB
:1008400068970FB6F894DEBF0FBECDBFF8948AE06C
:10085000E2E6F0E0DE01119601900D928A95E1F753
:10086000CE0101960E942808789488EC90E00E94BE
:10087000D40887EB90E00E94D40880EA96E8A1E0D3
:10088000B0E08B8B9C8BAD8BBE8BCE0143960E94D0
:100890007D09FF24F394FF8A87E0888FCE01479675
:1008A0000E947806BE01655F7F4F80E00E94B80617
:1008B000BE01655F7F4F81E00E94B806BE01655FA3
:1008C0007F4F82E00E94B806BE01655F7F4F83E0E4
:1008D0000E94B8060E94CB060E94630780916C00BC
:1008E00090916D00A0916E00B0916F008F87988BF2
:1008F000A98BBA8B1C861B8603E010E01E870D8730
:10090000CE010F960E94F107CE010B960E94F107CF
:1009100086EA90E00E94D4080E948D0B0E94150D7B
:100920000E94CE090E94B10D0E94CB0A0E94860C43
:1009300086E990E00E94D40884E49DE490936D06DB
:1009400080936C06F0926E0688EB9BE090937006A5
:1009500080936F0688EC90E0909372068093710606
:1009600088E592E0909374068093730684E893E0A0
:10097000909376068093750684EF91E090937806C5
:100980008093770680E891E090937A0680937906C9
:100990008AE190E090937C0680937B0680E49FE15F
:1009A00090937E0680937D0680E596E49093800682
:1009B00080937F068EE68093810680E29EE490938A
:1009C00083068093820688ED96ED9093850680934A
:1009D000840610938706009386061092880610926C
:1009E000890610928A0610928B0610928D0610923C
:1009F0008C0610928E061092900610928F0610921E
:100A000091064AE150E060E871E083E296E00E94DE
:100A100099184FE851E068E270E083E296E00E94A6
:100A2000AF188DE596E00E94D81A40916F0650915C
:100A3000700660917106709172068DE596E00E94D5
:100A40000A1B40917506509176066091730670916D
:100A500074068DE596E00E94101B0E9432190E94D8
:100A60006C15609177067091780690E080E00E94A6
:100A700090180E944D0F0E94051489EF9EE00E947D
:100A8000E8080E94680A90934206809341060E94FB
:100A9000841B30E020E04AE050E068E870E08FE737
:100AA00092E00E94C11C21E030E042E350E06EE899
:100AB00070E088EC93E00E94C11C22E030E044E644
:100AC00050E066E970E081EE92E00E94C11C24E0F3
:100AD00030E04AEF50E06EE970E08CEF93E00E9466
:100AE000C11C23E030E044EF51E062EA70E085E8A9
:100AF00093E00E94C11C25E030E048EE53E06EEA2E
:100B000070E084EC93E00E94C11C81E790E00E94B9
:100B1000D4080E94BD1B0E9402148823D1F30E94B6
:100B20006C10F7CF1F920F920FB60F9211242F93D4
:100B30003F934F935F936F937F938F939F93AF9365
:100B4000BF93EF93FF9390E080E00E944807C19825
:100B5000C09881E08093B104FF91EF91BF91AF9174
:100B60009F918F917F916F915F914F913F912F91C5
:100B70000F900FBE0F901F9018951F920F920FB6F7
:100B80000F9211242F933F934F935F936F937F9313
:100B90008F939F93AF93BF93EF93FF930E940B0D9F
:100BA000FF91EF91BF91AF919F918F917F916F9145
:100BB0005F914F913F912F910F900FBE0F901F901B
:100BC00018958430E0F46830D0F4E82FF0E0EE0FB0
:100BD000FF1FE853FF4F0190F081E02D81E090E08E
:100BE00001C0880F6A95EAF79081413029F4892B7A
:100BF000808390E080E0089580958923F9CF81E09B
:100C000090E008958430D8F46830C8F44115510557
:100C1000B1F0E82FF0E0EE0FFF1FE854FF4F019016
:100C2000F081E02D808190E002C0959587956A95CE
:100C3000E2F78170FA01808390E080E0089581E01E
:100C400090E008958430E0F46830D0F4E82FF0E0CC
:100C5000EE0FFF1FE054FF4F0190F081E02D81E087
:100C600090E001C0880F6A95EAF79081413029F43D
:100C7000892B808390E080E0089580958923F9CFC7
:100C800081E090E008950C942206CF93DF931F92A9
:100C9000CDB7DEB71982AE014F5F5F4F0E940206EB
:100CA00089810F90DF91CF9108958430B8F4683036
:100CB000A8F4E82FF0E0EE0FFF1FE054FF4F019083
:100CC000F081E02D808121E030E001C0220F6A95A3
:100CD000EAF78227808390E080E0089581E090E049
:100CE000089591E0411101C090E0492F0C94220633
:100CF000892B71F03E9A3F983D98389839983A98E8
:100D00003B983098319A329A379A90E080E0089573
:100D100081E090E00895883080F4389839983A98C6
:100D20003B9880FD389A81FD399A8695869509F021
:100D30003A9A369A90E080E0089581E090E0089534
:100D4000009759F034B125B1232732272327FC011E
:100D50003183208390E080E0089581E090E0089561
:100D600086B1829586958695837080958170089569
:100D7000CF93DF93EB010E948B06009749F40E940A
:100D8000B0068823E1F3CE01DF91CF910C94A00649
:100D9000DF91CF91089583B78F7B83BF83B788603E
:100DA00083BF12BE89EF8CBF83B78B7F83BF83B7AE
:100DB000826083BF83B7816083BF89B7826089BF48
:100DC00090E080E008951F920F920FB60F921124C9
:100DD0002F933F934F935F936F937F938F939F9343
:100DE000AF93BF93EF93FF938091B2049091B304BC
:100DF000A091B404B091B5040196A11DB11D8093DA
:100E0000B2049093B304A093B404B093B504E091FA
:100E1000B604F091B704309709F00995FF91EF916E
:100E2000BF91AF919F918F917F916F915F914F9102
:100E30003F912F910F900FBE0F901F9018958FB577
:100E40008E7F8FBD8FB582608FBD8EB588608EBD61
:100E50008EB580618EBD8FB58F7B8FBD8FB580685D
:100E60008FBD1DBC1CBC8FE891E097BD86BD8EB5C3
:100E70008B7F8EBD8EB58D7F8EBD8EB581608EBD14
:100E800041E065E083E00E94E10590E080E00895A4
:100E900085369105A8F4009729F41BBC1ABC90E094
:100EA00080E008959C01AFE8B1E00E94601D24E657
:100EB00030E040E050E00E94111D3BBD2ABDEFCF65
:100EC00081E090E0089585B58F7B85BD85B588600C
:100ED00085BD14BC85B5846085BD85B58D7F85BD18
:100EE00085B5816085BD85B58F7D85BD85B5806102
:100EF00085BD41E067E083E00E94E10590E080E08D
:100F000008952FB7F8946091B2047091B304809162
:100F1000B4049091B5042FBF08958330910588F4EF
:100F20008130910541F0029749F08BB780648BBF07
:100F300090E080E008958BB78068F9CF8BB780622E
:100F4000F6CF81E090E0089583309105A8F48130D8
:100F5000910509F10297C1F185B78E7F85BF85B7ED
:100F60008D7F85BF6130710551F060F06230710591
:100F700079F06330710549F081E090E0089585B71C
:100F8000816085BF90E080E0089585B7816085BF6E
:100F900085B78260F6CF85B78B7F85BF85B7877FA2
:100FA00085BF6130710569F068F36230710531F019
:100FB0006330710509F785B7846085BF85B78860A0
:100FC000E0CF85B78460DDCF6230710531F06330EA
:100FD000710591F684B7806402C084B78F7B84BFAB
:100FE000D1CFCF93DF93EC01892B99F08881998140
:100FF0008330910570F46A817B810E94A407009779
:1010000051F4888199818130910589F038F00297F7
:1010100089F081E090E0DF91CF9108958AB78064F4
:101020008ABF88819981DF91CF910C948D078AB70F
:101030008068F6CF8AB78062F3CF039730F481E0FF
:1010400090E0672B21F080E0089581E090E0089522
:10105000CF93DF93EC01892B09F44CC088819981EF
:10106000AA81BB810097A105B10509F443C09C0189
:10107000AD0184E0220F331F441F551F8A95D1F71D
:1010800060E074E284EF90E00E94111D215031096C
:10109000832F8F7080BD29B98E818295807398854A
:1010A000990F990F990F9870892B80689C81990FDF
:1010B0009670892B80BD8C819D810797C9F4529AC7
:1010C000539A549A579A1092D1041092D0041092C5
:1010D000CF041092CE041092BD041092BC04109262
:1010E000BB041092BA0490E080E0DF91CF910895A4
:1010F0005298E6CF81E090E0F8CF2091D004309173
:10110000D1042F5F3F4F2F7133274091CE04509170
:10111000CF0442175307C9F39FB7F894E091D00466
:10112000F091D104EE52FB4F80833093D104209391
:10113000D0049FBF559A90E080E008954FB7F8948F
:101140002091D0043091D1042F5F3F4F2F7133276E
:101150006091CE047091CF046217730781F0E09123
:10116000D004F091D104EE52FB4F80833093D10430
:101170002093D004559A90E080E04FBF089581E01D
:1011800090E0FBCFCF93DF93EC01892B29F481E032
:1011900090E007C00E947D0889918111FBCF90E00B
:1011A00080E0DF91CF910895CF93DF93EC01892BFD
:1011B00029F481E090E009C00E947D08FE0184913D
:1011C00021968111F9CF90E080E0DF91CF910895D1
:1011D000009741F09093B9048093B804579A90E037
:1011E00080E0089581E090E008950C94C2080C948A
:1011F000D4081F920F920FB60F9211242F933F9392
:101200004F935F936F937F938F939F93AF93BF930E
:10121000EF93FF938CB12091BC043091BD042F5FFC
:101220003F4F2F7033274091BA045091BB044217AF
:10123000530759F0E091BC04F091BD04E254FB4F18
:1012400080833093BD042093BC04E091B804F091F6
:10125000B904309709F00995FF91EF91BF91AF91D3
:101260009F918F917F916F915F914F913F912F91BE
:101270000F900FBE0F901F9018951F920F920FB6F0
:101280000F9211242F933F938F939F93EF93FF938C
:101290002091D0043091D1048091CE049091CF045C
:1012A00028173907F1F0E091CE04F091CF04EE5207
:1012B000FB4F20818091CE049091CF0401968F71D5
:1012C00099279093CF048093CE042CB9FF91EF918E
:1012D0009F918F913F912F910F900FBE0F901F9074
:1012E00018955598F3CF88E480B90898099886B77F
:1012F000846086BF90E080E008950C94730984EACE
:1013000086BF90E080E006B607FE08C021B1287FC6
:1013100081E090E0283049F480E008950196813121
:1013200027E2920781F781E090E0089584E986BF83
:1013300090E080E0089583B984E886BF90E080E083
:1013400006B607FE0CC021B1287F283181F0283273
:1013500071F081E090E0203449F480E00895019636
:10136000813127E2920761F781E090E0089580E003
:10137000FCCFCF93DF93D82FC62F0E947F09009711
:1013800041F48D2F880FC1708C2BDF91CF910C947D
:101390009B09DF91CF9108950C949B09CF93DF9324
:1013A00000D0CDB7DEB781E0898387E08A83CE01A4
:1013B00001960E9478060F900F90DF91CF910895CB
:1013C0000F931F93CF93DF93CDB7DEB7AA970FB6D6
:1013D000F894DEBF0FBECDBF1AA619A6BE01675D89
:1013E0007F4F80E00E94B8068AA58F9389A58F93CE
:1013F00080ED90E09F938F938E010F5F1F4F1F939F
:101400000F930E940C1EC8010E94C20829A53AA58C
:10141000A8EBBBE00E94601D0F900F900F900F9003
:101420000F900F902FEF33E040E050E00E94111D2D
:10143000C901AA960FB6F894DEBF0FBECDBFDF91EB
:10144000CF911F910F9108950F931F93CF93DF9327
:10145000CDB7DEB7A2970FB6F894DEBF0FBECDBFF3
:101460001AA219A2BE016F5D7F4F81E00E94B806EB
:101470008AA18F9389A18F9383ED90E09F938F939F
:101480008E010F5F1F4F1F930F930E940C1EC80108
:101490000E94C20829A13AA1A0E2BEE40E94601DF8
:1014A0000F900F900F900F900F900F902FEF33E051
:1014B00040E050E00E94111DC901A2960FB6F894B9
:1014C000DEBF0FBECDBFDF91CF911F910F91089569
:1014D0000F931F93CF93DF93CDB7DEB7AA970FB6C5
:1014E000F894DEBF0FBECDBF1AA619A6BE01675D78
:1014F0007F4F82E00E94B8068AA58F9389A58F93BB
:1015000083ED90E09F938F938E010F5F1F4F1F938A
:101510000F930E940C1EC8010E94C20829A53AA57B
:10152000A0E6BAEE0E94601D2FEF33E040E050E0ED
:101530000E94111D0F900F900F900F900F900F9021
:10154000C901AA960FB6F894DEBF0FBECDBFDF91DA
:10155000CF911F910F910895CF93DF9300D0CDB716
:10156000DEB71A821982BE016F5F7F4F83E00E944F
:10157000B80629813A81A6E9B0E00E94601D2FEFEC
:1015800033E040E050E00E94111D822F0F900F9039
:10159000DF91CF9108951092F5041092F404109207
:1015A000F3041092F2040C946307CF93DF93009737
:1015B00031F4C1E0D0E0CE01DF91CF910895C62F84
:1015C00060E0FC0180810E94B909892B91F780E0DD
:1015D0000E94CC09892B19F00E949609EACF8C2F22
:1015E0000E94CC09EC01892BB9F70E949609E3CF40
:1015F0000F931F93CF93DF93009741F401E010E026
:10160000C801DF91CF911F910F9108956115710568
:10161000A9F3EB0160E0FC0180810E94B909892BEC
:1016200069F780E40E94CC098C01892B51F48991DF
:10163000811103C00E949609E3CF0E94CC09892B37
:10164000B1F30E949609DACFCF93DF9300D0CDB7E4
:10165000DEB7198220E42A83009799F0FC012181EA
:10166000621778F42281421760F4FE01E60FF11D43
:101670006181640F60680F900F90DF91CF910C949F
:10168000D50A81E090E00F900F90DF91CF910895FF
:101690000F931F93CF93DF93EC0189010E94240BDA
:1016A000892B41F4B801CE01DF91CF911F910F91A9
:1016B0000C94F80A81E090E0DF91CF911F910F9197
:1016C000089561E00C94D50ACF93DF93009729F435
:1016D00081E090E0DF91CF910895EC0168E30E94F2
:1016E000D50A892BA9F784E0809360006CE0CE01D5
:1016F0000E94D50A892B61F7CE010E94610B892BCC
:1017000039F766E0CE010E94D50A31E020E0892B4E
:1017100009F430E0832F922FDDCFE9EFF4E08EE380
:10172000808382E0818380E18283CF010C94640B0B
:10173000EF92FF920F931F93CF93DF93CDB7DEB756
:10174000A6970FB6F894DEBF0FBECDBFFC0181E0B7
:1017500090E0309709F46BC08489958981309105B8
:1017600009F474C0029709F06FC092E58F011F92CF
:101770009F9385818F9384818F9383818F938281BF
:101780008F938CED90E09F938F937E0186E1E80E1E
:10179000F11CFF92EF920E940C1ED8011B96ED9156
:1017A000FC911C971F968C911F971F928F931D96EB
:1017B0008D919C9128EE33E0B9010E94FD1C7F932E
:1017C0006F93CF0164E670E00E94FD1CCB016AE0DC
:1017D00070E00E94FD1C9F938F93CF01B9010E947E
:1017E000FD1C7F936F93F80182851F928F938EEE7D
:1017F00090E09F938F938E010F5F1F4F1F930F9366
:101800000E940C1E970140E060E089EF94E00E9486
:10181000480B980140E061E089EF94E00E94480B9A
:101820000FB6F894DEBF0FBECDBF90E080E0A69665
:101830000FB6F894DEBF0FBECDBFDF91CF911F91E1
:101840000F91FF90EF9008959DE290CF96E48ECF98
:101850000F931F93CF93DF93CDB7DEB761970FB68A
:10186000F894DEBF0FBECDBF182F092F8091F7046B
:101870009091F804019686309105B8F59093F8049C
:101880008093F70426E031E040E060E089EF94E0E7
:101890000E94480B8091F604882399F10F931F93BF
:1018A00087E191E09F938F938E010F5F1F4F1F93EE
:1018B0000F930E940C1E980140E061E089EF94E0D4
:1018C0000E94480B0F900F900F900F900F900F9069
:1018D00090E080E061960FB6F894DEBF0FBECDBFFA
:1018E000DF91CF911F910F9108951092F8041092FB
:1018F000F70481E09091F604911180E08093F60462
:10190000C1CF84E396E00E94980BE2CF8091FC0463
:10191000811121C041E060E081E00E94E10541E0E9
:1019200061E081E00E94E10540E060E081E00E942A
:10193000430640E061E081E00E9443060E941F07E9
:1019400090E080E00E9448071092FE041092FD048F
:1019500081E08093FC0490E080E00895813091055F
:1019600049F00297A1F040E060E081E00E94430668
:1019700040E013C040E061E081E00E94430641E0A6
:1019800060E081E00E94430690E080E0089540E03E
:1019900060E081E00E94430641E061E0F2CF2091E7
:1019A000FD043091FE04232B29F41BBC1ABC90E0EB
:1019B00080E008959C01203981E0380710F02FE87D
:1019C00031E03BBD2ABDF3CF81E090E09093FE046F
:1019D0008093FD0490E080E008951092FE04109240
:1019E000FD0490E080E00E94480790E080E00895C8
:1019F00090E080E00E94480740E060E081E00E94C3
:101A0000430640E061E081E00E9443061092FE043C
:101A10001092FD04089580910105909102050196B0
:101A200090930205809301050895CF93DF9300D032
:101A300000D0CDB7DEB710920205109201051092CA
:101A400000051092FF041A82198283E090E09C83C3
:101A50008B83CE0101960E94F1076BE07DE090E060
:101A600080E00E941D080F900F900F900F90DF9163
:101A7000CF9108958F929F92AF92BF92EF92FF9273
:101A80000F931F93CF93DF93CDB7DEB7C055D10926
:101A90000FB6F894DEBF0FBECDBFF89400910105DC
:101AA0001091020510920205109201057894F12C14
:101AB000E12C0430110530F08CE3809F7001819F90
:101AC000F00C1124A091FF04B091000523E030E058
:101AD0000E946F1D47010F2C000CAA08BB08680D5F
:101AE000791D8A1D9B1D24E030E040E050E00E94FB
:101AF000331D309300052093FF048091FF049091E3
:101B000000059F938F93FF92EF921F930F9385E2AF
:101B100091E09F938F938E010F5F1F4F1F930F9341
:101B20000E940C1EC8010E94C2080FB6F894DEBFC6
:101B30000FBECDBFC05BDF4F0FB6F894DEBF0FBE48
:101B4000CDBFDF91CF911F910F91FF90EF90BF908C
:101B5000AF909F908F9008958091FF049091000521
:101B6000089540E065E082E00E94E10540E066E023
:101B700082E00E94E10540E067E082E00E94E1052A
:101B800040E066E083E00E94E10540E064E083E03D
:101B90000E94E10541E065E082E00E94710641E0BB
:101BA00066E082E00E94710641E067E082E00E9408
:101BB000710641E066E083E00E94710641E064E066
:101BC00083E00E94710641E063E081E00E94E1054C
:101BD00041E062E082E00E94E10541E063E082E0F2
:101BE0000E94E10541E064E082E00E94E10540E0FE
:101BF00063E081E00E94220640E062E082E00E9411
:101C0000220640E063E082E00E94220640E064E0B9
:101C100082E00E94220690E080E00895EF92FF9219
:101C20000F931F93CF93DF93CDB7DEB72C970FB6EB
:101C3000F894DEBF0FBECDBF65E082E00E9445068E
:101C4000F82E66E082E00E944506082F67E082E0F9
:101C50000E944506182F66E083E00E94450691E049
:101C6000F11090E0998791E0011190E09A8791E05E
:101C7000111190E09B8791E0811190E09C8788E0B2
:101C8000E0E7F0E0DE01119601900D928A95E1F710
:101C90004091100550911105BE01675F7F4FE4E050
:101CA000EE2EE5E0FE2EE8E0F5E090E080E0DB01DE
:101CB0002D91BD01D7013D917D012317E1F01082E7
:101CC0008D0101501109D8012C9301963196843071
:101CD000910569F750931105409310052C960FB6A6
:101CE000F894DEBF0FBECDBFDF91CF911F910F9152
:101CF000FF90EF9008952130D1F430813F5F308321
:101D0000353018F38C01045F1A4FD8013C91311122
:101D1000DCCF2C939C01220F331F41E050E04C0F8D
:101D20005D1F240F351FD9014D915C91CECF1082DC
:101D30009C01245F3A4FD9011C92C7CF80911005B6
:101D4000909111051092110510921005089564E00C
:101D500083E00E94450691E0813009F090E0892FF0
:101D60000895662371F0809103058F5F8A3018F41F
:101D70008093030508951092030563E081E00C94BD
:101D8000550641E0811101C040E063E081E00C9420
:101D9000220641E0811101C040E062E082E00C9443
:101DA00022068130910521F0029749F040E001C000
:101DB00041E063E082E00E94220640E006C040E08D
:101DC00063E082E00E94220641E064E082E00C943D
:101DD0002206009761F0FC012081222341F08191CD
:101DE000811102C081E0089580538A30C0F380E001
:101DF0000895CF93C82F80914505882319F08C2F23
:101E00000E949E08E0914305C83011F0CF3781F45D
:101E1000EE23A9F1E150E0934305F0E0ED5DFA4FC8
:101E2000108280E20E949E0888E0CF910C949E0868
:101E3000CD3011F0CA30C9F4EE2361F0F0E0ED5D71
:101E4000FA4F108281E0809344058DE00E949E0845
:101E50008AE0EBCF8DE00E949E088AE00E949E08F7
:101E60008EE30E949E0880E2E0CFEF3140F481E0F3
:101E70008E0F80934305F0E0ED5DFA4FC083CF9164
:101E800008950E94F5088BE991E00C94F5080E94F2
:101E9000F7088BE991E00C94F508E3E2F5E010A275
:101EA00011A281E082A380E2DF011D928A95E9F709
:101EB0008DE994E00E94470F80E894E00C94470F6E
:101EC000CF93DF93EC018DE293E00E94F708CE01FF
:101ED0000E94F7088AE293E0DF91CF910C94F70813
:101EE0007F928F929F92AF92BF92CF92DF92EF92AA
:101EF000FF920F931F93CF93DF93CDB7DEB7C058F8
:101F0000D1090FB6F894DEBF0FBECDBF8C01FC0126
:101F100083A074A0C78CB0A0A1A092A00E94A21A16
:101F2000D82EF801F08CE18C0E949515F8012489D7
:101F300035892130310509F470C02230310509F4AA
:101F40006EC02DE27F928F929F92AF92BF92CF92FE
:101F50001F92DF92EF92FF929F938F931F922F9386
:101F6000F80187851F928F9386858F9385858F9340
:101F700084858F9383858F9382851F928F9385812C
:101F80008F9384818F9383818F9382818F9380E459
:101F900091E09F938F938E010F5F1F4F1F930F93BD
:101FA0000E940C1E0FB6F894DEBF0FBECDBF81E0BD
:101FB00020E0F801E80FF11D9081911132C0F80185
:101FC00001900020E9F7CF011F922F932BE831E019
:101FD0003F932F9301979F938F930E940C1EC801EC
:101FE0000E94F5080F900F900F900F900F900F9098
:101FF000C058DF4F0FB6F894DEBF0FBECDBFDF91E4
:10200000CF911F910F91FF90EF90DF90CF90BF90F5
:10201000AF909F908F907F90089526E493CF22E514
:1020200091CF29278F5FC5CFCF93DF93EC0183E951
:1020300091E00E94F508CE010E94F5088BE991E03D
:10204000DF91CF910C94F5088DE093E00E94470F4B
:102050008EEE92E00E94470F84EC92E00E94470FC0
:1020600089EA92E00E94470F89E792E00E94470FB9
:1020700084E592E00E94470F81E392E00E94470FBF
:1020800082E192E00E94470F8FEE91E00E94470F9D
:102090008BEC91E00E94470F8AEA91E00E94470F83
:1020A00089E891E00E94470F8BE691E00E94470F7C
:1020B0008CE491E00E94470F8AE291E00E94470F72
:1020C00084E091E00E94470F85EE90E00E94470F68
:1020D00084EE90E00C94470FEF92FF920F931F93C2
:1020E000CF93DF93CDB7DEB7C058D1090FB6F894C0
:1020F000DEBF0FBECDBF80914405882379F11092D9
:10210000120569E971E083E295E00E949F1DF0905D
:102110001205009719F027E02F1570F5109244056D
:10212000FF2079F000911305109114056EE971E01C
:10213000C8010E94A41D892B81F584E396E00E94CA
:10214000700F10924305E3E2F5E080E2DF011D929B
:102150008A95E9F787ED92E00E94F508C058DF4FB5
:102160000FB6F894DEBF0FBECDBFDF91CF911F91A8
:102170000F91FF90EF90089521E02F0D209312050D
:10218000EF2DF0E0EE0FFF1FED5EFA4F918380839D
:1021900069E971E090E080E0B8CF65EA71E0C801DC
:1021A0000E94A41D892B01F580914E0680FD05C07B
:1021B0008FE694E00E94600FC4CF0E94B815882378
:1021C00019F083E694E0F6CF0E94C415882349F005
:1021D00080E694E00E94470F89EA91E00E94141083
:1021E000B0CF86E594E0E6CF68E274E0C8010E94D3
:1021F000A41D892B71F40E944D16882339F083E5C4
:1022000094E00E94470F86EB91E0E8CF8AE494E0E7
:10221000D1CF62EC71E0C8010E94A41D892BA9F402
:1022200080914E0680FD03C081E494E0C3CF0E94FC
:102230005C16882339F08EE394E00E94470F86EC09
:1022400091E0CCCF86E394E0B5CF64E874E0C801B8
:102250000E94A41D892B09F05BC081E08F1510F549
:1022600061EB72E080911505909116050E94A41D06
:10227000892BC1F4809139068F93809138068F9312
:10228000809137068F93809136068F9385ED91E08C
:102290009F938F938E010F5F1F4F1F930F930E9489
:1022A0000C1EBBC080914E0680FD03C08DE294E001
:1022B00081CFB1E084E294E0BF1508F07BCF0091BC
:1022C000150510911605C8010E94E90E811103C081
:1022D0008AE194E06FCFC8010E94811D97FD07C07D
:1022E00020916F06309170062817390718F480E1A5
:1022F00094E060CF9093350680933406BC018DE561
:1023000096E00E94F21A8DE094E00E94470F19CFE8
:1023100061EE71E0C8010E94A41D892B29F580910E
:1023200048069091490681309105D1F00297D1F489
:1023300082E51F928F9386EE91E09F938F938E019B
:102340000F5F1F4F1F930F930E940C1EC8010E9426
:10235000410F0F900F900F900F900F900F90F1CEB4
:1023600086E4E7CF8DE2E5CF6DEE71E0C8010E9413
:10237000A41D892B09F05AC0809185068F93809106
:1023800084068F93809183068F93809182068F932A
:10239000809181061F928F93809180068F93809108
:1023A0007F068F9380917E068F9380917D068F9319
:1023B00080917C068F9380917B068F9380917A0623
:1023C0008F93809179068F93809178068F93809177
:1023D00077068F93809176068F93809175068F9301
:1023E000809174068F93809173068F93809172060B
:1023F0008F93809171068F93809170068F93809157
:102400006F068F9382EF91E09F938F938E010F5F02
:102410001F4F1F930F930E940C1EC8010E94410F73
:102420000FB6F894DEBF0FBECDBF8BCE6AE172E06F
:10243000C8010E94A41D892B09F026C192E09F15B6
:1024400060F40091170510911805C8010E94E90E6B
:10245000811106C08AEF93E0ADCE84E094E0AACE6D
:10246000E0901505F0901605C8010E94811D8C01B1
:102470006EE172E0C7010E94A41D892B81F4C8019E
:10248000845F91408D37954118F080EF93E092CEB4
:102490001093700600936F068DEE93E036CF65E2E1
:1024A00072E0C7010E94A41D892B79F4C801C2976C
:1024B000873B934018F083EE93E07CCE1093720636
:1024C0000093710680EE93E020CF6CE272E0C701CA
:1024D0000E94A41D892BC9F4C80184569109853531
:1024E0009B4018F086ED93E065CE10937406009340
:1024F00073064091750650917606B8018DE596E019
:102500000E94101B83ED93E000CF62E372E0C701ED
:102510000E94A41D892BC9F4C801845691098535F0
:102520009B4018F089EC93E045CE1093760600931B
:1025300075066091730670917406A8018DE596E0AA
:102540000E94101B86EC93E0E0CE68E372E0C701C6
:102550000E94A41D892BB1F4C801885C91098930BF
:10256000974018F08CEB93E025CE109378060093FB
:102570007706B801110F880B990B0E94901889EB10
:1025800093E0C3CE61E472E0C7010E94A41D892BD1
:10259000B9F48FEA93E0013020E1120708F00ACE87
:1025A00010937A060093790640917B0650917C0641
:1025B000B80183E296E00E9422198CEA93E0A5CE4E
:1025C00064E472E0C7010E94A41D892BB9F40130B4
:1025D00082E0180718F082EA93E0ECCD10937C06B5
:1025E00000937B066091790670917A06A80183E2D8
:1025F00096E00E9422198FE993E087CE67E472E0AB
:10260000C7010E94A41D892B81F4C801885E9340F4
:10261000813B964318F085E993E0CCCD10937E067C
:1026200000937D0682E993E070CE6DE472E0C7010D
:102630000E94A41D892B89F480917D0690917E06CD
:102640008017910718F088E893E0B4CD10938006C6
:1026500000937F0685E893E058CE63E572E0C701FA
:102660000E94A41D892B69F4C801CC97813591057E
:1026700018F08BE793E09ECD0093810688E793E006
:1026800044CE8EE693E096CD61E974E0C8010E94E5
:10269000A41D892B91F40E948016882339F08BE6C3
:1026A00093E00E94470F8CE592E098CD80E693E09E
:1026B0000E94600F83E692E091CD66E772E0C80168
:1026C0000E94A41D892B91F40E94981A8C01892BD9
:1026D00019F40E949D1A8C01C8010E94CA1A9F9386
:1026E0008F931F930F938CE792E0D2CD67E872E04F
:1026F000C8010E94A41D892B59F48FE493E00E9425
:10270000470F84E493E00E94470F88E393E0FDCDF8
:102710006EE872E0C8010E94A41D892B91F56091BA
:10272000530670915406809155069091560620915B
:1027300058062F93209157062F9320E13EE040E06A
:1027400050E00E94111D122F032FF42EE52E2CE3D2
:1027500030E040E050E00E94111D5F934F933F93A3
:102760002F93EF92FF920F931F9385E992E09F932F
:102770008F938E010F5F1F4F1F930F930E940C1EAC
:102780004CCE6DEA72E0C8010E94A41D892BF9F4B9
:1027900083E296E00E942E19182F092F83E296E01B
:1027A0000E9428190F931F939F938F937F936F938A
:1027B00080917C068F9380917B068F9380917A061F
:1027C0008F93809179068F9383EB92E0D0CF65EC65
:1027D00072E0C8010E94A41D892B39F485E393E0BF
:1027E0000E94470F8AEC92E0F9CC62ED72E0C801DA
:1027F0000E94A41D892B19F40E942410A2CC88E702
:1028000094E0D8CC80914405089581E080936100E4
:102810000E9481076093490570934A0580934B0598
:1028200090934C050895CF92DF92EF92FF92CF9351
:10283000DF930097A1F020916100222381F0EC0149
:102840008E899F890897029788F4809146058111A7
:1028500006C0CE010E94700F81E080934605DF9193
:10286000CF91FF90EF90DF90CF90089510924605A2
:102870000E9481076B017C018091490590914A0576
:10288000A0914B05B0914C05A7019601281B390B6F
:102890004A0B5B0BDA01C901883E9340A105B105E3
:1028A000F0F2CE010E94700FC0924905D0924A0505
:1028B000E0924B05F0924C05D2CFCF92DF92EF928F
:1028C000FF920F931F93CF93DF93CDB7DEB7C05422
:1028D000D1090FB6F894DEBF0FBECDBF20914705DA
:1028E000309148052817390759F17B018C019093E5
:1028F0004805809347050E94A21AC82EF701D38489
:10290000F484C8010E94CA1A1F92CF92FF92DF92EC
:102910009F938F938AED92E09F938F931F9280E411
:102920008F938E010F5F1F4F1F930F930E94DC1D2B
:10293000C8010E9414100FB6F894DEBF0FBECDBFC1
:10294000C05CDF4F0FB6F894DEBF0FBECDBFDF9186
:10295000CF911F910F91FF90EF90DF90CF9008954E
:10296000CF93DF93EC0120914D0530914E0523303C
:10297000310521F58091530690915406A09155069A
:10298000B091560640914F06509150066091510605
:1029900070915206840F951FA61FB71F8093530690
:1029A00090935406A0935506B093560610924F0686
:1029B0001092500610925106109252063093500514
:1029C00020934F05D0934E05C0934D0510925A05A4
:1029D00010925B0510925C0510925D05C430D10524
:1029E00009F455C048F5C130D105C1F1C230D10557
:1029F00009F046C080915305909154059093490683
:102A00008093480683E296E00E9418198DE596E0CF
:102A10000E947D1B809157069091580601969093D5
:102A20005806809357061092620510926305109223
:102A300064051092650524C0C530D10521F0CE0192
:102A400007970397E8F410924906109248061092EF
:102A50003D0610923C0610923E0612C010924906A6
:102A60001092480610923D0610923C0610923E06C7
:102A700083E296E00E9418198DE596E00E947D1B86
:102A8000D0934B06C0934A06DF91CF91089570E032
:102A900060E08DE596E00E94F21AF2CF80914D053C
:102AA00090914E058530910550F4029768F0809121
:102AB0005305909154050E94AE0C0C94E40C8530A3
:102AC000910511F0079731F490E080E00E94AE0C80
:102AD0000C94ED0C0C94F80CEDE4F5E011821082EE
:102AE000138212821782168211861086128613862E
:102AF0001486158616861786108A84EF91E0A0E06A
:102B0000B0E0818B928BA38BB48B158A168A178ABF
:102B1000108E118E128E138E148E81E0858F089583
:102B200080914D0590914E05089580914D059091AD
:102B30004E058A30910540F4880F991FFC01E35D32
:102B4000FB4F8081918108958EEE92E008958091EF
:102B5000530590915405089520914D0530914E05EF
:102B60002250310981E02230310508F080E00895DB
:102B700020914D0530914E052850310981E02230D9
:102B8000310508F080E008950F931F93CF93DF93F2
:102B9000CDB7DEB7C055D1090FB6F894DEBF0FBE72
:102BA000CDBF80914E0681701F928F9383EF92E08C
:102BB0009F938F938E010F5F1F4F1F930F930E9460
:102BC0000C1EC8010E94C20880914E060F900F9003
:102BD0000F900F900F900F9080FD06C00E94E009AB
:102BE00090933506809334060E94981A9F938F9392
:102BF000809172068F93809171068F938091350634
:102C00008F93809134068F9380914E058F9380919E
:102C10004D058F938FEF92E09F938F931F930F93A8
:102C20000E940C1EC8010E94C2080FB6F894DEBFB5
:102C30000FBECDBF00914D0510914E058DEB93E079
:102C40000130110569F420913406309135068091E8
:102C50007106909172062817390788F486E293E08E
:102C60000E94C20880E0C05BDF4F0FB6F894DEBF61
:102C70000FBECDBFDF91CF911F910F91089583E3D8
:102C800093E00E94C208109354050093530582E01C
:102C900090E00E94B01481E0E6CF80914D059091C4
:102CA0004E050297029730F484E090E00E94B01441
:102CB00081E0089580E0089580914D0590914E0542
:102CC0000397E1F480915705811118C08091530555
:102CD00090915405019779F482E090E09093560525
:102CE0008093550581E08093570584E090E00E9431
:102CF000B01481E0089581E090E0F0CF80E0089585
:102D00000F931F93CF93DF93CDB7DEB7C055D10993
:102D10000FB6F894DEBF0FBECDBF10914E061695CC
:102D200011700E94981A1F921F939F938F93809106
:102D30004E058F9380914D058F938EE393E09F9383
:102D40008F938E010F5F1F4F1F930F930E940C1ED6
:102D5000C8010E94C20880914D0590914E050FB6A2
:102D6000F894DEBF0FBECDBF8830910519F50E94E3
:102D7000981A892BC9F483E693E00E94C208109246
:102D800058050E948C1A81E090E00E94B01481E006
:102D9000C05BDF4F0FB6F894DEBF0FBECDBFDF9133
:102DA000CF911F910F91089584E793E00E94C2088C
:102DB00080E0EECF099761F480914E0681FD05C059
:102DC0008DE893E00E94C208DECF84EA93E0EECF64
:102DD00087EB93E0EBCF80914D0590914E050997DD
:102DE00049F081E08093590589E090E00E94B01499
:102DF00081E0089580E00895AF92BF92CF92DF9274
:102E0000EF92FF920F931F93CF93DF93CDB7DEB76F
:102E1000C456D1090FB6F894DEBF0FBECDBF809166
:102E20006A05811114C00E946C15CC59DF4F0FB692
:102E3000F894DEBF0FBECDBFDF91CF911F910F91F0
:102E4000FF90EF90DF90CF90BF90AF90089580916A
:102E50005A0590915B05A0915C05B0915D058C5978
:102E60009F4FAF4FBF4F80935A0590935B05A09340
:102E70005C05B0935D05E0914D05F0914E05209104
:102E80004E0621FF26C1399711F00E94EB160E94D1
:102E90004E15CBCF80918F0690919006892B19F417
:102EA00081E090E002C088E090E00E94B014EFCF93
:102EB00010923D0610923C0610923E06E8CFD0904C
:102EC0006205C0906305B0906405A0906505E09030
:102ED0003806F090390600913606109137068DE5D8
:102EE00096E00E947A1BAF92BF92CF92DF92970139
:102EF000201B310B37FF03C03195219531093F93DA
:102F00002F93FF92EF921F930F931F928F938AEC50
:102F100093E09F938F938E010F5F1F4F1F930F932B
:102F20000E940C1EC8010E94C2088DE596E00E9416
:102F30007A1B0FB6F894DEBF0FBECDBF882309F40D
:102F400045C080913806909139062091360630911F
:102F50003706821B930B86509F4F853F9140B0F5FB
:102F60008091620590916305A0916405B09165051B
:102F700084319105A105B105C0F40196A11DB11DD3
:102F80008093620590936305A0936405B0936505F3
:102F90008091620590916305A0916405B0916505EB
:102FA0004497A105B10508F472CF8AEF93E00E941F
:102FB000C20883E090E00E94B01410926205109263
:102FC0006305109264051092650561CF8EEE93E063
:102FD0000E94C2088091620590916305A0916405EA
:102FE000B09165050097A105B10509F450CF01978F
:102FF000A109B109C5CF20913406309135068091E1
:103000007106909172062817390708F040CF0E9488
:103010004D163DCF80913806909139061816190645
:1030200004F18091660590916705A0916805B091C3
:1030300069050196A11DB11D8093660590936705F2
:10304000A0936805B09369050397A105B10508F43D
:103050001ECF80915705882369F085E090E00E949B
:10306000B0141092660510926705109268051092D0
:1030700069050DCF87E090E0F2CF40915E05509159
:103080005F05609160057091610584179507A6073B
:10309000B70708F4FCCE80915505909156059093A2
:1030A0005405809353051092570582E090E0FDCEC1
:1030B000843F9140A105B10508F4E9CEF1CE0E940C
:1030C000981A892B09F0E3CE10924D0610924C0607
:1030D000E7CEE930F10508F0DACEEF58F74E0C9460
:1030E000521D4A1758175F17FB170A183D18471744
:1030F00058185F1820914D0530914E052830310544
:1031000069F021E02093580590934D0680934C067A
:1031100088E090E00E94B01481E0089580E0089576
:1031200060935E0570935F058093600590936105E1
:103130000895FC0171836083538342831482158256
:1031400016821782118610868FE891E09387828716
:10315000158614861786168681E0808B0895FC01FB
:1031600071876087538742870895CF92DF92EF92ED
:10317000FF920F931F93FC01CB01841B950BAC01B5
:10318000A281B3819C010E94581D04811581268172
:1031900037816B017C01C00ED11EE21EF31EA0819F
:1031A000B1819A010E94581D072F182F292F33270C
:1031B00027FD3A95BB27F7FCBA95AF2D9E2D8D2D97
:1031C000080F191F2A1F3B1F82859385092E000CAB
:1031D000AA0BBB0B80179107A207B30754F457FF44
:1031E00016C02089222399F0C482D582E682F78214
:1031F0000EC080859185092E000CAA0BBB0B081709
:1032000019072A073B0774F41416150654F355875B
:103210004487978786871F910F91FF90EF90DF90EB
:10322000CF900895C482D582E682F782C801EFCF9D
:10323000FC01148215821682178215861486178661
:1032400016860895FC017183608353834283089539
:10325000FC0164817581868197810895FC018485D4
:1032600095850895EBE6F5E01182108213821282B3
:1032700014821582168217821086118680E89EEECF
:10328000A6E3B0E082879387A487B5871686178662
:10329000108A118A128A138A0895CF92DF92EF92D0
:1032A000FF920F931F93CF93DF93CDB7DEB7A8970D
:1032B0000FB6F894DEBF0FBECDBF8C017B01FC01C1
:1032C00085859685FB01208D318D28173907B8F447
:1032D0003F932F939F938F9381E494E09F938F93D9
:1032E000CE0101966C019F938F930E940C1EC60124
:1032F0000E94C2080FB6F894DEBF0FBECDBFF80122
:10330000828D81FD93C023853485F701838994895B
:103310002817390708F094C0409171055091720543
:103320006091730570917405809175059091760593
:10333000A0917705B0917805481759076A077B0770
:1033400008F081C0F8019785F7018589981708F47E
:103350005EC0809179058F5F80937905843108F094
:1033600075C0F80125853685F701808D918D82170E
:10337000930708F04FC080917B058F5F80937B059A
:10338000823008F066C0F8014285248135814333DC
:1033900008F443C0243631050CF03FC080917C0511
:1033A0008F5F80937C058E3108F056C0F8018081D4
:1033B00091818C509E4F8217930794F580917D05E3
:1033C0008F5F80937D058A3008F049C0453158F100
:1033D000232B49F580917E058F5F80937E05843194
:1033E00008F040C010926C0510926B0590E080E0F0
:1033F000A8960FB6F894DEBF0FBECDBFDF91CF9178
:103400001F910F91FF90EF90DF90CF900895109251
:103410007905A7CF10927B05B6CF10927C05C6CF59
:1034200010927D05D3CF10927E05DCCF81E090E035
:1034300090936C0580936B0521E020936F05D8CFA6
:1034400082E090E0F5CF83E090E0F2CF84E090E07E
:10345000EFCF86E090E0ECCF87E090E0E9CF88E026
:1034600090E0E6CF89E090E0E3CF8F929F92AF9219
:10347000BF92CF92DF92EF92FF92B0E0A0E06C019A
:103480007D01C61AD70AE108F108A7019601C70114
:10349000B6010E94ED1C8090710590907205A0907D
:1034A0007305B09074051C141D041E041F04DCF485
:1034B00028EE33E040E050E00E94331D820E931E60
:1034C000A41EB51E8092710590927205A09273059C
:1034D000B0927405FF90EF90DF90CF90BF90AF90C7
:1034E0009F908F90089520EA3FE040E050E00E94D6
:1034F000331D281539054A055B0528F4821A930AFD
:10350000A40AB50ADFCF10927105109272051092CD
:10351000730510927405DECFEBE6F5E0148211829C
:10352000108216861786108A118A128A138A0895C5
:1035300080916B0590916C05089580916D05909137
:103540006E050895CF92DF92EF92FF92C0907505BD
:10355000D0907605E0907705F090780580E0C11472
:10356000D104E104F10489F02091710530917205D4
:103570004091730550917405A4E6B0E00E94761D59
:10358000A70196010E94111D822FFF90EF90DF90FE
:10359000CF9008958A30910540F4880F991FFC015F
:1035A000EB56FB4F80819181089581E594E0089569
:1035B000FC0111821082138212821582148288E526
:1035C00092E09783868384E893E09187808788ECF4
:1035D00090E09387828788EB9BE09587848781E0E2
:1035E00086870895FC011616170624F011821082B2
:1035F000168608959485858522853385621773071D
:1036000034F0292F382F621773070CF49B01318394
:103610002083EECFFC017387628755874487089526
:10362000FC01778366835187408708950F931F932A
:10363000CF93DF93FC01C081D181028113819E0170
:10364000201B310B1216130654F54681578164E690
:10365000649FC001659F900D112468EE73E00E9485
:10366000FD1C621773070CF49B01200F311F33837D
:10367000228322813381209769F537FF02C01382AC
:1036800012828281938195838483C817D90711F4AC
:1036900021E02687DF91CF911F910F910895211589
:1036A000310539F34085518564E6649FC001659F0B
:1036B000900D112468EE73E00E94FD1C3195219558
:1036C0003109621773070CF49B01021B130B138360
:1036D0000283CFCF54854585828593852817390786
:1036E00034F0852F942F281739070CF4C9019383E0
:1036F0008283C7CFFC0186850895FC011382128264
:103700001582148216860895EDE8F5E01182108284
:1037100013821282158214821782168210861186F5
:10372000128613861486158616861786118A108AC5
:10373000108E799686E0E332F80741F710928C05F7
:10374000109288051092890510928A0510928B05B7
:1037500010928405109285051092860510928705B7
:103760000E94810760938005709381058093820594
:103770009093830510927F0508954F925F926F9208
:103780007F92AF92BF92CF92DF92EF92FF920F9310
:103790001F93CF93DF930E9481076B017C01B12CB3
:1037A00089E1A82E80918C05B81608F464C0809138
:1037B000800590918105A0918205B0918305A701B4
:1037C0009601281B390B4A0B5B0BDA01C901883EB5
:1037D0009340A105B10508F43FC0209184053091C4
:1037E0008505409186055091870540908805509049
:1037F000890560908A0570908B05420E531E641EE9
:10380000751E411451046104710471F0A4E6B0E026
:103810000E94761DA30192010E94111D80917F05D7
:10382000821710F420937F0510928405109285056D
:1038300010928605109287051092880510928905CE
:1038400010928A0510928B05C0928005D092810556
:10385000E0928205F0928305DF91CF911F910F9145
:10386000FF90EF90DF90CF90BF90AF907F906F90E0
:103870005F904F9008950B2D10E0A09EE001A19E57
:10388000D00D1124C357DA4F888D882309F477C0EF
:1038900088819981892B09F472C08C859D85AE85BC
:1038A000BF85C816D906EA06FB0608F468C00E9460
:1038B00081072B013C014C8A5D8A6E8A7F8AE881F0
:1038C000F98109950E948107DC01CB0184199509D2
:1038D000A609B7094A885B88712C612C48165906DD
:1038E0006A067B0610F49B8B8A8B4090840550906F
:1038F00085056090860570908705480E591E6A1EE2
:103900007B1E4092840550928505609286057092D8
:103910008705A09EF001A19EF00D1124E357FA4FF8
:103920002481358180859185A285B385B701A60163
:10393000481B590B6A0B7B0BC9010596B0E0A0E050
:1039400084179507A607B70728F4808991890196FF
:10395000918B808BA09EF001A19EF00D1124E35766
:10396000FA4FC086D186E286F386D701C601820F60
:10397000931FA11DB11D84879587A687B787B39430
:1039800011CFDC0190918C05963028F5109719F134
:1039900089E1989FF0011124E357FA4FB183A08386
:1039A000738362835583448337832683108611860D
:1039B00012861386A90170E060E044875587668708
:1039C0007787118A108A138A128A81E0808F9F5F1D
:1039D00090938C05089580E00895DB018F939F9369
:1039E0000E94761DBF91AF91A29F800D911DA39F54
:1039F000900DB29F900D11240895AA1BBB1B51E19D
:103A000007C0AA1FBB1FA617B70710F0A61BB70B4E
:103A1000881F991F5A95A9F780959095BC01CD01F3
:103A20000895A1E21A2EAA1BBB1BFD010DC0AA1FFF
:103A3000BB1FEE1FFF1FA217B307E407F50720F017
:103A4000A21BB30BE40BF50B661F771F881F991F92
:103A50001A9469F760957095809590959B01AC01DB
:103A6000BD01CF010895052E97FB1EF400940E941E
:103A70004A1D57FD07D00E94111D07FC03D04EF4CC
:103A80000C944A1D50954095309521953F4F4F4FCE
:103A90005F4F089590958095709561957F4F8F4FFA
:103AA0009F4F0895EE0FFF1F0590F491E02D0994AC
:103AB0000E94601D332312F48A1B9B0B0C94711D12
:103AC000A29FB001B39FC001A39F700D811D11245F
:103AD000911DB29F700D811D1124911D08950E94AA
:103AE000601DB7FF0895821B930B08950E94601D0F
:103AF000A59F900DB49F900DA49F800D911D112442
:103B00000895FC0188279927E89421912032E9F350
:103B1000293010F02E30C8F32B3241F02D3239F419
:103B2000689404C00E94D41D820F911D21912053DE
:103B30002A30C0F31EF4909581959F4F08954AEA6C
:103B400054E00E94AD1D0895FB01DC018D910190B0
:103B500080190110D9F3990B0895FA01A191B08150
:103B6000009719F41097E1F0CD01DC01CD010D9023
:103B7000002011F4C00113C0FB012191222319F090
:103B80002015D9F7F3CFFB012191201519F41E92CE
:103B9000119606C02223C1F70D900020A1F7D00195
:103BA000FA01A193B08308957AE0979F902D879FA3
:103BB000802D910D11240895AEE0B0E0E2EEFDE11C
:103BC0000C94BB200D891E898F89988D26E02C834B
:103BD0001A83098397FF02C080E090E801979E83D3
:103BE0008D83AE01455E5F4F698D7A8DCE01019662
:103BF0000E942F1E4D815E8157FD0AC02F8138859E
:103C0000421753070CF49A01020F131FF801108298
:103C10002E96E4E00C94D720AEE0B0E0E2E1FEE1C5
:103C20000C94BB200D891E8986E08C831A8309833E
:103C30008FEF9FE79E838D83AE01475E5F4F6F8955
:103C4000788DCE0101960E942F1E2F813885020F9C
:103C5000131FF80110822E96E4E00C94D720ABE0FD
:103C6000B0E0E5E3FEE10C94AD207C013B018A016C
:103C7000FC0117821682838181FFC8C1CE010196A3
:103C80005C01F7019381F30193FD859193FF81918D
:103C90003F01882309F453C1853239F493FD85919E
:103CA00093FF81913F01853229F4B70190E00E9492
:103CB0001F20E7CF912C212C312CFFE1F31538F098
:103CC0008B3211F190F4803209F1833229F137FC03
:103CD0003CC020ED280F2A3050F536FE20C08AE087
:103CE000989E200D1124922E06C08D3291F08033C3
:103CF00071F7689430F8F30193FD859193FF8191FA
:103D00003F018111DACF21C0689431F8689432F80C
:103D1000F2CF689433F8EFCF689434F8ECCFEAE050
:103D20002E9E200D1124222E689435F8E4CF8E3279
:103D300029F436FC04C1689436F8DDCF8C3619F4CA
:103D4000689437F8D8CF8836B1F2982F9F7D955474
:103D50009330E0F08336A1F18337C1F1833509F068
:103D600063C02801F2E04F0E511CF801C080D180E1
:103D7000692D70E036FC02C06FEF7FEFC6010E9434
:103D800009204C01689437F882010AC00C5F1F4F6C
:103D9000FFE3F98388248394912C6501E89437F834
:103DA00033FE2DC0522C8114910471F5552009F475
:103DB00068CFB70180E290E00E941F205A94F6CFAE
:103DC000F801808189830E5F1F4FE4CF2801F2E064
:103DD0004F0E511CF801C080D180692D70E036FC77
:103DE00002C06FEF7FEFC6010E9414204C018201D8
:103DF000D5CFB70180E290E00E941F202A942814BA
:103E0000190409F0B0F7CECFF60137FC859137FEE3
:103E100081916F01B70190E00E941F2051105A94C8
:103E2000F1E08F1A9108BFCF843619F0893609F076
:103E300077C0F80137FE6BC0608171818281938108
:103E40000C5F1F4FF32DFF763F2E97FF09C0909513
:103E50008095709561957F4F8F4F9F4F689437F88D
:103E60002AE030E0A5010E944F20C82ECA188C2CF1
:103E7000432C36FE0CC0E89440F8C91440F434FEDC
:103E800005C032FC03C0F32DFE7E4F2E892C44FE6C
:103E900095C0FE01EC0DF11D8081803309F087C0D3
:103EA000242D297E422E842D8870582E43FC95C0E7
:103EB00040FE8FC09C2C821418F42C0C922C981865
:103EC00044FE91C0B70180E390E00E941F2042FEB3
:103ED00009C088E790E041FE02C088E590E0B701A4
:103EE0000E941F20C91408F48AC0CA94D12C9FEFE5
:103EF000C91AD90ACA0CDB1CF60182916F01B701FD
:103F000090E00E941F20AC14BD04B1F74FCF608138
:103F10007181072E000C880B990B0E5F1F4F92CFFB
:103F2000D32CE894D4F82AE030E0853739F1232DFA
:103F3000297FD22E8F3601F148F48835A9F0F70198
:103F4000868197812B96E2E10C94C920803749F055
:103F50008837A9F7D4FE02C06894D2F820E130E097
:103F60000DC06894D4F8F6CF34FE03C0822F86606B
:103F7000D82E20E132E002C028E030E0F801D7FE80
:103F80000FC060817181828193810C5F1F4FA501F9
:103F90000E944F20C82ECA183D2CE89437F867CFEE
:103FA0006081718190E080E00E5F1F4FF0CF42FC96
:103FB00002C0839478CF8394839475CF842D8678C0
:103FC00009F471CFF6CFB70180E290E00E941F2084
:103FD00083948214C0F3512C73CF522C581882143E
:103FE00008F46ECFF8CF842D867809F47BCF8BE26E
:103FF00041FE80E247FC8DE2B70190E071CFB7014E
:1040000080E390E00E941F209A946CCF8FEF9FEF87
:1040100099CFFC010590615070400110D8F7809550
:1040200090958E0F9F1F0895FC0161507040019084
:104030000110D8F7809590958E0F9F1F08950F93CC
:104040001F93CF93DF93182F092FEB018B8181FDF5
:1040500009C01FEF0FEF812F902FDF91CF911F919C
:104060000F91089582FF14C02E813F818C819D8124
:10407000281739073CF4E881F981CF01019699832B
:10408000888310838E819F8101969F838E83E3CFE7
:10409000E885F985812F0995892BA1F3DACFFA01FB
:1040A000AA27283051F1203181F1E8946F936E7F77
:1040B0006E5F7F4F8F4F9F4FAF4FB1E03ED0B4E068
:1040C0003CD0670F781F891F9A1FA11D680F791FA9
:1040D0008A1F911DA11D6A0F711D811D911DA11DBA
:1040E00020D009F468943F912AE0269F11243019CA
:1040F000305D3193DEF6CF010895462F4770405D65
:104100004193B3E00FD0C9F7F6CF462F4F70405D13
:104110004A3318F0495D31FD4052419302D0A9F76E
:10412000EACFB4E0A6959795879577956795BA9568
:10413000C9F700976105710508959B01AC010A2E2E
:1041400006945795479537952795BA95C9F7620F05
:10415000731F841F951FA01D08952F923F924F92A9
:104160005F926F927F928F929F92AF92BF92CF9207
:10417000DF92EF92FF920F931F93CF93DF93CDB710
:10418000DEB7CA1BDB0B0FB6F894DEBF0FBECDBF88
:1041900009942A88398848885F846E847D848C8459
:1041A0009B84AA84B984C884DF80EE80FD800C8162
:1041B0001B81AA81B981CE0FD11D0FB6F894DEBF45
:0C41C0000FBECDBFED010895F894FFCFB5
:1041CC000401802500000300000000000100030032
:1041DC000100020003000400563D25752053544F86
:1041EC0052453D25750D0A0050616E656C00437596
:1041FC007272656E7400436F6E74726F6C004C4318
:10420C004400536C6F7753656E736F727300546513
:10421C006C656D65747279003900360033003000BE
:10422C003B003800350032003A00370034003100D2
:10423C0053505F5241573D25750D0A005345542587
:10424C002D346420414354252D34642563002532DC
:10425C00642525202532642E2564412025326456A0
:10426C0020253264430021212054524950504544AA
:10427C0020212120202000215452495020434F441A
:10428C00453D256400434F554E543D257520494E00
:10429C0053543D25642046494C543D25640D0A0079
:1042AC00244D442C53503D25642C52503D25642CF8
:1042BC00443D25642C493D25642C563D25752C54D4
:1042CC003D25642C4449523D25632C53543D2573A4
:1042DC002C54523D25642C4932543D25642C5248B3
:1042EC003D256C752C53433D2564002A25303258EE
:1042FC000D0A00214556542C0020090D0A00535478
:10430C00415455530052554E0053544152542C5263
:10431C00454D4F54450053544F502C52454D4F541E
:10432C00450052455600524556455253452C524570
:10433C004D4F54450053504545443D25642C256450
:10434C00004449523F004449523D256300434647CF
:10435C003F004346473D25642C25642C25642C25C1
:10436C00642C25642C25642C25642C25642C256454
:10437C002C25642C25642C256400534554004D4198
:10438C005852504D004D494E52504D0041434345FB
:10439C004C00444543454C004445414454494D452B
:1043AC00004B50004B490052415445440053484F78
:1043BC005254004F56455254454D500041434B2CDE
:1043CC004F4B0041434B2C524546555345442C41D1
:1043DC00435449564500545249503F005452495099
:1043EC003D25642C25730054524950533F00484FCF
:1043FC005552533F00484F5552533D2530326C7542
:10440C003A2530326C752C53433D25640054554E7F
:10441C00453F0054554E453D25642C25642C256C98
:10442C00642C2564005341564500534156452C4F8E
:10443C004B0048454C50003E2000545249502C250E
:10444C00732C493D25752C4932543D257500554E2C
:10445C004B4E0052454D4F54453D25640D0A0053BB
:10446C00544152543A2053544154453D25642053F1
:10447C00503D2564204D494E3D25642054524950F1
:10448C003D25640D0A004641494C20535045454496
:10449C000D0A005354415254204F4B0D0A00524503
:1044AC005345543A2053544154453D2564204143CF
:1044BC00544956453D2564204553544F503D256481
:1044CC000D0A0052455345542D3E53544F50504500
:1044DC00440D0A005245534554204641494C204155
:1044EC00435449564520545249500D0A00524553E5
:1044FC004554204553544F502D3E53544F50504526
:10450C00440D0A005245534554204641494C204520
:10451C0053544F500D0A00524553455420464149BF
:10452C004C2053544154450D0A0052543D257520DE
:10453C0052523D2564204D523D2564204449464647
:10454C003D256420434E543D256C750D0A005245A3
:10455C0053455420434E540D0A0052554E4E494E6D
:10456C00470D0A00494E49540053545254005244CA
:10457C00574E00444541440042524B00434F415377
:10458C00540054524950004553544F5000040428D1
:10459C00040904A5010E04130418041C04220427A6
:1045AC00044255533D2575204C494D3D25750D0A4A
:1045BC0000554E4B4E4F574E004E4F4E45004F56EA
:1045CC0045524C4F414400554E444552564F4C5465
:1045DC00004F564552564F4C54005354414C4C00CE
:1045EC004F5645525350454544004E4F4645454461
:1045FC004241434B00590427044D025E04530267A9
:0A460C000471047A0480048A04009B
:00000001FF
