:100000000C942A000C9447000C9461010C94470056
:100010000C9447000C9447000C9447000C94470044
:100020000C9447000C9447000C94E2020C94470097
:100030000C9447000C9475010C9447000C944700F5
:100040000C9447000C9447000C9447000C94470014
:100050000C94470011241FBECFE5D8E0DEBFCDBF12
:1000600016E0A0E6B0E0E0E4F5E402C005900D92F1
:10007000A03FB107D9F729E0A0EFB6E001C01D927B
:10008000AE3EB207E1F70E94771D0C949E220C94BD
:1000900000000E94EE0E0E947E0F82309105E1F179
:1000A00030F5019781F10E941B1660E083309105C5
:1000B00031F08230910511F00497C1F561E081E0E3
:1000C0000E94900F0E944316882399F181E00E94BC
:1000D000A80F0E9432160E94B00F0E94870F9091C5
:1000E000AA09882341F19E7F9093AA09089583303D
:1000F0009105A9F00497B9F60E94A0168111D3CFFB
:1001000081EE90E006C00E944F168111CCCF8FEC9B
:1001100090E00E943310C7CF0E946D16C4CF0E949A
:100120007C168111C0CF89ED90E0F3CF60E080E0D4
:10013000C7CF80E0CCCF9160D7CFCF93DF930E9421
:100140004006C0E9D9E09E878D870E945F068F87B1
:10015000DF91CF9108950E943716882369F020918E
:100160009409309195098091CD099091CE09281775
:10017000390710F00E94541B80E999E00C94B814E0
:10018000CF93DF930E942106EC0190939C0980930A
:100190009B096091D9097091DA090E944C198091EC
:1001A000DB099091DC09C817D90760F082E090E084
:1001B0000E94B81760E979E082E090E0DF91CF918A
:1001C0000C94F014DF91CF910895CF93DF930E94A8
:1001D000CD160E94680E0E947D0E90939509809323
:1001E00094098091AA0980FF2FC080919009909175
:1001F0009109BC0189EB99E00E94191A89EB99E0F9
:100200000E94371A90939309809392092091940940
:1002100030919509821B930B9093970980939609CF
:1002200068EC79E080E999E00E949018EC01009771
:1002300091F00E94B8170E94CD0B60E979E0CE01E1
:10024000DF91CF910C94F0140E94020690939109D3
:1002500080939009CECF0E9437168823E9F0409111
:1002600094095091950960919209709193098FE7D3
:1002700099E00E94FC17EC01CE010E942A1BCE01DE
:100280000E94AD0B8091A4099091A5090E948C0B4E
:10029000DF91CF910C94471B8FE799E00E945F1884
:1002A000D0E0C0E0E9CF0E944316882331F080916E
:1002B000A8099091A9090C94F30A80E999E00C949B
:1002C000630A1F920F920FB60F9211248F931BBCDB
:1002D0001ABCC298C198C09881E08093F0068F91B3
:1002E0000F900FBE0F901F9018951F920F920FB690
:1002F0000F9211242F933F934F935F936F937F93AC
:100300008F939F93AF93BF93EF93FF938CB10E9412
:10031000D80FFF91EF91BF91AF919F918F917F91F6
:100320006F915F914F913F912F910F900FBE0F9062
:100330001F9018958430E0F46830D0F4E82FF0E096
:10034000EE0FFF1FEF57FF4F0190F081E02D81E08E
:1003500090E001C0880F6A95EAF79081413029F456
:10036000892B808390E080E0089580958923F9CFE0
:1003700081E090E008958430D8F46830C8F44115E5
:100380005105B1F0E82FF0E0EE0FFF1FEF58FF4FDF
:100390000190F081E02D808190E002C095958795D5
:1003A0006A95E2F78170FA01808390E080E0089519
:1003B00081E090E00895843090F46115710579F042
:1003C000E82FF0E0EE0FFF1FEF58FF4F0190F08194
:1003D000E02D8081FB01808390E080E0089581E042
:1003E00090E008958430E0F46830D0F4E82FF0E035
:1003F000EE0FFF1FE758FF4F0190F081E02D81E0E5
:1004000090E001C0880F6A95EAF79081413029F4A5
:10041000892B808390E080E0089580958923F9CF2F
:1004200081E090E008950C94F201CF93DF931F9246
:10043000CDB7DEB71982AE014F5F5F4F0E94BB019F
:1004400089810F90DF91CF9108958430B8F468309E
:10045000A8F4E82FF0E0EE0FFF1FE758FF4F0190E0
:10046000F081E02D808121E030E001C0220F6A950B
:10047000EAF78227808390E080E0089581E090E0B1
:10048000089591E0411101C090E0492F0C94F201D0
:10049000892B71F03E9A3F983D98389839983A9850
:1004A0003B983098319A329A379A90E080E00895DC
:1004B00081E090E00895883080F4389839983A982F
:1004C0003B9880FD389A81FD399A8695869509F08A
:1004D0003A9A369A90E080E0089581E090E008959D
:1004E000009759F034B125B1232732272327FC0187
:1004F0003183208390E080E0089581E090E00895CA
:1005000086B18295869586958370809581700895D1
:10051000CF93DF93EB010E945B02009749F40E94A6
:1005200080028823E1F3CE01DF91CF910C94700219
:10053000DF91CF910895379890E080E0089583B7D8
:100540008F7B83BF83B7886083BF12BE89EF8CBF68
:1005500083B78B7F83BF83B7826083BF83B781609C
:1005600083BF89B7826089BF90E080E00895892BBE
:1005700051F489B791E0672B09F092E0892B89BF8C
:1005800090E080E0089581E090E00895892B51F497
:1005900089B79EEF672B09F09DEF892389BF90E013
:1005A00080E0089581E090E008954115510539F00B
:1005B0005093F6064093F50690E080E0089581E0C0
:1005C00090E008951F920F920FB60F9211242F936F
:1005D0003F934F935F936F937F938F939F93AF93CB
:1005E000BF93EF93FF938091F1069091F206A09153
:1005F000F306B091F4060196A11DB11D8093F1069A
:100600009093F206A093F306B093F406E091F506FA
:10061000F091F606309709F00995FF91EF91BF919F
:10062000AF919F918F917F916F915F914F913F918A
:100630002F910F900FBE0F901F9018958FB58E7F42
:100640008FBD8FB582608FBD8EB588608EBD8EB533
:1006500080618EBD8FB58F7B8FBD8FB580688FBD5C
:100660001DBC1CBC8FE891E097BD86BD8EB58B7F0D
:100670008EBD8EB58D7F8EBD8EB581608EBD41E005
:1006800065E083E00E949A0190E080E0089585365D
:100690009105A8F4009729F41BBC1ABC90E080E0F7
:1006A00008959C01AFE8B1E00E944A1F24E630E0C3
:1006B00040E050E00E94FB1E3BBD2ABDEFCF81E031
:1006C00090E0089585B58F7B85BD85B5886085BD33
:1006D00014BC85B5846085BD85B58D7F85BD85B528
:1006E000816085BD85B58F7D85BD85B5806185BD02
:1006F00041E067E083E00E949A0190E080E0089585
:100700008F3F910509F020F483BD90E080E00895CB
:1007100081E090E0089578940895F89408952FB7B3
:10072000F8946091F1067091F2068091F306909131
:10073000F4062FBF08958330910588F48130910528
:1007400041F0029749F08BB780648BBF90E080E066
:1007500008958BB78068F9CF8BB78062F6CF81E0C0
:1007600090E008958330910588F48130910541F03F
:10077000029749F08BB78F7B8BBF90E080E00895A4
:100780008BB78F77F9CF8BB78F7DF6CF81E090E075
:10079000089583309105A8F48130910509F10297FD
:1007A000C1F185B78E7F85BF85B78D7F85BF6130ED
:1007B000710551F060F06230710579F063307105B8
:1007C00049F081E090E0089585B7816085BF90E0B1
:1007D00080E0089585B7816085BF85B78260F6CFD8
:1007E00085B78B7F85BF85B7877F85BF61307105F2
:1007F00069F068F36230710531F06330710509F713
:1008000085B7846085BF85B78860E0CF85B7846091
:10081000DDCF6230710531F06330710591F684B738
:10082000806402C084B78F7B84BFD1CFCF93DF9326
:10083000EC01892B99F0888199818330910570F4BE
:100840006A817B810E94C903009751F48881998154
:100850008130910589F038F0029789F081E090E0CD
:10086000DF91CF9108958AB780648ABF888199818A
:10087000DF91CF910C949B038AB78068F6CF8AB73B
:100880008062F3CF039730F481E090E0672B21F092
:1008900080E0089581E090E008958FB780688FBF71
:1008A00008958FB78F778FBF08954091F9065091C3
:1008B000FA062091F7063091F80642175307A9F37C
:1008C000E091F706F091F806E550F94F2081FC0120
:1008D00020838091F7069091F80601968F739927EF
:1008E0009093F8068093F70690E080E00895CF9308
:1008F000DF93EC01892B09F44CC088819981AA818E
:10090000BB810097A105B10509F443C09C01AD016D
:1009100084E0220F331F441F551F8A95D1F760E0F2
:1009200072E18AE790E00E94FB1E21503109832F7B
:100930008F7080BD29B98E81829580739885990FBB
:10094000990F990F9870892B80689C81990F9670E8
:10095000892B80BD8C819D810797C9F4529A539A47
:10096000549A579A10923E0710923D0710923C07F6
:1009700010923B071092FA061092F9061092F806B0
:100980001092F70690E080E0DF91CF9108955298A1
:10099000E6CF81E090E0F8CF539854985798569856
:1009A000559890E080E0089520913D0730913E07F2
:1009B0002F5F3F4F2F77332740913B0750913C07E4
:1009C00042175307C9F3E0913D07F0913E07E15C00
:1009D000F84F808330933E0720933D07559A90E06F
:1009E00080E00895009711F00C94550481E090E0A8
:1009F0000895009711F14091F9065091FA0620915F
:100A0000F7063091F80642175307B9F0E091F70660
:100A1000F091F806E550F94F2081FC012083809188
:100A2000F7069091F80601968F7399279093F80630
:100A30008093F70690E080E0089581E090E00895CB
:100A4000CF93DF93EC01892B29F481E090E007C07C
:100A50000E94D40489918111FBCF90E080E0DF9166
:100A6000CF9108959F92AF92BF92CF92DF92EF9273
:100A7000FF920F931F93CF93DF931F92CDB7DEB7F3
:100A80001982009779F481E090E00F90DF91CF9187
:100A90001F910F91FF90EF90DF90CF90BF90AF909C
:100AA0009F9008956115710571F3942E6C015C019E
:100AB00010E000E07B0181E0E81AF1080E151F0547
:100AC00048F4CE0101960E945504892BE1F68981F4
:100AD000891107C00C0D1D1DF801108290E080E007
:100AE000D4CFF50181935F010F5F1F4FE7CF892BB3
:100AF00021F0579A90E080E0089581E090E0089519
:100B000020913D0730913E0780913B0790913C0733
:100B10002817390719F490E080E0089582E090E00A
:100B200008950C94D4040C94200588E480B90898A6
:100B3000099886B7846086BF90E080E008950C94A1
:100B4000950584EA86BF90E080E006B607FE08C0FF
:100B500021B1287F81E090E0283049F480E00895B9
:100B60000196813127E2920781F781E090E00895B4
:100B700084E986BF90E080E0089583B984E886BF69
:100B800090E080E006B607FE0CC021B1287F283136
:100B900081F0283271F081E090E0203449F480E067
:100BA00008950196813127E2920761F781E090E094
:100BB000089580E0FCCFCF93DF93D82FC62F0E94FB
:100BC000A105009741F48D2F880FC1708C2BDF9108
:100BD000CF910C94BD05DF91CF9108950C94BD0584
:100BE000CF93DF9300D0CDB7DEB781E0898387E074
:100BF0008A83CE0101960E9448020F900F90DF91E8
:100C0000CF910895CF93DF9300D0CDB7DEB71A828E
:100C10001982BE016F5F7F4F80E00E9488022981A8
:100C20003A81A8EBBBE00E944A1F2FEF33E040E07F
:100C300050E00E94FB1EC9010F900F90DF91CF91F1
:100C40000895CF93DF9300D0CDB7DEB71A82198213
:100C5000BE016F5F7F4F81E00E94880229813A8147
:100C6000A0E2BEE40E944A1F2FEF33E040E050E0D4
:100C70000E94FB1EC9010F900F90DF91CF91089544
:100C8000CF93DF9300D0CDB7DEB71A821982BE01B1
:100C90006F5F7F4F82E00E94880229813A81A0E63F
:100CA000BAEE0E944A1F2FEF33E040E050E00E946E
:100CB000FB1EC9010F900F90DF91CF910895CF9344
:100CC000DF9300D0CDB7DEB71A821982BE016F5F05
:100CD0007F4F83E00E94880229813A81A6E9B0E033
:100CE0000E944A1F2FEF33E040E050E00E94FB1EBD
:100CF000822F0F900F90DF91CF9108951092C2072D
:100D00001092C1071092C0071092BF070C946203A3
:100D10009093C2078093C1071092C0071092BF073B
:100D20008130910551F028F0049750F081E090E077
:100D3000089590E080E00C94800386E990E0FBCF7A
:100D40008CE390E0F8CF8091C1079091C2070097A3
:100D500059F18330910541F14AE050E0813091052D
:100D600011F442E350E02091BF073091C0072F5F9C
:100D70003F4F2417350728F43093C0072093BF074F
:100D800008951092C0071092BF072091600022239F
:100D900061F090E080E00E94800381E0909160002B
:100DA000911180E0809360000895019719F08CE321
:100DB00090E0F1CF86E990E0EECFDB01FA018230DE
:100DC0009105A1F028F4019761F01C92108208951A
:100DD0008330910579F00497C1F783E08C9387E025
:100DE00003C081E08C9383E08083089583E08C933B
:100DF00085E0FACF83E08C9384E0F6CF82309105D2
:100E000061F018F4019739F008958330910549F0A5
:100E1000049759F008956CBF089570E07BBD6ABDDA
:100E2000089570E079BD68BD089563BD0895EF929F
:100E3000FF921F93CF93DF93EC017B01CB010197CE
:100E400010E040E08330910540F4FC01E457FF4F8F
:100E50004081FC01E757FF4F10812885222329F0AC
:100E6000029718F4842F412F182F698188810E94DE
:100E70001302412F6B818A810E941302FC86EB864C
:100E8000DF91CF911F91FF90EF90089582309105EF
:100E900091F018F4019739F008958330910599F095
:100EA0000497C1F0089583B7662319F0806283BF69
:100EB00008958F7DFCCF8FB5662319F080688FBDB4
:100EC00008958F77FCCF8FB5662311F08062F7CF3E
:100ED0008F7DF5CF85B5662319F0806285BD0895B5
:100EE0008F7DFCCF0F931F93CF93DF9300D0CDB7AF
:100EF000DEB78C011A821982FC01868197810097E6
:100F000089F441E08285811101C040E0F8016581EA
:100F100084810E9413020F900F90DF91CF911F9157
:100F20000F910895AE014F5F5F4FBE016E5F7F4F1F
:100F30000E94DD06F801828526813781811108C073
:100F400060E0C9010E94460740E069818A81E1CFE3
:100F5000FFEF8F9FC001112464E670E00E94E71E3E
:100F6000C9010E94FE0661E0F801868197810E9416
:100F70004607D1CF0F931F93CF93DF9300D0CDB708
:100F8000DEB7FC011A821982892B49F481E090E0D6
:100F90000F900F90DF91CF911F910F910895808155
:100FA0008430A0F79281943088F7268137812530EC
:100FB000310560F78F0141E061810E949A0141E0B3
:100FC000F801638182810E949A0140E0F801618109
:100FD00080810E94130240E0F801638182810E94B7
:100FE0001302F801868197810097E1F484818430AF
:100FF00068F641E065810E949A0140E0F801658150
:1010000084810E941302F801128681E0818770E0DA
:1010100060E0C8010E941707C8010E94720790E0B3
:1010200080E0B6CFAE014F5F5F4FBE016E5F7F4F76
:101030000E94DD0641E069818A810E949A0140E0B8
:1010400069818A810E941302F80186819781843028
:10105000910560F48230910598F4019769F060E0A1
:10106000F801868197810E944607CDCF0497B9F792
:101070008CE485BD13BCF3CF8BE483BF1CBEEFCFE4
:101080008FB581608FBD8EB588608EBD8EB5826054
:101090008EBD8EB581608EBDE2CF009771F0FC01F0
:1010A0002185222351F0653608F064E6FC01628751
:1010B0000E94720790E080E0089581E090E008953A
:1010C000CF93DF93009789F0FC012185222369F0FB
:1010D000EC0161E070E00E941707CE010E947207E8
:1010E00090E080E0DF91CF91089581E090E0FACF29
:1010F000CF93DF93009789F0FC012185222369F0CB
:10110000EC0162E070E00E941707CE010E947207B6
:1011100090E080E0DF91CF91089581E090E0FACFF8
:10112000009769F0FC012185222349F062307105A6
:1011300030F4672B11F40C9460080C94780881E06B
:1011400090E008950F931F93CF93DF9300D0CDB716
:10115000DEB71A821982009771F1FC0121852223E2
:1011600051F18C0170E060E00E941707F801868160
:101170009781009771F440E0658184810E94130299
:1011800090E080E00F900F90DF91CF911F910F9131
:101190000895AE014F5F5F4FBE016E5F7F4F0E94AB
:1011A000DD0660E0F801868197810E94460740E0F5
:1011B00069818A81E3CF81E090E0E4CFCF93DF9330
:1011C000009701F1FC0121852223E1F0EC0163E0AD
:1011D00070E00E9417078E819F81009751F441E0D3
:1011E0006D818C810E94130290E080E0DF91CF91AD
:1011F00008956FEF0E94FE0661E08E819F810E943C
:101200004607F2CF81E090E0F1CF009779F0FC0142
:101210002185222359F06115710541F0838594855C
:10122000FB019183808390E080E0089581E090E06D
:101230000895009769F0FC012185222349F061158A
:10124000710531F08285FB01808390E080E0089594
:1012500081E090E008950F931F93CF93DF9300D028
:10126000CDB7DEB71A821982009789F1FC0121857A
:10127000222369F18C010E94A208F80186819781DE
:101280000097C9F0AE014F5F5F4FBE016E5F7F4FA9
:101290000E94DD0660E0F801868197810E94460782
:1012A00060E0F801868197810E94FE0640E0698136
:1012B0008A810E941302F8011286118690E080E074
:1012C0000F900F90DF91CF911F910F91089581E0C2
:1012D00090E0F6CFCF93DF93009731F4C1E0D0E0F8
:1012E000CE01DF91CF910895C62F60E0FC0180818F
:1012F0000E94DB05892B91F780E00E94EE05892B87
:1013000019F00E94B805EACF8C2F0E94EE05EC017F
:10131000892BB9F70E94B805E3CFCF93DF930097ED
:1013200031F4C1E0D0E0CE01DF91CF910895C62F16
:1013300060E0FC0180810E94DB05892B91F780E44D
:101340000E94EE05892B19F00E94B805EACF8C2F78
:101350000E94EE05EC01892BB9F70E94B805E3CF96
:101360000F931F93CF93DF93009741F401E010E0B8
:10137000C801DF91CF911F910F91089561157105FB
:10138000A9F3EB0160E0FC0180810E94DB05892B61
:1013900069F780E40E94EE058C01892B51F4899154
:1013A000811103C00E94B805E3CF0E94EE05892B8E
:1013B000B1F30E94B805DACFCF93DF9300D0CDB759
:1013C000DEB7198220E42A83009799F0FC0121817D
:1013D000621778F42281421760F4FE01E60FF11DD6
:1013E0006181640F60680F900F90DF91CF910C9432
:1013F0006A0981E090E00F900F90DF91CF910895FE
:101400000F931F93CF93DF93EC0189010E94DC09B6
:10141000892B41F4B801CE01DF91CF911F910F913B
:101420000C94B00981E090E0DF91CF911F910F9172
:10143000089561E00C946A0962E00C946A099C01C9
:1014400090916100662349F09460909361006091EF
:1014500061006860C9010C946A099B7FF6CFCF9345
:10146000DF93009729F481E090E0DF91CF91089518
:10147000EC0168E30E946A09892BA9F78CE080934C
:1014800061006CE0CE010E946A09892B61F7CE01F0
:101490000E94190A892B39F766E0CE010E946A0979
:1014A00031E020E0892B09F430E0832F922FDDCF4B
:1014B000E6ECF7E08EE3808382E0818380E1828343
:1014C000CF010C942F0AEF92FF920F931F93CF93AB
:1014D000DF93CDB7DEB7A2970FB6F894DEBF0FBE8D
:1014E000CDBFFC0181E090E0309709F46BC08489A6
:1014F00095898130910509F474C0029709F06FC095
:1015000092E58F011F929F9385818F9384818F93A2
:1015100083818F9382818F938BE991E09F938F9347
:101520007E0182E1E80EF11CFF92EF920E94C61F3D
:10153000D8011B96ED91FC911C971F968C911F97DB
:101540001F928F931D968D919C9128EE33E0B901E7
:101550000E94E71E7F936F93CF0164E670E00E94C4
:10156000E71ECB016AE070E00E94E71E9F938F9315
:10157000CF01B9010E94E71E7F936F93F801828526
:101580001F928F938DEA91E09F938F938E010F5F4F
:101590001F4F1F930F930E94C61F970140E060E00A
:1015A00086EC97E00E94000A980140E061E086EC3A
:1015B00097E00E94000A0FB6F894DEBF0FBECDBFC1
:1015C00090E080E0A2960FB6F894DEBF0FBECDBFCC
:1015D000DF91CF911F910F91FF90EF9008959DE2C1
:1015E00090CF96E48ECF0F931F93CF93DF93CDB719
:1015F000DEB761970FB6F894DEBF0FBECDBF182FD0
:10160000092F8091C4079091C50701968F309105ED
:10161000B8F59093C5078093C40725EC31E040E00E
:1016200060E086EC97E00E94000A8091C30788235F
:1016300099F10F931F9386ED91E09F938F938E0105
:101640000F5F1F4F1F930F930E94C61F980140E02A
:1016500061E086EC97E00E94000A0F900F900F90D7
:101660000F900F900F9090E080E061960FB6F89485
:10167000DEBF0FBECDBFDF91CF911F910F910895B7
:101680001092C5071092C40781E09091C307911191
:1016900080E08093C307C1CF80E999E00E94630A8C
:1016A000E2CF8091D0079091D107892B39F08091BA
:1016B000CE079091CF0741E00A9708F440E062E03E
:1016C00081E00C94130241E060E081E00E949A0105
:1016D00041E061E081E00E949A0141E062E081E046
:1016E0000E949A0140E060E081E00E94130240E025
:1016F00061E081E00E94130240E062E081E00E942C
:1017000013021092D1071092D0071092CF071092B7
:10171000CE0790E080E008958130910549F002976E
:10172000A1F040E060E081E00E94130240E013C0BD
:1017300040E061E081E00E94130241E060E081E06E
:101740000E94130290E080E0089540E060E081E0B4
:101750000E94130241E061E0F2CF9093CF078093A3
:10176000CE070E94510B90E080E0089581E090E068
:101770009093D1078093D0070E94510B90E080E0B6
:1017800008951092D1071092D00740E062E081E006
:101790000E94130290E080E0089540E062E081E062
:1017A0000E94130240E060E081E00E94130240E0EA
:1017B00061E081E00E9413021092D1071092D007DD
:1017C0001092CF071092CE070895009741F002972C
:1017D00069F06370E62FF0E0E956FF4F05C06370D3
:1017E000E62FF0E0E556FF4F808108956770E62F01
:1017F000F0E0E157FF4FF8CF1F93CF93DF93EC0159
:10180000162F462F4170698188810E94130211FBB7
:10181000442740F96B818A810E94130212FB4427FE
:1018200040F96D818C810E94130213FB442740F91B
:101830006F818E810E94130281E0111101C080E04E
:101840008D8BDF91CF911F910895CF93DF930097F8
:1018500009F44BC0FC0127853089232B09F445C0CE
:10186000EC0141E0618180810E949A0141E06B813D
:101870008A810E949A0141E06D818C810E949A01C7
:1018800041E06F818E810E949A018C858823A1F0AE
:1018900041E0698588850E949A0141E06B858A85CF
:1018A0000E949A0141E0698588850E94130241E007
:1018B0006B858A850E94130289899A89892B21F474
:1018C00081E090E09A8B898B1C8A1E8A1F8A188E71
:1018D000198E1D8A60E0CE010E94FC0B81E08B8B8B
:1018E00090E080E0DF91CF91089581E090E0FACF21
:1018F000FC01892B61F08389882349F063307105ED
:1019000030F476876587148A90E080E0089581E05E
:1019100090E00895009779F0FC012389222359F083
:101920006115710511F461E070E0FC01728B618B4F
:1019300090E080E0089581E090E00895CF93DF93F8
:10194000EC01892B49F18B89882331F161157105EF
:1019500019F12F85388950E040E08D859E850297EA
:1019600021F4220F331F441F551FDB010E94601F0B
:101970009B01AC0160E67AEE80E090E00E94FB1EE5
:10198000211531054105510539F03A8B298B90E03D
:1019900080E0DF91CF91089581E090E0FACFCF927F
:1019A000DF92EF92FF92CF93DF93EC01AB01892B93
:1019B00009F440C08B898823E9F162307105D0F5C4
:1019C0002D853E8564E02230310509F468E08C897C
:1019D00070E0CE88DF88E88CF98C90E0452BF1F43C
:1019E00001960E94E71E8C8B8FEFC81AD80AE80A6E
:1019F000F80ACE8ADF8AE88EF98E6C89C9010E94C6
:101A0000E50B682FCE010E94FC0B90E080E0DF9197
:101A1000CF91FF90EF90DF90CF900895860F971FA2
:101A200001970E94E71E8C8B81E0C81AD108E1085B
:101A3000F108DFCF81E090E0EACF2F923F924F9202
:101A40005F926F927F928F929F92AF92BF92CF924E
:101A5000DF92EF92FF920F931F93CF93DF9300D00B
:101A600000D0CDB7DEB7009709F458C0FC01238938
:101A7000222309F453C04230510508F04FC07A01C7
:101A80001B018C01D12CC12C80EA482E8FE0582EEE
:101A9000612C712C2C143D04C9F490E080E00F906F
:101AA0000F900F900F90DF91CF911F910F91FF90AA
:101AB000EF90DF90CF90BF90AF909F908F907F90EE
:101AC0006F905F904F903F902F900895B701C8019D
:101AD0000E94CF0CF80181899289009721F42FEFA1
:101AE000C21AD20AD7CF49825A826B827C8249813C
:101AF0005A816B817C814A015B01F1E08F1A910868
:101B0000A108B10889829A82AB82BC82452B462B00
:101B1000472B11F40197E1CF0000E9CF81E090E07D
:101B2000BECF0F931F93CF93DF93EC018A01892BD4
:101B300009F18B898823F1F02F85388950E040E046
:101B40008D859E85029721F4220F331F441F551F58
:101B5000DB010E94601F28E631E040E050E00E9477
:101B6000FB1EB901A801CE01DF91CF911F910F910A
:101B70000C941D0D81E090E0DF91CF911F910F91AA
:101B80000895CF93DF93009701F1FC01238922236D
:101B9000E1F0EC018485882351F041E06185808586
:101BA0000E94130241E06B858A850E9413026C89B2
:101BB0008D859E850E94E50B682FCE010E94FC0B4F
:101BC00090E080E0DF91CF91089581E090E0FACF3E
:101BD000CF93DF930097D9F0FC0123892223B9F03A
:101BE000EC0160E00E94FC0B8C85882351F040E002
:101BF000698588850E94130240E06B858A850E9472
:101C000013021D8A90E080E0DF91CF91089581E07A
:101C100090E0FACF009799F0FC012389222379F014
:101C20006115710561F086899789A08DB18DFB01E1
:101C300080839183A283B38390E080E0089581E064
:101C400090E00895009759F0FC012389222339F090
:101C5000168A178A108E118E90E080E0089581E038
:101C600090E00895FC01892BA1F08389882389F0F5
:101C70006115710571F027853089858596850297F4
:101C800011F4220F331FFB013183208390E080E0A9
:101C9000089581E090E008958091D4079091D50750
:101CA00001969093D5078093D40708951092D50795
:101CB0001092D4071092D3071092D2076CE47EE002
:101CC00090E080E00E94420490E080E00C949B034E
:101CD000F8942091D4073091D5071092D50710922F
:101CE000D40778944CE3429FC001439F900D112488
:101CF0009093D3078093D20708958091D207909153
:101D0000D307089540E065E082E00E949A0140E038
:101D100066E082E00E949A0140E067E082E00E9473
:101D20009A0140E066E083E00E949A0140E064E0AE
:101D300083E00E949A0141E050E065E070E082E0BB
:101D400090E00E94410241E050E066E070E082E0F5
:101D500090E00E94410241E050E067E070E082E0E4
:101D600090E00E94410241E050E066E070E083E0D4
:101D700090E00E94410241E050E064E070E083E0C6
:101D800090E00E94410241E063E081E00E949A01FC
:101D900041E062E082E00E949A0141E063E082E07B
:101DA0000E949A0141E064E082E00E949A0140E0D2
:101DB00063E081E00E94F20140E062E082E00E9484
:101DC000F20140E063E082E00E94F20140E064E062
:101DD00082E00E94F20190E080E00895EF92FF928D
:101DE0000F931F93CF93DF93CDB7DEB72C970FB62A
:101DF000F894DEBF0FBECDBF65E082E00E94150201
:101E0000F82E66E082E00E941502082F67E082E06B
:101E10000E941502182F66E083E00E94150291E0EF
:101E2000F11090E0998791E0011190E09A8791E09C
:101E3000111190E09B8791E0811190E09C8788E0F0
:101E4000EFE9F0E0DE01119601900D928A95E1F73D
:101E50004091E3075091E407BE01675F7F4FE7EDD4
:101E6000EE2EE7E0FE2EEBEDF7E090E080E0DB0108
:101E70002D91BD01D7013D917D012317E1F0108225
:101E80008D0101501109D8012C93019631968430AF
:101E9000910569F75093E4074093E3072C960FB63A
:101EA000F894DEBF0FBECDBFDF91CF911F910F9190
:101EB000FF90EF9008952130D1F430813F5F30835F
:101EC000353018F38C010152184FD8013C91311173
:101ED000DCCF2C939C01220F331F41E050E04C0FCC
:101EE0005D1F240F351FD9014D915C91CECF10821B
:101EF0009C012152384FD9011C92C7CF8091E30732
:101F00009091E4071092E4071092E307089564E0CB
:101F100083E00E94150291E0811190E0892F0895DD
:101F2000662371F08091D6078F5F8A3018F4809312
:101F3000D60708951092D60763E081E00C9425023D
:101F400041E0811101C040E063E081E00C94F201C6
:101F500041E0811101C040E062E082E00C94F201B6
:101F60008130910521F0029749F040E001C041E045
:101F700063E082E00E94F20140E006C040E063E0DE
:101F800082E00E94F20141E064E082E00C94F20100
:101F9000009761F0FC012081222341F081918111A1
:101FA00002C081E0089580538A30C0F380E0089534
:101FB000CF93C82F80913808882319F08C2F0E9466
:101FC0009105E0913608C83011F0CF3781F4EE2347
:101FD00061F1E150E0933608F0E0EA50F84F1082EA
:101FE00080E20E94910588E0CF910C949105CD305C
:101FF00011F0CA3081F48FE192E0EE2349F0F0E075
:10200000EA50F84F108281E0809337088CEC94E01E
:10201000CF910C949305EF3340F481E08E0F8093C1
:102020003608F0E0EA50F84FC083CF9108950E943F
:1020300093058CEC94E00C94930510923608109262
:10204000370881E080933808E6EFF7E080E4DF01AD
:102050001D928A95E9F784EE91E00E94171087E0BF
:1020600092E00C941710CF93DF93EC0184E292E09E
:102070000E949305CE010E9493058CEC94E0DF91C1
:10208000CF910C9493057F928F929F92AF92BF92C3
:10209000CF92DF92EF92FF920F931F93CF93DF9334
:1020A000CDB7DEB7C058D1090FB6F894DEBF0FBE6A
:1020B000CDBF8C01FC0183A074A0C78CB0A0A1A0EF
:1020C00092A00E94D619D82EF801F08CE18C0E94C3
:1020D0002016F801248935892130310509F470C0B2
:1020E0002230310509F46EC02DE27F928F929F92CB
:1020F000AF92BF92CF921F92DF92EF92FF929F9387
:102100008F931F922F93F80187851F928F93868557
:102110008F9385858F9384858F9383858F93828515
:102120001F928F9385818F9384818F9383818F9367
:1021300082818F938CE292E09F938F938E010F5F49
:102140001F4F1F930F930E94C61F0FB6F894DEBF58
:102150000FBECDBF81E020E0F801E80FF11D9081B6
:10216000911132C0F80101900020E9F7CF011F92D0
:102170002F9327E732E03F932F9301979F938F93FD
:102180000E94C61FC8010E9493050F900F900F90E8
:102190000F900F900F90C058DF4F0FB6F894DEBF2E
:1021A0000FBECDBFDF91CF911F910F91FF90EF90A8
:1021B000DF90CF90BF90AF909F908F907F900895C9
:1021C00026E493CF22E591CF29278F5FC5CFCF9308
:1021D000DF93EC018FE792E00E949305CE010E940D
:1021E00093058CEC94E0DF91CF910C94930585E8F6
:1021F00092E00E94171082EA92E00E94171081EC90
:1022000092E00E9417108BEE92E00E94171086E079
:1022100093E00E94171086E393E00E9417108BE56D
:1022200093E00E9417108EE793E00E9417108DE94B
:1022300093E00E94171080EC93E00E94171084EE48
:1022400093E00E94171085E094E00E94171086E248
:1022500094E00E94171084E494E00E94171083E633
:1022600094E00E94171085E894E00E9417108BEA12
:1022700094E00E9417108EEC94E00C941710EF92EB
:10228000FF920F931F93CF93DF93CDB7DEB7C05864
:10229000D1090FB6F894DEBF0FBECDBF80913708CD
:1022A000882379F11092E5076AEC74E086EF97E0F5
:1022B0000E94891FF090E507009719F027E02F157D
:1022C00070F51092370810923608E6EFF7E080E4D8
:1022D000DF011D928A95E9F7FF2079F00091E6076A
:1022E0001091E7076FEC74E0C8010E948E1F892BE4
:1022F00039F580E999E00E94431081E292E00E9462
:102300009305C058DF4F0FB6F894DEBF0FBECDBFA8
:10231000DF91CF911F910F91FF90EF90089521E0F1
:102320002F0D2093E507EF2DF0E0EE0FFF1FEA5190
:10233000F84F918380836AEC74E090E080E0B8CF3E
:1023400066ED74E0C8010E948E1F892B01F5809113
:10235000AA0980FD05C08AED94E00E943310CDCF1C
:102360000E944316882319F083EE94E0F6CF0E9472
:102370004F16882349F08FE596E00E9417108FEEE4
:1023800094E00E94E710B9CF8FEC90E0E6CF6CE0CC
:1023900075E0C8010E948E1F892B71F40E946D1692
:1023A000882339F08FE596E00E9417108CEF94E0B7
:1023B000E8CF88E095E0D1CF6DED70E0C8010E94D4
:1023C0008E1F892B91F48091AA0980FFC4CF0E94AF
:1023D0007C16882339F08FE596E00E94171081E182
:1023E00095E0CFCF89ED90E0B8CF6FED76E0C801F2
:1023F0000E948E1F892B09F055C0B1E0BF1510F562
:1024000061E476E08091E8079091E9070E948E1FD1
:10241000892BC1F4809195098F93809194098F93B2
:10242000809193098F93809192098F9380E295E038
:102430009F938F938E010F5F1F4F1F930F930E94E7
:10244000C61FB5C08091AA0980FF85CF91E09F1576
:1024500018F08CE295E081CF0091E8071091E90730
:10246000C8010E94C80F811103C085E395E075CFB4
:10247000C8010E946B1F97FDF8CF2091CB093091C6
:10248000CC092817390788F3909391098093900914
:10249000BC0189EB99E00E94191A8FE596E00E9431
:1024A00017102BCF6FE375E0C8010E948E1F892B98
:1024B00029F58091A4099091A50981309105D1F069
:1024C0000297D1F482E51F928F9384E495E09F9365
:1024D0008F938E010F5F1F4F1F930F930E94C61F94
:1024E000C8010E9417100F900F900F900F900F903F
:1024F0000F9003CF86E4E7CF8DE2E5CF6BE475E084
:10250000C8010E948E1F892B09F05AC08091E109F1
:102510008F938091E0098F938091DF098F93809151
:10252000DE098F938091DD091F928F938091DC09E2
:102530008F938091DB098F938091DA098F9380913B
:10254000D9098F938091D8098F938091D7098F9360
:102550008091D6098F938091D5098F938091D4096A
:102560008F938091D3098F938091D2098F9380911B
:10257000D1098F938091D0098F938091CF098F9348
:102580008091CE098F938091CD098F938091CC0952
:102590008F938091CB098F9380E595E09F938F93E4
:1025A0008E010F5F1F4F1F930F930E94C61FC8011C
:1025B0000E9417100FB6F894DEBF0FBECDBF9DCEA0
:1025C00068E775E0C8010E948E1F892B09F0F2C0F0
:1025D000B2E0BF1508F03DCF0091EA071091EB077C
:1025E000C8010E94C80F882309F43FCFE090E80794
:1025F000F090E907C8010E946B1F8C016CE775E041
:10260000C7010E948E1F892B61F4C801845F91402D
:102610008D37954108F029CF1093CC090093CB0951
:102620003CCF63E875E0C7010E948E1F892B59F4E7
:10263000C801C297873B934008F017CF1093CE098B
:102640000093CD092ACF6AE875E0C7010E948E1F6A
:10265000892BA9F4C8018456910985359B4008F05F
:1026600004CF1093D0090093CF094091D109509124
:10267000D209B80189EB99E00E94311A0ECF60E9C6
:1026800075E0C7010E948E1F892B89F4C80184560A
:10269000910985359B4008F0E8CE1093D20900934C
:1026A000D1096091CF097091D009A801E3CF66E903
:1026B00075E0C7010E948E1F892B91F4C801885CC8
:1026C00091098930974008F0D0CE1093D409009337
:1026D000D309B801110F880B990B0E94CE17DDCEDC
:1026E0006FE975E0C7010E948E1F892B99F40130B4
:1026F000B0E11B0708F0B9CE1093D6090093D509B5
:102700004091D7095091D809B8018FE799E00E940C
:102710006918C3CE62EA75E0C7010E948E1F892B3B
:1027200079F4013022E0120708F09FCE1093D80907
:102730000093D7096091D5097091D609A801E5CF1A
:1027400065EA75E0C7010E948E1F892B61F4C801FC
:10275000885E9340813B964308F087CE1093DA0958
:102760000093D9099ACE6BEA75E0C7010E948E1FCB
:10277000892B69F48091D9099091DA098017910722
:1027800008F073CE1093DC090093DB0986CE61EB71
:1027900075E0C7010E948E1F892B49F4C801CC97B0
:1027A0008135910508F061CE0093DD0976CE8AEB84
:1027B00095E0D3CD6CEE76E0C8010E948E1F892B88
:1027C00091F40E94A016882339F08FE596E00E94CC
:1027D000171084EC95E0D5CD81EE90E00E94331087
:1027E0008BEC95E0CECD6EED75E0C8010E948E1F9A
:1027F000892B91F40E94CC198C01892B19F40E9429
:10280000D1198C01C8010E94F1199F938F931F93D6
:102810000F9384EE95E00CCE6FEE75E0C8010E9438
:102820008E1F892B59F486EF95E00E94171087E0E0
:1028300096E00E94171082E196E031CE6EE176E0DC
:10284000C8010E948E1F892B91F56091AF0970918C
:10285000B0098091B1099091B2092091B4092F93E8
:102860002091B3092F9320E13EE040E050E00E9428
:10287000FB1E122F032FF42EE52E2CE330E040E058
:1028800050E00E94FB1E5F934F933F932F93EF9274
:10289000FF920F931F9385E296E09F938F938E0193
:1028A0000F5F1F4F1F930F930E94C61F80CE6DE3D3
:1028B00076E0C8010E948E1F892BF9F48FE799E01A
:1028C0000E947518182F092F8FE799E00E946F1842
:1028D0000F931F939F938F937F936F938091D8094A
:1028E0008F938091D7098F938091D6098F93809190
:1028F000D5098F9383E496E0D0CF65E576E0C801F3
:102900000E948E1F892B39F48FE596E00E941710E4
:102910008AE596E036CD62E676E0C8010E948E1F19
:10292000892B19F40E94F710E8CC87E696E015CDC4
:1029300080913708089586EF97E008951092370840
:1029400010923608E6EFF7E080E4DF011D928A95E9
:10295000E9F7089581E0809362000E948F036093FD
:10296000390870933A0880933B0890933C08089587
:10297000CF92DF92EF92FF92CF93DF93209162008C
:10298000222329F1EC010E948F036B017C018091CD
:10299000390890913A08A0913B08B0913C08A701F2
:1029A0009601281B390B4A0B5B0BDA01C901883EE3
:1029B0009340A105B10558F0CE010E944310C0928A
:1029C0003908D0923A08E0923B08F0923C08DF9137
:1029D000CF91FF90EF90DF90CF9008950C9443102B
:1029E000CF92DF92EF92FF920F931F93CF93DF93DB
:1029F000CDB7DEB7C054D1090FB6F894DEBF0FBE15
:102A0000CDBF6C018B010E94D619E82EF801F3842A
:102A10001485C6010E94F1191F92EF921F93FF9235
:102A20009F938F938FE696E09F938F938E010F5F16
:102A30001F4F1F930F930E94C61FC8010E94E710EB
:102A40000FB6F894DEBF0FBECDBFC05CDF4F0FB630
:102A5000F894DEBF0FBECDBFDF91CF911F910F91D4
:102A6000FF90EF90DF90CF900895809362000895DB
:102A7000809162000895CF93DF93EC0120913D088F
:102A800030913E082330310521F58091AF099091B6
:102A9000B009A091B109B091B2094091AB09509130
:102AA000AC096091AD097091AE09840F951FA61F06
:102AB000B71F8093AF099093B009A093B109B09369
:102AC000B2091092AB091092AC091092AD091092A4
:102AD000AE093093400820933F08D0933E08C0933E
:102AE0003D0810924A0810924B0810924C08109220
:102AF0004D08C430D10509F455C048F5C130D105A1
:102B0000C1F1C230D10509F046C0809143089091CF
:102B100044089093A5098093A4098FE799E00E9447
:102B20005F1889EB99E00E94991A8091B3099091FE
:102B3000B40901969093B4098093B3091092520896
:102B400010925308109254081092550824C0C530B2
:102B5000D10521F0CE0107970397E8F41092A5095B
:102B60001092A409109299091092980910929A094A
:102B700012C01092A5091092A409109299091092FE
:102B8000980910929A098FE799E00E945F1889EBE3
:102B900099E00E94991AD093A709C093A609DF91E2
:102BA000CF91089570E060E089EB99E00E94191AD6
:102BB000F2CF80913D0890913E088530910550F408
:102BC000029768F080914308909144080E948C0B12
:102BD0000C94B60B8530910511F0079731F490E015
:102BE00080E00E948C0B0C94C10B0C94CD0BEDE398
:102BF000F8E01182108213821282178216821186E7
:102C00001086128613861486158616861786108AF5
:102C100084EF91E0A0E0B0E0818B928BA38BB48B2A
:102C2000158A168A178A108E118E128E138E148EA4
:102C300081E0858F089580913D0890913E08089528
:102C400080913D0890913E088A30910540F4880FAC
:102C5000991FFC01E955FF4F80819181089583E818
:102C600096E008958091430890914408089520913A
:102C70003D0830913E082250310981E02230310573
:102C800008F080E0089520913D0830913E082850DA
:102C9000310981E02230310508F080E0089580910B
:102CA0003D0890913E0881309105A9F4409190092A
:102CB000509191092091CD093091CE0942175307C7
:102CC00050F0909344088093430882E090E00E9483
:102CD0003B1581E0089580E0089580913D08909132
:102CE0003E080297029730F484E090E00E943B1582
:102CF00081E0089580E0089580913D0890913E081C
:102D00000397E1F480914708811118C0809143082E
:102D100090914408019779F482E090E090934608FE
:102D20008093450881E08093470884E090E00E940A
:102D30003B1581E0089581E090E0F0CF80E00895B8
:102D400080913D0890913E088830910571F40E9471
:102D5000CC19892B11F080E008951092480881E089
:102D600090E00E943B1581E008950997A1F78091BA
:102D7000AA0981FDF0CFF3CF80913D0890913E08E4
:102D8000099749F081E08093490889E090E00E942A
:102D90003B1581E0089580E0089580915A088111E3
:102DA00002C00C94F71580914A0890914B08A091AD
:102DB0004C08B0914D080A96A11DB11D80934A0898
:102DC00090934B08A0934C08B0934D08E0913D08B8
:102DD000F0913E082091AA0921FFBAC0399711F05D
:102DE0000E94BC160C94D9158091EB099091EC09C6
:102DF000892B29F481E090E00E943B15F3CF88E015
:102E000090E0FACF109299091092980910929A09BD
:102E1000E9CF89EB99E00E94961A882361F18091AD
:102E20009409909195092091920930919309821B00
:102E3000930B8C599F4F893C9105E8F4809152087F
:102E400090915308A0915408B09155080196A11D86
:102E5000B11D8093520890935308A0935408B093E7
:102E6000550884369105A105B10508F4BBCF83E070
:102E700090E00E943B151092520810925308109255
:102E8000540810925508AECF2091900930919109C5
:102E90008091CD099091CE092817390708F0A2CF6B
:102EA0000E946D169FCF80919409909195091816F4
:102EB000190604F18091560890915708A09158087E
:102EC000B09159080196A11DB11D809356089093A9
:102ED0005708A0935808B09359080397A105B10566
:102EE00008F480CF80914708882369F085E090E05E
:102EF0000E943B15109256081092570810925808DD
:102F0000109259086FCF87E090E0F2CF40914E08C1
:102F100050914F086091500870915108841795079F
:102F2000A607B70708F45ECF809145089091460840
:102F300090934408809343081092470882E090E001
:102F40005BCF843F9140A105B10508F44BCF52CF30
:102F5000E830F10508F046CFE055F84E0C943C1FE0
:102F6000F41602170917441753178617F216A117FC
:102F700020913D0830913E082830310569F021E06C
:102F8000209348089093A9098093A80988E090E0CD
:102F90000E943B1581E0089580E0089560934E08FB
:102FA00070934F0880935008909351080895609152
:102FB0004A0870914B0880914C0890914D080895F3
:102FC000FC017183608353834283148215821682CD
:102FD0001782118610868FE891E093878287158685
:102FE00014861786168681E0808B0895FC01718710
:102FF0006087538742870895CF92DF92EF92FF92C6
:103000000F931F93FC01CB01841B950BAC01A28194
:10301000B3819C010E94421F048115812681378162
:103020006B017C01C00ED11EE21EF31EA081B18196
:103030009A010E94421F072F182F292F332727FD9F
:103040003A95BB27F7FCBA95AF2D9E2D8D2D080F15
:10305000191F2A1F3B1F82859385092E000CAA0B7E
:10306000BB0B80179107A207B30754F457FF16C094
:103070002089222399F0C482D582E682F7820EC08D
:1030800080859185092E000CAA0BBB0B0817190728
:103090002A073B0774F41416150654F35587448722
:1030A000978786871F910F91FF90EF90DF90CF90C9
:1030B0000895C482D582E682F782C801EFCFFC0171
:1030C0001482158216821782158614861786168634
:1030D0000895FC0171836083538342830895FC014A
:1030E00064817581868197810895FC018485958529
:1030F0000895EBE5F8E011821082138212821482A7
:103100001582168217821086118680E89EEE9387BC
:1031100082871486158616861786108A118A089566
:103120000F931F93FC01DB01828D81FD93C02385EA
:10313000348553968D919C9154972817390708F040
:1031400093C0409165085091660870E060E000917E
:103150006108109162082091630830916408041797
:1031600015072607370708F082C0978555968C917A
:103170005597981708F45CC0809167088F5F80931B
:103180006708843108F076C02585368556968D917E
:103190009C9157972817390708F04DC0809168080F
:1031A0008F5F80936808853008F067C058968D91CE
:1031B0009C918217930708F041C0809169088F5F46
:1031C00080936908823008F05BC042852481358194
:1031D0004333B8F124363105A4F580916A088F5F36
:1031E00080936A088E3108F04EC0808191818C50A6
:1031F0009E4F8217930744F580916B088F5F8093F1
:103200006B088A3008F042C0453108F1232BF9F4ED
:1032100080916C088F5F80936C088431D0F5109298
:103220005C0810925B0890E080E01F910F91089578
:1032300010926708A9CF10926808B8CF1092690859
:10324000C4CF10926A08D1CF10926B08DDCF1092D4
:103250006C08E5CF81E090E090935C0880935B0878
:1032600021E020935F08E1CF82E090E0F5CF83E09A
:1032700090E0F2CF84E090E0EFCF85E090E0ECCFFB
:1032800086E090E0E9CF87E090E0E6CF88E090E04C
:10329000E3CF89E090E0E0CF8F929F92AF92BF9210
:1032A000CF92DF92EF92FF92B0E0A0E06C017D013F
:1032B000C61AD70AE108F108A7019601C701B601AD
:1032C0000E94D71E8090610890906208A0906308C9
:1032D000B09064081C141D041E041F04DCF428EEC6
:1032E00033E040E050E00E941D1F820E931EA41E9A
:1032F000B51E8092610890926208A0926308B09215
:103300006408FF90EF90DF90CF90BF90AF909F90B8
:103310008F90089520EA3FE040E050E00E941D1F9A
:10332000281539054A055B0528F4821A930AA40A70
:10333000B50ADFCF109261081092620810926308FC
:1033400010926408DECFEBE5F8E01482118210825F
:103350001486158616861786108A118A089520917C
:103360005D0830915E082817390741F410925E0815
:1033700010925D08109260080C94A3190895809132
:103380005F08811107C081E090916008911103C02E
:1033900080E0089581E0089580915B0890915C0839
:1033A000089580915D0890915E080895E091650808
:1033B000F0916608309799F0209161083091620889
:1033C0004091630850916408A4E6B0E00E94601F39
:1033D0009F0150E040E00E94FB1E822F089580E094
:1033E00008958A30910540F4880F991FFC01E55437
:1033F000FF4F80819181089581EB96E00895FC0153
:1034000011821082138212821582148288E592E062
:103410009783868384E893E09187808788EC90E0A7
:103420009387828788EB9BE09587848781E08687F6
:103430000895FC019485858522853385621773077D
:1034400034F0292F382F621773070CF49B01318356
:10345000208316860895FC01738762875587448709
:103460000895FC01778366835187408708950F9301
:103470001F93CF93DF93FC01C081D181028113811F
:103480009E01201B310B121613068CF546815781C5
:1034900064E6649FC001659F900D112468EE73E09F
:1034A0000E94E71E621773070CF49B01200F311F67
:1034B0003383228354854585828593852281338198
:1034C0002817390734F0852F942F281739070CF463
:1034D000C9019383828395838483C817D90711F424
:1034E00021E02687DF91CF911F910F91089521153B
:1034F000310501F34085518564E6649FC001659FF5
:10350000900D112468EE73E00E94E71E319521951D
:103510003109621773070CF49B01021B130B138311
:103520000283C8CFFC01848195810895FC018685C2
:103530000895FC0113821282158214821686089562
:10354000FC012081318182819381281B390B121665
:10355000130694F4668177816115710559F048EE80
:1035600053E0249FC001259F900D349F900D11249E
:103570000E94E71ECB01089570E060E0211531053F
:10358000C9F360857185319521953109E5CFFC013D
:103590009093740880937308709372086093710815
:1035A000118210821382128215821482178216826F
:1035B000118610861286148613861686158617863F
:1035C000108A118A128A138A158A148A178A168A0F
:1035D000118E108E828D8C7F8B7F828F138E148E36
:1035E000158E168E178E10A211A212A214A213A26B
:1035F00015A216A217A210A60895809173089091A3
:103600007408089580917108909172080895E0916E
:103610007308F09174089583848374876387568751
:10362000458727870895E0917108F09172085381CA
:103630004481E0917308F091740830E020E097FD38
:1036400006C0252F342F821793070CF49C01318379
:1036500020830895E0917308F0917408803921E087
:10366000920714F08FE891E097FF02C090E080E0AD
:103670009187808744E6489F9001499F300D11242F
:10368000C9016FE871E00E94E71E62870895E0912A
:103690007308F09174088281938124813581821BA3
:1036A000930B978386830895E0917308F0917408D3
:1036B000838D948DA58DB68D0196A11DB11D838F2F
:1036C000948FA58FB68F878D90A1A1A1B2A10196ED
:1036D000A11DB11D878F90A3A1A3B2A308958091CE
:1036E0006D0890916E08A0916F08B09170080196D6
:1036F000A11DB11D8C3221E09207A105B10548F44E
:1037000080936D0890936E08A0936F08B093700833
:10371000089510926D0810926E0810926F08109222
:103720007008A0917308B0917408E0917108F0914D
:1037300072085F964D915D916D917C919297448F47
:10374000558F668F778F93968D919C9191A380A3CF
:10375000089590E080E0089590E080E0089581E091
:1037600090E00895089590E080E0089590E080E072
:103770000895E3E8F8E01182108213821282158224
:10378000148217821682108611861286138614867A
:10379000158616861786118A108A108E799689E00A
:1037A000ED37F80741F71092820810927E081092C8
:1037B0007F08109280081092810810927A08109267
:1037C0007B0810927C0810927D080E948F03609302
:1037D0007608709377088093780890937908109210
:1037E000750808954F925F926F927F92AF92BF9249
:1037F000CF92DF92EF92FF920F931F93CF93DF93BD
:103800000E948F036B017C01B12C89E1A82E80916D
:103810008208B81608F464C0809176089091770801
:10382000A0917808B0917908A7019601281B390B5F
:103830004A0B5B0BDA01C901883E9340A105B10533
:1038400008F43FC020917A0830917B0840917C08B1
:1038500050917D0840907E0850907F0860908008CD
:1038600070908108420E531E641E751E411451044F
:103870006104710471F0A4E6B0E00E94601FA3012E
:1038800092010E94FB1E80917508821710F420930C
:10389000750810927A0810927B0810927C0810929A
:1038A0007D0810927E0810927F0810928008109276
:1038B0008108C0927608D0927708E0927808F0925A
:1038C0007908DF91CF911F910F91FF90EF90DF90DA
:1038D000CF90BF90AF907F906F905F904F90089582
:1038E0000B2D10E0A09EE001A19ED00D1124CD571C
:1038F000D74F888D882309F477C088819981892BD7
:1039000009F472C08C859D85AE85BF85C816D90621
:10391000EA06FB0608F468C00E948F032B013C01F5
:103920004C8A5D8A6E8A7F8AE881F98109950E94B6
:103930008F03DC01CB0184199509A609B7094A88D0
:103940005B88712C612C481659066A067B0610F4B8
:103950009B8B8A8B40907A0850907B0860907C0803
:1039600070907D08480E591E6A1E7B1E40927A0890
:1039700050927B0860927C0870927D08A09EF001B6
:10398000A19EF00D1124ED57F74F248135818085DC
:103990009185A285B385B701A601481B590B6A0B17
:1039A0007B0BC9010596B0E0A0E084179507A60738
:1039B000B70728F4808991890196918B808BA09E0E
:1039C000F001A19EF00D1124ED57F74FC086D1866E
:1039D000E286F386D701C601820F931FA11DB11D98
:1039E00084879587A687B787B39411CFDC01909120
:1039F00082089A3028F5109719F189E1989FF00113
:103A00001124ED57F74FB183A083738362835583ED
:103A10004483378326831086118612861386A90174
:103A200070E060E04487558766877787118A108A3F
:103A3000138A128A81E0808F9F5F90938208089595
:103A400080E0089590918208891748F499E1899F50
:103A5000F0011124ED57F74F80899189089590E086
:103A600080E00895CF92DF92EF92FF920E948F0341
:103A7000C0907608D0907708E0907808F0907908A8
:103A80006C197D098E099F09683E73408105910577
:103A900010F00E94F21B20917A0830917B0840912F
:103AA0007C0850917D08C0907E08D0907F08E090FF
:103AB0008008F0908108C20ED31EE41EF51E80E03F
:103AC000C114D104E104F10449F0A4E6B0E00E947D
:103AD000601FA70196010E94FB1E822FFF90EF90AE
:103AE000DF90CF9008958091750808950895CF9341
:103AF000DF93CDB7DEB768970FB6F894DEBF0FBE81
:103B0000CDBFF8948AE0E3E6F0E0DE011196019083
:103B10000D928A95E1F7CE0101960E9477048CEE12
:103B200090E00E94200588E091E00E9420050E941C
:103B3000630BFF24F394FF8A87E0888FCE014796BA
:103B40000E9448020E949F020E941E030E9462037C
:103B500080916D0090916E00A0916F00B091700007
:103B60008B8B9C8BAD8BBE8B188A1F8603E010E07D
:103B70001A8B098BCE0143960E941604CE010F9634
:103B80000E94160480EA96E8A1E0B0E08B879C874B
:103B9000AD87BE87CE010B960E949F0589E191E01B
:103BA0000E9420050E94580A0E94560E0E94F005AD
:103BB0000E94820E0E947E068AE291E00E94200509
:103BC00084E49DE49093C9098093C809F092CA09DE
:103BD00088EB9BE09093CC098093CB0988EC90E034
:103BE0009093CE098093CD0988E592E09093D00917
:103BF0008093CF0984E893E09093D2098093D10910
:103C000084EF91E09093D4098093D30980E891E008
:103C10009093D6098093D5098AE190E09093D809D2
:103C20008093D70980E49FE19093DA098093D909C2
:103C300080E596E49093DC098093DB098EE680931F
:103C4000DD0980E29EE49093DF098093DE0988ED30
:103C500096ED9093E1098093E0091093E3090093B6
:103C6000E2091092E4091092E5091092E609109217
:103C7000E7091092E9091092E8091092EA091092F6
:103C8000EC091092EB091092ED0968EC79E080E9FB
:103C900099E00E94C71A4091D7095091D8096091C4
:103CA000D5097091D6098FE799E00E94E0174FE897
:103CB00051E068E270E08FE799E00E94F61789EB27
:103CC00099E00E94FF194091CB095091CC09609175
:103CD000CD097091CE0989EB99E00E942B1A409191
:103CE000D1095091D2096091CF097091D00989EB27
:103CF00099E00E94311A0E9479180E94F71560918C
:103D0000D3097091D40990E080E00E94CE170E9400
:103D10001D100E94AA140E94B91B30E020E04AE066
:103D200050E06AE371E089E490E00E94F61C21E033
:103D300030E042E350E060E471E080EC90E00E940B
:103D4000F61C22E030E044E650E068E471E085EEE5
:103D500090E00E94F61C24E030E04AEF50E060E57D
:103D600071E083E591E00E94F61C23E030E044EF2F
:103D700051E064E571E08DE990E00E94F61C25E0D9
:103D800030E048EE53E060E671E08BEA90E00E949C
:103D9000F61C8AE691E00E94200578940E94F21BAE
:103DA0000E9498148823D1F30E943F11F7CFDB01C2
:103DB0008F939F930E94601FBF91AF91A29F800D30
:103DC000911DA39F900DB29F900D11240895AA1BE1
:103DD000BB1B51E107C0AA1FBB1FA617B70710F0F6
:103DE000A61BB70B881F991F5A95A9F78095909528
:103DF000BC01CD010895A1E21A2EAA1BBB1BFD0137
:103E00000DC0AA1FBB1FEE1FFF1FA217B307E407B9
:103E1000F50720F0A21BB30BE40BF50B661F771F11
:103E2000881F991F1A9469F76095709580959095F1
:103E30009B01AC01BD01CF010895052E97FB1EF437
:103E400000940E94341F57FD07D00E94FB1E07FC00
:103E500003D04EF40C94341F509540953095219525
:103E60003F4F4F4F5F4F08959095809570956195A6
:103E70007F4F8F4F9F4F0895EE0FFF1F0590F491D6
:103E8000E02D09940E944A1F332312F48A1B9B0BD6
:103E90000C945B1FA29FB001B39FC001A39F700D44
:103EA000811D1124911DB29F700D811D1124911D42
:103EB00008950E944A1FB7FF0895821B930B08952F
:103EC0000E944A1FA59F900DB49F900DA49F800D46
:103ED000911D11240895FC0188279927E8942191C8
:103EE0002032E9F3293010F02E30C8F32B3241F0A4
:103EF0002D3239F4689404C00E94BE1F820F911DB8
:103F0000219120532A30C0F31EF4909581959F4F44
:103F100008954DE759E00E94971F0895FB01DC01C9
:103F20008D91019080190110D9F3990B0895FA0130
:103F3000A191B081009719F41097E1F0CD01DC0157
:103F4000CD010D90002011F4C00113C0FB0121919F
:103F5000222319F02015D9F7F3CFFB012191201569
:103F600019F41E92119606C02223C1F70D9000206D
:103F7000A1F7D001FA01A193B08308957AE0979F49
:103F8000902D879F802D910D11240895AEE0B0E013
:103F9000ECECFFE10C9475220D891E8986E08C8380
:103FA0001A8309838FEF9FE79E838D83AE01475E5F
:103FB0005F4F6F89788DCE0101960E94E91F2F8196
:103FC0003885020F131FF80110822E96E4E00C943E
:103FD0009122ABE0B0E0EFEEFFE10C9467227C01B0
:103FE0003B018A01FC0117821682838181FFC8C1CF
:103FF000CE0101965C01F7019381F30193FD859158
:1040000093FF81913F01882309F453C1853239F42C
:1040100093FD859193FF81913F01853229F4B7018A
:1040200090E00E94D921E7CF912C212C312CFFE187
:10403000F31538F08B3211F190F4803209F18332AC
:1040400029F137FC3CC020ED280F2A3050F536FE10
:1040500020C08AE0989E200D1124922E06C08D3239
:1040600091F0803371F7689430F8F30193FD8591F6
:1040700093FF81913F018111DACF21C0689431F81B
:10408000689432F8F2CF689433F8EFCF689434F83C
:10409000ECCFEAE02E9E200D1124222E689435F8F4
:1040A000E4CF8E3229F436FC04C1689436F8DDCFB3
:1040B0008C3619F4689437F8D8CF8836B1F2982F37
:1040C0009F7D95549330E0F08336A1F18337C1F1A1
:1040D000833509F063C02801F2E04F0E511CF8014E
:1040E000C080D180692D70E036FC02C06FEF7FEF99
:1040F000C6010E94C3214C01689437F882010AC0AE
:104100000C5F1F4FFFE3F98388248394912C650192
:10411000E89437F833FE2DC0522C8114910471F5C8
:10412000552009F468CFB70180E290E00E94D921C0
:104130005A94F6CFF801808189830E5F1F4FE4CF38
:104140002801F2E04F0E511CF801C080D180692D8A
:1041500070E036FC02C06FEF7FEFC6010E94CE21F7
:104160004C018201D5CFB70180E290E00E94D921B5
:104170002A942814190409F0B0F7CECFF60137FCC1
:10418000859137FE81916F01B70190E00E94D9219E
:1041900051105A94F1E08F1A9108BFCF843619F06C
:1041A000893609F077C0F80137FE6BC060817181F4
:1041B000828193810C5F1F4FF32DFF763F2E97FF77
:1041C00009C090958095709561957F4F8F4F9F4F57
:1041D000689437F82AE030E0A5010E940922C82E31
:1041E000CA188C2C432C36FE0CC0E89440F8C91435
:1041F00040F434FE05C032FC03C0F32DFE7E4F2E8A
:10420000892C44FE95C0FE01EC0DF11D80818033A8
:1042100009F087C0242D297E422E842D8870582EC7
:1042200043FC95C040FE8FC09C2C821418F42C0CCB
:10423000922C981844FE91C0B70180E390E00E9450
:10424000D92142FE09C088E790E041FE02C088E51E
:1042500090E0B7010E94D921C91408F48AC0CA9419
:10426000D12C9FEFC91AD90ACA0CDB1CF601829126
:104270006F01B70190E00E94D921AC14BD04B1F7E1
:104280004FCF60817181072E000C880B990B0E5F58
:104290001F4F92CFD32CE894D4F82AE030E0853732
:1042A00039F1232D297FD22E8F3601F148F488353C
:1042B000A9F0F701868197812B96E2E10C94832285
:1042C000803749F08837A9F7D4FE02C06894D2F845
:1042D00020E130E00DC06894D4F8F6CF34FE03C07E
:1042E000822F8660D82E20E132E002C028E030E044
:1042F000F801D7FE0FC060817181828193810C5FCC
:104300001F4FA5010E940922C82ECA183D2CE8940F
:1043100037F867CF6081718190E080E00E5F1F4FBA
:10432000F0CF42FC02C0839478CF8394839475CFFE
:10433000842D867809F471CFF6CFB70180E290E042
:104340000E94D92183948214C0F3512C73CF522C34
:104350005818821408F46ECFF8CF842D867809F4AB
:104360007BCF8BE241FE80E247FC8DE2B70190E01B
:1043700071CFB70180E390E00E94D9219A946CCF6D
:104380008FEF9FEF99CFFC010590615070400110B5
:10439000D8F7809590958E0F9F1F0895FC0161506E
:1043A000704001900110D8F7809590958E0F9F1F57
:1043B00008950F931F93CF93DF93182F092FEB01CD
:1043C0008B8181FD09C01FEF0FEF812F902FDF91AF
:1043D000CF911F910F91089582FF14C02E813F81CC
:1043E0008C819D81281739073CF4E881F981CF0140
:1043F00001969983888310838E819F8101969F8384
:104400008E83E3CFE885F985812F0995892BA1F368
:10441000DACFFA01AA27283051F1203181F1E8944E
:104420006F936E7F6E5F7F4F8F4F9F4FAF4FB1E0A7
:104430003ED0B4E03CD0670F781F891F9A1FA11DA2
:10444000680F791F8A1F911DA11D6A0F711D811DA3
:10445000911DA11D20D009F468943F912AE0269F68
:1044600011243019305D3193DEF6CF010895462FC7
:104470004770405D4193B3E00FD0C9F7F6CF462FA8
:104480004F70405D4A3318F0495D31FD4052419311
:1044900002D0A9F7EACFB4E0A695979587957795CE
:1044A0006795BA95C9F700976105710508959B0155
:1044B000AC010A2E06945795479537952795BA95DE
:1044C000C9F7620F731F841F951FA01D08952F92B7
:1044D0003F924F925F926F927F928F929F92AF9294
:1044E000BF92CF92DF92EF92FF920F931F93CF93E1
:1044F000DF93CDB7DEB7CA1BDB0B0FB6F894DEBF78
:104500000FBECDBF09942A88398848885F846E849D
:104510007D848C849B84AA84B984C884DF80EE80E7
:10452000FD800C811B81AA81B981CE0FD11D0FB6F0
:10453000F894DEBF0FBECDBFED010895F894FFCF14
:10454000010C0180250000030000000000010003B1
:104550000039003600330030003B003800350032AF
:10456000003A003700340031000001010100010170
:10457000030206040C080903060C090102040801E1
:104580000002000300040088060C058D06D6049284
:104590000697069C06A006A606AB060D06AB06AB64
:1045A00005B906B105C206CC06D506DB06E506450B
:1045B00052522053544152540045525220524556B3
:1045C0000045525220414354495645000D0A2D2DB5
:1045D0002D2053595354454D205354415254494E64
:1045E00047202D2D2D0D0A00424F4F54313A2055B2
:1045F000415254204F4B0D0A00424F4F54323A2043
:104600004D43414C204F4B0D0A00424F4F54333A1B
:104610002048414C204F4B0D0A0050616E656C00E4
:1046200043757272656E7400436F6E74726F6C00C6
:104630004C434400536C6F7753656E736F72730015
:1046400054656C656D6574727900424F4F54343A0D
:10465000205343484544554C455220524541445906
:104660002C20454E41424C494E4720494E5445521C
:1046700052555054532E2E2E0D0A00534554252DBD
:10468000346420414354252D34642563002533646C
:104690002525202532642E256441202532645620AC
:1046A0002533644300212120545249505045442071
:1046B000212120202000215452495020434F4445BD
:1046C0003D2564000D0A496E647573747269616CEE
:1046D000204D6F746F7220436F6E74726F6C6C65D7
:1046E000722076312E30000D0A54797065204845CD
:1046F0004C5020666F7220636F6D6D616E64730D38
:104700000A3E20004552524F523A2000244D442C7C
:1047100053503D25642C52503D25642C443D256466
:104720002C493D25642C563D25642C543D25642C94
:104730004449523D25632C53543D25732C54523D1E
:1047400025642C4932543D25642C52483D256C7516
:104750002C53433D2564002A253032580D0A002190
:104760004556542C000D0A3D3D3D20417661696C53
:1047700061626C6520436F6D6D616E6473203D3DB9
:104780003D00535441545553202020202020202008
:104790002D2053686F772074656C656D6574727930
:1047A0000052554E20202020202020202020202D87
:1047B000205374617274206D6F746F72202872655B
:1047C0006D6F7465206F6E6C79290053544F5020C3
:1047D0002020202020202020202D2053746F7020A6
:1047E0006D6F746F720052455620202020202020CB
:1047F000202020202D205265766572736520646923
:1048000072656374696F6E202872656D6F746520C0
:104810006F6E6C7929005350454544203C6E3E2014
:10482000202020202D20536574207370656564203E
:1048300028302D6D617852706D29005350454544E4
:104840003F20202020202020202D2053686F77201B
:1048500063757272656E7420737065656400444997
:10486000523F202020202020202020202D2053686F
:104870006F7720646972656374696F6E00434647A1
:104880003F202020202020202020202D2053686F32
:104890007720636F6E66696775726174696F6E0009
:1048A000534554203C706172616D3E203C76616CD2
:1048B00075653E202D2053657420706172616D65B1
:1048C0007465720041434B202020202020202020AE
:1048D00020202D2041636B6E6F776C6564676520C7
:1048E0007472697000545249503F202020202020CB
:1048F0002020202D2053686F7720616374697665CE
:1049000020747269700054524950533F2020202077
:10491000202020202D2053686F772074726970202A
:104920006C6F6700484F5552533F202020202020B5
:1049300020202D2053686F772072756E20686F7568
:1049400072730054554E453F202020202020202007
:10495000202D2053686F7720504920696E7465724E
:104960006E616C730053415645202020202020208A
:104970002020202D205361766520636F6E66696765
:1049800020746F20454550524F4D0048454C5020F3
:104990002020202020202020202D2053686F7720E9
:1049A00074686973206D656E750020090D0A0053E7
:1049B00054415455530052554E00455252204D4FCC
:1049C00044450045525220545249505045440053EA
:1049D000544152542C52454D4F54450053544F505E
:1049E0002C52454D4F5445004552522053544F5080
:1049F00000524556455253452C52454D4F544500A3
:104A000053504545443D25642C25640045525220B1
:104A100041524753004552522052414E47450044AF
:104A200049523F004449523D2563004346473F00F9
:104A30004346473D25642C25642C25642C25642C95
:104A400025642C25642C25642C25642C25642C25B8
:104A5000642C25642C256400534554004D41585264
:104A6000504D004D494E52504D00414343454C007E
:104A7000444543454C004445414454494D45004B51
:104A800050004B490052415445440053484F525442
:104A9000004F56455254454D50004552522050410A
:104AA00052414D0041434B2C4F4B0041434B2C5244
:104AB0004546555345442C414354495645005452AC
:104AC00049503F00545249503D25642C25730054F1
:104AD000524950533F003D3D3D2054726970204C77
:104AE0006F67203D3D3D005452502C302C4E4F4EB0
:104AF00045003D3D3D20456E64203D3D3D00484F15
:104B00005552533F00484F5552533D2530326C7536
:104B10003A2530326C752C53433D25640054554E74
:104B2000453F0054554E453D25642C25642C256C8D
:104B3000642C2564005341564500534156452C4F83
:104B40004B0048454C500045525220434D440054C0
:104B50005249502C25732C493D25642C4932543D33
:104B6000256400554E4B4E00494E49540053545253
:104B700054005244574E00444541440042524B00B9
:104B8000434F4153540054524950004553544F50E1
:104B900000554E4B4E4F574E004F5645524C4F41CD
:104BA0004400554E444552564F4C54004F564552C2
:104BB000564F4C54005354414C4C004F56455253A1
:104BC00050454544004E4F464545444241434B0005
:00000001FF
