:100000000C942A000C9447000C9461010C94470056
:100010000C9447000C9447000C9447000C94470044
:100020000C9447000C9447000C94E2020C94470097
:100030000C9447000C9475010C9447000C944700F5
:100040000C9447000C9447000C9447000C94470014
:100050000C94470011241FBECFE5D8E0DEBFCDBF12
:1000600016E0A0E6B0E0E0E1F5E402C005900D92F4
:10007000AC3EB107D9F729E0ACEEB6E001C01D9265
:10008000AA3EB207E1F70E94771D0C9486220C94D9
:1000900000000E94EE0E0E947E0F82309105E1F179
:1000A00030F5019781F10E941B1660E083309105C5
:1000B00031F08230910511F00497C1F561E081E0E3
:1000C0000E94900F0E944316882399F181E00E94BC
:1000D000A80F0E9432160E94B00F0E94870F9091C5
:1000E000A609882341F19E7F9093A6090895833045
:1000F0009105A9F00497B9F60E94A0168111D3CFFB
:1001000081EE90E006C00E944F168111CCCF8FEC9B
:1001100090E00E943310C7CF0E946D16C4CF0E949A
:100120007C168111C0CF89ED90E0F3CF60E080E0D4
:10013000C7CF80E0CCCF9160D7CFCF93DF930E9421
:100140004006CCE8D9E09E878D870E945F068F87A6
:10015000DF91CF9108950E943716882369F020918E
:100160009009309191098091C9099091CA09281785
:10017000390710F00E94541B8CE899E00C94B814D5
:10018000CF93DF930E942106EC019093980980930E
:1001900097096091D5097091D6090E944C198091F8
:1001A000D7099091D809C817D90760F082E090E08C
:1001B0000E94B8176CE879E082E090E0DF91CF917F
:1001C0000C94F014DF91CF910895CF93DF930E94A8
:1001D000CD160E94680E0E947D0E90939109809327
:1001E00090098091A60980FF2FC080918C09909181
:1001F0008D09BC0185EB99E00E94191A85EB99E005
:100200000E94371A90938F0980938E09209190094C
:1002100030919109821B930B9093930980939209DB
:1002200064EC79E08CE899E00E949018EC0100976A
:1002300091F00E94B8170E94CD0B6CE879E0CE01D6
:10024000DF91CF910C94F0140E94020690938D09D7
:1002500080938C09CECF0E9437168823E9F0409115
:1002600090095091910960918E0970918F098BE7E7
:1002700099E00E94FC17EC01CE010E942A1BCE01DE
:100280000E94AD0B8091A0099091A1090E948C0B56
:10029000DF91CF910C94471B8BE799E00E945F1888
:1002A000D0E0C0E0E9CF0E944316882331F080916E
:1002B000A4099091A5090C94F30A8CE899E00C9498
:1002C000630A1F920F920FB60F9211248F931BBCDB
:1002D0001ABCC298C198C09881E08093EC068F91B7
:1002E0000F900FBE0F901F9018951F920F920FB690
:1002F0000F9211242F933F934F935F936F937F93AC
:100300008F939F93AF93BF93EF93FF938CB10E9412
:10031000D80FFF91EF91BF91AF919F918F917F91F6
:100320006F915F914F913F912F910F900FBE0F9062
:100330001F9018958430E0F46830D0F4E82FF0E096
:10034000EE0FFF1FEF57FF4F0190F081E02D81E08E
:1003500090E001C0880F6A95EAF79081413029F456
:10036000892B808390E080E0089580958923F9CFE0
:1003700081E090E008958430D8F46830C8F44115E5
:100380005105B1F0E82FF0E0EE0FFF1FEF58FF4FDF
:100390000190F081E02D808190E002C095958795D5
:1003A0006A95E2F78170FA01808390E080E0089519
:1003B00081E090E00895843090F46115710579F042
:1003C000E82FF0E0EE0FFF1FEF58FF4F0190F08194
:1003D000E02D8081FB01808390E080E0089581E042
:1003E00090E008958430E0F46830D0F4E82FF0E035
:1003F000EE0FFF1FE758FF4F0190F081E02D81E0E5
:1004000090E001C0880F6A95EAF79081413029F4A5
:10041000892B808390E080E0089580958923F9CF2F
:1004200081E090E008950C94F201CF93DF931F9246
:10043000CDB7DEB71982AE014F5F5F4F0E94BB019F
:1004400089810F90DF91CF9108958430B8F468309E
:10045000A8F4E82FF0E0EE0FFF1FE758FF4F0190E0
:10046000F081E02D808121E030E001C0220F6A950B
:10047000EAF78227808390E080E0089581E090E0B1
:10048000089591E0411101C090E0492F0C94F201D0
:10049000892B71F03E9A3F983D98389839983A9850
:1004A0003B983098319A329A379A90E080E00895DC
:1004B00081E090E00895883080F4389839983A982F
:1004C0003B9880FD389A81FD399A8695869509F08A
:1004D0003A9A369A90E080E0089581E090E008959D
:1004E000009759F034B125B1232732272327FC0187
:1004F0003183208390E080E0089581E090E00895CA
:1005000086B18295869586958370809581700895D1
:10051000CF93DF93EB010E945B02009749F40E94A6
:1005200080028823E1F3CE01DF91CF910C94700219
:10053000DF91CF910895379890E080E0089583B7D8
:100540008F7B83BF83B7886083BF12BE89EF8CBF68
:1005500083B78B7F83BF83B7826083BF83B781609C
:1005600083BF89B7826089BF90E080E00895892BBE
:1005700051F489B791E0672B09F092E0892B89BF8C
:1005800090E080E0089581E090E00895892B51F497
:1005900089B79EEF672B09F09DEF892389BF90E013
:1005A00080E0089581E090E008954115510539F00B
:1005B0005093F2064093F10690E080E0089581E0C8
:1005C00090E008951F920F920FB60F9211242F936F
:1005D0003F934F935F936F937F938F939F93AF93CB
:1005E000BF93EF93FF938091ED069091EE06A0915B
:1005F000EF06B091F0060196A11DB11D8093ED06A6
:100600009093EE06A093EF06B093F006E091F1060A
:10061000F091F206309709F00995FF91EF91BF91A3
:10062000AF919F918F917F916F915F914F913F918A
:100630002F910F900FBE0F901F9018958FB58E7F42
:100640008FBD8FB582608FBD8EB588608EBD8EB533
:1006500080618EBD8FB58F7B8FBD8FB580688FBD5C
:100660001DBC1CBC8FE891E097BD86BD8EB58B7F0D
:100670008EBD8EB58D7F8EBD8EB581608EBD41E005
:1006800065E083E00E949A0190E080E0089585365D
:100690009105A8F4009729F41BBC1ABC90E080E0F7
:1006A00008959C01AFE8B1E00E94321F24E630E0DB
:1006B00040E050E00E94E31E3BBD2ABDEFCF81E049
:1006C00090E0089585B58F7B85BD85B5886085BD33
:1006D00014BC85B5846085BD85B58D7F85BD85B528
:1006E000816085BD85B58F7D85BD85B5806185BD02
:1006F00041E067E083E00E949A0190E080E0089585
:100700008F3F910509F020F483BD90E080E00895CB
:1007100081E090E0089578940895F89408952FB7B3
:10072000F8946091ED067091EE068091EF0690913D
:10073000F0062FBF08958330910588F4813091052C
:1007400041F0029749F08BB780648BBF90E080E066
:1007500008958BB78068F9CF8BB78062F6CF81E0C0
:1007600090E008958330910588F48130910541F03F
:10077000029749F08BB78F7B8BBF90E080E00895A4
:100780008BB78F77F9CF8BB78F7DF6CF81E090E075
:10079000089583309105A8F48130910509F10297FD
:1007A000C1F185B78E7F85BF85B78D7F85BF6130ED
:1007B000710551F060F06230710579F063307105B8
:1007C00049F081E090E0089585B7816085BF90E0B1
:1007D00080E0089585B7816085BF85B78260F6CFD8
:1007E00085B78B7F85BF85B7877F85BF61307105F2
:1007F00069F068F36230710531F06330710509F713
:1008000085B7846085BF85B78860E0CF85B7846091
:10081000DDCF6230710531F06330710591F684B738
:10082000806402C084B78F7B84BFD1CFCF93DF9326
:10083000EC01892B99F0888199818330910570F4BE
:100840006A817B810E94C903009751F48881998154
:100850008130910589F038F0029789F081E090E0CD
:10086000DF91CF9108958AB780648ABF888199818A
:10087000DF91CF910C949B038AB78068F6CF8AB73B
:100880008062F3CF039730F481E090E0672B21F092
:1008900080E0089581E090E008958FB780688FBF71
:1008A00008958FB78F778FBF08954091F5065091C7
:1008B000F6062091F3063091F40642175307A9F388
:1008C000E091F306F091F406E950F94F2081FC0124
:1008D00020838091F3069091F40601968F739927F7
:1008E0009093F4068093F30690E080E00895CF9310
:1008F000DF93EC01892B09F44CC088819981AA818E
:10090000BB810097A105B10509F443C09C01AD016D
:1009100084E0220F331F441F551F8A95D1F760E0F2
:1009200074E284EF90E00E94E31E21503109832F8E
:100930008F7080BD29B98E81829580739885990FBB
:10094000990F990F9870892B80689C81990F9670E8
:10095000892B80BD8C819D810797C9F4529A539A47
:10096000549A579A10923A07109239071092380702
:10097000109237071092F6061092F5061092F406C0
:100980001092F30690E080E0DF91CF9108955298A5
:10099000E6CF81E090E0F8CF539854985798569856
:1009A000559890E080E008952091390730913A07FA
:1009B0002F5F3F4F2F7733274091370750913807EC
:1009C00042175307C9F3E0913907F0913A07E55C04
:1009D000F84F808330933A0720933907559A90E077
:1009E00080E00895009711F00C94550481E090E0A8
:1009F0000895009711F14091F5065091F606209167
:100A0000F3063091F40642175307B9F0E091F3066C
:100A1000F091F406E950F94F2081FC012083809188
:100A2000F3069091F40601968F7399279093F4063C
:100A30008093F30690E080E0089581E090E00895CF
:100A4000CF93DF93EC01892B29F481E090E007C07C
:100A50000E94D40489918111FBCF90E080E0DF9166
:100A6000CF9108959F92AF92BF92CF92DF92EF9273
:100A7000FF920F931F93CF93DF931F92CDB7DEB7F3
:100A80001982009779F481E090E00F90DF91CF9187
:100A90001F910F91FF90EF90DF90CF90BF90AF909C
:100AA0009F9008956115710571F3942E6C015C019E
:100AB00010E000E07B0181E0E81AF1080E151F0547
:100AC00048F4CE0101960E945504892BE1F68981F4
:100AD000891107C00C0D1D1DF801108290E080E007
:100AE000D4CFF50181935F010F5F1F4FE7CF892BB3
:100AF00021F0579A90E080E0089581E090E0089519
:100B00002091390730913A07809137079091380743
:100B10002817390719F490E080E0089582E090E00A
:100B200008950C94D4040C94200588E480B90898A6
:100B3000099886B7846086BF90E080E008950C94A1
:100B4000950584EA86BF90E080E006B607FE08C0FF
:100B500021B1287F81E090E0283049F480E00895B9
:100B60000196813127E2920781F781E090E00895B4
:100B700084E986BF90E080E0089583B984E886BF69
:100B800090E080E006B607FE0CC021B1287F283136
:100B900081F0283271F081E090E0203449F480E067
:100BA00008950196813127E2920761F781E090E094
:100BB000089580E0FCCFCF93DF93D82FC62F0E94FB
:100BC000A105009741F48D2F880FC1708C2BDF9108
:100BD000CF910C94BD05DF91CF9108950C94BD0584
:100BE000CF93DF9300D0CDB7DEB781E0898387E074
:100BF0008A83CE0101960E9448020F900F90DF91E8
:100C0000CF910895CF93DF9300D0CDB7DEB71A828E
:100C10001982BE016F5F7F4F80E00E9488022981A8
:100C20003A81A8EBBBE00E94321F2FEF33E040E097
:100C300050E00E94E31EC9010F900F90DF91CF9109
:100C40000895CF93DF9300D0CDB7DEB71A82198213
:100C5000BE016F5F7F4F81E00E94880229813A8147
:100C6000A0E2BEE40E94321F2FEF33E040E050E0EC
:100C70000E94E31EC9010F900F90DF91CF9108955C
:100C8000CF93DF9300D0CDB7DEB71A821982BE01B1
:100C90006F5F7F4F82E00E94880229813A81A0E63F
:100CA000BAEE0E94321F2FEF33E040E050E00E9486
:100CB000E31EC9010F900F90DF91CF910895CF935C
:100CC000DF9300D0CDB7DEB71A821982BE016F5F05
:100CD0007F4F83E00E94880229813A81A6E9B0E033
:100CE0000E94321F2FEF33E040E050E00E94E31EED
:100CF000822F0F900F90DF91CF9108951092BE0731
:100D00001092BD071092BC071092BB070C946203AF
:100D10009093BE078093BD071092BC071092BB074B
:100D20008130910551F028F0049750F081E090E077
:100D3000089590E080E00C94800386E990E0FBCF7A
:100D40008CE390E0F8CF8091BD079091BE070097AB
:100D500059F18330910541F14AE050E0813091052D
:100D600011F442E350E02091BB073091BC072F5FA4
:100D70003F4F2417350728F43093BC072093BB0757
:100D800008951092BC071092BB07209160002223A7
:100D900061F090E080E00E94800381E0909160002B
:100DA000911180E0809360000895019719F08CE321
:100DB00090E0F1CF86E990E0EECFDB01FA018230DE
:100DC0009105A1F028F4019761F01C92108208951A
:100DD0008330910579F00497C1F783E08C9387E025
:100DE00003C081E08C9383E08083089583E08C933B
:100DF00085E0FACF83E08C9384E0F6CF82309105D2
:100E000061F018F4019739F008958330910549F0A5
:100E1000049759F008956CBF089570E07BBD6ABDDA
:100E2000089570E079BD68BD089563BD0895EF929F
:100E3000FF921F93CF93DF93EC017B01CB010197CE
:100E400010E040E08330910540F4FC01E457FF4F8F
:100E50004081FC01E757FF4F10812885222329F0AC
:100E6000029718F4842F412F182F698188810E94DE
:100E70001302412F6B818A810E941302FC86EB864C
:100E8000DF91CF911F91FF90EF90089582309105EF
:100E900091F018F4019739F008958330910599F095
:100EA0000497C1F0089583B7662319F0806283BF69
:100EB00008958F7DFCCF8FB5662319F080688FBDB4
:100EC00008958F77FCCF8FB5662311F08062F7CF3E
:100ED0008F7DF5CF85B5662319F0806285BD0895B5
:100EE0008F7DFCCF0F931F93CF93DF9300D0CDB7AF
:100EF000DEB78C011A821982FC01868197810097E6
:100F000089F441E08285811101C040E0F8016581EA
:100F100084810E9413020F900F90DF91CF911F9157
:100F20000F910895AE014F5F5F4FBE016E5F7F4F1F
:100F30000E94DD06F801828526813781811108C073
:100F400060E0C9010E94460740E069818A81E1CFE3
:100F5000FFEF8F9FC001112464E670E00E94CF1E56
:100F6000C9010E94FE0661E0F801868197810E9416
:100F70004607D1CF0F931F93CF93DF9300D0CDB708
:100F8000DEB7FC011A821982892B49F481E090E0D6
:100F90000F900F90DF91CF911F910F910895808155
:100FA0008430A0F79281943088F7268137812530EC
:100FB000310560F78F0141E061810E949A0141E0B3
:100FC000F801638182810E949A0140E0F801618109
:100FD00080810E94130240E0F801638182810E94B7
:100FE0001302F801868197810097E1F484818430AF
:100FF00068F641E065810E949A0140E0F801658150
:1010000084810E941302F801128681E0818770E0DA
:1010100060E0C8010E941707C8010E94720790E0B3
:1010200080E0B6CFAE014F5F5F4FBE016E5F7F4F76
:101030000E94DD0641E069818A810E949A0140E0B8
:1010400069818A810E941302F80186819781843028
:10105000910560F48230910598F4019769F060E0A1
:10106000F801868197810E944607CDCF0497B9F792
:101070008CE485BD13BCF3CF8BE483BF1CBEEFCFE4
:101080008FB581608FBD8EB588608EBD8EB5826054
:101090008EBD8EB581608EBDE2CF009771F0FC01F0
:1010A0002185222351F0653608F064E6FC01628751
:1010B0000E94720790E080E0089581E090E008953A
:1010C000CF93DF93009789F0FC012185222369F0FB
:1010D000EC0161E070E00E941707CE010E947207E8
:1010E00090E080E0DF91CF91089581E090E0FACF29
:1010F000CF93DF93009789F0FC012185222369F0CB
:10110000EC0162E070E00E941707CE010E947207B6
:1011100090E080E0DF91CF91089581E090E0FACFF8
:10112000009769F0FC012185222349F062307105A6
:1011300030F4672B11F40C9460080C94780881E06B
:1011400090E008950F931F93CF93DF9300D0CDB716
:10115000DEB71A821982009771F1FC0121852223E2
:1011600051F18C0170E060E00E941707F801868160
:101170009781009771F440E0658184810E94130299
:1011800090E080E00F900F90DF91CF911F910F9131
:101190000895AE014F5F5F4FBE016E5F7F4F0E94AB
:1011A000DD0660E0F801868197810E94460740E0F5
:1011B00069818A81E3CF81E090E0E4CFCF93DF9330
:1011C000009701F1FC0121852223E1F0EC0163E0AD
:1011D00070E00E9417078E819F81009751F441E0D3
:1011E0006D818C810E94130290E080E0DF91CF91AD
:1011F00008956FEF0E94FE0661E08E819F810E943C
:101200004607F2CF81E090E0F1CF009779F0FC0142
:101210002185222359F06115710541F0838594855C
:10122000FB019183808390E080E0089581E090E06D
:101230000895009769F0FC012185222349F061158A
:10124000710531F08285FB01808390E080E0089594
:1012500081E090E008950F931F93CF93DF9300D028
:10126000CDB7DEB71A821982009789F1FC0121857A
:10127000222369F18C010E94A208F80186819781DE
:101280000097C9F0AE014F5F5F4FBE016E5F7F4FA9
:101290000E94DD0660E0F801868197810E94460782
:1012A00060E0F801868197810E94FE0640E0698136
:1012B0008A810E941302F8011286118690E080E074
:1012C0000F900F90DF91CF911F910F91089581E0C2
:1012D00090E0F6CFCF93DF93009731F4C1E0D0E0F8
:1012E000CE01DF91CF910895C62F60E0FC0180818F
:1012F0000E94DB05892B91F780E00E94EE05892B87
:1013000019F00E94B805EACF8C2F0E94EE05EC017F
:10131000892BB9F70E94B805E3CFCF93DF930097ED
:1013200031F4C1E0D0E0CE01DF91CF910895C62F16
:1013300060E0FC0180810E94DB05892B91F780E44D
:101340000E94EE05892B19F00E94B805EACF8C2F78
:101350000E94EE05EC01892BB9F70E94B805E3CF96
:101360000F931F93CF93DF93009741F401E010E0B8
:10137000C801DF91CF911F910F91089561157105FB
:10138000A9F3EB0160E0FC0180810E94DB05892B61
:1013900069F780E40E94EE058C01892B51F4899154
:1013A000811103C00E94B805E3CF0E94EE05892B8E
:1013B000B1F30E94B805DACFCF93DF9300D0CDB759
:1013C000DEB7198220E42A83009799F0FC0121817D
:1013D000621778F42281421760F4FE01E60FF11DD6
:1013E0006181640F60680F900F90DF91CF910C9432
:1013F0006A0981E090E00F900F90DF91CF910895FE
:101400000F931F93CF93DF93EC0189010E94DC09B6
:10141000892B41F4B801CE01DF91CF911F910F913B
:101420000C94B00981E090E0DF91CF911F910F9172
:10143000089561E00C946A0962E00C946A099C01C9
:1014400090916100662349F09460909361006091EF
:1014500061006860C9010C946A099B7FF6CFCF9345
:10146000DF93009729F481E090E0DF91CF91089518
:10147000EC0168E30E946A09892BA9F78CE080934C
:1014800061006CE0CE010E946A09892B61F7CE01F0
:101490000E94190A892B39F766E0CE010E946A0979
:1014A00031E020E0892B09F430E0832F922FDDCF4B
:1014B000E2ECF7E08EE3808382E0818380E1828347
:1014C000CF010C942F0AEF92FF920F931F93CF93AB
:1014D000DF93CDB7DEB7A2970FB6F894DEBF0FBE8D
:1014E000CDBFFC0181E090E0309709F46BC08489A6
:1014F00095898130910509F474C0029709F06FC095
:1015000092E58F011F929F9385818F9384818F93A2
:1015100083818F9382818F9387E991E09F938F934B
:101520007E0182E1E80EF11CFF92EF920E94AE1F55
:10153000D8011B96ED91FC911C971F968C911F97DB
:101540001F928F931D968D919C9128EE33E0B901E7
:101550000E94CF1E7F936F93CF0164E670E00E94DC
:10156000CF1ECB016AE070E00E94CF1E9F938F9345
:10157000CF01B9010E94CF1E7F936F93F80182853E
:101580001F928F9389EA91E09F938F938E010F5F53
:101590001F4F1F930F930E94AE1F970140E060E022
:1015A00082EC97E00E94000A980140E061E082EC42
:1015B00097E00E94000A0FB6F894DEBF0FBECDBFC1
:1015C00090E080E0A2960FB6F894DEBF0FBECDBFCC
:1015D000DF91CF911F910F91FF90EF9008959DE2C1
:1015E00090CF96E48ECF0F931F93CF93DF93CDB719
:1015F000DEB761970FB6F894DEBF0FBECDBF182FD0
:10160000092F8091C0079091C10701968F309105F5
:10161000B8F59093C1078093C00721EC31E040E01A
:1016200060E082EC97E00E94000A8091BF07882367
:1016300099F10F931F9382ED91E09F938F938E0109
:101640000F5F1F4F1F930F930E94AE1F980140E042
:1016500061E082EC97E00E94000A0F900F900F90DB
:101660000F900F900F9090E080E061960FB6F89485
:10167000DEBF0FBECDBFDF91CF911F910F910895B7
:101680001092C1071092C00781E09091BF0791119D
:1016900080E08093BF07C1CF8CE899E00E94630A85
:1016A000E2CF8091CC079091CD07892B39F08091C2
:1016B000CA079091CB0741E00A9708F440E062E046
:1016C00081E00C94130241E060E081E00E949A0105
:1016D00041E061E081E00E949A0141E062E081E046
:1016E0000E949A0140E060E081E00E94130240E025
:1016F00061E081E00E94130240E062E081E00E942C
:1017000013021092CD071092CC071092CB071092C3
:10171000CA0790E080E008958130910549F0029772
:10172000A1F040E060E081E00E94130240E013C0BD
:1017300040E061E081E00E94130241E060E081E06E
:101740000E94130290E080E0089540E060E081E0B4
:101750000E94130241E061E0F2CF9093CB078093A7
:10176000CA070E94510B90E080E0089581E090E06C
:101770009093CD078093CC070E94510B90E080E0BE
:1017800008951092CD071092CC0740E062E081E00E
:101790000E94130290E080E0089540E062E081E062
:1017A0000E94130240E060E081E00E94130240E0EA
:1017B00061E081E00E9413021092CD071092CC07E5
:1017C0001092CB071092CA070895009741F0029734
:1017D00069F06370E62FF0E0E956FF4F05C06370D3
:1017E000E62FF0E0E556FF4F808108956770E62F01
:1017F000F0E0E157FF4FF8CF1F93CF93DF93EC0159
:10180000162F462F4170698188810E94130211FBB7
:10181000442740F96B818A810E94130212FB4427FE
:1018200040F96D818C810E94130213FB442740F91B
:101830006F818E810E94130281E0111101C080E04E
:101840008D8BDF91CF911F910895CF93DF930097F8
:1018500009F44BC0FC0127853089232B09F445C0CE
:10186000EC0141E0618180810E949A0141E06B813D
:101870008A810E949A0141E06D818C810E949A01C7
:1018800041E06F818E810E949A018C858823A1F0AE
:1018900041E0698588850E949A0141E06B858A85CF
:1018A0000E949A0141E0698588850E94130241E007
:1018B0006B858A850E94130289899A89892B21F474
:1018C00081E090E09A8B898B1C8A1E8A1F8A188E71
:1018D000198E1D8A60E0CE010E94FC0B81E08B8B8B
:1018E00090E080E0DF91CF91089581E090E0FACF21
:1018F000FC01892B61F08389882349F063307105ED
:1019000030F476876587148A90E080E0089581E05E
:1019100090E00895009779F0FC012389222359F083
:101920006115710511F461E070E0FC01728B618B4F
:1019300090E080E0089581E090E00895CF93DF93F8
:10194000EC01892B49F18B89882331F161157105EF
:1019500019F12F85388950E040E08D859E850297EA
:1019600021F4220F331F441F551FDB010E94481F23
:101970009B01AC0160E67AEE80E090E00E94E31EFD
:10198000211531054105510539F03A8B298B90E03D
:1019900080E0DF91CF91089581E090E0FACFCF927F
:1019A000DF92EF92FF92CF93DF93EC01AB01892B93
:1019B00009F440C08B898823E9F162307105D0F5C4
:1019C0002D853E8564E02230310509F468E08C897C
:1019D00070E0CE88DF88E88CF98C90E0452BF1F43C
:1019E00001960E94CF1E8C8B8FEFC81AD80AE80A86
:1019F000F80ACE8ADF8AE88EF98E6C89C9010E94C6
:101A0000E50B682FCE010E94FC0B90E080E0DF9197
:101A1000CF91FF90EF90DF90CF900895860F971FA2
:101A200001970E94CF1E8C8B81E0C81AD108E10873
:101A3000F108DFCF81E090E0EACF2F923F924F9202
:101A40005F926F927F928F929F92AF92BF92CF924E
:101A5000DF92EF92FF920F931F93CF93DF9300D00B
:101A600000D0CDB7DEB7009709F458C0FC01238938
:101A7000222309F453C04230510508F04FC07A01C7
:101A80001B018C01D12CC12C80EA482E8FE0582EEE
:101A9000612C712C2C143D04C9F490E080E00F906F
:101AA0000F900F900F90DF91CF911F910F91FF90AA
:101AB000EF90DF90CF90BF90AF909F908F907F90EE
:101AC0006F905F904F903F902F900895B701C8019D
:101AD0000E94CF0CF80181899289009721F42FEFA1
:101AE000C21AD20AD7CF49825A826B827C8249813C
:101AF0005A816B817C814A015B01F1E08F1A910868
:101B0000A108B10889829A82AB82BC82452B462B00
:101B1000472B11F40197E1CF0000E9CF81E090E07D
:101B2000BECF0F931F93CF93DF93EC018A01892BD4
:101B300009F18B898823F1F02F85388950E040E046
:101B40008D859E85029721F4220F331F441F551F58
:101B5000DB010E94481F28E631E040E050E00E948F
:101B6000E31EB901A801CE01DF91CF911F910F9122
:101B70000C941D0D81E090E0DF91CF911F910F91AA
:101B80000895CF93DF93009701F1FC01238922236D
:101B9000E1F0EC018485882351F041E06185808586
:101BA0000E94130241E06B858A850E9413026C89B2
:101BB0008D859E850E94E50B682FCE010E94FC0B4F
:101BC00090E080E0DF91CF91089581E090E0FACF3E
:101BD000CF93DF930097D9F0FC0123892223B9F03A
:101BE000EC0160E00E94FC0B8C85882351F040E002
:101BF000698588850E94130240E06B858A850E9472
:101C000013021D8A90E080E0DF91CF91089581E07A
:101C100090E0FACF009799F0FC012389222379F014
:101C20006115710561F086899789A08DB18DFB01E1
:101C300080839183A283B38390E080E0089581E064
:101C400090E00895009759F0FC012389222339F090
:101C5000168A178A108E118E90E080E0089581E038
:101C600090E00895FC01892BA1F08389882389F0F5
:101C70006115710571F027853089858596850297F4
:101C800011F4220F331FFB013183208390E080E0A9
:101C9000089581E090E008958091D0079091D10758
:101CA00001969093D1078093D00708951092D107A1
:101CB0001092D0071092CF071092CE076CE47EE00E
:101CC00090E080E00E94420490E080E00C949B034E
:101CD000F8942091D0073091D1071092D10710923B
:101CE000D00778944CE3429FC001439F900D11248C
:101CF0009093CF078093CE0708958091CE0790915F
:101D0000CF07089540E065E082E00E949A0140E03C
:101D100066E082E00E949A0140E067E082E00E9473
:101D20009A0140E066E083E00E949A0140E064E0AE
:101D300083E00E949A0141E050E065E070E082E0BB
:101D400090E00E94410241E050E066E070E082E0F5
:101D500090E00E94410241E050E067E070E082E0E4
:101D600090E00E94410241E050E066E070E083E0D4
:101D700090E00E94410241E050E064E070E083E0C6
:101D800090E00E94410241E063E081E00E949A01FC
:101D900041E062E082E00E949A0141E063E082E07B
:101DA0000E949A0141E064E082E00E949A0140E0D2
:101DB00063E081E00E94F20140E062E082E00E9484
:101DC000F20140E063E082E00E94F20140E064E062
:101DD00082E00E94F20190E080E00895EF92FF928D
:101DE0000F931F93CF93DF93CDB7DEB72C970FB62A
:101DF000F894DEBF0FBECDBF65E082E00E94150201
:101E0000F82E66E082E00E941502082F67E082E06B
:101E10000E941502182F66E083E00E94150291E0EF
:101E2000F11090E0998791E0011190E09A8791E09C
:101E3000111190E09B8791E0811190E09C8788E0F0
:101E4000EFE9F0E0DE01119601900D928A95E1F73D
:101E50004091DF075091E007BE01675F7F4FE3EDE0
:101E6000EE2EE7E0FE2EE7EDF7E090E080E0DB010C
:101E70002D91BD01D7013D917D012317E1F0108225
:101E80008D0101501109D8012C93019631968430AF
:101E9000910569F75093E0074093DF072C960FB642
:101EA000F894DEBF0FBECDBFDF91CF911F910F9190
:101EB000FF90EF9008952130D1F430813F5F30835F
:101EC000353018F38C010552184FD8013C9131116F
:101ED000DCCF2C939C01220F331F41E050E04C0FCC
:101EE0005D1F240F351FD9014D915C91CECF10821B
:101EF0009C012552384FD9011C92C7CF8091DF0732
:101F00009091E0071092E0071092DF07089564E0D7
:101F100083E00E94150291E0811190E0892F0895DD
:101F2000662371F08091D2078F5F8A3018F4809316
:101F3000D20708951092D20763E081E00C94250245
:101F400041E0811101C040E063E081E00C94F201C6
:101F500041E0811101C040E062E082E00C94F201B6
:101F60008130910521F0029749F040E001C041E045
:101F700063E082E00E94F20140E006C040E063E0DE
:101F800082E00E94F20141E064E082E00C94F20100
:101F9000009761F0FC012081222341F081918111A1
:101FA00002C081E0089580538A30C0F380E0089534
:101FB000CF93C82F80913408882319F08C2F0E946A
:101FC0009105E0913208C83011F0CF3781F4EE234B
:101FD00061F1E150E0933208F0E0EE50F84F1082EA
:101FE00080E20E94910588E0CF910C949105CD305C
:101FF00011F0CA3081F48BE192E0EE2349F0F0E079
:10200000EE50F84F108281E08093330888EC94E022
:10201000CF910C949305EF3340F481E08E0F8093C1
:102020003208F0E0EE50F84FC083CF9108950E943F
:10203000930588EC94E00C9493051092320810926A
:10204000330881E080933408E2EFF7E080E4DF01B9
:102050001D928A95E9F780EE91E00E94171083E0C7
:1020600092E00C941710CF93DF93EC0180E292E0A2
:102070000E949305CE010E94930588EC94E0DF91C5
:10208000CF910C9493057F928F929F92AF92BF92C3
:10209000CF92DF92EF92FF920F931F93CF93DF9334
:1020A000CDB7DEB7C058D1090FB6F894DEBF0FBE6A
:1020B000CDBF8C01FC0183A074A0C78CB0A0A1A0EF
:1020C00092A00E94D619D82EF801F08CE18C0E94C3
:1020D0002016F801248935892130310509F470C0B2
:1020E0002230310509F46EC02DE27F928F929F92CB
:1020F000AF92BF92CF921F92DF92EF92FF929F9387
:102100008F931F922F93F80187851F928F93868557
:102110008F9385858F9384858F9383858F93828515
:102120001F928F9385818F9384818F9383818F9367
:1021300082818F9388E292E09F938F938E010F5F4D
:102140001F4F1F930F930E94AE1F0FB6F894DEBF70
:102150000FBECDBF81E020E0F801E80FF11D9081B6
:10216000911132C0F80101900020E9F7CF011F92D0
:102170002F9323E732E03F932F9301979F938F9301
:102180000E94AE1FC8010E9493050F900F900F9000
:102190000F900F900F90C058DF4F0FB6F894DEBF2E
:1021A0000FBECDBFDF91CF911F910F91FF90EF90A8
:1021B000DF90CF90BF90AF909F908F907F900895C9
:1021C00026E493CF22E591CF29278F5FC5CFCF9308
:1021D000DF93EC018BE792E00E949305CE010E9411
:1021E000930588EC94E0DF91CF910C94930581E8FE
:1021F00092E00E9417108EE992E00E9417108DEB7A
:1022000092E00E94171087EE92E00E94171082E081
:1022100093E00E94171082E393E00E94171087E575
:1022200093E00E9417108AE793E00E94171089E953
:1022300093E00E9417108CEB93E00E94171080EE41
:1022400093E00E94171081E094E00E94171082E250
:1022500094E00E94171080E494E00E9417108FE52C
:1022600094E00E94171081E894E00E94171087EA1A
:1022700094E00E9417108AEC94E00C941710EF92EF
:10228000FF920F931F93CF93DF93CDB7DEB7C05864
:10229000D1090FB6F894DEBF0FBECDBF80913308D1
:1022A000882379F11092E10766EC74E082EF97E001
:1022B0000E94711FF090E107009719F027E02F1599
:1022C00070F51092330810923208E2EFF7E080E4E4
:1022D000DF011D928A95E9F7FF2079F00091E2076E
:1022E0001091E3076BEC74E0C8010E94761F892B04
:1022F00039F58CE899E00E9443108DE192E00E944C
:102300009305C058DF4F0FB6F894DEBF0FBECDBFA8
:10231000DF91CF911F910F91FF90EF90089521E0F1
:102320002F0D2093E107EF2DF0E0EE0FFF1FEE5190
:10233000F84F9183808366EC74E090E080E0B8CF42
:1023400062ED74E0C8010E94761F892B01F580912F
:10235000A60980FD05C086ED94E00E943310CDCF24
:102360000E944316882319F08FED94E0F6CF0E9467
:102370004F16882349F08BE596E00E9417108BEEEC
:1023800094E00E94E710B9CF8FEC90E0E6CF68E0D0
:1023900075E0C8010E94761F892B71F40E946D16AA
:1023A000882339F08BE596E00E94171088EF94E0BF
:1023B000E8CF84E095E0D1CF6DED70E0C8010E94D8
:1023C000761F892B91F48091A60980FFC4CF0E94CB
:1023D0007C16882339F08BE596E00E9417108DE07B
:1023E00095E0CFCF89ED90E0B8CF6BED76E0C801F6
:1023F0000E94761F892B09F055C0B1E0BF1510F57A
:102400006DE376E08091E4079091E5070E94761FE6
:10241000892BC1F4809191098F93809190098F93BA
:1024200080918F098F9380918E098F938CE195E035
:102430009F938F938E010F5F1F4F1F930F930E94E7
:10244000AE1FB5C08091A60980FF85CF91E09F1592
:1024500018F088E295E081CF0091E4071091E5073C
:10246000C8010E94C80F811103C081E395E075CFB8
:10247000C8010E94531F97FDF8CF2091C7093091E2
:10248000C8092817390788F390938D0980938C0920
:10249000BC0185EB99E00E94191A8BE596E00E9439
:1024A00017102BCF6BE375E0C8010E94761F892BB4
:1024B00029F58091A0099091A10981309105D1F071
:1024C0000297D1F482E51F928F9380E495E09F9369
:1024D0008F938E010F5F1F4F1F930F930E94AE1FAC
:1024E000C8010E9417100F900F900F900F900F903F
:1024F0000F9003CF86E4E7CF8DE2E5CF67E475E088
:10250000C8010E94761F892B09F05AC08091DD090D
:102510008F938091DC098F938091DB098F93809159
:10252000DA098F938091D9091F928F938091D809EE
:102530008F938091D7098F938091D6098F93809143
:10254000D5098F938091D4098F938091D3098F936C
:102550008091D2098F938091D1098F938091D00976
:102560008F938091CF098F938091CE098F93809123
:10257000CD098F938091CC098F938091CB098F9354
:102580008091CA098F938091C9098F938091C8095E
:102590008F938091C7098F938CE495E09F938F93DD
:1025A0008E010F5F1F4F1F930F930E94AE1FC80134
:1025B0000E9417100FB6F894DEBF0FBECDBF9DCEA0
:1025C00064E775E0C8010E94761F892B09F0F2C00C
:1025D000B2E0BF1508F03DCF0091E6071091E70784
:1025E000C8010E94C80F882309F43FCFE090E40798
:1025F000F090E507C8010E94531F8C0168E775E061
:10260000C7010E94761F892B61F4C801845F914045
:102610008D37954108F029CF1093C8090093C70959
:102620003CCF6FE775E0C7010E94761F892B59F4F4
:10263000C801C297873B934008F017CF1093CA098F
:102640000093C9092ACF66E875E0C7010E94761F8A
:10265000892BA9F4C8018456910985359B4008F05F
:1026600004CF1093CC090093CB094091CD09509130
:10267000CE09B80185EB99E00E94311A0ECF6CE8C3
:1026800075E0C7010E94761F892B89F4C801845622
:10269000910985359B4008F0E8CE1093CE09009350
:1026A000CD096091CB097091CC09A801E3CF62E913
:1026B00075E0C7010E94761F892B91F4C801885CE0
:1026C00091098930974008F0D0CE1093D00900933B
:1026D000CF09B801110F880B990B0E94CE17DDCEE0
:1026E0006BE975E0C7010E94761F892B99F40130D0
:1026F000B0E11B0708F0B9CE1093D2090093D109BD
:102700004091D3095091D409B8018BE799E00E9418
:102710006918C3CE6EE975E0C7010E94761F892B48
:1027200079F4013022E0120708F09FCE1093D4090B
:102730000093D3096091D1097091D209A801E5CF26
:1027400061EA75E0C7010E94761F892B61F4C80118
:10275000885E9340813B964308F087CE1093D6095C
:102760000093D5099ACE67EA75E0C7010E94761FEB
:10277000892B69F48091D5099091D609801791072A
:1027800008F073CE1093D8090093D70986CE6DEA6E
:1027900075E0C7010E94761F892B49F4C801CC97C8
:1027A0008135910508F061CE0093D90976CE86EB8C
:1027B00095E0D3CD68EE76E0C8010E94761F892BA4
:1027C00091F40E94A016882339F08BE596E00E94D0
:1027D000171080EC95E0D5CD81EE90E00E9433108B
:1027E00087EC95E0CECD6AED75E0C8010E94761FBA
:1027F000892B91F40E94CC198C01892B19F40E9429
:10280000D1198C01C8010E94F1199F938F931F93D6
:102810000F9380EE95E00CCE6BEE75E0C8010E9440
:10282000761F892B59F482EF95E00E94171083E000
:1028300096E00E9417108EE096E031CE6AE176E0D5
:10284000C8010E94761F892B91F56091AB097091A8
:10285000AC098091AD099091AE092091B0092F93F8
:102860002091AF092F9320E13EE040E050E00E942C
:10287000E31E122F032FF42EE52E2CE330E040E070
:1028800050E00E94E31E5F934F933F932F93EF928C
:10289000FF920F931F9381E296E09F938F938E0197
:1028A0000F5F1F4F1F930F930E94AE1F80CE69E3EF
:1028B00076E0C8010E94761F892BF9F48BE799E036
:1028C0000E947518182F092F8BE799E00E946F1846
:1028D0000F931F939F938F937F936F938091D4094E
:1028E0008F938091D3098F938091D2098F93809198
:1028F000D1098F938FE396E0D0CF61E576E0C801F0
:102900000E94761F892B39F48BE596E00E94171000
:1029100086E596E036CD6EE576E0C8010E94761F2A
:10292000892B19F40E94F710E8CC83E696E015CDC8
:1029300080913308089582EF97E00895109233084C
:1029400010923208E2EFF7E080E4DF011D928A95F1
:10295000E9F7089581E0809362000E948F036093FD
:102960003508709336088093370890933808089597
:10297000CF92DF92EF92FF92CF93DF93209162008C
:10298000222329F1EC010E948F036B017C018091CD
:10299000350890913608A0913708B0913808A70102
:1029A0009601281B390B4A0B5B0BDA01C901883EE3
:1029B0009340A105B10558F0CE010E944310C0928A
:1029C0003508D0923608E0923708F0923808DF9147
:1029D000CF91FF90EF90DF90CF9008950C9443102B
:1029E000CF92DF92EF92FF920F931F93CF93DF93DB
:1029F000CDB7DEB7C054D1090FB6F894DEBF0FBE15
:102A0000CDBF6C018B010E94D619E82EF801F3842A
:102A10001485C6010E94F1191F92EF921F93FF9235
:102A20009F938F938BE696E09F938F938E010F5F1A
:102A30001F4F1F930F930E94AE1FC8010E94E71003
:102A40000FB6F894DEBF0FBECDBFC05CDF4F0FB630
:102A5000F894DEBF0FBECDBFDF91CF911F910F91D4
:102A6000FF90EF90DF90CF900895809362000895DB
:102A7000809162000895CF93DF93EC012091390893
:102A800030913A082330310521F58091AB099091BE
:102A9000AC09A091AD09B091AE094091A709509140
:102AA000A8096091A9097091AA09840F951FA61F12
:102AB000B71F8093AB099093AC09A093AD09B09375
:102AC000AE091092A7091092A8091092A9091092B4
:102AD000AA0930933C0820933B08D0933A08C0934E
:102AE0003908109246081092470810924808109230
:102AF0004908C430D10509F455C048F5C130D105A5
:102B0000C1F1C230D10509F046C080913F089091D3
:102B100040089093A1098093A0098BE799E00E9457
:102B20005F1885EB99E00E94991A8091AF09909106
:102B3000B00901969093B0098093AF0910924E08A6
:102B400010924F08109250081092510824C0C530BE
:102B5000D10521F0CE0107970397E8F41092A1095F
:102B60001092A0091092950910929409109296095A
:102B700012C01092A1091092A0091092950910920A
:102B80009409109296098BE799E00E945F1885EBF3
:102B900099E00E94991AD093A309C093A209DF91EA
:102BA000CF91089570E060E085EB99E00E94191ADA
:102BB000F2CF8091390890913A088530910550F410
:102BC000029768F080913F08909140080E948C0B1A
:102BD0000C94B60B8530910511F0079731F490E015
:102BE00080E00E948C0B0C94C10B0C94CD0BE9E39C
:102BF000F8E01182108213821282178216821186E7
:102C00001086128613861486158616861786108AF5
:102C100084EF91E0A0E0B0E0818B928BA38BB48B2A
:102C2000158A168A178A108E118E128E138E148EA4
:102C300081E0858F08958091390890913A08089530
:102C40008091390890913A088A30910540F4880FB4
:102C5000991FFC01E955FF4F8081918108958FE70D
:102C600096E0089580913F08909140080895209142
:102C7000390830913A082250310981E0223031057B
:102C800008F080E008952091390830913A082850E2
:102C9000310981E02230310508F080E0089580910B
:102CA000390890913A0881309105A9F440918C0936
:102CB00050918D092091C9093091CA0942175307D3
:102CC00050F09093400880933F0882E090E00E948B
:102CD0003B1581E0089580E0089580913908909136
:102CE0003A080297029730F484E090E00E943B1586
:102CF00081E0089580E008958091390890913A0824
:102D00000397E1F480914308811118C080913F0836
:102D100090914008019779F482E090E09093420806
:102D20008093410881E08093430884E090E00E9412
:102D30003B1581E0089581E090E0F0CF80E00895B8
:102D40008091390890913A088830910571F40E9479
:102D5000CC19892B11F080E008951092440881E08D
:102D600090E00E943B1581E008950997A1F78091BA
:102D7000A60981FDF0CFF3CF8091390890913A08F0
:102D8000099749F081E08093450889E090E00E942E
:102D90003B1581E0089580E00895809156088111E7
:102DA00002C00C94F7158091460890914708A091B5
:102DB0004808B09149080A96A11DB11D80934608A4
:102DC00090934708A0934808B0934908E0913908C8
:102DD000F0913A082091A60921FFBAC0399711F065
:102DE0000E94BC160C94D9158091E7099091E809CE
:102DF000892B29F481E090E00E943B15F3CF88E015
:102E000090E0FACF109295091092940910929609C9
:102E1000E9CF85EB99E00E94961A882361F18091B1
:102E200090099091910920918E0930918F09821B10
:102E3000930B8C599F4F893C9105E8F480914E0883
:102E400090914F08A0915008B09151080196A11D92
:102E5000B11D80934E0890934F08A0935008B093F3
:102E6000510884369105A105B10508F4BBCF83E074
:102E700090E00E943B1510924E0810924F0810925D
:102E8000500810925108AECF20918C0930918D09D5
:102E90008091C9099091CA092817390708F0A2CF73
:102EA0000E946D169FCF80919009909191091816FC
:102EB000190604F18091520890915308A09154088A
:102EC000B09155080196A11DB11D809352089093B1
:102ED0005308A0935408B09355080397A105B10572
:102EE00008F480CF80914308882369F085E090E062
:102EF0000E943B15109252081092530810925408E9
:102F0000109255086FCF87E090E0F2CF40914A08C9
:102F100050914B0860914C0870914D0884179507AB
:102F2000A607B70708F45ECF809141089091420848
:102F30009093400880933F081092430882E090E00D
:102F40005BCF843F9140A105B10508F44BCF52CF30
:102F5000E830F10508F046CFE055F84E0C94241FF8
:102F6000F41602170917441753178617F216A117FC
:102F70002091390830913A082830310569F021E074
:102F8000209344089093A5098093A40988E090E0D9
:102F90000E943B1581E0089580E0089560934A08FF
:102FA00070934B0880934C0890934D08089560915E
:102FB0004608709147088091480890914908089503
:102FC000FC017183608353834283148215821682CD
:102FD0001782118610868FE891E093878287158685
:102FE00014861786168681E0808B0895FC01718710
:102FF0006087538742870895CF92DF92EF92FF92C6
:103000000F931F93FC01CB01841B950BAC01A28194
:10301000B3819C010E942A1F04811581268137817A
:103020006B017C01C00ED11EE21EF31EA081B18196
:103030009A010E942A1F072F182F292F332727FDB7
:103040003A95BB27F7FCBA95AF2D9E2D8D2D080F15
:10305000191F2A1F3B1F82859385092E000CAA0B7E
:10306000BB0B80179107A207B30754F457FF16C094
:103070002089222399F0C482D582E682F7820EC08D
:1030800080859185092E000CAA0BBB0B0817190728
:103090002A073B0774F41416150654F35587448722
:1030A000978786871F910F91FF90EF90DF90CF90C9
:1030B0000895C482D582E682F782C801EFCFFC0171
:1030C0001482158216821782158614861786168634
:1030D0000895FC0171836083538342830895FC014A
:1030E00064817581868197810895FC018485958529
:1030F0000895E7E5F8E011821082138212821482AB
:103100001582168217821086118680E89EEE9387BC
:1031100082871486158616861786108A118A089566
:103120000F931F93FC01DB01828D81FD93C02385EA
:10313000348553968D919C9154972817390708F040
:1031400093C0409161085091620870E060E0009186
:103150005D0810915E0820915F08309160080417A7
:1031600015072607370708F082C0978555968C917A
:103170005597981708F45CC0809163088F5F80931F
:103180006308843108F076C02585368556968D9182
:103190009C9157972817390708F04DC08091640813
:1031A0008F5F80936408853008F067C058968D91D2
:1031B0009C918217930708F041C0809165088F5F4A
:1031C00080936508823008F05BC042852481358198
:1031D0004333B8F124363105A4F5809166088F5F3A
:1031E000809366088E3108F04EC0808191818C50AA
:1031F0009E4F8217930744F5809167088F5F8093F5
:1032000067088A3008F042C0453108F1232BF9F4F1
:10321000809168088F5F809368088431D0F51092A0
:1032200058081092570890E080E01F910F91089580
:1032300010926308A9CF10926408B8CF1092650865
:10324000C4CF10926608D1CF10926708DDCF1092DC
:103250006808E5CF81E090E0909358088093570884
:1032600021E020935B08E1CF82E090E0F5CF83E09E
:1032700090E0F2CF84E090E0EFCF85E090E0ECCFFB
:1032800086E090E0E9CF87E090E0E6CF88E090E04C
:10329000E3CF89E090E0E0CF8F929F92AF92BF9210
:1032A000CF92DF92EF92FF92B0E0A0E06C017D013F
:1032B000C61AD70AE108F108A7019601C701B601AD
:1032C0000E94BF1E80905D0890905E08A0905F08ED
:1032D000B09060081C141D041E041F04DCF428EECA
:1032E00033E040E050E00E94051F820E931EA41EB2
:1032F000B51E80925D0890925E08A0925F08B09221
:103300006008FF90EF90DF90CF90BF90AF909F90BC
:103310008F90089520EA3FE040E050E00E94051FB2
:10332000281539054A055B0528F4821A930AA40A70
:10333000B50ADFCF10925D0810925E0810925F0808
:1033400010926008DECFE7E5F8E014821182108267
:103350001486158616861786108A118A089520917C
:10336000590830915A082817390741F410925A0821
:103370001092590810925C080C94A319089580913A
:103380005B08811107C081E090915C08911103C036
:1033900080E0089581E00895809157089091580841
:1033A00008958091590890915A080895E091610814
:1033B000F0916208309799F020915D0830915E0895
:1033C00040915F0850916008A4E6B0E00E94481F59
:1033D0009F0150E040E00E94E31E822F089580E0AC
:1033E00008958A30910540F4880F991FFC01E55437
:1033F000FF4F8081918108958DEA96E00895FC0148
:1034000011821082138212821582148288E592E062
:103410009783868384E893E09187808788EC90E0A7
:103420009387828788EB9BE09587848781E08687F6
:103430000895FC019485858522853385621773077D
:1034400034F0292F382F621773070CF49B01318356
:10345000208316860895FC01738762875587448709
:103460000895FC01778366835187408708950F9301
:103470001F93CF93DF93FC01C081D181028113811F
:103480009E01201B310B121613068CF546815781C5
:1034900064E6649FC001659F900D112468EE73E09F
:1034A0000E94CF1E621773070CF49B01200F311F7F
:1034B0003383228354854585828593852281338198
:1034C0002817390734F0852F942F281739070CF463
:1034D000C9019383828395838483C817D90711F424
:1034E00021E02687DF91CF911F910F91089521153B
:1034F000310501F34085518564E6649FC001659FF5
:10350000900D112468EE73E00E94CF1E3195219535
:103510003109621773070CF49B01021B130B138311
:103520000283C8CFFC01848195810895FC018685C2
:103530000895FC0113821282158214821686089562
:10354000FC012081318182819381281B390B121665
:10355000130694F4668177816115710559F048EE80
:1035600053E0249FC001259F900D349F900D11249E
:103570000E94CF1ECB01089570E060E02115310557
:10358000C9F360857185319521953109E5CFFC013D
:103590009093700880936F0870936E0860936D0825
:1035A000118210821382128215821482178216826F
:1035B000118610861286148613861686158617863F
:1035C000108A118A128A138A158A148A178A168A0F
:1035D000118E108E828D8C7F8B7F828F138E148E36
:1035E000158E168E178E10A211A212A214A213A26B
:1035F00015A216A217A210A6089580916F089091A7
:103600007008089580916D0890916E080895E0917A
:103610006F08F09170089583848374876387568759
:10362000458727870895E0916D08F0916E085381D2
:103630004481E0916F08F091700830E020E097FD40
:1036400006C0252F342F821793070CF49C01318379
:1036500020830895E0916F08F0917008803921E08F
:10366000920714F08FE891E097FF02C090E080E0AD
:103670009187808744E6489F9001499F300D11242F
:10368000C9016FE871E00E94CF1E62870895E09142
:103690006F08F09170088281938124813581821BAB
:1036A000930B978386830895E0916F08F0917008DB
:1036B000838D948DA58DB68D0196A11DB11D838F2F
:1036C000948FA58FB68F878D90A1A1A1B2A10196ED
:1036D000A11DB11D878F90A3A1A3B2A308958091CE
:1036E000690890916A08A0916B08B0916C080196E6
:1036F000A11DB11D8C3221E09207A105B10548F44E
:103700008093690890936A08A0936B08B0936C0843
:1037100008951092690810926A0810926B0810922E
:103720006C08A0916F08B0917008E0916D08F0915D
:103730006E085F964D915D916D917C919297448F4B
:10374000558F668F778F93968D919C9191A380A3CF
:10375000089590E080E0089590E080E0089581E091
:1037600090E00895089590E080E0089590E080E072
:103770000895EFE7F8E01182108213821282158219
:10378000148217821682108611861286138614867A
:10379000158616861786118A108A108E799689E00A
:1037A000E937F80741F710927E0810927A081092D4
:1037B0007B0810927C0810927D0810927608109277
:1037C000770810927808109279080E948F0360930E
:1037D0007208709373088093740890937508109220
:1037E000710808954F925F926F927F92AF92BF924D
:1037F000CF92DF92EF92FF920F931F93CF93DF93BD
:103800000E948F036B017C01B12C89E1A82E80916D
:103810007E08B81608F464C080917208909173080D
:10382000A0917408B0917508A7019601281B390B67
:103830004A0B5B0BDA01C901883E9340A105B10533
:1038400008F43FC0209176083091770840917808BD
:103850005091790840907A0850907B0860907C08DD
:1038600070907D08420E531E641E751E4114510453
:103870006104710471F0A4E6B0E00E94481FA30146
:1038800092010E94E31E80917108821710F4209328
:1038900071081092760810927708109278081092AA
:1038A000790810927A0810927B0810927C08109286
:1038B0007D08C0927208D0927308E0927408F0926A
:1038C0007508DF91CF911F910F91FF90EF90DF90DE
:1038D000CF90BF90AF907F906F905F904F90089582
:1038E0000B2D10E0A09EE001A19ED00D1124C15827
:1038F000D74F888D882309F477C088819981892BD7
:1039000009F472C08C859D85AE85BF85C816D90621
:10391000EA06FB0608F468C00E948F032B013C01F5
:103920004C8A5D8A6E8A7F8AE881F98109950E94B6
:103930008F03DC01CB0184199509A609B7094A88D0
:103940005B88712C612C481659066A067B0610F4B8
:103950009B8B8A8B4090760850907708609078080F
:1039600070907908480E591E6A1E7B1E4092760898
:10397000509277086092780870927908A09EF001C2
:10398000A19EF00D1124E158F74F248135818085E7
:103990009185A285B385B701A601481B590B6A0B17
:1039A0007B0BC9010596B0E0A0E084179507A60738
:1039B000B70728F4808991890196918B808BA09E0E
:1039C000F001A19EF00D1124E158F74FC086D18679
:1039D000E286F386D701C601820F931FA11DB11D98
:1039E00084879587A687B787B39411CFDC01909120
:1039F0007E089A3028F5109719F189E1989FF00117
:103A00001124E158F74FB183A083738362835583F8
:103A10004483378326831086118612861386A90174
:103A200070E060E04487558766877787118A108A3F
:103A3000138A128A81E0808F9F5F90937E08089599
:103A400080E0089590917E08891748F499E1899F54
:103A5000F0011124E158F74F80899189089590E091
:103A600080E00895CF92DF92EF92FF920E948F0341
:103A7000C0907208D0907308E0907408F0907508B8
:103A80006C197D098E099F09683E73408105910577
:103A900010F00E94F21B2091760830917708409137
:103AA000780850917908C0907A08D0907B08E0900F
:103AB0007C08F0907D08C20ED31EE41EF51E80E047
:103AC000C114D104E104F10449F0A4E6B0E00E947D
:103AD000481FA70196010E94E31E822FFF90EF90DE
:103AE000DF90CF9008958091710808950895CF9345
:103AF000DF93CDB7DEB764970FB6F894DEBF0FBE85
:103B0000CDBFF8948AE0E3E6F0E0DE011196019083
:103B10000D928A95E1F7CE0101960E9477048CEE12
:103B200090E00E94200588E091E00E9420050E941C
:103B3000630BFF24F394FB8A87E08C8BCE014396C2
:103B40000E9448020E949F020E941E030E9462037C
:103B500080916D0090916E00A0916F00B091700007
:103B60008F87988BA98BBA8B1C861B8603E010E08D
:103B70001E870D87CE010F960E941604CE010B966C
:103B80000E94160489E191E00E9420050E94560ED1
:103B90000E94F0050E94820E0E947E068AE291E059
:103BA0000E94200584E49DE49093C5098093C40994
:103BB000F092C60988EB9BE09093C8098093C709EF
:103BC00088EC90E09093CA098093C90988E592E057
:103BD0009093CC098093CB0984E893E09093CE092D
:103BE0008093CD0984EF91E09093D0098093CF0921
:103BF00080E891E09093D2098093D1098AE190E026
:103C00009093D4098093D30980E49FE19093D609DF
:103C10008093D50980E596E49093D8098093D709DD
:103C20008EE68093D90980E29EE49093DB0980932D
:103C3000DA0988ED96ED9093DD098093DC09109305
:103C4000DF090093DE091092E0091092E109109259
:103C5000E2091092E3091092E5091092E40910922A
:103C6000E6091092E8091092E7091092E90964EC5C
:103C700079E08CE899E00E94C71A4091D3095091ED
:103C8000D4096091D1097091D2098BE799E00E9423
:103C9000E0174FE851E068E270E08BE799E00E949E
:103CA000F61785EB99E00E94FF194091C7095091E2
:103CB000C8096091C9097091CA0985EB99E00E9411
:103CC0002B1A4091CD095091CE096091CB0970918A
:103CD000CC0985EB99E00E94311A0E9479180E9464
:103CE000F7156091CF097091D00990E080E00E94B3
:103CF000CE170E941D100E94AA140E94B91B30E02A
:103D000020E04AE050E06AE371E089E490E00E943C
:103D1000F61C21E030E042E350E060E471E080EC2A
:103D200090E00E94F61C22E030E044E650E068E4B7
:103D300071E085EE90E00E94F61C23E030E044EF55
:103D400051E060E571E08DE990E00E94F61C25E00D
:103D500030E048EE53E06CE571E08BEA90E00E94C1
:103D6000F61C86E691E00E94200578940E94F21BE2
:103D70000E9498148823D1F30E943F11F7CFDB01F2
:103D80008F939F930E94481FBF91AF91A29F800D78
:103D9000911DA39F900DB29F900D11240895AA1B11
:103DA000BB1B51E107C0AA1FBB1FA617B70710F026
:103DB000A61BB70B881F991F5A95A9F78095909558
:103DC000BC01CD010895A1E21A2EAA1BBB1BFD0167
:103DD0000DC0AA1FBB1FEE1FFF1FA217B307E407EA
:103DE000F50720F0A21BB30BE40BF50B661F771F42
:103DF000881F991F1A9469F7609570958095909522
:103E00009B01AC01BD01CF010895052E97FB1EF467
:103E100000940E941C1F57FD07D00E94E31E07FC60
:103E200003D04EF40C941C1F50954095309521956D
:103E30003F4F4F4F5F4F08959095809570956195D6
:103E40007F4F8F4F9F4F0895EE0FFF1F0590F49106
:103E5000E02D09940E94321F332312F48A1B9B0B1E
:103E60000C94431FA29FB001B39FC001A39F700D8C
:103E7000811D1124911DB29F700D811D1124911D72
:103E800008950E94321FB7FF0895821B930B089577
:103E90000E94321FA59F900DB49F900DA49F800D8E
:103EA000911D11240895FC0188279927E8942191F8
:103EB0002032E9F3293010F02E30C8F32B3241F0D4
:103EC0002D3239F4689404C00E94A61F820F911D00
:103ED000219120532A30C0F31EF4909581959F4F75
:103EE000089549E759E00E947F1F0895FB01DC0116
:103EF0008D91019080190110D9F3990B0895FA0161
:103F0000A191B081009719F41097E1F0CD01DC0187
:103F1000CD010D90002011F4C00113C0FB012191CF
:103F2000222319F02015D9F7F3CFFB012191201599
:103F300019F41E92119606C02223C1F70D9000209D
:103F4000A1F7D001FA01A193B08308957AE0979F79
:103F5000902D879F802D910D11240895AEE0B0E043
:103F6000E4EBFFE10C945D220D891E8986E08C83D1
:103F70001A8309838FEF9FE79E838D83AE01475E8F
:103F80005F4F6F89788DCE0101960E94D11F2F81DE
:103F90003885020F131FF80110822E96E4E00C946E
:103FA0007922ABE0B0E0E7EDFFE10C944F227C0119
:103FB0003B018A01FC0117821682838181FFC8C1FF
:103FC000CE0101965C01F7019381F30193FD859188
:103FD00093FF81913F01882309F453C1853239F45D
:103FE00093FD859193FF81913F01853229F4B701BB
:103FF00090E00E94C121E7CF912C212C312CFFE1D0
:10400000F31538F08B3211F190F4803209F18332DC
:1040100029F137FC3CC020ED280F2A3050F536FE40
:1040200020C08AE0989E200D1124922E06C08D3269
:1040300091F0803371F7689430F8F30193FD859126
:1040400093FF81913F018111DACF21C0689431F84B
:10405000689432F8F2CF689433F8EFCF689434F86C
:10406000ECCFEAE02E9E200D1124222E689435F824
:10407000E4CF8E3229F436FC04C1689436F8DDCFE3
:104080008C3619F4689437F8D8CF8836B1F2982F67
:104090009F7D95549330E0F08336A1F18337C1F1D1
:1040A000833509F063C02801F2E04F0E511CF8017E
:1040B000C080D180692D70E036FC02C06FEF7FEFC9
:1040C000C6010E94AB214C01689437F882010AC0F6
:1040D0000C5F1F4FFFE3F98388248394912C6501C3
:1040E000E89437F833FE2DC0522C8114910471F5F9
:1040F000552009F468CFB70180E290E00E94C12109
:104100005A94F6CFF801808189830E5F1F4FE4CF68
:104110002801F2E04F0E511CF801C080D180692DBA
:1041200070E036FC02C06FEF7FEFC6010E94B6213F
:104130004C018201D5CFB70180E290E00E94C121FD
:104140002A942814190409F0B0F7CECFF60137FCF1
:10415000859137FE81916F01B70190E00E94C121E6
:1041600051105A94F1E08F1A9108BFCF843619F09C
:10417000893609F077C0F80137FE6BC06081718124
:10418000828193810C5F1F4FF32DFF763F2E97FFA7
:1041900009C090958095709561957F4F8F4F9F4F87
:1041A000689437F82AE030E0A5010E94F121C82E7A
:1041B000CA188C2C432C36FE0CC0E89440F8C91465
:1041C00040F434FE05C032FC03C0F32DFE7E4F2EBA
:1041D000892C44FE95C0FE01EC0DF11D80818033D9
:1041E00009F087C0242D297E422E842D8870582EF8
:1041F00043FC95C040FE8FC09C2C821418F42C0CFC
:10420000922C981844FE91C0B70180E390E00E9480
:10421000C12142FE09C088E790E041FE02C088E566
:1042200090E0B7010E94C121C91408F48AC0CA9461
:10423000D12C9FEFC91AD90ACA0CDB1CF601829156
:104240006F01B70190E00E94C121AC14BD04B1F729
:104250004FCF60817181072E000C880B990B0E5F88
:104260001F4F92CFD32CE894D4F82AE030E0853762
:1042700039F1232D297FD22E8F3601F148F488356C
:10428000A9F0F701868197812B96E2E10C946B22CD
:10429000803749F08837A9F7D4FE02C06894D2F875
:1042A00020E130E00DC06894D4F8F6CF34FE03C0AE
:1042B000822F8660D82E20E132E002C028E030E074
:1042C000F801D7FE0FC060817181828193810C5FFC
:1042D0001F4FA5010E94F121C82ECA183D2CE89459
:1042E00037F867CF6081718190E080E00E5F1F4FEB
:1042F000F0CF42FC02C0839478CF8394839475CF2F
:10430000842D867809F471CFF6CFB70180E290E072
:104310000E94C12183948214C0F3512C73CF522C7C
:104320005818821408F46ECFF8CF842D867809F4DB
:104330007BCF8BE241FE80E247FC8DE2B70190E04B
:1043400071CFB70180E390E00E94C1219A946CCFB5
:104350008FEF9FEF99CFFC010590615070400110E5
:10436000D8F7809590958E0F9F1F0895FC0161509E
:10437000704001900110D8F7809590958E0F9F1F87
:1043800008950F931F93CF93DF93182F092FEB01FD
:104390008B8181FD09C01FEF0FEF812F902FDF91DF
:1043A000CF911F910F91089582FF14C02E813F81FC
:1043B0008C819D81281739073CF4E881F981CF0170
:1043C00001969983888310838E819F8101969F83B4
:1043D0008E83E3CFE885F985812F0995892BA1F399
:1043E000DACFFA01AA27283051F1203181F1E8947F
:1043F0006F936E7F6E5F7F4F8F4F9F4FAF4FB1E0D8
:104400003ED0B4E03CD0670F781F891F9A1FA11DD2
:10441000680F791F8A1F911DA11D6A0F711D811DD3
:10442000911DA11D20D009F468943F912AE0269F98
:1044300011243019305D3193DEF6CF010895462FF7
:104440004770405D4193B3E00FD0C9F7F6CF462FD8
:104450004F70405D4A3318F0495D31FD4052419341
:1044600002D0A9F7EACFB4E0A695979587957795FE
:104470006795BA95C9F700976105710508959B0185
:10448000AC010A2E06945795479537952795BA950E
:10449000C9F7620F731F841F951FA01D08952F92E7
:1044A0003F924F925F926F927F928F929F92AF92C4
:1044B000BF92CF92DF92EF92FF920F931F93CF9311
:1044C000DF93CDB7DEB7CA1BDB0B0FB6F894DEBFA8
:1044D0000FBECDBF09942A88398848885F846E84CE
:1044E0007D848C849B84AA84B984C884DF80EE8018
:1044F000FD800C811B81AA81B981CE0FD11D0FB621
:10450000F894DEBF0FBECDBFED010895F894FFCF44
:10451000010C0180250000030000000000010003E1
:104520000039003600330030003B003800350032DF
:10453000003A0037003400310000010101000101A0
:10454000030206040C080903060C09010204080111
:1045500000020003000400840608058906D2048EC8
:1045600006930698069C06A206A7060906A706A7B4
:1045700005B506AD05BE06C806D106D706E1064557
:1045800052522053544152540045525220524556E3
:104590000045525220414354495645000D0A2D2DE5
:1045A0002D2053595354454D205354415254494E94
:1045B00047202D2D2D0D0A00424F4F54313A2055E2
:1045C000415254204F4B0D0A00424F4F54323A2073
:1045D0004D43414C204F4B0D0A00424F4F54333A4C
:1045E0002048414C204F4B0D0A0050616E656C0015
:1045F00043757272656E7400436F6E74726F6C00F7
:10460000536C6F7753656E736F72730054656C658E
:104610006D6574727900424F4F54343A20534348C9
:104620004544554C45522052454144592C20454E55
:1046300041424C494E4720494E54455252555054E0
:10464000532E2E2E0D0A00534554252D346420413F
:104650004354252D34642563002533642525202506
:1046600032642E256441202532645620253364436C
:10467000002121205452495050454420212120201E
:104680002000215452495020434F44453D256400A9
:104690000D0A496E647573747269616C204D6F7494
:1046A0006F7220436F6E74726F6C6C65722076311E
:1046B0002E30000D0A547970652048454C50206614
:1046C0006F7220636F6D6D616E64730D0A3E200022
:1046D0004552524F523A2000244D442C53503D2510
:1046E000642C52503D25642C443D25642C493D25C5
:1046F000642C563D25642C543D25642C4449523D80
:1047000025632C53543D25732C54523D25642C496C
:1047100032543D25642C52483D256C752C53433D45
:104720002564002A253032580D0A00214556542CA4
:10473000000D0A3D3D3D20417661696C61626C650A
:1047400020436F6D6D616E6473203D3D3D00535499
:104750004154555320202020202020202D20536814
:104760006F772074656C656D657472790052554E73
:1047700020202020202020202020202D2053746164
:104780007274206D6F746F72202872656D6F74651E
:10479000206F6E6C79290053544F50202020202028
:1047A00020202020202D2053746F70206D6F746F97
:1047B000720052455620202020202020202020203A
:1047C0002D20526576657273652064697265637425
:1047D000696F6E202872656D6F7465206F6E6C79DD
:1047E00029005350454544203C6E3E202020202087
:1047F0002D205365742073706565642028302D6DFD
:10480000617852706D290053504545443F20202067
:1048100020202020202D2053686F7720637572722E
:10482000656E74207370656564004449523F2020B2
:1048300020202020202020202D2053686F77206406
:104840006972656374696F6E004346473F2020209C
:10485000202020202020202D2053686F7720636F98
:104860006E66696775726174696F6E005345542096
:104870003C706172616D3E203C76616C75653E20D6
:104880002D2053657420706172616D6574657200CE
:1048900041434B20202020202020202020202D209C
:1048A00041636B6E6F776C656467652074726970C5
:1048B00000545249503F2020202020202020202D2D
:1048C0002053686F7720616374697665207472691C
:1048D000700054524950533F202020202020202097
:1048E0002D2053686F772074726970206C6F670099
:1048F000484F5552533F20202020202020202D209B
:1049000053686F772072756E20686F7572730054EC
:10491000554E453F2020202020202020202D2053B0
:10492000686F7720504920696E7465726E616C7390
:104930000053415645202020202020202020202DDB
:10494000205361766520636F6E66696720746F20FF
:10495000454550524F4D0048454C502020202020C6
:1049600020202020202D2053686F772074686973E1
:10497000206D656E750020090D0A00535441545591
:10498000530052554E00455252204D4F444500456C
:1049900052522054524950504544005354415254AD
:1049A0002C52454D4F54450053544F502C52454DB9
:1049B0004F5445004552522053544F5000524556D3
:1049C000455253452C52454D4F5445005350454593
:1049D000443D25642C2564004552522041524753E2
:1049E000004552522052414E4745004449523F0033
:1049F0004449523D2563004346473F004346473DF7
:104A000025642C25642C25642C25642C25642C25F8
:104A1000642C25642C25642C25642C25642C2564A9
:104A20002C256400534554004D415852504D004DC3
:104A3000494E52504D00414343454C004445434587
:104A40004C004445414454494D45004B50004B49AE
:104A50000052415445440053484F5254004F56456C
:104A60005254454D500045525220504152414D0044
:104A700041434B2C4F4B0041434B2C524546555321
:104A800045442C41435449564500545249503F0037
:104A9000545249503D25642C2573005452495053BB
:104AA0003F003D3D3D2054726970204C6F67203DB2
:104AB0003D3D005452502C302C4E4F4E45003D3D54
:104AC0003D20456E64203D3D3D00484F5552533FCB
:104AD00000484F5552533D2530326C753A253032DF
:104AE0006C752C53433D25640054554E453F00548E
:104AF000554E453D25642C25642C256C642C25647D
:104B0000005341564500534156452C4F4B004845F4
:104B10004C500045525220434D4400545249502CB1
:104B200025732C493D25642C4932543D256400559C
:104B30004E4B4E00494E4954005354525400524477
:104B4000574E00444541440042524B00434F4153AD
:104B5000540054524950004553544F5000554E4B49
:104B60004E4F574E004F5645524C4F414400554E04
:104B7000444552564F4C54004F564552564F4C5494
:104B8000005354414C4C004F5645525350454544F8
:0C4B9000004E4F464545444241434B0057
:00000001FF
