:100000000C9460020C94B1050C9486050C947D024E
:100010000C947D020C947D020C947D020C947D0264
:100020000C947D020C947D020C94D7060C947D02F6
:100030000C947D020C94ED080C9431090C947D0213
:100040000C947D020C947D020C947D020C947D0234
:100050000C947D0245525220414354495645004577
:100060005252205245560045525220535441525448
:1000700000424F4F54343A205343484544554C4571
:10008000522052454144592C2052554E4E494E471C
:100090002E2E2E0D0A00424F4F54333A2048414C29
:1000A000204F4B0D0A00424F4F54323A204D4341EE
:1000B0004C204F4B0D0A00424F4F54313A205541CE
:1000C0005254204F4B0D0A000D0A2D2D2D2053594F
:1000D0005354454D205354415254494E47202D2DE1
:1000E0002D0D0A000048454C5020202020202020C3
:1000F0002020202D2053686F772074686973206D4D
:10010000656E750053415645202020202020202078
:1001100020202D205361766520636F6E666967200D
:10012000746F20454550524F4D0054554E453F2069
:1001300020202020202020202D2053686F77205061
:100140004920696E7465726E616C7300484F555238
:10015000533F20202020202020202D2053686F771F
:100160002072756E20686F75727300545249505337
:100170003F20202020202020202D2053686F772032
:1001800074726970206C6F6700545249503F202090
:10019000202020202020202D2053686F77206163AD
:1001A0007469766520747269700041434B20202089
:1001B00020202020202020202D2041636B6E6F778F
:1001C0006C65646765207472697000534554203C07
:1001D000706172616D3E203C76616C75653E202DCC
:1001E0002053657420706172616D6574657200439F
:1001F00046473F202020202020202020202D205353
:10020000686F7720636F6E66696775726174696F76
:100210006E004449523F2020202020202020202012
:100220002D2053686F7720646972656374696F6EFF
:100230000053504545443F20202020202020202DE1
:100240002053686F772063757272656E74207370C7
:10025000656564005350454544203C6E3E20202097
:1002600020202D205365742073706565642028302C
:100270002D6D617852706D29005245562020202046
:10028000202020202020202D205265766572736565
:1002900020646972656374696F6E202872656D6F82
:1002A0007465206F6E6C79290053544F50202020C4
:1002B000202020202020202D2053746F70206D6F6F
:1002C000746F720052554E202020202020202020C4
:1002D00020202D205374617274206D6F746F722012
:1002E0002872656D6F7465206F6E6C7929005354A8
:1002F0004154555320202020202020202D205368B9
:100300006F772074656C656D65747279000D0A3DB8
:100310003D3D20417661696C61626C6520436F6D83
:100320006D616E6473203D3D3D000D0A00455252E3
:100330004F523A20004F4B003D3D3D20456E64201A
:100340003D3D3D005452502C302C4E4F4E45003D0B
:100350003D3D2054726970204C6F67203D3D3D004B
:1003600045525220414354495645004F4B00455297
:100370005220504152414D004F4B004552522052A5
:10038000414E4745004F4B004552522052414E4787
:1003900045004F4B004552522052414E4745004FB9
:1003A0004B004552522052414E4745004F4B0045AD
:1003B00052522052414E4745004F4B004552522069
:1003C00052414E4745004F4B004552522052414E3C
:1003D0004745004F4B004552522052414E47450081
:1003E0004F4B004552522052414E4745004F4B0063
:1003F0004552522052414E474500455252205241EB
:100400004E4745004552522041524753004F4B0042
:100410004552522052414E474500455252205241CA
:100420004E474500455252204152475300455252D3
:10043000204D4F44450045525220524556004F4BE7
:1004400000455252204D4F444500455252205354CE
:100450004F50004F4B0045525220535441525400CC
:100460004F4B00455252205452495050454400458C
:100470005252204D4F44450045525220434D4400B6
:100480000D0A547970652048454C5020666F7220E3
:10049000636F6D6D616E64730D0A3E20000D0A4935
:1004A0006E647573747269616C204D6F746F722025
:1004B000436F6E74726F6C6C65722076312E3000F3
:1004C00011241FBECFE5D8E0DEBFCDBF14E0A0E60B
:1004D000B0E0E6ECF1E402C005900D92A23AB1075B
:1004E000D9F726E0A2EAB4E001C01D92A638B2070F
:1004F000E1F70E9410040C94E1200C94000063E0EA
:1005000083E00E94390691E0813009F090E080910B
:10051000420690FB81F9809342060E940B0E0E94D6
:100520009B0E82309105E1F130F5019781F10E9437
:100530008D1560E08330910531F08230910511F026
:100540000497C1F561E081E00E94AE0E0E94B515EE
:10055000882399F181E00E94C60E0E94A4150E9492
:10056000CE0E0E94A40E90914206882341F19E7FF8
:1005700090934206089583309105A9F00497B9F647
:100580000E947D168111D3CF84E590E006C00E94C1
:10059000C1158111CCCF87E690E00E945D0FC7CFD7
:1005A0000E944A16C4CF0E9459168111C0CF8FE510
:1005B00090E0F3CF60E080E0C7CF80E0CCCF9160E7
:1005C000D7CFEF92FF920F931F93CF93DF93CDB7C7
:1005D000DEB7A8970FB6F894DEBF0FBECDBF0E945E
:1005E000F9160E94370D0E94A90D90932D06809355
:1005F0002C068091420680FF5DC080912806909174
:100600002906BC0181E596E00E94EF1A81E596E09B
:100610000E94131B90932B0680932A0620912C0690
:1006200030912D06821B930B90932F0680932E06FC
:1006300060E676E088E296E00E944A198C01009715
:1006400009F454C01F938F9386E593E09F938F9393
:10065000CE0101967C019F938F930E94091EC701D2
:100660000E94B608C8010E9477180E94F50C0F90EE
:100670000F900F900F900F900F908091A404909185
:10068000A5048017910749F068E276E0C8010E944E
:100690005A141093A5040093A404A8960FB6F894D6
:1006A000DEBF0FBECDBFDF91CF911F910F91FF90A5
:1006B000EF9008950E94D60990932906809328060A
:1006C000A0CF40912C0650912D0660912A06709182
:1006D0002B0687E196E00E94B2180E94CC0C809114
:1006E0003C0690913D060E94AB0CD7CF1092A5041A
:1006F0001092A4040E94A9158111E3CF87E196E02E
:100700000E94151990E080E0E8CFCF93DF930E941C
:10071000951AEC010E94B515882329F0CE01DF91CE
:10072000CF910C94660C88E296E0DF91CF910C9407
:10073000CB0BEF92FF920F931F93CF93DF93CDB725
:10074000DEB7C055D1090FB6F894DEBF0FBECDBFDE
:100750000E945E0A08E216E0F801858796879F935B
:100760008F939F938F9388E790E09F938F93CE0111
:1007700001967C019F938F930E94091EC7010E94DE
:10078000B6080E94A20AF80187870FB6F894DEBF68
:100790000FBECDBFC05BDF4F0FB6F894DEBF0FBEFC
:1007A000CDBFDF91CF911F910F91FF90EF900895F2
:1007B00088E296E00C941014CF93DF930E941A0AFB
:1007C000EC0190933406809333066091710670912A
:1007D00072060E94321A8091730690917406C817AF
:1007E000D907C8F082E090E00E9477188091A604B3
:1007F0009091A704029761F068E276E082E090E0D1
:100800000E945A1482E090E09093A7048093A6047B
:10081000DF91CF9108951092A7041092A604F8CF0B
:10082000CF93DF93CDB7DEB768970FB6F894DEBFEE
:100830000FBECDBFF8948AE0E2E6F0E0DE0111964B
:1008400001900D928A95E1F7CE0101960E941C0855
:10085000789488EC90E00E94C80887EB90E00E94B2
:10086000C80880EA96E8A1E0B0E08B8B9C8BAD8B4A
:10087000BE8BCE0143960E947109FF24F394FF8A38
:1008800087E0888FCE0147960E946C06BE01655FA7
:100890007F4F80E00E94AC06BE01655F7F4F81E024
:1008A0000E94AC06BE01655F7F4F82E00E94AC06ED
:1008B000BE01655F7F4F83E00E94AC060E94BF06C9
:1008C0000E94570780916C0090916D00A0916E007E
:1008D000B0916F008F87988BA98BBA8B1C861B8673
:1008E00003E010E01E870D87CE010F960E94E507FA
:1008F000CE010B960E94E50786EA90E00E94C808A8
:100900000E94C00B0E94120D0E94C4090E94AE0DED
:100910000E94C10A0E94830C86E990E00E94C808E8
:1009200084E49DE49093610680936006F0926206F1
:1009300088EB9BE0909364068093630688EC90E0DC
:10094000909366068093650688E592E0909368062A
:100950008093670684E893E090936A068093690623
:1009600084EF91E090936C0680936B0680E891E0B1
:1009700090936E0680936D068AE190E090937006E6
:1009800080936F0680E49FE19093720680937106D6
:1009900080E596E490937406809373068EE68093C8
:1009A000750680E29EE4909377068093760688ED44
:1009B00096ED909379068093780610937B060093CA
:1009C0007A0610927C0610927D0610927E06109296
:1009D0007F06109281061092800610928206109275
:1009E000840610928306109285064AE150E060E882
:1009F00071E087E196E00E9496184FE851E068E2C6
:100A000070E087E196E00E94AC1881E596E00E94D4
:100A1000D51A409163065091640660916506709105
:100A2000660681E596E00E94071B40916906509199
:100A30006A06609167067091680681E596E00E94FB
:100A40000D1B0E942F190E94691560916B06709111
:100A50006C0690E080E00E948D180E944A0F0E9470
:100A6000021486EF9EE00E94DC080E945E0A9093CA
:100A70003606809335060E94811B30E020E04AE074
:100A800050E068E870E08FE792E00E94BE1C21E031
:100A900030E042E350E06EE870E08CED93E00E94BD
:100AA000BE1C22E030E044E650E066E970E081EEF2
:100AB00092E00E94BE1C24E030E04AEF50E06EE974
:100AC00070E085E893E00E94BE1C23E030E044EF34
:100AD00051E062EA70E089E993E00E94BE1C25E0E3
:100AE00030E048EE53E06EEA70E088ED93E00E945B
:100AF000BE1C81E790E00E94C8080E94BA1B0E94B9
:100B0000FF138823D1F30E946910F7CF1F920F9231
:100B10000FB60F9211242F933F934F935F936F93D0
:100B20007F938F939F93AF93BF93EF93FF9390E047
:100B300080E00E943C07C198C09881E08093A8049F
:100B4000FF91EF91BF91AF919F918F917F916F91A5
:100B50005F914F913F912F910F900FBE0F901F907B
:100B600018951F920F920FB60F9211242F933F9357
:100B70004F935F936F937F938F939F93AF93BF93A5
:100B8000EF93FF930E94080DFF91EF91BF91AF91FA
:100B90009F918F917F916F915F914F913F912F9195
:100BA0000F900FBE0F901F9018958430E0F46830BE
:100BB000D0F4E82FF0E0EE0FFF1FE853FF4F019055
:100BC000F081E02D81E090E001C0880F6A95EAF79E
:100BD0009081413029F4892B808390E080E0089552
:100BE00080958923F9CF81E090E008958430D8F48E
:100BF0006830C8F441155105B1F0E82FF0E0EE0F70
:100C0000FF1FE854FF4F0190F081E02D808190E0BC
:100C100002C0959587956A95E2F78170FA01808305
:100C200090E080E0089581E090E008958430E0F461
:100C30006830D0F4E82FF0E0EE0FFF1FE054FF4FD4
:100C40000190F081E02D81E090E001C0880F6A956D
:100C5000EAF79081413029F4892B808390E080E08D
:100C6000089580958923F9CF81E090E008950C9450
:100C70001606CF93DF931F92CDB7DEB71982AE0170
:100C80004F5F5F4F0E94F60589810F90DF91CF91F2
:100C900008958430B8F46830A8F4E82FF0E0EE0F3F
:100CA000FF1FE054FF4F0190F081E02D808121E093
:100CB00030E001C0220F6A95EAF78227808390E036
:100CC00080E0089581E090E0089591E0411101C035
:100CD00090E0492F0C941606892B71F03E9A3F98AC
:100CE0003D98389839983A983B983098319A329A8A
:100CF000379A90E080E0089581E090E00895883090
:100D000080F4389839983A983B9880FD389A81FD5C
:100D1000399A8695869509F03A9A369A90E080E05D
:100D2000089581E090E00895009759F034B125B11D
:100D3000232732272327FC013183208390E080E0A2
:100D4000089581E090E0089586B182958695869514
:100D50008370809581700895CF93DF93EB010E949B
:100D60007F06009749F40E94A4068823E1F3CE0190
:100D7000DF91CF910C949406DF91CF91089583B7C2
:100D80008F7B83BF83B7886083BF12BE89EF8CBF20
:100D900083B78B7F83BF83B7826083BF83B7816054
:100DA00083BF89B7826089BF90E080E008951F9279
:100DB0000F920FB60F9211242F933F934F935F938F
:100DC0006F937F938F939F93AF93BF93EF93FF9313
:100DD0008091A9049091AA04A091AB04B091AC04B5
:100DE0000196A11DB11D8093A9049093AA04A0931C
:100DF000AB04B093AC04E091AD04F091AE04309735
:100E000009F00995FF91EF91BF91AF919F918F915B
:100E10007F916F915F914F913F912F910F900FBEF6
:100E20000F901F9018958FB58E7F8FBD8FB5826004
:100E30008FBD8EB588608EBD8EB580618EBD8FB53D
:100E40008F7B8FBD8FB580688FBD1DBC1CBC8FE8AC
:100E500091E097BD86BD8EB58B7F8EBD8EB58D7FA3
:100E60008EBD8EB581608EBD41E065E083E00E945D
:100E7000D50590E080E0089585369105A8F40097A7
:100E800029F41BBC1ABC90E080E008959C01AFE8F7
:100E9000B1E00E945D1D24E630E040E050E00E9499
:100EA0000E1D3BBD2ABDEFCF81E090E0089585B5D2
:100EB0008F7B85BD85B5886085BD14BC85B5846094
:100EC00085BD85B58D7F85BD85B5816085BD85B5C1
:100ED0008F7D85BD85B5806185BD41E067E083E09C
:100EE0000E94D50590E080E008952FB7F8946091B6
:100EF000A9047091AA048091AB049091AC042FBF17
:100F000008958330910588F48130910541F002976E
:100F100049F08BB780648BBF90E080E008958BB779
:100F20008068F9CF8BB78062F6CF81E090E00895BA
:100F300083309105A8F48130910509F10297C1F140
:100F400085B78E7F85BF85B78D7F85BF6130710581
:100F500051F060F06230710579F06330710549F04D
:100F600081E090E0089585B7816085BF90E080E0E2
:100F7000089585B7816085BF85B78260F6CF85B754
:100F80008B7F85BF85B7877F85BF6130710569F02D
:100F900068F36230710531F06330710509F785B788
:100FA000846085BF85B78860E0CF85B78460DDCF7A
:100FB0006230710531F06330710591F684B7806459
:100FC00002C084B78F7B84BFD1CFCF93DF93EC0176
:100FD000892B99F0888199818330910570F46A8119
:100FE0007B810E949807009751F488819981813014
:100FF000910589F038F0029789F081E090E0DF9167
:10100000CF9108958AB780648ABF88819981DF91E2
:10101000CF910C9481078AB78068F6CF8AB7806237
:10102000F3CF039730F481E090E0672B21F080E06C
:10103000089581E090E00895CF93DF93EC01892B30
:1010400009F44CC088819981AA81BB810097A105D0
:10105000B10509F443C09C01AD0184E0220F331FA8
:10106000441F551F8A95D1F760E074E284EF90E049
:101070000E940E1D21503109832F8F7080BD29B928
:101080008E81829580739885990F990F990F98702A
:10109000892B80689C81990F9670892B80BD8C81EB
:1010A0009D810797C9F4529A539A549A579A10926D
:1010B000C8041092C7041092C6041092C50410927E
:1010C000B4041092B3041092B2041092B10490E0F0
:1010D00080E0DF91CF9108955298E6CF81E090E0D3
:1010E000F8CF2091C7043091C8042F5F3F4F2F7174
:1010F00033274091C5045091C60442175307C9F3E2
:101100009FB7F894E091C704F091C804E753FB4FF0
:1011100080833093C8042093C7049FBF559A90E002
:1011200080E008954FB7F8942091C7043091C80427
:101130002F5F3F4F2F7133276091C5047091C60414
:101140006217730781F0E091C704F091C804E75378
:10115000FB4F80833093C8042093C704559A90E0D6
:1011600080E04FBF089581E090E0FBCFCF93DF9305
:10117000EC01892B29F481E090E007C00E947108FE
:1011800089918111FBCF90E080E0DF91CF910895AC
:10119000CF93DF93EC01892B29F481E090E009C023
:1011A0000E947108FE01849121968111F9CF90E08F
:1011B00080E0DF91CF910895009741F09093B004C3
:1011C0008093AF04579A90E080E0089581E090E02A
:1011D00008950C94B6080C94C8081F920F920FB68D
:1011E0000F9211242F933F934F935F936F937F93AD
:1011F0008F939F93AF93BF93EF93FF938CB1209105
:10120000B3043091B4042F5F3F4F2F7033274091C8
:10121000B1045091B2044217530759F0E091B3045E
:10122000F091B404EB54FB4F80833093B4042093CB
:10123000B304E091AF04F091B004309709F0099540
:10124000FF91EF91BF91AF919F918F917F916F919E
:101250005F914F913F912F910F900FBE0F901F9074
:1012600018951F920F920FB60F9211242F933F9350
:101270008F939F93EF93FF932091C7043091C804FD
:101280008091C5049091C60428173907F1F0E091C8
:10129000C504F091C604E753FB4F20818091C5043B
:1012A0009091C60401968F7199279093C6048093FC
:1012B000C5042CB9FF91EF919F918F913F912F9190
:1012C0000F900FBE0F901F9018955598F3CF88E49C
:1012D00080B90898099886B7846086BF90E080E05E
:1012E00008950C94670984EA86BF90E080E006B612
:1012F00007FE08C021B1287F81E090E0283049F442
:1013000080E008950196813127E2920781F781E01C
:1013100090E0089584E986BF90E080E0089583B965
:1013200084E886BF90E080E006B607FE0AC021B1DF
:10133000287F283171F081E090E0283249F480E084
:1013400008950196813127E2920771F781E090E0DC
:10135000089580E0FCCFCF93DF93D82FC62F0E9453
:101360007309009761F48D2F880FC1708C2B0E9438
:101370008F09009721F084E986BF81E090E0DF913A
:10138000CF9108950C948F09CF93DF9300D0CDB700
:10139000DEB781E0898387E08A83CE0101960E94CF
:1013A0006C060F900F90DF91CF9108950F931F93CC
:1013B000CF93DF93CDB7DEB7AA970FB6F894DEBF11
:1013C0000FBECDBF1AA619A6BE01675D7F4F80E094
:1013D0000E94AC068AA58F9389A58F9380ED90E03B
:1013E0009F938F938E010F5F1F4F1F930F930E9448
:1013F000091EC8010E94B60829A53AA5A8EBBBE0C2
:101400000E945D1D0F900F900F900F900F900F9006
:101410002FEF33E040E050E00E940E1DC901AA9674
:101420000FB6F894DEBF0FBECDBFDF91CF911F91F5
:101430000F9108950F931F93CF93DF93CDB7DEB72E
:10144000A2970FB6F894DEBF0FBECDBF1AA219A2A5
:10145000BE016F5D7F4F81E00E94AC068AA18F9331
:1014600089A18F9383ED90E09F938F938E010F5FFF
:101470001F4F1F930F930E94091EC8010E94B608B8
:1014800029A13AA1A0E2BEE40E945D1D0F900F9039
:101490000F900F900F900F902FEF33E040E050E04F
:1014A0000E940E1DC901A2960FB6F894DEBF0FBEB2
:1014B000CDBFDF91CF911F910F9108950F931F938F
:1014C000CF93DF93CDB7DEB7AA970FB6F894DEBF00
:1014D0000FBECDBF1AA619A6BE01675D7F4F82E081
:1014E0000E94AC068AA58F9389A58F9383ED90E027
:1014F0009F938F938E010F5F1F4F1F930F930E9437
:10150000091EC8010E94B60829A53AA5A0E6BAEEB0
:101510000E945D1D2FEF33E040E050E00E940E1D61
:101520000F900F900F900F900F900F90C901AA96F7
:101530000FB6F894DEBF0FBECDBFDF91CF911F91E4
:101540000F910895CF93DF9300D0CDB7DEB71A8205
:101550001982BE016F5F7F4F83E00E94AC06298134
:101560003A81A6E9B0E00E945D1D2FEF33E040E034
:1015700050E00E940E1D822F0F900F90DF91CF91AF
:1015800008951092EC041092EB041092EA04109269
:10159000E9040C945707CF93DF93009731F4C1E02F
:1015A000D0E0CE01DF91CF910895C62F60E0FC011D
:1015B00080810E94AB09892B91F780E00E94C209CB
:1015C000892B19F00E948A09EACF8C2F0E94C20948
:1015D000EC01892BB9F70E948A098FE39FE10197FB
:1015E000F1F700C00000DDCFCF93DF93009731F417
:1015F000C1E0D0E0CE01DF91CF910895C62F60E029
:10160000FC0180810E94AB09892B91F780E40E9444
:10161000C209892B19F00E948A09EACF8C2F0E94F7
:10162000C209EC01892BB9F70E948A098FE891E081
:101630000197F1F700C00000DDCF009781F0FC01B9
:101640002181621760F42281421748F4E62FF0E00E
:10165000E459FE4F6081640F60680C94CB0A81E00E
:1016600090E008950F931F93CF93DF93EB012097A2
:1016700011F4C6EED1E040E0682F8DEE94E00E94B8
:101680001D0B8E01005F1F4F6991611101C060E267
:101690008DEE94E00E94F40AC017D107A9F7DF91FC
:1016A000CF911F910F910895CF92DF92EF92FF9209
:1016B0001F93CF93DF93EC01142F7901892B61F4F1
:1016C000CC24C394D12CC601DF91CF911F91FF9000
:1016D000EF90DF90CF900895232B91F389816817C5
:1016E00078F78A81481760F7CE010E941D0B6C01C4
:1016F000892B31F78A81181730F7F701608166234B
:1017000051F0FFEFEF1AFF0ACE010E94F40A892B75
:10171000B9F61F5FEFCF60E2F7CF61E00E94CB0A1E
:10172000EFE3FFE13197F1F700C000000895CF9398
:10173000DF93009729F481E090E0DF91CF91089545
:10174000EC0168E30E94CB0A892BA9F784E080931F
:1017500060006CE0CE010E94CB0A892B61F7CE01BC
:101760000E948D0B892B39F766E0CE010E94CB0ACF
:1017700031E020E0892B09F430E0832F922FDDCF78
:10178000EDEEF4E08EE3808382E0818380E182836A
:10179000CF010C94970BDF92EF92FF920F931F9360
:1017A000CF93DF93CDB7DEB7A2970FB6F894DEBF25
:1017B0000FBECDBFFC01892B81F481E090E0A296A1
:1017C0000FB6F894DEBF0FBECDBFDF91CF911F9152
:1017D0000F91FF90EF90DF90089584899589813073
:1017E000910509F46FC0029709F46EC09DE28F0164
:1017F0001F929F9385818F9384818F9383818F9391
:1018000082818F938CED90E09F938F931F9281E163
:10181000D82EDF927E0122E1E20EF11CFF92EF92C0
:101820000E94D91DD8011B96ED91FC911C971D9625
:101830008D919C9128EE33E0B9010E94FA1C7F93B0
:101840006F93CF0164E670E00E94FA1CCB016AE05E
:1018500070E00E94FA1C9F938F93CF01B9010E9400
:10186000FA1C7F936F93F80182851F928F9389EE04
:1018700090E09F938F931F92DF928E010F5F1F4F17
:101880001F930F930E94D91D970140E060E08DEEF9
:1018900094E00E94540B0FB6F894DEBF0FBECDBF8C
:1018A000892B09F08ACF980140E061E08DEE94E049
:1018B0000E94540B31E020E0892B09F430E0832FA3
:1018C000922F7DCF96E493CF92E591CFCF93DF9384
:1018D0000197CDEFD0E08930910538F4880F991F3A
:1018E000FC01E65AFE4FC081D18162E071E080E0E8
:1018F0000E94320BBE0181E00E94320B90E080E03A
:10190000DF91CF9108958091F004811121C041E0D1
:1019100060E081E00E94D50541E061E081E00E9445
:10192000D50540E060E081E00E94370640E061E0DC
:1019300081E00E9437060E94130790E080E00E9439
:101940003C071092F2041092F10481E08093F004BD
:1019500090E080E008958130910549F00297A1F070
:1019600040E060E081E00E94370640E013C040E0C4
:1019700061E081E00E94370641E060E081E00E9482
:10198000370690E080E0089540E060E081E00E944A
:10199000370641E061E0F2CF2091F1043091F2048A
:1019A000232B29F41BBC1ABC90E080E008959C0115
:1019B000203981E0380710F02FE831E03BBD2ABD27
:1019C000F3CF81E090E09093F2048093F10490E0F3
:1019D00080E008951092F2041092F10490E080E00B
:1019E0000E943C0790E080E0089590E080E00E9433
:1019F0003C0740E060E081E00E94370640E061E0A3
:101A000081E00E9437061092F2041092F1040895CA
:101A10008091F5049091F60401969093F6048093DA
:101A2000F5040895CF93DF9300D000D0CDB7DEB793
:101A30001092F6041092F5041092F4041092F3043C
:101A40001A82198283E090E09C838B83CE010196F9
:101A50000E94E50768E07DE090E080E00E941108C8
:101A60000F900F900F900F90DF91CF9108958F926C
:101A70009F92AF92BF92EF92FF920F931F93CF93DB
:101A8000DF93CDB7DEB7C055D1090FB6F894DEBFEE
:101A90000FBECDBFF8940091F5041091F60410929A
:101AA000F6041092F5047894F12CE12C0430110521
:101AB00030F08CE3809F7001819FF00C1124A09185
:101AC000F304B091F40423E030E00E946C1D470160
:101AD0000F2C000CAA08BB08680D791D8A1D9B1DE0
:101AE00024E030E040E050E00E94301D3093F404E8
:101AF0002093F3048091F3049091F4049F938F93C7
:101B0000FF92EF921F930F938EE691E09F938F9336
:101B10008E010F5F1F4F1F930F930E94091EC80174
:101B20000E94B6080FB6F894DEBF0FBECDBFC05BF3
:101B3000DF4F0FB6F894DEBF0FBECDBFDF91CF9160
:101B40001F910F91FF90EF90BF90AF909F908F905B
:101B500008958091F3049091F404089540E065E0C5
:101B600082E00E94D50540E066E082E00E94D50553
:101B700040E067E082E00E94D50540E066E083E057
:101B80000E94D50540E064E083E00E94D50541E075
:101B900065E082E00E94650641E066E082E00E9426
:101BA000650641E067E082E00E94650641E066E08C
:101BB00083E00E94650641E064E083E00E946506E0
:101BC00041E063E081E00E94D50541E062E082E00F
:101BD0000E94D50541E063E082E00E94D50541E026
:101BE00064E082E00E94D50540E063E081E00E946D
:101BF000160640E062E082E00E94160640E063E0E4
:101C000082E00E94160640E064E082E00E94160630
:101C100090E080E00895EF92FF920F931F93CF938F
:101C2000DF93CDB7DEB72C970FB6F894DEBF0FBEAB
:101C3000CDBF65E082E00E943906F82E66E082E0C2
:101C40000E943906082F67E082E00E943906182FAB
:101C500066E083E00E94390691E0F11090E09987F8
:101C600091E0011190E09A8791E0111190E09B873B
:101C700091E0811190E09C8788E0E0E7F0E0DE01F0
:101C8000119601900D928A95E1F7409104055091CB
:101C90000505BE01675F7F4FE8EFEE2EE4E0FE2E04
:101CA000ECEFF4E090E080E0DB012D91BD01D70185
:101CB0003D917D012317E1F010828D010150110942
:101CC000D8012C93019631968430910569F7509391
:101CD0000505409304052C960FB6F894DEBF0FBEA1
:101CE000CDBFDF91CF911F910F91FF90EF9008959D
:101CF0002130D1F430813F5F3083353018F38C01CF
:101D000000501B4FD8013C913111DCCF2C939C012A
:101D1000220F331F41E050E04C0F5D1F240F351F91
:101D2000D9014D915C91CECF10829C0120503B4F48
:101D3000D9011C92C7CF809104059091050510929E
:101D4000050510920405089564E083E00E943906B9
:101D500091E0813009F090E0892F0895662371F0B9
:101D60008091F7048F5F8A3018F48093F704089508
:101D70001092F70463E081E00C94490641E0811180
:101D800001C040E063E081E00C94160641E081115F
:101D900001C040E062E082E00C94160681309105BB
:101DA00021F0029749F040E001C041E063E082E0A9
:101DB0000E94160640E006C040E063E082E00E9418
:101DC000160641E064E082E00C941606009761F08C
:101DD000FC012081222341F08191811102C081E028
:101DE000089580538A30C0F380E00895CF93C82FC0
:101DF00080913905882319F08C2F0E949208E09178
:101E00003705C83011F0CF3781F4EE23A9F1E15046
:101E1000E0933705F0E0E95EFA4F108280E20E941D
:101E2000920888E0CF910C949208CD3011F0CA301E
:101E3000C9F4EE2361F0F0E0E95EFA4F108281E030
:101E4000809338058DE00E9492088AE0EBCF8DE008
:101E50000E9492088AE00E9492088EE30E949208F3
:101E600080E2E0CFEF3140F481E08E0F80933705C0
:101E7000F0E0E95EFA4FC083CF9108950E94E9082F
:101E800084EE91E00C94E9080E94EB0884EE91E066
:101E90000C94E908E7E1F5E010A211A281E082A329
:101EA00080E2DF011D928A95E9F78DE994E00E94B6
:101EB000440F80E894E00C94440FCF93DF93EC013F
:101EC0008DE293E00E94EB08CE010E94EB088AE2CB
:101ED00093E0DF91CF910C94EB087F928F929F92C9
:101EE000AF92BF92CF92DF92EF92FF920F931F9328
:101EF000CF93DF93CDB7DEB7C058D1090FB6F894B2
:101F0000DEBF0FBECDBF8C01FC0183A074A0C78CC7
:101F1000B0A0A1A092A00E949F1AD82EF801F08C28
:101F2000E18C0E949215F801248935892130310510
:101F300009F470C02230310509F46EC02DE27F92A1
:101F40008F929F92AF92BF92CF921F92DF92EF92A9
:101F5000FF929F938F931F922F93F80187851F9273
:101F60008F9386858F9385858F9384858F938385C3
:101F70008F9382851F928F9385818F9384818F9316
:101F800083818F9382818F9389E891E09F938F93D0
:101F90008E010F5F1F4F1F930F930E94091E0FB6F4
:101FA000F894DEBF0FBECDBF81E020E0F801E80F5E
:101FB000F11D9081911132C0F80101900020E9F7E4
:101FC000CF011F922F9324ED31E03F932F93019780
:101FD0009F938F930E94091EC8010E94E9080F90E9
:101FE0000F900F900F900F900F90C058DF4F0FB6CB
:101FF000F894DEBF0FBECDBFDF91CF911F910F913F
:10200000FF90EF90DF90CF90BF90AF909F908F9018
:102010007F90089526E493CF22E591CF29278F5F03
:10202000C5CFCF93DF93EC018CED91E00E94E908DE
:10203000CE010E94E90884EE91E0DF91CF910C94EB
:10204000E9088DE093E00E94440F8EEE92E00E943A
:10205000440F84EC92E00E94440F89EA92E00E94CF
:10206000440F89E792E00E94440F84E592E00E94C9
:10207000440F81E392E00E94440F82E192E00E94CB
:10208000440F8FEE91E00E94440F8BEC91E00E9490
:10209000440F8AEA91E00E94440F89E891E00E948F
:1020A000440F8BE691E00E94440F8CE491E00E9483
:1020B000440F8AE291E00E94440F84E091E00E9484
:1020C000440F85EE90E00E94440F84EE90E00C9463
:1020D000440FEF92FF920F931F93CF93DF93CDB7EF
:1020E000DEB7C058D1090FB6F894DEBF0FBECDBF22
:1020F00080913805882379F11092060562EE71E02F
:1021000087E195E00E949C1DF0900605009719F06C
:1021100027E02F1570F510923805FF2079F0009117
:1021200007051091080567EE71E0C8010E94A11D26
:10213000892B81F588E296E00E946D0F1092370599
:10214000E7E1F5E080E2DF011D928A95E9F781E1A0
:1021500093E00E94E908C058DF4F0FB6F894DEBF45
:102160000FBECDBFDF91CF911F910F91FF90EF90E8
:10217000089521E02F0D20930605EF2DF0E0EE0FDE
:10218000FF1FE95FFA4F9183808362EE71E090E078
:1021900080E0B8CF6EEE71E0C8010E94A11D892BCE
:1021A00001F58091420680FD05C08FE694E00E9413
:1021B0005D0FC4CF0E94B515882319F083E694E023
:1021C000F6CF0E94C115882349F080E694E00E9472
:1021D000440F82EF91E00E941110B0CF86E594E0A9
:1021E000E6CF6FE071E0C8010E94A11D892B71F458
:1021F0000E944A16882339F083E594E00E94440F38
:102200008FEF91E0E8CF8AE494E0D1CF6BE072E009
:10221000C8010E94A11D892BA9F48091420680FD6E
:1022200003C081E494E0C3CF0E945916882339F09B
:102230008EE394E00E94440F8FE092E0CCCF86E3DF
:1022400094E0B5CF69E471E0C8010E94A11D892B1B
:1022500009F05BC081E08F1510F56BEE72E08091A4
:10226000090590910A050E94A11D892BC1F4809156
:102270002D068F9380912C068F9380912B068F9340
:1022800080912A068F938EE192E09F938F938E0127
:102290000F5F1F4F1F930F930E94091EBBC08091B9
:1022A000420680FD03C08DE294E081CFB1E084E27C
:1022B00094E0BF1508F07BCF0091090510910A0545
:1022C000C8010E94E60E811103C08AE194E06FCF3D
:1022D000C8010E947E1D97FD07C0209163063091C2
:1022E00064062817390718F480E194E060CF9093D2
:1022F000290680932806BC0181E596E00E94EF1A2A
:102300008DE094E00E94440F19CF6AE272E0C801A8
:102310000E94A11D892B29F580913C0690913D06D4
:1023200081309105D1F00297D1F482E51F928F930D
:102330008FE292E09F938F938E010F5F1F4F1F9349
:102340000F930E94091EC8010E943E0F0F900F902C
:102350000F900F900F900F90F1CE86E4E7CF8DE2B3
:10236000E5CF66E372E0C8010E94A11D892B09F048
:102370005AC0809179068F93809178068F938091CF
:1023800077068F93809176068F93809175061F92C2
:102390008F93809174068F93809173068F938091B1
:1023A00072068F93809171068F93809170068F9340
:1023B00080916F068F9380916E068F9380916D064A
:1023C0008F9380916C068F9380916B068F93809191
:1023D0006A068F93809169068F93809168068F9328
:1023E000809167068F93809166068F938091650632
:1023F0008F93809164068F93809163068F938BE314
:1024000092E09F938F938E010F5F1F4F1F930F9347
:102410000E94091EC8010E943E0F0FB6F894DEBF4D
:102420000FBECDBF8BCE63E672E0C8010E94A11D36
:10243000892B09F026C192E09F1560F400910B05ED
:1024400010910C05C8010E94E60E811106C08AEFAA
:1024500093E0ADCE84E094E0AACEE0900905F09040
:102460000A05C8010E947E1D8C0167E672E0C70163
:102470000E94A11D892B81F4C801845F91408D3792
:10248000954118F080EF93E092CE1093640600938C
:1024900063068DEE93E036CF6EE672E0C7010E94D0
:1024A000A11D892B79F4C801C297873B934018F08E
:1024B00083EE93E07CCE109366060093650680EE73
:1024C00093E020CF65E772E0C7010E94A11D892B30
:1024D000C9F4C8018456910985359B4018F086EDF2
:1024E00093E065CE109368060093670640916906F5
:1024F00050916A06B80181E596E00E940D1B83EDBC
:1025000093E000CF6BE772E0C7010E94A11D892B09
:10251000C9F4C8018456910985359B4018F089ECAF
:1025200093E045CE10936A060093690660916706B2
:1025300070916806A80181E596E00E940D1B86EC6B
:1025400093E0E0CE61E872E0C7010E94A11D892BF3
:10255000B1F4C801885C91098930974018F08CEB80
:1025600093E025CE10936C0600936B06B801110F13
:10257000880B990B0E948D1889EB93E0C3CE6AE813
:1025800072E0C7010E94A11D892BB9F48FEA93E084
:10259000013020E1120708F00ACE10936E06009376
:1025A0006D0640916F0650917006B80187E196E084
:1025B0000E941F198CEA93E0A5CE6DE872E0C70176
:1025C0000E94A11D892BB9F4013082E0180718F090
:1025D00082EA93E0ECCD1093700600936F06609151
:1025E0006D0670916E06A80187E196E00E941F19A2
:1025F0008FE993E087CE60E972E0C7010E94A11DD8
:10260000892B81F4C801885E9340813B964318F082
:1026100085E993E0CCCD109372060093710682E9B0
:1026200093E070CE64E171E0C7010E94A11D892B87
:1026300089F480917106909172068017910718F0C5
:1026400088E893E0B4CD109374060093730685E890
:1026500093E058CE63E271E0C7010E94A11D892B6F
:1026600069F4C801CC978135910518F08BE793E0A8
:102670009ECD0093750688E793E044CE8EE693E006
:1026800096CD66E571E0C8010E94A11D892B91F4E9
:102690000E947D16882339F08BE693E00E94440F58
:1026A00086E992E098CD80E693E00E945D0F8DE987
:1026B00092E091CD60EB72E0C8010E94A11D892BD0
:1026C00091F40E94951A8C01892B19F40E949A1A90
:1026D0008C01C8010E94C71A9F938F931F930F9379
:1026E00086EB92E0D2CD61EC72E0C8010E94A11DA0
:1026F000892B59F48FE493E00E94440F84E493E023
:102700000E94440F88E393E0FDCD68EC72E0C801BD
:102710000E94A11D892B91F5609147067091480692
:102720008091490690914A0620914C062F93209162
:102730004B062F9320E13EE040E050E00E940E1D4A
:10274000122F032FF42EE52E2CE330E040E050E072
:102750000E940E1D5F934F933F932F93EF92FF9232
:102760000F931F938FEC92E09F938F938E010F5FD7
:102770001F4F1F930F930E94091E4CCE67EE72E00D
:10278000C8010E94A11D892BF9F487E196E00E94FF
:102790002B19182F092F87E196E00E9425190F9316
:1027A0001F939F938F937F936F93809170068F9366
:1027B00080916F068F9380916E068F9380916D0646
:1027C0008F938DEE92E0D0CF6FEF72E0C8010E9440
:1027D000A11D892B39F485E393E00E94440F84E026
:1027E00093E0F9CC6CE073E0C8010E94A11D892B35
:1027F00019F40E942110A2CC88E794E0D8CC8091F3
:102800003805089581E0809361000E947507609308
:102810003D0570933E0580933F05909340050895D4
:10282000CF92DF92EF92FF92CF93DF930097A1F0C8
:1028300020916100222381F0EC018E899F89089705
:10284000029788F480913A05811106C0CE010E945A
:102850006D0F81E080933A05DF91CF91FF90EF906B
:10286000DF90CF90089510923A050E9475076B0192
:102870007C0180913D0590913E05A0913F05B0916E
:102880004005A7019601281B390B4A0B5B0BDA01A7
:10289000C901883E9340A105B105F0F2CE010E9426
:1028A0006D0FC0923D05D0923E05E0923F05F0923B
:1028B0004005D2CFCF92DF92EF92FF920F931F93FA
:1028C000CF93DF93CDB7DEB7C054D1090FB6F894DC
:1028D000DEBF0FBECDBF20913B0530913C052817D0
:1028E000390759F17B018C0190933C0580933B059E
:1028F0000E949F1AC82EF701D384F484C8010E9455
:10290000C71A1F92CF92FF92DF929F938F9384E119
:1029100093E09F938F931F9280E48F938E010F5FBC
:102920001F4F1F930F930E94D91DC8010E941110C1
:102930000FB6F894DEBF0FBECDBFC05CDF4F0FB641
:10294000F894DEBF0FBECDBFDF91CF911F910F91E5
:10295000FF90EF90DF90CF900895CF93DF93EC013D
:1029600020914105309142052330310521F58091B8
:10297000470690914806A0914906B0914A064091B9
:102980004306509144066091450670914606840FB7
:10299000951FA61FB71F8093470690934806A093E4
:1029A0004906B0934A0610924306109244061092CC
:1029B0004506109246063093440520934305D09374
:1029C0004205C093410510924E0510924F0510929A
:1029D000500510925105C430D10509F455C048F591
:1029E000C130D105C1F1C230D10509F046C0809196
:1029F00047059091480590933D0680933C0687E1FA
:102A000096E00E94151981E596E00E947A1B80915C
:102A10004B0690914C06019690934C0680934B0682
:102A200010925605109257051092580510925905AC
:102A300024C0C530D10521F0CE0107970397E8F4F3
:102A400010923D0610923C0610923106109230060C
:102A50001092320612C010923D0610923C0610925F
:102A60003106109230061092320687E196E00E94FD
:102A7000151981E596E00E947A1BD0933F06C0931A
:102A80003E06DF91CF91089570E060E081E596E029
:102A90000E94EF1AF2CF8091410590914205853056
:102AA000910550F4029768F0809147059091480590
:102AB0000E94AB0C0C94E10C8530910511F0079746
:102AC00031F490E080E00E94AB0C0C94EA0C0C9482
:102AD000F50CE1E4F5E01182108213821282178274
:102AE000168211861086128613861486158616861F
:102AF0001786108A84EF91E0A0E0B0E0818B928B82
:102B0000A38BB48B158A168A178A108E118E128E9B
:102B1000138E148E81E0858F0895809141059091E8
:102B20004205089580914105909142058A309105B2
:102B300040F4880F991FFC01EF59FB4F8081918170
:102B4000089588E293E008958091470590914805A3
:102B5000089520914105309142052250310981E0CC
:102B60002230310508F080E0089520914105309130
:102B700042052850310981E02230310508F080E01B
:102B800008950F931F93CF93DF93CDB7DEB7C05552
:102B9000D1090FB6F894DEBF0FBECDBF80914206BB
:102BA00081701F928F938DE293E09F938F938E019C
:102BB0000F5F1F4F1F930F930E94091EC8010E94B1
:102BC000B608809142060F900F900F900F900F90D3
:102BD0000F9080FD06C00E94D6099093290680932D
:102BE00028060E94951A9F938F93809166068F9373
:102BF000809165068F93809129068F938091280696
:102C00008F93809142058F93809141058F9389E343
:102C100093E09F938F931F930F930E94091EC80107
:102C20000E94B6080FB6F894DEBF0FBECDBF00916C
:102C300041051091420587EF93E00130110569F4D9
:102C400020912806309129068091650690916606AC
:102C50002817390788F480E693E00E94B60880E0E0
:102C6000C05BDF4F0FB6F894DEBF0FBECDBFDF9164
:102C7000CF911F910F9108958DE693E00E94B608C1
:102C8000109348050093470582E090E00E94AD1440
:102C900081E0E6CF8091410590914205029702972D
:102CA00030F484E090E00E94AD1481E0089580E06B
:102CB000089580914105909142050397E1F4809138
:102CC0004B05811118C080914705909148050197E7
:102CD00079F482E090E090934A058093490581E081
:102CE00080934B0584E090E00E94AD1481E008954C
:102CF00081E090E0F0CF80E008950F931F93CF9391
:102D0000DF93CDB7DEB7C055D1090FB6F894DEBF5B
:102D10000FBECDBF10914206169511700E94951AF4
:102D20001F921F939F938F93809142058F93809161
:102D300041058F9388E793E09F938F938E010F5FF8
:102D40001F4F1F930F930E94091EC8010E94B608CF
:102D500080914105909142050FB6F894DEBF0FBEF9
:102D6000CDBF8830910519F50E94951A892BC9F4B9
:102D70008DE993E00E94B60810924C050E94891AD2
:102D800081E090E00E94AD1481E0C05BDF4F0FB6A0
:102D9000F894DEBF0FBECDBFDF91CF911F910F9191
:102DA00008958EEA93E00E94B60880E0EECF09977E
:102DB00061F48091420681FD05C087EC93E00E949A
:102DC000B608DECF8EED93E0EECF81EF93E0EBCF50
:102DD0008091410590914205099749F081E08093E7
:102DE0004D0589E090E00E94AD1481E0089580E0F7
:102DF0000895AF92BF92CF92DF92EF92FF920F931E
:102E00001F93CF93DF93CDB7DEB7C456D1090FB66A
:102E1000F894DEBF0FBECDBF80915E05811114C056
:102E20000E946915CC59DF4F0FB6F894DEBF0FBE74
:102E3000CDBFDF91CF911F910F91FF90EF90DF9069
:102E4000CF90BF90AF90089580914E0590914F051F
:102E5000A0915005B09151058C599F4FAF4FBF4F76
:102E600080934E0590934F05A0935005B093510564
:102E7000E0914105F09142052091420621FF26C1D3
:102E8000399711F00E94E8160E944B15CBCF809124
:102E9000830690918406892B19F481E090E002C0AA
:102EA00088E090E00E94AD14EFCF109231061092AE
:102EB000300610923206E8CFD0905605C0905705E4
:102EC000B0905805A0905905E0902C06F0902D0682
:102ED00000912A0610912B0681E596E00E94771B4F
:102EE000AF92BF92CF92DF929701201B310B37FF39
:102EF00003C03195219531093F932F93FF92EF92B3
:102F00001F930F931F928F9384E094E09F938F936E
:102F10008E010F5F1F4F1F930F930E94091EC80160
:102F20000E94B60881E596E00E94771B0FB6F894E0
:102F3000DEBF0FBECDBF882309F445C080912C06AB
:102F400090912D0620912A0630912B06821B930B1F
:102F500086509F4F853F9140B0F5809156059091E6
:102F60005705A0915805B091590584319105A105E7
:102F7000B105C0F40196A11DB11D80935605909333
:102F80005705A0935805B093590580915605909127
:102F90005705A0915805B09159054497A105B10571
:102FA00008F472CF84E394E00E94B60883E090E0D6
:102FB0000E94AD14109256051092570510925805B4
:102FC0001092590561CF88E294E00E94B608809182
:102FD000560590915705A0915805B0915905009755
:102FE000A105B10509F450CF0197A109B109C5CFD9
:102FF00020912806309129068091650690916606F9
:103000002817390708F040CF0E944A163DCF80911B
:103010002C0690912D061816190604F180915A0578
:1030200090915B05A0915C05B0915D050196A11D95
:10303000B11D80935A0590935B05A0935C05B093F6
:103040005D050397A105B10508F41ECF80914B05DE
:10305000882369F085E090E00E94AD1410925A0533
:1030600010925B0510925C0510925D050DCF87E014
:1030700090E0F2CF40915205509153056091540574
:103080007091550584179507A607B70708F4FCCE7D
:103090008091490590914A05909348058093470592
:1030A00010924B0582E090E0FDCE843F9140A10557
:1030B000B10508F4E9CEF1CE0E94951A892B09F0EA
:1030C000E3CE1092410610924006E7CEE930F105BA
:1030D00008F0DACEE259F74E0C944F1D47175517FA
:1030E0005C17F81707183A18441755185C18209100
:1030F0004105309142052830310569F021E02093E7
:103100004C05909341068093400688E090E00E9431
:10311000AD1481E0089580E00895609352057093A6
:10312000530580935405909355050895FC017183D0
:10313000608353834283148215821682178211861C
:1031400010868FE891E0938782871586148617860C
:10315000168681E0808B0895FC0171876087538714
:1031600042870895CF92DF92EF92FF920F931F93C1
:10317000FC01CB01841B950BAC01A281B3819C01A6
:103180000E94551D04811581268137816B017C01C8
:10319000C00ED11EE21EF31EA081B1819A010E94D1
:1031A000551D072F182F292F332727FD3A95BB27A9
:1031B000F7FCBA95AF2D9E2D8D2D080F191F2A1FD4
:1031C0003B1F82859385092E000CAA0BBB0B801731
:1031D0009107A207B30754F457FF16C02089222392
:1031E00099F0C482D582E682F7820EC080859185EF
:1031F000092E000CAA0BBB0B081719072A073B075F
:1032000074F41416150654F35587448797878687F8
:103210001F910F91FF90EF90DF90CF900895C4829F
:10322000D582E682F782C801EFCFFC0114821582B5
:103230001682178215861486178616860895FC0155
:1032400071836083538342830895FC016481758197
:10325000868197810895FC01848595850895EFE521
:10326000F5E0118210821382128214821582168276
:1032700017821086118680E89EEEA6E3B0E0828772
:103280009387A487B58716861786108A118A128AB3
:10329000138A0895CF92DF92EF92FF920F931F93BC
:1032A000CF93DF93CDB7DEB7A8970FB6F894DEBF04
:1032B0000FBECDBF8C017B01FC0185859685FB018E
:1032C000208D318D28173907B8F43F932F939F93A2
:1032D0008F9385E794E09F938F93CE0101966C01C5
:1032E0009F938F930E94091EC6010E94B6080FB6D5
:1032F000F894DEBF0FBECDBFF801828D81FD93C073
:1033000023853485F701838994892817390708F0C4
:1033100094C0409165055091660560916705709174
:1033200068058091690590916A05A0916B05B0913F
:103330006C05481759076A077B0708F081C0F80138
:103340009785F7018589981708F45EC080916D050F
:103350008F5F80936D05843108F075C0F801258575
:103360003685F701808D918D8217930708F04FC045
:1033700080916F058F5F80936F05823008F066C083
:10338000F801428524813581433308F443C0243653
:1033900031050CF03FC0809170058F5F8093700500
:1033A0008E3108F056C0F801808191818C509E4F7B
:1033B0008217930794F5809171058F5F8093710553
:1033C0008A3008F049C0453158F1232B49F58091E6
:1033D00072058F5F80937205843108F040C01092AF
:1033E000600510925F0590E080E0A8960FB6F89413
:1033F000DEBF0FBECDBFDF91CF911F910F91FF9028
:10340000EF90DF90CF90089510926D05A7CF1092A6
:103410006F05B6CF10927005C6CF10927105D3CF4D
:1034200010927205DCCF81E090E09093600580936C
:103430005F0521E020936305D8CF82E090E0F5CFCF
:1034400083E090E0F2CF84E090E0EFCF86E090E080
:10345000ECCF87E090E0E9CF88E090E0E6CF89E02C
:1034600090E0E3CF8F929F92AF92BF92CF92DF9284
:10347000EF92FF92B0E0A0E06C017D01C61AD70A7E
:10348000E108F108A7019601C701B6010E94EA1CF4
:103490008090650590906605A0906705B0906805DE
:1034A0001C141D041E041F04DCF428EE33E040E06D
:1034B00050E00E94301D820E931EA41EB51E809205
:1034C000650590926605A0926705B0926805FF9029
:1034D000EF90DF90CF90BF90AF909F908F90089526
:1034E00020EA3FE040E050E00E94301D28153905F9
:1034F0004A055B0528F4821A930AA40AB50ADFCFAD
:103500001092650510926605109267051092680585
:10351000DECFEFE5F5E01482118210821686178661
:10352000108A118A128A138A089580915F059091FA
:103530006005089580916105909162050895CF928C
:10354000DF92EF92FF92C0906905D0906A05E090FB
:103550006B05F0906C0580E0C114D104E104F10426
:1035600089F020916505309166054091670550917D
:103570006805A4E6B0E00E94731DA70196010E94B1
:103580000E1D822FFF90EF90DF90CF9008958A302C
:10359000910540F4880F991FFC01E357FB4F808190
:1035A0009181089585E894E00895FC0111821082CC
:1035B000138212821582148288E592E097838683B3
:1035C00084E893E09187808788EC90E093878287F6
:1035D00088EB9BE09587848781E086870895FC01CE
:1035E0001616170624F01182108216860895948507
:1035F0008585228533856217730734F0292F382F8C
:10360000621773070CF49B0131832083EECFFC011A
:1036100073876287558744870895FC0177836683A3
:103620005187408708950F931F93CF93DF93FC0139
:10363000C081D181028113819E01201B310B1216A2
:10364000130654F54681578164E6649FC001659F67
:10365000900D112468EE73E00E94FA1C6217730744
:103660000CF49B01200F311F33832283228133818D
:10367000209769F537FF02C01382128282819381FD
:1036800095838483C817D90711F421E02687DF9139
:10369000CF911F910F9108952115310539F3408580
:1036A000518564E6649FC001659F900D112468EE0A
:1036B00073E00E94FA1C3195219531096217730756
:1036C0000CF49B01021B130B13830283CFCF548591
:1036D0004585828593852817390734F0852F942FE7
:1036E000281739070CF4C90193838283C7CFFC01E3
:1036F00086850895FC011382128215821482168633
:103700000895E1E8F5E01182108213821282158299
:1037100014821782168210861186128613861486EA
:10372000158616861786118A108A108E799686E07D
:10373000E731F80741F71092800510927C0510924E
:103740007D0510927E0510927F05109278051092EB
:10375000790510927A0510927B050E947507609397
:103760007405709375058093760590937705109294
:10377000730508954F925F926F927F92AF92BF92BE
:10378000CF92DF92EF92FF920F931F93CF93DF932D
:103790000E9475076B017C01B12C89E1A82E8091F4
:1037A0008005B81608F464C0809174059091750581
:1037B000A0917605B0917705A7019601281B390BDA
:1037C0004A0B5B0BDA01C901883E9340A105B105A4
:1037D00008F43FC0209178053091790540917A0531
:1037E00050917B0540907C0550907D0560907E0552
:1037F00070907F05420E531E641E751E41145104C5
:103800006104710471F0A4E6B0E00E94731DA3018D
:1038100092010E940E1D80917305821710F420936F
:103820007305109278051092790510927A0510921E
:103830007B0510927C0510927D0510927E051092FA
:103840007F05C0927405D0927505E0927605F092DE
:103850007705DF91CF911F910F91FF90EF90DF904F
:10386000CF90BF90AF907F906F905F904F900895F2
:103870000B2D10E0A09EE001A19ED00D1124CF578A
:10388000DA4F888D882309F477C088819981892B44
:1038900009F472C08C859D85AE85BF85C816D90692
:1038A000EA06FB0608F468C00E9475072B013C017C
:1038B0004C8A5D8A6E8A7F8AE881F98109950E9427
:1038C0007507DC01CB0184199509A609B7094A8857
:1038D0005B88712C612C481659066A067B0610F429
:1038E0009B8B8A8B409078055090790560907A0583
:1038F00070907B05480E591E6A1E7B1E409278050B
:103900005092790560927A0570927B05A09EF00135
:10391000A19EF00D1124EF57FA4F24813581808547
:103920009185A285B385B701A601481B590B6A0B87
:103930007B0BC9010596B0E0A0E084179507A607A8
:10394000B70728F4808991890196918B808BA09E7E
:10395000F001A19EF00D1124EF57FA4FC086D186D9
:10396000E286F386D701C601820F931FA11DB11D08
:1039700084879587A687B787B39411CFDC01909190
:103980008005963028F5109719F189E1989FF0018C
:103990001124EF57FA4FB183A08373836283558359
:1039A0004483378326831086118612861386A901E5
:1039B00070E060E04487558766877787118A108AB0
:1039C000138A128A81E0808F9F5F9093800508950B
:1039D00080E00895DB018F939F930E94731DBF9138
:1039E000AF91A29F800D911DA39F900DB29F900D4E
:1039F00011240895AA1BBB1B51E107C0AA1FBB1FBE
:103A0000A617B70710F0A61BB70B881F991F5A956A
:103A1000A9F780959095BC01CD010895A1E21A2ED9
:103A2000AA1BBB1BFD010DC0AA1FBB1FEE1FFF1F62
:103A3000A217B307E407F50720F0A21BB30BE40BB2
:103A4000F50B661F771F881F991F1A9469F76095F9
:103A50007095809590959B01AC01BD01CF010895B3
:103A6000052E97FB1EF400940E94471D57FD07D0BA
:103A70000E940E1D07FC03D04EF40C94471D509578
:103A80004095309521953F4F4F4F5F4F089590954A
:103A90008095709561957F4F8F4F9F4F0895EE0FE2
:103AA000FF1F0590F491E02D09940E945D1D3323C2
:103AB00012F48A1B9B0B0C946E1DA29FB001B39F46
:103AC000C001A39F700D811D1124911DB29F700D27
:103AD000811D1124911D08950E945D1DB7FF089559
:103AE000821B930B08950E945D1DA59F900DB49FAE
:103AF000900DA49F800D911D11240895FC0188272D
:103B00009927E89421912032E9F3293010F02E30E2
:103B1000C8F32B3241F02D3239F4689404C00E946E
:103B2000D11D820F911D219120532A30C0F31EF424
:103B3000909581959F4F089542EA54E00E94AA1DF6
:103B40000895FB01DC018D91019080190110D9F3DA
:103B5000990B0895FA01A191B081009719F410977B
:103B6000E1F0CD01DC01CD010D90002011F4C00188
:103B700013C0FB012191222319F02015D9F7F3CFAF
:103B8000FB012191201519F41E92119606C02223E3
:103B9000C1F70D900020A1F7D001FA01A193B083E5
:103BA00008957AE0979F902D879F802D910D112485
:103BB0000895AEE0B0E0EFEDFDE10C94B8200D8982
:103BC0001E898F89988D26E02C831A83098397FF9D
:103BD00002C080E090E801979E838D83AE01455E30
:103BE0005F4F698D7A8DCE0101960E942C1E4D810A
:103BF0005E8157FD0AC02F813885421753070CF4A8
:103C00009A01020F131FF80110822E96E4E00C9423
:103C1000D420AEE0B0E0EFE0FEE10C94B8200D89D6
:103C20001E8986E08C831A8309838FEF9FE79E832A
:103C30008D83AE01475E5F4F6F89788DCE0101960F
:103C40000E942C1E2F813885020F131FF80110824D
:103C50002E96E4E00C94D420ABE0B0E0E2E3FEE189
:103C60000C94AA207C013B018A01FC011782168278
:103C7000838181FFC8C1CE0101965C01F701938168
:103C8000F30193FD859193FF81913F01882309F40E
:103C900053C1853239F493FD859193FF81913F01A2
:103CA000853229F4B70190E00E941C20E7CF912CC7
:103CB000212C312CFFE1F31538F08B3211F190F407
:103CC000803209F1833229F137FC3CC020ED280F06
:103CD0002A3050F536FE20C08AE0989E200D11242F
:103CE000922E06C08D3291F0803371F7689430F8CF
:103CF000F30193FD859193FF81913F018111DACF0B
:103D000021C0689431F8689432F8F2CF689433F89F
:103D1000EFCF689434F8ECCFEAE02E9E200D11240A
:103D2000222E689435F8E4CF8E3229F436FC04C193
:103D3000689436F8DDCF8C3619F4689437F8D8CF0C
:103D40008836B1F2982F9F7D95549330E0F08336FA
:103D5000A1F18337C1F1833509F063C02801F2E096
:103D60004F0E511CF801C080D180692D70E036FCE7
:103D700002C06FEF7FEFC6010E9406204C016894DD
:103D800037F882010AC00C5F1F4FFFE3F9838824D4
:103D90008394912C6501E89437F833FE2DC0522CA2
:103DA0008114910471F5552009F468CFB70180E2C0
:103DB00090E00E941C205A94F6CFF80180818983FC
:103DC0000E5F1F4FE4CF2801F2E04F0E511CF801A7
:103DD000C080D180692D70E036FC02C06FEF7FEFAC
:103DE000C6010E9411204C018201D5CFB70180E2AB
:103DF00090E00E941C202A942814190409F0B0F7BE
:103E0000CECFF60137FC859137FE81916F01B70166
:103E100090E00E941C2051105A94F1E08F1A9108F2
:103E2000BFCF843619F0893609F077C0F80137FE24
:103E30006BC060817181828193810C5F1F4FF32D74
:103E4000FF763F2E97FF09C09095809570956195FC
:103E50007F4F8F4F9F4F689437F82AE030E0A501DD
:103E60000E944C20C82ECA188C2C432C36FE0CC045
:103E7000E89440F8C91440F434FE05C032FC03C095
:103E8000F32DFE7E4F2E892C44FE95C0FE01EC0DD5
:103E9000F11D8081803309F087C0242D297E422EB8
:103EA000842D8870582E43FC95C040FE8FC09C2CFA
:103EB000821418F42C0C922C981844FE91C0B7016F
:103EC00080E390E00E941C2042FE09C088E790E059
:103ED00041FE02C088E590E0B7010E941C20C91491
:103EE00008F48AC0CA94D12C9FEFC91AD90ACA0C07
:103EF000DB1CF60182916F01B70190E00E941C204B
:103F0000AC14BD04B1F74FCF60817181072E000C56
:103F1000880B990B0E5F1F4F92CFD32CE894D4F8E7
:103F20002AE030E0853739F1232D297FD22E8F36D4
:103F300001F148F48835A9F0F701868197812B9625
:103F4000E2E10C94C620803749F08837A9F7D4FE07
:103F500002C06894D2F820E130E00DC06894D4F833
:103F6000F6CF34FE03C0822F8660D82E20E132E0E7
:103F700002C028E030E0F801D7FE0FC060817181F7
:103F8000828193810C5F1F4FA5010E944C20C82E97
:103F9000CA183D2CE89437F867CF6081718190E0B2
:103FA00080E00E5F1F4FF0CF42FC02C0839478CFB9
:103FB0008394839475CF842D867809F471CFF6CFDE
:103FC000B70180E290E00E941C2083948214C0F329
:103FD000512C73CF522C5818821408F46ECFF8CF9E
:103FE000842D867809F47BCF8BE241FE80E247FC8A
:103FF0008DE2B70190E071CFB70180E390E00E94BD
:104000001C209A946CCF8FEF9FEF99CFFC01059005
:10401000615070400110D8F7809590958E0F9F1FCA
:104020000895FC016150704001900110D8F780950F
:1040300090958E0F9F1F08950F931F93CF93DF933B
:10404000182F092FEB018B8181FD09C01FEF0FEFA6
:10405000812F902FDF91CF911F910F91089582FFB3
:1040600014C02E813F818C819D81281739073CF433
:10407000E881F981CF0101969983888310838E812D
:104080009F8101969F838E83E3CFE885F985812FF9
:104090000995892BA1F3DACFFA01AA27283051F12B
:1040A000203181F1E8946F936E7F6E5F7F4F8F4F69
:1040B0009F4FAF4FB1E03ED0B4E03CD0670F781FC8
:1040C000891F9A1FA11D680F791F8A1F911DA11DAD
:1040D0006A0F711D811D911DA11D20D009F46894E6
:1040E0003F912AE0269F11243019305D3193DEF68E
:1040F000CF010895462F4770405D4193B3E00FD044
:10410000C9F7F6CF462F4F70405D4A3318F0495D2E
:1041100031FD4052419302D0A9F7EACFB4E0A69511
:104120009795879577956795BA95C9F70097610533
:10413000710508959B01AC010A2E06945795479589
:1041400037952795BA95C9F7620F731F841F951F7E
:10415000A01D08952F923F924F925F926F927F928F
:104160008F929F92AF92BF92CF92DF92EF92FF9287
:104170000F931F93CF93DF93CDB7DEB7CA1BDB0B33
:104180000FB6F894DEBF0FBECDBF09942A883988D8
:1041900048885F846E847D848C849B84AA84B984DF
:1041A000C884DF80EE80FD800C811B81AA81B981EB
:1041B000CE0FD11D0FB6F894DEBF0FBECDBFED01FF
:0641C0000895F894FFCF02
:1041C6000401802500000300000000000100030038
:1041D6000100020003000400563D25752053544F8C
:1041E60052453D25750D0A0050616E656C0043759C
:1041F6007272656E7400436F6E74726F6C004C431E
:104206004400536C6F7753656E736F727300546519
:104216006C656D65747279003900360033003000C4
:104226003B003800350032003A00370034003100D8
:1042360053505F5241573D25750D0A00532534648E
:104246002041253464202563002533752525202546
:1042560031752E253175412025327556004E4F4E4B
:1042660045002120545249505045442021004553D1
:10427600544F500053484F5254004F5645524C4FDE
:104286004144004F56455254454D5000554E444505
:1042960052564F4C54004F564552564F4C540053AD
:1042A60054414C4C004F5645525350454544004EE0
:1042B6004F464545444241434B000E0114011A0145
:1042C60023012C0136013F0145014F010040434FB8
:1042D600554E543D257520494E53543D2564204680
:1042E600494C543D25640D0A00244D442C53503D41
:1042F60025642C52503D25642C443D25642C493DB3
:1043060025642C563D25752C543D25642C44495274
:104316003D25632C53543D25732C54523D25642C66
:104326004932543D25642C52483D256C752C534327
:104336003D2564002A253032580D0A002145565481
:104346002C0020090D0A0053544154555300525570
:104356004E0053544152542C52454D4F5445005330
:10436600544F502C52454D4F54450052455600521D
:104376004556455253452C52454D4F5445005350D2
:104386004545443D25642C2564004449523F00447C
:1043960049523D2563004346473F004346473D2576
:1043A600642C25642C25642C25642C25642C25641A
:1043B6002C25642C25642C25642C25642C25642C42
:1043C600256400534554004D415852504D004D4907
:1043D6004E52504D00414343454C00444543454CE5
:1043E600004445414454494D45004B50004B49005B
:1043F60052415445440041434B2C4F4B0041434BE3
:104406002C524546555345442C4143544956450084
:10441600545249503F00545249503D25642C25734F
:104426000054524950533F00484F5552533F00489D
:104436004F5552533D2530326C753A2530326C75E6
:104446002C53433D25640054554E453F0054554E6C
:10445600453D25642C25642C256C642C256400536D
:1044660041564500534156452C4F4B0048454C504C
:10447600003E2000545249502C25732C493D257589
:104486002C4932543D257500554E4B4E0052454D34
:104496004F54453D25640D0A0053544152543A2069
:1044A60053544154453D25642053503D2564204DC9
:1044B600494E3D256420545249503D25640D0A005D
:1044C6004641494C2053504545440D0A005354413A
:1044D6005254204F4B0D0A0052455345543A20532F
:1044E600544154453D2564204143544956453D2594
:1044F60064204553544F503D25640D0A00524553E0
:1045060045542D3E53544F505045440D0A005245D4
:10451600534554204641494C204143544956452071
:10452600545249500D0A00524553455420455354A0
:104536004F502D3E53544F505045440D0A0052459E
:10454600534554204641494C204553544F500D0A7B
:10455600005245534554204641494C20535441543A
:10456600450D0A0052543D25752052523D256420C2
:104576004D523D256420444946463D256420434E20
:10458600543D256C750D0A00524553455420434E43
:10459600540D0A0052554E4E494E470D0A00494EDB
:1045A60049540053545254005244574E0044454116
:1045B600440042524B00434F415354005452495019
:1045C600003E040F014304EE0148044D0452045614
:1045D600045C040E014255533D2575204C494D3D62
:1045E60025750D0A00554E4B4E4F574E00FD000ED9
:1045F6000114011A0123012C0136013F0145014F27
:024606000100B1
:00000001FF
