:100000000C942A000C9434000C9434000C943400AA
:100010000C9434000C9434000C9434000C94340090
:100020000C9434000C9434000C9434000C94340080
:100030000C9434000C9434000C9434000C94340070
:100040000C9434000C9434000C9434000C94340060
:100050000C94340011241FBECFE5D8E0DEBFCDBF25
:100060000E94A6010C94D4010C940000843030F45A
:10007000683020F4442329F0413011F181E090E010
:10008000089521E030E001C0220F6A95EAF720953B
:10009000823071F0833081F0813021F08AB32823DF
:1000A0002ABB03C087B3282327BB90E080E00895D4
:1000B00084B3282324BBF9CF81B3282321BBF5CFF8
:1000C00021E030E001C0220F6A95EAF7823051F05A
:1000D000833059F0813019F08AB3282BE1CF87B3F0
:1000E000282BE2CF84B3282BE5CF81B3282BE6CF92
:1000F000843030F4683020F4442329F0413011F189
:1001000081E090E0089521E030E001C0220F6A957F
:10011000EAF72095823071F0833081F0813021F050
:100120008BB328232BBB03C088B3282328BB90E0C4
:1001300080E0089585B3282325BBF9CF82B3282317
:1001400022BBF5CF21E030E001C0220F6A95EAF72B
:10015000823051F0833059F0813019F08BB3282B65
:10016000E1CF88B3282BE2CF85B3282BE5CF82B32C
:10017000282BE6CF843000F56830F0F421E030E041
:1001800001C0220F6A95EAF7823071F0833081F066
:10019000813031F08BB328272BBB90E080E00895AD
:1001A00088B3282728BBF9CF85B3282725BBF5CFEF
:1001B00082B3282722BBF1CF81E090E008958430FC
:1001C00080F4823051F0833051F0813021F06ABBED
:1001D00090E080E0089567BBFBCF64BBF9CF61BBC3
:1001E000F7CF81E090E00895843080F4823051F0C0
:1001F000833051F0813021F06BBB90E080E00895B6
:1002000068BBFBCF65BBF9CF62BBF7CF81E090E065
:1002100008958430C0F46830B0F4823081F08330C7
:1002200081F0813051F089B390E002C095958795B7
:100230006A95E2F7817090E0089586B3F5CF83B3B5
:10024000F3CF80B3F1CF80E0F6CF843078F4823002
:1002500049F0833049F0813019F089B390E0089576
:1002600086B3FCCF83B3FACF80B3F8CF80E0F6CF6C
:10027000FC01892B31F080818130F1F028F083304E
:10028000E9F081E090E008953E983F983D983898D5
:1002900039983A983B983C983098319832988181B7
:1002A00080FD309A818181FD319A818182FD329A6F
:1002B000379A90E080E008953E9AE7CF3E9A3F9AC1
:1002C000E5CF379890E080E00895883088F438983A
:1002D00039983A983B983C9880FD389A81FD399A34
:1002E0008695869509F03A9A369A90E080E00895CE
:1002F00081E090E0089586B1829586958695837019
:10030000809581700895009759F034B125B1232765
:1003100032272327FC013183208390E080E0089579
:1003200081E090E00895CF93DF93EB010E94650197
:10033000009749F40E947B018823E1F3CE01DF910D
:10034000CF910C948301DF91CF91089541E063E058
:1003500080E00E94360041E063E081E00E943600C8
:1003600040E063E082E00E94360040E063E083E02A
:100370000E94360063E082E00E940901D82F63E00A
:1003800083E00E940901C82F41E0D13009F040E02C
:1003900063E080E00E94780041E0C11140E063E04A
:0C03A00081E00E947800E6CFF894FFCFC7
:00000001FF
