:100000000C9460020C94C0050C9495050C947D0230
:100010000C947D020C947D020C947D020C947D0264
:100020000C947D020C947D020C94E6060C947D02E7
:100030000C947D020C9407090C944B090C947D02DE
:100040000C947D020C947D020C947D020C947D0234
:100050000C947D0245525220414354495645004577
:100060005252205245560045525220535441525448
:1000700000424F4F54343A205343484544554C4571
:10008000522052454144592C2052554E4E494E471C
:100090002E2E2E0D0A00424F4F54333A2048414C29
:1000A000204F4B0D0A00424F4F54323A204D4341EE
:1000B0004C204F4B0D0A00424F4F54313A205541CE
:1000C0005254204F4B0D0A000D0A2D2D2D2053594F
:1000D0005354454D205354415254494E47202D2DE1
:1000E0002D0D0A000048454C5020202020202020C3
:1000F0002020202D2053686F772074686973206D4D
:10010000656E750053415645202020202020202078
:1001100020202D205361766520636F6E666967200D
:10012000746F20454550524F4D0054554E453F2069
:1001300020202020202020202D2053686F77205061
:100140004920696E7465726E616C7300484F555238
:10015000533F20202020202020202D2053686F771F
:100160002072756E20686F75727300545249505337
:100170003F20202020202020202D2053686F772032
:1001800074726970206C6F6700545249503F202090
:10019000202020202020202D2053686F77206163AD
:1001A0007469766520747269700041434B20202089
:1001B00020202020202020202D2041636B6E6F778F
:1001C0006C65646765207472697000534554203C07
:1001D000706172616D3E203C76616C75653E202DCC
:1001E0002053657420706172616D6574657200439F
:1001F00046473F202020202020202020202D205353
:10020000686F7720636F6E66696775726174696F76
:100210006E004449523F2020202020202020202012
:100220002D2053686F7720646972656374696F6EFF
:100230000053504545443F20202020202020202DE1
:100240002053686F772063757272656E74207370C7
:10025000656564005350454544203C6E3E20202097
:1002600020202D205365742073706565642028302C
:100270002D6D617852706D29005245562020202046
:10028000202020202020202D205265766572736565
:1002900020646972656374696F6E202872656D6F82
:1002A0007465206F6E6C79290053544F50202020C4
:1002B000202020202020202D2053746F70206D6F6F
:1002C000746F720052554E202020202020202020C4
:1002D00020202D205374617274206D6F746F722012
:1002E0002872656D6F7465206F6E6C7929005354A8
:1002F0004154555320202020202020202D205368B9
:100300006F772074656C656D65747279000D0A3DB8
:100310003D3D20417661696C61626C6520436F6D83
:100320006D616E6473203D3D3D000D0A00455252E3
:100330004F523A20004F4B003D3D3D20456E64201A
:100340003D3D3D005452502C302C4E4F4E45003D0B
:100350003D3D2054726970204C6F67203D3D3D004B
:1003600045525220414354495645004F4B00455297
:100370005220504152414D004F4B004552522052A5
:10038000414E4745004F4B004552522052414E4787
:1003900045004F4B004552522052414E4745004FB9
:1003A0004B004552522052414E4745004F4B0045AD
:1003B00052522052414E4745004F4B004552522069
:1003C00052414E4745004F4B004552522052414E3C
:1003D0004745004F4B004552522052414E47450081
:1003E0004F4B004552522052414E4745004F4B0063
:1003F0004552522052414E474500455252205241EB
:100400004E4745004552522041524753004F4B0042
:100410004552522052414E474500455252205241CA
:100420004E474500455252204152475300455252D3
:10043000204D4F44450045525220524556004F4BE7
:1004400000455252204D4F444500455252205354CE
:100450004F50004F4B0045525220535441525400CC
:100460004F4B00455252205452495050454400458C
:100470005252204D4F44450045525220434D4400B6
:100480000D0A547970652048454C5020666F7220E3
:10049000636F6D6D616E64730D0A3E20000D0A4935
:1004A0006E647573747269616C204D6F746F722025
:1004B000436F6E74726F6C6C65722076312E3000F3
:1004C00011241FBECFE5D8E0DEBFCDBF14E0A0E60B
:1004D000B0E0E0E2F4E402C005900D92A039B1076B
:1004E000D9F726E0A0E9B4E001C01D92A837B20711
:1004F000E1F70E941F040C940E220C94000063E0AC
:1005000083E00E94480691E0813009F090E08091FC
:10051000340690FB81F9809334060E94B30E0E944A
:10052000970F8330910509F44AC058F58130910541
:10053000A1F10297D9F10E948B1660E083309105FA
:1005400039F08230910519F0049709F042C061E05A
:1005500081E00E94AA0F0E94B3168823E9F181E08E
:100560000E94C40F0E94A2160E94CC0F0E94A00FEE
:1005700090913406882391F19E7F909334060C94D9
:10058000160B8430910511F10597A9F60E94A91761
:10059000811110C084E590E006C00E94BF16811151
:1005A00009C087E690E00E945B10C5CF0E944E17FD
:1005B000882309F284E090E00E94F00ABCCF0E94F8
:1005C00084178111F7CF8FE590E0EDCF0E941D0DCC
:1005D000B2CF60E080E0BDCF80E0C2CF9160CDCFF0
:1005E000EF92FF920F931F93CF93DF93CDB7DEB7B8
:1005F000A8970FB6F894DEBF0FBECDBF0E94251896
:100600000E94D50D0E94470E90931F0680931E06F0
:100610008091340680FF5DC080911A0690911B0680
:10062000BC0183E496E00E941C1C83E496E00E94D7
:10063000401C90931D0680931C0620911E0630914D
:100640001F06821B930B909321068093200662E580
:1006500076E08AE196E00E949C1A8C01009709F4EA
:1006600054C01F938F9384E593E09F938F93CE01A3
:1006700001967C019F938F930E94361FC7010E94B1
:10068000D008C8010E94C9190E94930D0F900F90C5
:100690000F900F900F900F9080919204909193047F
:1006A0008017910749F06AE176E0C8010E94581569
:1006B0001093930400939204A8960FB6F894DEBFAB
:1006C0000FBECDBFDF91CF911F910F91FF90EF90A3
:1006D00008950E94F00990931B0680931A06A0CFFC
:1006E00040911E0650911F0660911C0670911D06D8
:1006F00089E096E00E94041A0E946A0D80912E06FD
:1007000090912F060E94490DD7CF1092930410921A
:1007100092040E94A7168111E3CF89E096E00E941F
:10072000671A90E080E0E8CFCF93DF930E94C21B6E
:10073000EC010E94B316882329F0CE01DF91CF91FE
:100740000C94000D8AE196E0DF91CF910C94650C3A
:10075000EF92FF920F931F93CF93DF93CDB7DEB746
:10076000C055D1090FB6F894DEBF0FBECDBF0E94B1
:10077000780A0AE116E0F801858796879F938F93A0
:100780009F938F9386E790E09F938F93CE0101967E
:100790007C019F938F930E94361FC7010E94D0084F
:1007A0000E94BC0AF80187870FB6F894DEBF0FBE1F
:1007B000CDBFC05BDF4F0FB6F894DEBF0FBECDBF1D
:1007C000DF91CF911F910F91FF90EF9008958AE1F3
:1007D00096E00C940E15CF93DF930E94340AEC013F
:1007E00090932606809325066091630670916406B7
:1007F0000E945F1B8091650690916606C817D90715
:10080000C8F082E090E00E94C91980919404909110
:100810009504029761F06AE176E082E090E00E9440
:10082000581582E090E09093950480939404DF91B2
:10083000CF9108951092950410929404F8CFCF931D
:10084000DF93CDB7DEB768970FB6F894DEBF0FBE63
:10085000CDBFF8948AE0E2E6F0E0DE011196019067
:100860000D928A95E1F7CE0101960E9436087894A0
:1008700088EC90E00E94E20887EB90E00E94E2089A
:1008800080EA96E8A1E0B0E08B8B9C8BAD8BBE8BB1
:10089000CE0143960E948B09FF24F394FF8A87E0E0
:1008A000888FCE0147960E947B06BE01655F7F4F11
:1008B00080E00E94BB06BE01655F7F4F81E00E9421
:1008C000BB06BE01655F7F4F82E00E94BB06BE0192
:1008D000655F7F4F83E00E94BB060E94CE060E94A8
:1008E000660780916C0090916D00A0916E00B091B0
:1008F0006F008F87988BA98BBA8B1C861B8603E0B1
:1009000010E01E870D87CE010F960E94FF07CE01D3
:100910000B960E94FF0786EA90E00E94E2080E9480
:100920005A0C0E94B00D0E94DE090E944C0E0E94DB
:10093000DB0A0E94210D86E990E00E94E20884E42F
:100940009DE49093530680935206F092540688EBF0
:100950009BE0909356068093550688EC90E0909328
:1009600058068093570688E592E090935A06809344
:10097000590684E893E090935C0680935B0684EFCD
:1009800091E090935E0680935D0680E891E09093FD
:10099000600680935F068AE190E090936206809300
:1009A000610680E49FE1909364068093630680E58E
:1009B00096E490936606809365068EE680936706BC
:1009C00080E29EE4909369068093680688ED96ED38
:1009D00090936B0680936A0610936D0600936C06E5
:1009E00010926E0610926F061092700610927106A9
:1009F0001092730610927206109274061092760688
:100A000010927506109277064AE150E060E871E0B6
:100A100089E096E00E94E8194FE851E068E270E052
:100A200089E096E00E94FE1983E496E00E94021C91
:100A300040915506509156066091570670915806A0
:100A400083E496E00E94341C40915B0650915C0662
:100A50006091590670915A0683E496E00E943A1C10
:100A60000E94811A0E94671660915D0670915E0671
:100A700090E080E00E94DF190E9448100E9400155B
:100A800084EF9FE00E94F6080E94780A909328065F
:100A9000809327060E94AE1C30E020E04AE050E040
:100AA00066E870E08FE792E00E94EB1D21E030E005
:100AB00042E350E06CE870E08BEE93E00E94EB1DA7
:100AC00022E030E044E650E064E970E080EF92E03C
:100AD0000E94EB1D24E030E04AEF50E06CE970E04A
:100AE00084E993E00E94EB1D23E030E044EF51E005
:100AF00060EA70E088EA93E00E94EB1D25E030E0B8
:100B000048EE53E06CEA70E087EE93E00E94EB1D44
:100B100081E790E00E94E2080E94E71C0E94FD1419
:100B20008823D1F30E946711F7CF1F920F920FB65F
:100B30000F9211242F933F934F935F936F937F9363
:100B40008F939F93AF93BF93EF93FF9390E080E0D9
:100B50000E944B07C198C09881E080939604FF9152
:100B6000EF91BF91AF919F918F917F916F915F9125
:100B70004F913F912F910F900FBE0F901F9018959E
:100B80001F920F920FB60F9211242F933F934F9302
:100B90005F936F937F938F939F93AF93BF93EF93E5
:100BA000FF930E94A60DFF91EF91BF91AF919F918E
:100BB0008F917F916F915F914F913F912F910F9006
:100BC0000FBE0F901F9018958430E0F46830D0F479
:100BD000E82FF0E0EE0FFF1FEA53FF4F0190F08186
:100BE000E02D81E090E001C0880F6A95EAF79081DE
:100BF000413029F4892B808390E080E0089580952E
:100C00008923F9CF81E090E008958430D8F46830EA
:100C1000C8F441155105B1F0E82FF0E0EE0FFF1FC9
:100C2000EA54FF4F0190F081E02D808190E002C0F6
:100C3000959587956A95E2F78170FA01808390E037
:100C400080E0089581E090E008958430E0F4683019
:100C5000D0F4E82FF0E0EE0FFF1FE254FF4F0190B9
:100C6000F081E02D81E090E001C0880F6A95EAF7FD
:100C70009081413029F4892B808390E080E00895B1
:100C800080958923F9CF81E090E008950C942506A2
:100C9000CF93DF931F92CDB7DEB71982AE014F5FBE
:100CA0005F4F0E94050689810F90DF91CF910895D3
:100CB0008430B8F46830A8F4E82FF0E0EE0FFF1F9E
:100CC000E254FF4F0190F081E02D808121E030E07F
:100CD00001C0220F6A95EAF78227808390E080E0C6
:100CE000089581E090E0089591E0411101C090E005
:100CF000492F0C942506892B71F03E9A3F983D9818
:100D0000389839983A983B983098319A329A379A6D
:100D100090E080E0089581E090E00895883080F4CC
:100D2000389839983A983B9880FD389A81FD399ADD
:100D30008695869509F03A9A369A90E080E0089573
:100D400081E090E00895009759F034B125B1232750
:100D500032272327FC013183208390E080E008952F
:100D600081E090E0089586B182958695869583709E
:100D7000809581700895CF93DF93EB010E948E06DA
:100D8000009749F40E94B3068823E1F3CE01DF9176
:100D9000CF910C94A306DF91CF91089583B78F7BF9
:100DA00083BF83B7886083BF12BE89EF8CBF83B7D0
:100DB0008B7F83BF83B7826083BF83B7816083BF2C
:100DC00089B7826089BF90E080E008951F920F92FA
:100DD0000FB60F9211242F933F934F935F936F930E
:100DE0007F938F939F93AF93BF93EF93FF938091E4
:100DF000970490919804A0919904B0919A04019657
:100E0000A11DB11D8093970490939804A093990419
:100E1000B0939A04E0919B04F0919C04309709F000
:100E20000995FF91EF91BF91AF919F918F917F9124
:100E30006F915F914F913F912F910F900FBE0F9047
:100E40001F9018958FB58E7F8FBD8FB582608FBD37
:100E50008EB588608EBD8EB580618EBD8FB58F7B5F
:100E60008FBD8FB580688FBD1DBC1CBC8FE891E025
:100E700097BD86BD8EB58B7F8EBD8EB58D7F8EBDA9
:100E80008EB581608EBD41E065E083E00E94E4059F
:100E900090E080E0089585369105A8F4009729F444
:100EA0001BBC1ABC90E080E008959C01AFE8B1E063
:100EB0000E948A1E24E630E040E050E00E943B1E83
:100EC0003BBD2ABDEFCF81E090E0089585B58F7BD3
:100ED00085BD85B5886085BD14BC85B5846085BD3C
:100EE00085B58D7F85BD85B5816085BD85B58F7DD7
:100EF00085BD85B5806185BD41E067E083E00E94E6
:100F0000E40590E080E008958F3F910509F020F41A
:100F100083BD90E080E0089581E090E008952FB7D0
:100F2000F89460919704709198048091990490913D
:100F30009A042FBF08958330910588F4813091057C
:100F400041F0029749F08BB780648BBF90E080E05E
:100F500008958BB78068F9CF8BB78062F6CF81E0B8
:100F600090E0089583309105A8F48130910509F14E
:100F70000297C1F185B78E7F85BF85B78D7F85BF0D
:100F80006130710551F060F06230710579F06330C5
:100F9000710549F081E090E0089585B7816085BFD3
:100FA00090E080E0089585B7816085BF85B7826055
:100FB000F6CF85B78B7F85BF85B7877F85BF6130CB
:100FC000710569F068F36230710531F063307105C5
:100FD00009F785B7846085BF85B78860E0CF85B79E
:100FE0008460DDCF6230710531F06330710591F6B8
:100FF00084B7806402C084B78F7B84BFD1CFCF9386
:10100000DF93EC01892B99F08881998183309105D8
:1010100070F46A817B810E94B207009751F4888145
:1010200099818130910589F038F0029789F081E04B
:1010300090E0DF91CF9108958AB780648ABF88815C
:101040009981DF91CF910C949B078AB78068F6CF86
:101050008AB78062F3CF039730F481E090E0672B8A
:1010600021F080E0089581E090E00895CF93DF9330
:10107000EC01892B09F44CC088819981AA81BB813C
:101080000097A105B10509F443C09C01AD0184E0BE
:10109000220F331F441F551F8A95D1F760E074E279
:1010A00084EF90E00E943B1E21503109832F8F7006
:1010B00080BD29B98E81829580739885990F990F8B
:1010C000990F9870892B80689C81990F9670892B55
:1010D00080BD8C819D810797C9F4529A539A549A86
:1010E000579A1092B6041092B5041092B40410925C
:1010F000B3041092A2041092A1041092A0041092C2
:101100009F0490E080E0DF91CF9108955298E6CF60
:1011100081E090E0F8CF2091B5043091B6042F5FC4
:101120003F4F2F7133274091B3045091B4044217BD
:101130005307C9F39FB7F894E091B504F091B60452
:10114000E954FB4F80833093B6042093B5049FBFCE
:10115000559A90E080E008954FB7F8942091B50437
:101160003091B6042F5F3F4F2F7133276091B30446
:101170007091B4046217730781F0E091B504F091A7
:10118000B604E954FB4F80833093B6042093B50432
:10119000559A90E080E04FBF089581E090E0FBCF4A
:1011A000CF93DF93EC01892B29F481E090E007C015
:1011B0000E948B0889918111FBCF90E080E0DF9144
:1011C000CF910895CF93DF93EC01892B29F481E02F
:1011D00090E009C00E948B08FE0184912196811144
:1011E000F9CF90E080E0DF91CF910895009741F032
:1011F00090939E0480939D04579A90E080E0089518
:1012000081E090E008950C94D0080C94E2081F92BD
:101210000F920FB60F9211242F933F934F935F932A
:101220006F937F938F939F93AF93BF93EF93FF93AE
:101230008CB12091A1043091A2042F5F3F4F2F70F9
:10124000332740919F045091A0044217530759F04F
:10125000E091A104F091A204ED55FB4F80833093FF
:10126000A2042093A104E0919D04F0919E04309784
:1012700009F00995FF91EF91BF91AF919F918F91E7
:101280007F916F915F914F913F912F910F900FBE82
:101290000F901F9018951F920F920FB60F92112466
:1012A0002F933F938F939F93EF93FF932091B504D8
:1012B0003091B6048091B3049091B4042817390793
:1012C000F1F0E091B304F091B404E954FB4F2081B4
:1012D0008091B3049091B40401968F7199279093F3
:1012E000B4048093B3042CB9FF91EF919F918F9137
:1012F0003F912F910F900FBE0F901F90189555980A
:10130000F3CF88E480B90898099886B7846086BFCF
:1013100090E080E008950C94810984EA86BF90E013
:1013200080E006B607FE08C021B1287F81E090E08A
:10133000283049F480E008950196813127E2920730
:1013400081F781E090E0089584E986BF90E080E035
:10135000089583B984E886BF90E080E006B607FE72
:101360000AC021B1287F283171F081E090E0283255
:1013700049F480E008950196813127E2920771F7E0
:1013800081E090E0089580E0FCCFCF93DF93D82FE9
:10139000C62F0E948D09009761F48D2F880FC170B0
:1013A0008C2B0E94A909009721F084E986BF81E077
:1013B00090E0DF91CF9108950C94A909CF93DF932A
:1013C00000D0CDB7DEB781E0898387E08A83CE0184
:1013D00001960E947B060F900F90DF91CF910895A8
:1013E0000F931F93CF93DF93CDB7DEB7AA970FB6B6
:1013F000F894DEBF0FBECDBF1AA619A6BE01675D69
:101400007F4F80E00E94BB068AA58F9389A58F93AA
:101410008EEC90E09F938F938E010F5F1F4F1F9371
:101420000F930E94361FC8010E94D00829A53AA533
:10143000A8EBBBE00E948A1E0F900F900F900F90B8
:101440000F900F902FEF33E040E050E00E943B1EE2
:10145000C901AA960FB6F894DEBF0FBECDBFDF91CB
:10146000CF911F910F9108950F931F93CF93DF9307
:10147000CDB7DEB7A2970FB6F894DEBF0FBECDBFD3
:101480001AA219A2BE016F5D7F4F81E00E94BB06C8
:101490008AA18F9389A18F9381ED90E09F938F9381
:1014A0008E010F5F1F4F1F930F930E94361FC801BD
:1014B0000E94D00829A13AA1A0E2BEE40E948A1E9F
:1014C0000F900F900F900F900F900F902FEF33E031
:1014D00040E050E00E943B1EC901A2960FB6F8946E
:1014E000DEBF0FBECDBFDF91CF911F910F91089549
:1014F0000F931F93CF93DF93CDB7DEB7AA970FB6A5
:10150000F894DEBF0FBECDBF1AA619A6BE01675D57
:101510007F4F82E00E94BB068AA58F9389A58F9397
:1015200081ED90E09F938F938E010F5F1F4F1F936C
:101530000F930E94361FC8010E94D00829A53AA522
:10154000A0E6BAEE0E948A1E2FEF33E040E050E0A2
:101550000E943B1E0F900F900F900F900F900F90D6
:10156000C901AA960FB6F894DEBF0FBECDBFDF91BA
:10157000CF911F910F910895CF93DF9300D0CDB7F6
:10158000DEB71A821982BE016F5F7F4F83E00E942F
:10159000BB0629813A81A6E9B0E00E948A1E2FEF9E
:1015A00033E040E050E00E943B1E822F0F900F90EE
:1015B000DF91CF910895CF93DF930E946607EC01EE
:1015C00090E080E00E9484071092DB041092DA041D
:1015D0001092D9041092D804CE01DF91CF910895D2
:1015E0009093DB048093DA041092D9041092D8040B
:1015F00081309105A9F068F00597A8F090E080E0AF
:101600000E9484071092DB041092DA0481E090E0DB
:10161000089590E080E00E94840790E080E00895C3
:1016200086E990E0F8CF8CE390E0F5CF2091DA04E2
:101630003091DB042115310509F446C02330310512
:1016400009F442C08091D8049091D90401962430C5
:101650003105A9F48A30910528F49093D904809338
:10166000D80408951092D9041092D80490E080E034
:101670000E9484071092DB041092DA04089542E37A
:1016800050E02130310511F04AE050E08417950711
:1016900020F31092D9041092D8048091D7048823A3
:1016A00039F090E080E00E9484071092D7040895FA
:1016B00086E990E02130310511F08CE390E00E9442
:1016C000840781E08093D7040895CF93DF93009738
:1016D00031F4C1E0D0E0CE01DF91CF910895C62F63
:1016E00060E0FC0180810E94C509892B91F780E0B0
:1016F0000E94DC09892B19F00E94A409EACF8C2FE3
:101700000E94DC09EC01892BB9F70E94A4098FE340
:101710009FE10197F1F700C00000DDCFCF93DF9389
:10172000009731F4C1E0D0E0CE01DF91CF91089570
:10173000C62F60E0FC0180810E94C509892B91F7CA
:1017400080E40E94DC09892B19F00E94A409EACFE9
:101750008C2F0E94DC09EC01892BB9F70E94A409A7
:101760008FE891E00197F1F700C00000DDCF00970E
:1017700081F0FC012181621760F42281421748F454
:10178000E62FF0E0E659FE4F6081640F60680C942C
:10179000650B81E090E008950F931F93CF93DF9343
:1017A000EB01209711F4C4EED1E040E0682F8CEDFE
:1017B00094E00E94B70B8E01005F1F4F6991611189
:1017C00001C060E28CED94E00E948E0BC017D1073F
:1017D000A9F7DF91CF911F910F910895CF92DF92DA
:1017E000EF92FF921F93CF93DF93EC01142F7901B7
:1017F000892B61F4CC24C394D12CC601DF91CF9105
:101800001F91FF90EF90DF90CF900895232B91F3DD
:101810008981681778F78A81481760F7CE010E949E
:10182000B70B6C01892B31F78A81181730F7F70154
:101830006081662351F0FFEFEF1AFF0ACE010E948C
:101840008E0B892BB9F61F5FEFCF60E2F7CF61E017
:101850000E94650BEFE3FFE13197F1F700C0000054
:101860000895CF93DF93009729F481E090E0DF9112
:10187000CF910895EC0168E30E94650B892BA9F7CD
:1018800084E0809360006CE0CE010E94650B892BA0
:1018900061F7CE010E94270C892B39F766E0CE0153
:1018A0000E94650B31E020E0892B09F430E0832FA2
:1018B000922FDDCFECEDF4E08EE3808382E0818334
:1018C00080E18283CF010C94310CDF92EF92FF9282
:1018D0000F931F93CF93DF93CDB7DEB7A2970FB6C9
:1018E000F894DEBF0FBECDBFFC01892B81F481E0EF
:1018F00090E0A2960FB6F894DEBF0FBECDBFDF9189
:10190000CF911F910F91FF90EF90DF900895848900
:1019100095898130910509F46FC0029709F46EC072
:101920009DE28F011F929F9385818F9384818F9376
:1019300083818F9382818F938AED90E09F938F9321
:101940001F9281E1D82EDF927E0122E1E20EF11C8E
:10195000FF92EF920E94061FD8011B96ED91FC9119
:101960001C971D968D919C9128EE33E0B9010E9441
:10197000271E7F936F93CF0164E670E00E94271EBD
:10198000CB016AE070E00E94271E9F938F93CF01E6
:10199000B9010E94271E7F936F93F80182851F92E1
:1019A0008F9387EE90E09F938F931F92DF928E012B
:1019B0000F5F1F4F1F930F930E94061F970140E078
:1019C00060E08CED94E00E94EE0B0FB6F894DEBF61
:1019D0000FBECDBF892B09F08ACF980140E061E0AE
:1019E0008CED94E00E94EE0B31E020E0892B09F4AD
:1019F00030E0832F922F7DCF96E493CF92E591CF65
:101A0000CF93DF930197CBEFD0E08930910538F485
:101A1000880F991FFC01E85AFE4FC081D18160E018
:101A200071E080E00E94CC0BBE0181E00E94CC0BF3
:101A300090E080E0DF91CF9108958CED94E00C94DC
:101A4000310C8091DF04811121C041E060E081E030
:101A50000E94E40541E061E081E00E94E40540E08D
:101A600060E081E00E94460640E061E081E00E9483
:101A700046060E94220790E080E00E944B071092E9
:101A8000E1041092E00481E08093DF0490E080E0C4
:101A900008958130910549F00297A1F040E060E09F
:101AA00081E00E94460640E013C040E061E081E032
:101AB0000E94460641E060E081E00E94460690E018
:101AC00080E0089540E060E081E00E94460641E049
:101AD00061E0F2CF2091E0043091E104232B29F45E
:101AE0001BBC1ABC90E080E008959C01203981E085
:101AF000380710F02FE831E03BBD2ABDF3CF81E07D
:101B000090E09093E1048093E00490E080E00895F9
:101B10001092E1041092E00490E080E00E944B07F4
:101B200090E080E0089590E080E00E944B0740E064
:101B300060E081E00E94460640E061E081E00E94B2
:101B400046061092E1041092E00408958091E404A6
:101B50009091E50401969093E5048093E404089540
:101B6000CF93DF9300D000D0CDB7DEB71092E5045D
:101B70001092E4041092E3041092E2041A82198293
:101B800083E090E09C838B83CE0101960E94FF0747
:101B900066EA7DE090E080E00E942B080F900F90B5
:101BA0000F900F90DF91CF9108958F929F92AF92F7
:101BB000BF92EF92FF920F931F93CF93DF93CDB716
:101BC000DEB7C055D1090FB6F894DEBF0FBECDBF4A
:101BD000F8940091E4041091E5041092E504109249
:101BE000E4047894F12CE12C0430110530F08CE3FE
:101BF000809F7001819FF00C1124A091E204B091AC
:101C0000E30423E030E00E94991E47010F2C000CF2
:101C1000AA08BB08680D791D8A1D9B1D24E030E0D1
:101C200040E050E00E945D1E3093E3042093E20404
:101C30008091E2049091E3049F938F93FF92EF923F
:101C40001F930F938CE691E09F938F938E010F5F0C
:101C50001F4F1F930F930E94361FC8010E94D00888
:101C60000FB6F894DEBF0FBECDBFC05BDF4F0FB61F
:101C7000F894DEBF0FBECDBFDF91CF911F910F91C2
:101C8000FF90EF90BF90AF909F908F9008958091BC
:101C9000E2049091E304089540E065E082E00E9450
:101CA000E40540E066E082E00E94E40540E067E091
:101CB00082E00E94E40540E066E083E00E94E405E3
:101CC00040E064E083E00E94E40541E065E082E0FA
:101CD0000E94740641E066E082E00E94740641E0E2
:101CE00067E082E00E94740641E066E083E00E94C3
:101CF000740641E064E083E00E94740641E063E022
:101D000081E00E94E40541E062E082E00E94E40597
:101D100041E063E082E00E94E40541E064E082E0AB
:101D20000E94E40540E063E081E00E94250640E077
:101D300062E082E00E94250640E063E082E00E94CB
:101D4000250640E064E082E00E9425061092F70438
:101D50001092F6041092E8041092E7041092E60440
:101D600090E080E00895CF92DF92FF920F931F934F
:101D7000CF93DF93CDB7DEB72A970FB6F894DEBFC7
:101D80000FBECDBF65E082E00E944806F82E66E0F7
:101D900082E00E944806082F67E082E00E94480621
:101DA000182F66E083E00E94480691E0F11090E071
:101DB0009F8391E0011190E0988791E0111190E0EC
:101DC000998791E0811190E09A8796E0E0E7F0E052
:101DD000DE01119601900D929A95E1F76091F6045B
:101DE0007091F7048E01095F1F4F2AEEC22E24E086
:101DF000D22EEEEEF4E030E020E0D8019D918D018E
:101E0000D6014D916D01941711F11082AD01415031
:101E10005109DA019C932F5F3F4F319623303105F2
:101E200061F77093F7046093F6049091ED048111CB
:101E30006BC091112FC01092F10481E08093ED04EA
:101E40001092E8041092E7041092E6044FC091301B
:101E5000D1F440814F5F40834530E8F2A9014E50F4
:101E60005B4FDA01FC90F110D6CF9C93A901440F8F
:101E7000551F61E070E06C0F7D1F460F571FDA01A0
:101E80006D917C91C8CF1082A9014E505B4FDA0151
:101E90001C92C1CF8091F104853018F48F5F80933C
:101EA000F1048091F104853008F18091E70490916C
:101EB000E8048C32B1E09B0728F401969093E80483
:101EC0008093E7048091E7049091E8048C3291407C
:101ED00068F08091E604811109C085E090E090935C
:101EE000F7048093F60481E08093E6042A960FB607
:101EF000F894DEBF0FBECDBFDF91CF911F910F9140
:101F0000FF90DF90CF900895913051F48091E604D6
:101F1000811106C084E090E09093F7048093F6046A
:101F20001092F1041092F5041092ED0489CF809183
:101F3000F6049091F7041092F7041092F6040895B5
:101F400064E083E00E94480691E0813009F090E06F
:101F5000892F0895662371F08091E9048F5F8A309C
:101F600018F48093E90408951092E90463E081E095
:101F70000C9458061092E90441E0811101C040E040
:101F800063E081E00C94250641E0811101C040E04E
:101F900062E082E00C9425068130910521F00297E1
:101FA00049F040E001C041E063E082E00E94250684
:101FB00040E006C040E063E082E00E94250641E088
:101FC00064E082E00C942506009761F0FC0120811A
:101FD000222341F08191811102C081E00895805354
:101FE0008A30C0F380E00895CF93C82F80912B05ED
:101FF000882319F08C2F0E94AC08E0912905C83085
:1020000011F0CF3781F4EE23A9F1E150E0932905D7
:10201000F0E0E75FFA4F108280E20E94AC0888E0AF
:10202000CF910C94AC08CD3011F0CA30C9F4EE2336
:1020300061F0F0E0E75FFA4F108281E080932A05BB
:102040008DE00E94AC088AE0EBCF8DE00E94AC08E6
:102050008AE00E94AC088EE30E94AC0880E2E0CFE8
:10206000EF3140F481E08E0F80932905F0E0E75FC7
:10207000FA4FC083CF9108950E94030982EE91E048
:102080000C9403090E94050982EE91E00C94030967
:10209000E9E0F5E010A211A281E082A380E2DF0175
:1020A0001D928A95E9F78DE994E00E94421080E83C
:1020B00094E00C944210CF93DF93EC018DE293E017
:1020C0000E940509CE010E9405098AE293E0DF9192
:1020D000CF910C9405097F928F929F92AF92BF92FD
:1020E000CF92DF92EF92FF920F931F93CF93DF93E4
:1020F000CDB7DEB7C058D1090FB6F894DEBF0FBE1A
:10210000CDBF8C01FC0183A074A0C78CB0A0A1A09E
:1021100092A00E94CC1BD82EF801F08CE18C0E947A
:102120009016F801248935892130310509F470C0F1
:102130002230310509F46EC02DE27F928F929F927A
:10214000AF92BF92CF921F92DF92EF92FF929F9336
:102150008F931F922F93F80187851F928F93868507
:102160008F9385858F9384858F9383858F938285C5
:102170001F928F9385818F9384818F9383818F9317
:1021800082818F9387E891E09F938F938E010F5FF9
:102190001F4F1F930F930E94361F0FB6F894DEBF98
:1021A0000FBECDBF81E020E0F801E80FF11D908166
:1021B000911132C0F80101900020E9F7CF011F9280
:1021C0002F9322ED31E03F932F9301979F938F93AD
:1021D0000E94361FC8010E9403090F900F900F90B4
:1021E0000F900F900F90C058DF4F0FB6F894DEBFDE
:1021F0000FBECDBFDF91CF911F910F91FF90EF9058
:10220000DF90CF90BF90AF909F908F907F90089578
:1022100026E493CF22E591CF29278F5FC5CFCF93B7
:10222000DF93EC018AED91E00E940309CE010E9448
:10223000030982EE91E0DF91CF910C9403098DE0C8
:1022400093E00E9442108EEE92E00E94421084ECD5
:1022500092E00E94421089EA92E00E94421089E7CF
:1022600092E00E94421084E592E00E94421081E3D5
:1022700092E00E94421082E192E00E9442108FEEB2
:1022800091E00E9442108BEC91E00E9442108AEA99
:1022900091E00E94421089E891E00E9442108BE692
:1022A00091E00E9442108CE491E00E9442108AE288
:1022B00091E00E94421084E091E00E94421085EE7D
:1022C00090E00E94421084EE90E00C944210EF9255
:1022D000FF920F931F93CF93DF93CDB7DEB7C05814
:1022E000D1090FB6F894DEBF0FBECDBF80912A058D
:1022F000882379F11092F80460EE71E089E095E0AE
:102300000E94C91EF090F804009719F027E02F15DD
:1023100070F510922A05FF2079F00091F9041091D0
:10232000FA0465EE71E0C8010E94CE1E892B81F58A
:102330008AE196E00E946B1010922905E9E0F5E031
:1023400080E2DF011D928A95E9F78FE093E00E9419
:102350000309C058DF4F0FB6F894DEBF0FBECDBFE4
:10236000DF91CF911F910F91FF90EF90089521E0A1
:102370002F0D2093F804EF2DF0E0EE0FFF1FE75034
:10238000FB4F9183808360EE71E090E080E0B8CFF6
:102390006CEE71E0C8010E94CE1E892B01F5809180
:1023A000340680FD05C08FE694E00E945B10C4CF28
:1023B0000E94B316882319F083E694E0F6CF0E94BA
:1023C000BF16882349F080E694E00E94421080EF17
:1023D00091E00E940F11B0CF86E594E0E6CF6DE06A
:1023E00071E0C8010E94CE1E892B71F40E944E1725
:1023F000882339F083E594E00E9442108DEF91E04C
:10240000E8CF8AE494E0D1CF69E072E0C8010E948D
:10241000CE1E892BA9F48091340680FD03C081E48F
:1024200094E0C3CF0E948417882339F08EE394E0B0
:102430000E9442108DE092E0CCCF86E394E0B5CFCD
:1024400067E471E0C8010E94CE1E892B09F05BC0D1
:1024500081E08F1510F569EE72E08091FB04909198
:10246000FC040E94CE1E892BC1F480911F068F931D
:1024700080911E068F9380911D068F9380911C067C
:102480008F938CE192E09F938F938E010F5F1F4F8C
:102490001F930F930E94361FBBC08091340680FDAE
:1024A00003C08DE294E081CFB1E084E294E0BF15F7
:1024B00008F07BCF0091FB041091FC04C8010E943E
:1024C000E40F811103C08AE194E06FCFC8010E943C
:1024D000AB1E97FD07C02091550630915606281770
:1024E000390718F480E194E060CF90931B06809345
:1024F0001A06BC0183E496E00E941C1C8DE094E067
:102500000E94421019CF68E272E0C8010E94CE1EFC
:10251000892B29F580912E0690912F068130910507
:10252000D1F00297D1F482E51F928F938DE292E071
:102530009F938F938E010F5F1F4F1F930F930E94E6
:10254000361FC8010E943C100F900F900F900F9003
:102550000F900F90F1CE86E4E7CF8DE2E5CF64E3F4
:1025600072E0C8010E94CE1E892B09F05AC08091EA
:102570006B068F9380916A068F93809169068F9383
:10258000809168068F93809167061F928F93809148
:1025900066068F93809165068F93809164068F9372
:1025A000809163068F93809162068F93809161067C
:1025B0008F93809160068F9380915F068F938091B7
:1025C0005E068F9380915D068F9380915C068F935A
:1025D00080915B068F9380915A068F938091590664
:1025E0008F93809158068F93809157068F93809197
:1025F00056068F93809155068F9389E392E09F93BF
:102600008F938E010F5F1F4F1F930F930E94361FF2
:10261000C8010E943C100FB6F894DEBF0FBECDBFBC
:102620008BCE61E672E0C8010E94CE1E892B09F0B4
:1026300026C192E09F1560F40091FD041091FE0404
:10264000C8010E94E40F811106C08AEF93E0ADCE6D
:1026500084E094E0AACEE090FB04F090FC04C80172
:102660000E94AB1E8C0165E672E0C7010E94CE1E7F
:10267000892B81F4C801845F91408D37954118F012
:1026800080EF93E092CE10935606009355068DEEA0
:1026900093E036CF6CE672E0C7010E94CE1E892B14
:1026A00079F4C801C297873B934018F083EE93E01A
:1026B0007CCE109358060093570680EE93E020CF0F
:1026C00063E772E0C7010E94CE1E892BC9F4C801DE
:1026D0008456910985359B4018F086ED93E065CED0
:1026E00010935A060093590640915B0650915C0680
:1026F000B80183E496E00E943A1C83ED93E000CF9A
:1027000069E772E0C7010E94CE1E892BC9F4C80197
:102710008456910985359B4018F089EC93E045CEAD
:1027200010935C0600935B066091590670915A06FF
:10273000A80183E496E00E943A1C86EC93E0E0CE88
:102740006FE772E0C7010E94CE1E892BB1F4C80169
:10275000885C91098930974018F08CEB93E025CE86
:1027600010935E0600935D06B801110F880B990B5C
:102770000E94DF1989EB93E0C3CE68E872E0C701DD
:102780000E94CE1E892BB9F48FEA93E0013020E13C
:10279000120708F00ACE1093600600935F0640917E
:1027A000610650916206B80189E096E00E94711AB4
:1027B0008CEA93E0A5CE6BE872E0C7010E94CE1EC2
:1027C000892BB9F4013082E0180718F082EA93E00F
:1027D000ECCD109362060093610660915F067091E4
:1027E0006006A80189E096E00E94711A8FE993E0E3
:1027F00087CE6EE872E0C7010E94CE1E892B81F45D
:10280000C801885E9340813B964318F085E993E0C8
:10281000CCCD109364060093630682E993E070CEFA
:1028200062E171E0C7010E94CE1E892B89F480917C
:102830006306909164068017910718F088E893E08A
:10284000B4CD109366060093650685E893E058CEF4
:1028500061E271E0C7010E94CE1E892B69F4C801B4
:10286000CC978135910518F08BE793E09ECD0093CE
:10287000670688E793E044CE8EE693E096CD64E564
:1028800071E0C8010E94CE1E892B91F40E94A91705
:10289000882339F08BE693E00E94421084E992E0AD
:1028A00098CD80E693E00E945B108BE992E091CD99
:1028B0006EEA72E0C8010E94CE1E892B91F40E943C
:1028C000C21B8C01892B19F40E94C71B8C01C80103
:1028D0000E94F41B9F938F931F930F9384EB92E0BE
:1028E000D2CD6FEB72E0C8010E94CE1E892B59F445
:1028F0008FE493E00E94421084E493E00E9442102F
:1029000088E393E0FDCD66EC72E0C8010E94CE1E24
:10291000892B91F56091390670913A0680913B06BA
:1029200090913C0620913E062F9320913D062F93D7
:1029300020E13EE040E050E00E943B1E122F032FBA
:10294000F42EE52E2CE330E040E050E00E943B1EE8
:102950005F934F933F932F93EF92FF920F931F93A9
:102960008DEC92E09F938F938E010F5F1F4F1F930B
:102970000F930E94361F4CCE65EE72E0C8010E9494
:10298000CE1E892BF9F489E096E00E947D1A182F5B
:10299000092F89E096E00E94771A0F931F939F9367
:1029A0008F937F936F93809162068F9380916106DE
:1029B0008F93809160068F9380915F068F938BEE4B
:1029C00092E0D0CF6DEF72E0C8010E94CE1E892B3D
:1029D00039F485E393E00E94421082E093E0F9CC61
:1029E0006AE073E0C8010E94CE1E892B19F40E9490
:1029F0001F11A2CC88E794E0D8CC80912A050895D5
:102A000081E0809361000E948F0760932F0570938F
:102A1000300580933105909332050895CF92DF926F
:102A2000EF92FF92CF93DF930097A1F02091610086
:102A3000222381F0EC018E899F890897029788F400
:102A400080912C05811106C0CE010E946B1081E09F
:102A500080932C05DF91CF91FF90EF90DF90CF9086
:102A6000089510922C050E948F076B017C018091C4
:102A70002F0590913005A0913105B0913205A70145
:102A80009601281B390B4A0B5B0BDA01C901883E02
:102A90009340A105B105F0F2CE010E946B10C092E7
:102AA0002F05D0923005E0923105F0923205D2CF59
:102AB000CF92DF92EF92FF920F931F93CF93DF930A
:102AC000CDB7DEB7C054D1090FB6F894DEBF0FBE44
:102AD000CDBF20912D0530912E052817390759F1CA
:102AE0007B018C0190932E0580932D050E94CC1BB9
:102AF000C82EF701D384F484C8010E94F41B1F92EE
:102B0000CF92FF92DF929F938F9382E193E09F9306
:102B10008F931F9280E48F938E010F5F1F4F1F933F
:102B20000F930E94061FC8010E940F110FB6F89460
:102B3000DEBF0FBECDBFC05CDF4F0FB6F894DEBF67
:102B40000FBECDBFDF91CF911F910F91FF90EF90FE
:102B5000DF90CF900895CF93DF93EC012091330560
:102B6000309134052330310521F58091390690915B
:102B70003A06A0913B06B0913C0640913506509133
:102B800036066091370670913806840F951FA61F90
:102B9000B71F8093390690933A06A0933B06B093F3
:102BA0003C061092350610923606109237061092A7
:102BB00038063093360520933505D0933405C093FD
:102BC0003305109240051092410510924205109273
:102BD0004305C430D10509F455C048F5C130D105CD
:102BE000C1F1C230D10509F046C0809139059091FC
:102BF0003A0590932F0680932E0689E096E00E9476
:102C0000671A83E496E00E94A71C80913D0690918C
:102C10003E06019690933E0680933D06109248052D
:102C20001092490510924A0510924B0524C0C530F8
:102C3000D10521F0CE0107970397E8F410922F06F3
:102C400010922E061092230610922206109224064D
:102C500012C010922F0610922E0610922306109288
:102C600022061092240689E096E00E94671A83E407
:102C700096E00E94A71CD0933106C0933006DF91E6
:102C8000CF91089570E060E083E496E00E941C1C00
:102C9000F2CF80913305909134058530910550F441
:102CA000029768F08091390590913A050E94490D8C
:102CB0000C947F0D8530910511F0079731F490E069
:102CC00080E00E94490D0C94880D0C94930DE3E371
:102CD000F5E0118210821382128217821682118609
:102CE0001086128613861486158616861786108A15
:102CF00084EF91E0A0E0B0E0818B928BA38BB48B4A
:102D0000158A168A178A108E118E128E138E148EC3
:102D100081E0858F08958091330590913405089561
:102D200080913305909134058A30910540F4880FE5
:102D3000991FFC01E15AFB4F80819181089586E241
:102D400093E008958091390590913A050895209176
:102D50003305309134052250310981E022303105AC
:102D600008F080E008952091330530913405285013
:102D7000310981E02230310508F080E008950F9399
:102D80001F93CF93DF93CDB7DEB7C055D1090FB6F0
:102D9000F894DEBF0FBECDBF8091340681701F92C4
:102DA0008F938BE293E09F938F938E010F5F1F4F62
:102DB0001F930F930E94361FC8010E94D008809174
:102DC00034060F900F900F900F900F900F9080FD92
:102DD00006C00E94F00990931B0680931A060E9479
:102DE000C21B9F938F93809158068F9380915706B3
:102DF0008F9380911B068F9380911A068F938091F9
:102E000034058F93809133058F9387E393E09F93ED
:102E10008F931F930F930E94361FC8010E94D00802
:102E20000FB6F894DEBF0FBECDBF009133051091F1
:102E3000340585EF93E00130110569F420911A06FD
:102E400030911B0680915706909158062817390734
:102E500088F48EE593E00E94D00880E0C05BDF4FED
:102E60000FB6F894DEBF0FBECDBFDF91CF911F919B
:102E70000F9108958BE693E00E94D00810933A05D5
:102E80000093390510923C0510923B0510923D05C8
:102E900082E090E00E94AB1581E0E0CF80913305A5
:102EA000909134059C01225031092230310560F4A3
:102EB00010923D0510923C0510923B0584E090E095
:102EC0000E94AB1581E008958430910559F4109269
:102ED000230610922206109224060E94930D81E090
:102EE00090E0EECF9C012D7F2530310581F30197D5
:102EF00049F41092230610922206109224060E9492
:102F0000930DE0CF80E008958091330590913405D2
:102F100002970297E0F480913D05811118C08091DD
:102F2000390590913A05019779F482E090E0909309
:102F30003C0580933B0581E080933D0584E090E073
:102F40000E94AB1581E0089581E090E0F0CF80E031
:102F500008950F931F93CF93DF93CDB7DEB7C0557E
:102F6000D1090FB6F894DEBF0FBECDBF1091340665
:102F7000169511700E94C21B1F921F939F938F93EF
:102F8000809134058F93809133058F9386E793E08A
:102F90009F938F938E010F5F1F4F1F930F930E947C
:102FA000361FC8010E94D0088091330590913405E6
:102FB0000FB6F894DEBF0FBECDBF8830910519F56E
:102FC0000E94C21B892BC9F48BE993E00E94D008B0
:102FD00010923E050E94B61B81E090E00E94AB1566
:102FE00081E0C05BDF4F0FB6F894DEBF0FBECDBFF0
:102FF000DF91CF911F910F9108958CEA93E00E9489
:10300000D00880E0EECF099761F48091340681FD0D
:1030100005C085EC93E00E94D008DECF8CED93E0F4
:10302000EECF8FEE93E0EBCF809133059091340596
:10303000099749F081E080933F0589E090E00E9484
:10304000AB1581E0089580E00895AF92BF92CF92D2
:10305000DF92EF92FF920F931F93CF93DF93CDB741
:10306000DEB7C456D1090FB6F894DEBF0FBECDBF90
:1030700080915005811114C00E946716CC59DF4F12
:103080000FB6F894DEBF0FBECDBFDF91CF911F9179
:103090000F91FF90EF90DF90CF90BF90AF90089589
:1030A0008091400590914105A0914205B091430562
:1030B0008C599F4FAF4FBF4F809340059093410570
:1030C000A0934205B093430520913406E091330567
:1030D000F091340521FF4CC1399711F00E9414186A
:1030E0000E944916CBCF8091750690917606892B68
:1030F00019F481E090E002C088E090E00E94AB15F6
:10310000EFCF109223061092220610922406E8CFE9
:1031100020FD06C00E94F00990931B0680931A06BA
:10312000D0904805C0904905B0904A05A0904B0545
:10313000E0901E06F0901F0600911C0610911D06DF
:1031400083E496E00E94A41CAF92BF92CF92DF92DC
:103150009701201B310B37FF03C0319521953109B1
:103160003F932F93FF92EF921F930F931F928F9392
:1031700082E094E09F938F938E010F5F1F4F1F9308
:103180000F930E94361FC8010E94D00883E496E086
:103190000E94A41C0FB6F894DEBF0FBECDBF8823DB
:1031A00009F445C080911E0690911F0620911C06CF
:1031B00030911D06821B930B86509F4F853F914097
:1031C000B0F58091480590914905A0914A05B091CC
:1031D0004B0584319105A105B105C0F40196A11DEF
:1031E000B11D8093480590934905A0934A05B0937B
:1031F0004B058091480590914905A0914A05B091F1
:103200004B054497A105B10508F46ACF82E394E029
:103210000E94D00883E090E00E94AB151092480510
:103220001092490510924A0510924B0559CF86E23B
:1032300094E00E94D0088091480590914905A091A2
:103240004A05B0914B050097A105B10509F448CF97
:103250000197A109B109C5CF20911A0630911B062B
:1032600080915706909158062817390708F038CFF3
:103270000E944E1735CF20911E0630911F06121660
:1032800013068CF140914C0550914D0560914E050F
:1032900070914F054F5F5F4F6F4F7F4F4330510528
:1032A0006105710570F440934C0550934D05609392
:1032B0004E0570934F05803D9740A105B10508F478
:1032C0000FCF10924C0510924D0510924E051092A2
:1032D0004F0580913D05882319F085E090E00ECFE1
:1032E00087E090E00BCF10924C0510924D051092A4
:1032F0004E0510924F05DFCF409144055091450592
:10330000609146057091470584179507A607B70792
:1033100008F4E6CE80913B0590913C0590933A05E8
:103320008093390510923D0510924C0510924D0581
:1033300010924E0510924F051092480510924905C3
:1033400010924A0510924B0582E090E0D7CE843F60
:103350009140A105B10508F4C3CECBCE0E94C21B9B
:10336000892B09F0BDCE1092330610923206C1CEE1
:10337000E930F10508F0B4CEE054F64E0C947C1E12
:103380007318811888182C193B197C197018A71903
:10339000AE1920913305309134052830310569F09C
:1033A00021E020933E05909333068093320688E017
:1033B00090E00E94AB1581E0089580E0089560934D
:1033C00044057093450580934605909347050895FD
:1033D000FC017183608353834283148215821682B9
:1033E0001782118610868FE891E093878287158671
:1033F00014861786168681E0808B0895FC017187FC
:103400006087538742870895CF92DF92EF92FF92B1
:103410000F931F93FC01CB01841B950BAC01A28180
:10342000B3819C010E94821E04811581268137810F
:103430006B017C01C00ED11EE21EF31EA081B18182
:103440009A010E94821E072F182F292F332727FD4C
:103450003A95BB27F7FCBA95AF2D9E2D8D2D080F01
:10346000191F2A1F3B1F82859385092E000CAA0B6A
:10347000BB0B80179107A207B30754F457FF16C080
:103480002089222399F0C482D582E682F7820EC079
:1034900080859185092E000CAA0BBB0B0817190714
:1034A0002A073B0774F41416150654F3558744870E
:1034B000978786871F910F91FF90EF90DF90CF90B5
:1034C0000895C482D582E682F782C801EFCFFC015D
:1034D0001482158216821782158614861786168620
:1034E0000895FC0171836083538342830895FC0136
:1034F00064817581868197810895FC018485958515
:103500000895E1E5F5E0118210821382128214829F
:103510001582168217821086118680E89EEEA6E339
:10352000B0E082879387A487B58716861786108AAE
:10353000118A128A138A08950F931F93FC01DB01ED
:10354000828D81FD9AC02385348553968D919C91FF
:1035500054972817390708F09AC000915705109121
:1035600058052091590530915A0540915B055091BD
:103570005C0560915D0570915E05041715072607CF
:10358000370708F087C0978555968C9155979817FF
:1035900008F461C080915F058F5F80935F0584317F
:1035A00008F07BC02585368556968D919C9157975E
:1035B0002817390708F052C0809160058F5F80930B
:1035C0006005853008F06CC058968D919C918217EB
:1035D000930708F046C0809161058F5F8093610575
:1035E000823008F060C092859333F0F124813581F8
:1035F00024363105CCF5809162058F5F809362059A
:103600008E3108F053C02081318129323A402CF4A8
:103610002481358129323A4054F1809163058F5FCE
:10362000809363058A3008F044C0953118F1848195
:103630009581892BF9F4809164058F5F80936405EF
:103640008431D0F5109252051092510590E080E03F
:103650001F910F91089510925F05A4CF10926005FD
:10366000B3CF10926105BFCF10926205CCCF1092FC
:103670006305DBCF10926405E5CF81E090E0909385
:1036800052058093510521E020935505E1CF82E05A
:1036900090E0F5CF83E090E0F2CF84E090E0EFCFD0
:1036A00085E090E0ECCF86E090E0E9CF87E090E025
:1036B000E6CF88E090E0E3CF89E090E0E0CF8F9222
:1036C0009F92AF92BF92CF92DF92EF92FF92B0E0C3
:1036D000A0E06C017D01C61AD70AE108F108A70134
:1036E0009601C701B6010E94171E80905705909061
:1036F0005805A0905905B0905A051C141D041E04CD
:103700001F04DCF428EE33E040E050E00E945D1E30
:10371000820E931EA41EB51E8092570590925805E6
:10372000A0925905B0925A05FF90EF90DF90CF908C
:10373000BF90AF909F908F90089520EA3FE040E0C7
:1037400050E00E945D1E281539054A055B0528F4E6
:10375000821A930AA40AB50ADFCF10925705109275
:1037600058051092590510925A05DECFE1E5F5E0B3
:1037700014821182108216861786108A118A128A84
:10378000138A089580915105909152050895809172
:103790005305909154050895CF92DF92EF92FF92D6
:1037A000C0905B05D0905C05E0905D05F0905E05F3
:1037B00080E0C114D104E104F10489F0209157059F
:1037C000309158054091590550915A05A4E6B0E052
:1037D0000E94A01EA70196010E943B1E822FFF900F
:1037E000EF90DF90CF9008958A30910540F4880FD4
:1037F000991FFC01E558FB4F80819181089583E773
:1038000094E00895FC0111821082138212821582C5
:10381000148288E592E09783868384E893E0918719
:10382000808788EC90E09387828788EB9BE0958780
:10383000848781E086870895FC011616170624F018
:103840001182108216860895948585852285338598
:103850006217730734F0292F382F621773070CF49F
:103860009B0131832083EECFFC01738762875587EC
:1038700044870895FC0177836683518740870895C4
:103880000F931F93CF93DF93FC01C081D1810281FD
:1038900013819E01201B310B1216130654F546812D
:1038A000578164E6649FC001659F900D112468EE06
:1038B00073E00E94271E621773070CF49B01200F10
:1038C000311F3383228322813381209769F537FFAB
:1038D00002C0138212828281938195838483C817E8
:1038E000D90711F421E02687DF91CF911F910F9125
:1038F00008952115310539F34085518564E6649FAB
:10390000C001659F900D112468EE73E00E94271E90
:10391000319521953109621773070CF49B01021B45
:10392000130B13830283CFCF5485458582859385FE
:103930002817390734F0852F942F281739070CF4EE
:10394000C90193838283C7CFFC0186850895FC015A
:10395000138212821582148216860895E3E7F5E039
:1039600011821082138212821582148217821682AB
:10397000108611861286138614861586168617867B
:10398000118A108A108E799686E0E930F80741F79F
:103990001092720510926E0510926F0510927005CC
:1039A0001092710510926A0510926B0510926C05C9
:1039B00010926D050E948F076093660570936705EE
:1039C00080936805909369051092650508954F925C
:1039D0005F926F927F92AF92BF92CF92DF92EF92FF
:1039E000FF920F931F93CF93DF930E948F076B017A
:1039F0007C01B12C89E1A82E80917205B81608F4DB
:103A000064C08091660590916705A0916805B091AA
:103A10006905A7019601281B390B4A0B5B0BDA01DC
:103A2000C901883E9340A105B10508F43FC020912B
:103A30006A0530916B0540916C0550916D05409081
:103A40006E0550906F056090700570907105420E84
:103A5000531E641E751E411451046104710471F0FB
:103A6000A4E6B0E00E94A01EA30192010E943B1EAA
:103A700080916505821710F42093650510926A0500
:103A800010926B0510926C0510926D0510926E05E8
:103A900010926F051092700510927105C092660524
:103AA000D0926705E0926805F0926905DF91CF91A9
:103AB0001F910F91FF90EF90DF90CF90BF90AF904C
:103AC0007F906F905F904F9008950B2D10E0A09E17
:103AD000E001A19ED00D1124CD58DA4F888D8823A6
:103AE00009F477C088819981892B09F472C08C858B
:103AF0009D85AE85BF85C816D906EA06FB0608F483
:103B000068C00E948F072B013C014C8A5D8A6E8A37
:103B10007F8AE881F98109950E948F07DC01CB013A
:103B200084199509A609B7094A885B88712C612C0C
:103B3000481659066A067B0610F49B8B8A8B4090C8
:103B40006A0550906B0560906C0570906D05480E8D
:103B5000591E6A1E7B1E40926A0550926B05609248
:103B60006C0570926D05A09EF001A19EF00D1124D0
:103B7000ED58FA4F2481358180859185A285B385E2
:103B8000B701A601481B590B6A0B7B0BC9010596AF
:103B9000B0E0A0E084179507A607B70728F480894E
:103BA00091890196918B808BA09EF001A19EF00DD2
:103BB0001124ED58FA4FC086D186E286F386D701EC
:103BC000C601820F931FA11DB11D84879587A6870B
:103BD000B787B39411CFDC0190917205963028F528
:103BE000109719F189E1989FF0011124ED58FA4FCF
:103BF000B183A08373836283558344833783268391
:103C00001086118612861386A90170E060E0448751
:103C1000558766877787118A108A138A128A81E00E
:103C2000808F9F5F90937205089580E00895DB0177
:103C30008F939F930E94A01EBF91AF91A29F800D72
:103C4000911DA39F900DB29F900D11240895AA1B62
:103C5000BB1B51E107C0AA1FBB1FA617B70710F077
:103C6000A61BB70B881F991F5A95A9F780959095A9
:103C7000BC01CD010895A1E21A2EAA1BBB1BFD01B8
:103C80000DC0AA1FBB1FEE1FFF1FA217B307E4073B
:103C9000F50720F0A21BB30BE40BF50B661F771F93
:103CA000881F991F1A9469F7609570958095909573
:103CB0009B01AC01BD01CF010895052E97FB1EF4B9
:103CC00000940E94741E57FD07D00E943B1E07FC03
:103CD00003D04EF40C94741E509540953095219568
:103CE0003F4F4F4F5F4F0895909580957095619528
:103CF0007F4F8F4F9F4F0895EE0FFF1F0590F49158
:103D0000E02D09940E948A1E332312F48A1B9B0B18
:103D10000C949B1EA29FB001B39FC001A39F700D86
:103D2000811D1124911DB29F700D811D1124911DC3
:103D300008950E948A1EB7FF0895821B930B089571
:103D40000E948A1EA59F900DB49F900DA49F800D88
:103D5000911D11240895FC0188279927E894219149
:103D60002032E9F3293010F02E30C8F32B3241F025
:103D70002D3239F4689404C00E94FE1E820F911DFA
:103D8000219120532A30C0F31EF4909581959F4FC6
:103D9000089540E954E00E94D71E0895FB01DC011C
:103DA0008D91019080190110D9F3990B0895FA01B2
:103DB000A191B081009719F41097E1F0CD01DC01D9
:103DC000CD010D90002011F4C00113C0FB01219121
:103DD000222319F02015D9F7F3CFFB0121912015EB
:103DE00019F41E92119606C02223C1F70D900020EF
:103DF000A1F7D001FA01A193B08308957AE0979FCB
:103E0000902D879F802D910D11240895AEE0B0E094
:103E1000ECE0FFE10C94E5210D891E898F89988DD6
:103E200026E02C831A83098397FF02C080E090E884
:103E300001979E838D83AE01455E5F4F698D7A8DBC
:103E4000CE0101960E94591F4D815E8157FD0AC027
:103E50002F813885421753070CF49A01020F131F64
:103E6000F80110822E96E4E00C940122AEE0B0E05E
:103E7000ECE3FFE10C94E5210D891E8986E08C833B
:103E80001A8309838FEF9FE79E838D83AE01475E80
:103E90005F4F6F89788DCE0101960E94591F2F8147
:103EA0003885020F131FF80110822E96E4E00C945F
:103EB0000122ABE0B0E0EFE5FFE10C94D7217C01FB
:103EC0003B018A01FC0117821682838181FFC8C1F0
:103ED000CE0101965C01F7019381F30193FD859179
:103EE00093FF81913F01882309F453C1853239F44E
:103EF00093FD859193FF81913F01853229F4B701AC
:103F000090E00E944921E7CF912C212C312CFFE138
:103F1000F31538F08B3211F190F4803209F18332CD
:103F200029F137FC3CC020ED280F2A3050F536FE31
:103F300020C08AE0989E200D1124922E06C08D325A
:103F400091F0803371F7689430F8F30193FD859117
:103F500093FF81913F018111DACF21C0689431F83C
:103F6000689432F8F2CF689433F8EFCF689434F85D
:103F7000ECCFEAE02E9E200D1124222E689435F815
:103F8000E4CF8E3229F436FC04C1689436F8DDCFD4
:103F90008C3619F4689437F8D8CF8836B1F2982F58
:103FA0009F7D95549330E0F08336A1F18337C1F1C2
:103FB000833509F063C02801F2E04F0E511CF8016F
:103FC000C080D180692D70E036FC02C06FEF7FEFBA
:103FD000C6010E9433214C01689437F882010AC05F
:103FE0000C5F1F4FFFE3F98388248394912C6501B4
:103FF000E89437F833FE2DC0522C8114910471F5EA
:10400000552009F468CFB70180E290E00E94492171
:104010005A94F6CFF801808189830E5F1F4FE4CF59
:104020002801F2E04F0E511CF801C080D180692DAB
:1040300070E036FC02C06FEF7FEFC6010E943E21A8
:104040004C018201D5CFB70180E290E00E94492166
:104050002A942814190409F0B0F7CECFF60137FCE2
:10406000859137FE81916F01B70190E00E9449214F
:1040700051105A94F1E08F1A9108BFCF843619F08D
:10408000893609F077C0F80137FE6BC06081718115
:10409000828193810C5F1F4FF32DFF763F2E97FF98
:1040A00009C090958095709561957F4F8F4F9F4F78
:1040B000689437F82AE030E0A5010E947921C82EE3
:1040C000CA188C2C432C36FE0CC0E89440F8C91456
:1040D00040F434FE05C032FC03C0F32DFE7E4F2EAB
:1040E000892C44FE95C0FE01EC0DF11D80818033CA
:1040F00009F087C0242D297E422E842D8870582EE9
:1041000043FC95C040FE8FC09C2C821418F42C0CEC
:10411000922C981844FE91C0B70180E390E00E9471
:10412000492142FE09C088E790E041FE02C088E5CF
:1041300090E0B7010E944921C91408F48AC0CA94CA
:10414000D12C9FEFC91AD90ACA0CDB1CF601829147
:104150006F01B70190E00E944921AC14BD04B1F792
:104160004FCF60817181072E000C880B990B0E5F79
:104170001F4F92CFD32CE894D4F82AE030E0853753
:1041800039F1232D297FD22E8F3601F148F488355D
:10419000A9F0F701868197812B96E2E10C94F32137
:1041A000803749F08837A9F7D4FE02C06894D2F866
:1041B00020E130E00DC06894D4F8F6CF34FE03C09F
:1041C000822F8660D82E20E132E002C028E030E065
:1041D000F801D7FE0FC060817181828193810C5FED
:1041E0001F4FA5010E947921C82ECA183D2CE894C2
:1041F00037F867CF6081718190E080E00E5F1F4FDC
:10420000F0CF42FC02C0839478CF8394839475CF1F
:10421000842D867809F471CFF6CFB70180E290E063
:104220000E94492183948214C0F3512C73CF522CE5
:104230005818821408F46ECFF8CF842D867809F4CC
:104240007BCF8BE241FE80E247FC8DE2B70190E03C
:1042500071CFB70180E390E00E9449219A946CCF1E
:104260008FEF9FEF99CFFC010590615070400110D6
:10427000D8F7809590958E0F9F1F0895FC0161508F
:10428000704001900110D8F7809590958E0F9F1F78
:1042900008950F931F93CF93DF93182F092FEB01EE
:1042A0008B8181FD09C01FEF0FEF812F902FDF91D0
:1042B000CF911F910F91089582FF14C02E813F81ED
:1042C0008C819D81281739073CF4E881F981CF0161
:1042D00001969983888310838E819F8101969F83A5
:1042E0008E83E3CFE885F985812F0995892BA1F38A
:1042F000DACFFA01AA27283051F1203181F1E89470
:104300006F936E7F6E5F7F4F8F4F9F4FAF4FB1E0C8
:104310003ED0B4E03CD0670F781F891F9A1FA11DC3
:10432000680F791F8A1F911DA11D6A0F711D811DC4
:10433000911DA11D20D009F468943F912AE0269F89
:1043400011243019305D3193DEF6CF010895462FE8
:104350004770405D4193B3E00FD0C9F7F6CF462FC9
:104360004F70405D4A3318F0495D31FD4052419332
:1043700002D0A9F7EACFB4E0A695979587957795EF
:104380006795BA95C9F700976105710508959B0176
:10439000AC010A2E06945795479537952795BA95FF
:1043A000C9F7620F731F841F951FA01D08952F92D8
:1043B0003F924F925F926F927F928F929F92AF92B5
:1043C000BF92CF92DF92EF92FF920F931F93CF9302
:1043D000DF93CDB7DEB7CA1BDB0B0FB6F894DEBF99
:1043E0000FBECDBF09942A88398848885F846E84BF
:1043F0007D848C849B84AA84B984C884DF80EE8009
:10440000FD800C811B81AA81B981CE0FD11D0FB611
:10441000F894DEBF0FBECDBFED010895F894FFCF35
:1044200004018025000003000000000001000300DB
:10443000010002000300563D25752053544F52459C
:104440003D25750D0A0050616E656C0043757272F2
:10445000656E7400436F6E74726F6C004C43440061
:10446000536C6F7753656E736F72730054656C6530
:104470006D657472790039003600330030003B00FE
:104480003800350032003A00370034003100535014
:104490005F5241573D25750D0A0053253464204174
:1044A00025346420256300253375252520253175A5
:1044B0002E253175412025327556004E4F4E450050
:1044C0002120545249505045442021004553544F17
:1044D000500053484F5254004F5645524C4F4144A0
:1044E000004F56455254454D5000554E4445525686
:1044F0004F4C54004F564552564F4C540053544164
:104500004C4C004F5645525350454544004E4F4683
:104510004545444241434B000C0112011801210161
:104520002A0134013D0143014D010040434F554EE6
:10453000543D257520494E53543D25642046494C31
:10454000543D25640D0A00244D442C53503D2564F0
:104550002C52503D25642C443D25642C493D256456
:104560002C563D25752C543D25642C4449523D253F
:10457000632C53543D25732C54523D25642C4932F1
:10458000543D25642C52483D256C752C53433D25E4
:1045900064002A253032580D0A00214556542C005B
:1045A00020090D0A005354415455530052554E00F2
:1045B00053544152542C52454D4F54450053544F7F
:1045C000502C52454D4F54450052455600524556C9
:1045D000455253452C52454D4F5445005350454587
:1045E000443D25642C2564004449523F004449520F
:1045F0003D2563004346473F004346473D25642C25
:1046000025642C25642C25642C25642C25642C25FC
:10461000642C25642C25642C25642C25642C2564AD
:1046200000534554004D415852504D004D494E5293
:10463000504D00414343454C00444543454C0044E4
:1046400045414454494D45004B50004B49005241AF
:104650005445440041434B2C4F4B0041434B2C529B
:104660004546555345442C41435449564500545200
:1046700049503F00545249503D25642C2573005445
:10468000524950533F00484F5552533F00484F55F1
:1046900052533D2530326C753A2530326C752C53AF
:1046A000433D25640054554E453F0054554E453D0D
:1046B00025642C25642C256C642C256400534156FC
:1046C0004500534156452C4F4B0048454C50003E49
:1046D0002000545249502C25732C493D25752C49F6
:1046E00032543D257500554E4B4E0052454D4F54AA
:1046F000453D25640D0A0053544152543A20535409
:104700004154453D25642053503D2564204D494E7C
:104710003D256420545249503D25640D0A00464110
:10472000494C2053504545440D0A005354415254BE
:10473000204F4B0D0A0052455345543A20535441E3
:1047400054453D2564204143544956453D25642048
:104750004553544F503D25640D0A0052455345546E
:104760002D3E53544F505045440D0A005245534579
:1047700054204641494C2041435449564520545207
:1047800049500D0A005245534554204553544F504B
:104790002D3E53544F505045440D0A005245534549
:1047A00054204641494C204553544F500D0A005265
:1047B00045534554204641494C2053544154450DDE
:1047C0000A0052543D25752052523D2564204D5219
:1047D0003D256420444946463D256420434E543DD2
:1047E000256C750D0A00524553455420434E540D17
:1047F0000A0052554E4E494E470D0A00494E495443
:104800000053545254005244574E00444541440012
:1048100042524B00434F4153540054524950003CC4
:10482000040D014104EC0146044B04500454045AA5
:10483000040C01554E4B4E4F574E00FB000C01121D
:1048400001180121012A0134013D0143014D0100FC
:00000001FF
