:100000000C942A000C9461010C9485010C94470017
:100010000C9447000C9447000C9447000C94470044
:100020000C9447000C9447000C9403030C94470075
:100030000C9447000C9499010C9447000C944700D1
:100040000C9447000C9447000C9447000C94470014
:100050000C94470011241FBECFE5D8E0DEBFCDBF12
:1000600016E0A0E6B0E0E2E7F5E402C005900D92EC
:10007000AA38B107D9F729E0AAE8B6E001C01D9275
:10008000A838B207E1F70E94971D0C94B7220C9490
:1000900000000E940E0F0E949E0F82309105E1F138
:1000A00030F5019781F10E943B1660E083309105A5
:1000B00031F08230910511F00497C1F561E081E0E3
:1000C0000E94B00F0E946316882399F181E00E947C
:1000D000C80F0E9452160E94D00F0E94A70F909145
:1000E0004409882341F19E7F909344090895833009
:1000F0009105A9F00497B9F60E94C0168111D3CFDB
:1001000081EE90E006C00E946F168111CCCF8FEC7B
:1001100090E00E945310C7CF0E948D16C4CF0E945A
:100120009C168111C0CF89ED90E0F3CF60E080E0B4
:10013000C7CF80E0CCCF9160D7CFCF93DF930E9421
:100140006006CAE2D9E09E878D870E947F068F876E
:10015000DF91CF9108950E945716882369F020916E
:100160002E0930912F09809167099091680928170D
:10017000390710F00E94741B8AE299E00C94D8149D
:10018000CF93DF930E944106EC0190933609809350
:10019000350960917309709174090E946C198091FE
:1001A000750990917609C817D90760F082E090E050
:1001B0000E94D8176AE279E082E090E0DF91CF9167
:1001C0000C941015DF91CF910895CF93DF930E9487
:1001D000880E0E949D0E90932F0980932E09809186
:1001E000440980FF2FC080912A0990912B09BC01FE
:1001F00083E599E00E94391A83E599E00E94571A35
:1002000090932D0980932C0920912E0930912F096C
:10021000821B930B909331098093300962E679E059
:100220008AE299E00E94B018EC01009791F00E94D8
:10023000D8170E94ED0B6AE279E0CE01DF91CF91F1
:100240000C9410150E94220690932B0980932A0982
:10025000CECF0E9457168823F9F040912E09509175
:100260002F0960912C0970912D0989E199E00E9474
:100270001C18EC01CE010E944A1BCE010E94CD0B3E
:1002800080913E0990913F090E94AC0B0E94ED16AF
:10029000DF91CF910C94671B89E199E00E947F1850
:1002A000D0E0C0E0E7CF0E946316882331F0809150
:1002B0004209909143090C94130B8AE299E00C9443
:1002C000830A1F920F920FB60F9211242F933F9320
:1002D0004F935F936F937F938F939F93AF93BF934E
:1002E000EF93FF930E946C0EFF91EF91BF91AF913E
:1002F0009F918F917F916F915F914F913F912F913E
:100300000F900FBE0F901F9018951F920F920FB66F
:100310000F9211248F931BBC1ABCC298C198C0982D
:1003200081E080938A068F910F900FBE0F901F90EF
:1003300018951F920F920FB60F9211242F933F938F
:100340004F935F936F937F938F939F93AF93BF93DD
:10035000EF93FF938CB10E94F80FFF91EF91BF9143
:10036000AF919F918F917F916F915F914F913F914D
:100370002F910F900FBE0F901F9018958430E0F4CE
:100380006830D0F4E82FF0E0EE0FFF1FEF57FF4F7B
:100390000190F081E02D81E090E001C0880F6A9526
:1003A000EAF79081413029F4892B808390E080E046
:1003B000089580958923F9CF81E090E008958430F5
:1003C000D8F46830C8F441155105B1F0E82FF0E0D9
:1003D000EE0FFF1FEF58FF4F0190F081E02D80815D
:1003E00090E002C0959587956A95E2F78170FA01D1
:1003F000808390E080E0089581E090E0089584306B
:1004000090F46115710579F0E82FF0E0EE0FFF1F11
:10041000EF58FF4F0190F081E02D8081FB01808338
:1004200090E080E0089581E090E008958430E0F469
:100430006830D0F4E82FF0E0EE0FFF1FE758FF4FD1
:100440000190F081E02D81E090E001C0880F6A9575
:10045000EAF79081413029F4892B808390E080E095
:10046000089580958923F9CF81E090E008950C9458
:100470001602CF93DF931F92CDB7DEB71982AE017C
:100480004F5F5F4F0E94DF0189810F90DF91CF9115
:1004900008958430B8F46830A8F4E82FF0E0EE0F47
:1004A000FF1FE758FF4F0190F081E02D808121E090
:1004B00030E001C0220F6A95EAF78227808390E03E
:1004C00080E0089581E090E0089591E0411101C03D
:1004D00090E0492F0C941602892B71F03E9A3F98B8
:1004E0003D98389839983A983B983098319A329A92
:1004F000379A90E080E0089581E090E00895883098
:1005000080F4389839983A983B9880FD389A81FD64
:10051000399A8695869509F03A9A369A90E080E065
:10052000089581E090E00895009759F034B125B125
:10053000232732272327FC013183208390E080E0AA
:10054000089581E090E0089586B18295869586951C
:100550008370809581700895CF93DF93EB010E94A3
:100560007F02009749F40E94A4028823E1F3CE01A0
:10057000DF91CF910C949402DF91CF910895379839
:1005800090E080E0089583B78F7B83BF83B7886056
:1005900083BF12BE8DE48CBF83B7846083BF83B7F3
:1005A0008D7F83BF83B7816083BF90E080E0089533
:1005B000892B51F489B791E0672B09F092E0892BE0
:1005C00089BF90E080E0089581E090E00895892B54
:1005D00051F489B79EEF672B09F09DEF892389BFFE
:1005E00090E080E0089581E090E008954115510584
:1005F00039F05093900640938F0690E080E0089584
:1006000081E090E008951F920F920FB60F9211248F
:100610002F933F934F935F936F937F938F939F930A
:10062000AF93BF93EF93FF93E0918F06F091900605
:10063000309709F00995FF91EF91BF91AF919F918C
:100640008F917F916F915F914F913F912F910F907B
:100650000FBE0F901F9018958FB58E7F8FBD8FB5F1
:1006600082608FBD8EB588608EBD8EB580618EBD77
:100670008FB58F7B8FBD8FB580688FBD1DBC1CBCB7
:100680008FE891E097BD86BD8EB58B7F8EBD8EB510
:100690008D7F8EBD8EB581608EBD41E065E083E0CB
:1006A0000E94BE0190E080E0089585369105B8F47F
:1006B000009729F41BBC1ABC90E080E008959C01CF
:1006C000A0E9B1E00E94631F24E630E040E050E082
:1006D0000E94141F215031093BBD2ABDEDCF81E09E
:1006E00090E0089585B58F7B85BD85B5886085BD13
:1006F00014BC85B5846085BD85B58D7F85BD85B508
:10070000816085BD85B58F7D85BD85B5806185BDE1
:1007100041E067E083E00E94BE0190E080E0089540
:100720008F3F910509F020F483BD90E080E00895AB
:1007300081E090E008958FB780688FBF08958FB7EC
:100740008F778FBF089580918B0690918C06A09132
:100750008D06B0918E060196A11DB11D80938B066A
:1007600090938C06A0938D06B0938E060895CF9239
:10077000DF92EF92FF920E949F03C0908B06D09071
:100780008C06E0908D06F0908E060E949B03C701B8
:10079000B601FF90EF90DF90CF90089583309105E0
:1007A00088F48130910541F0029749F08BB780645D
:1007B0008BBF90E080E008958BB78068F9CF8BB74E
:1007C0008062F6CF81E090E008958330910588F44F
:1007D0008130910541F0029749F08BB78F7B8BBF39
:1007E00090E080E008958BB78F77F9CF8BB78F7D3E
:1007F000F6CF81E090E0089583309105A8F4813030
:10080000910509F10297C1F185B78E7F85BF85B744
:100810008D7F85BF6130710551F060F062307105E8
:1008200079F06330710549F081E090E0089585B773
:10083000816085BF90E080E0089585B7816085BFC5
:1008400085B78260F6CF85B78B7F85BF85B7877FF9
:1008500085BF6130710569F068F36230710531F070
:100860006330710509F785B7846085BF85B78860F7
:10087000E0CF85B78460DDCF6230710531F0633041
:10088000710591F684B7806402C084B78F7B84BF02
:10089000D1CFCF93DF93EC01892B99F08881998197
:1008A0008330910570F46A817B810E94FC0300977C
:1008B00051F4888199818130910589F038F002974F
:1008C00089F081E090E0DF91CF9108958AB780644C
:1008D0008ABF88819981DF91CF910C94CE038AB72A
:1008E0008068F6CF8AB78062F3CF039730F481E057
:1008F00090E0672B21F080E0089581E090E008957A
:100900008FB780688FBF08958FB78F778FBF089597
:100910004091930650919406209191063091920651
:1009200042175307A9F3E0919106F0919206EB5616
:10093000F94F2081FC0120838091910690919206CD
:1009400001968F739927909392068093910690E079
:1009500080E00895CF93DF93EC01892B09F44CC01C
:1009600088819981AA81BB810097A105B10509F40D
:1009700043C09C01AD0184E0220F331F441F551F6B
:100980008A95D1F760E074E284EF90E00E94141F32
:1009900021503109832F8F7080BD29B98E818295B6
:1009A00080739885990F990F990F9870892B80689B
:1009B0009C81990F9670892B80BD8C819D810797B2
:1009C000C9F4529A539A549A579A1092D806109290
:1009D000D7061092D6061092D50610929406109261
:1009E0009306109292061092910690E080E0DF91BB
:1009F000CF9108955298E6CF81E090E0F8CF5398D8
:100A0000549857985698559890E080E00895209112
:100A1000D7063091D8062F5F3F4F2F77332740916D
:100A2000D5065091D60642175307C9F3E091D70671
:100A3000F091D806E752F94F80833093D80620937F
:100A4000D706559A90E080E00895009711F00C9435
:100A5000880481E090E00895009711F14091930699
:100A600050919406209191063091920642175307B7
:100A7000B9F0E0919106F0919206EB56F94F208182
:100A8000FC012083809191069091920601968F73CC
:100A90009927909392068093910690E080E00895C4
:100AA00081E090E00895CF93DF93EC01892B29F446
:100AB00081E090E007C00E94070589918111FBCF7A
:100AC00090E080E0DF91CF9108959F92AF92BF9226
:100AD000CF92DF92EF92FF920F931F93CF93DF930A
:100AE0001F92CDB7DEB71982009779F481E090E0CC
:100AF0000F90DF91CF911F910F91FF90EF90DF90BA
:100B0000CF90BF90AF909F9008956115710571F3DC
:100B1000942E6C015C0110E000E07B0181E0E81A9A
:100B2000F1080E151F0548F4CE0101960E948804B5
:100B3000892BE1F68981891107C00C0D1D1DF80173
:100B4000108290E080E0D4CFF50181935F010F5FC8
:100B50001F4FE7CF892B21F0579A90E080E008954E
:100B600081E090E008952091D7063091D8068091D9
:100B7000D5069091D6062817390719F490E080E041
:100B8000089582E090E008950C9407050C945305B5
:100B900080E280B90898099886B7846086BF90E0A3
:100BA00080E008950C94C80584EA86BF06B607FE67
:100BB000FDCF91B1987F21E030E0983011F430E022
:100BC00020E0C901089584E986BF90E080E008959F
:100BD00083B984E886BF06B607FEFDCF21B1287F22
:100BE000283141F0283231F081E090E0203421F4C6
:100BF00080E0089580E090E00895CF93DF93D82FB0
:100C0000C62F0E94D405009741F48D2F880FC17024
:100C10008C2BDF91CF910C94E805DF91CF91089553
:100C20000C94E805CF93DF9300D0CDB7DEB71A82DE
:100C30001982CE0101960E946C020F900F90DF91F5
:100C4000CF910895CF93DF9300D0CDB7DEB71A824E
:100C50001982BE016F5F7F4F80E00E94AC02298144
:100C60003A81A8EBBBE00E94631F2FEF33E040E026
:100C700050E00E94141FC9010F900F90DF91CF9197
:100C80000895CF93DF9300D0CDB7DEB71A821982D3
:100C9000BE016F5F7F4F81E00E94AC0229813A81E3
:100CA000A0E2BEE40E94631F2FEF33E040E050E07B
:100CB0000E94141FC9010F900F90DF91CF910895EA
:100CC000CF93DF9300D0CDB7DEB71A821982BE0171
:100CD0006F5F7F4F82E00E94AC0229813A81A0E6DB
:100CE000BAEE0E94631F2FEF33E040E050E00E9415
:100CF000141FC9010F900F90DF91CF910895CF93EA
:100D0000DF9300D0CDB7DEB71A821982BE016F5FC4
:100D10007F4F83E00E94AC0229813A81A6E9B0E0CE
:100D20000E94631F2FEF33E040E050E00E94141F49
:100D3000822F0F900F90DF91CF91089510925C0752
:100D400010925B0710925A07109259070C94720385
:100D500090935C0780935B0710925A071092590793
:100D60008130910551F028F0049750F081E090E037
:100D7000089590E080E00C94900386E990E0FBCF2A
:100D80008CE390E0F8CF80915B0790915C0700972F
:100D900059F18330910541F14AE050E081309105ED
:100DA00011F442E350E02091590730915A072F5F28
:100DB0003F4F2417350728F430935A0720935907DB
:100DC000089510925A07109259072091600022232B
:100DD00061F090E080E00E94900381E090916000DB
:100DE000911180E0809360000895019719F08CE3E1
:100DF00090E0F1CF86E990E0EECFDB01FA0182309E
:100E00009105A1F028F4019761F01C9210820895D9
:100E10008330910579F00497C1F783E08C9387E0E4
:100E200003C081E08C9383E08083089583E08C93FA
:100E300085E0FACF83E08C9384E0F6CF8230910591
:100E400061F018F4019739F008958330910549F065
:100E5000049759F008956CBF089570E07BBD6ABD9A
:100E6000089570E079BD68BD089563BD0895EF925F
:100E7000FF921F93CF93DF93EC017B01CB0101978E
:100E800010E040E08330910540F4FC01E457FF4F4F
:100E90004081FC01E757FF4F10812885222329F06C
:100EA000029718F4842F412F182F698188810E949E
:100EB0003702412F6B818A810E943702FC86EB86C4
:100EC000DF91CF911F91FF90EF90089582309105AF
:100ED00091F018F4019739F008958330910599F055
:100EE0000497C1F0089583B7662319F0806283BF29
:100EF00008958F7DFCCF8FB5662319F080688FBD74
:100F000008958F77FCCF8FB5662311F08062F7CFFD
:100F10008F7DF5CF85B5662319F0806285BD089574
:100F20008F7DFCCF0F931F93CF93DF9300D0CDB76E
:100F3000DEB78C011A821982FC01868197810097A5
:100F400089F441E08285811101C040E0F8016581AA
:100F500084810E9437020F900F90DF91CF911F91F3
:100F60000F910895AE014F5F5F4FBE016E5F7F4FDF
:100F70000E94FD06F801828526813781811108C013
:100F800060E0C9010E94660740E069818A81E1CF83
:100F9000FFEF8F9FC001112464E670E00E94001FE4
:100FA000C9010E941E0761E0F801868197810E94B5
:100FB0006607D1CF0F931F93CF93DF9300D0CDB7A8
:100FC000DEB7FC011A821982892B49F481E090E096
:100FD0000F900F90DF91CF911F910F910895808115
:100FE0008430A0F79281943088F7268137812530AC
:100FF000310560F78F0141E061810E94BE0141E04F
:10100000F801638182810E94BE0140E0F8016181A4
:1010100080810E94370240E0F801638182810E9452
:101020003702F801868197810097E1F4848184304A
:1010300068F641E065810E94BE0140E0F8016581EB
:1010400084810E943702F801128681E0818770E076
:1010500060E0C8010E943707C8010E94920790E033
:1010600080E0B6CFAE014F5F5F4FBE016E5F7F4F36
:101070000E94FD0641E069818A810E94BE0140E034
:1010800069818A810E943702F801868197818430C4
:10109000910560F48230910598F4019769F060E061
:1010A000F801868197810E946607CDCF0497B9F732
:1010B0008CE485BD13BCF3CF8BE483BF1CBEEFCFA4
:1010C0008FB581608FBD8EB588608EBD8EB5826014
:1010D0008EBD8EB581608EBDE2CF009771F0FC01B0
:1010E0002185222351F0653608F064E6FC01628711
:1010F0000E94920790E080E0089581E090E00895DA
:10110000CF93DF93009789F0FC012185222369F0BA
:10111000EC0161E070E00E943707CE010E94920767
:1011200090E080E0DF91CF91089581E090E0FACFE8
:10113000CF93DF93009789F0FC012185222369F08A
:10114000EC0162E070E00E943707CE010E94920736
:1011500090E080E0DF91CF91089581E090E0FACFB8
:10116000009769F0FC012185222349F06230710566
:1011700030F4672B11F40C9480080C94980881E0EB
:1011800090E008950F931F93CF93DF9300D0CDB7D6
:10119000DEB71A821982009771F1FC0121852223A2
:1011A00051F18C0170E060E00E943707F801868100
:1011B0009781009771F440E0658184810E94370235
:1011C00090E080E00F900F90DF91CF911F910F91F1
:1011D0000895AE014F5F5F4FBE016E5F7F4F0E946B
:1011E000FD0660E0F801868197810E94660740E075
:1011F00069818A81E3CF81E090E0E4CFCF93DF93F0
:10120000009701F1FC0121852223E1F0EC0163E06C
:1012100070E00E9437078E819F81009751F441E072
:101220006D818C810E94370290E080E0DF91CF9148
:1012300008956FEF0E941E0761E08E819F810E94DA
:101240006607F2CF81E090E0F1CF009779F0FC01E2
:101250002185222359F06115710541F0838594851C
:10126000FB019183808390E080E0089581E090E02D
:101270000895009769F0FC012185222349F061154A
:10128000710531F08285FB01808390E080E0089554
:1012900081E090E008950F931F93CF93DF9300D0E8
:1012A000CDB7DEB71A821982009789F1FC0121853A
:1012B000222369F18C010E94C208F801868197817E
:1012C0000097C9F0AE014F5F5F4FBE016E5F7F4F69
:1012D0000E94FD0660E0F801868197810E94660702
:1012E00060E0F801868197810E941E0740E06981D5
:1012F0008A810E943702F8011286118690E080E010
:101300000F900F90DF91CF911F910F91089581E081
:1013100090E0F6CFCF93DF93009731F4C1E0D0E0B7
:10132000CE01DF91CF910895C62F60E0FC0180814E
:101330000E94FD05892B91F780E00E941006892B01
:1013400019F00E94E305EACF8C2F0E941006EC01F1
:10135000892BB9F70E94E305E3CFCF93DF93009782
:1013600031F4C1E0D0E0CE01DF91CF910895C62FD6
:1013700060E0FC0180810E94FD05892B91F780E4EB
:101380000E941006892B19F00E94E305EACF8C2FEA
:101390000E941006EC01892BB9F70E94E305E3CF08
:1013A0000F931F93CF93DF93009741F401E010E078
:1013B000C801DF91CF911F910F91089561157105BB
:1013C000A9F3EB0160E0FC0180810E94FD05892BFF
:1013D00069F780E40E9410068C01892B51F48991F1
:1013E000811103C00E94E305E3CF0E941006892B00
:1013F000B1F30E94E305DACFCF93DF9300D0CDB7EE
:10140000DEB7198220E42A83009799F0FC0121813C
:10141000621778F42281421760F4FE01E60FF11D95
:101420006181640F60680F900F90DF91CF910C94F1
:101430008A0981E090E00F900F90DF91CF9108959D
:101440000F931F93CF93DF93EC0189010E94FC0956
:10145000892B41F4B801CE01DF91CF911F910F91FB
:101460000C94D00981E090E0DF91CF911F910F9112
:10147000089561E00C948A0962E00C948A099C0149
:1014800090916100662349F09460909361006091AF
:1014900061006860C9010C948A099B7FF6CFCF93E5
:1014A000DF93009729F481E090E0DF91CF910895D8
:1014B000EC0168E30E948A09892BA9F78CE08093EC
:1014C00061006CE0CE010E948A09892B61F7CE0190
:1014D0000E94390A892B39F766E0CE010E948A09F9
:1014E00031E020E0892B09F430E0832F922FDDCF0B
:1014F000E0E6F7E08EE3808382E0818380E182830F
:10150000CF010C944F0AEF92FF920F931F93CF934A
:10151000DF93CDB7DEB7A2970FB6F894DEBF0FBE4C
:10152000CDBFFC0181E090E0309709F46BC0848965
:1015300095898130910509F474C0029709F06FC054
:1015400092E58F011F929F9385818F9384818F9362
:1015500083818F9382818F9384E391E09F938F9314
:101560007E0182E1E80EF11CFF92EF920E94DF1FE4
:10157000D8011B96ED91FC911C971F968C911F979B
:101580001F928F931D968D919C9128EE33E0B901A7
:101590000E94001F7F936F93CF0164E670E00E946A
:1015A000001FCB016AE070E00E94001F9F938F93A1
:1015B000CF01B9010E94001F7F936F93F8018285CC
:1015C0001F928F9386E491E09F938F938E010F5F1C
:1015D0001F4F1F930F930E94DF1F970140E060E0B1
:1015E00080E697E00E94200A980140E061E080E6F2
:1015F00097E00E94200A0FB6F894DEBF0FBECDBF61
:1016000090E080E0A2960FB6F894DEBF0FBECDBF8B
:10161000DF91CF911F910F91FF90EF9008959DE280
:1016200090CF96E48ECF0F931F93CF93DF93CDB7D8
:10163000DEB761970FB6F894DEBF0FBECDBF182F8F
:10164000092F80915E0790915F0701968F30910579
:10165000B8F590935F0780935E072EE531E040E098
:1016600060E080E697E00E94200A80915D07882371
:1016700099F10F931F938FE691E09F938F938E01C3
:101680000F5F1F4F1F930F930E94DF1F980140E0D1
:1016900061E080E697E00E94200A0F900F900F9083
:1016A0000F900F900F9090E080E061960FB6F89445
:1016B000DEBF0FBECDBFDF91CF911F910F91089577
:1016C00010925F0710925E0781E090915D07911183
:1016D00080E080935D07C1CF8AE299E00E94830A8F
:1016E000E2CF80916A0790916B07892B39F0809146
:1016F00068079091690741E00A9708F440E062E0CA
:1017000081E00C94370241E060E081E00E94BE017C
:1017100041E061E081E00E94BE0141E062E081E0E1
:101720000E94BE0140E060E081E00E94370240E09C
:1017300061E081E00E94370240E062E081E00E94C7
:10174000370210926B0710926A0710926907109285
:10175000680790E080E008958130910549F0029794
:10176000A1F040E060E081E00E94370240E013C059
:1017700040E061E081E00E94370241E060E081E00A
:101780000E94370290E080E0089540E060E081E050
:101790000E94370241E061E0F2CF909369078093A5
:1017A00068070E94710B90E080E0089581E090E06E
:1017B00090936B0780936A070E94710B90E080E022
:1017C000089510926B0710926A0740E062E081E092
:1017D0000E94370290E080E0089540E062E081E0FE
:1017E0000E94370240E060E081E00E94370240E062
:1017F00061E081E00E94370210926B0710926A0745
:1018000010926907109268070895009741F00297B7
:1018100069F06370E62FF0E0E956FF4F05C0637092
:10182000E62FF0E0E556FF4F808108956770E62FC0
:10183000F0E0E157FF4FF8CF1F93CF93DF93EC0118
:10184000162F462F4170698188810E94370211FB53
:10185000442740F96B818A810E94370212FB44279A
:1018600040F96D818C810E94370213FB442740F9B7
:101870006F818E810E94370281E0111101C080E0EA
:101880008D8BDF91CF911F910895CF93DF930097B8
:1018900009F44BC0FC0127853089232B09F445C08E
:1018A000EC0141E0618180810E94BE0141E06B81D9
:1018B0008A810E94BE0141E06D818C810E94BE013F
:1018C00041E06F818E810E94BE018C858823A1F04A
:1018D00041E0698588850E94BE0141E06B858A856B
:1018E0000E94BE0141E0698588850E94370241E07F
:1018F0006B858A850E94370289899A89892B21F410
:1019000081E090E09A8B898B1C8A1E8A1F8A188E30
:10191000198E1D8A60E0CE010E941C0C81E08B8B29
:1019200090E080E0DF91CF91089581E090E0FACFE0
:10193000FC01892B61F08389882349F063307105AC
:1019400030F476876587148A90E080E0089581E01E
:1019500090E00895009779F0FC012389222359F043
:101960006115710511F461E070E0FC01728B618B0F
:1019700090E080E0089581E090E00895CF93DF93B8
:10198000EC01892B49F18B89882331F161157105AF
:1019900019F12F85388950E040E08D859E850297AA
:1019A00021F4220F331F441F551FDB010E94791FB2
:1019B0009B01AC0160E67AEE80E090E00E94141F8B
:1019C000211531054105510539F03A8B298B90E0FD
:1019D00080E0DF91CF91089581E090E0FACFCF923F
:1019E000DF92EF92FF92CF93DF93EC01AB01892B53
:1019F00009F440C08B898823E9F162307105D0F584
:101A00002D853E8564E02230310509F468E08C893B
:101A100070E0CE88DF88E88CF98C90E0452BF1F4FB
:101A200001960E94001F8C8B8FEFC81AD80AE80A13
:101A3000F80ACE8ADF8AE88EF98E6C89C9010E9485
:101A4000050C682FCE010E941C0C90E080E0DF9115
:101A5000CF91FF90EF90DF90CF900895860F971F62
:101A600001970E94001F8C8B81E0C81AD108E10801
:101A7000F108DFCF81E090E0EACF2F923F924F92C2
:101A80005F926F927F928F929F92AF92BF92CF920E
:101A9000DF92EF92FF920F931F93CF93DF9300D0CB
:101AA00000D0CDB7DEB7009709F458C0FC012389F8
:101AB000222309F453C04230510508F04FC07A0187
:101AC0001B018C01D12CC12C80EA482E8FE0582EAE
:101AD000612C712C2C143D04C9F490E080E00F902F
:101AE0000F900F900F90DF91CF911F910F91FF906A
:101AF000EF90DF90CF90BF90AF909F908F907F90AE
:101B00006F905F904F903F902F900895B701C8015C
:101B10000E94EF0CF80181899289009721F42FEF40
:101B2000C21AD20AD7CF49825A826B827C824981FB
:101B30005A816B817C814A015B01F1E08F1A910827
:101B4000A108B10889829A82AB82BC82452B462BC0
:101B5000472B11F40197E1CF0000E9CF81E090E03D
:101B6000BECF0F931F93CF93DF93EC018A01892B94
:101B700009F18B898823F1F02F85388950E040E006
:101B80008D859E85029721F4220F331F441F551F18
:101B9000DB010E94791F28E631E040E050E00E941E
:101BA000141FB901A801CE01DF91CF911F910F91B0
:101BB0000C943D0D81E090E0DF91CF911F910F914A
:101BC0000895CF93DF93009701F1FC01238922232D
:101BD000E1F0EC018485882351F041E06185808546
:101BE0000E94370241E06B858A850E9437026C892A
:101BF0008D859E850E94050C682FCE010E941C0CCD
:101C000090E080E0DF91CF91089581E090E0FACFFD
:101C1000CF93DF930097D9F0FC0123892223B9F0F9
:101C2000EC0160E00E941C0C8C85882351F040E0A0
:101C3000698588850E94370240E06B858A850E940D
:101C400037021D8A90E080E0DF91CF91089581E016
:101C500090E0FACF009799F0FC012389222379F0D4
:101C60006115710561F086899789A08DB18DFB01A1
:101C700080839183A283B38390E080E0089581E024
:101C800090E00895009759F0FC012389222339F050
:101C9000168A178A108E118E90E080E0089581E0F8
:101CA00090E00895FC01892BA1F08389882389F0B5
:101CB0006115710571F027853089858596850297B4
:101CC00011F4220F331FFB013183208390E080E069
:101CD000089581E090E0089580916E0790916F07DC
:101CE000019690936F0780936E07089510926F0787
:101CF00010926E0710926D0710926C076CE67EE0F2
:101D000090E080E00E94750490E080E00C94CE03A7
:101D1000F89420916E0730916F0710926F07109220
:101D20006E0778944CE3429FC001439F900D1124AD
:101D300090936D0780936C07089580916C07909144
:101D40006D07089540E065E082E00E94BE0140E03A
:101D500066E082E00E94BE0140E067E082E00E940F
:101D6000BE0140E066E083E00E94BE0140E064E026
:101D700083E00E94BE0141E050E065E070E082E057
:101D800090E00E94650241E050E066E070E082E091
:101D900090E00E94650241E050E067E070E082E080
:101DA00090E00E94650241E050E066E070E083E070
:101DB00090E00E94650241E050E064E070E083E062
:101DC00090E00E94650241E063E081E00E94BE0174
:101DD00041E062E082E00E94BE0141E063E082E017
:101DE0000E94BE0141E064E082E00E94BE0140E04A
:101DF00063E081E00E94160240E062E082E00E941F
:101E0000160240E063E082E00E94160240E064E0D7
:101E100082E00E94160290E080E00895EF92FF9227
:101E20000F931F93CF93DF93CDB7DEB72C970FB6E9
:101E3000F894DEBF0FBECDBF65E082E00E9439029C
:101E4000F82E66E082E00E943902082F67E082E007
:101E50000E943902182F66E083E00E94390291E067
:101E6000F11090E0998791E0011190E09A8791E05C
:101E7000111190E09B8791E0811190E09C8788E0B0
:101E8000EFE9F0E0DE01119601900D928A95E1F7FD
:101E900040917D0750917E07BE01675F7F4FE1E76C
:101EA000EE2EE7E0FE2EE5E7F7E090E080E0DB01D4
:101EB0002D91BD01D7013D917D012317E1F01082E5
:101EC0008D0101501109D8012C930196319684306F
:101ED000910569F750937E0740937D072C960FB6C6
:101EE000F894DEBF0FBECDBFDF91CF911F910F9150
:101EF000FF90EF9008952130D1F430813F5F30831F
:101F0000353018F38C010758184FD8013C91311126
:101F1000DCCF2C939C01220F331F41E050E04C0F8B
:101F20005D1F240F351FD9014D915C91CECF1082DA
:101F30009C012758384FD9011C92C7CF80917D074B
:101F400090917E0710927E0710927D07089564E0BD
:101F500083E00E94390291E0811190E0892F089579
:101F6000662371F0809170078F5F8A3018F4809338
:101F7000700708951092700763E081E00C944902A5
:101F800041E0811101C040E063E081E00C94160261
:101F900041E0811101C040E062E082E00C94160251
:101FA0008130910521F0029749F040E001C041E005
:101FB00063E082E00E94160240E006C040E063E079
:101FC00082E00E94160241E064E082E00C94160276
:101FD000009761F0FC012081222341F08191811161
:101FE00002C081E0089580538A30C0F380E00895F4
:101FF000CF93C82F8091D207882319F08C2F0E948D
:10200000C405E091D007C83011F0CF3781F4EE233A
:1020100061F1E150E093D007F0E0E057F84F108213
:1020200080E20E94C40588E0CF910C94C405CD30B5
:1020300011F0CA3081F488EB91E0EE2349F0F0E032
:10204000E057F84F108281E08093D10785E694E055
:10205000CF910C94C605EF3340F481E08E0F80934E
:10206000D007F0E0E057F84FC083CF9108950E9469
:10207000C60585E694E00C94C6051092D007109230
:10208000D10781E08093D207E0E9F7E080E4DF0147
:102090001D928A95E9F78DE791E00E94371080EA5A
:1020A00091E00C943710CF93DF93EC018DEB91E02E
:1020B0000E94C605CE010E94C60585E694E0DF9128
:1020C000CF910C94C6057F928F929F92AF92BF9250
:1020D000CF92DF92EF92FF920F931F93CF93DF93F4
:1020E000CDB7DEB7C058D1090FB6F894DEBF0FBE2A
:1020F000CDBF8C01FC0183A074A0C78CB0A0A1A0AF
:1021000092A00E94F619D82EF801F08CE18C0E9462
:102110004016F801248935892130310509F470C051
:102120002230310509F46EC02DE27F928F929F928A
:10213000AF92BF92CF921F92DF92EF92FF929F9346
:102140008F931F922F93F80187851F928F93868517
:102150008F9385858F9384858F9383858F938285D5
:102160001F928F9385818F9384818F9383818F9327
:1021700082818F9385EC91E09F938F938E010F5F07
:102180001F4F1F930F930E94DF1F0FB6F894DEBFFF
:102190000FBECDBF81E020E0F801E80FF11D908176
:1021A000911132C0F80101900020E9F7CF011F9290
:1021B0002F9320E132E03F932F9301979F938F93CA
:1021C0000E94DF1FC8010E94C6050F900F900F905C
:1021D0000F900F900F90C058DF4F0FB6F894DEBFEE
:1021E0000FBECDBFDF91CF911F910F91FF90EF9068
:1021F000DF90CF90BF90AF909F908F907F90089589
:1022000026E493CF22E591CF29278F5FC5CFCF93C7
:10221000DF93EC0188E192E00E94C605CE010E94A6
:10222000C60585E694E0DF91CF910C94C6058EE15A
:1022300092E00E9437108BE392E00E9437108AE50B
:1022400092E00E94371084E892E00E9437108FE9F4
:1022500092E00E9437108FEC92E00E94371084EFDA
:1022600092E00E94371087E193E00E94371086E3E6
:1022700093E00E94371089E593E00E9437108DE7C4
:1022800093E00E9437108EE993E00E9437108FEBA5
:1022900093E00E9437108DED93E00E9437108CEF91
:1022A00093E00E9437108EE194E00E94371084E49E
:1022B00094E00E94371087E694E00C943710EF9278
:1022C000FF920F931F93CF93DF93CDB7DEB7C05824
:1022D000D1090FB6F894DEBF0FBECDBF8091D107F4
:1022E000882379F110927F0763E674E080E997E034
:1022F0000E94A21FF0907F07009719F027E02F158A
:1023000070F51092D1071092D007E0E9F7E080E471
:10231000DF011D928A95E9F7FF2079F0009180078F
:102320001091810768E674E0C8010E94A71F892BFD
:1023300039F58AE299E00E9463108AEB91E00E94ED
:10234000C605C058DF4F0FB6F894DEBF0FBECDBF35
:10235000DF91CF911F910F91FF90EF90089521E0B1
:102360002F0D20937F07EF2DF0E0EE0FFF1FE058B9
:10237000F84F9183808363E674E090E080E0B8CF0B
:102380006FE674E0C8010E94A71F892B01F58091B8
:10239000440980FD05C083E794E00E945310CDCF2F
:1023A0000E946316882319F08CE794E0F6CF0E9410
:1023B0006F16882349F088EF95E00E94371088E86F
:1023C00094E00E940711B9CF8FEC90E0E6CF65EA68
:1023D00074E0C8010E94A71F892B71F40E948D161A
:1023E000882339F088EF95E00E94371085E994E062
:1023F000E8CF81EA94E0D1CF6DED70E0C8010E9492
:10240000A71F892B91F48091440980FFC4CF0E94BB
:102410009C16882339F088EF95E00E9437108AEAED
:1024200094E0CFCF89ED90E0B8CF68E776E0C801BF
:102430000E94A71F892B09F055C0B1E0BF1510F508
:102440006AED75E080918207909183070E94A71F33
:10245000892BC1F480912F098F9380912E098F933E
:1024600080912D098F9380912C098F9389EB94E0B3
:102470009F938F938E010F5F1F4F1F930F930E94A7
:10248000DF1FB5C08091440980FF85CF91E09F1583
:1024900018F085EC94E081CF0091820710918307BA
:1024A000C8010E94E80F811103C08EEC94E075CF43
:1024B000C8010E94841F97FDF8CF209165093091D3
:1024C00066092817390788F390932B0980932A0906
:1024D000BC0183E599E00E94391A88EF95E00E94DB
:1024E00037102BCF68ED74E0C8010E94A71F892B1D
:1024F00029F580913E0990913F0981309105D1F0F5
:102500000297D1F482E51F928F938DED94E09F9313
:102510008F938E010F5F1F4F1F930F930E94DF1F3A
:10252000C8010E9437100F900F900F900F900F90DE
:102530000F9003CF86E4E7CF8DE2E5CF64EE74E041
:10254000C8010E94A71F892B09F05AC080917B09FE
:102550008F9380917A098F93809179098F938091DD
:1025600078098F93809177091F928F9380917609D4
:102570008F93809175098F93809174098F938091C7
:1025800073098F93809172098F93809171098F9352
:10259000809170098F9380916F098F9380916E095C
:1025A0008F9380916D098F9380916C098F938091A7
:1025B0006B098F9380916A098F93809169098F933A
:1025C000809168098F93809167098F938091660944
:1025D0008F93809165098F9389EE94E09F938F93F9
:1025E0008E010F5F1F4F1F930F930E94DF1FC801C3
:1025F0000E9437100FB6F894DEBF0FBECDBF9DCE40
:1026000061E175E0C8010E94A71F892B09F0F2C0A3
:10261000B2E0BF1508F03DCF009184071091850707
:10262000C8010E94E80F882309F43FCFE090820799
:10263000F0908307C8010E94841F8C0165E175E05A
:10264000C7010E94A71F892B61F4C801845F9140D4
:102650008D37954108F029CF1093660900936509DD
:102660003CCF6CE175E0C7010E94A71F892B59F48C
:10267000C801C297873B934008F017CF10936809B1
:10268000009367092ACF63E275E0C7010E94A71F84
:10269000892BA9F4C8018456910985359B4008F01F
:1026A00004CF10936A090093690940916B09509116
:1026B0006C09B80183E599E00E94511A0ECF69E2D6
:1026C00075E0C7010E94A71F892B89F4C8018456B1
:1026D000910985359B4008F0E8CE10936C09009372
:1026E0006B096091690970916A09A801E3CF6FE2F3
:1026F00075E0C7010E94A71F892B91F4C801885C6F
:1027000091098930974008F0D0CE10936E0900935C
:102710006D09B801110F880B990B0E94EE17DDCEE1
:1027200068E375E0C7010E94A71F892B99F4013067
:10273000B0E11B0708F0B9CE1093700900936F0940
:102740004091710950917209B80189E199E00E94A4
:102750008918C3CE6BE375E0C7010E94A71F892BC0
:1027600079F4013022E0120708F09FCE109372092D
:102770000093710960916F0970917009A801E5CF0C
:102780006EE375E0C7010E94A71F892B61F4C801A1
:10279000885E9340813B964308F087CE109374097E
:1027A000009373099ACE64E475E0C7010E94A71FE5
:1027B000892B69F4809173099091740980179107AE
:1027C00008F073CE109376090093750986CE6AE4FB
:1027D00075E0C7010E94A71F892B49F4C801CC9757
:1027E0008135910508F061CE0093770976CE83E5B7
:1027F00095E0D3CD65E876E0C8010E94A71F892B3C
:1028000091F40E94C016882339F088EF95E00E9469
:1028100037108DE595E0D5CD81EE90E00E94531004
:1028200084E695E0CECD67E775E0C8010E94A71F5A
:10283000892B91F40E94EC198C01892B19F40E94C8
:10284000F1198C01C8010E94111A9F938F931F9355
:102850000F938DE795E00CCE68E875E0C8010E9403
:10286000A71F892B59F48FE895E00E94371080EA62
:1028700095E00E9437108BEA95E031CE67EB75E06A
:10288000C8010E94A71F892B91F560914909709199
:102890004A0980914B0990914C0920914E092F9340
:1028A00020914D092F9320E13EE040E050E00E944E
:1028B000141F122F032FF42EE52E2CE330E040E0FE
:1028C00050E00E94141F5F934F933F932F93EF921A
:1028D000FF920F931F938EEB95E09F938F938E0142
:1028E0000F5F1F4F1F930F930E94DF1F80CE66ED77
:1028F00075E0C8010E94A71F892BF9F489E199E0CE
:102900000E949518182F092F89E199E00E948F18CD
:102910000F931F939F938F937F936F93809172096F
:102920008F93809171098F93809170098F9380911B
:102930006F098F938CED95E0D0CF6EEE75E0C801F6
:102940000E94A71F892B39F488EF95E00E94371069
:1029500083EF95E036CD6BEF75E0C8010E94A71FAD
:10296000892B19F40E941711E8CC80E096E015CD70
:102970008091D107089580E997E008951092D107DA
:102980001092D007E0E9F7E080E4DF011D928A951C
:10299000E9F7089581E0809362000E94B703609395
:1029A000D3077093D4078093D5079093D6070895E3
:1029B000CF92DF92EF92FF92CF93DF93209162004C
:1029C000222329F1EC010E94B7036B017C01809165
:1029D000D3079091D407A091D507B091D607A7014E
:1029E0009601281B390B4A0B5B0BDA01C901883EA3
:1029F0009340A105B10558F0CE010E946310C0922A
:102A0000D307D092D407E092D507F092D607DF9192
:102A1000CF91FF90EF90DF90CF9008950C946310CA
:102A2000CF92DF92EF92FF920F931F93CF93DF939A
:102A3000CDB7DEB7C054D1090FB6F894DEBF0FBED4
:102A4000CDBF6C018B010E94F619E82EF801F384CA
:102A50001485C6010E94111A1F92EF921F93FF92D4
:102A60009F938F9388E096E09F938F938E010F5FE3
:102A70001F4F1F930F930E94DF1FC8010E94071171
:102A80000FB6F894DEBF0FBECDBFC05CDF4F0FB6F0
:102A9000F894DEBF0FBECDBFDF91CF911F910F9194
:102AA000FF90EF90DF90CF9008958093620008959B
:102AB000809162000895CF93DF93EC012091D707B6
:102AC0003091D8072330310521F580914909909143
:102AD0004A09A0914B09B0914C0940914509509188
:102AE00046096091470970914809840F951FA61FF8
:102AF000B71F8093490990934A09A0934B09B0935B
:102B00004C091092450910924609109247091092FB
:102B100048093093DA072093D907D093D807C09398
:102B2000D7071092E4071092E5071092E60710927B
:102B3000E707C430D10509F455C048F5C130D105C7
:102B4000C1F1C230D10509F046C08091DD079091F6
:102B5000DE0790933F0980933E0989E199E00E9446
:102B60007F1883E599E00E94B91A80914D099091F0
:102B70004E09019690934E0980934D091092EC07EF
:102B80001092ED071092EE071092EF0724C0C530A7
:102B9000D10521F0CE0107970397E8F410923F0981
:102BA00010923E09109233091092320910923409A2
:102BB00012C010923F0910923E09109233091092F0
:102BC00032091092340989E199E00E947F1883E567
:102BD00099E00E94B91AD0934109C0934009DF914E
:102BE000CF91089570E060E083E599E00E94391A82
:102BF000F2CF8091D7079091D8078530910550F496
:102C0000029768F08091DD079091DE070E94AC0B7F
:102C10000C94D60B8530910511F0079731F490E0B4
:102C200080E00E94AC0B0C94E10B0C94ED0BE7EDF3
:102C3000F7E01182108213821282178216821186A7
:102C40001086128613861486158616861786108AB5
:102C500084EF91E0A0E0B0E0818B928BA38BB48BEA
:102C6000158A168A178A108E118E128E138E148E64
:102C700081E0858F08958091D7079091D8070895B6
:102C80008091D7079091D8078A30910540F4880F3A
:102C9000991FFC01E955FF4F8081918108958CE1D6
:102CA00096E008958091DD079091DE0708952091C8
:102CB000D7073091D8072250310981E02230310501
:102CC00008F080E008952091D7073091D807285068
:102CD000310981E02230310508F080E008958091CB
:102CE000D7079091D80781309105A9F440912A091E
:102CF00050912B09209167093091680942175307B9
:102D000050F09093DE078093DD0782E090E00E9410
:102D10005B1581E0089580E008958091D707909138
:102D2000D8070297029730F484E090E00E945B1588
:102D300081E0089580E008958091D7079091D807A9
:102D40000397E1F48091E107811118C08091DD07BC
:102D50009091DE07019779F482E090E09093E0078C
:102D60008093DF0781E08093E10784E090E00E9498
:102D70005B1581E0089581E090E0F0CF80E0089558
:102D80008091D7079091D8078830910571F40E94FF
:102D9000EC19892B11F080E008951092E20781E090
:102DA00090E00E945B1581E008950997A1F780915A
:102DB000440981FDF0CFF3CF8091D7079091D807D8
:102DC000099749F081E08093E30789E090E00E9451
:102DD0005B1581E0089580E008958091F4078111EA
:102DE00002C00C9417168091E4079091E507A0911A
:102DF000E607B091E7070A96A11DB11D8093E4078D
:102E00009093E507A093E607B093E707E091D70713
:102E1000F091D8072091440921FFBAC0399711F0E9
:102E20000E94DC160C94F915809185099091860911
:102E3000892B29F481E090E00E945B15F3CF88E0B4
:102E400090E0FACF109233091092320910923409AF
:102E5000E9CF83E599E00E94B61A882361F1809159
:102E60002E0990912F0920912C0930912D09821B58
:102E7000930B8C599F4F893C9105E8F48091EC07A6
:102E80009091ED07A091EE07B091EF070196A11D7B
:102E9000B11D8093EC079093ED07A093EE07B093DC
:102EA000EF0784369105A105B10508F4BBCF83E097
:102EB00090E00E945B151092EC071092ED071092C3
:102EC000EE071092EF07AECF20912A0930912B091F
:102ED00080916709909168092817390708F0A2CFF7
:102EE0000E948D169FCF80912E0990912F09181660
:102EF000190604F18091F0079091F107A091F20773
:102F0000B091F3070196A11DB11D8093F007909336
:102F1000F107A093F207B093F3070397A105B1055A
:102F200008F480CF8091E107882369F085E090E084
:102F30000E945B151092F0071092F1071092F207B1
:102F40001092F3076FCF87E090E0F2CF4091E8074F
:102F50005091E9076091EA077091EB078417950794
:102F6000A607B70708F45ECF8091DF079091E007CE
:102F70009093DE078093DD071092E10782E090E0F6
:102F80005BCF843F9140A105B10508F44BCF52CFF0
:102F9000E830F10508F046CFE053F84E0C94551F89
:102FA00014172217291764177317A6171217C117BA
:102FB0002091D7073091D8072830310569F021E0FA
:102FC0002093E207909343098093420988E090E0C0
:102FD0000E945B1581E0089580E008956093E80702
:102FE0007093E9078093EA079093EB070895609147
:102FF000E4077091E5078091E6079091E70708954F
:10300000FC0171836083538342831482158216828C
:103010001782118610868FE891E093878287158644
:1030200014861786168681E0808B0895FC017187CF
:103030006087538742870895CF92DF92EF92FF9285
:103040000F931F93FC01CB01841B950BAC01A28154
:10305000B3819C010E945B1F048115812681378109
:103060006B017C01C00ED11EE21EF31EA081B18156
:103070009A010E945B1F072F182F292F332727FD46
:103080003A95BB27F7FCBA95AF2D9E2D8D2D080FD5
:10309000191F2A1F3B1F82859385092E000CAA0B3E
:1030A000BB0B80179107A207B30754F457FF16C054
:1030B0002089222399F0C482D582E682F7820EC04D
:1030C00080859185092E000CAA0BBB0B08171907E8
:1030D0002A073B0774F41416150654F355874487E2
:1030E000978786871F910F91FF90EF90DF90CF9089
:1030F0000895C482D582E682F782C801EFCFFC0131
:1031000014821582168217821586148617861686F3
:103110000895FC0171836083538342830895FC0109
:1031200064817581868197810895FC0184859585E8
:103130000895E5EFF7E01182108213821282148263
:103140001582168217821086118680E89EEE93877C
:1031500082871486158616861786108A118A089526
:103160000F931F93FC01DB01828D81FD93C02385AA
:10317000348553968D919C9154972817390708F000
:1031800093C04091FF075091000870E060E000910B
:10319000FB071091FC072091FD073091FE070417F3
:1031A00015072607370708F082C0978555968C913A
:1031B0005597981708F45CC0809101088F5F809341
:1031C0000108843108F076C02585368556968D91A4
:1031D0009C9157972817390708F04DC08091020835
:1031E0008F5F80930208853008F067C058968D91F4
:1031F0009C918217930708F041C0809103088F5F6C
:1032000080930308823008F05BC0428524813581B9
:103210004333B8F124363105A4F5809104088F5F5B
:10322000809304088E3108F04EC0808191818C50CB
:103230009E4F8217930744F5809105088F5F809316
:1032400005088A3008F042C0453108F1232BF9F413
:10325000809106088F5F809306088431D0F5109224
:10326000F6071092F50790E080E01F910F91089506
:1032700010920108A9CF10920208B8CF109203084B
:10328000C4CF10920408D1CF10920508DDCF109260
:103290000608E5CF81E090E09093F6078093F5076C
:1032A00021E02093F907E1CF82E090E0F5CF83E0C1
:1032B00090E0F2CF84E090E0EFCF85E090E0ECCFBB
:1032C00086E090E0E9CF87E090E0E6CF88E090E00C
:1032D000E3CF89E090E0E0CF8F929F92AF92BF92D0
:1032E000CF92DF92EF92FF92B0E0A0E06C017D01FF
:1032F000C61AD70AE108F108A7019601C701B6016D
:103300000E94F01E8090FB079090FC07A090FD07A4
:10331000B090FE071C141D041E041F04DCF428EEEC
:1033200033E040E050E00E94361F820E931EA41E40
:10333000B51E8092FB079092FC07A092FD07B09209
:10334000FE07FF90EF90DF90CF90BF90AF909F90DF
:103350008F90089520EA3FE040E050E00E94361F41
:10336000281539054A055B0528F4821A930AA40A30
:10337000B50ADFCF1092FB071092FC071092FD07F1
:103380001092FE07DECFE5EFF7E014821182108283
:103390001486158616861786108A118A089520913C
:1033A000F7073091F8072817390741F41092F8070A
:1033B0001092F7071092FA070C94C31908958091A0
:1033C000F907811107C081E09091FA07911103C0BC
:1033D00080E0089581E008958091F5079091F607C7
:1033E00008958091F7079091F8070895E091FF07FD
:1033F000F0910008309799F02091FB073091FC077D
:103400004091FD075091FE07A4E6B0E00E94791FAD
:103410009F0150E040E00E94141F822F089580E039
:1034200008958A30910540F4880F991FFC01E554F6
:10343000FF4F8081918108958AE496E00895FC0110
:1034400011821082138212821582148288E592E022
:103450009783868384E893E09187808788EC90E067
:103460009387828788EB9BE09587848781E08687B6
:103470000895FC019485858522853385621773073D
:1034800034F0292F382F621773070CF49B01318316
:10349000208316860895FC017387628755874487C9
:1034A0000895FC01778366835187408708950F93C1
:1034B0001F93CF93DF93FC01C081D18102811381DF
:1034C0009E01201B310B121613068CF54681578185
:1034D00064E6649FC001659F900D112468EE73E05F
:1034E0000E94001F621773070CF49B01200F311F0D
:1034F0003383228354854585828593852281338158
:103500002817390734F0852F942F281739070CF422
:10351000C9019383828395838483C817D90711F4E3
:1035200021E02687DF91CF911F910F9108952115FA
:10353000310501F34085518564E6649FC001659FB4
:10354000900D112468EE73E00E94001F31952195C3
:103550003109621773070CF49B01021B130B1383D1
:103560000283C8CFFC01848195810895FC01868582
:103570000895FC0113821282158214821686089522
:10358000FC012081318182819381281B390B121625
:10359000130694F4668177816115710559F048EE40
:1035A00053E0249FC001259F900D349F900D11245E
:1035B0000E94001FCB01089570E060E021153105E5
:1035C000C9F360857185319521953109E5CFFC01FD
:1035D00090930E0880930D0870930C0860930B086D
:1035E000118210821382128215821482178216822F
:1035F00011861086128614861386168615861786FF
:10360000108A118A128A138A158A148A178A168ACE
:10361000118E108E828D8C7F8B7F828F138E148EF5
:10362000158E168E178E10A211A212A214A213A22A
:1036300015A216A217A210A6089580910D089091C8
:103640000E08089580910B0890910C080895E09160
:103650000D08F0910E0895838483748763875687DD
:10366000458727870895E0910B08F0910C08538156
:103670004481E0910D08F0910E0830E020E097FDC4
:1036800006C0252F342F821793070CF49C01318339
:1036900020830895E0910D08F0910E08803921E013
:1036A000920714F08FE891E097FF02C090E080E06D
:1036B0009187808744E6489F9001499F300D1124EF
:1036C000C9016FE871E00E94001F62870895E091D0
:1036D0000D08F0910E088281938124813581821B2F
:1036E000930B978386830895E0910D08F0910E085F
:1036F000838D948DA58DB68D0196A11DB11D838FEF
:10370000948FA58FB68F878D90A1A1A1B2A10196AC
:10371000A11DB11D878F90A3A1A3B2A3089580918D
:10372000070890910808A0910908B0910A0801962D
:10373000A11DB11D8C3221E09207A105B10548F40D
:103740008093070890930808A0930908B0930A088B
:103750000895109207081092080810920908109214
:103760000A08A0910D08B0910E08E0910B08F091A5
:103770000C085F964D915D916D917C919297448F6D
:10378000558F668F778F93968D919C9191A380A38F
:10379000089590E080E0089590E080E0089581E051
:1037A00090E00895089590E080E0089590E080E032
:1037B0000895EDE1F8E011821082138212821582E1
:1037C000148217821682108611861286138614863A
:1037D000158616861786118A108A108E799689E0CA
:1037E000E731F80741F710921C0810921808109260
:1037F000190810921A0810921B08109214081092BF
:10380000150810921608109217080E94B7036093CB
:103810001008709311088093120890931308109267
:103820000F0808954F925F926F927F92AF92BF926E
:10383000CF92DF92EF92FF920F931F93CF93DF937C
:103840000E94B7036B017C01B12C89E1A82E809105
:103850001C08B81608F464C08091100890911108F3
:10386000A0911208B0911308A7019601281B390BEB
:103870004A0B5B0BDA01C901883E9340A105B105F3
:1038800008F43FC0209114083091150840911608A3
:1038900050911708409018085090190860901A0825
:1038A00070901B08420E531E641E751E4114510475
:1038B0006104710471F0A4E6B0E00E94791FA301D5
:1038C00092010E94141F80910F08821710F4209318
:1038D0000F081092140810921508109216081092F2
:1038E0001708109218081092190810921A081092CE
:1038F0001B08C0921008D0921108E0921208F092B2
:103900001308DF91CF911F910F91FF90EF90DF90FF
:10391000CF90BF90AF907F906F905F904F90089541
:103920000B2D10E0A09EE001A19ED00D1124C35EDE
:10393000D74F888D882309F477C088819981892B96
:1039400009F472C08C859D85AE85BF85C816D906E1
:10395000EA06FB0608F468C00E94B7032B013C018D
:103960004C8A5D8A6E8A7F8AE881F98109950E9476
:10397000B703DC01CB0184199509A609B7094A8868
:103980005B88712C612C481659066A067B0610F478
:103990009B8B8A8B409014085090150860901608F5
:1039A00070901708480E591E6A1E7B1E409214081C
:1039B000509215086092160870921708A09EF001A8
:1039C000A19EF00D1124E35EF74F2481358180859F
:1039D0009185A285B385B701A601481B590B6A0BD7
:1039E0007B0BC9010596B0E0A0E084179507A607F8
:1039F000B70728F4808991890196918B808BA09ECE
:103A0000F001A19EF00D1124E35EF74FC086D18630
:103A1000E286F386D701C601820F931FA11DB11D57
:103A200084879587A687B787B39411CFDC019091DF
:103A30001C089A3028F5109719F189E1989FF00138
:103A40001124E35EF74FB183A083738362835583B0
:103A50004483378326831086118612861386A90134
:103A600070E060E04487558766877787118A108AFF
:103A7000138A128A81E0808F9F5F90931C080895BB
:103A800080E0089590911C08891748F499E1899F76
:103A9000F0011124E35EF74F80899189089590E049
:103AA00080E00895CF92DF92EF92FF920E94B703D9
:103AB000C0901008D0901108E0901208F090130800
:103AC0006C197D098E099F09683E73408105910537
:103AD00010F00E94121C209114083091150840919A
:103AE000160850911708C0901808D0901908E09057
:103AF0001A08F0901B08C20ED31EE41EF51E80E0CB
:103B0000C114D104E104F10449F0A4E6B0E00E943C
:103B1000791FA70196010E94141F822FFF90EF903A
:103B2000DF90CF90089580910F0808950895CF9366
:103B3000DF93CDB7DEB768970FB6F894DEBF0FBE40
:103B4000CDBF0E94830BFF24F394FF8A87E0888F08
:103B50008091630090916400A0916500B09166002F
:103B60008B8B9C8BAD8BBE8B188A1F8603E010E07D
:103B70001A8B098B8AE0E7E6F0E0DE0111960190EE
:103B80000D928A95E1F780EA96E8A1E0B0E08B8794
:103B90009C87AD87BE87CE0147960E946C020E942B
:103BA000C3020E942C030E947203CE0143960E941E
:103BB0004904CE010F960E944904CE0101960E944D
:103BC000AA048CEE90E00E9453050E94830BCE0164
:103BD0000B960E94D20584EF90E00E9453050E944C
:103BE000780A8CEF90E00E9453050E94760E0E94A6
:103BF00012060E94A20E0E949E0684E49DE4909309
:103C0000630980936209F092640988EB9BE09093CA
:103C100066098093650988EC90E090936809809329
:103C2000670988E592E090936A098093690984E8BE
:103C300093E090936C0980936B0984EF91E09093EB
:103C40006E0980936D0980E891E0909370098093EC
:103C50006F098AE190E0909372098093710980E482
:103C60009FE1909374098093730980E596E49093A3
:103C70007609809375098EE68093770980E29EE449
:103C8000909379098093780988ED96ED90937B095C
:103C900080937A0910937D0900937C0910927E0924
:103CA00010927F0910928009109281091092830965
:103CB0001092820910928409109286091092850947
:103CC0001092870962E679E08AE299E00E94E71A99
:103CD000409171095091720960916F09709170095A
:103CE00089E199E00E9400184FE851E068E270E035
:103CF00089E199E00E94161883E599E00E941F1A55
:103D00004091650950916609609167097091680951
:103D100083E599E00E944B1A40916B0950916C0920
:103D20006091690970916A0983E599E00E94511ACE
:103D30000E9499180E94171660916D0970916E0982
:103D400090E080E00E94EE170E943D100E94CA148D
:103D50000E94D91B30E020E04AE050E064E071E0CE
:103D600089E490E00E94161D21E030E042E350E03B
:103D70006AE071E080EC90E00E94161D22E030E0E5
:103D800044E650E062E171E085EE90E00E94161D8D
:103D900024E030E04AEF50E06AE171E083E591E031
:103DA0000E94161D23E030E044EF51E06EE171E027
:103DB0008DE990E00E94161D25E030E048EE53E0CA
:103DC0006AE271E08BEA90E00E94161D78940E94EE
:103DD000121C0E94B8148823D1F30E945F11F7CF00
:103DE000DB018F939F930E94791FBF91AF91A29F98
:103DF000800D911DA39F900DB29F900D11240895E9
:103E0000AA1BBB1B51E107C0AA1FBB1FA617B70700
:103E100010F0A61BB70B881F991F5A95A9F780951C
:103E20009095BC01CD010895A1E21A2EAA1BBB1BDF
:103E3000FD010DC0AA1FBB1FEE1FFF1FA217B30776
:103E4000E407F50720F0A21BB30BE40BF50B661F8C
:103E5000771F881F991F1A9469F760957095809550
:103E600090959B01AC01BD01CF010895052E97FBF4
:103E70001EF400940E944D1F57FD07D00E94141F8E
:103E800007FC03D04EF40C944D1F5095409530958F
:103E900021953F4F4F4F5F4F0895909580957095B6
:103EA00061957F4F8F4F9F4F0895EE0FFF1F059035
:103EB000F491E02D09940E94631F332312F48A1BAE
:103EC0009B0B0C94741FA29FB001B39FC001A39FD2
:103ED000700D811D1124911DB29F700D811D112443
:103EE000911D08950E94631FB7FF0895821B930BD5
:103EF00008950E94631FA59F900DB49F900DA49FED
:103F0000800D911D11240895FC0188279927E894BC
:103F100021912032E9F3293010F02E30C8F32B32F2
:103F200041F02D3239F4689404C00E94D71F820FEB
:103F3000911D219120532A30C0F31EF49095819554
:103F40009F4F089547E159E00E94B01F0895FB017B
:103F5000DC018D91019080190110D9F3990B08951E
:103F6000FA01A191B081009719F41097E1F0CD0109
:103F7000DC01CD010D90002011F4C00113C0FB0144
:103F80002191222319F02015D9F7F3CFFB012191BC
:103F9000201519F41E92119606C02223C1F70D9028
:103FA0000020A1F7D001FA01A193B08308957AE02F
:103FB000979F902D879F802D910D11240895AEE03D
:103FC000B0E0E5EEFFE10C948E220D891E8986E0BB
:103FD0008C831A8309838FEF9FE79E838D83AE01C5
:103FE000475E5F4F6F89788DCE0101960E94022057
:103FF0002F813885020F131FF80110822E96E4E0FE
:104000000C94AA22ABE0B0E0E8E0F0E20C9480224D
:104010007C013B018A01FC0117821682838181FFAA
:10402000C8C1CE0101965C01F7019381F30193FDB4
:10403000859193FF81913F01882309F453C1853213
:1040400039F493FD859193FF81913F01853229F4E5
:10405000B70190E00E94F221E7CF912C212C312C66
:10406000FFE1F31538F08B3211F190F4803209F151
:10407000833229F137FC3CC020ED280F2A3050F55F
:1040800036FE20C08AE0989E200D1124922E06C094
:104090008D3291F0803371F7689430F8F30193FD1D
:1040A000859193FF81913F018111DACF21C06894FE
:1040B00031F8689432F8F2CF689433F8EFCF68940F
:1040C00034F8ECCFEAE02E9E200D1124222E6894C5
:1040D00035F8E4CF8E3229F436FC04C1689436F802
:1040E000DDCF8C3619F4689437F8D8CF8836B1F222
:1040F000982F9F7D95549330E0F08336A1F183375C
:10410000C1F1833509F063C02801F2E04F0E511C64
:10411000F801C080D180692D70E036FC02C06FEFDD
:104120007FEFC6010E94DC214C01689437F88201C0
:104130000AC00C5F1F4FFFE3F98388248394912CFE
:104140006501E89437F833FE2DC0522C8114910498
:1041500071F5552009F468CFB70180E290E00E9424
:10416000F2215A94F6CFF801808189830E5F1F4FA8
:10417000E4CF2801F2E04F0E511CF801C080D1803D
:10418000692D70E036FC02C06FEF7FEFC6010E9420
:10419000E7214C018201D5CFB70180E290E00E9477
:1041A000F2212A942814190409F0B0F7CECFF601B1
:1041B00037FC859137FE81916F01B70190E00E9435
:1041C000F22151105A94F1E08F1A9108BFCF843632
:1041D00019F0893609F077C0F80137FE6BC06081AD
:1041E0007181828193810C5F1F4FF32DFF763F2EEB
:1041F00097FF09C090958095709561957F4F8F4F7F
:104200009F4F689437F82AE030E0A5010E942222EF
:10421000C82ECA188C2C432C36FE0CC0E89440F8EB
:10422000C91440F434FE05C032FC03C0F32DFE7EF9
:104230004F2E892C44FE95C0FE01EC0DF11D8081AE
:10424000803309F087C0242D297E422E842D88706A
:10425000582E43FC95C040FE8FC09C2C821418F44D
:104260002C0C922C981844FE91C0B70180E390E08A
:104270000E94F22142FE09C088E790E041FE02C0A0
:1042800088E590E0B7010E94F221C91408F48AC0C1
:10429000CA94D12C9FEFC91AD90ACA0CDB1CF601AB
:1042A00082916F01B70190E00E94F221AC14BD042D
:1042B000B1F74FCF60817181072E000C880B990BED
:1042C0000E5F1F4F92CFD32CE894D4F82AE030E051
:1042D000853739F1232D297FD22E8F3601F148F40D
:1042E0008835A9F0F701868197812B96E2E10C943D
:1042F0009C22803749F08837A9F7D4FE02C0689421
:10430000D2F820E130E00DC06894D4F8F6CF34FE46
:1043100003C0822F8660D82E20E132E002C028E060
:1043200030E0F801D7FE0FC06081718182819381F6
:104330000C5F1F4FA5010E942222C82ECA183D2CD7
:10434000E89437F867CF6081718190E080E00E5F7C
:104350001F4FF0CF42FC02C0839478CF83948394A4
:1043600075CF842D867809F471CFF6CFB70180E23E
:1043700090E00E94F22183948214C0F3512C73CFF9
:10438000522C5818821408F46ECFF8CF842D8678FA
:1043900009F47BCF8BE241FE80E247FC8DE2B7015E
:1043A00090E071CFB70180E390E00E94F2219A94EF
:1043B0006CCF8FEF9FEF99CFFC010590615070405B
:1043C0000110D8F7809590958E0F9F1F0895FC01DE
:1043D0006150704001900110D8F7809590958E0F34
:1043E0009F1F08950F931F93CF93DF93182F092FCB
:1043F000EB018B8181FD09C01FEF0FEF812F902F03
:10440000DF91CF911F910F91089582FF14C02E81EB
:104410003F818C819D81281739073CF4E881F9811F
:10442000CF0101969983888310838E819F810196A5
:104430009F838E83E3CFE885F985812F0995892BAA
:10444000A1F3DACFFA01AA27283051F1203181F106
:10445000E8946F936E7F6E5F7F4F8F4F9F4FAF4F8C
:10446000B1E03ED0B4E03CD0670F781F891F9A1F9F
:10447000A11D680F791F8A1F911DA11D6A0F711D53
:10448000811D911DA11D20D009F468943F912AE05F
:10449000269F11243019305D3193DEF6CF01089547
:1044A000462F4770405D4193B3E00FD0C9F7F6CF78
:1044B000462F4F70405D4A3318F0495D31FD405240
:1044C000419302D0A9F7EACFB4E0A69597958795D6
:1044D00077956795BA95C9F70097610571050895B5
:1044E0009B01AC010A2E0694579547953795279561
:1044F000BA95C9F7620F731F841F951FA01D0895F9
:104500002F923F924F925F926F927F928F929F92E3
:10451000AF92BF92CF92DF92EF92FF920F931F93D1
:10452000CF93DF93CDB7DEB7CA1BDB0B0FB6F89482
:10453000DEBF0FBECDBF09942A88398848885F84C2
:104540006E847D848C849B84AA84B984C884DF8033
:10455000EE80FD800C811B81AA81B981CE0FD11D17
:104560000FB6F894DEBF0FBECDBFED010895F894ED
:02457000FFCF7B
:10457200010C010100020080250000030000000080
:104582000039003600330030003B0038003500327D
:10459200003A00370034003100000101010001013E
:1045A200030206040C080903060C090102040801AF
:1045B200000200030004002106A50426066F042B56
:1045C200063006350639063F064406A6054406446B
:1045D2000552064A055B0665066E0674067E0645AA
:1045E2005252205354415254004552522052455681
:1045F200004552522041435449564500424F4F54C0
:10460200310D0A00424F4F54320D0A00424F4F54AF
:10461200330D0A0050616E656C0043757272656EEF
:104622007400436F6E74726F6C004C434400536CA1
:104632006F7753656E736F72730054656C656D6549
:1046420074727900534554252D3464204143542516
:104652002D34642563002533642525202532642EFC
:1046620025644120253264562025336443002121EC
:10467200205452495050454420212120202000211D
:104682005452495020434F44453D2564000D0A4988
:104692006E647573747269616C204D6F746F7220F1
:1046A200436F6E74726F6C6C65722076312E3000BF
:1046B2000D0A547970652048454C5020666F72206F
:1046C200636F6D6D616E64730D0A3E200045525238
:1046D2004F523A2000244D442C53503D25642C5215
:1046E200503D25642C443D25642C493D25642C56BF
:1046F2003D25642C543D25642C4449523D25632CB0
:1047020053543D25732C54523D25642C4932543D5B
:1047120025642C52483D256C752C53433D2564007D
:104722002A253032580D0A00214556542C000D0A14
:104732003D3D3D20417661696C61626C6520436F4D
:104742006D6D616E6473203D3D3D0053544154557F
:104752005320202020202020202D2053686F7720F6
:1047620074656C656D657472790052554E20202017
:1047720020202020202020202D20537461727420BC
:104782006D6F746F72202872656D6F7465206F6E25
:104792006C79290053544F502020202020202020C3
:1047A20020202D2053746F70206D6F746F72005231
:1047B200455620202020202020202020202D20525D
:1047C20065766572736520646972656374696F6E7C
:1047D200202872656D6F7465206F6E6C79290053A5
:1047E20050454544203C6E3E20202020202D205361
:1047F20065742073706565642028302D6D61785270
:10480200706D290053504545443F20202020202030
:1048120020202D2053686F772063757272656E7445
:10482200207370656564004449523F202020202097
:1048320020202020202D2053686F77206469726524
:104842006374696F6E004346473F2020202020207A
:10485200202020202D2053686F7720636F6E6669B9
:104862006775726174696F6E00534554203C7061C4
:1048720072616D3E203C76616C75653E202D205341
:10488200657420706172616D657465720041434B9D
:1048920020202020202020202020202D2041636B5A
:1048A2006E6F776C6564676520747269700054522C
:1048B20049503F2020202020202020202D205368F6
:1048C2006F77206163746976652074726970005431
:1048D200524950533F20202020202020202D2053B9
:1048E200686F772074726970206C6F6700484F554B
:1048F20052533F20202020202020202D2053686F5B
:10490200772072756E20686F7572730054554E452C
:104912003F2020202020202020202D2053686F7748
:1049220020504920696E7465726E616C7300534148
:104932005645202020202020202020202D20536199
:10494200766520636F6E66696720746F20454550F7
:10495200524F4D0048454C5020202020202020203E
:1049620020202D2053686F772074686973206D654D
:104972006E750020090D0A005354415455530052DC
:10498200554E00455252204D4F444500455252204B
:10499200545249505045440053544152542C5245AC
:1049A2004D4F54450053544F502C52454D4F544592
:1049B200004552522053544F5000524556455253CF
:1049C200452C52454D4F54450053504545443D25D5
:1049D200642C2564004552522041524753004552EF
:1049E200522052414E4745004449523F00444952E9
:1049F2003D2563004346473F004346473D25642C1F
:104A020025642C25642C25642C25642C25642C25F6
:104A1200642C25642C25642C25642C25642C2564A7
:104A220000534554004D415852504D004D494E528D
:104A3200504D00414343454C00444543454C0044DE
:104A420045414454494D45004B50004B49005241A9
:104A52005445440053484F5254004F564552544512
:104A62004D500045525220504152414D0041434B5E
:104A72002C4F4B0041434B2C524546555345442C39
:104A820041435449564500545249503F00545249FB
:104A9200503D25642C25730054524950533F003D2C
:104AA2003D3D2054726970204C6F67203D3D3D00B2
:104AB2005452502C302C4E4F4E45003D3D3D20452A
:104AC2006E64203D3D3D00484F5552533F00484FD4
:104AD2005552533D2530326C753A2530326C752C67
:104AE20053433D25640054554E453F0054554E45B1
:104AF2003D25642C25642C256C642C2564005341CF
:104B0200564500534156452C4F4B0048454C5000EA
:104B120045525220434D4400545249502C25732C87
:104B2200493D25642C4932543D256400554E4B4E77
:104B320000494E49540053545254005244574E00B7
:104B4200444541440042524B00434F4153540054A8
:104B5200524950004553544F5000554E4B4E4F57FB
:104B62004E004F5645524C4F414400554E4445521B
:104B7200564F4C54004F564552564F4C54005354C6
:104B8200414C4C004F5645525350454544004E4F00
:0A4B9200464545444241434B0000F4
:00000001FF
