:100000000C942A000C9447000C9475010C94470042
:100010000C9447000C9447000C9447000C94470044
:100020000C9447000C9447000C9400040C94470077
:100030000C9447000C94BB060C94FF060C944700EC
:100040000C9447000C9447000C9447000C94470014
:100050000C94470011241FBECFE5D8E0DEBFCDBF12
:1000600016E0A0E6B0E0E2E9FCE402C005900D92E3
:10007000A03CB107D9F729E0A0ECB6E001C01D9281
:10008000AE3EB207E1F70E9404210C9447260C947F
:1000900000000E947B120E940B1382309105E1F157
:1000A00030F5019781F10E94A81960E08330910535
:1000B00031F08230910511F00497C1F561E081E0E3
:1000C0000E941D130E94D019882399F181E00E949B
:1000D00035130E94BF190E943D130E941413909182
:1000E000AA09882341F19E7F9093AA09089583303D
:1000F0009105A9F00497B9F60E942D1A8111D3CF6A
:1001000081EE90E006C00E94DC198111CCCF8FEC0B
:1001100090E00E94C013C7CF0E94FA19C4CF0E947A
:10012000091A8111C0CF89ED90E0F3CF60E080E043
:10013000C7CF80E0CCCF9160D7CFCF93DF930E9421
:10014000E007C0E9D9E09E878D870E94FF078F876F
:10015000DF91CF9108950E94C419882369F02091FE
:100160009409309195098091CD099091CE09281775
:10017000390710F00E94E11E80E999E00C944518BF
:100180000C941211CF93DF930E94C107EC0190935E
:100190009C0980939B096091D9097091DA090E94AA
:1001A000D91C8091DB099091DC09C817D90760F050
:1001B00082E090E00E94451B60E979E082E090E0F7
:1001C000DF91CF910C947D18DF91CF910895CF935B
:1001D000DF930E945A1A0E94F5110E940A1290930E
:1001E0009509809394098091AA0980FF2FC080917E
:1001F000900990919109BC0189EB99E00E94A61D9C
:1002000089EB99E00E94C41D909393098093920911
:100210002091940930919509821B930B9093970933
:100220008093960968EC79E080E999E00E941D1CB2
:10023000EC01009791F00E94451B0E94F70E60E9C7
:1002400079E0CE01DF91CF910C947D180E94A20736
:100250009093910980939009CECF0E94C41988236E
:10026000E9F040919409509195096091920970913B
:1002700093098FE799E00E94891BEC01CE010E944F
:10028000B71ECE010E94D00E8091A4099091A509BD
:100290000E94AF0EDF91CF910C94D41E8FE799E0AE
:1002A0000E94EC1BD0E0C0E0E9CFCF93DF930E9427
:1002B000591DEC010E94D019882361F08091C1067C
:1002C0008C171D0679F0C093C106CE01DF91CF9146
:1002D0000C94AC0D1092C10680E999E0DF91CF91AA
:1002E0000C942A0CDF91CF9108951F920F920FB6B4
:1002F0000F9211248F931BBC1ABCC298C198C0984E
:1003000081E08093C0068F910F900FBE0F901F90D9
:100310001895CF92DF92EF92FF920F931F93CF9396
:10032000DF93CDB7DEB728970FB6F894DEBF0FBEC8
:10033000CDBF7B018E010F5F1F4F97FF1DC09195B1
:100340008195910931E0F80120E05AE0C52ED12CC9
:100350002F5FB6010E949022805D8193CB010097B0
:1003600011F02730A9F7332361F0F801E20FF11DF6
:100370008DE280832F5F05C0009759F580E3898364
:1003800021E0622F70E0C801860F971FD701081780
:100390001907B9F4FB01EE0DFF1D80E22417B0F040
:1003A0001082822F28960FB6F894DEBF0FBECDBF05
:1003B000DF91CF911F910F91FF90EF90DF90CF9041
:1003C0000895FC013291CF013D93E1CF2F5F8193DE
:1003D000E5CF30E0B8CFCF92DF92EF92FF920F934C
:1003E0001F93CF93DF93CDB7DEB728970FB6F8945E
:1003F000DEBF0FBECDBFFB018E010F5F1F4F009709
:1004000011F580E3898321E0622F70E0C801860F37
:10041000971F7F018017910749F5E60FF71F80E2CC
:10042000241758F11082822F28960FB6F894DEBF59
:100430000FBECDBFDF91CF911F910F91FF90EF9035
:10044000DF90CF900895780120E03AE0C32ED12CC0
:100450002F5FB6010E947C22805DD7018D937D01C4
:10046000CB01009789F2273099F7CECFDC013E917E
:10047000CD01D7013D937D01CDCF2F5F8193D0CFAB
:10048000FC0101900020E9F73197E81BF90BE80F18
:10049000F92FF11D30E22E2F281B261710F01082A5
:1004A00008953193F8CFEF92FF920F931F93CF935C
:1004B000DF93CDB7DEB728970FB6F894DEBF0FBE37
:1004C000CDBF9B016AE070E00E947C22482FCB01E7
:1004D0000097C1F580E38983E1E0A1E0B0E0AC0FD3
:1004E000BD1FAE0FB11D8EE28C9382E08E0FEF5FC9
:1004F00061E070E06C0F7D1F6E0F711DFB01405DB0
:100500004083482F50E0E1E0F0E0EC0FFD1FE40FE6
:10051000F51F622FD90192919D939A2F961B9817E0
:10052000D0F3240F351FD9011C9228960FB6F894EA
:10053000DEBF0FBECDBFDF91CF911F910F91FF9016
:10054000EF9008958E010F5F1F4FE0E05AE0E52E17
:10055000F12CEF5FB7010E947C22805DD8018D9362
:100560008D01CB01009709F4B8CFE63091F7B5CFF4
:100570008430E0F46830D0F4E82FF0E0EE0FFF1F95
:10058000EF57FF4F0190F081E02D81E090E001C036
:10059000880F6A95EAF79081413029F4892B80838E
:1005A00090E080E0089580958923F9CF81E090E084
:1005B00008958430D8F46830C8F441155105B1F07D
:1005C000E82FF0E0EE0FFF1FEF58FF4F0190F08192
:1005D000E02D808190E002C0959587956A95E2F7BD
:1005E0008170FA01808390E080E0089581E090E0DE
:1005F0000895843090F46115710579F0E82FF0E0EA
:10060000EE0FFF1FEF58FF4F0190F081E02D80812A
:10061000FB01808390E080E0089581E090E0089500
:100620008430E0F46830D0F4E82FF0E0EE0FFF1FE4
:10063000E758FF4F0190F081E02D81E090E001C08C
:10064000880F6A95EAF79081413029F4892B8083DD
:1006500090E080E0089580958923F9CF81E090E0D3
:1006600008950C941003CF93DF931F92CDB7DEB79C
:100670001982AE014F5F5F4F0E94D90289810F90AE
:10068000DF91CF9108958430B8F46830A8F4E82F52
:10069000F0E0EE0FFF1FE758FF4F0190F081E02DD3
:1006A000808121E030E001C0220F6A95EAF78227BD
:1006B000808390E080E0089581E090E0089591E0EB
:1006C000411101C090E0492F0C941003892B71F067
:1006D0003E9A3F983D98389839983A983B98309888
:1006E000319A329A379A90E080E0089581E090E064
:1006F0000895883080F4389839983A983B9880FD6E
:10070000389A81FD399A8695869509F03A9A369AF3
:1007100090E080E0089581E090E00895009759F01E
:1007200034B125B1232732272327FC0131832083CD
:1007300090E080E0089581E090E0089586B1829590
:10074000869586958370809581700895CF93DF9309
:10075000EB010E947903009749F40E949E038823CD
:10076000E1F3CE01DF91CF910C948E03DF91CF9115
:100770000895379890E080E0089583B78F7B83BF1A
:1007800083B7886083BF12BE89EF8CBF83B78B7F2E
:1007900083BF83B7826083BF83B7816083BF89B71C
:1007A000826089BF90E080E00895892B51F489B779
:1007B00091E0672B09F092E0892B89BF90E080E0FF
:1007C000089581E090E00895892B51F489B79EEF58
:1007D000672B09F09DEF892389BF90E080E00895A1
:1007E00081E090E008954115510539F05093C70616
:1007F0004093C60690E080E0089581E090E008957F
:100800001F920F920FB60F9211242F933F934F9385
:100810005F936F937F938F939F93AF93BF93EF9368
:10082000FF938091C2069091C306A091C406B09137
:10083000C5060196A11DB11D8093C2069093C30603
:10084000A093C406B093C506E091C606F091C70612
:10085000309709F00995FF91EF91BF91AF919F916A
:100860008F917F916F915F914F913F912F910F9059
:100870000FBE0F901F9018958FB58E7F8FBD8FB5CF
:1008800082608FBD8EB588608EBD8EB580618EBD55
:100890008FB58F7B8FBD8FB580688FBD1DBC1CBC95
:1008A0008FE891E097BD86BD8EB58B7F8EBD8EB5EE
:1008B0008D7F8EBD8EB581608EBD41E065E083E0A9
:1008C0000E94B80290E080E0089585369105A8F472
:1008D000009729F41BBC1ABC90E080E008959C01AD
:1008E000AFE8B1E00E94F32224E630E040E050E0BF
:1008F0000E94A4223BBD2ABDEFCF81E090E0089585
:1009000085B58F7B85BD85B5886085BD14BC85B5F3
:10091000846085BD85B58D7F85BD85B5816085BDCC
:1009200085B58F7D85BD85B5806185BD41E067E07A
:1009300083E00E94B80290E080E008958F3F910527
:1009400009F020F483BD90E080E0089581E090E01C
:10095000089578940895F89408952FB7F8946091C5
:10096000C2067091C3068091C4069091C5062FBF40
:1009700008958330910588F48130910541F0029704
:1009800049F08BB780648BBF90E080E008958BB70F
:100990008068F9CF8BB78062F6CF81E090E0089550
:1009A0008330910588F48130910541F0029749F038
:1009B0008BB78F7B8BBF90E080E008958BB78F77EC
:1009C000F9CF8BB78F7DF6CF81E090E0089583302B
:1009D0009105A8F48130910509F10297C1F185B71D
:1009E0008E7F85BF85B78D7F85BF6130710551F0E2
:1009F00060F06230710579F06330710549F081E093
:100A000090E0089585B7816085BF90E080E008950B
:100A100085B7816085BF85B78260F6CF85B78B7F4C
:100A200085BF85B7877F85BF6130710569F068F341
:100A30006230710531F06330710509F785B7846064
:100A400085BF85B78860E0CF85B78460DDCF623031
:100A5000710531F06330710591F684B7806402C08E
:100A600084B78F7B84BFD1CFCF93DF93EC01892BE9
:100A700099F0888199818330910570F46A817B8136
:100A80000E94E704009751F4888199818130910593
:100A900089F038F0029789F081E090E0DF91CF9102
:100AA00008958AB780648ABF88819981DF91CF9148
:100AB0000C94B9048AB78068F6CF8AB78062F3CF06
:100AC000039730F481E090E0672B21F080E00895F7
:100AD00081E090E008958FB780688FBF08958FB749
:100AE0008F778FBF08954091CC065091CD0620910D
:100AF000CA063091CB0642175307A9F3E091CA0604
:100B0000F091CB06E253F94F2081FC0120838091C4
:100B1000CA069091CB0601968F7399279093CB06C6
:100B20008093CA0690E080E00895CF93DF93EC01B4
:100B3000892B09F44CC088819981AA81BB810097D7
:100B4000A105B10509F443C09C01AD0184E0220F69
:100B5000331F441F551F8A95D1F760E074E284EF7C
:100B600090E00E94A42221503109832F8F7080BD14
:100B700029B98E81829580739885990F990F990F65
:100B80009870892B80689C81990F9670892B80BD05
:100B90008C819D810797C9F4529A539A549A579A17
:100BA000109211071092100710920F0710920E0763
:100BB0001092CD061092CC061092CB061092CA0667
:100BC00090E080E0DF91CF9108955298E6CF81E0E8
:100BD00090E0F8CF5398549857985698559810929B
:100BE000C9061092C80690E080E008952091100791
:100BF000309111072F5F3F4F2F77332740910E071A
:100C000050910F0742175307C9F3E0911007F09175
:100C10001107EE5EF84F8083309311072093100781
:100C2000559A90E080E00895009711F00C947305B8
:100C300081E090E00895009711F14091CC06509129
:100C4000CD062091CA063091CB0642175307B9F062
:100C5000E091CA06F091CB06E253F94F2081FC01E6
:100C600020838091CA069091CB0601968F739927B5
:100C70009093CB068093CA0690E080E0089581E0CF
:100C800090E00895CF93DF93EC01892B29F481E064
:100C900090E007C00E94F60589918111FBCF90E09A
:100CA00080E0DF91CF9108959F92AF92BF92CF9253
:100CB000DF92EF92FF920F931F93CF93DF931F92D8
:100CC000CDB7DEB71982009779F481E090E00F90FC
:100CD000DF91CF911F910F91FF90EF90DF90CF9018
:100CE000BF90AF909F9008956115710571F3942E98
:100CF0006C015C0110E000E07B0181E0E81AF10882
:100D00000E151F0548F4CE0101960E947305892B2C
:100D1000E1F68981891107C00C0D1D1DF8011082B3
:100D200090E080E0D4CFF50181935F010F5F1F4F0A
:100D3000E7CF009741F09093C9068093C806579A71
:100D400090E080E0089581E090E008952091100700
:100D50003091110780910E0790910F0728173907DE
:100D600019F490E080E0089582E090E008950C94FA
:100D7000F6050C9442061F920F920FB60F921124A3
:100D80002F933F934F935F936F937F938F939F9393
:100D9000AF93BF93EF93FF938CB12091CC0630912A
:100DA000CD062F5F3F4F2F7333274091CA065091D6
:100DB000CB064217530759F0E091CC06F091CD06CF
:100DC000E253F94F80833093CD062093CC06E09117
:100DD000C806F091C906309709F00995FF91EF9187
:100DE000BF91AF919F918F917F916F915F914F9143
:100DF0003F912F910F900FBE0F901F9018951F924B
:100E00000F920FB60F9211242F933F938F939F93BE
:100E1000EF93FF93209110073091110780910E07F7
:100E200090910F0728173907F1F0E0910E07F09124
:100E30000F07EE5EF84F208180910E0790910F070B
:100E400001968F77992790930F0780930E072CB9FF
:100E5000FF91EF919F918F913F912F910F900FBE36
:100E60000F901F9018955598F3CF88E480B9089893
:100E7000099886B7846086BF90E080E008950C945E
:100E8000350784EA86BF90E080E006B607FE08C01A
:100E900021B1287F81E090E0283049F480E0089576
:100EA0000196813127E2920781F781E090E0089571
:100EB00084E986BF90E080E0089583B984E886BF26
:100EC00090E080E006B607FE0CC021B1287F2831F3
:100ED00081F0283271F081E090E0203449F480E024
:100EE00008950196813127E2920761F781E090E051
:100EF000089580E0FCCFCF93DF93D82FC62F0E94B8
:100F00004107009741F48D2F880FC1708C2BDF9122
:100F1000CF910C945D07DF91CF9108950C945D07FC
:100F2000CF93DF9300D0CDB7DEB781E0898387E030
:100F30008A83CE0101960E9466030F900F90DF9185
:100F4000CF910895CF93DF9300D0CDB7DEB71A824B
:100F50001982BE016F5F7F4F80E00E94A603298146
:100F60003A81A8EBBBE00E94F3222FEF33E040E090
:100F700050E00E94A422C9010F900F90DF91CF9101
:100F80000895CF93DF9300D0CDB7DEB71A821982D0
:100F9000BE016F5F7F4F81E00E94A60329813A81E5
:100FA000A0E2BEE40E94F3222FEF33E040E050E0E5
:100FB0000E94A422C9010F900F90DF91CF91089554
:100FC000CF93DF9300D0CDB7DEB71A821982BE016E
:100FD0006F5F7F4F82E00E94A60329813A81A0E6DD
:100FE000BAEE0E94F3222FEF33E040E050E00E947F
:100FF000A422C9010F900F90DF91CF910895CF9354
:10100000DF9300D0CDB7DEB71A821982BE016F5FC1
:101010007F4F83E00E94A60329813A81A6E9B0E0D0
:101020000E94F3222FEF33E040E050E00E94A42220
:10103000822F0F900F90DF91CF9108951092950716
:101040001092940710929307109292070C948004C8
:1010500090939507809394071092930710929207AC
:101060008130910551F028F0049750F081E090E034
:10107000089590E080E00C949E0486E990E0FBCF18
:101080008CE390E0F8CF80919407909195070097BA
:1010900059F18330910541F14AE050E081309105EA
:1010A00011F442E350E020919207309193072F5FB3
:1010B0003F4F2417350728F4309393072093920766
:1010C00008951092930710929207209160002223B6
:1010D00061F090E080E00E949E0481E090916000C9
:1010E000911180E0809360000895019719F08CE3DE
:1010F00090E0F1CF86E990E0EECFDB01FA0182309B
:101100009105A1F028F4019761F01C9210820895D6
:101110008330910579F00497C1F783E08C9387E0E1
:1011200003C081E08C9383E08083089583E08C93F7
:1011300085E0FACF83E08C9384E0F6CF823091058E
:1011400061F018F4019739F008958330910549F062
:10115000049759F008956CBF089570E07BBD6ABD97
:10116000089570E079BD68BD089563BD0895EF925C
:10117000FF921F93CF93DF93EC017B01CB0101978B
:1011800010E040E08330910540F4FC01E457FF4F4C
:101190004081FC01E757FF4F10812885222329F069
:1011A000029718F4842F412F182F698188810E949B
:1011B0003103412F6B818A810E943103FC86EB86CB
:1011C000DF91CF911F91FF90EF90089582309105AC
:1011D00091F018F4019739F008958330910599F052
:1011E0000497C1F0089583B7662319F0806283BF26
:1011F00008958F7DFCCF8FB5662319F080688FBD71
:1012000008958F77FCCF8FB5662311F08062F7CFFA
:101210008F7DF5CF85B5662319F0806285BD089571
:101220008F7DFCCF0F931F93CF93DF9300D0CDB76B
:10123000DEB78C011A821982FC01868197810097A2
:1012400089F441E08285811101C040E0F8016581A7
:1012500084810E9431030F900F90DF91CF911F91F5
:101260000F910895AE014F5F5F4FBE016E5F7F4FDC
:101270000E947D08F801828526813781811108C08E
:1012800060E0C9010E94E60840E069818A81E1CFFF
:10129000FFEF8F9FC001112464E670E00E947C2262
:1012A000C9010E949E0861E0F801868197810E9431
:1012B000E608D1CF0F931F93CF93DF9300D0CDB724
:1012C000DEB7FC011A821982892B49F481E090E093
:1012D0000F900F90DF91CF911F910F910895808112
:1012E0008430A0F79281943088F7268137812530A9
:1012F000310560F78F0141E061810E94B80241E051
:10130000F801638182810E94B80240E0F8016181A6
:1013100080810E94310340E0F801638182810E9454
:101320003103F801868197810097E1F4848184304C
:1013300068F641E065810E94B80240E0F8016581ED
:1013400084810E943103F801128681E0818770E078
:1013500060E0C8010E94B708C8010E94120990E02D
:1013600080E0B6CFAE014F5F5F4FBE016E5F7F4F33
:101370000E947D0841E069818A810E94B80240E0B4
:1013800069818A810E943103F801868197818430C6
:10139000910560F48230910598F4019769F060E05E
:1013A000F801868197810E94E608CDCF0497B9F7AE
:1013B0008CE485BD13BCF3CF8BE483BF1CBEEFCFA1
:1013C0008FB581608FBD8EB588608EBD8EB5826011
:1013D0008EBD8EB581608EBDE2CF009771F0FC01AD
:1013E0002185222351F0653608F064E6FC0162870E
:1013F0000E94120990E080E0089581E090E0089555
:10140000CF93DF93009789F0FC012185222369F0B7
:10141000EC0161E070E00E94B708CE010E94120961
:1014200090E080E0DF91CF91089581E090E0FACFE5
:10143000CF93DF93009789F0FC012185222369F087
:10144000EC0162E070E00E94B708CE010E94120930
:1014500090E080E0DF91CF91089581E090E0FACFB5
:10146000009769F0FC012185222349F06230710563
:1014700030F4672B11F40C94000A0C94180A81E0E4
:1014800090E008950F931F93CF93DF9300D0CDB7D3
:10149000DEB71A821982009771F1FC01218522239F
:1014A00051F18C0170E060E00E94B708F80186817C
:1014B0009781009771F440E0658184810E94310337
:1014C00090E080E00F900F90DF91CF911F910F91EE
:1014D0000895AE014F5F5F4FBE016E5F7F4F0E9468
:1014E0007D0860E0F801868197810E94E60840E06F
:1014F00069818A81E3CF81E090E0E4CFCF93DF93ED
:10150000009701F1FC0121852223E1F0EC0163E069
:1015100070E00E94B7088E819F81009751F441E0EE
:101520006D818C810E94310390E080E0DF91CF914A
:1015300008956FEF0E949E0861E08E819F810E9456
:10154000E608F2CF81E090E0F1CF009779F0FC015E
:101550002185222359F06115710541F08385948519
:10156000FB019183808390E080E0089581E090E02A
:101570000895009769F0FC012185222349F0611547
:10158000710531F08285FB01808390E080E0089551
:1015900081E090E008950F931F93CF93DF9300D0E5
:1015A000CDB7DEB71A821982009789F1FC01218537
:1015B000222369F18C010E94420AF80186819781F9
:1015C0000097C9F0AE014F5F5F4FBE016E5F7F4F66
:1015D0000E947D0860E0F801868197810E94E608FC
:1015E00060E0F801868197810E949E0840E0698151
:1015F0008A810E943103F8011286118690E080E012
:101600000F900F90DF91CF911F910F91089581E07E
:1016100090E0F6CFCF93DF93009731F4C1E0D0E0B4
:10162000CE01DF91CF910895C62F60E0FC0180814B
:101630000E947B07892B91F780E00E948E07892BFF
:1016400019F00E945807EACF8C2F0E948E07EC01F8
:10165000892BB9F70E945807E3CFCF93DF93009708
:1016600031F4C1E0D0E0CE01DF91CF910895C62FD3
:1016700060E0FC0180810E947B07892B91F780E468
:101680000E948E07892B19F00E945807EACF8C2FF1
:101690000E948E07EC01892BB9F70E945807E3CF0F
:1016A0000F931F93CF93DF93009741F401E010E075
:1016B000C801DF91CF911F910F91089561157105B8
:1016C000A9F3EB0160E0FC0180810E947B07892B7C
:1016D00069F780E40E948E078C01892B51F489916F
:1016E000811103C00E945807E3CF0E948E07892B07
:1016F000B1F30E945807DACFCF93DF9300D0CDB774
:10170000DEB7198220E42A83009799F0FC01218139
:10171000621778F42281421760F4FE01E60FF11D92
:101720006181640F60680F900F90DF91CF910C94EE
:101730000A0B81E090E00F900F90DF91CF91089518
:101740000F931F93CF93DF93EC0189010E947C0BD1
:10175000892B41F4B801CE01DF91CF911F910F91F8
:101760000C94500B81E090E0DF91CF911F910F918D
:101770000895CF93DF9300D000D0CDB7DEB761E0FE
:101780000E940A0B19821A821B821C8249815A818B
:101790006B817C81403D57406105710538F00F90A9
:1017A0000F900F900F90DF91CF91089549815A814A
:1017B0006B817C814F5F5F4F6F4F7F4F49835A83AF
:1017C0006B837C83E3CF62E00C940A0B9C019091C5
:1017D0006100662349F0946090936100609161001C
:1017E0006860C9010C940A0B9B7FF6CFCF93DF93FF
:1017F000009729F481E090E0DF91CF910895EC010A
:1018000068E30E940A0B892BA9F78CE080936100A2
:101810006CE0CE010E940A0B892B61F7CE010E9479
:10182000B90B892B39F766E0CE010E940A0B31E033
:1018300020E0892B09F430E0832F922FDDCFE9E9F6
:10184000F7E08EE3808382E0818380E18283CF01B1
:101850000C94F60BEF92FF920F931F93CF93DF93AD
:10186000CDB7DEB7A8970FB6F894DEBF0FBECDBFD9
:10187000009709F46EC17C0183E58A8B85E48B8B2C
:1018800084E58C8B44E0BE016D5D7F4FD7011296DD
:101890008D919C910E94890103E0EDEFE00F23E21E
:1018A00030E02C0F3D1F2E0F311DF9012081E1E0AA
:1018B000E00F802F90E042E150E04C0F5D1F840F5D
:1018C000951F21112EC120E2DC012C939A012E0FCD
:1018D000311DF90181E48083E2E0E00F42E150E054
:1018E0004C0F5D1F4E0F511DFA0183E4808314E0FD
:1018F000100FE3E0E00F62E170E06C0F7D1F6E0FF0
:10190000711DFB0184E5808344E0BE016D5D7F4F66
:10191000D70114968D919C910E9489019CEF901B98
:10192000E92FE10F23E230E02C0F3D1F2E0F311D78
:10193000F901408181E0810F212F30E04111F5C094
:10194000D70154964D915C9196E44130510529F0B0
:1019500092E54230510509F09DE2E2E1F0E0EC0F42
:10196000FD1F2E0F3F1FD9019C93E2E1F0E0EC0F29
:10197000FD1FE80FF11D90E2803108F4E0C01AA2CB
:10198000F701828542E0BE016D5D7F4F90E00E94CD
:10199000EB018BA18A8B8CA18B8B85E28C8B80E2F7
:1019A0008D8BD7011B968D919C9164E670E00E940F
:1019B0007C22CB01BE016D5D7F4F0E94530214E07B
:1019C000ECEFE10F23E230E02C0F3D1F2E0F311D15
:1019D000F9012081E1E0E10F812F90E042E150E048
:1019E0004C0F5D1F840F951F2111ACC021E4DC0159
:1019F0002C939A012E0F311DF90100E20083D701CB
:101A00001D968D919C9168EE73E00E947C22CB0123
:101A100042E0BE016D5D7F4F0E94EB01E2E0E10F0D
:101A200022E130E02C0F3D1F2E0F311DF9018BA15B
:101A30008083E3E0E10F42E150E04C0F5D1F4E0F69
:101A4000511DFA018CA18083E4E0E10F62E170E0B6
:101A50006C0F7D1F6E0F711DFB0186E58083E5E035
:101A6000E10F82E190E08C0F9D1F8E0F911DFC0114
:101A70000083D7011F968C9142E0BE016D5D7F4FC0
:101A800090E00E94EB01E6E0E10F22E130E02C0F54
:101A90003D1F2E0F311DF9018BA18083E7E0E10F7F
:101AA00042E150E04C0F5D1F4E0F511DFA018CA119
:101AB000808389E0810FE8E0E10F62E170E06C0F64
:101AC0007D1F6E0F711DFB0193E49083E2E1F0E056
:101AD000EC0FFD1FE80FF11D90E28031B8F1198A7B
:101AE0009E012E5E3F4F40E060E089E997E00E9452
:101AF000A00B9E012F5F3F4F40E061E089E997E036
:101B00000E94A00B90E080E0A8960FB6F894DEBF8C
:101B10000FBECDBFDF91CF911F910F91FF90EF903E
:101B20000895DC012C930E2FB8CEE2E1F0E0EC0F2B
:101B3000FD1F2E0F3F1FD9014C93182FF1CE8F5F41
:101B400091931ACFDC012C931E2F3ACF8F5F919384
:101B5000C4CF81E090E0D8CF0F931F93CF93DF9352
:101B6000CDB7DEB765970FB6F894DEBF0FBECDBF19
:101B70008C01809197079091980701968F3091057D
:101B800008F053C0909398078093970723EA31E0B9
:101B900040E060E089E997E00E94A00B8091960701
:101BA000882309F454C081E2898384E58A8382E52D
:101BB0008B8389E48C8380E58D838DE38E8342E083
:101BC000BE016E5E7F4FC8010E94EB0186E0EAEF26
:101BD000E80F22E130E02C0F3D1F2E0F311DF901DF
:101BE0009081E82FF0E021E030E02C0F3D1FE20F64
:101BF000F31F911126C090E2803130F1198A9E01C5
:101C00002F5F3F4F40E061E089E997E00E94A00B21
:101C100090E080E065960FB6F894DEBF0FBECDBFB2
:101C2000DF91CF911F910F91089510929807109214
:101C3000970781E090919607911180E08093960735
:101C4000A5CF90838F5FC3CF8F5F9193D5CF80E96E
:101C500099E00E942A0CDCCF8091A4079091A507FF
:101C6000892BF1F02091A2073091A3072A3031058A
:101C7000B8F0AFE8B1E00E94F32224E630E040E0A3
:101C800050E00E94A422203981E0380710F02FE8AC
:101C900031E03BBD2ABD41E062E081E00C943103BC
:101CA0001BBC1ABC40E0F8CF8091A107811154C041
:101CB00041E060E081E00E94B80241E061E081E043
:101CC0000E94B80241E062E081E00E94B80241E077
:101CD00065E083E00E94B80240E060E081E00E949D
:101CE000310340E061E081E00E94310340E062E0C6
:101CF00081E00E94310340E065E083E00E9431030F
:101D00008FB582608FBD8EB588608EBD8EB58061C7
:101D10008EBD8FB58E7F8FBD8FB580688FBD8FB51F
:101D20008F7B8FBD8FE891E097BD86BD1BBC1ABC31
:101D30008EB581608EBD8EB58D7F8EBD8EB58B7F4D
:101D40008EBD1092A5071092A4071092A3071092BF
:101D5000A20781E08093A10790E080E008958130A0
:101D6000910549F00297A1F040E060E081E00E9417
:101D7000310340E013C040E061E081E00E943103A4
:101D800041E060E081E00E94310390E080E008954E
:101D900040E060E081E00E94310341E061E0F2CF89
:101DA0008536910510F084E690E09093A307809328
:101DB000A2070E942C0E90E080E0089581E090E060
:101DC0009093A5078093A4070E942C0E90E080E0DA
:101DD00008951092A5071092A4071BBC1ABC40E0FE
:101DE00062E081E00E94310390E080E008951BBC36
:101DF0001ABC40E062E081E00E94310340E060E014
:101E000081E00E94310340E061E081E00E94310303
:101E10001092A5071092A4071092A3071092A20790
:101E200008958091A4070895009741F0029769F002
:101E30006370E62FF0E0E956FF4F05C06370E62FB0
:101E4000F0E0E556FF4F808108956770E62FF0E0DF
:101E5000E157FF4FF8CF1F93CF93DF93EC01162F7D
:101E6000462F4170698188810E94310311FB44270C
:101E700040F96B818A810E94310312FB442740F9AB
:101E80006D818C810E94310313FB442740F96F81DF
:101E90008E810E94310381E0111101C080E08D8BA1
:101EA000DF91CF911F910895CF93DF93009709F4AD
:101EB0004BC0FC0127853089232B09F445C0EC0178
:101EC00041E0618180810E94B80241E06B818A819A
:101ED0000E94B80241E06D818C810E94B80241E00D
:101EE0006F818E810E94B8028C858823A1F041E029
:101EF000698588850E94B80241E06B858A850E94C9
:101F0000B80241E0698588850E94310341E06B8514
:101F10008A850E94310389899A89892B21F481E07D
:101F200090E09A8B898B1C8A1E8A1F8A188E198EC4
:101F30001D8A60E0CE010E942B0F81E08B8B90E028
:101F400080E0DF91CF91089581E090E0FACFFC012D
:101F5000892B61F08389882349F06330710530F45F
:101F600076876587148A90E080E0089581E090E0AC
:101F70000895009779F0FC012389222359F0611517
:101F8000710511F461E070E0FC01728B618B90E0EF
:101F900080E0089581E090E00895CF93DF93EC0115
:101FA000892B49F18B89882331F16115710519F16C
:101FB0002F85388950E040E08D859E85029721F479
:101FC000220F331F441F551FDB010E9409239B0171
:101FD000AC0160E67AEE80E090E00E94A422211538
:101FE00031054105510539F03A8B298B90E080E0AD
:101FF000DF91CF91089581E090E0FACFCF92DF9208
:10200000EF92FF92CF93DF93EC01AB01892B09F4A0
:1020100040C08B898823E9F162307105D0F52D85A8
:102020003E8564E02230310509F468E08C8970E077
:10203000CE88DF88E88CF98C90E0452BF1F401968E
:102040000E947C228C8B8FEFC81AD80AE80AF80A03
:10205000CE8ADF8AE88EF98E6C89C9010E94140F3E
:10206000682FCE010E942B0F90E080E0DF91CF918E
:10207000FF90EF90DF90CF900895860F971F019704
:102080000E947C228C8B81E0C81AD108E108F108FB
:10209000DFCF81E090E0EACF4F925F926F927F9224
:1020A0008F929F92AF92BF92CF92DF92EF92FF9268
:1020B0000F931F93CF93DF93009709F43EC0FC0169
:1020C00023892223D1F142305105B8F53A012B0181
:1020D000EC0110E000E04016510699F490E080E039
:1020E000DF91CF911F910F91FF90EF90DF90CF90F4
:1020F000BF90AF909F908F907F906F905F904F9028
:102100000895B301CE010E94FE0FC988DA880E94AB
:10211000AD044B015C01F12CE12C0E94AD04681967
:1021200079098A099B096C157D058E059F0518F0B4
:102130000F5F1F4FD0CFA895F0CF81E090E0D0CFB8
:102140000F931F93CF93DF93EC018A01892B09F141
:102150008B898823F1F02F85388950E040E08D8508
:102160009E85029721F4220F331F441F551FDB0168
:102170000E94092328E631E040E050E00E94A422BA
:10218000B901A801CE01DF91CF911F910F910C945D
:102190004C1081E090E0DF91CF911F910F91089555
:1021A0000F931F93CF93DF930097C9F1FC0123890D
:1021B0002223A9F16115710591F1E6EAF7E030E01B
:1021C00020E0A285A11125C08C018BE0829FE00157
:1021D000839FD00D1124CA55D84F198308837B8360
:1021E0006A835D834C830E94AD04F80121893289A2
:1021F000620F731F811D911D6E837F83888799876E
:1022000081E08A8790E080E0DF91CF911F910F916C
:1022100008952F5F3F4F3B962430310591F681E0C2
:1022200090E0F2CF0F931F93CF93DF93C6EAD7E0EE
:102230008A85882349F10E94AD040E811F8128857B
:1022400039856017710782079307F0F06C817D81F3
:10225000888199810E94FE0F8A819B8101979B83CF
:102260008A830E94AD04E881F98121893289620F55
:10227000731F811D911D6E837F83888799878A8153
:102280009B81892B09F41A862B9687E0C23DD807DB
:1022900079F6DF91CF911F910F910895CF93DF933E
:1022A000009701F1FC0123892223E1F0EC018485F0
:1022B000882351F041E0618580850E94310341E02F
:1022C0006B858A850E9431036C898D859E850E946D
:1022D000140F682FCE010E942B0F90E080E0DF9159
:1022E000CF91089581E090E0FACFCF93DF930097EC
:1022F000D9F0FC0123892223B9F0EC0160E00E94AF
:102300002B0F8C85882351F040E0698588850E94D9
:10231000310340E06B858A850E9431031D8A90E07D
:1023200080E0DF91CF91089581E090E0FACF0097AF
:1023300099F0FC012389222379F06115710561F080
:1023400086899789A08DB18DFB0180839183A283BB
:10235000B38390E080E0089581E090E008950097D5
:1023600059F0FC012389222339F0168A178A108E2E
:10237000118E90E080E0089581E090E00895FC01E6
:10238000892BA1F08389882389F06115710571F08B
:102390002785308985859685029711F4220F331F92
:1023A000FB013183208390E080E0089581E090E09C
:1023B00008958091D4079091D50701969093D50701
:1023C0008093D40708951092D5071092D4071092E5
:1023D000D3071092D20769ED71E190E080E00E948E
:1023E000600590E080E00C94B904F8942091D40743
:1023F0003091D5071092D5071092D40778944CE30A
:10240000429FC001439F900D11249093D307809366
:10241000D20708958091D2079091D307089540E0A4
:1024200065E082E00E94B80240E066E082E00E943F
:10243000B80240E067E082E00E94B80240E066E057
:1024400083E00E94B80240E064E083E00E94B802AA
:1024500041E050E065E070E082E090E00E945F03C0
:1024600041E050E066E070E082E090E00E945F03AF
:1024700041E050E067E070E082E090E00E945F039E
:1024800041E050E066E070E083E090E00E945F038E
:1024900041E050E064E070E083E090E00E945F0380
:1024A00041E063E081E00E94B80241E062E082E046
:1024B0000E94B80241E063E082E00E94B80241E07D
:1024C00064E082E00E94B80240E063E081E00E94A4
:1024D000100340E062E082E00E94100340E063E00D
:1024E00082E00E94100340E064E082E00E9410035A
:1024F00090E080E00895EF92FF920F931F93CF93A7
:10250000DF93CDB7DEB72C970FB6F894DEBF0FBEC2
:10251000CDBF65E082E00E943303F82E66E082E0E2
:102520000E943303082F67E082E00E943303182FD4
:1025300066E083E00E94330391E0F11090E0998718
:1025400091E0011190E09A8791E0111190E09B8752
:1025500091E0811190E09C8788E0EFE9F0E0DE01F6
:10256000119601900D928A95E1F74091E307509101
:10257000E407BE01675F7F4FE7EDEE2EE7E0FE2E3A
:10258000EBEDF7E090E080E0DB012D91BD01D7019C
:102590003D917D012317E1F010828D010150110959
:1025A000D8012C93019631968430910569F75093A8
:1025B000E4074093E3072C960FB6F894DEBF0FBEF6
:1025C000CDBFDF91CF911F910F91FF90EF900895B4
:1025D0002130D1F430813F5F3083353018F38C01E6
:1025E0000152184FD8013C913111DCCF2C939C0142
:1025F000220F331F41E050E04C0F5D1F240F351FA9
:10260000D9014D915C91CECF10829C012152384F5F
:10261000D9011C92C7CF8091E3079091E4071092F3
:10262000E4071092E307089564E083E00E94330317
:1026300091E0811190E0892F0895662371F08091D7
:10264000D6078F5F8A3018F48093D60708951092CA
:10265000D60763E081E00C94430341E0811101C09F
:1026600040E063E081E00C94100341E0811101C07F
:1026700040E062E082E00C9410038130910521F08B
:10268000029749F040E001C041E063E082E00E942F
:10269000100340E006C040E063E082E00E941003C7
:1026A00041E064E082E00C941003009761F0FC01CB
:1026B0002081222341F08191811102C081E008959F
:1026C00080538A30C0F380E00895CF93C82F809163
:1026D0003808882319F08C2F0E94B706E09136083D
:1026E000C83011F0CF3781F4EE2361F1E150E0936F
:1026F0003608F0E0EA50F84F108280E20E94B706F8
:1027000088E0CF910C94B706CD3011F0CA3081F437
:102710008FEE91E0EE2349F0F0E0EA50F84F10829E
:1027200081E0809337088CE994E0CF910C94B9064E
:10273000EF3340F481E08E0F80933608F0E0EA50EA
:10274000F84FC083CF9108950E94B9068CE994E0B8
:102750000C94B906109236081092370881E08093E5
:102760003808E6EFF7E080E4DF011D928A95E9F78B
:1027700084EB91E00E94A41387ED91E00C94A413E4
:10278000CF93DF93EC0184EF91E00E94B906CE0174
:102790000E94B9068CE994E0DF91CF910C94B906C0
:1027A0007F928F929F92AF92BF92CF92DF92EF92E1
:1027B000FF920F931F93CF93DF93CDB7DEB7C0582F
:1027C000D1090FB6F894DEBF0FBECDBF8C01FC015E
:1027D00083A074A0C78CB0A0A1A092A00E94631D8A
:1027E000D82EF801F08CE18C0E94AD19F8012489F3
:1027F00035892130310509F470C02230310509F4E2
:102800006EC02DE27F928F929F92AF92BF92CF9235
:102810001F92DF92EF92FF929F938F931F922F93BD
:10282000F80187851F928F9386858F9385858F9377
:1028300084858F9383858F9382851F928F93858163
:102840008F9384818F9383818F9382818F938CEF79
:1028500091E09F938F938E010F5F1F4F1F930F93F4
:102860000E946F230FB6F894DEBF0FBECDBF81E08C
:1028700020E0F801E80FF11D9081911132C0F801BC
:1028800001900020E9F7CF011F922F9327E432E057
:102890003F932F9301979F938F930E946F23C801BB
:1028A0000E94B9060F900F900F900F900F900F900D
:1028B000C058DF4F0FB6F894DEBF0FBECDBFDF911B
:1028C000CF911F910F91FF90EF90DF90CF90BF902D
:1028D000AF909F908F907F90089526E493CF22E54C
:1028E00091CF29278F5FC5CFCF93DF93EC018FE482
:1028F00092E00E94B906CE010E94B9068CE994E0EC
:10290000DF91CF910C94B90685E592E00E94A41363
:1029100082E792E00E94A41381E992E00E94A4134E
:102920008BEB92E00E94A41386ED92E00E94A41328
:1029300086E093E00E94A4138BE293E00E94A4132C
:102940008EE493E00E94A4138DE693E00E94A4130A
:1029500080E993E00E94A41384EB93E00E94A41307
:1029600085ED93E00E94A41386EF93E00E94A413E8
:1029700084E194E00E94A41383E394E00E94A413F2
:1029800085E594E00E94A4138BE794E00E94A413D1
:102990008EE994E00C94A413EF92FF920F931F938F
:1029A000CF93DF93CDB7DEB7C058D1090FB6F894F7
:1029B000DEBF0FBECDBF80913708882379F110921A
:1029C000E5076AE974E086EF97E00E943223F09011
:1029D000E507009719F027E02F1570F510923708DA
:1029E00010923608E6EFF7E080E4DF011D928A9549
:1029F000E9F7FF2079F00091E6071091E7076FE90A
:102A000074E0C8010E943723892B39F580E999E0E9
:102A10000E94D01381EF91E00E94B906C058DF4FA9
:102A20000FB6F894DEBF0FBECDBFDF91CF911F91DF
:102A30000F91FF90EF90089521E02F0D2093E5076F
:102A4000EF2DF0E0EE0FFF1FEA51F84F91838083E6
:102A50006AE974E090E080E0B8CF66EA74E0C8010B
:102A60000E943723892B01F58091AA0980FD05C0BA
:102A70008AEA94E00E94C013CDCF0E94D019882327
:102A800019F083EB94E0F6CF0E94DC19882349F01B
:102A90008FE296E00E94A4138FEB94E00E947414DE
:102AA000B9CF8FEC90E0E6CF6CED74E0C8010E94E6
:102AB0003723892B71F40E94FA19882339F08FE2A9
:102AC00096E00E94A4138CEC94E0E8CF88ED94E0AB
:102AD000D1CF6DED70E0C8010E943723892B91F4AE
:102AE0008091AA0980FFC4CF0E94091A882339F077
:102AF0008FE296E00E94A41381EE94E0CFCF89ED9F
:102B000090E0B8CF6FEA76E0C8010E943723892BA6
:102B100009F055C0B1E0BF1510F561E176E0809194
:102B2000E8079091E9070E943723892BC1F480912F
:102B300095098F93809194098F93809193098F9336
:102B4000809192098F9380EF94E09F938F938E01F1
:102B50000F5F1F4F1F930F930E946F23B5C080918B
:102B6000AA0980FF85CF91E09F1518F08CEF94E0C3
:102B700081CF0091E8071091E907C8010E94551321
:102B8000811103C085E095E075CFC8010E94142330
:102B900097FDF8CF2091CB093091CC092817390740
:102BA00088F39093910980939009BC0189EB99E097
:102BB0000E94A61D8FE296E00E94A4132BCF6FE027
:102BC00075E0C8010E943723892B29F58091A4095B
:102BD0009091A50981309105D1F00297D1F482E559
:102BE0001F928F9384E195E09F938F938E010F5FE7
:102BF0001F4F1F930F930E946F23C8010E94A413BD
:102C00000F900F900F900F900F900F9003CF86E4CE
:102C1000E7CF8DE2E5CF6BE175E0C8010E94372375
:102C2000892B09F05AC08091E1098F938091E009C6
:102C30008F938091DF098F938091DE098F9380912C
:102C4000DD091F928F938091DC098F938091DB09BE
:102C50008F938091DA098F938091D9098F93809116
:102C6000D8098F938091D7098F938091D6098F933C
:102C70008091D5098F938091D4098F938091D30946
:102C80008F938091D2098F938091D1098F938091F6
:102C9000D0098F938091CF098F938091CE098F9324
:102CA0008091CD098F938091CC098F938091CB092E
:102CB0008F9380E295E09F938F938E010F5F1F4F5C
:102CC0001F930F930E946F23C8010E94A4130FB695
:102CD000F894DEBF0FBECDBF9DCE68E475E0C8019D
:102CE0000E943723892B09F0F2C0B2E0BF1508F02B
:102CF0003DCF0091EA071091EB07C8010E945513E0
:102D0000882309F43FCFE090E807F090E907C80175
:102D10000E9414238C016CE475E0C7010E943723E4
:102D2000892B61F4C801845F91408D37954108F08B
:102D300029CF1093CC090093CB093CCF63E575E014
:102D4000C7010E943723892B59F4C801C297873BDA
:102D5000934008F017CF1093CE090093CD092ACFE6
:102D60006AE575E0C7010E943723892BA9F4C801E1
:102D70008456910985359B4008F004CF1093D00903
:102D80000093CF094091D1095091D209B80189EB44
:102D900099E00E94BE1D0ECF60E675E0C7010E945B
:102DA0003723892B89F4C8018456910985359B40C6
:102DB00008F0E8CE1093D2090093D1096091CF09B1
:102DC0007091D009A801E3CF66E675E0C7010E94C3
:102DD0003723892B91F4C801885C91098930974089
:102DE00008F0D0CE1093D4090093D309B801110F85
:102DF000880B990B0E945B1BDDCE6FE675E0C70167
:102E00000E943723892B99F40130B0E11B0708F0A9
:102E1000B9CE1093D6090093D5094091D7095091A6
:102E2000D809B8018FE799E00E94F61BC3CE62E78C
:102E300075E0C7010E943723892B79F4013022E025
:102E4000120708F09FCE1093D8090093D70960911C
:102E5000D5097091D609A801E5CF65E775E0C701EE
:102E60000E943723892B61F4C801885E9340813B1F
:102E7000964308F087CE1093DA090093D9099ACEC9
:102E80006BE775E0C7010E943723892B69F48091B5
:102E9000D9099091DA098017910708F073CE109341
:102EA000DC090093DB0986CE61E875E0C7010E946A
:102EB0003723892B49F4C801CC978135910508F057
:102EC00061CE0093DD0976CE8AE895E0D3CD6CEB38
:102ED00076E0C8010E943723892B91F40E942D1AB5
:102EE000882339F08FE296E00E94A41384E995E0EC
:102EF000D5CD81EE90E00E94C0138BE995E0CECD58
:102F00006EEA75E0C8010E943723892B91F40E9474
:102F1000591D8C01892B19F40E945E1D8C01C8017A
:102F20000E947E1D9F938F931F930F9384EB95E0D8
:102F30000CCE6FEB75E0C8010E943723892B59F442
:102F400086EC95E00E94A41387ED95E00E94A413FF
:102F500082EE95E031CE6EEE75E0C8010E94372317
:102F6000892B91F56091AF097091B0098091B109F9
:102F70009091B2092091B4092F932091B3092F9316
:102F800020E13EE040E050E00E94A422122F032FF7
:102F9000F42EE52E2CE330E040E050E00E94A42225
:102FA0005F934F933F932F93EF92FF920F931F9353
:102FB00085EF95E09F938F938E010F5F1F4F1F93B7
:102FC0000F930E946F2380CE6DE076E0C8010E94CF
:102FD0003723892BF9F48FE799E00E94021C182F00
:102FE000092F8FE799E00E94FC1B0F931F939F937B
:102FF0008F937F936F938091D8098F938091D70996
:103000008F938091D6098F938091D5098F9383E117
:1030100096E0D0CF65E276E0C8010E943723892B85
:1030200039F48FE296E00E94A4138AE296E036CD4E
:1030300062E376E0C8010E943723892B19F40E94CD
:103040008414E8CC87E396E015CD80913708089585
:1030500086EF97E008951092370810923608E6EF51
:10306000F7E080E4DF011D928A95E9F7089581E099
:10307000809362000E94AD046093390870933A080F
:1030800080933B0890933C080895CF92DF92EF9293
:10309000FF92CF93DF9320916200222329F1EC016C
:1030A0000E94AD046B017C018091390890913A082F
:1030B000A0913B08B0913C08A7019601281B390B51
:1030C0004A0B5B0BDA01C901883E9340A105B105AB
:1030D00058F0CE010E94D013C0923908D0923A081D
:1030E000E0923B08F0923C08DF91CF91FF90EF9087
:1030F000DF90CF9008950C94D013CF92DF92EF928F
:10310000FF920F931F93CF93DF93CDB7DEB7C054D9
:10311000D1090FB6F894DEBF0FBECDBF6C018B0195
:103120000E94631DE82EF801F3841485C6010E94F5
:103130007E1D1F92EF921F93FF929F938F938FE3B9
:1031400096E09F938F938E010F5F1F4F1F930F93F6
:103150000E946F23C8010E9474140FB6F894DEBF5A
:103160000FBECDBFC05CDF4F0FB6F894DEBF0FBE01
:10317000CDBFDF91CF911F910F91FF90EF90DF9026
:10318000CF90089580936200089580916200089521
:10319000CF93DF93EC0120913D0830913E0823301E
:1031A000310521F58091AF099091B009A091B10945
:1031B000B091B2094091AB095091AC096091AD0951
:1031C0007091AE09840F951FA61FB71F8093AF099A
:1031D0009093B009A093B109B093B2091092AB09D2
:1031E0001092AC091092AD091092AE0930934008CC
:1031F00020933F08D0933E08C0933D0810924A08A0
:1032000010924B0810924C0810924D08C430D10512
:1032100009F455C048F5C130D105C1F1C230D1051E
:1032200009F046C080914308909144089093A50905
:103230008093A4098FE799E00E94EC1B89EB99E049
:103240000E94261E8091B3099091B4090196909333
:10325000B4098093B3091092520810925308109247
:1032600054081092550824C0C530D10521F0CE0174
:1032700007970397E8F41092A5091092A4091092F9
:1032800099091092980910929A0912C01092A509F2
:103290001092A409109299091092980910929A0913
:1032A0008FE799E00E94EC1B89EB99E00E94261EB3
:1032B000D093A709C093A609DF91CF91089570E03C
:1032C00060E089EB99E00E94A61DF2CF80913D0855
:1032D00090913E088530910550F4029768F08091F6
:1032E0004308909144080E94AF0E0C94DE0E853086
:1032F000910511F0079731F490E080E00E94AF0E45
:103300000C94E90E0C94F70EEDE3F8E011821082B4
:1033100013821282178216821186108612861386F5
:103320001486158616861786108A84EF91E0A0E031
:10333000B0E0818B928BA38BB48B158A168A178A87
:10334000108E118E128E138E148E81E0858F08954B
:1033500080913D0890913E08089580913D0890919C
:103360003E088A30910540F4880F991FFC01E95509
:10337000FF4F80819181089583E596E008958091C3
:10338000430890914408089520913D0830913E08EB
:103390002250310981E02230310508F080E00895A3
:1033A00020913D0830913E082850310981E02230BB
:1033B000310508F080E0089580913D0890913E0825
:1033C00081309105A9F44091900950919109209183
:1033D000CD093091CE094217530750F0909344081D
:1033E0008093430882E090E00E94C81881E008952D
:1033F00080E0089580913D0890913E0802970297E1
:1034000030F484E090E00E94C81881E0089580E0E4
:10341000089580913D0890913E080397E1F48091D2
:103420004708811118C08091430890914408019782
:1034300079F482E090E0909346088093450881E01B
:103440008093470884E090E00E94C81881E00895C6
:1034500081E090E0F0CF80E0089580913D08909168
:103460003E088830910571F40E94591D892B11F096
:1034700080E008951092480881E090E00E94C8180A
:1034800081E008950997A1F78091AA0981FDF0CF05
:10349000F3CF80913D0890913E08099749F081E073
:1034A0008093490889E090E00E94C81881E008955F
:1034B00080E0089580915A08811102C00C9484190B
:1034C00080914A0890914B08A0914C08B0914D080A
:1034D0000A96A11DB11D80934A0890934B08A093B2
:1034E0004C08B0934D08E0913D08F0913E082091C2
:1034F000AA0921FFBAC0399711F00E94491A0C9409
:1035000066198091EB099091EC09892B29F481E0EF
:1035100090E00E94C818F3CF88E090E0FACF1092B4
:1035200099091092980910929A09E9CF89EB99E0CC
:103530000E94231E882361F180919409909195093E
:103540002091920930919309821B930B8C599F4FC4
:10355000893C9105E8F48091520890915308A0911C
:103560005408B09155080196A11DB11D80935208D1
:1035700090935308A0935408B0935508843691054E
:10358000A105B10508F4BBCF83E090E00E94C81804
:103590001092520810925308109254081092550835
:1035A000AECF20919009309191098091CD099091F1
:1035B000CE092817390708F0A2CF0E94FA199FCF29
:1035C00080919409909195091816190604F180913B
:1035D000560890915708A0915808B0915908019643
:1035E000A11DB11D8093560890935708A0935808C9
:1035F000B09359080397A105B10508F480CF8091D5
:103600004708882369F085E090E00E94C81810926E
:1036100056081092570810925808109259086FCF08
:1036200087E090E0F2CF40914E0850914F086091B2
:1036300050087091510884179507A607B70708F43A
:103640005ECF8091450890914608909344088093FE
:1036500043081092470882E090E05BCF843F91409E
:10366000A105B10508F44BCF52CFE830F10508F0C1
:1036700046CFE35CF44E0C94E522811A8F1A961A19
:10368000D11AE01A131B7F1A2E1B20913D0830918E
:103690003E082830310569F021E0209348089093D6
:1036A000A9098093A80988E090E00E94C81881E0E9
:1036B000089580E0089560934E0870934F088093BA
:1036C000500890935108089560914A0870914B08F2
:1036D00080914C0890914D080895FC01718360839E
:1036E00053834283148215821682178211861086B4
:1036F0008FE891E093878287158614861786168651
:1037000081E0808B0895FC01718760875387428731
:103710000895CF92DF92EF92FF920F931F93FC01D7
:10372000CB01841B950BAC01A281B3819C010E944B
:10373000EB2204811581268137816B017C01C00E4B
:10374000D11EE21EF31EA081B1819A010E94EB22DC
:10375000072F182F292F332727FD3A95BB27F7FC72
:10376000BA95AF2D9E2D8D2D080F191F2A1F3B1FB7
:1037700082859385092E000CAA0BBB0B801791073D
:10378000A207B30754F457FF16C02089222399F0EB
:10379000C482D582E682F7820EC080859185092E8B
:1037A000000CAA0BBB0B081719072A073B0774F478
:1037B0001416150654F355874487978786871F91FB
:1037C0000F91FF90EF90DF90CF900895C482D58243
:1037D000E682F782C801EFCFFC01148215821682BF
:1037E000178215861486178616860895FC01718344
:1037F0006083538342830895FC01648175818681CF
:1038000097810895FC01848595850895EBE5F8E09E
:1038100011821082138212821482158216821782FC
:103820001086118680E89EEE93878287148615861F
:1038300016861786108A118A08950F931F93FC012C
:10384000DB01828D81FD93C02385348553968D9154
:103850009C9154972817390708F093C04091650848
:103860005091660870E060E0009161081091620874
:10387000209163083091640804171507260737075D
:1038800008F082C0978555968C915597981708F443
:103890005CC0809167088F5F80936708843108F06F
:1038A00076C02585368556968D919C915797281719
:1038B000390708F04DC0809168088F5F80936808D1
:1038C000853008F067C058968D919C9182179307B8
:1038D00008F041C0809169088F5F80936908823049
:1038E00008F05BC04285248135814333B8F124362A
:1038F0003105A4F580916A088F5F80936A088E3144
:1039000008F04EC0808191818C509E4F82179307A2
:1039100044F580916B088F5F80936B088A3008F0C4
:1039200042C0453108F1232BF9F480916C088F5F78
:1039300080936C088431D0F510925C0810925B087B
:1039400090E080E01F910F91089510926708A9CF31
:1039500010926808B8CF10926908C4CF10926A0814
:10396000D1CF10926B08DDCF10926C08E5CF81E0CB
:1039700090E090935C0880935B0821E020935F08BF
:10398000E1CF82E090E0F5CF83E090E0F2CF84E0F9
:1039900090E0EFCF85E090E0ECCF86E090E0E9CFDB
:1039A00087E090E0E6CF88E090E0E3CF89E090E028
:1039B000E0CF8F929F92AF92BF92CF92DF92EF9221
:1039C000FF92B0E0A0E06C017D01C61AD70AE108C1
:1039D000F108A7019601C701B6010E946C228090F0
:1039E000610890906208A0906308B09064081C146D
:1039F0001D041E041F04DCF428EE33E040E050E018
:103A00000E94C622820E931EA41EB51E80926108DB
:103A100090926208A0926308B0926408FF90EF90C1
:103A2000DF90CF90BF90AF909F908F90089520EA45
:103A30003FE040E050E00E94C622281539054A05C3
:103A40005B0528F4821A930AA40AB50ADFCF109204
:103A50006108109262081092630810926408DECF29
:103A6000EBE5F8E014821182108214861586168622
:103A70001786108A118A089520915D0830915E089A
:103A80002817390741F410925E0810925D081092D1
:103A900060080C94301D089580915F08811107C063
:103AA00081E090916008911103C080E0089581E069
:103AB000089580915B0890915C08089580915D085D
:103AC00090915E080895E0916508F091660830973E
:103AD00099F02091610830916208409163085091FB
:103AE0006408A4E6B0E00E9409239F0150E040E092
:103AF0000E94A422822F089580E008958A309105C3
:103B000040F4880F991FFC01E554FF4F808191819B
:103B1000089581E896E00895FC01118210821382D5
:103B200012821582148288E592E09783868384E866
:103B300093E09187808788EC90E09387828788EB79
:103B40009BE09587848781E086870895FC019485B2
:103B50008585228533856217730734F0292F382F26
:103B6000621773070CF49B01318320831686089536
:103B7000FC0173876287558744870895FC0177832A
:103B800066835187408708950F931F93CF93DF93E8
:103B9000FC01C081D181028113819E01201B310B68
:103BA000121613068CF54681578164E6649FC001A6
:103BB000659F900D112468EE73E00E947C226217CD
:103BC00073070CF49B01200F311F3383228354852C
:103BD000458582859385228133812817390734F002
:103BE000852F942F281739070CF4C90193838283FA
:103BF00095838483C817D90711F421E02687DF91C4
:103C0000CF911F910F9108952115310501F3408542
:103C1000518564E6649FC001659F900D112468EE94
:103C200073E00E947C223195219531096217730758
:103C30000CF49B01021B130B13830283C8CFFC01FE
:103C4000848195810895FC0186850895FC01138285
:103C500012821582148216860895FC01208131811A
:103C600082819381281B390B1216130694F4668106
:103C700077816115710559F048EE53E0249FC0012A
:103C8000259F900D349F900D11240E947C22CB0122
:103C9000089570E060E021153105C9F360857185F4
:103CA000319521953109E5CFFC01909374088093FB
:103CB00073087093720860937108118210821382E6
:103CC000128215821482178216821186108612863D
:103CD00014861386168615861786108A118A128A0C
:103CE000138A158A148A178A168A118E108E828D6D
:103CF0008C7F8B7F828F138E148E158E168E178E6F
:103D000010A211A212A214A213A215A216A217A207
:103D100010A6089580917308909174080895809179
:103D20007108909172080895E0917308F0917408F9
:103D3000958384837487638756874587278708958B
:103D4000E0917108F091720853814481E091730809
:103D5000F091740830E020E097FD06C0252F342F45
:103D6000821793070CF49C01318320830895E0911E
:103D70007308F0917408803921E0920714F08FE8FD
:103D800091E097FF02C090E080E09187808744E651
:103D9000489F9001499F300D1124C9016FE871E0DF
:103DA0000E947C2262870895E0917308F091740864
:103DB0008281938124813581821B930B9783868333
:103DC0000895E0917308F0917408838D948DA58D0A
:103DD000B68D0196A11DB11D838F948FA58FB68FCF
:103DE000878D90A1A1A1B2A10196A11DB11D878FC0
:103DF00090A3A1A3B2A3089580916D0890916E083D
:103E0000A0916F08B09170080196A11DB11D8C3270
:103E100021E09207A105B10548F480936D089093C5
:103E20006E08A0936F08B0937008089510926D0803
:103E300010926E0810926F0810927008A09173088B
:103E4000B0917408E0917108F09172085F964D91FD
:103E50005D916D917C919297448F558F668F778F8E
:103E600093968D919C9191A380A3089590E080E01A
:103E7000089590E080E0089581E090E0089508952D
:103E800090E080E0089590E080E00895E3E8F8E0B5
:103E90001182108213821282158214821782168276
:103EA0001086118612861386148615861686178646
:103EB000118A108A108E799689E0ED37F80741F75C
:103EC0001092820810927E0810927F08109280084B
:103ED0001092810810927A0810927B0810927C0848
:103EE00010927D080E94AD04609376087093770865
:103EF00080937808909379081092750808954F92EE
:103F00005F926F927F92AF92BF92CF92DF92EF92C9
:103F1000FF920F931F93CF93DF930E94AD046B0129
:103F20007C01B12C89E1A82E80918208B81608F492
:103F300064C08091760890917708A0917808B0913C
:103F40007908A7019601281B390B4A0B5B0BDA0194
:103F5000C901883E9340A105B10508F43FC02091F6
:103F60007A0830917B0840917C0850917D08409000
:103F70007E0850907F086090800870908108420E03
:103F8000531E641E751E411451046104710471F0C6
:103F9000A4E6B0E00E940923A30192010E94A4229A
:103FA00080917508821710F42093750810927A0892
:103FB00010927B0810927C0810927D0810927E0867
:103FC00010927F081092800810928108C0927608A3
:103FD000D0927708E0927808F0927908DF91CF913B
:103FE0001F910F91FF90EF90DF90CF90BF90AF9017
:103FF0007F906F905F904F9008950B2D10E0A09EE2
:10400000E001A19ED00D1124CD57D74F888D882374
:1040100009F477C088819981892B09F472C08C8555
:104020009D85AE85BF85C816D906EA06FB0608F44D
:1040300068C00E94AD042B013C014C8A5D8A6E8AE7
:104040007F8AE881F98109950E94AD04DC01CB01EA
:1040500084199509A609B7094A885B88712C612CD7
:10406000481659066A067B0610F49B8B8A8B409093
:104070007A0850907B0860907C0870907D08480E0C
:10408000591E6A1E7B1E40927A0850927B086092ED
:104090007C0870927D08A09EF001A19EF00D112475
:1040A000ED57F74F2481358180859185A285B385B1
:1040B000B701A601481B590B6A0B7B0BC90105967A
:1040C000B0E0A0E084179507A607B70728F4808919
:1040D00091890196918B808BA09EF001A19EF00D9D
:1040E0001124ED57F74FC086D186E286F386D701BB
:1040F000C601820F931FA11DB11D84879587A687D6
:10410000B787B39411CFDC01909182089A3028F5DB
:10411000109719F189E1989FF0011124ED57F74F9D
:10412000B183A0837383628355834483378326835B
:104130001086118612861386A90170E060E044871C
:10414000558766877787118A108A138A128A81E0D9
:10415000808F9F5F90938208089580E008959091EA
:104160008208891748F499E1899FF0011124ED57DD
:10417000F74F80899189089590E080E00895CF926B
:10418000DF92EF92FF920E94AD04C0907608D0902B
:104190007708E0907808F09079086C197D098E090D
:1041A0009F09683E73408105910510F00E947F1FB2
:1041B00020917A0830917B0840917C0850917D08CD
:1041C000C0907E08D0907F08E0908008F090810831
:1041D000C20ED31EE41EF51E80E0C114D104E1041A
:1041E000F10449F0A4E6B0E00E940923A70196017A
:1041F0000E94A422822FFF90EF90DF90CF9008952D
:104200008091750808950895CF93DF93CDB7DEB7F9
:1042100068970FB6F894DEBF0FBECDBFF8948AE062
:10422000E3E6F0E0DE01119601900D928A95E1F748
:10423000CE0101960E9495058CEE90E00E94420608
:1042400088E091E00E94420680EA96E8A1E0B0E0B2
:104250008B8B9C8BAD8BBE8BCE0143960E943F0710
:10426000FF24F394FF8A87E0888FCE0147960E944F
:1042700066030E94BD030E94800480916D009091AE
:104280006E00A0916F00B09170008F87988BA98B02
:10429000BA8B1C861B8603E010E01E870D87CE01BB
:1042A0000F960E943405CE010B960E94340589E1D9
:1042B00091E00E9442060E941F0C0E94E3110E949E
:1042C00090070E940F120E941E080E94540E8AE25C
:1042D00091E00E94420684E49DE49093C909809392
:1042E000C809F092CA0988EB9BE09093CC098093AF
:1042F000CB0988EC90E09093CE098093CD0988E5B6
:1043000092E09093D0098093CF0984E893E0909352
:10431000D2098093D10984EF91E09093D4098093DE
:10432000D30980E891E09093D6098093D5098AE17A
:1043300090E09093D8098093D70980E49FE190930F
:10434000DA098093D90980E596E49093DC0980939B
:10435000DB098EE68093DD0980E29EE49093DF091D
:104360008093DE0988ED96ED9093E1098093E00952
:104370001093E3090093E2091092E4091092E50911
:104380001092E6091092E7091092E9091092E809E3
:104390001092EA091092EC091092EB091092ED09C3
:1043A00068EC79E080E999E00E94541E4091D709B9
:1043B0005091D8096091D5097091D6098FE799E09D
:1043C0000E946D1B4FE851E068E270E08FE799E0D2
:1043D0000E94831B89EB99E00E948C1D4091CB09C0
:1043E0005091CC096091CD097091CE0989EB99E08B
:1043F0000E94B81D4091D1095091D2096091CF0916
:104400007091D00989EB99E00E94BE1D0E94061CA4
:104410000E9484196091D3097091D40990E080E0E2
:104420000E945B1B0E94AA130E9437180E94461F1D
:1044300030E020E04AE050E06AE371E089E490E097
:104440000E94832021E030E042E350E060E471E02C
:1044500082EC90E00E94832022E030E044E650E0CD
:1044600068E471E087EE90E00E94832024E030E071
:104470004AEF50E060E571E085E591E00E9483201D
:1044800023E030E044EF51E064E571E08DE990E035
:104490000E94832025E030E048EE53E060E671E0C2
:1044A0008BEA90E00E94832030E020E041E050E081
:1044B0006AE671E080EC90E00E94832082E791E060
:1044C0000E94420678940E947F1F0E94251888232C
:1044D000D1F30E94CC14F7CFDB018F939F930E94FE
:1044E0000923BF91AF91A29F800D911DA39F900DB5
:1044F000B29F900D11240895AA1BBB1B51E107C068
:10450000AA1FBB1FA617B70710F0A61BB70B881F63
:10451000991F5A95A9F780959095BC01CD010895F2
:1045200097FB072E16F4009407D077FD09D00E9460
:104530007C2207FC05D03EF4909581959F4F08950D
:10454000709561957F4F0895A1E21A2EAA1BBB1B9F
:10455000FD010DC0AA1FBB1FEE1FFF1FA217B3074F
:10456000E407F50720F0A21BB30BE40BF50B661F65
:10457000771F881F991F1A9469F760957095809529
:1045800090959B01AC01BD01CF010895052E97FBCD
:104590001EF400940E94DD2257FD07D00E94A42241
:1045A00007FC03D04EF40C94DD22509540953095D5
:1045B00021953F4F4F4F5F4F08959095809570958F
:1045C00061957F4F8F4F9F4F0895EE0FFF1F05900E
:1045D000F491E02D09940E94F322332312F48A1BF4
:1045E0009B0B0C940423A29FB001B39FC001A39F17
:1045F000700D811D1124911DB29F700D811D11241C
:10460000911D08950E94F322B7FF0895821B930B1A
:1046100008950E94F322A59F900DB49F900DA49F32
:10462000800D911D11240895FC0188279927E89495
:1046300021912032E9F3293010F02E30C8F32B32CB
:1046400041F02D3239F4689404C00E946723820F30
:10465000911D219120532A30C0F31EF4909581952D
:104660009F4F08954DE759E00E9440230895FB01B4
:10467000DC018D91019080190110D9F3990B0895F7
:10468000FA01A191B081009719F41097E1F0CD01E2
:10469000DC01CD010D90002011F4C00113C0FB011D
:1046A0002191222319F02015D9F7F3CFFB01219195
:1046B000201519F41E92119606C02223C1F70D9001
:1046C0000020A1F7D001FA01A193B08308957AE008
:1046D000979F902D879F802D910D11240895AEE016
:1046E000B0E0E5E7F3E20C941E260D891E8986E012
:1046F0008C831A8309838FEF9FE79E838D83AE019E
:10470000475E5F4F6F89788DCE0101960E9492239C
:104710002F813885020F131FF80110822E96E4E0D6
:104720000C943A26ABE0B0E0E8E9F3E20C941026F2
:104730007C013B018A01FC0117821682838181FF83
:10474000C8C1CE0101965C01F7019381F30193FD8D
:10475000859193FF81913F01882309F453C18532EC
:1047600039F493FD859193FF81913F01853229F4BE
:10477000B70190E00E948225E7CF912C212C312CAB
:10478000FFE1F31538F08B3211F190F4803209F12A
:10479000833229F137FC3CC020ED280F2A3050F538
:1047A00036FE20C08AE0989E200D1124922E06C06D
:1047B0008D3291F0803371F7689430F8F30193FDF6
:1047C000859193FF81913F018111DACF21C06894D7
:1047D00031F8689432F8F2CF689433F8EFCF6894E8
:1047E00034F8ECCFEAE02E9E200D1124222E68949E
:1047F00035F8E4CF8E3229F436FC04C1689436F8DB
:10480000DDCF8C3619F4689437F8D8CF8836B1F2FA
:10481000982F9F7D95549330E0F08336A1F1833734
:10482000C1F1833509F063C02801F2E04F0E511C3D
:10483000F801C080D180692D70E036FC02C06FEFB6
:104840007FEFC6010E946C254C01689437F8820105
:104850000AC00C5F1F4FFFE3F98388248394912CD7
:104860006501E89437F833FE2DC0522C8114910471
:1048700071F5552009F468CFB70180E290E00E94FD
:1048800082255A94F6CFF801808189830E5F1F4FED
:10489000E4CF2801F2E04F0E511CF801C080D18016
:1048A000692D70E036FC02C06FEF7FEFC6010E94F9
:1048B00077254C018201D5CFB70180E290E00E94BC
:1048C00082252A942814190409F0B0F7CECFF601F6
:1048D00037FC859137FE81916F01B70190E00E940E
:1048E000822551105A94F1E08F1A9108BFCF843677
:1048F00019F0893609F077C0F80137FE6BC0608186
:104900007181828193810C5F1F4FF32DFF763F2EC3
:1049100097FF09C090958095709561957F4F8F4F57
:104920009F4F689437F82AE030E0A5010E94B22535
:10493000C82ECA188C2C432C36FE0CC0E89440F8C4
:10494000C91440F434FE05C032FC03C0F32DFE7ED2
:104950004F2E892C44FE95C0FE01EC0DF11D808187
:10496000803309F087C0242D297E422E842D887043
:10497000582E43FC95C040FE8FC09C2C821418F426
:104980002C0C922C981844FE91C0B70180E390E063
:104990000E94822542FE09C088E790E041FE02C0E5
:1049A00088E590E0B7010E948225C91408F48AC006
:1049B000CA94D12C9FEFC91AD90ACA0CDB1CF60184
:1049C00082916F01B70190E00E948225AC14BD0472
:1049D000B1F74FCF60817181072E000C880B990BC6
:1049E0000E5F1F4F92CFD32CE894D4F82AE030E02A
:1049F000853739F1232D297FD22E8F3601F148F4E6
:104A00008835A9F0F701868197812B96E2E10C9415
:104A10002C26803749F08837A9F7D4FE02C0689465
:104A2000D2F820E130E00DC06894D4F8F6CF34FE1F
:104A300003C0822F8660D82E20E132E002C028E039
:104A400030E0F801D7FE0FC06081718182819381CF
:104A50000C5F1F4FA5010E94B225C82ECA183D2C1D
:104A6000E89437F867CF6081718190E080E00E5F55
:104A70001F4FF0CF42FC02C0839478CF839483947D
:104A800075CF842D867809F471CFF6CFB70180E217
:104A900090E00E94822583948214C0F3512C73CF3E
:104AA000522C5818821408F46ECFF8CF842D8678D3
:104AB00009F47BCF8BE241FE80E247FC8DE2B70137
:104AC00090E071CFB70180E390E00E9482259A9434
:104AD0006CCF8FEF9FEF99CFFC0105906150704034
:104AE0000110D8F7809590958E0F9F1F0895FC01B7
:104AF0006150704001900110D8F7809590958E0F0D
:104B00009F1F08950F931F93CF93DF93182F092FA3
:104B1000EB018B8181FD09C01FEF0FEF812F902FDB
:104B2000DF91CF911F910F91089582FF14C02E81C4
:104B30003F818C819D81281739073CF4E881F981F8
:104B4000CF0101969983888310838E819F8101967E
:104B50009F838E83E3CFE885F985812F0995892B83
:104B6000A1F3DACFFA01AA27283051F1203181F1DF
:104B7000E8946F936E7F6E5F7F4F8F4F9F4FAF4F65
:104B8000B1E03ED0B4E03CD0670F781F891F9A1F78
:104B9000A11D680F791F8A1F911DA11D6A0F711D2C
:104BA000811D911DA11D20D009F468943F912AE038
:104BB000269F11243019305D3193DEF6CF01089520
:104BC000462F4770405D4193B3E00FD0C9F7F6CF51
:104BD000462F4F70405D4A3318F0495D31FD405219
:104BE000419302D0A9F7EACFB4E0A69597958795AF
:104BF00077956795BA95C9F700976105710508958E
:104C00009B01AC010A2E0694579547953795279539
:104C1000BA95C9F7620F731F841F951FA01D0895D1
:104C20002F923F924F925F926F927F928F929F92BC
:104C3000AF92BF92CF92DF92EF92FF920F931F93AA
:104C4000CF93DF93CDB7DEB7CA1BDB0B0FB6F8945B
:104C5000DEBF0FBECDBF09942A88398848885F849B
:104C60006E847D848C849B84AA84B984C884DF800C
:104C7000EE80FD800C811B81AA81B981CE0FD11DF0
:104C80000FB6F894DEBF0FBECDBFED010895F894C6
:024C9000FFCF54
:104C9200010C018025000003000000000001000358
:104CA2000039003600330030003B00380035003256
:104CB200003A003700340031000001010100010117
:104CC200030206040C080903060C09010204080188
:104CD200000200030004005806DC045D06A604621C
:104CE2000667066C06700676067B06DD057B067B8C
:104CF200058906810592069C06A506AB06B5064502
:104D02005252205354415254004552522052455659
:104D12000045525220414354495645000D0A2D2D5B
:104D22002D2053595354454D205354415254494E0A
:104D320047202D2D2D0D0A00424F4F54313A205558
:104D4200415254204F4B0D0A00424F4F54323A20E9
:104D52004D43414C204F4B0D0A00424F4F54333AC2
:104D62002048414C204F4B0D0A0050616E656C008B
:104D720043757272656E7400436F6E74726F6C006D
:104D82004C434400536C6F7753656E736F727300BC
:104D920054656C656D6574727900537465707065E5
:104DA2007200424F4F54343A205343484544554CC5
:104DB20045522052454144592C20454E41424C49CE
:104DC2004E4720494E54455252555054532E2E2E82
:104DD2000D0A0021212054524950504544202121DE
:104DE200202020000D0A496E647573747269616C2B
:104DF200204D6F746F7220436F6E74726F6C6C65AE
:104E0200722076312E30000D0A54797065204845A3
:104E12004C5020666F7220636F6D6D616E64730D0E
:104E22000A3E20004552524F523A2000244D442C53
:104E320053503D25642C52503D25642C443D25643D
:104E42002C493D25642C563D25642C543D25642C6B
:104E52004449523D25632C53543D25732C54523DF5
:104E620025642C4932543D25642C52483D256C75ED
:104E72002C53433D2564002A253032580D0A002167
:104E82004556542C000D0A3D3D3D20417661696C2A
:104E920061626C6520436F6D6D616E6473203D3D90
:104EA2003D005354415455532020202020202020DF
:104EB2002D2053686F772074656C656D6574727907
:104EC2000052554E20202020202020202020202D5E
:104ED200205374617274206D6F746F722028726532
:104EE2006D6F7465206F6E6C79290053544F50209A
:104EF2002020202020202020202D2053746F70207D
:104F02006D6F746F720052455620202020202020A1
:104F1200202020202D2052657665727365206469F9
:104F220072656374696F6E202872656D6F74652097
:104F32006F6E6C7929005350454544203C6E3E20EB
:104F4200202020202D205365742073706565642015
:104F520028302D6D617852706D29005350454544BB
:104F62003F20202020202020202D2053686F7720F2
:104F720063757272656E742073706565640044496E
:104F8200523F202020202020202020202D20536846
:104F92006F7720646972656374696F6E0043464778
:104FA2003F202020202020202020202D2053686F09
:104FB2007720636F6E66696775726174696F6E00E0
:104FC200534554203C706172616D3E203C76616CA9
:104FD20075653E202D2053657420706172616D6588
:104FE2007465720041434B20202020202020202085
:104FF20020202D2041636B6E6F776C65646765209E
:105002007472697000545249503F202020202020A1
:105012002020202D2053686F7720616374697665A4
:1050220020747269700054524950533F202020204E
:10503200202020202D2053686F7720747269702001
:105042006C6F6700484F5552533F2020202020208C
:1050520020202D2053686F772072756E20686F753F
:1050620072730054554E453F2020202020202020DE
:10507200202D2053686F7720504920696E74657225
:105082006E616C7300534156452020202020202061
:105092002020202D205361766520636F6E6669673C
:1050A20020746F20454550524F4D0048454C5020CA
:1050B2002020202020202020202D2053686F7720C0
:1050C20074686973206D656E750020090D0A0053BE
:1050D20054415455530052554E00455252204D4FA3
:1050E20044450045525220545249505045440053C1
:1050F200544152542C52454D4F54450053544F5035
:105102002C52454D4F5445004552522053544F5056
:1051120000524556455253452C52454D4F54450079
:1051220053504545443D25642C2564004552522088
:1051320041524753004552522052414E4745004486
:1051420049523F004449523D2563004346473F00D0
:105152004346473D25642C25642C25642C25642C6C
:1051620025642C25642C25642C25642C25642C258F
:10517200642C25642C256400534554004D4158523B
:10518200504D004D494E52504D00414343454C0055
:10519200444543454C004445414454494D45004B28
:1051A20050004B490052415445440053484F525419
:1051B200004F56455254454D5000455252205041E1
:1051C20052414D0041434B2C4F4B0041434B2C521B
:1051D2004546555345442C41435449564500545283
:1051E20049503F00545249503D25642C25730054C8
:1051F200524950533F003D3D3D2054726970204C4E
:105202006F67203D3D3D005452502C302C4E4F4E86
:1052120045003D3D3D20456E64203D3D3D00484FEB
:105222005552533F00484F5552533D2530326C750D
:105232003A2530326C752C53433D25640054554E4B
:10524200453F0054554E453D25642C25642C256C64
:10525200642C2564005341564500534156452C4F5A
:105262004B0048454C500045525220434D44005497
:105272005249502C25732C493D25642C4932543D0A
:10528200256400554E4B4E00494E4954005354522A
:1052920054005244574E00444541440042524B0090
:1052A200434F4153540054524950004553544F50B8
:1052B20000554E4B4E4F574E004F5645524C4F41A4
:1052C2004400554E444552564F4C54004F56455299
:1052D200564F4C54005354414C4C004F5645525378
:1052E20050454544004E4F464545444241434B00DC
:00000001FF
