:100000000C942A000C949A010C946F010C944700F4
:100010000C9447000C9447000C9447000C94470044
:100020000C9447000C9447000C9435040C94470042
:100030000C9447000C94F0060C9434070C94470081
:100040000C9447000C9447000C9447000C94470014
:100050000C94470011241FBECFE5D8E0DEBFCDBF12
:1000600016E0A0E6B0E0ECECFAE402C005900D92D8
:10007000AC3EB107D9F72AE0ACEEB6E001C01D9264
:10008000AE39B207E1F70E9421200C9464250C944C
:1000900000000E94C2110E94521282309105E1F1CB
:1000A00030F5019781F10E94F71860E083309105E7
:1000B00031F08230910511F00497C1F561E081E0E3
:1000C0000E9464120E941F19882399F181E00E9406
:1000D0007C120E940E190E9484120E945B12909161
:1000E0004D0A882341F19E7F90934D0A08958330F5
:1000F0009105A9F00497B9F60E947C198111D3CF1C
:1001000081EE90E006C00E942B198111CCCF8FECBC
:1001100090E00E940F13C7CF0E944919C4CF0E94DC
:1001200058198111C0CF89ED90E0F3CF60E080E0F5
:10013000C7CF80E0CCCF9160D7CFCF93DF930E9421
:100140001408C3E3DAE09E878D870E9433088F8707
:10015000DF91CF91089583E39AE00C9494170C9467
:100160006810CF93DF930E94F507EC0190933F0A4C
:1001700080933E0A60917C0A70917D0A0E942E1C39
:1001800080917E0A90917F0AC817D90760F082E0BB
:1001900090E00E94941A63E37AE082E090E0DF91BD
:1001A000CF910C94CC17DF91CF910895CF93DF932B
:1001B0000E94A9190E944B110E9460119093380A65
:1001C0008093370A80914D0A80FF2FC08091330AB7
:1001D0009091340ABC018CE59AE00E94081D8CE5E0
:1001E0009AE00E942C1D9093360A8093350A209144
:1001F000370A3091380A821B930B90933A0A809306
:10020000390A6BE67AE083E39AE00E94701BEC0106
:10021000009791F00E94941A0E94540E63E37AE0D2
:10022000CE01DF91CF910C94CC170E94D60790930A
:10023000340A8093330ACECF0E941319882341F1E8
:100240004091370A5091380A6091350A7091360A08
:1002500082E29AE00E94D81A9C0130933C0A2093D3
:100260003B0A44E6429FC001439F900D11246FE872
:1002700071E00E94992160933D0AC9010E942B0EF2
:100280008091470A9091480ADF91CF910C940A0E11
:1002900082E29AE00E943B1B30E020E0DECFCF9369
:1002A000DF930E94AE1CEC010E941F19882361F0AD
:1002B0008091ED068C171D0679F0C093ED06CE01F6
:1002C000DF91CF910C94840D1092ED0683E39AE0B8
:1002D000DF91CF910C94F40CDF91CF9108951F9290
:1002E0000F920FB60F9211242F933F934F935F936A
:1002F0006F937F938F939F93AF93BF93EF93FF93EE
:1003000090E080E00E949A04C198C09881E08093B8
:10031000EC06FF91EF91BF91AF919F918F917F91EB
:100320006F915F914F913F912F910F900FBE0F9062
:100330001F9018951F920F920FB60F9211242F93B2
:100340003F934F935F936F937F938F939F93AF935D
:10035000BF93EF93FF930E942F11FF91EF91BF91F5
:10036000AF919F918F917F916F915F914F913F914D
:100370002F910F900FBE0F901F901895CF92DF9284
:10038000EF92FF920F931F93CF93DF93CDB7DEB71A
:1003900028970FB6F894DEBF0FBECDBF7B018E014C
:1003A0000F5F1F4F97FF1DC091958195910931E017
:1003B000F80120E05AE0C52ED12C2F5FB6010E9433
:1003C000AD21805D8193CB01009711F02730A9F713
:1003D000332361F0F801E20FF11D8DE280832F5F7E
:1003E00005C0009759F580E3898321E0622F70E012
:1003F000C801860F971FD70108171907B9F4FB0129
:10040000EE0DFF1D80E22417B0F01082822F289697
:100410000FB6F894DEBF0FBECDBFDF91CF911F9115
:100420000F91FF90EF90DF90CF900895FC013291F3
:10043000CF013D93E1CF2F5F8193E5CF30E0B8CF7F
:10044000CF92DF92EF92FF920F931F93CF93DF93A0
:10045000CDB7DEB728970FB6F894DEBF0FBECDBF7D
:10046000FB018E010F5F1F4F009711F580E3898319
:1004700021E0622F70E0C801860F971F7F0180176F
:10048000910749F5E60FF71F80E2241758F1108213
:10049000822F28960FB6F894DEBF0FBECDBFDF9136
:1004A000CF911F910F91FF90EF90DF90CF90089523
:1004B000780120E03AE0C32ED12C2F5FB6010E94D4
:1004C0009921805DD7018D937D01CB01009789F241
:1004D000273099F7CECFDC013E91CD01D7013D9376
:1004E0007D01CDCF2F5F8193D0CFFC010190002003
:1004F000E9F73197E81BF90BE80FF92FF11D30E20E
:100500002E2F281B261710F0108208953193F8CF54
:10051000EF92FF920F931F93CF93DF93CDB7DEB788
:1005200028970FB6F894DEBF0FBECDBF9B016AE0DF
:1005300070E00E949921482FCB010097C1F580E31C
:100540008983E1E0A1E0B0E0AC0FBD1FAE0FB11DAB
:100550008EE28C9382E08E0FEF5F61E070E06C0FB3
:100560007D1F6E0F711DFB01405D4083482F50E0E1
:10057000E1E0F0E0EC0FFD1FE40FF51F622FD90161
:1005800092919D939A2F961B9817D0F3240F351FA5
:10059000D9011C9228960FB6F894DEBF0FBECDBFCE
:1005A000DF91CF911F910F91FF90EF9008958E01F1
:1005B0000F5F1F4FE0E05AE0E52EF12CEF5FB7012F
:1005C0000E949921805DD8018D938D01CB01009708
:1005D00009F4B8CFE63091F7B5CF8430E0F4683055
:1005E000D0F4E82FF0E0EE0FFF1FEF57FF4F019020
:1005F000F081E02D81E090E001C0880F6A95EAF774
:100600009081413029F4892B808390E080E0089527
:1006100080958923F9CF81E090E008958430D8F463
:100620006830C8F441155105B1F0E82FF0E0EE0F45
:10063000FF1FEF58FF4F0190F081E02D808190E087
:1006400002C0959587956A95E2F78170FA018083DB
:1006500090E080E0089581E090E00895843090F487
:100660006115710579F0E82FF0E0EE0FFF1FEF58EC
:10067000FF4F0190F081E02D8081FB01808390E0AD
:1006800080E0089581E090E008958430E0F46830DF
:10069000D0F4E82FF0E0EE0FFF1FE758FF4F019076
:1006A000F081E02D81E090E001C0880F6A95EAF7C3
:1006B0009081413029F4892B808390E080E0089577
:1006C00080958923F9CF81E090E008950C9445034B
:1006D000CF93DF931F92CDB7DEB71982AE014F5F84
:1006E0005F4F0E940E0389810F90DF91CF91089593
:1006F0008430B8F46830A8F4E82FF0E0EE0FFF1F64
:10070000E758FF4F0190F081E02D808121E030E03B
:1007100001C0220F6A95EAF78227808390E080E08B
:10072000089581E090E0089591E0411101C090E0CA
:10073000492F0C944503892B71F03E9A3F983D98C0
:10074000389839983A983B983098319A329A379A33
:1007500090E080E0089581E090E00895883080F492
:10076000389839983A983B9880FD389A81FD399AA3
:100770008695869509F03A9A369A90E080E0089539
:1007800081E090E00895009759F034B125B1232716
:1007900032272327FC013183208390E080E00895F5
:1007A00081E090E0089586B1829586958695837064
:1007B000809581700895CF93DF93EB010E94AE0383
:1007C000009749F40E94D3038823E1F3CE01DF911F
:1007D000CF910C94C303DF91CF910895379890E0A7
:1007E00080E0089583B78F7B83BF83B7886083BF22
:1007F00012BE89EF8CBF83B78B7F83BF83B78260C4
:1008000083BF83B7816083BF89B7826089BF90E06F
:1008100080E00895892B51F489B791E0672B09F0A6
:1008200092E0892B89BF90E080E0089581E090E01C
:100830000895892B51F489B79EEF672B09F09DEF3E
:10084000892389BF90E080E0089581E090E00895D9
:100850004115510539F05093F3064093F20690E0AC
:1008600080E0089581E090E008951F920F920FB606
:100870000F9211242F933F934F935F936F937F9326
:100880008F939F93AF93BF93EF93FF938091EE0667
:100890009091EF06A091F006B091F1060196A11D8E
:1008A000B11D8093EE069093EF06A093F006B093EF
:1008B000F106E091F206F091F306309709F0099500
:1008C000FF91EF91BF91AF919F918F917F916F9128
:1008D0005F914F913F912F910F900FBE0F901F90FE
:1008E00018958FB58E7F8FBD8FB582608FBD8EB509
:1008F00088608EBD8EB580618EBD8FB58F7B8FBDBC
:100900008FB580688FBD1DBC1CBC8FE891E097BD82
:1009100086BD8EB58B7F8EBD8EB58D7F8EBD8EB51F
:1009200081608EBD41E065E083E00E94ED0290E0D1
:1009300080E0089585369105A8F4009729F41BBC42
:100940001ABC90E080E008959C01AFE8B1E00E94FD
:10095000102224E630E040E050E00E94C1213BBD7F
:100960002ABDEFCF81E090E0089585B58F7B85BDEE
:1009700085B5886085BD14BC85B5846085BD85B5A9
:100980008D7F85BD85B5816085BD85B58F7D85BD34
:1009900085B5806185BD41E067E083E00E94ED029E
:1009A00090E080E008958F3F910509F020F483BD29
:1009B00090E080E0089581E090E0089578940895B3
:1009C000F89408952FB7F8946091EE067091EF06B1
:1009D0008091F0069091F1062FBF08958330910524
:1009E00088F48130910541F0029749F08BB780641B
:1009F0008BBF90E080E008958BB78068F9CF8BB70C
:100A00008062F6CF81E090E008958330910588F40C
:100A10008130910541F0029749F08BB78F7B8BBFF6
:100A200090E080E008958BB78F77F9CF8BB78F7DFB
:100A3000F6CF81E090E0089583309105A8F48130ED
:100A4000910509F10297C1F185B78E7F85BF85B702
:100A50008D7F85BF6130710551F060F062307105A6
:100A600079F06330710549F081E090E0089585B731
:100A7000816085BF90E080E0089585B7816085BF83
:100A800085B78260F6CF85B78B7F85BF85B7877FB7
:100A900085BF6130710569F068F36230710531F02E
:100AA0006330710509F785B7846085BF85B78860B5
:100AB000E0CF85B78460DDCF6230710531F06330FF
:100AC000710591F684B7806402C084B78F7B84BFC0
:100AD000D1CFCF93DF93EC01892B99F08881998155
:100AE0008330910570F46A817B810E941C05009718
:100AF00051F4888199818130910589F038F002970D
:100B000089F081E090E0DF91CF9108958AB7806409
:100B10008ABF88819981DF91CF910C94EE048AB7C6
:100B20008068F6CF8AB78062F3CF039730F481E014
:100B300090E0672B21F080E0089581E090E0089537
:100B40008FB780688FBF08958FB78F778FBF089555
:100B50004091F8065091F9062091F6063091F7067B
:100B600042175307A9F3E091F606F091F706E65015
:100B7000F94F2081FC0120838091F6069091F706C1
:100B800001968F7399279093F7068093F60690E06D
:100B900080E00895CF93DF93EC01892B09F44DC0D9
:100BA00088819981AA81BB810097A105B10509F4CB
:100BB00044C09C01AD0184E0220F331F441F551F28
:100BC0008A95D1F760E074E284EF90E00E94C12141
:100BD0002150310929B9832F8F7009F080BD8E8192
:100BE000829580739885990F990F990F9870892B2A
:100BF00080689C81990F9670892B80BD8C819D8126
:100C00000797C9F4529A539A549A579A10923D07EB
:100C100010923C0710923B0710923A071092F90687
:100C20001092F8061092F7061092F60690E080E017
:100C3000DF91CF9108955298E6CF81E090E0F8CF10
:100C4000539854985798569855981092F5061092C4
:100C5000F40690E080E0089520913C0730913D0734
:100C60002F5F3F4F332740913A0750913B07421780
:100C70005307C9F3E0913C07F0913D07E25CF84F60
:100C8000808330933D0720933C07559A90E080E0A5
:100C90000895009711F00C94A80581E090E0089564
:100CA000009711F14091F8065091F9062091F6064F
:100CB0003091F70642175307B9F0E091F606F0912C
:100CC000F706E650F94F2081FC0120838091F6065B
:100CD0009091F70601968F7399279093F70680936A
:100CE000F60690E080E0089581E090E00895CF93CB
:100CF000DF93EC01892B29F481E090E007C00E948A
:100D00002C0689918111FBCF90E080E0DF91CF919B
:100D100008959F92AF92BF92CF92DF92EF92FF928F
:100D20000F931F93CF93DF931F92CDB7DEB7198236
:100D3000009779F481E090E00F90DF91CF911F91BF
:100D40000F91FF90EF90DF90CF90BF90AF909F906A
:100D500008956115710571F3942E6C015C0110E02A
:100D600000E07B0181E0E81AF1080E151F0548F448
:100D7000CE0101960E94A805892BE1F6898189118F
:100D800007C00C0D1D1DF801108290E080E0D4CF4B
:100D9000F50181935F010F5F1F4FE7CF009741F08F
:100DA0009093F5068093F406579A90E080E00895BA
:100DB00081E090E0089520913C0730913D078091BB
:100DC0003A0790913B072817390719F490E080E023
:100DD000089582E090E008950C942C060C94770618
:100DE0001F920F920FB60F9211242F933F934F93A0
:100DF0005F936F937F938F939F93AF93BF93EF9383
:100E0000FF938CB12091F8063091F9062F5F3F4F88
:100E10002F7333274091F6065091F7064217530778
:100E200059F0E091F806F091F906E650F94F808309
:100E30003093F9062093F806E091F406F091F50658
:100E4000309709F00995FF91EF91BF91AF919F9174
:100E50008F917F916F915F914F913F912F910F9063
:100E60000FBE0F901F9018951F920F920FB60F9202
:100E700011242F933F938F939F93EF93FF93209190
:100E80003C0730913D0780913A0790913B07281726
:100E90003907E9F0E0913A07F0913B07E25CF84F3F
:100EA000208180913A0790913B0701969927909372
:100EB0003B0780933A072CB9FF91EF919F918F9157
:100EC0003F912F910F900FBE0F901F90189555983E
:100ED000F3CF88E480B90898099886B7846086BF04
:100EE00090E080E008950C94690784EA86BF90E062
:100EF00080E006B607FE08C021B1287F81E090E0BF
:100F0000283049F480E008950196813127E2920764
:100F100081F781E090E0089584E986BF90E080E069
:100F2000089583B984E886BF90E080E006B607FEA6
:100F30000CC021B1287F283181F0283271F081E086
:100F400090E0203449F480E008950196813127E251
:100F5000920761F781E090E0089580E0FCCFCF93A5
:100F6000DF93D82FC62F0E947507009741F48D2F6D
:100F7000880FC1708C2BDF91CF910C949107DF917A
:100F8000CF9108950C949107CF93DF9300D0CDB704
:100F9000DEB781E0898387E08A83CE0101960E94D3
:100FA0009B030F900F90DF91CF910895CF93DF9324
:100FB00000D0CDB7DEB71A821982BE016F5F7F4FB6
:100FC00080E00E94DB0329813A81A8EBBBE00E940C
:100FD00010222FEF33E040E050E00E94C121C90110
:100FE0000F900F90DF91CF910895CF93DF9300D0B2
:100FF000CDB7DEB71A821982BE016F5F7F4F81E0E5
:101000000E94DB0329813A81A0E2BEE40E94102203
:101010002FEF33E040E050E00E94C121C9010F9062
:101020000F90DF91CF910895CF93DF9300D0CDB78C
:10103000DEB71A821982BE016F5F7F4F82E00E9485
:10104000DB0329813A81A0E6BAEE0E9410222FEF3D
:1010500033E040E050E00E94C121C9010F900F90A1
:10106000DF91CF910895CF93DF9300D0CDB7DEB756
:101070001A821982BE016F5F7F4F83E00E94DB03FB
:1010800029813A81A6E9B0E00E9410222FEF33E0D7
:1010900040E050E00E94C121822F0F900F90DF911D
:1010A000CF910895109241081092400810923F0885
:1010B00010923E080C94B504909341088093400828
:1010C00010923F0810923E088130910551F028F0AF
:1010D000049750F081E090E0089590E080E00C9457
:1010E000D30486E990E0FBCF8CE390E0F8CF8091C9
:1010F000400890914108009759F18330910541F1E2
:101100004AE050E08130910511F442E350E0209133
:101110003E0830913F082F5F3F4F2417350728F4D2
:1011200030933F0820933E08089510923F08109294
:101130003E0820916000222361F090E080E00E9450
:10114000D30481E090916000911180E08093600071
:101150000895019719F08CE390E0F1CF86E990E0D3
:10116000EECFDB01FA0182309105A1F028F401975E
:1011700061F01C92108208958330910579F00497F4
:10118000C1F783E08C9387E003C081E08C9383E018
:101190008083089583E08C9385E0FACF83E08C937D
:1011A00084E0F6CF8230910561F018F4019739F0B0
:1011B00008958330910549F0049759F008956CBF64
:1011C000089570E07BBD6ABD089570E079BD68BD8B
:1011D000089563BD0895EF92FF921F93CF93DF931D
:1011E000EC017B01CB01019710E040E083309105D9
:1011F00040F4FC01E457FF4F4081FC01E757FF4FEB
:1012000010812885222329F0029718F4842F412F7A
:10121000182F698188810E946603412F6B818A8122
:101220000E946603FC86EB86DF91CF911F91FF90B1
:10123000EF9008958230910591F018F4019739F0FC
:1012400008958330910599F00497C1F0089583B70C
:10125000662319F0806283BF08958F7DFCCF8FB520
:10126000662319F080688FBD08958F77FCCF8FB506
:10127000662311F08062F7CF8F7DF5CF85B56623A9
:1012800019F0806285BD08958F7DFCCF0F931F9369
:10129000CF93DF9300D0CDB7DEB78C011A821982CD
:1012A000FC0186819781009789F441E08285811154
:1012B00001C040E0F801658184810E9466030F90BF
:1012C0000F90DF91CF911F910F910895AE014F5F65
:1012D0005F4FBE016E5F7F4F0E94B108F8018285AB
:1012E00026813781811108C060E0C9010E941A0976
:1012F00040E069818A81E1CFFFEF8F9FC001112417
:1013000064E670E00E949921C9010E94D20861E060
:10131000F801868197810E941A09D1CF0F931F93FC
:10132000CF93DF9300D0CDB7DEB7FC011A821982CC
:10133000892B49F481E090E00F900F90DF91CF91DD
:101340001F910F91089580818430A0F7928194308D
:1013500088F7268137812530310560F78F0141E01C
:1013600061810E94ED0241E0F801638182810E9467
:10137000ED0240E0F801618180810E94660340E057
:10138000F801638182810E946603F801868197815A
:101390000097E1F48481843068F641E065810E9421
:1013A000ED0240E0F801658184810E946603F80146
:1013B000128681E0818770E060E0C8010E94EB083E
:1013C000C8010E94460990E080E0B6CFAE014F5FB1
:1013D0005F4FBE016E5F7F4F0E94B10841E069819F
:1013E0008A810E94ED0240E069818A810E94660341
:1013F000F801868197818430910560F482309105EF
:1014000098F4019769F060E0F801868197810E9465
:101410001A09CDCF0497B9F78CE485BD13BCF3CF7F
:101420008BE483BF1CBEEFCF8FB581608FBD8EB5BF
:1014300088608EBD8EB582608EBD8EB581608EBD9A
:10144000E2CF009771F0FC012185222351F065362F
:1014500008F064E6FC0162870E94460990E080E0A3
:10146000089581E090E00895CF93DF93009789F08D
:10147000FC012185222369F0EC0161E070E00E940B
:10148000EB08CE010E94460990E080E0DF91CF9109
:10149000089581E090E0FACFCF93DF93009789F031
:1014A000FC012185222369F0EC0162E070E00E94DA
:1014B000EB08CE010E94460990E080E0DF91CF91D9
:1014C000089581E090E0FACF009769F0FC01218552
:1014D000222349F06230710530F4672B11F40C942B
:1014E000340A0C944C0A81E090E008950F931F9306
:1014F000CF93DF9300D0CDB7DEB71A821982009761
:1015000071F1FC012185222351F18C0170E060E032
:101510000E94EB08F80186819781009771F440E002
:10152000658184810E94660390E080E00F900F90B7
:10153000DF91CF911F910F910895AE014F5F5F4FE3
:10154000BE016E5F7F4F0E94B10860E0F8018681A6
:1015500097810E941A0940E069818A81E3CF81E086
:1015600090E0E4CFCF93DF93009701F1FC01218558
:101570002223E1F0EC0163E070E00E94EB088E8131
:101580009F81009751F441E06D818C810E94660338
:1015900090E080E0DF91CF9108956FEF0E94D20834
:1015A00061E08E819F810E941A09F2CF81E090E074
:1015B000F1CF009779F0FC012185222359F06115C4
:1015C000710541F083859485FB019183808390E0D0
:1015D00080E0089581E090E00895009769F0FC01B3
:1015E0002185222349F06115710531F08285FB01C7
:1015F000808390E080E0089581E090E008950F936B
:101600001F93CF93DF9300D0CDB7DEB71A82198234
:10161000009789F1FC012185222369F18C010E9448
:10162000760AF801868197810097C9F0AE014F5F75
:101630005F4FBE016E5F7F4F0E94B10860E0F8010E
:10164000868197810E941A0960E0F801868197815E
:101650000E94D20840E069818A810E946603F801F5
:101660001286118690E080E00F900F90DF91CF916D
:101670001F910F91089581E090E0F6CF81E0809373
:10168000910A1092920A8093930A8093940A21E01F
:1016900030E03093980A2093970A8093950A83E06C
:1016A0008093960A1092990A81E99AE00E948E0925
:1016B000892B49F46BE481E99AE00E94210A81E9CF
:1016C0009AE00C94340A0895CF93DF93009731F495
:1016D000C1E0D0E0CE01DF91CF910895C62F60E048
:1016E000FC0180810E94AF07892B91F780E00E9466
:1016F000C207892B19F00E948C07EACF8C2F0E9419
:10170000C207EC01892BB9F70E948C07E3CFCF9376
:10171000DF93009731F4C1E0D0E0CE01DF91CF91AB
:101720000895C62F60E0FC0180810E94AF07892BDD
:1017300091F780E40E94C207892B19F00E948C0760
:10174000EACF8C2F0E94C207EC01892BB9F70E94C7
:101750008C07E3CF0F931F93CF93DF93009741F450
:1017600001E010E0C801DF91CF911F910F91089522
:1017700061157105A9F3EB0160E0FC0180810E9415
:10178000AF07892B69F780E40E94C2078C01892B7F
:1017900051F48991811103C00E948C07E3CF0E940C
:1017A000C207892BB1F30E948C07DACFCF93DF9366
:1017B00000D0CDB7DEB7198220E42A83009799F0D4
:1017C000FC012181621778F42281421760F4FE0146
:1017D000E60FF11D6181640F60680F900F90DF913B
:1017E000CF910C94640B81E090E00F900F90DF910B
:1017F000CF9108950F931F93CF93DF93EC0189014D
:101800000E94D60B892B41F4B801CE01DF91CF9114
:101810001F910F910C94AA0B81E090E0DF91CF9182
:101820001F910F910895EF92FF920F931F93CF9303
:10183000DF93CDB7DEB72C970FB6F894DEBF0FBE9F
:10184000CDBF7C017F936F935F934F938BE891E0C3
:101850009F938F938E010F5F1F4F1F930F930E94D3
:101860008C22B801C7010E94AA0B0FB6F894DEBF04
:101870000FBECDBF2C960FB6F894DEBF0FBECDBF06
:10188000DF91CF911F910F91FF90EF90089561E04C
:101890000C94640B62E00C94640B9C0190916100C9
:1018A000662349F0946090936100609161006860E4
:1018B000C9010C94640B9B7FF6CF9C019091610051
:1018C000662349F0926090936100609161006860C6
:1018D000C9010C94640B9D7FF6CF9C01909161002F
:1018E000662349F0916090936100609161006860A7
:1018F000C9010C94640B9E7FF6CF662319F06CE14E
:101900000C94640B68E1FCCFEF92FF920F931F934E
:10191000CF93DF93009759F14115510541F168309C
:1019200030F58A01EC0188E0689FB0011124606401
:10193000CE010E94640B892BD1F47801E8E0EE0E11
:10194000F11CF80161918F01CE010E94870B892B58
:1019500071F40E151F05A9F740E060E0CE01DF919C
:10196000CF911F910F91FF90EF900C94D60B81E0D7
:1019700090E0DF91CF911F910F91FF90EF9008952C
:10198000CF93DF93009729F481E090E0DF91CF912E
:101990000895EC0168E30E94640B892BA9F784E0A9
:1019A000809361006CE0CE010E94640B892B61F78B
:1019B000CE010E94470C892B39F766E0CE010E94C8
:1019C000640B31E020E0892B09F430E0832F922F63
:1019D000DDCFE5E4F8E08EE3808382E0818380E17F
:1019E0008283CF010C94C00CEF92FF920F931F9350
:1019F000CF93DF93CDB7DEB7A6970FB6F894DEBFCF
:101A00000FBECDBFFC0181E090E0309709F46BC0C0
:101A1000848995898130910509F474C0029709F091
:101A20006FC092E58F011F929F9385818F93848170
:101A30008F9383818F9382818F938FE891E09F931F
:101A40008F937E0186E1E80EF11CFF92EF920E94D7
:101A50008C22D8011B96ED91FC911C971F968C91BE
:101A60001F971F928F931D968D919C9128EE33E0C6
:101A7000B9010E9499217F936F93CF0164E670E0D2
:101A80000E949921CB016AE070E00E9499219F9306
:101A90008F93CF01B9010E9499217F936F93F80131
:101AA00082851F928F9381EA91E09F938F938E019D
:101AB0000F5F1F4F1F930F930E948C22970140E0EE
:101AC00060E085E498E00E94FA0B980140E061E054
:101AD00085E498E00E94FA0B0FB6F894DEBF0FBEC3
:101AE000CDBF90E080E0A6960FB6F894DEBF0FBEA3
:101AF000CDBFDF91CF911F910F91FF90EF9008958F
:101B00009DE290CF96E48ECF0F931F93CF93DF93F8
:101B1000CDB7DEB761970FB6F894DEBF0FBECDBF6D
:101B2000182F092F80914308909144080196863020
:101B30009105B8F5909344088093430829EB31E070
:101B400040E060E085E498E00E94FA0B8091420852
:101B5000882399F10F931F938AEC91E09F938F93C1
:101B60008E010F5F1F4F1F930F930E948C229801CD
:101B700040E061E085E498E00E94FA0B0F900F903E
:101B80000F900F900F900F9090E080E061960FB64D
:101B9000F894DEBF0FBECDBFDF91CF911F910F91A3
:101BA0000895109244081092430881E090914208F1
:101BB000911180E080934208C1CF83E39AE00E94B4
:101BC000F40CE2CF80914808811121C041E060E02F
:101BD00081E00E94ED0241E061E081E00E94ED02BF
:101BE00040E060E081E00E94660340E061E081E067
:101BF0000E9466030E94710490E080E00E949A04B3
:101C000010924A081092490881E08093480890E0B9
:101C100080E008958130910549F00297A1F040E0FD
:101C200060E081E00E94660340E013C040E061E0B4
:101C300081E00E94660341E060E081E00E9466036B
:101C400090E080E0089540E060E081E00E9466035B
:101C500041E061E0F2CF2091490830914A08232BFE
:101C600029F41BBC1ABC90E080E008959C01203947
:101C700081E0380710F02FE831E03BBD2ABDF3CFFB
:101C800081E090E090934A088093490890E080E0DA
:101C9000089510924A081092490890E080E00E944E
:101CA0009A0490E080E0089590E080E00E949A0419
:101CB00040E060E081E00E94660340E061E081E096
:101CC0000E94660310924A08109249080895809174
:101CD00049080895009741F0029769F06370E62F74
:101CE000F0E0E956FF4F05C06370E62FF0E0E556DF
:101CF000FF4F808108956770E62FF0E0E157FF4FB6
:101D0000F8CF1F93CF93DF93EC01162F462F41702E
:101D1000698188810E94660311FB442740F96B8129
:101D20008A810E94660312FB442740F96D818C81F1
:101D30000E94660313FB442740F96F818E810E9445
:101D4000660381E0111101C080E08D8BDF91CF919E
:101D50001F910895CF93DF93009709F44BC0FC01C6
:101D600027853089232B09F445C0EC0141E06181CE
:101D700080810E94ED0241E06B818A810E94ED0228
:101D800041E06D818C810E94ED0241E06F818E8186
:101D90000E94ED028C858823A1F041E06985888549
:101DA0000E94ED0241E06B858A850E94ED0241E0D0
:101DB000698588850E94660341E06B858A850E945B
:101DC000660389899A89892B21F481E090E09A8BB6
:101DD000898B1C8A1E8A1F8A188E198E1D8A60E0C4
:101DE000CE010E94810E81E08B8B90E080E0DF913C
:101DF000CF91089581E090E0FACFFC01892B61F04A
:101E00008389882349F06330710530F476876587CC
:101E1000148A90E080E0089581E090E008950097B2
:101E200079F0FC012389222359F06115710511F421
:101E300061E070E0FC01728B618B90E080E00895BE
:101E400081E090E00895CF93DF93EC01892B49F175
:101E50008B89882331F16115710519F12F85388936
:101E600050E040E08D859E85029721F4220F331FBC
:101E7000441F551FDB010E9426229B01AC0160E636
:101E80007AEE80E090E00E94C121211531054105E4
:101E9000510539F03A8B298B90E080E0DF91CF91AA
:101EA000089581E090E0FACFCF92DF92EF92FF9217
:101EB000CF93DF93EC01AB01892B09F440C08B89F0
:101EC0008823E9F162307105D0F52D853E8564E007
:101ED0002230310509F468E08C8970E0CE88DF8813
:101EE000E88CF98C90E0452BF1F401960E94992141
:101EF0008C8B8FEFC81AD80AE80AF80ACE8ADF8AD4
:101F0000E88EF98E6C89C9010E946A0E682FCE0195
:101F10000E94810E90E080E0DF91CF91FF90EF90E2
:101F2000DF90CF900895860F971F01970E94992107
:101F30008C8B81E0C81AD108E108F108DFCF81E07D
:101F400090E0EACF4F925F926F927F928F929F9232
:101F5000AF92BF92CF92DF92EF92FF920F931F93B7
:101F6000CF93DF93009709F43EC0FC01238922231D
:101F7000D1F142305105B8F53A012B01EC0110E0E6
:101F800000E04016510699F490E080E0DF91CF9197
:101F90001F910F91FF90EF90DF90CF90BF90AF9087
:101FA0009F908F907F906F905F904F900895B301B6
:101FB000CE010E94540FC988DA880E94E2044B01C6
:101FC0005C01F12CE12C0E94E204681979098A096C
:101FD0009B096C157D058E059F0518F00F5F1F4F3F
:101FE000D0CFA895F0CF81E090E0D0CF0F931F9392
:101FF000CF93DF93EC018A01892B09F18B89882328
:10200000F1F02F85388950E040E08D859E8502975C
:1020100021F4220F331F441F551FDB010E9426228B
:1020200028E631E040E050E00E94C121B901A8015A
:10203000CE01DF91CF911F910F910C94A20F81E0FF
:1020400090E0DF91CF911F910F9108950F931F930F
:10205000CF93DF930097C9F1FC0123892223A9F1D3
:102060006115710591F1EBE4F8E030E020E0A28524
:10207000A11125C08C018BE0829FE001839FD00DD0
:102080001124C55BD74F198308837B836A835D83E3
:102090004C830E94E204F80121893289620F731F88
:1020A000811D911D6E837F838887998781E08A8750
:1020B00090E080E0DF91CF911F910F9108952F5F05
:1020C0003F4F3B962430310591F681E090E0F2CF0E
:1020D0000F931F93CF93DF93CBE4D8E08A858823B7
:1020E00049F10E94E2040E811F812885398560171D
:1020F000710782079307F0F06C817D818881998157
:102100000E94540F8A819B8101979B838A830E943E
:10211000E204E881F98121893289620F731F811DF0
:10212000911D6E837F83888799878A819B81892B04
:1021300009F41A862B9688E0C737D80779F6DF911D
:10214000CF911F910F910895CF93DF93009701F1E5
:10215000FC0123892223E1F0EC018485882351F0DE
:1021600041E0618580850E94660341E06B858A8538
:102170000E9466036C898D859E850E946A0E682F79
:10218000CE010E94810E90E080E0DF91CF91089512
:1021900081E090E0FACFCF93DF930097D9F0FC0174
:1021A00023892223B9F0EC0160E00E94810E8C8526
:1021B000882351F040E0698588850E94660340E0ED
:1021C0006B858A850E9466031D8A90E080E0DF911E
:1021D000CF91089581E090E0FACF009799F0FC014B
:1021E0002389222379F06115710561F08689978929
:1021F000A08DB18DFB0180839183A283B38390E096
:1022000080E0089581E090E00895009759F0FC0186
:102210002389222339F0168A178A108E118E90E0B6
:1022200080E0089581E090E00895FC01892BA1F001
:102230008389882389F06115710571F027853089BC
:1022400085859685029711F4220F331FFB01318398
:10225000208390E080E0089581E090E008958091EF
:10226000790890917A08019690937A08809379087A
:10227000089510927A0810927908109278081092B6
:1022800077086FE271E190E080E00E94950590E0B0
:1022900080E00C94EE04F8942091790830917A084B
:1022A00010927A081092790878944CE3429FC0010A
:1022B000439F900D11249093780880937708089598
:1022C0008091770890917808089540E065E082E079
:1022D0000E94ED0240E066E082E00E94ED0240E0F4
:1022E00067E082E00E94ED0240E066E083E00E9449
:1022F000ED0240E064E083E00E94ED0241E065E031
:1023000082E00E94940341E066E082E00E94940330
:1023100041E067E082E00E94940341E066E083E0F0
:102320000E94940341E064E083E00E94940341E052
:1023300063E081E00E94ED0241E062E082E00E9401
:10234000ED0241E063E082E00E94ED0241E064E0E2
:1023500082E00E94ED0240E063E081E00E944503DC
:1023600040E062E082E00E94450340E063E082E0FA
:102370000E94450340E064E082E00E94450390E053
:1023800080E00895EF92FF920F931F93CF93DF9316
:10239000CDB7DEB72C970FB6F894DEBF0FBECDBF1A
:1023A00065E082E00E946803F82E66E082E00E9409
:1023B0006803082F67E082E00E946803182F66E038
:1023C00083E00E94680391E0F11090E0998791E02A
:1023D000011190E09A8791E0111190E09B8791E0C4
:1023E000811190E09C8788E0EFE9F0E0DE01119632
:1023F00001900D928A95E1F74091880850918908E3
:10240000BE01675F7F4FECE7EE2EE8E0FE2EE0E8CE
:10241000F8E090E080E0DB012D91BD01D7013D9116
:102420007D012317E1F010828D0101501109D801BF
:102430002C93019631968430910569F75093890861
:10244000409388082C960FB6F894DEBF0FBECDBF20
:10245000DF91CF911F910F91FF90EF900895213060
:10246000D1F430813F5F3083353018F38C010C5745
:10247000174FD8013C913111DCCF2C939C01220FD6
:10248000331F41E050E04C0F5D1F240F351FD90171
:102490004D915C91CECF10829C012C57374FD901C2
:1024A0001C92C7CF80918808909189081092890862
:1024B00010928808089564E083E00E94680391E028
:1024C000811190E0892F0895662371F080917B0837
:1024D0008F5F8A3018F480937B08089510927B08F0
:1024E00063E081E00C94780341E0811101C040E099
:1024F00063E081E00C94450341E0811101C040E0BC
:1025000062E082E00C9445038130910521F002974E
:1025100049F040E001C041E063E082E00E944503F1
:1025200040E006C040E063E082E00E94450341E0F5
:1025300064E082E00C944503009761F0FC01208187
:10254000222341F08191811102C081E008958053DE
:102550008A30C0F380E00895CF93C82F8091DD08C2
:10256000882319F08C2F0E94EC06C83011F0CF3769
:1025700091F4E091DB08EE23A1F1E150E093DB0858
:10258000F0E0E556F74F108280E20E94EC0688E00A
:10259000CF910C94EC06CD3011F0CA30B1F488ED37
:1025A00091E00E947706E091DB088BE192E0EE2358
:1025B00049F0F0E0E556F74F108281E08093DC08A7
:1025C00088EC94E0CF910C94EE06E091DB08EF33B9
:1025D00040F481E08E0F8093DB08F0E0E556F74F82
:1025E000C083CF9108950E94EE0688EC94E00C948D
:1025F000EE061092DB081092DC0881E08093DD0883
:10260000EBE9F8E080E4DF011D928A95E9F780EEBE
:1026100091E00E94F31283E092E00C94F312CF93C6
:10262000DF93EC0180E292E00E94EE06CE010E9470
:10263000EE0688EC94E0DF91CF910C94EE067F9249
:102640008F929F92AF92BF92CF92DF92EF92FF92C2
:102650000F931F93CF93DF93CDB7DEB7C058D10947
:102660000FB6F894DEBF0FBECDBF8C01FC0183A076
:1026700074A0C78CB0A0A1A092A00E94B81CD82EB4
:10268000F801F08CE18C0E94FC18F801248935894E
:102690002130310509F470C02230310509F46EC0D3
:1026A0002DE27F928F929F92AF92BF92CF921F9214
:1026B000DF92EF92FF929F938F931F922F93F801D7
:1026C00087851F928F9386858F9385858F938485C9
:1026D0008F9383858F9382851F928F9385818F93AC
:1026E00084818F9383818F9382818F9388E292E09C
:1026F0009F938F938E010F5F1F4F1F930F930E9425
:102700008C220FB6F894DEBF0FBECDBF81E020E073
:10271000F801E80FF11D9081911132C0F80101908C
:102720000020E9F7CF011F922F9323E732E03F9378
:102730002F9301979F938F930E948C22C8010E9430
:10274000EE060F900F900F900F900F900F90C058C3
:10275000DF4F0FB6F894DEBF0FBECDBFDF91CF9134
:102760001F910F91FF90EF90DF90CF90BF90AF90AF
:102770009F908F907F90089526E493CF22E591CF8C
:1027800029278F5FC5CFCF93DF93EC018BE792E0D2
:102790000E94EE06CE010E94EE0688EC94E0DF91E6
:1027A000CF910C94EE0681E892E00E94F3128EE93C
:1027B00092E00E94F3128DEB92E00E94F31287EEFA
:1027C00092E00E94F31282E093E00E94F31282E30F
:1027D00093E00E94F31287E593E00E94F3128AE7E8
:1027E00093E00E94F31289E993E00E94F3128CEBCC
:1027F00093E00E94F31280EE93E00E94F31281E0D6
:1028000094E00E94F31282E294E00E94F31280E4CA
:1028100094E00E94F3128FE594E00E94F31281E8A5
:1028200094E00E94F31287EA94E00E94F3128AEC8B
:1028300094E00C94F312EF92FF920F931F93CF93B7
:10284000DF93CDB7DEB7C058D1090FB6F894DEBF1D
:102850000FBECDBF8091DC08882379F110928A08E1
:1028600066EC74E08BE998E00E944F22F0908A08B1
:10287000009719F027E02F1570F51092DC081092E0
:10288000DB08FF2079F000918B0810918C086BEC2D
:1028900074E0C8010E945422892B71F583E39AE009
:1028A0000E941F13EBE9F8E080E4DF011D928A9596
:1028B000E9F78DE192E00E94EE06C058DF4F0FB6B7
:1028C000F894DEBF0FBECDBFDF91CF911F910F9166
:1028D000FF90EF90089521E02F0D20938A08EF2DAF
:1028E000F0E0EE0FFF1FE557F74F9183808366EC12
:1028F00074E090E080E0B8CF62ED74E0C8010E941F
:102900005422892B01F580914D0A80FD05C086ED8A
:1029100094E00E940F13C6CF0E941F19882319F05C
:102920008FED94E0F6CF0E942B19882349F08BE5B8
:1029300096E00E94F3128BEE94E00E94C313B2CF94
:102940008FEC90E0E6CF68E075E0C8010E94542269
:10295000892B71F40E944919882339F08BE596E0A0
:102960000E94F31288EF94E0E8CF84E095E0D1CFA5
:102970006DED70E0C8010E945422892B91F4809182
:102980004D0A80FFC4CF0E945819882339F08BE587
:1029900096E00E94F3128DE095E0CFCF89ED90E0B4
:1029A000B8CF6BED76E0C8010E945422892B09F064
:1029B00055C081E08F1510F56DE376E080918D08AC
:1029C00090918E080E945422892BC1F48091380A7C
:1029D0008F938091370A8F938091360A8F938091DD
:1029E000350A8F938CE195E09F938F938E010F5F53
:1029F0001F4F1F930F930E948C22B5C080914D0AE8
:102A000080FF85CFB1E0BF1518F088E295E081CF57
:102A100000918D0810918E08C8010E949C128111AE
:102A200003C081E395E075CFC8010E94312297FD74
:102A3000F8CF20916E0A30916F0A2817390788F372
:102A40009093340A8093330ABC018CE59AE00E948B
:102A5000081D8BE596E00E94F31224CF6BE375E02E
:102A6000C8010E945422892B29F58091470A909130
:102A7000480A81309105D1F00297D1F482E51F9286
:102A80008F9380E495E09F938F938E010F5F1F4F8C
:102A90001F930F930E948C22C8010E94F3120F9083
:102AA0000F900F900F900F900F90FCCE86E4E7CF21
:102AB0008DE2E5CF67E475E0C8010E945422892BBE
:102AC00009F05AC08091840A8F938091830A8F9372
:102AD0008091820A8F938091810A8F938091800ADE
:102AE0001F928F9380917F0A8F9380917E0A8F939C
:102AF00080917D0A8F9380917C0A8F9380917B0ACD
:102B00008F9380917A0A8F938091790A8F93809125
:102B1000780A8F938091770A8F938091760A8F93AA
:102B20008091750A8F938091740A8F938091730AB4
:102B30008F938091720A8F938091710A8F93809105
:102B4000700A8F9380916F0A8F9380916E0A8F9392
:102B50008CE495E09F938F938E010F5F1F4F1F931F
:102B60000F930E948C22C8010E94F3120FB6F894B2
:102B7000DEBF0FBECDBF96CE64E775E0C8010E94F0
:102B80005422892B09F0F2C092E09F1508F03DCF46
:102B900000918F0810919008C8010E949C12882310
:102BA00009F43FCFE0908D08F0908E08C8010E9494
:102BB00031228C0168E775E0C7010E945422892BFD
:102BC00061F4C801845F91408D37954108F029CFA9
:102BD00010936F0A00936E0A3CCF6FE775E0C70150
:102BE0000E945422892B59F4C801C297873B934015
:102BF00008F017CF1093710A0093700A2ACF66E885
:102C000075E0C7010E945422892BA9F4C80184569B
:102C1000910985359B4008F004CF1093730A009307
:102C2000720A4091740A5091750AB8018CE59AE0D5
:102C30000E94261D0ECF6CE875E0C7010E94542249
:102C4000892B89F4C8018456910985359B4008F089
:102C5000E8CE1093750A0093740A6091720A70911D
:102C6000730AA801E3CF62E975E0C7010E9454220C
:102C7000892B91F4C801885C91098930974008F04C
:102C8000D0CE1093770A0093760AB801110F880B03
:102C9000990B0E94AA1ADDCE6BE975E0C7010E946C
:102CA0005422892B99F4013020E1120708F0B9CEA3
:102CB0001093790A0093780A40917A0A50917B0A1E
:102CC000B80182E29AE00E94451BC3CE6EE975E02E
:102CD000C7010E945422892B79F4013082E0180741
:102CE00008F09FCE10937B0A00937A0A6091780ACD
:102CF0007091790AA801E5CF61EA75E0C7010E94E9
:102D00005422892B61F4C801885E9340813B96432D
:102D100008F087CE10937D0A00937C0A9ACE67EA6A
:102D200075E0C7010E945422892B69F480917C0AC6
:102D300090917D0A8017910708F073CE10937F0A57
:102D400000937E0A86CE6DEA75E0C7010E94542288
:102D5000892B49F4C801CC978135910508F061CEE3
:102D60000093800A76CE86EB95E0D3CD68EE76E0D0
:102D7000C8010E945422892B91F40E947C19882357
:102D800039F08BE596E00E94F31280EC95E0D5CD0A
:102D900081EE90E00E940F1387EC95E0CECD6AEDB6
:102DA00075E0C8010E945422892B91F40E94AE1C48
:102DB0008C01892B19F40E94B31C8C01C8010E945C
:102DC000E01C9F938F931F930F9380EE95E00CCEA2
:102DD0006BEE75E0C8010E945422892B59F482EFF2
:102DE00095E00E94F31283E096E00E94F3128EE0D9
:102DF00096E031CE6AE176E0C8010E945422892B28
:102E000091F56091520A7091530A8091540A909101
:102E1000550A2091570A2F932091560A2F9320E1AB
:102E20003EE040E050E00E94C121122F032FF42E1B
:102E3000E52E2CE330E040E050E00E94C1215F939A
:102E40004F933F932F93EF92FF920F931F9381E243
:102E500096E09F938F938E010F5F1F4F1F930F93E9
:102E60000E948C2280CE69E376E0C8010E94542241
:102E7000892BF9F482E29AE00E94511B182F092F46
:102E800082E29AE00E944B1B0F931F939F938F93B4
:102E90007F936F9380917B0A8F9380917A0A8F93AF
:102EA0008091790A8F938091780A8F938FE396E0CF
:102EB000D0CF61E576E0C8010E945422892B39F415
:102EC0008BE596E00E94F31286E596E036CD6EE53E
:102ED00076E0C8010E945422892B19F40E94D31372
:102EE000E1CC83E696E015CD8091DC0808958BE96E
:102EF00098E008951092DC081092DB08EBE9F8E006
:102F000080E4DF011D928A95E9F7089581E08093BE
:102F100062000E94E2046093DE087093DF088093F1
:102F2000E0089093E1080895CF92DF92EF92FF922C
:102F3000CF93DF9320916200222329F1EC010E94BC
:102F4000E2046B017C018091DE089091DF08A09182
:102F5000E008B091E108A7019601281B390B4A0B44
:102F60005B0BDA01C901883E9340A105B10558F019
:102F7000CE010E941F13C092DE08D092DF08E092BB
:102F8000E008F092E108DF91CF91FF90EF90DF90A1
:102F9000CF9008950C941F13CF92DF92EF92FF927F
:102FA0000F931F93CF93DF93CDB7DEB7C054D109F2
:102FB0000FB6F894DEBF0FBECDBF6C018B010E942F
:102FC000B81CE82EF801F3841485C6010E94E01CA9
:102FD0001F92EF921F93FF929F938F938BE696E041
:102FE0009F938F938E010F5F1F4F1F930F930E942C
:102FF0008C22C8010E94C3130FB6F894DEBF0FBE27
:10300000CDBFC05CDF4F0FB6F894DEBF0FBECDBFA3
:10301000DF91CF911F910F91FF90EF90DF90CF90B4
:103020000895809362000895809162000895CF937F
:10303000DF93EC012091E2083091E3082330310561
:1030400021F58091520A9091530AA091540AB091AF
:10305000550A40914E0A50914F0A6091500A709162
:10306000510A840F951FA61FB71F8093520A909391
:10307000530AA093540AB093550A10924E0A109224
:103080004F0A1092500A1092510A3093E50820938B
:10309000E408D093E308C093E2081092EF0810927E
:1030A000F0081092F1081092F208C430D10509F42A
:1030B00055C048F5C130D105C1F1C230D10509F084
:1030C00046C08091E8089091E9089093480A80935F
:1030D000470A82E29AE00E943B1B8CE59AE00E943C
:1030E0008D1D8091560A9091570A01969093570A28
:1030F0008093560A1092F7081092F8081092F90877
:103100001092FA0824C0C530D10521F0CE010797EE
:103110000397E8F41092480A1092470A10923C0A6A
:1031200010923B0A10923D0A12C01092480A109267
:10313000470A10923C0A10923B0A10923D0A82E222
:103140009AE00E943B1B8CE59AE00E948D1DD09373
:103150004A0AC093490ADF91CF91089570E060E078
:103160008CE59AE00E94081DF2CF8091E2089091D0
:10317000E3088530910550F4029768F08091E808E3
:103180009091E9080E940A0E0C94400E853091053A
:1031900011F0079731F490E080E00E940A0E0C9441
:1031A000490E0C94540EE2EEF8E011821082138264
:1031B0001282178216821186108612861386148652
:1031C000158616861786108A84EF91E0A0E0B0E09D
:1031D000818B928BA38BB48B158A168A178A108EDB
:1031E000118E128E138E148E81E0858F089580913A
:1031F000E2089091E30808958091E2089091E30835
:103200008A30910540F4880F991FFC01E955FF4F62
:103210008081918108958FE796E008958091E80874
:103220009091E90808952091E2083091E308225036
:10323000310981E02230310508F080E008952091C5
:10324000E2083091E3082850310981E0223031054D
:1032500008F080E008958091E2089091E3088130C1
:103260009105A9F44091330A5091340A2091700AD3
:103270003091710A4217530750F09093E9088093F8
:10328000E80882E090E00E94171881E0089580E04D
:1032900008958091E2089091E3080297029730F434
:1032A00084E090E00E94171881E0089580E008957E
:1032B0008091E2089091E3080397E1F48091EC0893
:1032C000811118C08091E8089091E908019779F47C
:1032D00082E090E09093EB088093EA0881E080938D
:1032E000EC0884E090E00E94171881E0089581E0E6
:1032F00090E0F0CF80E008958091E2089091E3089B
:103300008830910571F40E94AE1C892B11F080E089
:1033100008951092ED0881E090E00E94171881E076
:1033200008950997A1F780914D0A81FDF0CFF3CF61
:103330008091E2089091E308099749F081E0809339
:10334000EE0889E090E00E94171881E0089580E07F
:1033500008958091FF08811102C00C94D3188091C8
:10336000EF089091F008A091F108B091F2080A9648
:10337000A11DB11D8093EF089093F008A093F10870
:10338000B093F208E091E208F091E30820914D0A31
:1033900021FFBAC0399711F00E9498190C94B51802
:1033A00080918E0A90918F0A892B29F481E090E018
:1033B0000E941718F3CF88E090E0FACF10923C0AF1
:1033C00010923B0A10923D0AE9CF8CE59AE00E94E8
:1033D0008A1D882361F18091370A9091380A2091E3
:1033E000350A3091360A821B930B8C599F4F893CCA
:1033F0009105E8F48091F7089091F808A091F908F8
:10340000B091FA080196A11DB11D8093F708909321
:10341000F808A093F908B093FA0884369105A1053D
:10342000B10508F4BBCF83E090E00E94171810921A
:10343000F7081092F8081092F9081092FA08AECF27
:103440002091330A3091340A8091700A9091710A68
:103450002817390708F0A2CF0E9449199FCF809101
:10346000370A9091380A1816190604F18091FB0862
:103470009091FC08A091FD08B091FE080196A11D55
:10348000B11D8093FB089093FC08A093FD08B093B6
:10349000FE080397A105B10508F480CF8091EC08E0
:1034A000882369F085E090E00E9417181092FB08CD
:1034B0001092FC081092FD081092FE086FCF87E072
:1034C00090E0F2CF4091F3085091F4086091F50834
:1034D0007091F60884179507A607B70708F45ECF22
:1034E0008091EA089091EB089093E9088093E808AE
:1034F0001092EC0882E090E05BCF843F9140A10500
:10350000B10508F44BCF52CFE830F10508F046CFB3
:10351000E457F54E0C940222D019DE19E519201A51
:103520002F1A621ACE197D1A2091E2083091E30811
:103530002830310569F021E02093ED0890934C0A82
:1035400080934B0A88E090E00E94171881E008956C
:1035500080E008956093F3087093F4088093F50871
:103560009093F60808956091EF087091F0088091AB
:10357000F1089091F2080895FC01718360835383F0
:1035800042831482158216821782118610868FE874
:1035900091E093878287158614861786168681E0C8
:1035A000808B0895FC017187608753874287089557
:1035B000CF92DF92EF92FF920F931F93FC01CB010A
:1035C000841B950BAC01A281B3819C010E9408224F
:1035D00004811581268137816B017C01C00ED11ECB
:1035E000E21EF31EA081B1819A010E940822072FDA
:1035F000182F292F332727FD3A95BB27F7FCBA95BB
:10360000AF2D9E2D8D2D080F191F2A1F3B1F828560
:103610009385092E000CAA0BBB0B80179107A207FC
:10362000B30754F457FF16C02089222399F0C482AF
:10363000D582E682F7820EC080859185092E000C26
:10364000AA0BBB0B081719072A073B0774F41416BB
:10365000150654F355874487978786871F910F91E6
:10366000FF90EF90DF90CF900895C482D582E682DC
:10367000F782C801EFCFFC011482158216821782EF
:1036800015861486178616860895FC01718360835B
:10369000538342830895FC016481758186819781FB
:1036A0000895FC01848595850895E0E0F9E0118294
:1036B000108213821282148215821682178210865B
:1036C000118680E89EEEA6E3B0E082879387A48708
:1036D000B58716861786108A118A128A138A08956A
:1036E0000F931F93FC01DB01828D81FD95C0238523
:1036F000348553968D919C9154972817390708F07B
:1037000095C0009106091091070920910809309190
:10371000090940910A0950910B0960910C097091B7
:103720000D09041715072607370708F082C097858B
:1037300055968C915597981708F45CC080910E09A6
:103740008F5F80930E09843108F076C02585368519
:1037500056968D919C9157972817390708F04DC0C0
:1037600080910F098F5F80930F09853008F067C043
:1037700058968D919C918217930708F041C08091D3
:1037800010098F5F80931009823008F05BC042857A
:10379000248135814333B8F124363105A4F5809175
:1037A00011098F5F809311098E3108F04EC080811E
:1037B00091818C509E4F8217930744F58091120996
:1037C0008F5F809312098A3008F042C0453108F1BA
:1037D000232BF9F4809113098F5F809313098431AF
:1037E000D0F5109201091092000990E080E01F913D
:1037F0000F91089510920E09A9CF10920F09B8CF1A
:1038000010921009C4CF10921109D1CF1092120951
:10381000DDCF10921309E5CF81E090E0909301098C
:103820008093000921E020930409E1CF82E090E039
:10383000F5CF83E090E0F2CF84E090E0EFCF85E039
:1038400090E0ECCF86E090E0E9CF87E090E0E6CF33
:1038500088E090E0E3CF89E090E0E0CF8F929F9204
:10386000AF92BF92CF92DF92EF92FF92B0E0A0E0D2
:103870006C017D01C61AD70AE108F108A70196017B
:10388000C701B6010E94892180900609909007091E
:10389000A0900809B09009091C141D041E041F04FF
:1038A000DCF428EE33E040E050E00E94E321820E99
:1038B000931EA41EB51E8092060990920709A0923D
:1038C0000809B0920909FF90EF90DF90CF90BF9068
:1038D000AF909F908F90089520EA3FE040E050E045
:1038E0000E94E321281539054A055B0528F4821A50
:1038F000930AA40AB50ADFCF1092060910920709AD
:103900001092080910920909DECFE0E0F9E0148274
:103910001182108216861786108A118A128A138ADB
:10392000089520910209309103092817390741F4BD
:103930001092030910920209109205090C94851C3B
:10394000089580910409811107C081E090910509D3
:10395000911103C080E0089581E0089580910009ED
:1039600090910109089580910209909103090895A9
:10397000CF92DF92EF92FF92C0900A09D0900B098C
:10398000E0900C09F0900D0980E0C114D104E1042D
:10399000F10489F020910609309107094091080946
:1039A00050910909A4E6B0E00E942622A7019601E1
:1039B0000E94C121822FFF90EF90DF90CF90089559
:1039C0008A30910540F4880F991FFC01E554FF4FA0
:1039D0008081918108958DEA96E00895FC0111821D
:1039E0001082138212821582148288E592E09783F6
:1039F000868384E893E09187808788EC90E09387C2
:103A0000828788EB9BE09587848781E0868708958D
:103A1000FC011616170624F01182108216860895EE
:103A200094858585228533856217730734F0292FA5
:103A3000382F621773070CF49B0131832083EECF7C
:103A4000FC0173876287558744870895FC0177835B
:103A500066835187408708950F931F93CF93DF9319
:103A6000FC01C081D181028113819E01201B310B99
:103A70001216130684F54681578164E6649FC001DF
:103A8000659F900D112468EE73E00E9499216217E2
:103A900073070CF49B01200F311F3383228354855D
:103AA00045852281338190E080E037FD06C0852F77
:103AB000942F281739070CF4C901938382839583C7
:103AC0008483C817D90711F421E02687DF91CF91AD
:103AD0001F910F9108952115310509F340855185F6
:103AE00064E6649FC001659F900D112468EE73E049
:103AF0000E949921319521953109621773070CF4C1
:103B00009B01021B130B13830283C9CFFC01848129
:103B100095810895FC0186850895FC011382128227
:103B20001582148216860895FC01208131818281DC
:103B30009381281B390B1216130694F46681778142
:103B40006115710559F048EE53E0249FC001259F8F
:103B5000900D349F900D11240E949921CB0108955E
:103B600070E060E021153105C9F3608571853195FC
:103B700021953109E5CFFC0190931709809316092F
:103B800070931509609314091182108213821282B6
:103B90001582148217821682118610861286148668
:103BA0001386168615861786108A118A128A138A3A
:103BB000158A148A178A168A118E108E828D8C7F30
:103BC0008B7F828F138E148E158E168E178E10A2F9
:103BD00011A212A214A213A215A216A217A210A635
:103BE00008958091160990911709089580911409FC
:103BF000909115090895E0911609F09117099583A0
:103C00008483748763875687458727870895E09163
:103C10001409F091150953814481E0911609F0913E
:103C2000170930E020E097FD06C0252F342F8217BA
:103C300093070CF49C01318320830895E0911609C9
:103C4000F0911709803921E0920714F08FE891E094
:103C500097FF02C090E080E09187808744E6489F0C
:103C60009001499F300D1124C9016FE871E00E9455
:103C7000992162870895E0911609F09117098281D0
:103C8000938124813581821B930B978386830895CA
:103C9000E0911609F0911709838D948DA58DB68D4D
:103CA0000196A11DB11D838F948FA58FB68F878D2F
:103CB00090A1A1A1B2A10196A11DB11D878F90A3D2
:103CC000A1A3B2A30895E6E2F9E011821082138263
:103CD000128215821482178216821086118612862D
:103CE00013861486158616861786118A108A108EFA
:103CF00079968AE0E032F80741F710922509109290
:103D0000210910922209109223091092240910927D
:103D10001D0910921E0910921F09109220090E947D
:103D2000E2046093190970931A0980931B09909318
:103D30001C091092180908954F925F926F927F921A
:103D4000AF92BF92CF92DF92EF92FF920F931F93A9
:103D5000CF93DF930E94E2046B017C01B12C89E1D7
:103D6000A82E80912509B81608F464C0809119091D
:103D700090911A09A0911B09B0911C09A701960105
:103D8000281B390B4A0B5B0BDA01C901883E9340B3
:103D9000A105B10508F43FC020911D0930911E090D
:103DA00040911F095091200940902109509022090B
:103DB0006090230970902409420E531E641E751EE4
:103DC000411451046104710471F0A4E6B0E00E9452
:103DD0002622A30192010E94C12180911809821715
:103DE00010F42093180910921D0910921E091092C8
:103DF0001F09109220091092210910922209109295
:103E0000230910922409C0921909D0921A09E0924C
:103E10001B09F0921C09DF91CF911F910F91FF9028
:103E2000EF90DF90CF90BF90AF907F906F905F90BA
:103E30004F9008950B2D10E0A09EE001A19ED00DA3
:103E40001124CA5DD64F888D882309F477C08881F4
:103E50009981892B09F472C08C859D85AE85BF85BB
:103E6000C816D906EA06FB0608F468C00E94E204F8
:103E70002B013C014C8A5D8A6E8A7F8AE881F98138
:103E800009950E94E204DC01CB0184199509A60979
:103E9000B7094A885B88712C612C481659066A0656
:103EA0007B0610F49B8B8A8B40901D0950901E0955
:103EB00060901F0970902009480E591E6A1E7B1ED3
:103EC00040921D0950921E0960921F0970922009AC
:103ED000A09EF001A19EF00D1124EA5DF64F248111
:103EE000358180859185A285B385B701A601481BE0
:103EF000590B6A0B7B0BC9010596B0E0A0E0841753
:103F00009507A607B70728F4808991890196918BB8
:103F1000808BA09EF001A19EF00D1124EA5DF64F6A
:103F2000C086D186E286F386D701C601820F931F31
:103F3000A11DB11D84879587A687B787B39411CF3C
:103F4000DC01909125099A3028F5109719F189E143
:103F5000989FF0011124EA5DF64FB183A08373832B
:103F600062835583448337832683108611861286A5
:103F70001386A90170E060E04487558766877787DC
:103F8000118A108A138A128A81E0808F9F5F909332
:103F90002509089580E0089590912509891748F42E
:103FA00099E1899FF0011124EA5DF64F808991899A
:103FB000089590E080E00895CF92DF92EF92FF9213
:103FC0000E94E204C0901909D0901A09E0901B09E0
:103FD000F0901C096C197D098E099F09683E734099
:103FE0008105910510F00E949C1E20911D093091C1
:103FF0001E0940911F0950912009C0902109D090BD
:104000002209E0902309F0902409C20ED31EE41E79
:10401000F51E80E0C114D104E104F10449F0A4E6E6
:10402000B0E00E942622A70196010E94C121822FA2
:10403000FF90EF90DF90CF90089580911809089538
:104040000895CF93DF93CDB7DEB769970FB6F89495
:10405000DEBF0FBECDBFF8948AE0E3E6F0E0DE01FC
:10406000119601900D928A95E1F7CE0101960E947A
:10407000CA0578948CEE90E00E94770688E091E083
:104080000E94770680EA96E8A1E0B0E08B8B9C8BDB
:10409000AD8BBE8BCE0143960E947307FF24F39431
:1040A000FF8A87E0888FCE0147960E949B030E947B
:1040B000F2030E94B50480916D0090916E00A09172
:1040C0006F00B09170008F87988BA98BBA8B1C867C
:1040D0001B8603E010E01E870D87CE010F960E941D
:1040E0006905CE010B960E94690589E191E00E9465
:1040F00077060E94E90C0E9439110E94C4070E94B1
:1041000065110E9452080E94E20D8AE291E00E942D
:10411000770684E49DE490936C0A80936B0AF09296
:104120006D0A88EB9BE090936F0A80936E0A88EC8F
:1041300090E09093710A8093700A88E592E09093E2
:10414000730A8093720A84E893E09093750A8093CF
:10415000740A84EF91E09093770A8093760A80E85E
:1041600091E09093790A8093780A8AE190E09093A5
:104170007B0A80937A0A80E49FE190937D0A809382
:104180007C0A80E596E490937F0A80937E0A8EE60F
:104190008093800A80E29EE49093820A8093810A51
:1041A00088ED96ED9093840A8093830A1093860A93
:1041B0000093850A1092870A1092880A1092890A41
:1041C00010928A0A10928C0A10928B0A10928D0A11
:1041D00010928F0A10928E0A1092900A4AE150E0D3
:1041E00060E871E082E29AE00E94BC1A4FE851E078
:1041F00068E270E082E29AE00E94D21A8CE59AE0CE
:104200000E94EE1C40916E0A50916F0A6091700AF4
:104210007091710A8CE59AE00E94201D4091740A09
:104220005091750A6091720A7091730A8CE59AE058
:104230000E94261D0E94551B0E94D3186091760A89
:104240007091770A90E080E00E94AA1A0E94F91209
:104250000E9486170E94631E30E020E04AE050E092
:104260006AE371E089E490E00E94A01F21E030E061
:1042700042E350E060E471E081EB90E00E94A01F17
:1042800022E030E044E650E068E471E086ED90E042
:104290000E94A01F24E030E04AEF50E060E571E0AA
:1042A0008FE491E00E94A01F23E030E044EF51E052
:1042B00064E571E08DE990E00E94A01F25E030E008
:1042C00048EE53E060E671E08BEA90E00E94A01FA8
:1042D00030E020E041E050E06AE671E08FEA90E0F3
:1042E0000E94A01F82E791E00E9477060E949C1E18
:1042F000CE0149960E945006892B39F00E9474170E
:104300008823A1F30E941B14F1CF898D0E94AC1267
:10431000EFCFDB018F939F930E942622BF91AF9135
:10432000A29F800D911DA39F900DB29F900D11240F
:104330000895AA1BBB1B51E107C0AA1FBB1FA617EC
:10434000B70710F0A61BB70B881F991F5A95A9F73E
:1043500080959095BC01CD01089597FB072E16F42A
:10436000009407D077FD09D00E94992107FC05D061
:104370003EF4909581959F4F0895709561957F4F7C
:104380000895A1E21A2EAA1BBB1BFD010DC0AA1F96
:10439000BB1FEE1FFF1FA217B307E407F50720F0AE
:1043A000A21BB30BE40BF50B661F771F881F991F29
:1043B0001A9469F760957095809590959B01AC0172
:1043C000BD01CF010895052E97FB1EF400940E94B5
:1043D000FA2157FD07D00E94C12107FC03D04EF4FB
:1043E0000C94FA2150954095309521953F4F4F4FB1
:1043F0005F4F089590958095709561957F4F8F4F91
:104400009F4F0895EE0FFF1F0590F491E02D099442
:104410000E941022332312F48A1B9B0B0C9421223E
:10442000A29FB001B39FC001A39F700D811D1124F5
:10443000911DB29F700D811D1124911D08950E9440
:104440001022B7FF0895821B930B08950E9410223B
:10445000A59F900DB49F900DA49F800D911D1124D8
:104460000895FC0188279927E89421912032E9F3E7
:10447000293010F02E30C8F32B3241F02D3239F4B0
:10448000689404C00E948422820F911D21912053C0
:104490002A30C0F31EF4909581959F4F089540E215
:1044A0005AE00E945D220895FB01DC018D9101908C
:1044B00080190110D9F3990B0895FA01A191B081E7
:1044C000009719F41097E1F0CD01DC01CD010D90BA
:1044D000002011F4C00113C0FB012191222319F027
:1044E0002015D9F7F3CFFB012191201519F41E9265
:1044F000119606C02223C1F70D900020A1F7D0012C
:10450000FA01A193B08308957AE0979F902D879F39
:10451000802D910D11240895AEE0B0E0E2E9F2E2C1
:104520000C943B250D891E8986E08C831A830983B0
:104530008FEF9FE79E838D83AE01475E5F4F6F894C
:10454000788DCE0101960E94AF222F813885020F0F
:10455000131FF80110822E96E4E00C945725ABE06F
:10456000B0E0E5EBF2E20C942D257C013B018A01E1
:10457000FC0117821682838181FFC8C1CE0101969A
:104580005C01F7019381F30193FD859193FF819184
:104590003F01882309F453C1853239F493FD859195
:1045A00093FF81913F01853229F4B70190E00E9489
:1045B0009F24E7CF912C212C312CFFE1F31538F00B
:1045C0008B3211F190F4803209F1833229F137FCFA
:1045D0003CC020ED280F2A3050F536FE20C08AE07E
:1045E000989E200D1124922E06C08D3291F08033BA
:1045F00071F7689430F8F30193FD859193FF8191F1
:104600003F018111DACF21C0689431F8689432F803
:10461000F2CF689433F8EFCF689434F8ECCFEAE047
:104620002E9E200D1124222E689435F8E4CF8E3270
:1046300029F436FC04C1689436F8DDCF8C3619F4C1
:10464000689437F8D8CF8836B1F2982F9F7D95546B
:104650009330E0F08336A1F18337C1F1833509F05F
:1046600063C02801F2E04F0E511CF801C080D180D8
:10467000692D70E036FC02C06FEF7FEFC6010E942B
:1046800089244C01689437F882010AC00C5F1F4FDF
:10469000FFE3F98388248394912C6501E89437F82B
:1046A00033FE2DC0522C8114910471F5552009F46C
:1046B00068CFB70180E290E00E949F245A94F6CF21
:1046C000F801808189830E5F1F4FE4CF2801F2E05B
:1046D0004F0E511CF801C080D180692D70E036FC6E
:1046E00002C06FEF7FEFC6010E9494244C0182014B
:1046F000D5CFB70180E290E00E949F242A9428142D
:10470000190409F0B0F7CECFF60137FC859137FEDA
:1047100081916F01B70190E00E949F2451105A943B
:10472000F1E08F1A9108BFCF843619F0893609F06D
:1047300077C0F80137FE6BC06081718182819381FF
:104740000C5F1F4FF32DFF763F2E97FF09C090950A
:104750008095709561957F4F8F4F9F4F689437F884
:104760002AE030E0A5010E94CF24C82ECA188C2C64
:10477000432C36FE0CC0E89440F8C91440F434FED3
:1047800005C032FC03C0F32DFE7E4F2E892C44FE63
:1047900095C0FE01EC0DF11D8081803309F087C0CA
:1047A000242D297E422E842D8870582E43FC95C0DE
:1047B00040FE8FC09C2C821418F42C0C922C98185C
:1047C00044FE91C0B70180E390E00E949F2442FE26
:1047D00009C088E790E041FE02C088E590E0B7019B
:1047E0000E949F24C91408F48AC0CA94D12C9FEF58
:1047F000C91AD90ACA0CDB1CF60182916F01B701F4
:1048000090E00E949F24AC14BD04B1F74FCF6081AB
:104810007181072E000C880B990B0E5F1F4F92CFF2
:10482000D32CE894D4F82AE030E0853739F1232DF1
:10483000297FD22E8F3601F148F48835A9F0F7018F
:10484000868197812B96E2E10C944925803749F0C7
:104850008837A9F7D4FE02C06894D2F820E130E08E
:104860000DC06894D4F8F6CF34FE03C0822F866062
:10487000D82E20E132E002C028E030E0F801D7FE77
:104880000FC060817181828193810C5F1F4FA501F0
:104890000E94CF24C82ECA183D2CE89437F867CF61
:1048A0006081718190E080E00E5F1F4FF0CF42FC8D
:1048B00002C0839478CF8394839475CF842D8678B7
:1048C00009F471CFF6CFB70180E290E00E949F24F7
:1048D00083948214C0F3512C73CF522C5818821435
:1048E00008F46ECFF8CF842D867809F47BCF8BE265
:1048F00041FE80E247FC8DE2B70190E071CFB70145
:1049000080E390E00E949F249A946CCF8FEF9FEFFA
:1049100099CFFC010590615070400110D8F7809547
:1049200090958E0F9F1F0895FC016150704001907B
:104930000110D8F7809590958E0F9F1F08950F93C3
:104940001F93CF93DF93182F092FEB018B8181FDEC
:1049500009C01FEF0FEF812F902FDF91CF911F9193
:104960000F91089582FF14C02E813F818C819D811B
:10497000281739073CF4E881F981CF010196998322
:10498000888310838E819F8101969F838E83E3CFDE
:10499000E885F985812F0995892BA1F3DACFFA01F2
:1049A000AA27283051F1203181F1E8946F936E7F6E
:1049B0006E5F7F4F8F4F9F4FAF4FB1E03ED0B4E05F
:1049C0003CD0670F781F891F9A1FA11D680F791FA0
:1049D0008A1F911DA11D6A0F711D811D911DA11DB1
:1049E00020D009F468943F912AE0269F11243019C1
:1049F000305D3193DEF6CF010895462F4770405D5C
:104A00004193B3E00FD0C9F7F6CF462F4F70405D0A
:104A10004A3318F0495D31FD4052419302D0A9F765
:104A2000EACFB4E0A6959795879577956795BA955F
:104A3000C9F700976105710508959B01AC010A2E25
:104A400006945795479537952795BA95C9F7620FFC
:104A5000731F841F951FA01D08952F923F924F92A0
:104A60005F926F927F928F929F92AF92BF92CF92FE
:104A7000DF92EF92FF920F931F93CF93DF93CDB707
:104A8000DEB7CA1BDB0B0FB6F894DEBF0FBECDBF7F
:104A900009942A88398848885F846E847D848C8450
:104AA0009B84AA84B984C884DF80EE80FD800C8159
:104AB0001B81AA81B981CE0FD11D0FB6F894DEBF3C
:0C4AC0000FBECDBFED010895F894FFCFAC
:104ACC000104018025000003000000000001000328
:104ADC000039003600330030003B0038003500321E
:104AEC00003A0037003400310000010101000101DF
:104AFC00030206040C080903060C09010204080150
:104B0C0000020003000400840608058906D2048E06
:104B1C0006930698069C06A206A7060906A706A7F2
:104B2C0005B506AD05BE06C806D106D706E1064595
:104B3C005252205354415254004552522052455621
:104B4C000045525220414354495645000D0A2D2D23
:104B5C002D2053595354454D205354415254494ED2
:104B6C0047202D2D2D0D0A00424F4F54313A205520
:104B7C00415254204F4B0D0A00424F4F54323A20B1
:104B8C004D43414C204F4B0D0A00424F4F54333A8A
:104B9C002048414C204F4B0D0A0050616E656C0053
:104BAC0043757272656E7400436F6E74726F6C0035
:104BBC004C434400536C6F7753656E736F72730084
:104BCC0054656C656D6574727900537465707065AD
:104BDC007200424F4F54343A205343484544554C8D
:104BEC0045522052454144590D0A00256C6400532E
:104BFC004554252D346420414354252D34642563BC
:104C0C00002532642525202532642E25644120257B
:104C1C0032645620253264430021212054524950DD
:104C2C00504544202121202020002154524950205D
:104C3C00434F44453D256400454E5445520D0A00F2
:104C4C000D0A496E647573747269616C204D6F74D2
:104C5C006F7220436F6E74726F6C6C65722076315C
:104C6C002E30000D0A547970652048454C50206652
:104C7C006F7220636F6D6D616E64730D0A3E200060
:104C8C004552524F523A2000244D442C53503D254E
:104C9C00642C52503D25642C443D25642C493D2503
:104CAC00642C563D25642C543D25642C4449523DBE
:104CBC0025632C53543D25732C54523D25642C49AB
:104CCC0032543D25642C52483D256C752C53433D84
:104CDC002564002A253032580D0A00214556542CE3
:104CEC00000D0A3D3D3D20417661696C61626C6549
:104CFC0020436F6D6D616E6473203D3D3D005354D8
:104D0C004154555320202020202020202D20536852
:104D1C006F772074656C656D657472790052554EB1
:104D2C0020202020202020202020202D20537461A2
:104D3C007274206D6F746F72202872656D6F74655C
:104D4C00206F6E6C79290053544F50202020202066
:104D5C0020202020202D2053746F70206D6F746FD5
:104D6C007200524556202020202020202020202078
:104D7C002D20526576657273652064697265637463
:104D8C00696F6E202872656D6F7465206F6E6C791B
:104D9C0029005350454544203C6E3E2020202020C5
:104DAC002D205365742073706565642028302D6D3B
:104DBC00617852706D290053504545443F202020A6
:104DCC0020202020202D2053686F7720637572726D
:104DDC00656E74207370656564004449523F2020F1
:104DEC0020202020202020202D2053686F77206445
:104DFC006972656374696F6E004346473F202020DB
:104E0C00202020202020202D2053686F7720636FD6
:104E1C006E66696775726174696F6E0053455420D4
:104E2C003C706172616D3E203C76616C75653E2014
:104E3C002D2053657420706172616D65746572000C
:104E4C0041434B20202020202020202020202D20DA
:104E5C0041636B6E6F776C65646765207472697003
:104E6C0000545249503F2020202020202020202D6B
:104E7C002053686F7720616374697665207472695A
:104E8C00700054524950533F2020202020202020D5
:104E9C002D2053686F772074726970206C6F6700D7
:104EAC00484F5552533F20202020202020202D20D9
:104EBC0053686F772072756E20686F75727300542B
:104ECC00554E453F2020202020202020202D2053EF
:104EDC00686F7720504920696E7465726E616C73CF
:104EEC000053415645202020202020202020202D1A
:104EFC00205361766520636F6E66696720746F203E
:104F0C00454550524F4D0048454C50202020202004
:104F1C0020202020202D2053686F7720746869731F
:104F2C00206D656E750020090D0A005354415455CF
:104F3C00530052554E00455252204D4F44450045AA
:104F4C0052522054524950504544005354415254EB
:104F5C002C52454D4F54450053544F502C52454DF7
:104F6C004F5445004552522053544F500052455611
:104F7C00455253452C52454D4F54450053504545D1
:104F8C00443D25642C256400455252204152475320
:104F9C00004552522052414E4745004449523F0071
:104FAC004449523D2563004346473F004346473D35
:104FBC0025642C25642C25642C25642C25642C2537
:104FCC00642C25642C25642C25642C25642C2564E8
:104FDC002C256400534554004D415852504D004D02
:104FEC00494E52504D00414343454C0044454345C6
:104FFC004C004445414454494D45004B50004B49ED
:10500C000052415445440053484F5254004F5645AA
:10501C005254454D500045525220504152414D0082
:10502C0041434B2C4F4B0041434B2C52454655535F
:10503C0045442C41435449564500545249503F0075
:10504C00545249503D25642C2573005452495053F9
:10505C003F003D3D3D2054726970204C6F67203DF0
:10506C003D3D005452502C302C4E4F4E45003D3D92
:10507C003D20456E64203D3D3D00484F5552533F09
:10508C0000484F5552533D2530326C753A2530321D
:10509C006C752C53433D25640054554E453F0054CC
:1050AC00554E453D25642C25642C256C642C2564BB
:1050BC00005341564500534156452C4F4B00484533
:1050CC004C500045525220434D4400545249502CF0
:1050DC0025732C493D25642C4932543D25640055DB
:1050EC004E4B4E00494E49540053545254005244B6
:1050FC00574E00444541440042524B00434F4153EC
:10510C00540054524950004553544F5000554E4B87
:10511C004E4F574E004F5645524C4F414400554E42
:10512C00444552564F4C54004F564552564F4C54D2
:10513C00005354414C4C004F564552535045454436
:0C514C00004E4F464545444241434B0095
:00000001FF
