:100000000C9460020C94FC0C0C94D10C0C947D02AA
:100010000C947D020C947D020C947D020C947D0264
:100020000C947D020C947D020C94CF0D0C947D02F7
:100030000C947D020C94550F0C94990F0C947D0236
:100040000C947D020C947D020C947D020C947D0234
:100050000C947D0245525220414354495645004577
:100060005252205245560045525220535441525448
:1000700000424F4F54343A205343484544554C4571
:10008000522052454144592C2052554E4E494E471C
:100090002E2E2E0D0A00424F4F54333A2048414C29
:1000A000204F4B0D0A00424F4F54323A204D4341EE
:1000B0004C204F4B0D0A00424F4F54313A205541CE
:1000C0005254204F4B0D0A000D0A2D2D2D2053594F
:1000D0005354454D205354415254494E47202D2DE1
:1000E0002D0D0A000048454C5020202020202020C3
:1000F0002020202D2053686F772074686973206D4D
:10010000656E750053415645202020202020202078
:1001100020202D205361766520636F6E666967200D
:10012000746F20454550524F4D0054554E453F2069
:1001300020202020202020202D2053686F77205061
:100140004920696E7465726E616C7300484F555238
:10015000533F20202020202020202D2053686F771F
:100160002072756E20686F75727300545249505337
:100170003F20202020202020202D2053686F772032
:1001800074726970206C6F6700545249503F202090
:10019000202020202020202D2053686F77206163AD
:1001A0007469766520747269700041434B20202089
:1001B00020202020202020202D2041636B6E6F778F
:1001C0006C65646765207472697000534554203C07
:1001D000706172616D3E203C76616C75653E202DCC
:1001E0002053657420706172616D6574657200439F
:1001F00046473F202020202020202020202D205353
:10020000686F7720636F6E66696775726174696F76
:100210006E004449523F2020202020202020202012
:100220002D2053686F7720646972656374696F6EFF
:100230000053504545443F20202020202020202DE1
:100240002053686F772063757272656E74207370C7
:10025000656564005350454544203C6E3E20202097
:1002600020202D205365742073706565642028302C
:100270002D6D617852706D29005245562020202046
:10028000202020202020202D205265766572736565
:1002900020646972656374696F6E202872656D6F82
:1002A0007465206F6E6C79290053544F50202020C4
:1002B000202020202020202D2053746F70206D6F6F
:1002C000746F720052554E202020202020202020C4
:1002D00020202D205374617274206D6F746F722012
:1002E0002872656D6F7465206F6E6C7929005354A8
:1002F0004154555320202020202020202D205368B9
:100300006F772074656C656D65747279000D0A3DB8
:100310003D3D20417661696C61626C6520436F6D83
:100320006D616E6473203D3D3D000D0A00455252E3
:100330004F523A20004F4B003D3D3D20456E64201A
:100340003D3D3D005452502C302C4E4F4E45003D0B
:100350003D3D2054726970204C6F67203D3D3D004B
:1003600045525220414354495645004F4B00455297
:100370005220504152414D004F4B004552522052A5
:10038000414E4745004F4B004552522052414E4787
:1003900045004F4B004552522052414E4745004FB9
:1003A0004B004552522052414E4745004F4B0045AD
:1003B00052522052414E4745004F4B004552522069
:1003C00052414E4745004F4B004552522052414E3C
:1003D0004745004F4B004552522052414E47450081
:1003E0004F4B004552522052414E4745004F4B0063
:1003F0004552522052414E474500455252205241EB
:100400004E4745004552522041524753004F4B0042
:100410004552522052414E474500455252205241CA
:100420004E474500455252204152475300455252D3
:10043000204D4F44450045525220524556004F4BE7
:1004400000455252204D4F444500455252205354CE
:100450004F50004F4B0045525220535441525400CC
:100460004F4B00455252205452495050454400458C
:100470005252204D4F44450045525220434D4400B6
:100480000D0A547970652048454C5020666F7220E3
:10049000636F6D6D616E64730D0A3E20000D0A4935
:1004A0006E647573747269616C204D6F746F722025
:1004B000436F6E74726F6C6C65722076312E3000F3
:1004C00011241FBECFE5D8E0DEBFCDBF13E0A0E60C
:1004D000B0E0E0E9F0E402C005900D92A037B1076A
:1004E000D9F725E0A0E7B3E001C01D92A835B20717
:1004F000E1F70E94610B0C9446200C940000892BBC
:1005000071F03E9A3F983D98389839983A983B98C0
:100510003098319A329A379A90E080E0089581E0DD
:1005200090E00895883080F4389839983A983B984C
:1005300080FD389A81FD399A8695869509F03A9A18
:10054000369A90E080E0089581E090E00895009769
:1005500059F034B125B1232732272327FC013183F9
:10056000208390E080E0089581E090E0089586B1D6
:100570008295869586958370809581700895CF9336
:10058000DF93EB010E949202009749F40E94B702A8
:100590008823E1F3CE01DF91CF910C94A702DF9184
:1005A000CF910895379890E080E0089583309105C9
:1005B00088F48130910541F0029749F08BB780644F
:1005C0008BBF90E080E008958BB78068F9CF8BB740
:1005D0008062F6CF81E090E008958330910588F441
:1005E0008130910541F0029749F08BB78F7B8BBF2B
:1005F00090E080E008958BB78F77F9CF8BB78F7D30
:10060000F6CF81E090E0089583309105A8F4813021
:10061000910509F10297C1F185B78E7F85BF85B736
:100620008D7F85BF6130710551F060F062307105DA
:1006300079F06330710549F081E090E0089585B765
:10064000816085BF90E080E0089585B7816085BFB7
:1006500085B78260F6CF85B78B7F85BF85B7877FEB
:1006600085BF6130710569F068F36230710531F062
:100670006330710509F785B7846085BF85B78860E9
:10068000E0CF85B78460DDCF6230710531F0633033
:10069000710591F684B7806402C084B78F7B84BFF4
:1006A000D1CFCF93DF93EC01892B99F08881998189
:1006B0008330910570F46A817B810E940403009766
:1006C00051F4888199818130910589F038F0029741
:1006D00089F081E090E0DF91CF9108958AB780643E
:1006E0008ABF88819981DF91CF910C94D6028AB715
:1006F0008068F6CF8AB78062F3CF039730F481E049
:1007000090E0672B21F080E0089581E090E008956B
:100710008FB780688FBF08958FB78F778FBF089589
:1007200088E480B90898099886B7846086BF90E00D
:1007300080E008950C94900384EA86BF90E080E006
:1007400006B607FE08C021B1287F81E090E028307E
:1007500049F480E008950196813127E2920781F7FC
:1007600081E090E0089584E986BF90E080E00895FC
:1007700083B984E886BF90E080E006B607FE0CC02F
:1007800021B1287F283181F0283271F081E090E09A
:10079000203449F480E008950196813127E29207E0
:1007A00061F781E090E0089580E0FCCFCF93DF9384
:1007B000D82FC62F0E949C03009741F48D2F880FDD
:1007C000C1708C2BDF91CF910C94B803DF91CF9146
:1007D00008950C94B8031092730310927203109250
:1007E0007103109270030C944F0E909373038093D7
:1007F000720310927103109270038130910551F0D1
:1008000028F0049750F081E090E0089590E080E0B7
:100810000C946D0E86E990E0FBCF8CE390E0F8CF6E
:100820008091720390917303009759F18330910581
:1008300041F14AE050E08130910511F442E350E08B
:1008400020917003309171032F5F3F4F24173507BC
:1008500028F430937103209370030895109271036C
:100860001092700320916000222361F090E080E0FC
:100870000E946D0E81E090916000911180E0809364
:1008800060000895019719F08CE390E0F1CF86E9BC
:1008900090E0EECFCF93DF93009731F4C1E0D0E04A
:1008A000CE01DF91CF910895C62F60E0FC018081D9
:1008B0000E94D603892B91F780E00E94E903892BDF
:1008C00019F00E94B303EACF8C2F0E94E903EC01D8
:1008D000892BB9F70E94B303E3CFCF93DF9300973F
:1008E00031F4C1E0D0E0CE01DF91CF910895C62F61
:1008F00060E0FC0180810E94D603892B91F780E49F
:100900000E94E903892B19F00E94B303EACF8C2FD0
:100910000E94E903EC01892BB9F70E94B303E3CFEE
:100920000F931F93CF93DF93009741F401E010E002
:10093000C801DF91CF911F910F9108956115710545
:10094000A9F3EB0160E0FC0180810E94D603892BB2
:1009500069F780E40E94E9038C01892B51F48991A5
:10096000811103C00E94B303E3CF0E94E903892BE6
:10097000B1F30E94B303DACFCF93DF9300D0CDB7AA
:10098000DEB7198220E42A83009799F0FC012181C7
:10099000621778F42281421760F4FE01E60FF11D20
:1009A0006181640F60680F900F90DF91CF910C947C
:1009B0004A0481E090E00F900F90DF91CF9108956D
:1009C0000F931F93CF93DF93EC0189010E94BC0426
:1009D000892B41F4B801CE01DF91CF911F910F9186
:1009E0000C94900481E090E0DF91CF911F910F91E2
:1009F0000895EF92FF920F931F93CF93DF93CDB79C
:100A0000DEB72C970FB6F894DEBF0FBECDBF7C01CA
:100A10007F936F935F934F938AEC90E09F938F93B4
:100A20008E010F5F1F4F1F930F930E946E1DB80121
:100A3000C7010E9490040FB6F894DEBF0FBECDBF71
:100A40002C960FB6F894DEBF0FBECDBFDF91CF91CD
:100A50001F910F91FF90EF90089561E00C944A046C
:100A600062E00C944A049C0190916100662349F075
:100A7000946090936100609161006860C9010C947A
:100A80004A049B7FF6CF9C0190916100662349F058
:100A9000926090936100609161006860C9010C945C
:100AA0004A049D7FF6CF9C0190916100662349F036
:100AB000916090936100609161006860C9010C943D
:100AC0004A049E7FF6CF662319F06CE10C944A0429
:100AD00068E1FCCFEF92FF920F931F93CF93DF93C8
:100AE000009759F14115510541F1683030F58A01FF
:100AF000EC0188E0689FB00111246064CE010E947F
:100B00004A04892BD1F47801E8E0EE0EF11CF801DB
:100B100061918F01CE010E946D04892B71F40E1535
:100B20001F05A9F740E060E0CE01DF91CF911F9152
:100B30000F91FF90EF900C94BC0481E090E0DF9166
:100B4000CF911F910F91FF90EF900895CF93DF9376
:100B5000009729F481E090E0DF91CF910895EC01B6
:100B600068E30E944A04892BA9F784E0809361001E
:100B70006CE0CE010E944A04892B61F7CE010E94ED
:100B80002D05892B39F766E0CE010E944A0431E039
:100B900020E0892B09F430E0832F922FDDCFE7E7A7
:100BA000F3E08EE3808382E0818380E18283CF0162
:100BB0000C94A605EF92FF920F931F93CF93DF93B0
:100BC000CDB7DEB7A6970FB6F894DEBF0FBECDBF88
:100BD000FC0181E090E0309709F46BC0848995892D
:100BE0008130910509F474C0029709F06FC092E555
:100BF0008F011F929F9385818F9384818F9383812F
:100C00008F9382818F938EEC90E09F938F937E01E0
:100C100086E1E80EF11CFF92EF920E946E1DD80152
:100C20001B96ED91FC911C971F968C911F971F921C
:100C30008F931D968D919C9128EE33E0B9010E940F
:100C40005F1C7F936F93CF0164E670E00E945F1C8E
:100C5000CB016AE070E00E945F1C9F938F93CF01ED
:100C6000B9010E945F1C7F936F93F80182851F92E8
:100C70008F9380EE90E09F938F938E010F5F1F4FB5
:100C80001F930F930E946E1D970140E060E087E77D
:100C900093E00E94E004980140E061E087E793E080
:100CA0000E94E0040FB6F894DEBF0FBECDBF90E007
:100CB00080E0A6960FB6F894DEBF0FBECDBFDF91E1
:100CC000CF911F910F91FF90EF9008959DE290CFEB
:100CD00096E48ECF0F931F93CF93DF93CDB7DEB7FC
:100CE00061970FB6F894DEBF0FBECDBF182F092F46
:100CF0008091750390917603019686309105B8F541
:100D0000909376038093750328EF30E040E060E035
:100D100087E793E00E94E00480917403882399F1AF
:100D20000F931F9389E091E09F938F938E010F5F44
:100D30001F4F1F930F930E946E1D980140E061E0CA
:100D400087E793E00E94E0040F900F900F900F90C0
:100D50000F900F9090E080E061960FB6F894DEBFA0
:100D60000FBECDBFDF91CF911F910F9108951092CB
:100D700076031092750381E090917403911180E0E5
:100D800080937403C1CF8AEF94E00E94DA05E2CF2A
:100D900080917C0390917D03019690937D038093D5
:100DA0007C03089510927D0310927C0310927B03C4
:100DB00010927A0368EC76E090E080E00E947D0378
:100DC00090E080E00C94D602F89420917C0330915E
:100DD0007D0310927D0310927C0378944CE3429F34
:100DE000C001439F900D112490937B0380937A035D
:100DF000089580917A0390917B030895FC0171839B
:100E0000608353834283148215821682178211866F
:100E100010868FE891E0938782871586148617865F
:100E2000168681E0808B0895FC0171876087538767
:100E300042870895CF92DF92EF92FF920F931F9314
:100E4000FC01CB01841B950BAC01A281B3819C01F9
:100E50000E94BA1C04811581268137816B017C01B7
:100E6000C00ED11EE21EF31EA081B1819A010E9424
:100E7000BA1C072F182F292F332727FD3A95BB2798
:100E8000F7FCBA95AF2D9E2D8D2D080F191F2A1F27
:100E90003B1F82859385092E000CAA0BBB0B801784
:100EA0009107A207B30754F457FF16C020892223E5
:100EB00099F0C482D582E682F7820EC08085918542
:100EC000092E000CAA0BBB0B081719072A073B07B2
:100ED00074F41416150654F355874487978786874C
:100EE0001F910F91FF90EF90DF90CF900895C482F3
:100EF000D582E682F782C801EFCFFC011482158209
:100F00001682178215861486178616860895FC01A8
:100F100071836083538342830895FC0164817581EA
:100F2000868197810895FC01848595850895FC014B
:100F300011821082138212821582148288E592E057
:100F40009783868384E893E09187808788EC90E09C
:100F50009387828788EB9BE09587848781E08687EB
:100F60000895FC011616170624F0118210821686C9
:100F7000089594858585228533856217730734F03B
:100F8000292F382F621773070CF49B0131832083BC
:100F9000EECFFC0173876287558744870895FC0173
:100FA000778366835187408708950F931F93CF936C
:100FB000DF93FC01C081D181028113819E01201B3E
:100FC000310B1216130684F54681578164E6649F3F
:100FD000C001659F900D112468EE73E00E945F1CB4
:100FE000621773070CF49B01200F311F3383228398
:100FF000548545852281338190E080E037FD06C02D
:10100000852F942F281739070CF4C9019383828305
:1010100095838483C817D90711F421E02687DF91CF
:10102000CF911F910F9108952115310509F3408546
:10103000518564E6649FC001659F900D112468EEA0
:1010400073E00E945F1C3195219531096217730787
:101050000CF49B01021B130B13830283C9CFFC0109
:10106000848195810895FC0186850895FC01138291
:1010700012821582148216860895FC012081318126
:1010800082819381281B390B1216130694F4668112
:1010900077816115710559F048EE53E0249FC00136
:1010A000259F900D349F900D11240E945F1CCB0151
:1010B000089570E060E021153105C9F36085718500
:1010C000319521953109E5CFECE8F3E011821082EA
:1010D000138212821582148217821682108611865C
:1010E000128613861486158616861786118A108A2C
:1010F000108E799684E0E232F80741F710928B0364
:1011000010928703109288031092890310928A0329
:101110001092830310928403109285031092860329
:101120000E94780E60937F03709380038093810305
:101130009093820310927E0308954F925F926F9274
:101140007F92AF92BF92CF92DF92EF92FF920F9376
:101150001F93CF93DF930E94780E6B017C01B12C1B
:1011600089E1A82E80918B03B81608F464C08091A1
:101170007F0390918003A0918103B0918203A70126
:101180009601281B390B4A0B5B0BDA01C901883E1B
:101190009340A105B10508F43FC02091830330912D
:1011A00084034091850350918603409087035090BB
:1011B00088036090890370908A03420E531E641E58
:1011C000751E411451046104710471F0A4E6B0E08D
:1011D0000E94D81CA30192010E94731C80917E037F
:1011E000821710F420937E031092830310928403DD
:1011F0001092850310928603109287031092880341
:101200001092890310928A03C0927F03D0928003C8
:10121000E0928103F0928203DF91CF911F910F91B1
:10122000FF90EF90DF90CF90BF90AF907F906F9046
:101230005F904F9008950B2D10E0A09EE001A19EBD
:10124000D00D1124C457DC4F888D882309F477C052
:1012500088819981892B09F472C08C859D85AE8522
:10126000BF85C816D906EA06FB0608F468C00E94C6
:10127000780E2B013C014C8A5D8A6E8A7F8AE88158
:10128000F98109950E94780EDC01CB01841995093A
:10129000A609B7094A885B88712C612C4816590643
:1012A0006A067B0610F49B8B8A8B409083035090D8
:1012B00084036090850370908603480E591E6A1E51
:1012C0007B1E409283035092840360928503709248
:1012D0008603A09EF001A19EF00D1124E457FC4F5F
:1012E0002481358180859185A285B385B701A601CA
:1012F000481B590B6A0B7B0BC9010596B0E0A0E0B7
:1013000084179507A607B70728F480899189019665
:10131000918B808BA09EF001A19EF00D1124E457CB
:10132000FC4FC086D186E286F386D701C601820FC4
:10133000931FA11DB11D84879587A687B787B39496
:1013400011CFDC0190918B03963028F5109719F19D
:1013500089E1989FF0011124E457FC4FB183A083E9
:101360007383628355834483378326831086118673
:1013700012861386A90170E060E04487558766876E
:101380007787118A108A138A128A81E0808F9F5F83
:1013900090938B03089580E0089590918B038917B3
:1013A00048F499E1899FF0011124E457FC4F8089AA
:1013B0009189089590E080E00895CF92DF92EF92B6
:1013C000FF920E94780EC0907F03D0908003E0903F
:1013D0008103F09082036C197D098E099F09683E94
:1013E00073408105910510F00E949D0820918303B0
:1013F000309184034091850350918603C090870308
:10140000D0908803E0908903F0908A03C20ED31E27
:10141000E41EF51E80E0C114D104E104F10449F09A
:10142000A4E6B0E00E94D81CA70196010E94731C9C
:10143000822FFF90EF90DF90CF90089580917E03F0
:101440000895089563E083E00E94840D91E0813067
:1014500009F090E08091140590FB81F980931405C8
:101460000E9464110E94F41182309105E1F130F57F
:10147000019781F10E94E51860E08330910531F019
:101480008230910511F00497C1F561E081E00E947E
:1014900006120E940D19882399F181E00E941E1204
:1014A0000E94FC180E9426120E94FD1190911405C2
:1014B000882341F19E7F9093140508958330910510
:1014C000A9F00497B9F60E946A198111D3CF84E577
:1014D00090E006C00E9419198111CCCF87E690E0F8
:1014E0000E94B512C7CF0E943719C4CF0E94461977
:1014F0008111C0CF8FE590E0F3CF60E080E0C7CFEF
:1015000080E0CCCF9160D7CFCF93DF930E94971923
:101510000E94E4060E94F9069093FF048093FE0463
:101520008091140580FF3BC08091FA049091FB04E8
:10153000BC0183E295E00E94B10783E295E00E943E
:10154000D5079093FD048093FC042091FE04309114
:10155000FF04821B930B909301058093000562E3C7
:1015600075E08AEF94E00E94BB1AEC010097F1F05D
:101570000E94811A0E94F410809125049091260403
:101580008C179D0749F06AEF74E0CE010E94B217F4
:10159000D0932604C0932504DF91CF9108950E9433
:1015A000E10F9093FB048093FA04C2CF10922604BB
:1015B000109225040E9401198823B1F04091FE0485
:1015C0005091FF046091FC047091FD0489EE94E059
:1015D0000E941A070E94CB1080910E0590910F0572
:1015E000DF91CF910C94AA1089EE94E00E947D07C0
:1015F00090E080E0EFCFCF93DF930E944410CAEFDA
:10160000D4E09E878D870E9463108F87DF91CF91F2
:1016100008958AEF94E00C946817CF93DF930E94AB
:101620000010EC0190930605809305056091430539
:10163000709144050E94B81B809145059091460524
:10164000C817D907C8F082E090E00E94811A809103
:10165000270490912804029761F06AEF74E082E019
:1016600090E00E94B21782E090E09093280480936B
:101670002704DF91CF910895109228041092270437
:10168000F8CFCF93DF930E940F1CEC010E940D193D
:10169000882361F0809124048C171D0679F0C09393
:1016A0002404CE01DF91CF910C946A061092240499
:1016B0008AEF94E0DF91CF910C94DA05DF91CF911E
:1016C0000895CF93DF93CDB7DEB768970FB6F89440
:1016D000DEBF0FBECDBFF8948AE0E3E6F0E0DE01A6
:1016E000119601900D928A95E1F7CE0101960E9424
:1016F000840E789488EC90E00E94300F87EB90E0A5
:101700000E94300F80EA96E8A1E0B0E08B8B9C8BC2
:10171000AD8BBE8BCE0143960E949A03FF24F394B7
:10172000FF8A87E0888FCE0147960E947F02BE0124
:10173000655F7F4F80E00E94BF02BE01655F7F4F03
:1017400081E00E94BF02BE01655F7F4F82E00E9480
:10175000BF02BE01655F7F4F83E00E94BF020E940F
:10176000B70D0E944F0E80916D0090916E00A09178
:101770006F00B09170008F87988BA98BBA8B1C86F5
:101780001B8603E010E01E870D87CE010F960E9496
:101790005103CE010B960E94510386EA90E00E940D
:1017A000300F0E94CF050E94D2060E94CF0F0E94E8
:1017B00007110E94EB030E94821086E990E00E94CC
:1017C000300F84E49DE49093330580933205F092CA
:1017D000340588EB9BE0909336058093350588ECC3
:1017E00090E0909338058093370588E592E09093D8
:1017F0003A058093390584E893E090933C05809303
:101800003B0584EF91E090933E0580933D0580E891
:1018100091E09093400580933F058AE190E090939A
:1018200042058093410580E49FE1909344058093B5
:10183000430580E596E490934605809345058EE642
:101840008093470580E29EE4909349058093480584
:1018500088ED96ED90934B0580934A0510934D05C6
:1018600000934C0510924E0510924F0510925005B2
:101870001092510510925305109252051092540582
:101880001092560510925505109257054AE150E006
:1018900060E871E089EE94E00E94FE064FE851E0B6
:1018A00068E270E089EE94E00E94140783E295E01C
:1018B0000E94970740913505509136056091370594
:1018C0007091380583E295E00E94C90740913B057D
:1018D00050913C056091390570913A0583E295E09D
:1018E0000E94CF070E94A01A0E94C11860913D0576
:1018F00070913E0590E080E00E94971A0E94A2122B
:101900000E945A178EE492E10E94440F0E946408DC
:1019100030E020E04AE050E069E770E082E29AE0DF
:101920000E94A10921E030E042E350E06FE770E05F
:101930008DE09BE00E94A10922E030E044E650E007
:1019400067E870E084E89AE00E94A10924E030E0B2
:101950004AEF50E06FE870E081E49BE00E94A1094B
:1019600023E030E044EF51E063E970E08BEF9AE070
:101970000E94A10925E030E048EE53E06FE970E0F5
:1019800089E09BE00E94A10981E790E00E94300F6E
:101990000E949D080E9457178823D1F30E94C1130B
:1019A000F7CF1F920F920FB60F9211242F933F93F0
:1019B0004F935F936F937F938F939F93AF93BF9357
:1019C000EF93FF9390E080E00E94340EC198C0989E
:1019D00081E080932904FF91EF91BF91AF919F9196
:1019E0008F917F916F915F914F913F912F910F90C8
:1019F0000FBE0F901F9018951F920F920FB60F9267
:101A000011242F933F934F935F936F937F938F9303
:101A10009F93AF93BF93EF93FF930E94C806FF91EC
:101A2000EF91BF91AF919F918F917F916F915F9156
:101A30004F913F912F910F900FBE0F901F901895CF
:101A40008430E0F46830D0F4E82FF0E0EE0FFF1FB0
:101A5000E754FF4F0190F081E02D81E090E001C05C
:101A6000880F6A95EAF79081413029F4892B8083A9
:101A700090E080E0089580958923F9CF81E090E09F
:101A800008958430D8F46830C8F441155105B1F098
:101A9000E82FF0E0EE0FFF1FE755FF4F0190F081B8
:101AA000E02D808190E002C0959587956A95E2F7D8
:101AB0008170FA01808390E080E0089581E090E0F9
:101AC00008958430E0F46830D0F4E82FF0E0EE0FB1
:101AD000FF1FEF54FF4F0190F081E02D81E090E077
:101AE00001C0880F6A95EAF79081413029F4892B6B
:101AF000808390E080E0089580958923F9CF81E08C
:101B000090E008950C94610DCF93DF931F92CDB7B1
:101B1000DEB71982AE014F5F5F4F0E94410D898190
:101B20000F90DF91CF9108958430B8F46830A8F415
:101B3000E82FF0E0EE0FFF1FEF54FF4F0190F08110
:101B4000E02D808121E030E001C0220F6A95EAF7A4
:101B50008227808390E080E0089581E090E00895FE
:101B600091E0411101C090E0492F0C94610D83B7C1
:101B70008F7B83BF83B7886083BF12BE89EF8CBF22
:101B800083B78B7F83BF83B7826083BF83B7816056
:101B900083BF89B7826089BF90E080E008951F927B
:101BA0000F920FB60F9211242F933F934F935F9391
:101BB0006F937F938F939F93AF93BF93EF93FF9315
:101BC00080912A0490912B04A0912C04B0912D04B3
:101BD0000196A11DB11D80932A0490932B04A0931C
:101BE0002C04B0932D04E0912E04F0912F04309733
:101BF00009F00995FF91EF91BF91AF919F918F915E
:101C00007F916F915F914F913F912F910F900FBEF8
:101C10000F901F9018958FB58E7F8FBD8FB5826006
:101C20008FBD8EB588608EBD8EB580618EBD8FB53F
:101C30008F7B8FBD8FB580688FBD1DBC1CBC8FE8AE
:101C400091E097BD86BD8EB58B7F8EBD8EB58D7FA5
:101C50008EBD8EB581608EBD41E065E083E00E945F
:101C6000200D90E080E0089585369105A8F4009756
:101C700029F41BBC1ABC90E080E008959C01AFE8F9
:101C8000B1E00E94C21C24E630E040E050E00E9437
:101C9000731C3BBD2ABDEFCF81E090E0089585B570
:101CA0008F7B85BD85B5886085BD14BC85B5846096
:101CB00085BD85B58D7F85BD85B5816085BD85B5C3
:101CC0008F7D85BD85B5806185BD41E067E083E09E
:101CD0000E94200D90E080E008958F3F910509F06B
:101CE00020F483BD90E080E0089581E090E00895C5
:101CF0002FB7F89460912A0470912B0480912C04E2
:101D000090912D042FBF0895CF93DF93EC01892B81
:101D100009F44CC088819981AA81BB810097A105F3
:101D2000B10509F443C09C01AD0184E0220F331FCB
:101D3000441F551F8A95D1F760E074E284EF90E06C
:101D40000E94731C21503109832F8F7080BD29B9E7
:101D50008E81829580739885990F990F990F98704D
:101D6000892B80689C81990F9670892B80BD8C810E
:101D70009D810797C9F4529A539A549A579A109290
:101D8000490410924804109247041092460410929D
:101D9000350410923404109233041092320490E00F
:101DA00080E0DF91CF9108955298E6CF81E090E0F6
:101DB000F8CF20914804309149042F5F3F4F2F7195
:101DC0003327409146045091470442175307C9F303
:101DD0009FB7F894E0914804F0914904E65BFB4F0B
:101DE000808330934904209348049FBF559A90E024
:101DF00080E008954FB7F894209148043091490449
:101E00002F5F3F4F2F713327609146047091470435
:101E10006217730781F0E0914804F0914904E65B92
:101E2000FB4F80833093490420934804559A90E0F7
:101E300080E04FBF089581E090E0FBCFCF93DF9328
:101E4000EC01892B29F481E090E007C00E94D90EB3
:101E500089918111FBCF90E080E0DF91CF910895CF
:101E6000CF93DF93EC01892B29F481E090E009C046
:101E70000E94D90EFE01849121968111F9CF90E044
:101E800080E0DF91CF910895009741F09093310465
:101E900080933004579A90E080E0089581E090E0CC
:101EA00008950C941E0F0C94300F1F920F920FB6D2
:101EB0000F9211242F933F934F935F936F937F93D0
:101EC0008F939F93AF93BF93EF93FF938CB1209128
:101ED0003404309135042F5F3F4F2F7033274091EA
:101EE0003204509133044217530759F0E0913404FF
:101EF000F0913504EA5CFB4F8083309335042093E6
:101F00003404E0913004F0913104309709F00995E0
:101F1000FF91EF91BF91AF919F918F917F916F91C1
:101F20005F914F913F912F910F900FBE0F901F9097
:101F300018951F920F920FB60F9211242F933F9373
:101F40008F939F93EF93FF9320914804309149041E
:101F5000809146049091470428173907F1F0E091E9
:101F60004604F0914704E65BFB4F208180914604D4
:101F70009091470401968F7199279093470480931D
:101F800046042CB9FF91EF919F918F913F912F9132
:101F90000F900FBE0F901F9018955598F3CFCF93C9
:101FA000DF9300D0CDB7DEB781E0898387E08A83F5
:101FB000CE0101960E947F020F900F90DF91CF918A
:101FC0000895CF93DF9300D0CDB7DEB71A82198280
:101FD000BE016F5F7F4F80E00E94BF0229813A817E
:101FE000A8EBBBE00E94C21C2FEF33E040E050E0C2
:101FF0000E94731CC9010F900F90DF91CF9108953B
:102000000F931F93CF93DF93CDB7DEB7A2970FB691
:10201000F894DEBF0FBECDBF1AA219A2BE016F5D3C
:102020007F4F81E00E94BF028AA18F9389A18F9385
:1020300081EC90E09F938F938E010F5F1F4F1F9352
:102040000F930E946E1DC8010E941E0F29A13AA184
:10205000A0E2BEE40E94C21C0F900F900F900F9060
:102060000F900F902FEF33E040E050E00E94731C80
:10207000C901A2960FB6F894DEBF0FBECDBFDF91A7
:10208000CF911F910F910895CF93DF9300D0CDB7DB
:10209000DEB71A821982BE016F5F7F4F82E00E9415
:1020A000BF0229813A81A0E6BAEE0E94C21C2FEF3E
:1020B00033E040E050E00E94731CC9010F900F9084
:1020C000DF91CF910895CF93DF9300D0CDB7DEB7E6
:1020D0001A821982BE016F5F7F4F83E00E94BF02A8
:1020E00029813A81A6E9B0E00E94C21C2FEF33E0BB
:1020F00040E050E00E94731C822F0F900F90DF9100
:10210000CF91089580916A04811121C041E060E07F
:1021100081E00E94200D41E061E081E00E94200DFD
:1021200040E060E081E00E94820D40E061E081E0FB
:102130000E94820D0E940B0E90E080E00E94340EFF
:1021400010926C0410926B0481E080936A0490E01A
:1021500080E008958130910549F00297A1F040E0B8
:1021600060E081E00E94820D40E013C040E061E049
:1021700081E00E94820D41E060E081E00E94820DDA
:1021800090E080E0089540E060E081E00E94820DF0
:1021900041E061E0F2CF20916B0430916C04232B7D
:1021A00029F41BBC1ABC90E080E008959C01203902
:1021B00081E0380710F02FE831E03BBD2ABDF3CFB6
:1021C00081E090E090936C0480936B0490E080E059
:1021D000089510926C0410926B0490E080E00E94CD
:1021E000340E90E080E0089590E080E00E94340E8C
:1021F00040E060E081E00E94820D40E061E081E02B
:102200000E94820D10926C0410926B04089540E0BD
:1022100065E082E00E94200D40E066E082E00E94DE
:10222000200D40E067E082E00E94200D40E066E083
:1022300083E00E94200D40E064E083E00E94200DD6
:1022400041E065E082E00E94B00D41E066E082E09E
:102250000E94B00D41E067E082E00E94B00D41E0D5
:1022600066E083E00E94B00D41E064E083E00E94FC
:10227000B00D41E063E081E00E94200D41E062E0AA
:1022800082E00E94200D41E063E082E00E94200D88
:1022900041E064E082E00E94200D40E063E081E0E4
:1022A0000E94610D40E062E082E00E94610D40E02A
:1022B00063E082E00E94610D40E064E082E00E9401
:1022C000610D90E080E00895EF92FF920F931F93CD
:1022D000CF93DF93CDB7DEB72C970FB6F894DEBF60
:1022E0000FBECDBF65E082E00E94840DF82E66E04F
:1022F00082E00E94840D082F67E082E00E94840D36
:10230000182F66E083E00E94840D91E0F11090E0C8
:10231000998791E0011190E09A8791E0111190E086
:102320009B8791E0811190E09C8788E0E1E7F0E0F5
:10233000DE01119601900D928A95E1F740917A04A1
:1023400050917B04BE01675F7F4FEEE6EE2EE4E026
:10235000FE2EE2E7F4E090E080E0DB012D91BD018C
:10236000D7013D917D012317E1F010828D010150CD
:102370001109D8012C93019631968430910569F7A3
:1023800050937B0440937A042C960FB6F894DEBFEA
:102390000FBECDBFDF91CF911F910F91FF90EF90B6
:1023A00008952130D1F430813F5F3083353018F308
:1023B0008C010A581B4FD8013C913111DCCF2C9372
:1023C0009C01220F331F41E050E04C0F5D1F240F92
:1023D000351FD9014D915C91CECF10829C012A58B6
:1023E0003B4FD9011C92C7CF80917A0490917B0416
:1023F00010927B0410927A04089564E083E00E94B6
:10240000840D91E0811190E0892F0895662371F089
:1024100080916D048F5F8A3018F480936D04089565
:1024200010926D0463E081E00C94940D41E0811101
:1024300001C040E063E081E00C94610D41E0811156
:1024400001C040E062E082E00C94610D81309105B2
:1024500021F0029749F040E001C041E063E082E0F2
:102460000E94610D40E006C040E063E082E00E940F
:10247000610D41E064E082E00C94610D009761F031
:10248000FC012081222341F08191811102C081E071
:10249000089580538A30C0F380E00895CF93C82F09
:1024A0008091AF04882319F08C2F0E94FA0EE091DE
:1024B000AD04C83011F0CF3781F4EE23A9F1E1501B
:1024C000E093AD04F0E0E357FB4F108280E20E94FE
:1024D000FA0E88E0CF910C94FA0ECD3011F0CA308C
:1024E000C9F4EE2361F0F0E0E357FB4F108281E086
:1024F0008093AE048DE00E94FA0E8AE0EBCF8DE06F
:102500000E94FA0E8AE00E94FA0E8EE30E94FA0EF2
:1025100080E2E0CFEF3140F481E08E0F8093AD0494
:10252000F0E0E357FB4FC083CF9108950E94510F15
:1025300082E791E00C94510F0E94530F82E791E0E3
:102540000C94510FEDE8F4E010A211A281E082A3F7
:1025500080E2DF011D928A95E9F78DE994E00E94FF
:102560009C1280E894E00C949C12CF93DF93EC01D2
:102570008DE293E00E94530FCE010E94530F8AE236
:1025800093E0DF91CF910C94530F7F928F929F92A3
:10259000AF92BF92CF92DF92EF92FF920F931F9371
:1025A000CF93DF93CDB7DEB7C058D1090FB6F894FB
:1025B000DEBF0FBECDBF8C01FC0183A074A0C78C11
:1025C000B0A0A1A092A00E94191CD82EF801F08CF6
:1025D000E18C0E94EA18F8012489358921303105FF
:1025E00009F470C02230310509F46EC02DE27F92EB
:1025F0008F929F92AF92BF92CF921F92DF92EF92F3
:10260000FF929F938F931F922F93F80187851F92BC
:102610008F9386858F9385858F9384858F9383850C
:102620008F9382851F928F9385818F9384818F935F
:1026300083818F9382818F9387E191E09F938F9322
:102640008E010F5F1F4F1F930F930E946E1D0FB6D9
:10265000F894DEBF0FBECDBF81E020E0F801E80FA7
:10266000F11D9081911132C0F80101900020E9F72D
:10267000CF011F922F9322E631E03F932F930197D2
:102680009F938F930E946E1DC8010E94510F0F905F
:102690000F900F900F900F900F90C058DF4F0FB614
:1026A000F894DEBF0FBECDBFDF91CF911F910F9188
:1026B000FF90EF90DF90CF90BF90AF909F908F9062
:1026C0007F90089526E493CF22E591CF29278F5F4D
:1026D000C5CFCF93DF93EC018AE691E00E94510FC2
:1026E000CE010E94510F82E791E0DF91CF910C94CF
:1026F000510F8DE093E00E949C128EEE92E00E94BA
:102700009C1284EC92E00E949C1289EA92E00E9462
:102710009C1289E792E00E949C1284E592E00E945C
:102720009C1281E392E00E949C1282E192E00E945E
:102730009C128FEE91E00E949C128BEC91E00E9423
:102740009C128AEA91E00E949C1289E891E00E9422
:102750009C128BE691E00E949C128CE491E00E9416
:102760009C128AE291E00E949C1284E091E00E9417
:102770009C1285EE90E00E949C1284EE90E00C94F6
:102780009C12EF92FF920F931F93CF93DF93CDB7DD
:10279000DEB7C058D1090FB6F894DEBF0FBECDBF6B
:1027A0008091AE04882379F110927C0460E771E097
:1027B0008DE894E00E94011DF0907C04009719F0D0
:1027C00027E02F1570F51092AE04FF2079F00091EC
:1027D0007D0410917E0465E771E0C8010E94061D2A
:1027E000892B81F58AEF94E00E94C5121092AD0406
:1027F000EDE8F4E080E2DF011D928A95E9F78EEAC8
:1028000092E00E94510FC058DF4F0FB6F894DEBF20
:102810000FBECDBFDF91CF911F910F91FF90EF9031
:10282000089521E02F0D20937C04EF2DF0E0EE0FB2
:10283000FF1FE358FB4F9183808360E771E090E0D6
:1028400080E0B8CF6CE771E0C8010E94061D892BBB
:1028500001F58091140580FD05C08FE694E00E948B
:10286000B512C4CF0E940D19882319F083E694E0B5
:10287000F6CF0E941919882349F080E694E00E945F
:102880009C1280E891E00E946913B0CF86E594E045
:10289000E6CF6EEE72E0C8010E94061D892B71F42E
:1028A0000E943719882339F083E594E00E949C1236
:1028B0008DE891E0E8CF8AE494E0D1CF69E971E056
:1028C000C8010E94061D892BA9F48091140580FD82
:1028D00003C081E494E0C3CF0E944619882339F0F5
:1028E0008EE394E00E949C128DE991E0CCCF86E3C8
:1028F00094E0B5CF6AE473E0C8010E94061D892BFD
:1029000009F05BC081E08F1510F568E872E08091F6
:102910007F04909180040E94061D892BC1F4809150
:10292000FF048F938091FE048F938091FD048F9319
:102930008091FC048F938CEA91E09F938F938E019A
:102940000F5F1F4F1F930F930E946E1DBBC080919E
:10295000140580FD03C08DE294E081CFB1E084E2F4
:1029600094E0BF1508F07BCF00917F0410918004A4
:10297000C8010E943E12811103C08AE194E06FCF2A
:10298000C8010E94E31C97FD07C0209135053091D6
:1029900036052817390718F480E194E060CF90934A
:1029A000FB048093FA04BC0183E295E00E94B10726
:1029B0008DE094E00E949C1219CF68EB71E0C80191
:1029C0000E94061D892B29F580910E0590910F0517
:1029D00081309105D1F00297D1F482E51F928F9357
:1029E0008DEB91E09F938F938E010F5F1F4F1F938D
:1029F0000F930E946E1DC8010E9496120F900F90B7
:102A00000F900F900F900F90F1CE86E4E7CF8DE2FC
:102A1000E5CF64EC71E0C8010E94061D892B09F026
:102A20005AC080914B058F9380914A058F93809176
:102A300049058F93809148058F93809147051F9298
:102A40008F93809146058F93809145058F93809158
:102A500044058F93809143058F93809142058F9316
:102A6000809141058F93809140058F9380913F0520
:102A70008F9380913E058F9380913D058F93809138
:102A80003C058F9380913B058F9380913A058F93FE
:102A9000809139058F93809138058F938091370508
:102AA0008F93809136058F93809135058F9389ECB4
:102AB00091E09F938F938E010F5F1F4F1F930F9392
:102AC0000E946E1DC8010E9496120FB6F894DEBFD8
:102AD0000FBECDBF8BCE61EF71E0C8010E94061D15
:102AE000892B09F026C192E09F1560F400918104C2
:102AF00010918204C8010E943E12811106C08AEF23
:102B000093E0ADCE84E094E0AACEE0907F04F09014
:102B10008004C8010E94E31C8C0165EF71E0C701CD
:102B20000E94061D892B81F4C801845F91408D3776
:102B3000954118F080EF93E092CE10933605009304
:102B400035058DEE93E036CF6CEF71E0C7010E9442
:102B5000061D892B79F4C801C297873B934018F072
:102B600083EE93E07CCE109338050093370580EE1A
:102B700093E020CF63E072E0C7010E94061D892B1D
:102B8000C9F4C8018456910985359B4018F086ED3B
:102B900093E065CE10933A050093390540913B05CB
:102BA00050913C05B80183E295E00E94CF0783ED88
:102BB00093E000CF69E072E0C7010E94061D892BF7
:102BC000C9F4C8018456910985359B4018F089ECF9
:102BD00093E045CE10933C0500933B056091390589
:102BE00070913A05A80183E295E00E94CF0786EC38
:102BF00093E0E0CE6FE072E0C7010E94061D892BD2
:102C0000B1F4C801885C91098930974018F08CEBC9
:102C100093E025CE10933E0500933D05B801110FBA
:102C2000880B990B0E94971A89EB93E0C3CE68E159
:102C300072E0C7010E94061D892BB9F48FEA93E068
:102C4000013020E1120708F00ACE109340050093EE
:102C50003F054091410550914205B80189EE94E04D
:102C60000E9487078CEA93E0A5CE6BE172E0C70172
:102C70000E94061D892BB9F4013082E0180718F074
:102C800082EA93E0ECCD10934205009341056091F8
:102C90003F0570914005A80189EE94E00E948707E6
:102CA0008FE993E087CE6EE172E0C7010E94061DB6
:102CB000892B81F4C801885E9340813B964318F0CC
:102CC00085E993E0CCCD109344050093430582E958
:102CD00093E070CE64E272E0C7010E94061D892B6A
:102CE00089F480914305909144058017910718F06D
:102CF00088E893E0B4CD109346050093450585E838
:102D000093E058CE6AE272E0C7010E94061D892B4B
:102D100069F4C801CC978135910518F08BE793E0F1
:102D20009ECD0093470588E793E044CE8EE693E07E
:102D300096CD67E573E0C8010E94061D892B91F4CA
:102D40000E946A19882339F08BE693E00E949C1256
:102D500083E392E098CD80E693E00E94B5128AE387
:102D600092E091CD6DE472E0C8010E94061D892BAE
:102D700091F40E940F1C8C01892B19F40E94141CE1
:102D80008C01C8010E94411C9F938F931F930F9346
:102D900083E592E0D2CD6EE572E0C8010E94061D87
:102DA000892B59F48FE493E00E949C1284E493E011
:102DB0000E949C1288E393E0FDCD65E672E0C801B5
:102DC0000E94061D892B91F56091190570911A05D5
:102DD00080911B0590911C0520911E052F93209139
:102DE0001D052F9320E13EE040E050E00E94731C5F
:102DF000122F032FF42EE52E2CE330E040E050E0BC
:102E00000E94731C5F934F933F932F93EF92FF9217
:102E10000F931F938CE692E09F938F938E010F5F29
:102E20001F4F1F930F930E946E1D4CCE64E872E0FB
:102E3000C8010E94061D892BF9F489EE94E00E94D6
:102E40009307182F092F89EE94E00E948D070F93A6
:102E50001F939F938F937F936F93809142058F93DE
:102E6000809141058F93809140058F9380913F051C
:102E70008F938AE892E0D0CF6CE972E0C8010E949B
:102E8000061D892B39F485E393E00E949C1281EAA8
:102E900092E0F9CC69EA72E0C8010E94061D892B14
:102EA00019F40E947913A2CC88E794E0D8CC8091E1
:102EB000AE04089581E0809362000E94780E6093D2
:102EC000B3047093B4048093B5049093B60408954A
:102ED000CF92DF92EF92FF92CF93DF930097A1F012
:102EE00020916200222381F0EC018E899F8908974E
:102EF000029788F48091B004811106C0CE010E942F
:102F0000C51281E08093B004DF91CF91FF90EF90E4
:102F1000DF90CF9008951092B0040E94780E6B015C
:102F20007C018091B3049091B404A091B504B09158
:102F3000B604A7019601281B390B4A0B5B0BDA017B
:102F4000C901883E9340A105B105F0F2CE010E946F
:102F5000C512C092B304D092B404E092B504F092CA
:102F6000B604D2CFCF92DF92EF92FF920F931F93CE
:102F7000CF93DF93CDB7DEB7C054D1090FB6F89425
:102F8000DEBF0FBECDBF2091B1043091B20428172F
:102F9000390759F17B018C019093B2048093B104FD
:102FA0000E94191CC82EF701D384F484C8010E9422
:102FB000411C1F92CF92FF92DF929F938F9381EBE0
:102FC00092E09F938F931F9280E48F938E010F5F07
:102FD0001F4F1F930F930E943E1DC8010E9469134B
:102FE0000FB6F894DEBF0FBECDBFC05CDF4F0FB68B
:102FF000F894DEBF0FBECDBFDF91CF911F910F912F
:10300000FF90EF90DF90CF900895CF93DF93EC0186
:103010002091B7043091B8042330310521F5809117
:10302000190590911A05A0911B05B0911C054091BE
:103030001505509116056091170570911805840FBC
:10304000951FA61FB71F8093190590931A05A0938B
:103050001B05B0931C0510921505109216051092D1
:103060001705109218053093BA042093B904D09331
:10307000B804C093B7041092C4041092C50410920F
:10308000C6041092C704C430D10509F455C048F5F0
:10309000C130D105C1F1C230D10509F046C08091DF
:1030A000BD049091BE0490930F0580930E0589EEA8
:1030B00094E00E947D0783E295E00E9436088091AB
:1030C0001D0590911E05019690931E0580931D0588
:1030D0001092CC041092CD041092CE041092CF0422
:1030E00024C0C530D10521F0CE0107970397E8F43D
:1030F00010920F0510920E05109203051092020512
:103100001092040512C010920F0510920E05109235
:103110000305109202051092040589EE94E00E94C6
:103120007D0783E295E00E943608D0931105C09395
:103130001005DF91CF91089570E060E083E295E0A3
:103140000E94B107F2CF8091B7049091B804853006
:10315000910550F4029768F08091BD049091BE04EF
:103160000E94AA100C94E0108530910511F0079789
:1031700031F490E080E00E94AA100C94E9100C94C5
:10318000F410E7EBF4E011821082138212821782AE
:103190001682118610861286138614861586168668
:1031A0001786108A84EF91E0A0E0B0E0818B928BCB
:1031B000A38BB48B158A168A178A108E118E128EE5
:1031C000138E148E81E0858F08958091B7049091BD
:1031D000B80408958091B7049091B8048A3091059D
:1031E00040F4880F991FFC01ED50FD4F80819181C3
:1031F000089585EC92E008958091BD049091BE04FD
:1032000008952091B7043091B8042250310981E02B
:103210002230310508F080E008952091B704309104
:10322000B8042850310981E02230310508F080E0EF
:1032300008958091B7049091B80481309105A9F464
:103240004091FA045091FB042091370530913805E4
:103250004217530750F09093BE048093BD0482E060
:1032600090E00E94051881E0089580E00895809123
:10327000B7049091B8040297029730F484E090E08C
:103280000E94051881E0089580E008958091B704B8
:103290009091B8040397E1F48091C104811118C0A2
:1032A0008091BD049091BE04019779F482E090E092
:1032B0009093C0048093BF0481E08093C10484E0B4
:1032C00090E00E94051881E0089581E090E0F0CF41
:1032D00080E008958091B7049091B80488309105FA
:1032E00071F40E940F1C892B11F080E00895109258
:1032F000C20481E090E00E94051881E008950997DA
:10330000A1F78091140581FDF0CFF3CF8091B70430
:103310009091B804099749F081E08093C30489E053
:1033200090E00E94051881E0089580E00895809162
:10333000D404811102C00C94C1188091C4049091EE
:10334000C504A091C604B091C7040A96A11DB11D81
:103350008093C4049093C504A093C604B093C7049B
:10336000E091B704F091B8042091140521FFB9C091
:10337000399711F00E9486190C94A3188091550575
:1033800090915605892B29F481E090E00E94051860
:10339000F3CF88E090E0FACF109203051092020577
:1033A00010920405E9CF83E295E00E943308882358
:1033B00059F18091FE049091FF042091FC0430911A
:1033C000FD04821B930B86509F4F853F9140E0F494
:1033D0008091CC049091CD04A091CE04B091CF0403
:1033E0000196A11DB11D8093CC049093CD04A093B0
:1033F000CE04B093CF044497A105B10508F4BCCF27
:1034000083E090E00E9405181092CC041092CD0445
:103410001092CE041092CF04AFCF2091FA043091D5
:10342000FB0480913705909138052817390708F07B
:10343000A3CF0E943719A0CF8091FE049091FF0482
:103440001816190604F18091D0049091D104A0912E
:10345000D204B091D3040196A11DB11D8093D00474
:103460009093D104A093D204B093D3040397A10501
:10347000B10508F481CF8091C104882369F085E00B
:1034800090E00E9405181092D0041092D10410927E
:10349000D2041092D30470CF87E090E0F2CF409135
:1034A000C8045091C9046091CA047091CB04841778
:1034B0009507A607B70708F45FCF8091BF049091E6
:1034C000C0049093BE048093BD041092C10482E0B6
:1034D00090E05CCF843F9140A105B10508F44CCF4A
:1034E00053CFE830F10508F047CFE758F54E0C947C
:1034F000B41CBE19CC19D3190D1A1C1A4F1ABC19B9
:103500006A1A2091B7043091B8042830310569F067
:1035100021E02093C204909313058093120588E064
:1035200090E00E94051881E0089580E0089560937E
:10353000C8047093C9048093CA049093CB0408957F
:10354000E5EDF4E01182108213821282148215825A
:10355000168217821086118680E89EEEA6E3B0E000
:1035600082879387A487B58716861786108A118A63
:10357000128A138A0895CF92DF92EF92FF920F93EF
:103580001F93CF93DF93CDB7DEB7A8970FB6F8940C
:10359000DEBF0FBECDBF8C017B01FC01858596850A
:1035A000FB01208D318D28173907B8F43F932F93F5
:1035B0009F938F9387E093E09F938F93CE01019623
:1035C0006C019F938F930E946E1DC6010E941E0F77
:1035D0000FB6F894DEBF0FBECDBFF801828D81FD1E
:1035E000A5C023853485F701838994892817390775
:1035F00008F0A6C04091DB045091DC046091DD042A
:103600007091DE048091DF049091E004A091E104C8
:10361000B091E204481759076A077B0708F093C086
:10362000F8019785F7018589981708F46DC0809196
:10363000E3048F5F8093E304843108F087C0F801CE
:1036400025853685F701868997892817390708F077
:103650005EC08091E4048F5F8093E404853008F0BD
:1036600078C0F701808D918D8217930708F052C0C2
:103670008091E5048F5F8093E504823008F06CC090
:10368000F801428524813581433308F446C024364D
:1036900031050CF042C08091E6048F5F8093E60410
:1036A0008E3108F05CC0F801808191818C509E4F72
:1036B00082179307ACF58091E7048F5F8093E7044E
:1036C0008A3008F04FC0453170F1232B61F58091AD
:1036D000E8048F5F8093E804843108F046C01092BC
:1036E000D6041092D50490E080E0A8960FB6F89426
:1036F000DEBF0FBECDBFDF91CF911F910F91FF9025
:10370000EF90DF90CF9008951092E30498CF10923D
:10371000E404A7CF1092E504B3CF1092E604C3CF20
:103720001092E704D0CF1092E804D9CF81E090E066
:103730009093D6048093D50421E02093D904D5CF6B
:1037400082E090E0F5CF83E090E0F2CF84E090E07B
:10375000EFCF85E090E0ECCF86E090E0E9CF87E026
:1037600090E0E6CF88E090E0E3CF89E090E0E0CF22
:103770008F929F92AF92BF92CF92DF92EF92FF9281
:10378000B0E0A0E06C017D01C61AD70AE108F1089B
:10379000A7019601C701B6010E944F1C8090DB046F
:1037A0009090DC04A090DD04B090DE041C141D0495
:1037B0001E041F04DCF428EE33E040E050E00E94D9
:1037C000951C820E931EA41EB51E8092DB0490925F
:1037D000DC04A092DD04B092DE04FF90EF90DF9055
:1037E000CF90BF90AF909F908F90089520EA3FE0D8
:1037F00040E050E00E94951C281539054A055B05FC
:1038000028F4821A930AA40AB50ADFCF1092DB04C7
:103810001092DC041092DD041092DE04DECF809161
:10382000D5049091D60408958091D7049091D8043E
:103830000895CF92DF92EF92FF92C090DF04D09074
:10384000E004E090E104F090E20480E0C114D104CF
:10385000E104F10489F02091DB043091DC04409113
:10386000DD045091DE04A4E6B0E00E94D81CA7015C
:1038700096010E94731C822FFF90EF90DF90CF90F3
:1038800008958A30910540F4880F991FFC01E55A8C
:10389000FC4F80819181089587E193E00895DB01D9
:1038A0008F939F930E94D81CBF91AF91A29F800DD0
:1038B000911DA39F900DB29F900D11240895AA1BF6
:1038C000BB1B51E107C0AA1FBB1FA617B70710F00B
:1038D000A61BB70B881F991F5A95A9F7809590953D
:1038E000BC01CD010895A1E21A2EAA1BBB1BFD014C
:1038F0000DC0AA1FBB1FEE1FFF1FA217B307E407CF
:10390000F50720F0A21BB30BE40BF50B661F771F26
:10391000881F991F1A9469F7609570958095909506
:103920009B01AC01BD01CF010895052E97FB1EF44C
:1039300000940E94AC1C57FD07D00E94731C07FC2A
:1039400003D04EF40C94AC1C5095409530952195C5
:103950003F4F4F4F5F4F08959095809570956195BB
:103960007F4F8F4F9F4F0895EE0FFF1F0590F491EB
:10397000E02D09940E94C21C332312F48A1B9B0B76
:103980000C94D31CA29FB001B39FC001A39F700DE4
:10399000811D1124911DB29F700D811D1124911D57
:1039A00008950E94C21CB7FF0895821B930B0895CF
:1039B0000E94C21CA59F900DB49F900DA49F800DE6
:1039C000911D11240895FC0188279927E8942191DD
:1039D0002032E9F3293010F02E30C8F32B3241F0B9
:1039E0002D3239F4689404C00E94361D820F911D57
:1039F000219120532A30C0F31EF4909581959F4F5A
:103A0000089542E254E00E940F1D0895FB01DC017D
:103A10008D91019080190110D9F3990B0895FA0145
:103A2000A191B081009719F41097E1F0CD01DC016C
:103A3000CD010D90002011F4C00113C0FB012191B4
:103A4000222319F02015D9F7F3CFFB01219120157E
:103A500019F41E92119606C02223C1F70D90002082
:103A6000A1F7D001FA01A193B08308957AE0979F5E
:103A7000902D879F802D910D11240895AEE0B0E028
:103A8000E4E4FDE10C941D200D891E898F89988D39
:103A900026E02C831A83098397FF02C080E090E818
:103AA00001979E838D83AE01455E5F4F698D7A8D50
:103AB000CE0101960E94911D4D815E8157FD0AC085
:103AC0002F813885421753070CF49A01020F131FF8
:103AD000F80110822E96E4E00C943920AEE0B0E0BC
:103AE000E4E7FDE10C941D200D891E8986E08C839E
:103AF0001A8309838FEF9FE79E838D83AE01475E14
:103B00005F4F6F89788DCE0101960E94911D2F81A4
:103B10003885020F131FF80110822E96E4E00C94F2
:103B20003920ABE0B0E0E7E9FDE10C940F207C0127
:103B30003B018A01FC0117821682838181FFC8C183
:103B4000CE0101965C01F7019381F30193FD85910C
:103B500093FF81913F01882309F453C1853239F4E1
:103B600093FD859193FF81913F01853229F4B7013F
:103B700090E00E94811FE7CF912C212C312CFFE196
:103B8000F31538F08B3211F190F4803209F1833261
:103B900029F137FC3CC020ED280F2A3050F536FEC5
:103BA00020C08AE0989E200D1124922E06C08D32EE
:103BB00091F0803371F7689430F8F30193FD8591AB
:103BC00093FF81913F018111DACF21C0689431F8D0
:103BD000689432F8F2CF689433F8EFCF689434F8F1
:103BE000ECCFEAE02E9E200D1124222E689435F8A9
:103BF000E4CF8E3229F436FC04C1689436F8DDCF68
:103C00008C3619F4689437F8D8CF8836B1F2982FEB
:103C10009F7D95549330E0F08336A1F18337C1F155
:103C2000833509F063C02801F2E04F0E511CF80102
:103C3000C080D180692D70E036FC02C06FEF7FEF4D
:103C4000C6010E946B1F4C01689437F882010AC0BC
:103C50000C5F1F4FFFE3F98388248394912C650147
:103C6000E89437F833FE2DC0522C8114910471F57D
:103C7000552009F468CFB70180E290E00E94811FCF
:103C80005A94F6CFF801808189830E5F1F4FE4CFED
:103C90002801F2E04F0E511CF801C080D180692D3F
:103CA00070E036FC02C06FEF7FEFC6010E94761F06
:103CB0004C018201D5CFB70180E290E00E94811FC4
:103CC0002A942814190409F0B0F7CECFF60137FC76
:103CD000859137FE81916F01B70190E00E94811FAD
:103CE00051105A94F1E08F1A9108BFCF843619F021
:103CF000893609F077C0F80137FE6BC060817181A9
:103D0000828193810C5F1F4FF32DFF763F2E97FF2B
:103D100009C090958095709561957F4F8F4F9F4F0B
:103D2000689437F82AE030E0A5010E94B11FC82E40
:103D3000CA188C2C432C36FE0CC0E89440F8C914E9
:103D400040F434FE05C032FC03C0F32DFE7E4F2E3E
:103D5000892C44FE95C0FE01EC0DF11D808180335D
:103D600009F087C0242D297E422E842D8870582E7C
:103D700043FC95C040FE8FC09C2C821418F42C0C80
:103D8000922C981844FE91C0B70180E390E00E9405
:103D9000811F42FE09C088E790E041FE02C088E52D
:103DA00090E0B7010E94811FC91408F48AC0CA9428
:103DB000D12C9FEFC91AD90ACA0CDB1CF6018291DB
:103DC0006F01B70190E00E94811FAC14BD04B1F7F0
:103DD0004FCF60817181072E000C880B990B0E5F0D
:103DE0001F4F92CFD32CE894D4F82AE030E08537E7
:103DF00039F1232D297FD22E8F3601F148F48835F1
:103E0000A9F0F701868197812B96E2E10C942B2093
:103E1000803749F08837A9F7D4FE02C06894D2F8F9
:103E200020E130E00DC06894D4F8F6CF34FE03C032
:103E3000822F8660D82E20E132E002C028E030E0F8
:103E4000F801D7FE0FC060817181828193810C5F80
:103E50001F4FA5010E94B11FC82ECA183D2CE8941F
:103E600037F867CF6081718190E080E00E5F1F4F6F
:103E7000F0CF42FC02C0839478CF8394839475CFB3
:103E8000842D867809F471CFF6CFB70180E290E0F7
:103E90000E94811F83948214C0F3512C73CF522C43
:103EA0005818821408F46ECFF8CF842D867809F460
:103EB0007BCF8BE241FE80E247FC8DE2B70190E0D0
:103EC00071CFB70180E390E00E94811F9A946CCF7C
:103ED0008FEF9FEF99CFFC0105906150704001106A
:103EE000D8F7809590958E0F9F1F0895FC01615023
:103EF000704001900110D8F7809590958E0F9F1F0C
:103F000008950F931F93CF93DF93182F092FEB0181
:103F10008B8181FD09C01FEF0FEF812F902FDF9163
:103F2000CF911F910F91089582FF14C02E813F8180
:103F30008C819D81281739073CF4E881F981CF01F4
:103F400001969983888310838E819F8101969F8338
:103F50008E83E3CFE885F985812F0995892BA1F31D
:103F6000DACFFA01AA27283051F1203181F1E89403
:103F70006F936E7F6E5F7F4F8F4F9F4FAF4FB1E05C
:103F80003ED0B4E03CD0670F781F891F9A1FA11D57
:103F9000680F791F8A1F911DA11D6A0F711D811D58
:103FA000911DA11D20D009F468943F912AE0269F1D
:103FB00011243019305D3193DEF6CF010895462F7C
:103FC0004770405D4193B3E00FD0C9F7F6CF462F5D
:103FD0004F70405D4A3318F0495D31FD40524193C6
:103FE00002D0A9F7EACFB4E0A69597958795779583
:103FF0006795BA95C9F700976105710508959B010A
:10400000AC010A2E06945795479537952795BA9592
:10401000C9F7620F731F841F951FA01D08952F926B
:104020003F924F925F926F927F928F929F92AF9248
:10403000BF92CF92DF92EF92FF920F931F93CF9395
:10404000DF93CDB7DEB7CA1BDB0B0FB6F894DEBF2C
:104050000FBECDBF09942A88398848885F846E8452
:104060007D848C849B84AA84B984C884DF80EE809C
:10407000FD800C811B81AA81B981CE0FD11D0FB6A5
:10408000F894DEBF0FBECDBFED010895F894FFCFC9
:10409000010401802500000300000000000100036E
:1040A00000010002000300040050616E656C0043D3
:1040B000757272656E7400436F6E74726F6C004C33
:1040C000434400536C6F7753656E736F7273005483
:1040D000656C656D657472790039003600330030A7
:1040E000003B003800350032003A00370034003120
:1040F000005241573D25750D0A00256C640053455B
:1041000054252D346420414354252D346425630007
:104110002532642525202532642E25644120253250
:1041200064562025326443002121205452495050C6
:104130004544202121202020002154524950204371
:104140004F44453D256400244D442C53503D256487
:104150002C52503D25642C443D25642C493D25645A
:104160002C563D25752C543D25642C4449523D2543
:10417000632C53543D25732C54523D25642C4932F5
:10418000543D25642C52483D256C752C53433D25E8
:1041900064002A253032580D0A00214556542C005F
:1041A00020090D0A005354415455530052554E00F6
:1041B00053544152542C52454D4F54450053544F83
:1041C000502C52454D4F54450052455600524556CD
:1041D000455253452C52454D4F544500535045458B
:1041E000443D25642C2564004449523F0044495213
:1041F0003D2563004346473F004346473D25642C29
:1042000025642C25642C25642C25642C25642C2500
:10421000642C25642C25642C25642C25642C2564B1
:1042200000534554004D415852504D004D494E5297
:10423000504D00414343454C00444543454C0044E8
:1042400045414454494D45004B50004B49005241B3
:104250005445440053484F5254004F56455254451C
:104260004D500041434B2C4F4B0041434B2C52458A
:1042700046555345442C41435449564500545249F0
:10428000503F00545249503D25642C257300545230
:104290004950533F00484F5552533F00484F5552E5
:1042A000533D2530326C753A2530326C752C5343B2
:1042B0003D25640054554E453F0054554E453D251F
:1042C000642C25642C256C642C25640053415645D0
:1042D00000534156452C4F4B0048454C50003E2062
:1042E00000545249502C25732C493D25752C4932D8
:1042F000543D257500554E4B4E00494E49540053D0
:10430000545254005244574E0044454144004252D6
:104310004B00434F415354005452495000455354AD
:104320004F5000CA02EE02CF027C01D402D902DE55
:1043300002E202E802ED024255533D2575204C4948
:104340004D3D25750D0A00554E4B4E4F574E004EB4
:104350004F4E45004F5645524C4F414400554E4438
:104360004552564F4C54004F564552564F4C5400F0
:104370005354414C4C004F56455253504545440010
:104380004E4F464545444241434B001F03ED022436
:104390000224032A022D033703400346035003007F
:00000001FF
