:100000000C942A000C949A010C946F010C944700F4
:100010000C9447000C9447000C9447000C94470044
:100020000C9447000C9447000C9435040C94470042
:100030000C9447000C94FC060C9440070C94470069
:100040000C9447000C9447000C9447000C94470014
:100050000C94470011241FBECFE5D8E0DEBFCDBF12
:1000600016E0A0E6B0E0E8EEFAE402C005900D92DA
:10007000AE3EB107D9F72AE0AEEEB6E001C01D9260
:10008000AB30B207E1F70E942F200C9472250C943C
:1000900000000E94F3110E94831282309105E1F169
:1000A00030F5019781F10E941F1960E083309105BE
:1000B00031F08230910511F00497C1F561E081E0E3
:1000C0000E9495120E944719882399F181E00E94AD
:1000D000AD120E9436190E94B5120E948C129091A6
:1000E000BA09882341F19E7F9093BA09089583301D
:1000F0009105A9F00497B9F60E94A4198111D3CFF4
:1001000081EE90E006C00E9453198111CCCF8FEC94
:1001100090E00E943713C7CF0E947119C4CF0E948C
:1001200080198111C0CF89ED90E0F3CF60E080E0CD
:10013000C7CF80E0CCCF9160D7CFCF93DF930E9421
:100140004508C0EAD9E09E878D870E9464088F87A2
:10015000DF91CF91089580EA99E00C94BC170C943C
:100160009910CF93DF930E940108EC019093AC09A2
:100170008093AB096091E9097091EA090E94561CCD
:100180008091EB099091EC09C817D90760F082E0E3
:1001900090E00E94BC1A60EA79E082E090E0DF9192
:1001A000CF910C94F417DF91CF910895CF93DF9303
:1001B0000E94D1190E947C110E9491119093A5096F
:1001C0008093A4098091BA0980FF2FC08091A00973
:1001D0009091A109BC0189EC99E00E94301D89EC45
:1001E00099E00E94541D9093A3098093A209209145
:1001F000A4093091A509821B930B9093A7098093C2
:10020000A60968ED79E080EA99E00E94981BEC016C
:10021000009791F00E94BC1A0E94850E60EA79E076
:10022000CE01DF91CF910C94F4170E94E2079093D6
:10023000A1098093A009CECF0E943B19882341F1E8
:100240004091A4095091A5096091A2097091A30958
:100250008FE899E00E94001B9C013093A90920932C
:10026000A80944E6429FC001439F900D11246FE806
:1002700071E00E94A7216093AA09C9010E945C0E47
:100280008091B4099091B509DF91CF910C943B0E08
:100290008FE899E00E94631B30E020E0DECFCF932F
:1002A000DF930E94D61CEC010E944719882361F05D
:1002B0008091EF068C171D0679F0C093EF06CE01F2
:1002C000DF91CF910C94B50D1092EF0680EA99E082
:1002D000DF91CF910C94250DDF91CF9108951F925E
:1002E0000F920FB60F9211242F933F934F935F936A
:1002F0006F937F938F939F93AF93BF93EF93FF93EE
:1003000090E080E00E949A04C198C09881E08093B8
:10031000EE06FF91EF91BF91AF919F918F917F91E9
:100320006F915F914F913F912F910F900FBE0F9062
:100330001F9018951F920F920FB60F9211242F93B2
:100340003F934F935F936F937F938F939F93AF935D
:10035000BF93EF93FF930E946011FF91EF91BF91C4
:10036000AF919F918F917F916F915F914F913F914D
:100370002F910F900FBE0F901F901895CF92DF9284
:10038000EF92FF920F931F93CF93DF93CDB7DEB71A
:1003900028970FB6F894DEBF0FBECDBF7B018E014C
:1003A0000F5F1F4F97FF1DC091958195910931E017
:1003B000F80120E05AE0C52ED12C2F5FB6010E9433
:1003C000BB21805D8193CB01009711F02730A9F705
:1003D000332361F0F801E20FF11D8DE280832F5F7E
:1003E00005C0009759F580E3898321E0622F70E012
:1003F000C801860F971FD70108171907B9F4FB0129
:10040000EE0DFF1D80E22417B0F01082822F289697
:100410000FB6F894DEBF0FBECDBFDF91CF911F9115
:100420000F91FF90EF90DF90CF900895FC013291F3
:10043000CF013D93E1CF2F5F8193E5CF30E0B8CF7F
:10044000CF92DF92EF92FF920F931F93CF93DF93A0
:10045000CDB7DEB728970FB6F894DEBF0FBECDBF7D
:10046000FB018E010F5F1F4F009711F580E3898319
:1004700021E0622F70E0C801860F971F7F0180176F
:10048000910749F5E60FF71F80E2241758F1108213
:10049000822F28960FB6F894DEBF0FBECDBFDF9136
:1004A000CF911F910F91FF90EF90DF90CF90089523
:1004B000780120E03AE0C32ED12C2F5FB6010E94D4
:1004C000A721805DD7018D937D01CB01009789F233
:1004D000273099F7CECFDC013E91CD01D7013D9376
:1004E0007D01CDCF2F5F8193D0CFFC010190002003
:1004F000E9F73197E81BF90BE80FF92FF11D30E20E
:100500002E2F281B261710F0108208953193F8CF54
:10051000EF92FF920F931F93CF93DF93CDB7DEB788
:1005200028970FB6F894DEBF0FBECDBF9B016AE0DF
:1005300070E00E94A721482FCB010097C1F580E30E
:100540008983E1E0A1E0B0E0AC0FBD1FAE0FB11DAB
:100550008EE28C9382E08E0FEF5F61E070E06C0FB3
:100560007D1F6E0F711DFB01405D4083482F50E0E1
:10057000E1E0F0E0EC0FFD1FE40FF51F622FD90161
:1005800092919D939A2F961B9817D0F3240F351FA5
:10059000D9011C9228960FB6F894DEBF0FBECDBFCE
:1005A000DF91CF911F910F91FF90EF9008958E01F1
:1005B0000F5F1F4FE0E05AE0E52EF12CEF5FB7012F
:1005C0000E94A721805DD8018D938D01CB010097FA
:1005D00009F4B8CFE63091F7B5CF8430E0F4683055
:1005E000D0F4E82FF0E0EE0FFF1FEF57FF4F019020
:1005F000F081E02D81E090E001C0880F6A95EAF774
:100600009081413029F4892B808390E080E0089527
:1006100080958923F9CF81E090E008958430D8F463
:100620006830C8F441155105B1F0E82FF0E0EE0F45
:10063000FF1FEF58FF4F0190F081E02D808190E087
:1006400002C0959587956A95E2F78170FA018083DB
:1006500090E080E0089581E090E00895843090F487
:100660006115710579F0E82FF0E0EE0FFF1FEF58EC
:10067000FF4F0190F081E02D8081FB01808390E0AD
:1006800080E0089581E090E008958430E0F46830DF
:10069000D0F4E82FF0E0EE0FFF1FE758FF4F019076
:1006A000F081E02D81E090E001C0880F6A95EAF7C3
:1006B0009081413029F4892B808390E080E0089577
:1006C00080958923F9CF81E090E008950C9445034B
:1006D000CF93DF931F92CDB7DEB71982AE014F5F84
:1006E0005F4F0E940E0389810F90DF91CF91089593
:1006F0008430B8F46830A8F4E82FF0E0EE0FFF1F64
:10070000E758FF4F0190F081E02D808121E030E03B
:1007100001C0220F6A95EAF78227808390E080E08B
:10072000089581E090E0089591E0411101C090E0CA
:10073000492F0C944503892B71F03E9A3F983D98C0
:10074000389839983A983B983098319A329A379A33
:1007500090E080E0089581E090E00895883080F492
:10076000389839983A983B9880FD389A81FD399AA3
:100770008695869509F03A9A369A90E080E0089539
:1007800081E090E00895009759F034B125B1232716
:1007900032272327FC013183208390E080E00895F5
:1007A00081E090E0089586B1829586958695837064
:1007B000809581700895CF93DF93EB010E94AE0383
:1007C000009749F40E94D3038823E1F3CE01DF911F
:1007D000CF910C94C303DF91CF910895379890E0A7
:1007E00080E0089583B78F7B83BF83B7886083BF22
:1007F00012BE89EF8CBF83B78B7F83BF83B78260C4
:1008000083BF83B7816083BF89B7826089BF90E06F
:1008100080E00895892B51F489B791E0672B09F0A6
:1008200092E0892B89BF90E080E0089581E090E01C
:100830000895892B51F489B79EEF672B09F09DEF3E
:10084000892389BF90E080E0089581E090E00895D9
:100850004115510539F05093F5064093F40690E0A8
:1008600080E0089581E090E008951F920F920FB606
:100870000F9211242F933F934F935F936F937F9326
:100880008F939F93AF93BF93EF93FF938091F00665
:100890009091F106A091F206B091F3060196A11D88
:1008A000B11D8093F0069093F106A093F206B093E9
:1008B000F306E091F406F091F506309709F00995FA
:1008C000FF91EF91BF91AF919F918F917F916F9128
:1008D0005F914F913F912F910F900FBE0F901F90FE
:1008E00018958FB58E7F8FBD8FB582608FBD8EB509
:1008F00088608EBD8EB580618EBD8FB58F7B8FBDBC
:100900008FB580688FBD1DBC1CBC8FE891E097BD82
:1009100086BD8EB58B7F8EBD8EB58D7F8EBD8EB51F
:1009200081608EBD41E065E083E00E94ED0290E0D1
:1009300080E0089585369105A8F4009729F41BBC42
:100940001ABC90E080E008959C01AFE8B1E00E94FD
:100950001E2224E630E040E050E00E94CF213BBD63
:100960002ABDEFCF81E090E0089585B58F7B85BDEE
:1009700085B5886085BD14BC85B5846085BD85B5A9
:100980008D7F85BD85B5816085BD85B58F7D85BD34
:1009900085B5806185BD41E067E083E00E94ED029E
:1009A00090E080E008958F3F910509F020F483BD29
:1009B00090E080E0089581E090E0089578940895B3
:1009C000F89408952FB7F8946091F0067091F106AD
:1009D0008091F2069091F3062FBF08958330910520
:1009E00088F48130910541F0029749F08BB780641B
:1009F0008BBF90E080E008958BB78068F9CF8BB70C
:100A00008062F6CF81E090E008958330910588F40C
:100A10008130910541F0029749F08BB78F7B8BBFF6
:100A200090E080E008958BB78F77F9CF8BB78F7DFB
:100A3000F6CF81E090E0089583309105A8F48130ED
:100A4000910509F10297C1F185B78E7F85BF85B702
:100A50008D7F85BF6130710551F060F062307105A6
:100A600079F06330710549F081E090E0089585B731
:100A7000816085BF90E080E0089585B7816085BF83
:100A800085B78260F6CF85B78B7F85BF85B7877FB7
:100A900085BF6130710569F068F36230710531F02E
:100AA0006330710509F785B7846085BF85B78860B5
:100AB000E0CF85B78460DDCF6230710531F06330FF
:100AC000710591F684B7806402C084B78F7B84BFC0
:100AD000D1CFCF93DF93EC01892B99F08881998155
:100AE0008330910570F46A817B810E941C05009718
:100AF00051F4888199818130910589F038F002970D
:100B000089F081E090E0DF91CF9108958AB7806409
:100B10008ABF88819981DF91CF910C94EE048AB7C6
:100B20008068F6CF8AB78062F3CF039730F481E014
:100B300090E0672B21F080E0089581E090E0089537
:100B40008FB780688FBF08958FB78F778FBF089555
:100B50004091FA065091FB062091F8063091F90673
:100B600042175307A9F3E091F806F091F906E45013
:100B7000F94F2081FC0120838091F8069091F906BD
:100B800001968F7199279093F9068093F80690E06B
:100B900080E00895CF93DF93EC01892B09F44DC0D9
:100BA00088819981AA81BB810097A105B10509F4CB
:100BB00044C09C01AD0184E0220F331F441F551F28
:100BC0008A95D1F760E074E284EF90E00E94CF2133
:100BD0002150310929B9832F8F7009F080BD8E8192
:100BE000829580739885990F990F990F9870892B2A
:100BF00080689C81990F9670892B80BD8C819D8126
:100C00000797C9F4529A539A549A579A10921F0709
:100C100010921E0710921D0710921C071092FB06DF
:100C20001092FA061092F9061092F80690E080E011
:100C3000DF91CF9108955298E6CF81E090E0F8CF10
:100C4000539854985798569855981092F7061092C2
:100C5000F60690E080E0089520911E0730911F076E
:100C60002F5F3F4F332741E45DE063E070E0E091A8
:100C70001C07F0911D07E217F30779F0E0911E07BA
:100C8000F0911F07E05EF84F808330931F07209399
:100C90001E07559A90E080E008954150510961097E
:100CA000710929F781E090E00895009711F00C9404
:100CB000A80581E090E00895009711F14091FA06AF
:100CC0005091FB062091F8063091F9064217530720
:100CD000B9F0E091F806F091F906E450F94F20815F
:100CE000FC0120838091F8069091F90601968F719E
:100CF00099279093F9068093F80690E080E0089594
:100D000081E090E00895CF93DF93EC01892B29F4E3
:100D100081E090E007C00E942C0689918111FBCFF1
:100D200090E080E0DF91CF9108959F92AF92BF92C3
:100D3000CF92DF92EF92FF920F931F93CF93DF93A7
:100D40001F92CDB7DEB71982009779F481E090E069
:100D50000F90DF91CF911F910F91FF90EF90DF9057
:100D6000CF90BF90AF909F9008956115710571F37A
:100D7000942E6C015C0110E000E07B0181E0E81A38
:100D8000F1080E151F0548F4CE0101960E94A80532
:100D9000892BE1F68981891107C00C0D1D1DF80111
:100DA000108290E080E0D4CFF50181935F010F5F66
:100DB0001F4FE7CF009741F09093F7068093F60618
:100DC000579A90E080E0089581E090E008952091A6
:100DD0001E0730911F0780911C0790911D0728174F
:100DE000390719F490E080E0089582E090E00895DA
:100DF0000C942C060C9483061F920F920FB60F9240
:100E000011242F933F934F935F936F937F938F930F
:100E10009F93AF93BF93EF93FF938CB12091FA060A
:100E20003091FB062F5F3F4F2F7133274091F8061B
:100E30005091F9064217530759F0E091FA06F091E4
:100E4000FB06E450F94F80833093FB062093FA06AB
:100E5000E091F606F091F706309709F00995FF91B9
:100E6000EF91BF91AF919F918F917F916F915F9122
:100E70004F913F912F910F900FBE0F901F9018959B
:100E80001F920F920FB60F9211242F933F938F93BF
:100E90009F93EF93FF9320911E0730911F0780913E
:100EA0001C0790911D0728173907E9F0E0911C07EE
:100EB000F0911D07E05EF84F208180911C07909112
:100EC0001D070196992790931D0780931C072CB945
:100ED000FF91EF919F918F913F912F910F900FBEB6
:100EE0000F901F9018955598F3CF88E480B9089813
:100EF000099886B7846086BF90E080E008950C94DE
:100F0000750784EA86BF90E080E006B607FE08C059
:100F100021B1287F81E090E0283049F480E00895F5
:100F20000196813127E2920781F781E090E00895F0
:100F300084E986BF90E080E0089583B984E886BFA5
:100F400090E080E006B607FE0CC021B1287F283172
:100F500081F0283271F081E090E0203449F480E0A3
:100F600008950196813127E2920761F781E090E0D0
:100F7000089580E0FCCFCF93DF93D82FC62F0E9437
:100F80008107009741F48D2F880FC1708C2BDF9162
:100F9000CF910C949D07DF91CF9108950C949D07FC
:100FA000CF93DF9300D0CDB7DEB781E0898387E0B0
:100FB0008A83CE0101960E949B030F900F90DF91D0
:100FC000CF910895CF93DF9300D0CDB7DEB71A82CB
:100FD0001982BE016F5F7F4F80E00E94DB03298191
:100FE0003A81A8EBBBE00E941E222FEF33E040E0E5
:100FF00050E00E94CF21C9010F900F90DF91CF9157
:1010000008950F931F93CF93DF93CDB7DEB7A097CB
:101010000FB6F894DEBF0FBECDBF18A21F8EBE0163
:10102000615E7F4F81E00E94DB0388A18F938F8DEB
:101030008F938BE891E09F938F938E010F5F1F4FEB
:101040001F930F930E949A22C8010E9483062F8D3E
:1010500038A1A0E2BEE40E941E220F900F900F90D4
:101060000F900F900F902FEF33E040E050E00E9480
:10107000CF21C901A0960FB6F894DEBF0FBECDBF39
:10108000DF91CF911F910F910895CF93DF9300D0FF
:10109000CDB7DEB71A821982BE016F5F7F4F82E043
:1010A0000E94DB0329813A81A0E6BAEE0E941E224B
:1010B0002FEF33E040E050E00E94CF21C9010F90B4
:1010C0000F90DF91CF910895CF93DF9300D0CDB7EC
:1010D000DEB71A821982BE016F5F7F4F83E00E94E4
:1010E000DB0329813A81A6E9B0E00E941E222FEF9E
:1010F00033E040E050E00E94CF21822F0F900F900C
:10110000DF91CF9108951092230810922208109237
:101110002108109220080C94B50490932308809322
:10112000220810922108109220088130910551F078
:1011300028F0049750F081E090E0089590E080E07E
:101140000C94D30486E990E0FBCF8CE390E0F8CFD9
:101150008091220890912308009759F183309105DE
:1011600041F14AE050E08130910511F442E350E052
:1011700020912008309121082F5F3F4F2417350719
:1011800028F4309321082093200808951092210814
:101190001092200820916000222361F090E080E00E
:1011A0000E94D30481E090916000911180E08093CF
:1011B00060000895019719F08CE390E0F1CF86E983
:1011C00090E0EECFDB01FA0182309105A1F028F426
:1011D000019761F01C92108208958330910579F097
:1011E0000497C1F783E08C9387E003C081E08C9380
:1011F00083E08083089583E08C9385E0FACF83E0D9
:101200008C9384E0F6CF8230910561F018F4019759
:1012100039F008958330910549F0049759F0089505
:101220006CBF089570E07BBD6ABD089570E079BD24
:1012300068BD089563BD0895EF92FF921F93CF9309
:10124000DF93EC017B01CB01019710E040E083309C
:10125000910540F4FC01E457FF4F4081FC01E75742
:10126000FF4F10812885222329F0029718F4842F3C
:10127000412F182F698188810E946603412F6B815D
:101280008A810E946603FC86EB86DF91CF911F91D5
:10129000FF90EF9008958230910591F018F4019736
:1012A00039F008958330910599F00497C1F00895BD
:1012B00083B7662319F0806283BF08958F7DFCCFCA
:1012C0008FB5662319F080688FBD08958F77FCCFA6
:1012D0008FB5662311F08062F7CF8F7DF5CF85B58E
:1012E000662319F0806285BD08958F7DFCCF0F9332
:1012F0001F93CF93DF9300D0CDB7DEB78C011A8256
:101300001982FC0186819781009789F441E08285EA
:10131000811101C040E0F801658184810E9466036B
:101320000F900F90DF91CF911F910F910895AE0113
:101330004F5F5F4FBE016E5F7F4F0E94E208F80172
:10134000828526813781811108C060E0C9010E9431
:101350004B0940E069818A81E1CFFFEF8F9FC00197
:10136000112464E670E00E94A721C9010E940309CC
:1013700061E0F801868197810E944B09D1CF0F93DC
:101380001F93CF93DF9300D0CDB7DEB7FC011A8255
:101390001982892B49F481E090E00F900F90DF9142
:1013A000CF911F910F91089580818430A0F7928191
:1013B000943088F7268137812530310560F78F0119
:1013C00041E061810E94ED0241E0F8016381828188
:1013D0000E94ED0240E0F801618180810E94660375
:1013E00040E0F801638182810E946603F8018681F2
:1013F00097810097E1F48481843068F641E065814B
:101400000E94ED0240E0F801658184810E9466033C
:10141000F801128681E0818770E060E0C8010E94D7
:101420001C09C8010E94770990E080E0B6CFAE01A8
:101430004F5F5F4FBE016E5F7F4F0E94E20841E049
:1014400069818A810E94ED0240E069818A810E945F
:101450006603F801868197818430910560F48230BB
:10146000910598F4019769F060E0F8018681978111
:101470000E944B09CDCF0497B9F78CE485BD13BC0E
:10148000F3CF8BE483BF1CBEEFCF8FB581608FBDE0
:101490008EB588608EBD8EB582608EBD8EB5816042
:1014A0008EBDE2CF009771F0FC012185222351F01F
:1014B000653608F064E6FC0162870E94770990E0D7
:1014C00080E0089581E090E00895CF93DF93009746
:1014D00089F0FC012185222369F0EC0161E070E0D4
:1014E0000E941C09CE010E94770990E080E0DF9104
:1014F000CF91089581E090E0FACFCF93DF930097EA
:1015000089F0FC012185222369F0EC0162E070E0A2
:101510000E941C09CE010E94770990E080E0DF91D3
:10152000CF91089581E090E0FACF009769F0FC0137
:101530002185222349F06230710530F4672B11F4C4
:101540000C94650A0C947D0A81E090E008950F9355
:101550001F93CF93DF9300D0CDB7DEB71A821982E5
:10156000009771F1FC012185222351F18C0170E07B
:1015700060E00E941C09F80186819781009771F450
:1015800040E0658184810E94660390E080E00F90D6
:101590000F90DF91CF911F910F910895AE014F5F92
:1015A0005F4FBE016E5F7F4F0E94E20860E0F8016E
:1015B000868197810E944B0940E069818A81E3CF4F
:1015C00081E090E0E4CFCF93DF93009701F1FC013D
:1015D00021852223E1F0EC0163E070E00E941C0908
:1015E0008E819F81009751F441E06D818C810E9432
:1015F000660390E080E0DF91CF9108956FEF0E9445
:10160000030961E08E819F810E944B09F2CF81E046
:1016100090E0F1CF009779F0FC012185222359F069
:101620006115710541F083859485FB019183808369
:1016300090E080E0089581E090E00895009769F0DF
:10164000FC012185222349F06115710531F0828565
:10165000FB01808390E080E0089581E090E00895B0
:101660000F931F93CF93DF9300D0CDB7DEB71A82CD
:101670001982009789F1FC012185222369F18C01EF
:101680000E94A70AF801868197810097C9F0AE01F0
:101690004F5F5F4FBE016E5F7F4F0E94E20860E0C8
:1016A000F801868197810E944B0960E0F8018681EC
:1016B00097810E94030940E069818A810E94660344
:1016C000F8011286118690E080E00F900F90DF9174
:1016D000CF911F910F91089581E090E0F6CF81E0C6
:1016E0008093FE091092FF098093000A8093010AFB
:1016F00021E030E03093050A2093040A8093020A27
:1017000083E08093030A1092060A8EEF99E00E940C
:10171000BF09892B49F46BE48EEF99E00E94520ACD
:101720008EEF99E00C94650A0895CF93DF930097AC
:1017300031F4C1E0D0E0CE01DF91CF910895C62F02
:1017400060E0FC0180810E94BB07892B91F780E05B
:101750000E94CE07892B19F00E949807EACF8C2FA0
:101760000E94CE07EC01892BB9F70E949807E3CFBE
:10177000CF93DF93009731F4C1E0D0E0CE01DF9149
:10178000CF910895C62F60E0FC0180810E94BB07C5
:10179000892B91F780E40E94CE07892B19F00E94D3
:1017A0009807EACF8C2F0E94CE07EC01892BB9F75E
:1017B0000E949807E3CF0F931F93CF93DF93009777
:1017C00041F401E010E0C801DF91CF911F910F912A
:1017D000089561157105A9F3EB0160E0FC018081BA
:1017E0000E94BB07892B69F780E40E94CE078C0119
:1017F000892B51F48991811103C00E949807E3CF8E
:101800000E94CE07892BB1F30E949807DACFCF93BD
:10181000DF9300D0CDB7DEB7198220E42A8300978A
:1018200099F0FC012181621778F42281421760F45B
:10183000FE01E60FF11D6181640F60680F900F904B
:10184000DF91CF910C94950B81E090E00F900F9079
:10185000DF91CF9108950F931F93CF93DF93EC0106
:1018600089010E94070C892B41F4B801CE01DF9158
:10187000CF911F910F910C94DB0B81E090E0DF91F1
:10188000CF911F910F910895EF92FF920F931F93A5
:10189000CF93DF93CDB7DEB72C970FB6F894DEBFAA
:1018A0000FBECDBF7C017F936F935F934F9384E90D
:1018B00091E09F938F938E010F5F1F4F1F930F93A4
:1018C0000E949A22B801C7010E94DB0B0FB6F89460
:1018D000DEBF0FBECDBF2C960FB6F894DEBF0FBE95
:1018E000CDBFDF91CF911F910F91FF90EF900895A1
:1018F00061E00C94950B62E00C94950B9C01909127
:101900006100662349F094609093610060916100EA
:101910006860C9010C94950B9B7FF6CF9C01909158
:101920006100662349F092609093610060916100CC
:101930006860C9010C94950B9D7FF6CF9C01909136
:101940006100662349F091609093610060916100AD
:101950006860C9010C94950B9E7FF6CF662319F041
:101960006CE10C94950B68E1FCCFEF92FF920F9322
:101970001F93CF93DF93009759F14115510541F122
:10198000683030F58A01EC0188E0689FB0011124CD
:101990006064CE010E94950B892BD1F47801E8E0B8
:1019A000EE0EF11CF80161918F01CE010E94B80B7F
:1019B000892B71F40E151F05A9F740E060E0CE01F8
:1019C000DF91CF911F910F91FF90EF900C94070C36
:1019D00081E090E0DF91CF911F910F91FF90EF9008
:1019E0000895CF93DF93009729F481E090E0DF9191
:1019F000CF910895EC0168E30E94950B892BA9F71C
:101A000084E0809361006CE0CE010E94950B892BED
:101A100061F7CE010E94780C892B39F766E0CE0180
:101A20000E94950B31E020E0892B09F430E0832FF0
:101A3000922FDDCFE7E2F8E08EE3808382E08183BE
:101A400080E18283CF010C94F10CEF92FF920F930F
:101A50001F93CF93DF93CDB7DEB7A6970FB6F89459
:101A6000DEBF0FBECDBFFC0181E090E0309709F4EE
:101A70006BC0848995898130910509F474C00297FF
:101A800009F06FC092E58F011F929F9385818F931C
:101A900084818F9383818F9382818F9388E991E0F2
:101AA0009F938F937E0186E1E80EF11CFF92EF92E7
:101AB0000E949A22D8011B96ED91FC911C971F96CB
:101AC0008C911F971F928F931D968D919C9128EE5C
:101AD00033E0B9010E94A7217F936F93CF0164E6A1
:101AE00070E00E94A721CB016AE070E00E94A7216C
:101AF0009F938F93CF01B9010E94A7217F936F938A
:101B0000F80182851F928F938AEA91E09F938F93C9
:101B10008E010F5F1F4F1F930F930E949A22970110
:101B200040E060E087E298E00E942B0C980140E0E2
:101B300061E087E298E00E942B0C0FB6F894DEBFBC
:101B40000FBECDBF90E080E0A6960FB6F894DEBF42
:101B50000FBECDBFDF91CF911F910F91FF90EF90FE
:101B600008959DE290CF96E48ECF0F931F93CF936D
:101B7000DF93CDB7DEB761970FB6F894DEBF0FBE27
:101B8000CDBF182F092F8091250890912608019626
:101B900086309105B8F5909326088093250822ECAD
:101BA00031E040E060E087E298E00E942B0C8091F9
:101BB0002408882399F10F931F9383ED91E09F935D
:101BC0008F938E010F5F1F4F1F930F930E949A22D6
:101BD000980140E061E087E298E00E942B0C0F90B2
:101BE0000F900F900F900F900F9090E080E0619613
:101BF0000FB6F894DEBF0FBECDBFDF91CF911F911E
:101C00000F910895109226081092250881E0909176
:101C10002408911180E080932408C1CF80EA99E0E4
:101C20000E94250DE2CF80912A08811121C041E058
:101C300060E081E00E94ED0241E061E081E00E940D
:101C4000ED0240E060E081E00E94660340E061E078
:101C500081E00E9466030E94710490E080E00E948F
:101C60009A0410922C0810922B0881E080932A0885
:101C700090E080E008958130910549F00297A1F04D
:101C800040E060E081E00E94660340E013C040E075
:101C900061E081E00E94660341E060E081E00E9433
:101CA000660390E080E0089540E060E081E00E94FB
:101CB000660341E061E0F2CF20912B0830912C08BF
:101CC000232B29F41BBC1ABC90E080E008959C01F2
:101CD000203981E0380710F02FE831E03BBD2ABD04
:101CE000F3CF81E090E090932C0880932B0890E054
:101CF00080E0089510922C0810922B0890E080E06C
:101D00000E949A0490E080E0089590E080E00E94B4
:101D10009A0440E060E081E00E94660340E061E0F8
:101D200081E00E94660310922C0810922B080895FF
:101D300080912B080895009741F0029769F0637035
:101D4000E62FF0E0E956FF4F05C06370E62FF0E0A4
:101D5000E556FF4F808108956770E62FF0E0E15768
:101D6000FF4FF8CF1F93CF93DF93EC01162F462F31
:101D70004170698188810E94660311FB442740F904
:101D80006B818A810E94660312FB442740F96D81B2
:101D90008C810E94660313FB442740F96F818E817A
:101DA0000E94660381E0111101C080E08D8BDF91FC
:101DB000CF911F910895CF93DF93009709F44BC003
:101DC000FC0127853089232B09F445C0EC0141E053
:101DD000618180810E94ED0241E06B818A810E94D5
:101DE000ED0241E06D818C810E94ED0241E06F8146
:101DF0008E810E94ED028C858823A1F041E06985E7
:101E000088850E94ED0241E06B858A850E94ED0283
:101E100041E0698588850E94660341E06B858A857B
:101E20000E94660389899A89892B21F481E090E0D8
:101E30009A8B898B1C8A1E8A1F8A188E198E1D8A7E
:101E400060E0CE010E94B20E81E08B8B90E080E0DA
:101E5000DF91CF91089581E090E0FACFFC01892BCA
:101E600061F08389882349F06330710530F4768707
:101E70006587148A90E080E0089581E090E00895FD
:101E8000009779F0FC012389222359F0611571052F
:101E900011F461E070E0FC01728B618B90E080E0F6
:101EA000089581E090E00895CF93DF93EC01892BB2
:101EB00049F18B89882331F16115710519F12F855D
:101EC000388950E040E08D859E85029721F4220FED
:101ED000331F441F551FDB010E9434229B01AC01BC
:101EE00060E67AEE80E090E00E94CF212115310576
:101EF0004105510539F03A8B298B90E080E0DF9164
:101F0000CF91089581E090E0FACFCF92DF92EF92E7
:101F1000FF92CF93DF93EC01AB01892B09F440C012
:101F20008B898823E9F162307105D0F52D853E85D6
:101F300064E02230310509F468E08C8970E0CE88D5
:101F4000DF88E88CF98C90E0452BF1F401960E9433
:101F5000A7218C8B8FEFC81AD80AE80AF80ACE8A14
:101F6000DF8AE88EF98E6C89C9010E949B0E682F6A
:101F7000CE010E94B20E90E080E0DF91CF91FF9001
:101F8000EF90DF90CF900895860F971F01970E94E2
:101F9000A7218C8B81E0C81AD108E108F108DFCFB6
:101FA00081E090E0EACF4F925F926F927F928F92A2
:101FB0009F92AF92BF92CF92DF92EF92FF920F93D8
:101FC0001F93CF93DF93009709F43EC0FC01238950
:101FD0002223D1F142305105B8F53A012B01EC0131
:101FE00010E000E04016510699F490E080E0DF91A7
:101FF000CF911F910F91FF90EF90DF90CF90BF9006
:10200000AF909F908F907F906F905F904F900895CA
:10201000B301CE010E94850FC988DA880E94E204CC
:102020004B015C01F12CE12C0E94E2046819790952
:102030008A099B096C157D058E059F0518F00F5FB9
:102040001F4FD0CFA895F0CF81E090E0D0CF0F9375
:102050001F93CF93DF93EC018A01892B09F18B89C0
:102060008823F1F02F85388950E040E08D859E85EA
:10207000029721F4220F331F441F551FDB010E94DA
:10208000342228E631E040E050E00E94CF21B9013F
:10209000A801CE01DF91CF911F910F910C94D30F26
:1020A00081E090E0DF91CF911F910F9108950F9300
:1020B0001F93CF93DF930097C9F1FC01238922235B
:1020C000A9F16115710591F1EDE2F8E030E020E051
:1020D000A285A11125C08C018BE0829FE001839F26
:1020E000D00D1124C35DD74F198308837B836A8386
:1020F0005D834C830E94E204F80121893289620FDA
:10210000731F811D911D6E837F838887998781E06E
:102110008A8790E080E0DF91CF911F910F91089521
:102120002F5F3F4F3B962430310591F681E090E0E0
:10213000F2CF0F931F93CF93DF93CDE2D8E08A8540
:10214000882349F10E94E2040E811F812885398588
:102150006017710782079307F0F06C817D81888199
:1021600099810E94850F8A819B8101979B838A8335
:102170000E94E204E881F98121893289620F731F8C
:10218000811D911D6E837F83888799878A819B81BA
:10219000892B09F41A862B9688E0C935D80779F679
:1021A000DF91CF911F910F910895CF93DF93009707
:1021B00001F1FC0123892223E1F0EC0184858823CD
:1021C00051F041E0618580850E94660341E06B85A6
:1021D0008A850E9466036C898D859E850E949B0E70
:1021E000682FCE010E94B20E90E080E0DF91CF9187
:1021F000089581E090E0FACFCF93DF930097D9F074
:10220000FC0123892223B9F0EC0160E00E94B20EA8
:102210008C85882351F040E0698588850E9466039B
:1022200040E06B858A850E9466031D8A90E080E00D
:10223000DF91CF91089581E090E0FACF009799F077
:10224000FC012389222379F06115710561F08689EB
:102250009789A08DB18DFB0180839183A283B38385
:1022600090E080E0089581E090E00895009759F0B3
:10227000FC012389222339F0168A178A108E118EC9
:1022800090E080E0089581E090E00895FC01892BC2
:10229000A1F08389882389F06115710571F0278584
:1022A000308985859685029711F4220F331FFB0133
:1022B0003183208390E080E0089581E090E00895EC
:1022C00080915B0890915C08019690935C088093E4
:1022D0005B08089510925C0810925B0810925A08EF
:1022E0001092590860E671E190E080E00E94950547
:1022F00090E080E00C94EE04F89420915B0830911B
:102300005C0810925C0810925B0878944CE3429F42
:10231000C001439F900D112490935A08809359084F
:1023200008958091590890915A08089540E065E019
:1023300082E00E94ED0240E066E082E00E94ED0251
:1023400040E067E082E00E94ED0240E066E083E06A
:102350000E94ED0240E064E083E00E94ED0241E073
:1023600065E082E00E94940341E066E082E00E9422
:10237000940341E067E082E00E94940341E066E05C
:1023800083E00E94940341E064E083E00E949403B0
:1023900041E063E081E00E94ED0241E062E082E022
:1023A0000E94ED0241E063E082E00E94ED0241E024
:1023B00064E082E00E94ED0240E063E081E00E9480
:1023C000450340E062E082E00E94450340E063E0B4
:1023D00082E00E94450340E064E082E00E94450301
:1023E00090E080E00895EF92FF920F931F93CF93B8
:1023F000DF93CDB7DEB72C970FB6F894DEBF0FBED4
:10240000CDBF65E082E00E946803F82E66E082E0BE
:102410000E946803082F67E082E00E946803182F7B
:1024200066E083E00E94680391E0F11090E09987F4
:1024300091E0011190E09A8791E0111190E09B8763
:1024400091E0811190E09C8788E0EFE9F0E0DE0107
:10245000119601900D928A95E1F740916A0850918A
:102460006B08BE01675F7F4FEEE5EE2EE8E0FE2EC3
:10247000E2E6F8E090E080E0DB012D91BD01D701BC
:102480003D917D012317E1F010828D01015011096A
:10249000D8012C93019631968430910569F75093B9
:1024A0006B0840936A082C960FB6F894DEBF0FBEF7
:1024B000CDBFDF91CF911F910F91FF90EF900895C5
:1024C0002130D1F430813F5F3083353018F38C01F7
:1024D0000A59174FD8013C913111DCCF2C939C0144
:1024E000220F331F41E050E04C0F5D1F240F351FBA
:1024F000D9014D915C91CECF10829C012A59374F62
:10250000D9011C92C7CF80916A0890916B081092F4
:102510006B0810926A08089564E083E00E946803E3
:1025200091E0811190E0892F0895662371F08091E8
:102530005D088F5F8A3018F480935D0808951092CB
:102540005D0863E081E00C94780341E0811101C0F3
:1025500040E063E081E00C94450341E0811101C05B
:1025600040E062E082E00C9445038130910521F067
:10257000029749F040E001C041E063E082E00E9440
:10258000450340E006C040E063E082E00E9445036E
:1025900041E064E082E00C944503009761F0FC01A7
:1025A0002081222341F08191811102C081E00895B0
:1025B00080538A30C0F380E00895CF93C82F81E024
:1025C0008093BF088C2F0E94F806E091BD08C830A8
:1025D00011F0CF3781F4EE2361F1E150E093BD08B3
:1025E000F0E0E358F74F108280E20E94F80688E09E
:1025F000CF910C94F806CD3011F0CA3081F48CE103
:1026000092E0EE2349F0F0E0E358F74F108281E0CA
:102610008093BE0889EC94E0CF910C94FA06EF33D6
:1026200040F481E08E0F8093BD08F0E0E358F74F4F
:10263000C083CF9108950E94FA0689EC94E00C942F
:10264000FA061092BD081092BE0881E08093BF0880
:10265000EDE7F8E080E4DF011D928A95E9F781EE6D
:1026600091E00E941B1384E092E00C941B13CF9323
:10267000DF93EC0181E292E00E94FA06CE010E9413
:10268000FA0689EC94E0DF91CF910C94FA067F92E0
:102690008F929F92AF92BF92CF92DF92EF92FF9272
:1026A0000F931F93CF93DF93CDB7DEB7C058D109F7
:1026B0000FB6F894DEBF0FBECDBF8C01FC0183A026
:1026C00074A0C78CB0A0A1A092A00E94E01CD82E3C
:1026D000F801F08CE18C0E942419F80124893589D5
:1026E0002130310509F470C02230310509F46EC083
:1026F0002DE27F928F929F92AF92BF92CF921F92C4
:10270000DF92EF92FF929F938F931F922F93F80186
:1027100087851F928F9386858F9385858F93848578
:102720008F9383858F9382851F928F9385818F935B
:1027300084818F9383818F9382818F9389E292E04A
:102740009F938F938E010F5F1F4F1F930F930E94D4
:102750009A220FB6F894DEBF0FBECDBF81E020E015
:10276000F801E80FF11D9081911132C0F80101903C
:102770000020E9F7CF011F922F9324E732E03F9327
:102780002F9301979F938F930E949A22C8010E94D2
:10279000FA060F900F900F900F900F900F90C05867
:1027A000DF4F0FB6F894DEBF0FBECDBFDF91CF91E4
:1027B0001F910F91FF90EF90DF90CF90BF90AF905F
:1027C0009F908F907F90089526E493CF22E591CF3C
:1027D00029278F5FC5CFCF93DF93EC018CE792E081
:1027E0000E94FA06CE010E94FA0689EC94E0DF917D
:1027F000CF910C94FA0682E892E00E941B138FE9B5
:1028000092E00E941B138EEB92E00E941B1388EE55
:1028100092E00E941B1383E093E00E941B1383E36A
:1028200093E00E941B1388E593E00E941B138BE743
:1028300093E00E941B138AE993E00E941B138DEB27
:1028400093E00E941B1381EE93E00E941B1382E031
:1028500094E00E941B1383E294E00E941B1381E426
:1028600094E00E941B1380E694E00E941B1382E810
:1028700094E00E941B1388EA94E00E941B138BECE7
:1028800094E00C941B13EF92FF920F931F93CF933E
:10289000DF93CDB7DEB7C058D1090FB6F894DEBFCD
:1028A0000FBECDBF8091BE08882379F110926C08CD
:1028B00067EC74E08DE798E00E945D22F0906C0870
:1028C000009719F027E02F1570F51092BE081092AE
:1028D000BD08FF2079F000916D0810916E086CEC36
:1028E00074E0C8010E946222892B71F580EA99E0A8
:1028F0000E944713EDE7F8E080E4DF011D928A951E
:10290000E9F78EE192E00E94FA06C058DF4F0FB659
:10291000F894DEBF0FBECDBFDF91CF911F910F9115
:10292000FF90EF90089521E02F0D20936C08EF2D7C
:10293000F0E0EE0FFF1FE359F74F9183808367ECC0
:1029400074E090E080E0B8CF63ED74E0C8010E94CD
:102950006222892B01F58091BA0980FD05C087EDBF
:1029600094E00E943713C6CF0E944719882319F0BC
:1029700080EE94E0F6CF0E945319882349F08CE54D
:1029800096E00E941B138CEE94E00E94EB13B2CFF2
:102990008FEC90E0E6CF69E075E0C8010E9462220A
:1029A000892B71F40E947119882339F08CE596E027
:1029B0000E941B1389EF94E0E8CF85E095E0D1CF2A
:1029C0006DED70E0C8010E946222892B91F4809124
:1029D000BA0980FFC4CF0E948019882339F08CE5A2
:1029E00096E00E941B138EE095E0CFCF89ED90E03A
:1029F000B8CF6CED76E0C8010E946222892B09F005
:102A000055C081E08F1510F56EE376E080916F0878
:102A1000909170080E946222892BC1F48091A509CF
:102A20008F938091A4098F938091A3098F938091B4
:102A3000A2098F938DE195E09F938F938E010F5F95
:102A40001F4F1F930F930E949A22B5C08091BA091D
:102A500080FF85CFB1E0BF1518F089E295E081CF06
:102A600000916F0810917008C8010E94CD12811169
:102A700003C082E395E075CFC8010E943F2297FD15
:102A8000F8CF2091DB093091DC092817390788F34A
:102A90009093A1098093A009BC0189EC99E00E9460
:102AA000301D8CE596E00E941B1324CF6CE375E08B
:102AB000C8010E946222892B29F58091B409909166
:102AC000B50981309105D1F00297D1F482E51F92CA
:102AD0008F9381E495E09F938F938E010F5F1F4F3B
:102AE0001F930F930E949A22C8010E941B130F90FC
:102AF0000F900F900F900F900F90FCCE86E4E7CFD1
:102B00008DE2E5CF68E475E0C8010E946222892B5E
:102B100009F05AC08091F1098F938091F0098F9349
:102B20008091EF098F938091EE098F938091ED0949
:102B30001F928F938091EC098F938091EB098F9373
:102B40008091EA098F938091E9098F938091E80938
:102B50008F938091E7098F938091E6098F938091FD
:102B6000E5098F938091E4098F938091E3098F9316
:102B70008091E2098F938091E1098F938091E00920
:102B80008F938091DF098F938091DE098F938091DD
:102B9000DD098F938091DC098F938091DB098F93FE
:102BA0008DE495E09F938F938E010F5F1F4F1F93CE
:102BB0000F930E949A22C8010E941B130FB6F8942B
:102BC000DEBF0FBECDBF96CE65E775E0C8010E949F
:102BD0006222892B09F0F2C092E09F1508F03DCFE8
:102BE0000091710810917208C8010E94CD128823CB
:102BF00009F43FCFE0906F08F0907008C8010E9480
:102C00003F228C0169E775E0C7010E946222892B8F
:102C100061F4C801845F91408D37954108F029CF58
:102C20001093DC090093DB093CCF60E875E0C70135
:102C30000E946222892B59F4C801C297873B9340B6
:102C400008F017CF1093DE090093DD092ACF67E85B
:102C500075E0C7010E946222892BA9F4C80184563D
:102C6000910985359B4008F004CF1093E00900934B
:102C7000DF094091E1095091E209B80189EC99E03E
:102C80000E944E1D0ECF6DE875E0C7010E946222C2
:102C9000892B89F4C8018456910985359B4008F039
:102CA000E8CE1093E2090093E1096091DF09709189
:102CB000E009A801E3CF63E975E0C7010E94622241
:102CC000892B91F4C801885C91098930974008F0FC
:102CD000D0CE1093E4090093E309B801110F880BDB
:102CE000990B0E94D21ADDCE6CE975E0C7010E94F3
:102CF0006222892B99F4013020E1120708F0B9CE45
:102D00001093E6090093E5094091E7095091E8091D
:102D1000B8018FE899E00E946D1BC3CE6FE975E0A2
:102D2000C7010E946222892B79F4013082E01807E2
:102D300008F09FCE1093E8090093E7096091E50938
:102D40007091E609A801E5CF62EA75E0C7010E942B
:102D50006222892B61F4C801885E9340813B9643CF
:102D600008F087CE1093EA090093E9099ACE68EA41
:102D700075E0C7010E946222892B69F48091E909FC
:102D80009091EA098017910708F073CE1093EC092F
:102D90000093EB0986CE6EEA75E0C7010E946222BD
:102DA000892B49F4C801CC978135910508F061CE93
:102DB0000093ED0976CE87EB95E0D3CD69EE76E012
:102DC000C8010E946222892B91F40E94A4198823D1
:102DD00039F08CE596E00E941B1381EC95E0D5CD8F
:102DE00081EE90E00E94371388EC95E0CECD6BED3C
:102DF00075E0C8010E946222892B91F40E94D61CC2
:102E00008C01892B19F40E94DB1C8C01C8010E94E3
:102E1000081D9F938F931F930F9381EE95E00CCE27
:102E20006CEE75E0C8010E946222892B59F483EF91
:102E300095E00E941B1384E096E00E941B138FE034
:102E400096E031CE6BE176E0C8010E946222892BC8
:102E500091F56091BF097091C0098091C10990916D
:102E6000C2092091C4092F932091C3092F9320E117
:102E70003EE040E050E00E94CF21122F032FF42EBD
:102E8000E52E2CE330E040E050E00E94CF215F933C
:102E90004F933F932F93EF92FF920F931F9382E2F2
:102EA00096E09F938F938E010F5F1F4F1F930F9399
:102EB0000E949A2280CE6AE376E0C8010E946222D4
:102EC000892BF9F48FE899E00E94791B182F092FBC
:102ED0008FE899E00E94731B0F931F939F938F932A
:102EE0007F936F938091E8098F938091E7098F9387
:102EF0008091E6098F938091E5098F9380E496E0B5
:102F0000D0CF62E576E0C8010E946222892B39F4B5
:102F10008CE596E00E941B1387E596E036CD6FE5C1
:102F200076E0C8010E946222892B19F40E94FB13EB
:102F3000E1CC84E696E015CD8091BE0808958DE73A
:102F400098E008951092BE081092BD08EDE7F8E0F1
:102F500080E4DF011D928A95E9F7089581E080936E
:102F600062000E94E2046093C0087093C1088093DD
:102F7000C2089093C3080895CF92DF92EF92FF9218
:102F8000CF93DF9320916200222329F1EC010E946C
:102F9000E2046B017C018091C0089091C108A0916E
:102FA000C208B091C308A7019601281B390B4A0B30
:102FB0005B0BDA01C901883E9340A105B10558F0C9
:102FC000CE010E944713C092C008D092C108E0927F
:102FD000C208F092C308DF91CF91FF90EF90DF908D
:102FE000CF9008950C944713CF92DF92EF92FF9207
:102FF0000F931F93CF93DF93CDB7DEB7C054D109A2
:103000000FB6F894DEBF0FBECDBF6C018B010E94DE
:10301000E01CE82EF801F3841485C6010E94081D07
:103020001F92EF921F93FF929F938F938CE696E0EF
:103030009F938F938E010F5F1F4F1F930F930E94DB
:103040009A22C8010E94EB130FB6F894DEBF0FBEA0
:10305000CDBFC05CDF4F0FB6F894DEBF0FBECDBF53
:10306000DF91CF911F910F91FF90EF90DF90CF9064
:103070000895809362000895809162000895CF932F
:10308000DF93EC012091C4083091C508233031054D
:1030900021F58091BF099091C009A091C109B0911B
:1030A000C2094091BB095091BC096091BD09709162
:1030B000BE09840F951FA61FB71F8093BF09909369
:1030C000C009A093C109B093C2091092BB09109224
:1030D000BC091092BD091092BE093093C708209315
:1030E000C608D093C508C093C4081092D1081092A6
:1030F000D2081092D3081092D408C430D10509F434
:1031000055C048F5C130D105C1F1C230D10509F033
:1031100046C08091CA089091CB089093B5098093DE
:10312000B4098FE899E00E94631B89EC99E00E9442
:10313000B51D8091C3099091C40901969093C4096B
:103140008093C3091092D9081092DA081092DB0814
:103150001092DC0824C0C530D10521F0CE010797BC
:103160000397E8F41092B5091092B4091092A909D6
:103170001092A8091092AA0912C01092B5091092D3
:10318000B4091092A9091092A8091092AA098FE80F
:1031900099E00E94631B89EC99E00E94B51DD093D1
:1031A000B709C093B609DF91CF91089570E060E050
:1031B00089EC99E00E94301DF2CF8091C408909173
:1031C000C5088530910550F4029768F08091CA08CF
:1031D0009091CB080E943B0E0C94710E85309105A6
:1031E00011F0079731F490E080E00E943B0E0C94C0
:1031F0007A0E0C94850EE4ECF8E0118210821382B2
:103200001282178216821186108612861386148601
:10321000158616861786108A84EF91E0A0E0B0E04C
:10322000818B928BA38BB48B158A168A178A108E8A
:10323000118E128E138E148E81E0858F08958091E9
:10324000C4089091C50808958091C4089091C5085C
:103250008A30910540F4880F991FFC01E955FF4F12
:1032600080819181089580E896E008958091CA0850
:103270009091CB0808952091C4083091C508225040
:10328000310981E02230310508F080E00895209175
:10329000C4083091C5082850310981E02230310539
:1032A00008F080E008958091C4089091C5088130AD
:1032B0009105A9F44091A0095091A1092091DD093F
:1032C0003091DE094217530750F09093CB0880935A
:1032D000CA0882E090E00E943F1881E0089580E0F3
:1032E00008958091C4089091C5080297029730F420
:1032F00084E090E00E943F1881E0089580E0089506
:103300008091C4089091C5080397E1F48091CE089C
:10331000811118C08091CA089091CB08019779F467
:1033200082E090E09093CD088093CC0881E0809378
:10333000CE0884E090E00E943F1881E0089581E08B
:1033400090E0F0CF80E008958091C4089091C50886
:103350008830910571F40E94D61C892B11F080E011
:1033600008951092CF0881E090E00E943F1881E01C
:1033700008950997A1F78091BA0981FDF0CFF3CFA5
:103380008091C4089091C508099749F081E0809325
:10339000D00889E090E00E943F1881E0089580E025
:1033A00008958091E108811102C00C94FB1880916E
:1033B000D1089091D208A091D308B091D4080A9670
:1033C000A11DB11D8093D1089093D208A093D3087A
:1033D000B093D408E091C408F091C5082091BA09CF
:1033E00021FFBAC0399711F00E94C0190C94DD1862
:1033F0008091FB099091FC09892B29F481E090E0F0
:103400000E943F18F3CF88E090E0FACF1092A9090C
:103410001092A8091092AA09E9CF89EC99E00E94BC
:10342000B21D882361F18091A4099091A509209192
:10343000A2093091A309821B930B8C599F4F893CA1
:103440009105E8F48091D9089091DA08A091DB0801
:10345000B091DC080196A11DB11D8093D90890930D
:10346000DA08A093DB08B093DC0884369105A10547
:10347000B10508F4BBCF83E090E00E943F181092A2
:10348000D9081092DA081092DB081092DC08AECF4F
:103490002091A0093091A1098091DD099091DE0968
:1034A0002817390708F0A2CF0E9471199FCF809189
:1034B000A4099091A5091816190604F18091DD0858
:1034C0009091DE08A091DF08B091E0080196A11D5F
:1034D000B11D8093DD089093DE08A093DF08B093C0
:1034E000E0080397A105B10508F480CF8091CE08CC
:1034F000882369F085E090E00E943F181092DD0873
:103500001092DE081092DF081092E0086FCF87E07B
:1035100090E0F2CF4091D5085091D6086091D7083D
:103520007091D80884179507A607B70708F45ECFEF
:103530008091CC089091CD089093CB088093CA08D5
:103540001092CE0882E090E05BCF843F9140A105CD
:10355000B10508F44BCF52CFE830F10508F046CF63
:10356000EC54F54E0C941022F819061A0D1A481A4C
:10357000571A8A1AF619A51A2091C4083091C5085D
:103580002830310569F021E02093CF089093B909E4
:103590008093B80988E090E00E943F1881E0089588
:1035A00080E008956093D5087093D6088093D7087B
:1035B0009093D80808956091D1087091D2088091B5
:1035C000D3089091D4080895FC01718360835383DC
:1035D00042831482158216821782118610868FE824
:1035E00091E093878287158614861786168681E078
:1035F000808B0895FC017187608753874287089507
:10360000CF92DF92EF92FF920F931F93FC01CB01B9
:10361000841B950BAC01A281B3819C010E941622F0
:1036200004811581268137816B017C01C00ED11E7A
:10363000E21EF31EA081B1819A010E941622072F7B
:10364000182F292F332727FD3A95BB27F7FCBA956A
:10365000AF2D9E2D8D2D080F191F2A1F3B1F828510
:103660009385092E000CAA0BBB0B80179107A207AC
:10367000B30754F457FF16C02089222399F0C4825F
:10368000D582E682F7820EC080859185092E000CD6
:10369000AA0BBB0B081719072A073B0774F414166B
:1036A000150654F355874487978786871F910F9196
:1036B000FF90EF90DF90CF900895C482D582E6828C
:1036C000F782C801EFCFFC0114821582168217829F
:1036D00015861486178616860895FC01718360830B
:1036E000538342830895FC016481758186819781AB
:1036F0000895FC01848595850895E2EEF8E0118235
:10370000108213821282148215821682178210860A
:10371000118680E89EEEA6E3B0E082879387A487B7
:10372000B58716861786108A118A128A138A089519
:103730000F931F93FC01DB01828D81FD95C02385D2
:10374000348553968D919C9154972817390708F02A
:1037500095C00091E8081091E9082091EA0830919D
:10376000EB084091EC085091ED086091EE087091E3
:10377000EF08041715072607370708F082C097855A
:1037800055968C915597981708F45CC08091F00875
:103790008F5F8093F008843108F076C025853685E8
:1037A00056968D919C9157972817390708F04DC070
:1037B0008091F1088F5F8093F108853008F067C031
:1037C00058968D919C918217930708F041C0809183
:1037D000F2088F5F8093F208823008F05BC0428568
:1037E000248135814333B8F124363105A4F5809125
:1037F000F3088F5F8093F3088E3108F04EC080810C
:1038000091818C509E4F8217930744F58091F40864
:103810008F5F8093F4088A3008F042C0453108F188
:10382000232BF9F48091F5088F5F8093F50884319C
:10383000D0F51092E3081092E20890E080E01F912A
:103840000F9108951092F008A9CF1092F108B8CF07
:103850001092F208C4CF1092F308D1CF1092F4085E
:10386000DDCF1092F508E5CF81E090E09093E3087A
:103870008093E20821E02093E608E1CF82E090E027
:10388000F5CF83E090E0F2CF84E090E0EFCF85E0E9
:1038900090E0ECCF86E090E0E9CF87E090E0E6CFE3
:1038A00088E090E0E3CF89E090E0E0CF8F929F92B4
:1038B000AF92BF92CF92DF92EF92FF92B0E0A0E082
:1038C0006C017D01C61AD70AE108F108A70196012B
:1038D000C701B6010E9497218090E8089090E908FE
:1038E000A090EA08B090EB081C141D041E041F04ED
:1038F000DCF428EE33E040E050E00E94F121820E3B
:10390000931EA41EB51E8092E8089092E908A0922A
:10391000EA08B092EB08FF90EF90DF90CF90BF9055
:10392000AF909F908F90089520EA3FE040E050E0F4
:103930000E94F121281539054A055B0528F4821AF1
:10394000930AA40AB50ADFCF1092E8081092E9089A
:103950001092EA081092EB08DECFE2EEF8E0148253
:103960001182108216861786108A118A128A138A8B
:1039700008952091E4083091E5082817390741F4AB
:103980001092E5081092E4081092E7080C94AD1C20
:1039900008958091E608811107C081E09091E708C1
:1039A000911103C080E0089581E008958091E208BC
:1039B0009091E30808958091E4089091E5080895B6
:1039C000CF92DF92EF92FF92C090EC08D090ED087A
:1039D000E090EE08F090EF0880E0C114D104E1041B
:1039E000F10489F02091E8083091E9084091EA0853
:1039F0005091EB08A4E6B0E00E943422A7019601A2
:103A00000E94CF21822FFF90EF90DF90CF900895FA
:103A10008A30910540F4880F991FFC01E554FF4F4F
:103A20008081918108958EEA96E00895FC011182CB
:103A30001082138212821582148288E592E09783A5
:103A4000868384E893E09187808788EC90E0938771
:103A5000828788EB9BE09587848781E0868708953D
:103A6000FC011616170624F011821082168608959E
:103A700094858585228533856217730734F0292F55
:103A8000382F621773070CF49B0131832083EECF2C
:103A9000FC0173876287558744870895FC0177830B
:103AA00066835187408708950F931F93CF93DF93C9
:103AB000FC01C081D181028113819E01201B310B49
:103AC0001216130684F54681578164E6649FC0018F
:103AD000659F900D112468EE73E00E94A721621784
:103AE00073070CF49B01200F311F3383228354850D
:103AF00045852281338190E080E037FD06C0852F27
:103B0000942F281739070CF4C90193838283958376
:103B10008483C817D90711F421E02687DF91CF915C
:103B20001F910F9108952115310509F340855185A5
:103B300064E6649FC001659F900D112468EE73E0F8
:103B40000E94A721319521953109621773070CF462
:103B50009B01021B130B13830283C9CFFC018481D9
:103B600095810895FC0186850895FC0113821282D7
:103B70001582148216860895FC012081318182818C
:103B80009381281B390B1216130694F466817781F2
:103B90006115710559F048EE53E0249FC001259F3F
:103BA000900D349F900D11240E94A721CB01089500
:103BB00070E060E021153105C9F3608571853195AC
:103BC00021953109E5CFFC019093F9088093F8081D
:103BD0007093F7086093F6081182108213821282A4
:103BE0001582148217821682118610861286148618
:103BF0001386168615861786108A118A128A138AEA
:103C0000158A148A178A168A118E108E828D8C7FDF
:103C10008B7F828F138E148E158E168E178E10A2A8
:103C200011A212A214A213A215A216A217A210A6E4
:103C300008958091F8089091F90808958091F60808
:103C40009091F7080895E091F808F091F9089583AC
:103C50008483748763875687458727870895E09113
:103C6000F608F091F70853814481E091F808F0914B
:103C7000F90830E020E097FD06C0252F342F821789
:103C800093070CF49C01318320830895E091F80898
:103C9000F091F908803921E0920714F08FE891E063
:103CA00097FF02C090E080E09187808744E6489FBC
:103CB0009001499F300D1124C9016FE871E00E9405
:103CC000A72162870895E091F808F091F9088281B0
:103CD000938124813581821B930B9783868308957A
:103CE000E091F808F091F908838D948DA58DB68D3B
:103CF0000196A11DB11D838F948FA58FB68F878DDF
:103D000090A1A1A1B2A10196A11DB11D878F90A381
:103D1000A1A3B2A30895E8E0F9E011821082138212
:103D200012821582148217821682108611861286DC
:103D300013861486158616861786118A108A128AAB
:103D4000739689E0ED38F80741F710920709109251
:103D500003091092040910920509109206091092A5
:103D6000FF081092000910920109109202090E94A6
:103D7000E2046093FB087093FC088093FD08909325
:103D8000FE081092FA0808954F925F926F927F9208
:103D9000AF92BF92CF92DF92EF92FF920F931F9359
:103DA000CF93DF930E94E2046B017C01B12C83E18D
:103DB000A82E80910709B81608F464C08091FB080A
:103DC0009091FC08A091FD08B091FE08A701960112
:103DD000281B390B4A0B5B0BDA01C901883E934063
:103DE000A105B10508F43FC02091FF0830910009FA
:103DF0004091010950910209409003095090040933
:103E00006090050970900609420E531E641E751ECF
:103E1000411451046104710471F0A4E6B0E00E9401
:103E20003422A30192010E94CF218091FA088217C7
:103E300010F42093FA081092FF08109200091092D3
:103E400001091092020910920309109204091092BC
:103E5000050910920609C092FB08D092FC08E09276
:103E6000FD08F092FE08DF91CF911F910F91FF9016
:103E7000EF90DF90CF90BF90AF907F906F905F906A
:103E80004F9008950B2D10E0A09EE001A19ED00D53
:103E90001124C85FD64F8A89882309F45FC08881BE
:103EA0009981892B09F45AC08C859D85AE85BF8583
:103EB000C816D906EA06FB0608F450C00E94E204C0
:103EC0002B013C01E881F98109950E94E2042091CF
:103ED000FF08309100094091010950910209620FD9
:103EE000731F841F951F64197509860997096093CC
:103EF000FF087093000980930109909302092C81B7
:103F00003D8188859985AA85BB85B701A601481B97
:103F1000590B6A0B7B0BC9010596B0E0A0E0841732
:103F20009507A607B70728F4888999890196998B80
:103F3000888BA09EF001A19EF00D1124E85FF64F42
:103F4000C086D186E286F386D701C601820F931F11
:103F5000A11DB11D84879587A687B787B39429CF04
:103F6000DC0190910709973018F5109709F183E16A
:103F7000989FF0011124E85FF64FB183A08373830B
:103F80006283558344833783268310861186128685
:103F90001386A90170E060E04487558766877787BC
:103FA000118A108A81E0828B9F5F909307090895A0
:103FB00080E0089590910709891748F493E1899F5B
:103FC000F0011124E85FF64F80899189089590E00F
:103FD00080E00895CF92DF92EF92FF920E94E20478
:103FE000C090FB08D090FC08E090FD08F090FE081F
:103FF0006C197D098E099F09683E73408105910502
:1040000010F00E94C41E2091FF08309100094091D9
:10401000010950910209C0900309D0900409E09071
:104020000509F0900609C20ED31EE41EF51E80E0BD
:10403000C114D104E104F10449F0A4E6B0E00E9407
:104040003422A70196010E94CF21822FFF90EF908A
:10405000DF90CF9008958091FA0808950895CF9346
:10406000DF93CDB7DEB769970FB6F894DEBF0FBE0A
:10407000CDBFF8948AE0E3E6F0E0DE01119601900E
:104080000D928A95E1F7CE0101960E94CA058CEE49
:1040900090E00E94830688E091E00E94830680EA17
:1040A00096E8A1E0B0E08B8B9C8BAD8BBE8BCE01F4
:1040B00043960E947F07FF24F394FF8A87E0888F4E
:1040C000CE0147960E949B030E94F2030E94B50412
:1040D00080916D0090916E00A0916F00B091700082
:1040E0008F87988BA98BBA8B1C861B8603E010E008
:1040F0001E870D87CE010F960E946905CE010B9693
:104100000E94690589E191E00E9483060E941A0DD0
:104110000E946A110E94D0070E9496110E94830893
:104120000E94130E8AE291E00E94830684E49DE4DB
:104130009093D9098093D809F092DA0988EB9BE033
:104140009093DC098093DB0988EC90E09093DE0982
:104150008093DD0988E592E09093E0098093DF0980
:1041600084E893E09093E2098093E10984EF91E081
:104170009093E4098093E30980E891E09093E60945
:104180008093E5098AE190E09093E8098093E7093C
:1041900080E49FE19093EA098093E90980E596E441
:1041A0009093EC098093EB098EE68093ED0980E211
:1041B0009EE49093EF098093EE0988ED96ED90933D
:1041C000F1098093F0091093F3090093F20910921A
:1041D000F4091092F5091092F6091092F70910925D
:1041E000F9091092F8091092FA091092FC0910923C
:1041F000FB091092FD094AE150E060E871E08FE8A8
:1042000099E00E94E41A4FE851E068E270E08FE81C
:1042100099E00E94FA1A89EC99E00E94161D4091DB
:10422000DB095091DC096091DD097091DE0989ECB0
:1042300099E00E94481D4091E1095091E209609186
:10424000DF097091E00989EC99E00E944E1D0E94FF
:104250007D1B0E94FB186091E3097091E40990E0D6
:1042600080E00E94D21A0E9421130E94AE170E9481
:104270008B1E30E020E04AE050E06AE371E089E420
:1042800090E00E94B01F21E030E042E350E060E4A3
:1042900071E081EB90E00E94B01F22E030E044E644
:1042A00050E068E471E086ED90E00E94B01F24E0E9
:1042B00030E04AEF50E060E571E08FE491E00E9469
:1042C000B01F23E030E044EF51E064E571E08DE998
:1042D00090E00E94B01F25E030E048EE53E060E639
:1042E00071E08BEA90E00E94B01F30E020E041E0F6
:1042F00050E06AE671E08FEA90E00E94B01F82E72A
:1043000091E00E94830678940E94C41ECE014996D3
:104310000E945C06892B39F00E949C178823A1F328
:104320000E944314F1CF898D0E94DD12EFCFDB0193
:104330008F939F930E943422BF91AF91A29F800DD3
:10434000911DA39F900DB29F900D11240895AA1B5B
:10435000BB1B51E107C0AA1FBB1FA617B70710F070
:10436000A61BB70B881F991F5A95A9F780959095A2
:10437000BC01CD01089597FB072E16F4009407D0D9
:1043800077FD09D00E94A72107FC05D03EF4909547
:1043900081959F4F0895709561957F4F0895A1E293
:1043A0001A2EAA1BBB1BFD010DC0AA1FBB1FEE1FAF
:1043B000FF1FA217B307E407F50720F0A21BB30BFA
:1043C000E40BF50B661F771F881F991F1A9469F776
:1043D00060957095809590959B01AC01BD01CF01D2
:1043E0000895052E97FB1EF400940E94082257FDA5
:1043F00007D00E94CF2107FC03D04EF40C94082272
:1044000050954095309521953F4F4F4F5F4F089500
:1044100090958095709561957F4F8F4F9F4F089530
:10442000EE0FFF1F0590F491E02D09940E941E22CB
:10443000332312F48A1B9B0B0C942F22A29FB001F2
:10444000B39FC001A39F700D811D1124911DB29FC8
:10445000700D811D1124911D08950E941E22B7FF29
:104460000895821B930B08950E941E22A59F900D14
:10447000B49F900DA49F800D911D11240895FC01FF
:1044800088279927E89421912032E9F3293010F008
:104490002E30C8F32B3241F02D3239F4689404C029
:1044A0000E949222820F911D219120532A30C0F345
:1044B0001EF4909581959F4F08954DE859E00E9414
:1044C0006B220895FB01DC018D9101908019011090
:1044D000D9F3990B0895FA01A191B081009719F4CD
:1044E0001097E1F0CD01DC01CD010D90002011F419
:1044F000C00113C0FB012191222319F02015D9F727
:10450000F3CFFB012191201519F41E92119606C0DC
:104510002223C1F70D900020A1F7D001FA01A19349
:10452000B08308957AE0979F902D879F802D910DFD
:1045300011240895AEE0B0E0E0EAF2E20C944925DF
:104540000D891E8986E08C831A8309838FEF9FE78C
:104550009E838D83AE01475E5F4F6F89788DCE015C
:1045600001960E94BD222F813885020F131FF8018A
:1045700010822E96E4E00C946525ABE0B0E0E3EC0D
:10458000F2E20C943B257C013B018A01FC0117827D
:104590001682838181FFC8C1CE0101965C01F701BB
:1045A0009381F30193FD859193FF81913F018823CE
:1045B00009F453C1853239F493FD859193FF8191BC
:1045C0003F01853229F4B70190E00E94AD24E7CF86
:1045D000912C212C312CFFE1F31538F08B3211F1A5
:1045E00090F4803209F1833229F137FC3CC020ED90
:1045F000280F2A3050F536FE20C08AE0989E200D04
:104600001124922E06C08D3291F0803371F7689498
:1046100030F8F30193FD859193FF81913F01811162
:10462000DACF21C0689431F8689432F8F2CF6894F8
:1046300033F8EFCF689434F8ECCFEAE02E9E200DEB
:104640001124222E689435F8E4CF8E3229F436FCFA
:1046500004C1689436F8DDCF8C3619F4689437F8C5
:10466000D8CF8836B1F2982F9F7D95549330E0F0E3
:104670008336A1F18337C1F1833509F063C0280186
:10468000F2E04F0E511CF801C080D180692D70E01E
:1046900036FC02C06FEF7FEFC6010E9497244C01E9
:1046A000689437F882010AC00C5F1F4FFFE3F9835B
:1046B00088248394912C6501E89437F833FE2DC04B
:1046C000522C8114910471F5552009F468CFB7017B
:1046D00080E290E00E94AD245A94F6CFF8018081E8
:1046E00089830E5F1F4FE4CF2801F2E04F0E511C6B
:1046F000F801C080D180692D70E036FC02C06FEFF8
:104700007FEFC6010E94A2244C018201D5CFB701E0
:1047100080E290E00E94AD242A942814190409F044
:10472000B0F7CECFF60137FC859137FE81916F014E
:10473000B70190E00E94AD2451105A94F1E08F1A15
:104740009108BFCF843619F0893609F077C0F80197
:1047500037FE6BC060817181828193810C5F1F4F36
:10476000F32DFF763F2E97FF09C0909580957095A9
:1047700061957F4F8F4F9F4F689437F82AE030E064
:10478000A5010E94DD24C82ECA188C2C432C36FEAD
:104790000CC0E89440F8C91440F434FE05C032FC63
:1047A00003C0F32DFE7E4F2E892C44FE95C0FE01E2
:1047B000EC0DF11D8081803309F087C0242D297E06
:1047C000422E842D8870582E43FC95C040FE8FC029
:1047D0009C2C821418F42C0C922C981844FE91C036
:1047E000B70180E390E00E94AD2442FE09C088E753
:1047F00090E041FE02C088E590E0B7010E94AD2440
:10480000C91408F48AC0CA94D12C9FEFC91AD90AD6
:10481000CA0CDB1CF60182916F01B70190E00E9487
:10482000AD24AC14BD04B1F74FCF60817181072E68
:10483000000C880B990B0E5F1F4F92CFD32CE8947E
:10484000D4F82AE030E0853739F1232D297FD22EA4
:104850008F3601F148F48835A9F0F70186819781F8
:104860002B96E2E10C945725803749F08837A9F759
:10487000D4FE02C06894D2F820E130E00DC0689404
:10488000D4F8F6CF34FE03C0822F8660D82E20E104
:1048900032E002C028E030E0F801D7FE0FC06081AE
:1048A0007181828193810C5F1F4FA5010E94DD24DD
:1048B000C82ECA183D2CE89437F867CF6081718103
:1048C00090E080E00E5F1F4FF0CF42FC02C0839467
:1048D00078CF8394839475CF842D867809F471CF33
:1048E000F6CFB70180E290E00E94AD248394821459
:1048F000C0F3512C73CF522C5818821408F46ECF89
:10490000F8CF842D867809F47BCF8BE241FE80E2DC
:1049100047FC8DE2B70190E071CFB70180E390E0F2
:104920000E94AD249A946CCF8FEF9FEF99CFFC013A
:104930000590615070400110D8F7809590958E0FCA
:104940009F1F0895FC016150704001900110D8F73D
:10495000809590958E0F9F1F08950F931F93CF936F
:10496000DF93182F092FEB018B8181FD09C01FEF09
:104970000FEF812F902FDF91CF911F910F9108950D
:1049800082FF14C02E813F818C819D8128173907B9
:104990003CF4E881F981CF010196998388831083E3
:1049A0008E819F8101969F838E83E3CFE885F98571
:1049B000812F0995892BA1F3DACFFA01AA27283094
:1049C00051F1203181F1E8946F936E7F6E5F7F4FDC
:1049D0008F4F9F4FAF4FB1E03ED0B4E03CD0670F58
:1049E000781F891F9A1FA11D680F791F8A1F911DAB
:1049F000A11D6A0F711D811D911DA11D20D009F4FB
:104A000068943F912AE0269F11243019305D31933C
:104A1000DEF6CF010895462F4770405D4193B3E025
:104A20000FD0C9F7F6CF462F4F70405D4A3318F0CC
:104A3000495D31FD4052419302D0A9F7EACFB4E07D
:104A4000A6959795879577956795BA95C9F7009735
:104A50006105710508959B01AC010A2E06945795D6
:104A6000479537952795BA95C9F7620F731F841F2D
:104A7000951FA01D08952F923F924F925F926F92C3
:104A80007F928F929F92AF92BF92CF92DF92EF92DE
:104A9000FF920F931F93CF93DF93CDB7DEB7CA1B5F
:104AA000DB0B0FB6F894DEBF0FBECDBF09942A888A
:104AB000398848885F846E847D848C849B84AA8432
:104AC000B984C884DF80EE80FD800C811B81AA81BF
:104AD000B981CE0FD11D0FB6F894DEBF0FBECDBF8A
:084AE000ED010895F894FFCFE9
:104AE800010401802500000300000000000100030C
:104AF8000039003600330030003B00380035003202
:104B0800003A0037003400310000010101000101C2
:104B1800030206040C080903060C09010204080133
:104B280000020003000400850609058A06D3048FE5
:104B380006940699069D06A306A8060A06A806A8CE
:104B480005B606AE05BF06C906D206D806E2064572
:104B58005252205354415254004552522052455605
:104B68000045525220414354495645000D0A2D2D07
:104B78002D2053595354454D205354415254494EB6
:104B880047202D2D2D0D0A00424F4F54313A205504
:104B9800415254204F4B0D0A00424F4F54323A2095
:104BA8004D43414C204F4B0D0A00424F4F54333A6E
:104BB8002048414C204F4B0D0A0050616E656C0037
:104BC80043757272656E7400436F6E74726F6C0019
:104BD8004C434400536C6F7753656E736F72730068
:104BE80054656C656D657472790053746570706591
:104BF8007200424F4F54343A205343484544554C71
:104C080045522052454144590D0A005241573D250D
:104C1800750D0A00256C6400534554252D34642015
:104C2800414354252D34642563002532642525200D
:104C38002532642E256441202532645620253264AD
:104C4800430021212054524950504544202121201D
:104C5800202000215452495020434F44453D2564AB
:104C6800000D0A496E647573747269616C204D6F2A
:104C7800746F7220436F6E74726F6C6C65722076FD
:104C8800312E30000D0A547970652048454C50206B
:104C9800666F7220636F6D6D616E64730D0A3E20DE
:104CA800004552524F523A2000244D442C53503D57
:104CB80025642C52503D25642C443D25642C493DE7
:104CC80025642C563D25642C543D25642C444952BA
:104CD8003D25632C53543D25732C54523D25642C9B
:104CE8004932543D25642C52483D256C752C53435C
:104CF8003D2564002A253032580D0A0021455654B6
:104D08002C000D0A3D3D3D20417661696C61626C65
:104D18006520436F6D6D616E6473203D3D3D0053AA
:104D2800544154555320202020202020202D20534A
:104D3800686F772074656C656D657472790052557B
:104D48004E20202020202020202020202D20537499
:104D5800617274206D6F746F72202872656D6F7444
:104D680065206F6E6C79290053544F502020202005
:104D78002020202020202D2053746F70206D6F7408
:104D88006F7200524556202020202020202020200D
:104D9800202D20526576657273652064697265639B
:104DA80074696F6E202872656D6F7465206F6E6C04
:104DB8007929005350454544203C6E3E2020202050
:104DC800202D205365742073706565642028302D6C
:104DD8006D617852706D290053504545443F20203D
:104DE8002020202020202D2053686F7720637572A3
:104DF80072656E74207370656564004449523F2083
:104E08002020202020202020202D2053686F77206C
:104E1800646972656374696F6E004346473F20207A
:104E280020202020202020202D2053686F77206309
:104E38006F6E66696775726174696F6E0053455469
:104E4800203C706172616D3E203C76616C75653EF8
:104E5800202D2053657420706172616D65746572D0
:104E68000041434B20202020202020202020202DDE
:104E78002041636B6E6F776C656467652074726937
:104E88007000545249503F2020202020202020200C
:104E98002D2053686F77206163746976652074727A
:104EA80069700054524950533F2020202020202070
:104EB800202D2053686F772074726970206C6F679B
:104EC80000484F5552533F20202020202020202DDD
:104ED8002053686F772072756E20686F7572730043
:104EE80054554E453F2020202020202020202D20D2
:104EF80053686F7720504920696E7465726E616CD3
:104F080073005341564520202020202020202020B7
:104F18002D205361766520636F6E66696720746F14
:104F280020454550524F4D0048454C5020202020E8
:104F38002020202020202D2053686F772074686956
:104F480073206D656E750020090D0A005354415495
:104F580055530052554E00455252204D4F4445007E
:104F680045525220545249505045440053544152DE
:104F7800542C52454D4F54450053544F502C5245D4
:104F88004D4F5445004552522053544F50005245FE
:104F980056455253452C52454D4F544500535045A4
:104FA80045443D25642C2564004552522041524712
:104FB80053004552522052414E4745004449523F02
:104FC800004449523D2563004346473F0043464756
:104FD8003D25642C25642C25642C25642C25642C03
:104FE80025642C25642C25642C25642C25642C250B
:104FF800642C256400534554004D415852504D00CF
:105008004D494E52504D00414343454C00444543A1
:10501800454C004445414454494D45004B50004BD4
:10502800490052415445440053484F5254004F568A
:10503800455254454D500045525220504152414D21
:105048000041434B2C4F4B0041434B2C5245465596
:105058005345442C41435449564500545249503F06
:1050680000545249503D25642C2573005452495030
:10507800533F003D3D3D2054726970204C6F6720BE
:105088003D3D3D005452502C302C4E4F4E45003D76
:105098003D3D20456E64203D3D3D00484F555253EF
:1050A8003F00484F5552533D2530326C753A2530F4
:1050B800326C752C53433D25640054554E453F00D2
:1050C80054554E453D25642C25642C256C642C25AF
:1050D80064005341564500534156452C4F4B0048F8
:1050E800454C500045525220434D440054524950BB
:1050F8002C25732C493D25642C4932543D256400E8
:10510800554E4B4E00494E49540053545254005288
:1051180044574E00444541440042524B00434F41DE
:1051280053540054524950004553544F5000554E63
:105138004B4E4F574E004F5645524C4F4144005529
:105148004E444552564F4C54004F564552564F4CBC
:1051580054005354414C4C004F564552535045450A
:0E51680044004E4F464545444241434B000033
:00000001FF
