:100000000C9460020C9484090C9459090C947D02A0
:100010000C947D020C947D020C947D020C947D0264
:100020000C947D020C947D020C94570A0C947D0272
:100030000C947D020C94DD0B0C94210C0C947D022D
:100040000C947D020C947D020C947D020C947D0234
:100050000C947D0245525220414354495645004577
:100060005252205245560045525220535441525448
:1000700000424F4F54343A205343484544554C4571
:10008000522052454144592C2052554E4E494E471C
:100090002E2E2E0D0A00424F4F54333A2048414C29
:1000A000204F4B0D0A00424F4F54323A204D4341EE
:1000B0004C204F4B0D0A00424F4F54313A205541CE
:1000C0005254204F4B0D0A000D0A2D2D2D2053594F
:1000D0005354454D205354415254494E47202D2DE1
:1000E0002D0D0A000048454C5020202020202020C3
:1000F0002020202D2053686F772074686973206D4D
:10010000656E750053415645202020202020202078
:1001100020202D205361766520636F6E666967200D
:10012000746F20454550524F4D0054554E453F2069
:1001300020202020202020202D2053686F77205061
:100140004920696E7465726E616C7300484F555238
:10015000533F20202020202020202D2053686F771F
:100160002072756E20686F75727300545249505337
:100170003F20202020202020202D2053686F772032
:1001800074726970206C6F6700545249503F202090
:10019000202020202020202D2053686F77206163AD
:1001A0007469766520747269700041434B20202089
:1001B00020202020202020202D2041636B6E6F778F
:1001C0006C65646765207472697000534554203C07
:1001D000706172616D3E203C76616C75653E202DCC
:1001E0002053657420706172616D6574657200439F
:1001F00046473F202020202020202020202D205353
:10020000686F7720636F6E66696775726174696F76
:100210006E004449523F2020202020202020202012
:100220002D2053686F7720646972656374696F6EFF
:100230000053504545443F20202020202020202DE1
:100240002053686F772063757272656E74207370C7
:10025000656564005350454544203C6E3E20202097
:1002600020202D205365742073706565642028302C
:100270002D6D617852706D29005245562020202046
:10028000202020202020202D205265766572736565
:1002900020646972656374696F6E202872656D6F82
:1002A0007465206F6E6C79290053544F50202020C4
:1002B000202020202020202D2053746F70206D6F6F
:1002C000746F720052554E202020202020202020C4
:1002D00020202D205374617274206D6F746F722012
:1002E0002872656D6F7465206F6E6C7929005354A8
:1002F0004154555320202020202020202D205368B9
:100300006F772074656C656D65747279000D0A3DB8
:100310003D3D20417661696C61626C6520436F6D83
:100320006D616E6473203D3D3D000D0A00455252E3
:100330004F523A20004F4B003D3D3D20456E64201A
:100340003D3D3D005452502C302C4E4F4E45003D0B
:100350003D3D2054726970204C6F67203D3D3D004B
:1003600045525220414354495645004F4B00455297
:100370005220504152414D004F4B004552522052A5
:10038000414E4745004F4B004552522052414E4787
:1003900045004F4B004552522052414E4745004FB9
:1003A0004B004552522052414E4745004F4B0045AD
:1003B00052522052414E4745004F4B004552522069
:1003C00052414E4745004F4B004552522052414E3C
:1003D0004745004F4B004552522052414E47450081
:1003E0004F4B004552522052414E4745004F4B0063
:1003F0004552522052414E474500455252205241EB
:100400004E4745004552522041524753004F4B0042
:100410004552522052414E474500455252205241CA
:100420004E474500455252204152475300455252D3
:10043000204D4F44450045525220524556004F4BE7
:1004400000455252204D4F444500455252205354CE
:100450004F50004F4B0045525220535441525400CC
:100460004F4B00455252205452495050454400458C
:100470005252204D4F44450045525220434D4400B6
:100480000D0A547970652048454C5020666F7220E3
:10049000636F6D6D616E64730D0A3E20000D0A4935
:1004A0006E647573747269616C204D6F746F722025
:1004B000436F6E74726F6C6C65722076312E3000F3
:1004C00011241FBECFE5D8E0DEBFCDBF14E0A0E60B
:1004D000B0E0ECE7F3E402C005900D92AA3AB10750
:1004E000D9F726E0AAEAB4E001C01D92A239B2070A
:1004F000E1F70E94E3070C94BC210C940000892BC7
:1005000071F03E9A3F983D98389839983A983B98C0
:100510003098319A329A379A90E080E0089581E0DD
:1005200090E00895883080F4389839983A983B984C
:1005300080FD389A81FD399A8695869509F03A9A18
:10054000369A90E080E0089581E090E00895009769
:1005500059F034B125B1232732272327FC013183F9
:10056000208390E080E0089581E090E0089586B1D6
:100570008295869586958370809581700895CF9336
:10058000DF93EB010E949202009749F40E94B702A8
:100590008823E1F3CE01DF91CF910C94A702DF9184
:1005A000CF910895379890E080E0089583309105C9
:1005B00088F48130910541F0029749F08BB780644F
:1005C0008BBF90E080E008958BB78068F9CF8BB740
:1005D0008062F6CF81E090E008958330910588F441
:1005E0008130910541F0029749F08BB78F7B8BBF2B
:1005F00090E080E008958BB78F77F9CF8BB78F7D30
:10060000F6CF81E090E0089583309105A8F4813021
:10061000910509F10297C1F185B78E7F85BF85B736
:100620008D7F85BF6130710551F060F062307105DA
:1006300079F06330710549F081E090E0089585B765
:10064000816085BF90E080E0089585B7816085BFB7
:1006500085B78260F6CF85B78B7F85BF85B7877FEB
:1006600085BF6130710569F068F36230710531F062
:100670006330710509F785B7846085BF85B78860E9
:10068000E0CF85B78460DDCF6230710531F0633033
:10069000710591F684B7806402C084B78F7B84BFF4
:1006A000D1CFCF93DF93EC01892B99F08881998189
:1006B0008330910570F46A817B810E940403009766
:1006C00051F4888199818130910589F038F0029741
:1006D00089F081E090E0DF91CF9108958AB780643E
:1006E0008ABF88819981DF91CF910C94D6028AB715
:1006F0008068F6CF8AB78062F3CF039730F481E049
:1007000090E0672B21F080E0089581E090E008956B
:100710008FB780688FBF08958FB78F778FBF089589
:100720001092AD041092AC041092AB041092AA0483
:100730000C94D70A9093AD048093AC041092AB0450
:100740001092AA048130910551F028F0049750F0DE
:1007500081E090E0089590E080E00C94F50A86E94D
:1007600090E0FBCF8CE390E0F8CF8091AC049091C7
:10077000AD04009759F18330910541F14AE050E012
:100780008130910511F442E350E02091AA043091A8
:10079000AB042F5F3F4F2417350728F43093AB0489
:1007A0002093AA0408951092AB041092AA042091F9
:1007B0006000222361F090E080E00E94F50A81E071
:1007C00090916000911180E08093600008950197FE
:1007D00019F08CE390E0F1CF86E990E0EECFFC01D8
:1007E0007183608353834283148215821682178239
:1007F000118610868FE891E093878287158614868C
:100800001786168681E0808B0895FC0171876087CA
:10081000538742870895CF92DF92EF92FF920F9312
:100820001F93FC01CB01841B950BAC01A281B3810A
:100830009C010E94301E04811581268137816B0145
:100840007C01C00ED11EE21EF31EA081B1819A016F
:100850000E94301E072F182F292F332727FD3A9586
:10086000BB27F7FCBA95AF2D9E2D8D2D080F191FB4
:100870002A1F3B1F82859385092E000CAA0BBB0BF8
:1008800080179107A207B30754F457FF16C02089B9
:10089000222399F0C482D582E682F7820EC0808539
:1008A0009185092E000CAA0BBB0B081719072A0704
:1008B0003B0774F41416150654F35587448797873D
:1008C00086871F910F91FF90EF90DF90CF90089552
:1008D000C482D582E682F782C801EFCFFC01148280
:1008E0001582168217821586148617861686089535
:1008F000FC0171836083538342830895FC0164810A
:100900007581868197810895FC0184859585089578
:10091000ECEBF4E0118210821382128215821482B1
:100920001782168210861186128613861486158603
:1009300016861786118A108A108E799685E0E23520
:10094000F80741F71092BB041092B7041092B80454
:100950001092B9041092BA041092B3041092B40425
:100960001092B5041092B6040E94000B6093AF047D
:100970007093B0048093B1049093B2041092AE04CB
:1009800008954F925F926F927F92AF92BF92CF92F3
:10099000DF92EF92FF920F931F93CF93DF930E940A
:1009A000000B6B017C01B12C89E1A82E8091BB0466
:1009B000B81608F464C08091AF049091B004A0917F
:1009C000B104B091B204A7019601281B390B4A0B60
:1009D0005B0BDA01C901883E9340A105B10508F41B
:1009E0003FC02091B3043091B4044091B5045091BC
:1009F000B6044090B7045090B8046090B904709069
:100A0000BA04420E531E641E751E41145104610443
:100A1000710471F0A4E6B0E00E944E1EA3019201A1
:100A20000E94E91D8091AE04821710F42093AE0459
:100A30001092B3041092B4041092B5041092B6044C
:100A40001092B7041092B8041092B9041092BA042C
:100A5000C092AF04D092B004E092B104F092B2041C
:100A6000DF91CF911F910F91FF90EF90DF90CF908A
:100A7000BF90AF907F906F905F904F9008950B2D37
:100A800010E0A09EE001A19ED00D1124C454DB4FC4
:100A9000888D882309F477C088819981892B09F48E
:100AA00072C08C859D85AE85BF85C816D906EA06BD
:100AB000FB0608F468C00E94000B2B013C014C8A25
:100AC0005D8A6E8A7F8AE881F98109950E94000B10
:100AD000DC01CB0184199509A609B7094A885B880E
:100AE000712C612C481659066A067B0610F49B8B04
:100AF0008A8B4090B3045090B4046090B504709019
:100B0000B604480E591E6A1E7B1E4092B3045092D2
:100B1000B4046092B5047092B604A09EF001A19E48
:100B2000F00D1124E454FB4F24813581808591859B
:100B3000A285B385B701A601481B590B6A0B7B0B35
:100B4000C9010596B0E0A0E084179507A607B7078E
:100B500028F4808991890196918B808BA09EF00169
:100B6000A19EF00D1124E454FB4FC086D186E2868D
:100B7000F386D701C601820F931FA11DB11D848783
:100B80009587A687B787B39411CFDC019091BB04FA
:100B9000963028F5109719F189E1989FF0011124FA
:100BA000E454FB4FB183A0837383628355834483F2
:100BB000378326831086118612861386A90170E07A
:100BC00060E04487558766877787118A108A138A81
:100BD000128A81E0808F9F5F9093BB04089580E02C
:100BE00008959091BB04891748F499E1899FF00119
:100BF0001124E454FB4F80899189089590E080E0AE
:100C00000895CF92DF92EF92FF920E94000BC09066
:100C1000AF04D090B004E090B104F090B2046C192D
:100C20007D098E099F09683E73408105910510F08A
:100C30000E94C1042091B3043091B4044091B504E2
:100C40005091B604C090B704D090B804E090B904B5
:100C5000F090BA04C20ED31EE41EF51E80E0C1144B
:100C6000D104E104F10449F0A4E6B0E00E944E1E74
:100C7000A70196010E94E91D822FFF90EF90DF905F
:100C8000CF9008958091AE040895089563E083E0C5
:100C90000E940C0A91E0813009F090E080914E06AC
:100CA00090FB81F980934E060E94E8100E94781113
:100CB00082309105E1F130F5019781F10E946A18C7
:100CC00060E08330910531F08230910511F0049796
:100CD000C1F561E081E00E948B110E949218882387
:100CE00099F181E00E94A3110E9481180E94AB112A
:100CF0000E94811190914E06882341F19E7F90932E
:100D00004E06089583309105A9F00497B9F60E9424
:100D10005A198111D3CF84E590E006C00E949E1835
:100D20008111CCCF87E690E00E943A12C7CF0E9493
:100D30002719C4CF0E9436198111C0CF8FE590E0EA
:100D4000F3CF60E080E0C7CF80E0CCCF9160D7CF19
:100D5000EF92FF920F931F93CF93DF93CDB7DEB740
:100D6000A8970FB6F894DEBF0FBECDBF0E94D6196C
:100D70000E9414100E9486109093390680933806C2
:100D800080914E0680FF5DC08091340690913506BB
:100D9000BC018DE596E00E94331D8DE596E00E9432
:100DA000571D909337068093360620913806309170
:100DB0003906821B930B90933B0680933A066CE6B0
:100DC00076E084E396E00E948E1B8C01009709F484
:100DD00054C01F938F938DE193E09F938F93CE0127
:100DE00001967C019F938F930E94E41EC7010E948D
:100DF000A60BC8010E94541B0E94D20F0F900F90A7
:100E00000F900F900F900F9080915505909156057F
:100E10008017910749F064E376E0C8010E94371714
:100E20001093560500935505A8960FB6F894DEBFAB
:100E30000FBECDBFDF91CF911F910F91FF90EF902B
:100E400008950E94C40C9093350680933406A0CF79
:100E500040913806509139066091360670913706F8
:100E600083E296E00E940B040E94A90F809148063D
:100E7000909149060E94880FD7CF10925605109284
:100E800055050E9486188111E3CF83E296E00E9407
:100E90006E0490E080E0E8CFEF92FF920F931F93F3
:100EA000CF93DF93CDB7DEB7C055D1090FB6F89415
:100EB000DEBF0FBECDBF0E944C0D04E316E0F8016B
:100EC000858796879F938F939F938F9389E790E071
:100ED0009F938F93CE0101967C019F938F930E94E5
:100EE000E41EC7010E94A60B0E94900DF80187879F
:100EF0000FB6F894DEBF0FBECDBFC05BDF4F0FB69D
:100F0000F894DEBF0FBECDBFDF91CF911F910F913F
:100F1000FF90EF90089584E396E00C94ED16CF9344
:100F2000DF930E94080DEC019093400680933F06EA
:100F300060917D0670917E060E94761C80917F06EE
:100F400090918006C817D907C8F082E090E00E940F
:100F5000541B8091570590915805029761F064E306
:100F600076E082E090E00E94371782E090E0909374
:100F7000580580935705DF91CF9108951092580539
:100F800010925705F8CFCF93DF930E94D91CEC0144
:100F90000E949218882361F0809154058C171D06D9
:100FA00079F0C0935405CE01DF91CF910C94020FDC
:100FB0001092540584E396E0DF91CF910C94720E69
:100FC000DF91CF910895CF93DF93CDB7DEB76897C8
:100FD0000FB6F894DEBF0FBECDBFF8948AE0E3E60B
:100FE000F0E0DE01119601900D928A95E1F7CE01B5
:100FF00001960E940C0B789488EC90E00E94B80B4C
:1010000087EB90E00E94B80B80EA96E8A1E0B0E0A0
:101010008B8B9C8BAD8BBE8BCE0143960E94610C5B
:10102000FF24F394FF8A87E0888FCE0147960E94C1
:101030007F02BE01655F7F4F80E00E94BF02BE015C
:10104000655F7F4F81E00E94BF02BE01655F7F4FF9
:1010500082E00E94BF02BE01655F7F4F83E00E9475
:10106000BF020E943F0A0E94D70A80916D009091B2
:101070006E00A0916F00B09170008F87988BA98B44
:10108000BA8B1C861B8603E010E01E870D87CE01FD
:101090000F960E945103CE010B960E94510386EADF
:1010A00090E00E94B80B0E94670E0E94EF0F0E9412
:1010B000B20C0E948B100E9490030E94600F86E980
:1010C00090E00E94B80B84E49DE490936D068093B9
:1010D0006C06F0926E0688EB9BE09093700680930E
:1010E0006F0688EC90E0909372068093710688E515
:1010F00092E0909374068093730684E893E0909353
:1011000076068093750684EF91E09093780680933D
:10111000770680E891E090937A06809379068AE1D9
:1011200090E090937C0680937B0680E49FE190930F
:101130007E0680937D0680E596E4909380068093FA
:101140007F068EE68093810680E29EE4909383067C
:101150008093820688ED96ED9093850680938406B1
:1011600010938706009386061092880610928906CF
:1011700010928A0610928B0610928D0610928C06A1
:1011800010928E061092900610928F061092910681
:101190004AE150E060E871E083E296E00E94EF03EC
:1011A0004FE851E068E270E083E296E00E940504B7
:1011B0008DE596E00E94191D40916F0650917006D2
:1011C00060917106709172068DE596E00E944B1D4C
:1011D0004091750650917606609173067091740681
:1011E0008DE596E00E94511D0E94731B0E944618D7
:1011F000609177067091780690E080E00E946A1B0B
:101200000E9427120E94DF1683ED91E10E94CC0B11
:101210000E944C0D90934206809341060E948804E0
:1012200030E020E04AE050E069E870E086E496E0D3
:101230000E94C50521E030E042E350E06FE870E035
:101240008FE897E00E94C50522E030E044E650E0D8
:1012500067E970E088EA96E00E94C50524E030E086
:101260004AEF50E06FE970E083EC97E00E94C5051B
:1012700023E030E044EF51E063EA70E08CE497E073
:101280000E94C50525E030E048EE53E06FEA70E0CB
:101290008BE897E00E94C50581E790E00E94B80BBB
:1012A0000E94C1040E94DC168823D1F30E944613D9
:1012B000F7CF1F920F920FB60F9211242F933F93E7
:1012C0004F935F936F937F938F939F93AF93BF934E
:1012D000EF93FF9390E080E00E94BC0AC198C09811
:1012E00081E080935905FF91EF91BF91AF919F915C
:1012F0008F917F916F915F914F913F912F910F90BF
:101300000FBE0F901F9018951F920F920FB60F925D
:1013100011242F933F934F935F936F937F938F93FA
:101320009F93AF93BF93EF93FF930E94E50FFF91BD
:10133000EF91BF91AF919F918F917F916F915F914D
:101340004F913F912F910F900FBE0F901F901895C6
:101350008430E0F46830D0F4E82FF0E0EE0FFF1FA7
:10136000E753FF4F0190F081E02D81E090E001C054
:10137000880F6A95EAF79081413029F4892B8083A0
:1013800090E080E0089580958923F9CF81E090E096
:1013900008958430D8F46830C8F441155105B1F08F
:1013A000E82FF0E0EE0FFF1FE754FF4F0190F081B0
:1013B000E02D808190E002C0959587956A95E2F7CF
:1013C0008170FA01808390E080E0089581E090E0F0
:1013D00008958430E0F46830D0F4E82FF0E0EE0FA8
:1013E000FF1FEF53FF4F0190F081E02D81E090E06F
:1013F00001C0880F6A95EAF79081413029F4892B62
:10140000808390E080E0089580958923F9CF81E082
:1014100090E008950C94E909CF93DF931F92CDB724
:10142000DEB71982AE014F5F5F4F0E94C909898103
:101430000F90DF91CF9108958430B8F46830A8F40C
:10144000E82FF0E0EE0FFF1FEF53FF4F0190F08108
:10145000E02D808121E030E001C0220F6A95EAF79B
:101460008227808390E080E0089581E090E00895F5
:1014700091E0411101C090E0492F0C94E90983B734
:101480008F7B83BF83B7886083BF12BE89EF8CBF19
:1014900083B78B7F83BF83B7826083BF83B781604D
:1014A00083BF89B7826089BF90E080E008951F9272
:1014B0000F920FB60F9211242F933F934F935F9388
:1014C0006F937F938F939F93AF93BF93EF93FF930C
:1014D00080915A0590915B05A0915C05B0915D05E6
:1014E0000196A11DB11D80935A0590935B05A093B1
:1014F0005C05B0935D05E0915E05F0915F05309766
:1015000009F00995FF91EF91BF91AF919F918F9154
:101510007F916F915F914F913F912F910F900FBEEF
:101520000F901F9018958FB58E7F8FBD8FB58260FD
:101530008FBD8EB588608EBD8EB580618EBD8FB536
:101540008F7B8FBD8FB580688FBD1DBC1CBC8FE8A5
:1015500091E097BD86BD8EB58B7F8EBD8EB58D7F9C
:101560008EBD8EB581608EBD41E065E083E00E9456
:10157000A80990E080E0089585369105A8F40097C9
:1015800029F41BBC1ABC90E080E008959C01AFE8F0
:10159000B1E00E94381E24E630E040E050E00E94B6
:1015A000E91D3BBD2ABDEFCF81E090E0089585B5F0
:1015B0008F7B85BD85B5886085BD14BC85B584608D
:1015C00085BD85B58D7F85BD85B5816085BD85B5BA
:1015D0008F7D85BD85B5806185BD41E067E083E095
:1015E0000E94A80990E080E008958F3F910509F0DE
:1015F00020F483BD90E080E0089581E090E00895BC
:101600002FB7F89460915A0570915B0580915C0545
:1016100090915D052FBF0895CF93DF93EC01892B47
:1016200009F44CC088819981AA81BB810097A105EA
:10163000B10509F443C09C01AD0184E0220F331FC2
:10164000441F551F8A95D1F760E074E284EF90E063
:101650000E94E91D21503109832F8F7080BD29B967
:101660008E81829580739885990F990F990F987044
:10167000892B80689C81990F9670892B80BD8C8105
:101680009D810797C9F4529A539A549A579A109287
:1016900079051092780510927705109276051092D0
:1016A000650510926405109263051092620590E042
:1016B00080E0DF91CF9108955298E6CF81E090E0ED
:1016C000F8CF20917805309179052F5F3F4F2F712A
:1016D0003327409176055091770542175307C9F398
:1016E0009FB7F894E0917805F0917905E658FA4FA4
:1016F000808330937905209378059FBF559A90E0B9
:1017000080E008954FB7F8942091780530917905DD
:101710002F5F3F4F2F7133276091760570917705CA
:101720006217730781F0E0917805F0917905E6582A
:10173000FA4F80833093790520937805559A90E08D
:1017400080E04FBF089581E090E0FBCFCF93DF931F
:10175000EC01892B29F481E090E007C00E94610B25
:1017600089918111FBCF90E080E0DF91CF910895C6
:10177000CF93DF93EC01892B29F481E090E009C03D
:101780000E94610BFE01849121968111F9CF90E0B6
:1017900080E0DF91CF910895009741F0909361052B
:1017A00080936005579A90E080E0089581E090E092
:1017B00008950C94A60B0C94B80B1F920F920FB6C1
:1017C0000F9211242F933F934F935F936F937F93C7
:1017D0008F939F93AF93BF93EF93FF938CB120911F
:1017E0006405309165052F5F3F4F2F70332740917F
:1017F0006205509163054217530759F0E091640563
:10180000F0916505EA59FA4F80833093650520937E
:101810006405E0916005F0916105309709F0099544
:10182000FF91EF91BF91AF919F918F917F916F91B8
:101830005F914F913F912F910F900FBE0F901F908E
:1018400018951F920F920FB60F9211242F933F936A
:101850008F939F93EF93FF932091780530917905B3
:10186000809176059091770528173907F1F0E0917E
:101870007605F0917705E658FA4F2081809176053C
:101880009091770501968F719927909377058093B2
:1018900076052CB9FF91EF919F918F913F912F91F8
:1018A0000F900FBE0F901F9018955598F3CF88E4B6
:1018B00080B90898099886B7846086BF90E080E078
:1018C00008950C94570C84EA86BF90E080E006B639
:1018D00007FE08C021B1287F81E090E0283049F45C
:1018E00080E008950196813127E2920781F781E037
:1018F00090E0089584E986BF90E080E0089583B980
:1019000084E886BF90E080E006B607FE0CC021B1F7
:10191000287F283181F0283271F081E090E0203476
:1019200049F480E008950196813127E2920761F73A
:1019300081E090E0089580E0FCCFCF93DF93D82F33
:10194000C62F0E94630C009741F48D2F880FC17041
:101950008C2BDF91CF910C947F0CDF91CF91089568
:101960000C947F0CCF93DF9300D0CDB7DEB781E02E
:10197000898387E08A83CE0101960E947F020F90BF
:101980000F90DF91CF9108950F931F93CF93DF9323
:10199000CDB7DEB7AA970FB6F894DEBF0FBECDBFA6
:1019A0001AA619A6BE01675D7F4F80E00E94BF02A4
:1019B0008AA58F9389A58F9381ED90E09F938F9354
:1019C0008E010F5F1F4F1F930F930E94E41EC801EB
:1019D0000E94A60B29A53AA5A8EBBBE00E94381EE1
:1019E0000F900F900F900F900F900F902FEF33E00C
:1019F00040E050E00E94E91DC901AA960FB6F89494
:101A0000DEBF0FBECDBFDF91CF911F910F91089523
:101A10000F931F93CF93DF93CDB7DEB7A2970FB687
:101A2000F894DEBF0FBECDBF1AA219A2BE016F5D32
:101A30007F4F81E00E94BF028AA18F9389A18F937B
:101A400084ED90E09F938F938E010F5F1F4F1F9344
:101A50000F930E94E41EC8010E94A60B29A13AA17F
:101A6000A0E2BEE40E94381E0F900F900F900F90DE
:101A70000F900F902FEF33E040E050E00E94E91DFF
:101A8000C901A2960FB6F894DEBF0FBECDBFDF919D
:101A9000CF911F910F9108950F931F93CF93DF93D1
:101AA000CDB7DEB7AA970FB6F894DEBF0FBECDBF95
:101AB0001AA619A6BE01675D7F4F82E00E94BF0291
:101AC0008AA58F9389A58F9384ED90E09F938F9340
:101AD0008E010F5F1F4F1F930F930E94E41EC801DA
:101AE0000E94A60B29A53AA5A0E6BAEE0E94381ED0
:101AF0002FEF33E040E050E00E94E91D0F900F907F
:101B00000F900F900F900F90C901AA960FB6F894FE
:101B1000DEBF0FBECDBFDF91CF911F910F91089512
:101B2000CF93DF9300D0CDB7DEB71A821982BE0102
:101B30006F5F7F4F83E00E94BF0229813A81A6E94F
:101B4000B0E00E94381E2FEF33E040E050E00E94EA
:101B5000E91D822F0F900F90DF91CF910895CF93C1
:101B6000DF93009731F4C1E0D0E0CE01DF91CF9157
:101B70000895C62F60E0FC0180810E949D0C892B96
:101B800091F780E00E94B00C892B19F00E947A0C2A
:101B9000EACF8C2F0E94B00CEC01892BB9F70E9480
:101BA0007A0CE3CF0F931F93CF93DF93009741F409
:101BB00001E010E0C801DF91CF911F910F910895CE
:101BC00061157105A9F3EB0160E0FC0180810E94C1
:101BD0009D0C892B69F780E40E94B00C8C01892B45
:101BE00051F48991811103C00E947A0CE3CF0E94C5
:101BF000B00C892BB1F30E947A0CDACFCF93DF932C
:101C000000D0CDB7DEB7198220E42A83009799F07F
:101C1000FC012181621778F42281421760F4FE01F1
:101C2000E60FF11D6181640F60680F900F90DF91E6
:101C3000CF910C94AF0D81E090E00F900F90DF9169
:101C4000CF9108950F931F93CF93DF93EC018901F8
:101C50000E94FE0D892B41F4B801CE01DF91CF9196
:101C60001F910F910C94D20D81E090E0DF91CF9104
:101C70001F910F91089561E00C94AF0DCF93DF9306
:101C8000009729F481E090E0DF91CF910895EC0175
:101C900068E30E94AF0D892BA9F784E0809361006F
:101CA0006CE0CE010E94AF0D892B61F7CE010E943E
:101CB0003B0E892B39F766E0CE010E94AF0D31E073
:101CC00020E0892B09F430E0832F922FDDCFEDE95E
:101CD000F5E08EE3808382E0818380E18283CF011F
:101CE0000C943E0EEF92FF920F931F93CF93DF93CE
:101CF000CDB7DEB7A6970FB6F894DEBF0FBECDBF47
:101D0000FC0181E090E0309709F46BC084899589EB
:101D10008130910509F474C0029709F06FC092E513
:101D20008F011F929F9385818F9384818F938381ED
:101D30008F9382818F938DED90E09F938F937E019F
:101D400086E1E80EF11CFF92EF920E94E41ED8019A
:101D50001B96ED91FC911C971F968C911F971F92DB
:101D60008F931D968D919C9128EE33E0B9010E94CE
:101D7000D51D7F936F93CF0164E670E00E94D51D5F
:101D8000CB016AE070E00E94D51D9F938F93CF0135
:101D9000B9010E94D51D7F936F93F80182851F9230
:101DA0008F938FEE90E09F938F938E010F5F1F4F65
:101DB0001F930F930E94E41E970140E060E08DE9BD
:101DC00095E00E94220E980140E061E08DE995E0E7
:101DD0000E94220E0FB6F894DEBF0FBECDBF90E07A
:101DE00080E0A6960FB6F894DEBF0FBECDBFDF91A0
:101DF000CF911F910F91FF90EF9008959DE290CFAA
:101E000096E48ECF0F931F93CF93DF93CDB7DEB7BA
:101E100061970FB6F894DEBF0FBECDBF182F092F04
:101E200080919B0590919C05019686309105B8F5AF
:101E300090939C0580939B0527E031E040E060E0B3
:101E40008DE995E00E94220E80919A05882399F1F0
:101E50000F931F9388E191E09F938F938E010F5F03
:101E60001F4F1F930F930E94E41E980140E061E012
:101E70008DE995E00E94220E0F900F900F900F9029
:101E80000F900F9090E080E061960FB6F894DEBF5F
:101E90000FBECDBFDF91CF911F910F91089510928A
:101EA0009C0510929B0581E090919A05911180E02C
:101EB00080939A05C1CF84E396E00E94720EE2CF30
:101EC0008091A005811121C041E060E081E00E9485
:101ED000A80941E061E081E00E94A80940E060E0DB
:101EE00081E00E940A0A40E061E081E00E940A0A63
:101EF0000E94930A90E080E00E94BC0A1092A20522
:101F00001092A10581E08093A00590E080E0089503
:101F10008130910549F00297A1F040E060E081E056
:101F20000E940A0A40E013C040E061E081E00E94A4
:101F30000A0A41E060E081E00E940A0A90E080E045
:101F4000089540E060E081E00E940A0A41E061E01B
:101F5000F2CF2091A1053091A205232B29F41BBCBF
:101F60001ABC90E080E008959C01203981E0380798
:101F700010F02FE831E03BBD2ABDF3CF81E090E0C7
:101F80009093A2058093A10590E080E008951092BF
:101F9000A2051092A10590E080E00E94BC0A90E0AA
:101FA00080E0089590E080E00E94BC0A40E060E09C
:101FB00081E00E940A0A40E061E081E00E940A0A92
:101FC0001092A2051092A10508958091A505909107
:101FD000A60501969093A6058093A5050895CF9335
:101FE000DF9300D000D0CDB7DEB71092A6051092D7
:101FF000A5051092A4051092A3051A82198283E008
:1020000090E09C838B83CE0101960E94510365EE84
:102010007FE090E080E00E947D030F900F900F9092
:102020000F90DF91CF9108958F929F92AF92BF92C0
:10203000EF92FF920F931F93CF93DF93CDB7DEB74D
:10204000C055D1090FB6F894DEBF0FBECDBFF894CE
:102050000091A5051091A6051092A6051092A50560
:102060007894F12CE12C0430110530F08CE3809F42
:102070007001819FF00C1124A091A305B091A405DB
:1020800023E030E00E94471E47010F2C000CAA08F5
:10209000BB08680D791D8A1D9B1D24E030E040E0DF
:1020A00050E00E940B1E3093A4052093A30580915D
:1020B000A3059091A4059F938F93FF92EF921F9396
:1020C0000F9386E291E09F938F938E010F5F1F4FD6
:1020D0001F930F930E94E41EC8010E94A60B0FB627
:1020E000F894DEBF0FBECDBFC05BDF4F0FB6F894D4
:1020F000DEBF0FBECDBFDF91CF911F910F91FF903B
:10210000EF90BF90AF909F908F9008958091A3051E
:102110009091A405089540E065E082E00E94A8093E
:1021200040E066E082E00E94A80940E067E082E0CB
:102130000E94A80940E066E083E00E94A80940E010
:1021400064E083E00E94A80941E065E082E00E942B
:10215000380A41E066E082E00E94380A41E067E028
:1021600082E00E94380A41E066E083E00E94380A7B
:1021700041E064E083E00E94380A41E063E081E0EE
:102180000E94A80941E062E082E00E94A80941E0C3
:1021900063E082E00E94A80941E064E082E00E94DE
:1021A000A80940E063E081E00E94E90940E062E0C4
:1021B00082E00E94E90940E063E082E00E94E909D0
:1021C00040E064E082E00E94E90990E080E0089548
:1021D000EF92FF920F931F93CF93DF93CDB7DEB7AC
:1021E0002C970FB6F894DEBF0FBECDBF65E082E03E
:1021F0000E940C0AF82E66E082E00E940C0A082F6A
:1022000067E082E00E940C0A182F66E083E00E94DB
:102210000C0A91E0F11090E0998791E0011190E0B3
:102220009A8791E0111190E09B8791E0811190E0F5
:102230009C8788E0E1E7F0E0DE01119601900D92C5
:102240008A95E1F74091B4055091B505BE01675FED
:102250007F4FE8EAEE2EE5E0FE2EECEAF5E090E0B6
:1022600080E0DB012D91BD01D7013D917D01231758
:10227000E1F010828D0101501109D8012C930196D3
:1022800031968430910569F75093B5054093B405B4
:102290002C960FB6F894DEBF0FBECDBFDF91CF9165
:1022A0001F910F91FF90EF9008952130D1F430816C
:1022B0003F5F3083353018F38C0100551A4FD80139
:1022C0003C913111DCCF2C939C01220F331F41E054
:1022D00050E04C0F5D1F240F351FD9014D915C91CB
:1022E000CECF10829C0120553A4FD9011C92C7CF06
:1022F0008091B4059091B5051092B5051092B40582
:10230000089564E083E00E940C0A91E0813009F0B6
:1023100090E0892F0895662371F08091A7058F5F63
:102320008A3018F48093A70508951092A70563E0FA
:1023300081E00C941C0A41E0811101C040E063E09F
:1023400081E00C94E90941E0811101C040E062E0C4
:1023500082E00C94E9098130910521F0029749F05F
:1023600040E001C041E063E082E00E94E90940E012
:1023700006C040E063E082E00E94E90941E064E0D9
:1023800082E00C94E909009761F0FC01208122238E
:1023900041F08191811102C081E0089580538A301B
:1023A000C0F380E00895CF93C82F8091E90588237A
:1023B00019F08C2F0E94820BE091E705C83011F0D4
:1023C000CF3781F4EE23A9F1E150E093E705F0E087
:1023D000E953FA4F108280E20E94820B88E0CF918D
:1023E0000C94820BCD3011F0CA30C9F4EE2361F0A9
:1023F000F0E0E953FA4F108281E08093E8058DE028
:102400000E94820B8AE0EBCF8DE00E94820B8AE073
:102410000E94820B8EE30E94820B80E2E0CFEF31BC
:1024200040F481E08E0F8093E705F0E0E953FA4F26
:10243000C083CF9108950E94D90B8CE991E00C9450
:10244000D90B0E94DB0B8CE991E00C94D90BE7ECE3
:10245000F5E010A211A281E082A380E2DF011D92CB
:102460008A95E9F78DE994E00E94211280E894E0D2
:102470000C942112CF93DF93EC018DE293E00E9444
:10248000DB0BCE010E94DB0B8AE293E0DF91CF9160
:102490000C94DB0B7F928F929F92AF92BF92CF9260
:1024A000DF92EF92FF920F931F93CF93DF93CDB7FD
:1024B000DEB7C058D1090FB6F894DEBF0FBECDBF4E
:1024C0008C01FC0183A074A0C78CB0A0A1A092A035
:1024D0000E94E31CD82EF801F08CE18C0E946F184A
:1024E000F801248935892130310509F470C0223082
:1024F000310509F46EC02DE27F928F929F92AF92C8
:10250000BF92CF921F92DF92EF92FF929F938F9391
:102510001F922F93F80187851F928F9386858F9343
:1025200085858F9384858F9383858F9382851F9272
:102530008F9385818F9384818F9383818F93828101
:102540008F9381E491E09F938F938E010F5F1F4FD4
:102550001F930F930E94E41E0FB6F894DEBF0FBEC8
:10256000CDBF81E020E0F801E80FF11D90819111CD
:1025700032C0F80101900020E9F7CF011F922F939C
:102580002CE831E03F932F9301979F938F930E9404
:10259000E41EC8010E94D90B0F900F900F900F906E
:1025A0000F900F90C058DF4F0FB6F894DEBF0FBEEC
:1025B000CDBFDF91CF911F910F91FF90EF90DF90F2
:1025C000CF90BF90AF909F908F907F90089526E41A
:1025D00093CF22E591CF29278F5FC5CFCF93DF938C
:1025E000EC0184E991E00E94D90BCE010E94D90B45
:1025F0008CE991E0DF91CF910C94D90B8DE093E0C1
:102600000E9421128EEE92E00E94211284EC92E050
:102610000E94211289EA92E00E94211289E792E049
:102620000E94211284E592E00E94211281E392E04F
:102630000E94211282E192E00E9421128FEE91E02D
:102640000E9421128BEC91E00E9421128AEA91E013
:102650000E94211289E891E00E9421128BE691E00C
:102660000E9421128CE491E00E9421128AE291E002
:102670000E94211284E091E00E94211285EE90E0F8
:102680000E94211284EE90E00C942112EF92FF92AE
:102690000F931F93CF93DF93CDB7DEB7C058D10907
:1026A0000FB6F894DEBF0FBECDBF8091E80588233A
:1026B00079F11092B6056AE971E087EC95E00E9425
:1026C000771EF090B605009719F027E02F1570F5EA
:1026D0001092E805FF2079F00091B7051091B80538
:1026E0006FE971E0C8010E947C1E892B81F584E3AB
:1026F00096E00E944A121092E705E7ECF5E080E2CE
:10270000DF011D928A95E9F788ED92E00E94D90BCE
:10271000C058DF4F0FB6F894DEBF0FBECDBFDF91BC
:10272000CF911F910F91FF90EF90089521E02F0D11
:102730002093B605EF2DF0E0EE0FFF1FE954FA4F9E
:10274000918380836AE971E090E080E0B8CF66EA27
:1027500071E0C8010E947C1E892B01F580914E0614
:1027600080FD05C08FE694E00E943A12C4CF0E941B
:102770009218882319F083E694E0F6CF0E949E1801
:10278000882349F080E694E00E9421128AEA91E0D1
:102790000E94EE12B0CF86E594E0E6CF69E274E0E5
:1027A000C8010E947C1E892B71F40E94271988237E
:1027B00039F083E594E00E94211287EB91E0E8CFA5
:1027C0008AE494E0D1CF63EC71E0C8010E947C1EE2
:1027D000892BA9F480914E0680FD03C081E494E02A
:1027E000C3CF0E943619882339F08EE394E00E940B
:1027F000211287EC91E0CCCF86E394E0B5CF65E879
:1028000074E0C8010E947C1E892B09F05BC081E046
:102810008F1510F562EB72E08091B9059091BA05C1
:102820000E947C1E892BC1F4809139068F93809180
:1028300038068F93809137068F93809136068F9359
:1028400086ED91E09F938F938E010F5F1F4F1F9333
:102850000F930E94E41EBBC080914E0680FD03C012
:102860008DE294E081CFB1E084E294E0BF1508F0FE
:102870007BCF0091B9051091BA05C8010E94C31120
:10288000811103C08AE194E06FCFC8010E94591EF4
:1028900097FD07C020916F06309170062817390701
:1028A00018F480E194E060CF90933506809334066D
:1028B000BC018DE596E00E94331D8DE094E00E94FE
:1028C000211219CF62EE71E0C8010E947C1E892B93
:1028D00029F5809148069091490681309105D1F003
:1028E0000297D1F482E51F928F9387EE91E09F9338
:1028F0008F938E010F5F1F4F1F930F930E94E41E53
:10290000C8010E941B120F900F900F900F900F9014
:102910000F90F1CE86E4E7CF8DE2E5CF6EEE71E069
:10292000C8010E947C1E892B09F05AC0809185063F
:102930008F93809184068F93809183068F938091EB
:1029400082068F93809181061F928F9380918006DB
:102950008F9380917F068F9380917E068F938091D5
:102960007D068F9380917C068F9380917B068F9359
:1029700080917A068F93809179068F938091780663
:102980008F93809177068F93809176068F938091B5
:1029900075068F93809174068F93809173068F9341
:1029A000809172068F93809171068F93809170064B
:1029B0008F9380916F068F9383EF91E09F938F9316
:1029C0008E010F5F1F4F1F930F930E94E41EC801DB
:1029D0000E941B120FB6F894DEBF0FBECDBF8BCE88
:1029E0006BE172E0C8010E947C1E892B09F026C1B0
:1029F00092E09F1560F40091BB051091BC05C801E1
:102A00000E94C311811106C08AEF93E0ADCE84E02D
:102A100094E0AACEE090B905F090BA05C8010E94F2
:102A2000591E8C016FE172E0C7010E947C1E892B48
:102A300081F4C801845F91408D37954118F080EF93
:102A400093E092CE1093700600936F068DEE93E0A4
:102A500036CF66E272E0C7010E947C1E892B79F4B2
:102A6000C801C297873B934018F083EE93E07CCE79
:102A7000109372060093710680EE93E020CF6DE212
:102A800072E0C7010E947C1E892BC9F4C8018456DC
:102A9000910985359B4018F086ED93E065CE109343
:102AA0007406009373064091750650917606B8013E
:102AB0008DE596E00E94511D83ED93E000CF63E326
:102AC00072E0C7010E947C1E892BC9F4C80184569C
:102AD000910985359B4018F089EC93E045CE109321
:102AE0007606009375066091730670917406A801CE
:102AF0008DE596E00E94511D86EC93E0E0CE69E3FF
:102B000072E0C7010E947C1E892BB1F4C801885C69
:102B100091098930974018F08CEB93E025CE109303
:102B2000780600937706B801110F880B990B0E9465
:102B30006A1B89EB93E0C3CE62E472E0C7010E9496
:102B40007C1E892BB9F48FEA93E0013020E1120753
:102B500008F00ACE10937A060093790640917B061E
:102B600050917C06B80183E296E00E9478048CEADA
:102B700093E0A5CE65E472E0C7010E947C1E892B1C
:102B8000B9F4013082E0180718F082EA93E0ECCD46
:102B900010937C0600937B066091790670917A060B
:102BA000A80183E296E00E9478048FE993E087CE43
:102BB00068E472E0C7010E947C1E892B81F4C80181
:102BC000885E9340813B964318F085E993E0CCCD35
:102BD00010937E0600937D0682E993E070CE6EE44A
:102BE00072E0C7010E947C1E892B89F480917D06CA
:102BF00090917E068017910718F088E893E0B4CD95
:102C00001093800600937F0685E893E058CE64E534
:102C100072E0C7010E947C1E892B69F4C801CC9721
:102C20008135910518F08BE793E09ECD00938106E6
:102C300088E793E044CE8EE693E096CD62E974E0B7
:102C4000C8010E947C1E892B91F40E945A19882386
:102C500039F08BE693E00E9421128DE592E098CD49
:102C600080E693E00E943A1284E692E091CD67E715
:102C700072E0C8010E947C1E892B91F40E94D91C2D
:102C80008C01892B19F40E94DE1C8C01C8010E9462
:102C90000B1D9F938F931F930F938DE792E0D2CDDF
:102CA00068E872E0C8010E947C1E892B59F48FE409
:102CB00093E00E94211284E493E00E94211288E3B1
:102CC00093E0FDCD6FE872E0C8010E947C1E892B65
:102CD00091F560915306709154068091550690913C
:102CE0005606209158062F93209157062F9320E1E6
:102CF0003EE040E050E00E94E91D122F032FF42E29
:102D0000E52E2CE330E040E050E00E94E91D5F93A7
:102D10004F933F932F93EF92FF920F931F9386E968
:102D200092E09F938F938E010F5F1F4F1F930F931E
:102D30000E94E41E4CCE6EEA72E0C8010E947C1E26
:102D4000892BF9F483E296E00E948404182F092F5E
:102D500083E296E00E947E040F931F939F938F93CC
:102D60007F936F9380917C068F9380917B068F93E6
:102D700080917A068F93809179068F9384EB92E00D
:102D8000D0CF66EC72E0C8010E947C1E892B39F41A
:102D900085E393E00E9421128BEC92E0F9CC63ED85
:102DA00072E0C8010E947C1E892B19F40E94FE1259
:102DB000A2CC88E794E0D8CC8091E805089581E022
:102DC000809362000E94000B6093ED057093EE0506
:102DD0008093EF059093F0050895CF92DF92EF92E4
:102DE000FF92CF93DF930097A1F0209162002223FE
:102DF00081F0EC018E899F890897029788F4809171
:102E0000EA05811106C0CE010E944A1281E080933A
:102E1000EA05DF91CF91FF90EF90DF90CF9008957A
:102E20001092EA050E94000B6B017C018091ED0578
:102E30009091EE05A091EF05B091F005A7019601E4
:102E4000281B390B4A0B5B0BDA01C901883E934002
:102E5000A105B105F0F2CE010E944A12C092ED0523
:102E6000D092EE05E092EF05F092F005D2CFCF922E
:102E7000DF92EF92FF920F931F93CF93DF93CDB723
:102E8000DEB7C054D1090FB6F894DEBF0FBECDBF78
:102E90002091EB053091EC052817390759F17B019A
:102EA0008C019093EC058093EB050E94E31CC82EE7
:102EB000F701D384F484C8010E940B1D1F92CF92A6
:102EC000FF92DF929F938F938BED92E09F938F936E
:102ED0001F9280E48F938E010F5F1F4F1F930F93FC
:102EE0000E94B41EC8010E94EE120FB6F894DEBF15
:102EF0000FBECDBFC05CDF4F0FB6F894DEBF0FBE74
:102F0000CDBFDF91CF911F910F91FF90EF90DF9098
:102F1000CF900895CF93DF93EC012091F10530918C
:102F2000F2052330310521F5809153069091540626
:102F3000A0915506B091560640914F06509150060B
:102F40006091510670915206840F951FA61FB71FFE
:102F50008093530690935406A0935506B09356065B
:102F600010924F061092500610925106109252067F
:102F70003093F4052093F305D093F205C093F10547
:102F80001092FE051092FF051092000610920106A5
:102F9000C430D10509F455C048F5C130D105C1F19F
:102FA000C230D10509F046C08091F7059091F8052F
:102FB000909349068093480683E296E00E946E044F
:102FC0008DE596E00E94BE1D8091570690915806AF
:102FD0000196909358068093570610920606109219
:102FE0000706109208061092090624C0C530D105C4
:102FF00021F0CE0107970397E8F41092490610924A
:10300000480610923D0610923C0610923E0612C0F1
:10301000109249061092480610923D0610923C0606
:1030200010923E0683E296E00E946E048DE596E0E3
:103030000E94BE1DD0934B06C0934A06DF91CF91EC
:10304000089570E060E08DE596E00E94331DF2CFB8
:103050008091F1059091F2058530910550F4029729
:1030600068F08091F7059091F8050E94880F0C9404
:10307000BE0F8530910511F0079731F490E080E0A4
:103080000E94880F0C94C70F0C94D20FE1EFF5E06B
:103090001182108213821282178216821186108684
:1030A000128613861486158616861786108A84EF74
:1030B00091E0A0E0B0E0818B928BA38BB48B158A5A
:1030C000168A178A108E118E128E138E148E81E03E
:1030D000858F08958091F1059091F2050895809172
:1030E000F1059091F2058A30910540F4880F991FFF
:1030F000FC01E25DFB4F8081918108958FEE92E0AB
:1031000008958091F7059091F80508952091F105B3
:103110003091F2052250310981E02230310508F06A
:1031200080E008952091F1053091F2052850310991
:1031300081E02230310508F080E008950F931F935D
:10314000CF93DF93CDB7DEB7C055D1090FB6F89452
:10315000DEBF0FBECDBF80914E0681701F928F9350
:1031600084EF92E09F938F938E010F5F1F4F1F9309
:103170000F930E94E41EC8010E94A60B80914E0688
:103180000F900F900F900F900F900F9080FD06C042
:103190000E94C40C90933506809334060E94D91C7B
:1031A0009F938F93809172068F93809171068F9376
:1031B000809135068F93809134068F938091F2052C
:1031C0008F938091F1058F9380E093E09F938F938D
:1031D0001F930F930E94E41EC8010E94A60B0FB616
:1031E000F894DEBF0FBECDBF0091F1051091F2053E
:1031F0008EEB93E00130110569F420913406309193
:10320000350680917106909172062817390788F467
:1032100087E293E00E94A60B80E0C05BDF4F0FB611
:10322000F894DEBF0FBECDBFDF91CF911F910F91FC
:10323000089584E393E00E94A60B1093F805009391
:10324000F70582E090E00E948A1781E0E6CF809146
:10325000F1059091F2050297029730F484E090E036
:103260000E948A1781E0089580E008958091F10519
:103270009091F2050397E1F48091FB05811118C04C
:103280008091F7059091F805019779F482E090E03C
:103290009093FA058093F90581E08093FB0584E023
:1032A00090E00E948A1781E0089581E090E0F0CFDD
:1032B00080E008950F931F93CF93DF93CDB7DEB7D0
:1032C000C055D1090FB6F894DEBF0FBECDBF109127
:1032D0004E06169511700E94D91C1F921F939F9342
:1032E0008F938091F2058F938091F1058F938FE3F7
:1032F00093E09F938F938E010F5F1F4F1F930F9348
:103300000E94E41EC8010E94A60B8091F1059091D5
:10331000F2050FB6F894DEBF0FBECDBF8830910521
:1033200019F50E94D91C892BC9F484E693E00E9408
:10333000A60B1092FC050E94CD1C81E090E00E943B
:103340008A1781E0C05BDF4F0FB6F894DEBF0FBE77
:10335000CDBFDF91CF911F910F91089585E793E045
:103360000E94A60B80E0EECF099761F480914E0693
:1033700081FD05C08EE893E00E94A60BDECF85EAB2
:1033800093E0EECF88EB93E0EBCF8091F105909145
:10339000F205099749F081E08093FD0589E090E00E
:1033A0000E948A1781E0089580E00895AF92BF924D
:1033B000CF92DF92EF92FF920F931F93CF93DF9301
:1033C000CDB7DEB7C456D1090FB6F894DEBF0FBE35
:1033D000CDBF80910E06811114C00E944618CC59B1
:1033E000DF4F0FB6F894DEBF0FBECDBFDF91CF9198
:1033F0001F910F91FF90EF90DF90CF90BF90AF9013
:1034000008958091FE059091FF05A0910006B0916E
:1034100001068C599F4FAF4FBF4F8093FE0590938D
:10342000FF05A0930006B0930106E091F105F0912D
:10343000F20520914E0621FF26C1399711F00E9416
:10344000C5190E942818CBCF80918F0690919006C5
:10345000892B19F481E090E002C088E090E00E949E
:103460008A17EFCF10923D0610923C0610923E064E
:10347000E8CFD0900606C0900706B0900806A0904E
:103480000906E0903806F090390600913606109152
:1034900037068DE596E00E94BB1DAF92BF92CF929A
:1034A000DF929701201B310B37FF03C03195219527
:1034B00031093F932F93FF92EF921F930F931F9227
:1034C0008F938BEC93E09F938F938E010F5F1F4F31
:1034D0001F930F930E94E41EC8010E94A60B8DE566
:1034E00096E00E94BB1D0FB6F894DEBF0FBECDBFA5
:1034F000882309F445C080913806909139062091BF
:10350000360630913706821B930B86509F4F853FBE
:103510009140B0F58091060690910706A0910806AB
:10352000B091090684319105A105B105C0F4019659
:10353000A11DB11D8093060690930706A09308066F
:10354000B09309068091060690910706A09108069F
:10355000B09109064497A105B10508F472CF8BEF2D
:1035600093E00E94A60B83E090E00E948A171092DD
:10357000060610920706109208061092090661CFFF
:103580008FEE93E00E94A60B8091060690910706AD
:10359000A0910806B09109060097A105B10509F4AC
:1035A00050CF0197A109B109C5CF209134063091C0
:1035B000350680917106909172062817390708F038
:1035C00040CF0E9427193DCF80913806909139064F
:1035D0001816190604F180910A0690910B06A09125
:1035E0000C06B0910D060196A11DB11D80930A062F
:1035F00090930B06A0930C06B0930D060397A105BC
:10360000B10508F41ECF8091FB05882369F085E0A1
:1036100090E00E948A1710920A0610920B061092F0
:103620000C0610920D060DCF87E090E0F2CF40918E
:1036300002065091030660910406709105068417F6
:103640009507A607B70708F4FCCE8091F90590917D
:10365000FA059093F8058093F7051092FB0582E038
:1036600090E0FDCE843F9140A105B10508F4E9CE7C
:10367000F1CE0E94D91C892B09F0E3CE10924D06A1
:1036800010924C06E7CEE930F10508F0DACEE55BA2
:10369000F44E0C942A1E241A321A391AD51AE41A36
:1036A000171B211A321B391B2091F1053091F205AD
:1036B0002830310569F021E02093FC0590934D06F8
:1036C00080934C0688E090E00E948A1781E008957C
:1036D00080E00895609302067093030680930406C9
:1036E000909305060895EFE0F6E0118210821382B0
:1036F000128214821582168217821086118680E843
:103700009EEEA6E3B0E082879387A487B5871686EE
:103710001786108A118A128A138A0895CF92DF922F
:10372000EF92FF920F931F93CF93DF93CDB7DEB746
:10373000A8970FB6F894DEBF0FBECDBF8C017B01FA
:10374000FC0185859685FB01208D318D2817390771
:10375000B8F43F932F939F938F9382E494E09F93C9
:103760008F93CE0101966C019F938F930E94E41E6C
:10377000C6010E94A60B0FB6F894DEBF0FBECDBFE8
:10378000F801828D81FD93C023853485F7018389FB
:1037900094892817390708F094C040911506509174
:1037A000160660911706709118068091190690917F
:1037B0001A06A0911B06B0911C06481759076A0704
:1037C0007B0708F081C0F8019785F7018589981774
:1037D00008F45EC080911D068F5F80931D068431C2
:1037E00008F075C0F80125853685F701808D918D2B
:1037F0008217930708F04FC080911F068F5F809358
:103800001F06823008F066C0F801428524813581A8
:10381000433308F443C0243631050CF03FC0809197
:1038200020068F5F809320068E3108F056C0F80185
:10383000808191818C509E4F8217930794F58091DF
:1038400021068F5F809321068A3008F049C04531F8
:1038500058F1232B49F5809122068F5F8093220631
:10386000843108F040C01092100610920F0690E0CC
:1038700080E0A8960FB6F894DEBF0FBECDBFDF91F3
:10388000CF911F910F91FF90EF90DF90CF9008950F
:1038900010921D06A7CF10921F06B6CF10922006D9
:1038A000C6CF10922106D3CF10922206DCCF81E042
:1038B00090E09093100680930F0621E0209313066A
:1038C000D8CF82E090E0F5CF83E090E0F2CF84E0C3
:1038D00090E0EFCF86E090E0ECCF87E090E0E9CF9A
:1038E00088E090E0E6CF89E090E0E3CF8F929F926E
:1038F000AF92BF92CF92DF92EF92FF92B0E0A0E042
:103900006C017D01C61AD70AE108F108A7019601EA
:10391000C701B6010E94C51D80901506909016063D
:10392000A0901706B09018061C141D041E041F0456
:10393000DCF428EE33E040E050E00E940B1E820EE3
:10394000931EA41EB51E8092150690921606A09294
:103950001706B0921806FF90EF90DF90CF90BF90BF
:10396000AF909F908F90089520EA3FE040E050E0B4
:103970000E940B1E281539054A055B0528F4821A9A
:10398000930AA40AB50ADFCF109215061092160604
:103990001092170610921806DECFEFE0F6E01482C0
:1039A0001182108216861786108A118A128A138A4B
:1039B000089580910F069091100608958091110648
:1039C000909112060895CF92DF92EF92FF92C090ED
:1039D0001906D0901A06E0901B06F0901C0680E0B5
:1039E000C114D104E104F10489F02091150630914D
:1039F00016064091170650911806A4E6B0E00E9402
:103A00004E1EA70196010E94E91D822FFF90EF90A4
:103A1000DF90CF9008958A30910540F4880F991F68
:103A2000FC01EA56FB4F80819181089582E594E084
:103A30000895FC0111821082138212821582148271
:103A400088E592E09783868384E893E09187808776
:103A500088EC90E09387828788EB9BE0958784874A
:103A600081E086870895FC011616170624F011825E
:103A70001082168608959485858522853385621780
:103A8000730734F0292F382F621773070CF49B014A
:103A900031832083EECFFC0173876287558744878B
:103AA0000895FC01778366835187408708950F93BB
:103AB0001F93CF93DF93FC01C081D18102811381D9
:103AC0009E01201B310B1216130654F546815781B7
:103AD00064E6649FC001659F900D112468EE73E059
:103AE0000E94D51D621773070CF49B01200F311F34
:103AF0003383228322813381209769F537FF02C007
:103B0000138212828281938195838483C817D90797
:103B100011F421E02687DF91CF911F910F91089535
:103B20002115310539F34085518564E6649FC00154
:103B3000659F900D112468EE73E00E94D51D3195AC
:103B400021953109621773070CF49B01021B130BBB
:103B500013830283CFCF54854585828593852817AB
:103B6000390734F0852F942F281739070CF4C90131
:103B700093838283C7CFFC0186850895FC0113825D
:103B800012821582148216860895DB018F939F930B
:103B90000E944E1EBF91AF91A29F800D911DA39FC9
:103BA000900DB29F900D11240895AA1BBB1B51E1EB
:103BB00007C0AA1FBB1FA617B70710F0A61BB70B9D
:103BC000881F991F5A95A9F780959095BC01CD0142
:103BD0000895A1E21A2EAA1BBB1BFD010DC0AA1F4E
:103BE000BB1FEE1FFF1FA217B307E407F50720F066
:103BF000A21BB30BE40BF50B661F771F881F991FE1
:103C00001A9469F760957095809590959B01AC0129
:103C1000BD01CF010895052E97FB1EF400940E946C
:103C2000221E57FD07D00E94E91D07FC03D04EF469
:103C30000C94221E50954095309521953F4F4F4F43
:103C40005F4F089590958095709561957F4F8F4F48
:103C50009F4F0895EE0FFF1F0590F491E02D0994FA
:103C60000E94381E332312F48A1B9B0B0C94491EAE
:103C7000A29FB001B39FC001A39F700D811D1124AD
:103C8000911DB29F700D811D1124911D08950E94F8
:103C9000381EB7FF0895821B930B08950E94381EAB
:103CA000A59F900DB49F900DA49F800D911D112490
:103CB0000895FC0188279927E89421912032E9F39F
:103CC000293010F02E30C8F32B3241F02D3239F468
:103CD000689404C00E94AC1E820F911D2191205354
:103CE0002A30C0F31EF4909581959F4F089542E5C8
:103CF00055E00E94851E0895FB01DC018D91019025
:103D000080190110D9F3990B0895FA01A191B0819E
:103D1000009719F41097E1F0CD01DC01CD010D9071
:103D2000002011F4C00113C0FB012191222319F0DE
:103D30002015D9F7F3CFFB012191201519F41E921C
:103D4000119606C02223C1F70D900020A1F7D001E3
:103D5000FA01A193B08308957AE0979F902D879FF1
:103D6000802D910D11240895AEE0B0E0EAEBFEE164
:103D70000C9493210D891E898F89988D26E02C83C0
:103D80001A83098397FF02C080E090E801979E8321
:103D90008D83AE01455E5F4F698D7A8DCE010196B0
:103DA0000E94071F4D815E8157FD0AC02F81388513
:103DB000421753070CF49A01020F131FF8011082E7
:103DC0002E96E4E00C94AF21AEE0B0E0EAEEFEE126
:103DD0000C9493210D891E8986E08C831A830983B4
:103DE0008FEF9FE79E838D83AE01475E5F4F6F89A4
:103DF000788DCE0101960E94071F2F813885020F12
:103E0000131FF80110822E96E4E00C94AF21ABE072
:103E1000B0E0EDE0FFE10C9485217C013B018A01DB
:103E2000FC0117821682838181FFC8C1CE010196F1
:103E30005C01F7019381F30193FD859193FF8191DB
:103E40003F01882309F453C1853239F493FD8591EC
:103E500093FF81913F01853229F4B70190E00E94E0
:103E6000F720E7CF912C212C312CFFE1F31538F00E
:103E70008B3211F190F4803209F1833229F137FC51
:103E80003CC020ED280F2A3050F536FE20C08AE0D5
:103E9000989E200D1124922E06C08D3291F0803311
:103EA00071F7689430F8F30193FD859193FF819148
:103EB0003F018111DACF21C0689431F8689432F85B
:103EC000F2CF689433F8EFCF689434F8ECCFEAE09F
:103ED0002E9E200D1124222E689435F8E4CF8E32C8
:103EE00029F436FC04C1689436F8DDCF8C3619F419
:103EF000689437F8D8CF8836B1F2982F9F7D9554C3
:103F00009330E0F08336A1F18337C1F1833509F0B6
:103F100063C02801F2E04F0E511CF801C080D1802F
:103F2000692D70E036FC02C06FEF7FEFC6010E9482
:103F3000E1204C01689437F882010AC00C5F1F4FE2
:103F4000FFE3F98388248394912C6501E89437F882
:103F500033FE2DC0522C8114910471F5552009F4C3
:103F600068CFB70180E290E00E94F7205A94F6CF24
:103F7000F801808189830E5F1F4FE4CF2801F2E0B2
:103F80004F0E511CF801C080D180692D70E036FCC5
:103F900002C06FEF7FEFC6010E94EC204C0182014E
:103FA000D5CFB70180E290E00E94F7202A94281430
:103FB000190409F0B0F7CECFF60137FC859137FE32
:103FC00081916F01B70190E00E94F72051105A943F
:103FD000F1E08F1A9108BFCF843619F0893609F0C5
:103FE00077C0F80137FE6BC0608171818281938157
:103FF0000C5F1F4FF32DFF763F2E97FF09C0909562
:104000008095709561957F4F8F4F9F4F689437F8DB
:104010002AE030E0A5010E942721C82ECA188C2C66
:10402000432C36FE0CC0E89440F8C91440F434FE2A
:1040300005C032FC03C0F32DFE7E4F2E892C44FEBA
:1040400095C0FE01EC0DF11D8081803309F087C021
:10405000242D297E422E842D8870582E43FC95C035
:1040600040FE8FC09C2C821418F42C0C922C9818B3
:1040700044FE91C0B70180E390E00E94F72042FE29
:1040800009C088E790E041FE02C088E590E0B701F2
:104090000E94F720C91408F48AC0CA94D12C9FEF5B
:1040A000C91AD90ACA0CDB1CF60182916F01B7014B
:1040B00090E00E94F720AC14BD04B1F74FCF6081AF
:1040C0007181072E000C880B990B0E5F1F4F92CF4A
:1040D000D32CE894D4F82AE030E0853739F1232D49
:1040E000297FD22E8F3601F148F48835A9F0F701E7
:1040F000868197812B96E2E10C94A121803749F0CB
:104100008837A9F7D4FE02C06894D2F820E130E0E5
:104110000DC06894D4F8F6CF34FE03C0822F8660B9
:10412000D82E20E132E002C028E030E0F801D7FECE
:104130000FC060817181828193810C5F1F4FA50147
:104140000E942721C82ECA183D2CE89437F867CF63
:104150006081718190E080E00E5F1F4FF0CF42FCE4
:1041600002C0839478CF8394839475CF842D86780E
:1041700009F471CFF6CFB70180E290E00E94F720FA
:1041800083948214C0F3512C73CF522C581882148C
:1041900008F46ECFF8CF842D867809F47BCF8BE2BC
:1041A00041FE80E247FC8DE2B70190E071CFB7019C
:1041B00080E390E00E94F7209A946CCF8FEF9FEFFE
:1041C00099CFFC010590615070400110D8F780959F
:1041D00090958E0F9F1F0895FC01615070400190D3
:1041E0000110D8F7809590958E0F9F1F08950F931B
:1041F0001F93CF93DF93182F092FEB018B8181FD44
:1042000009C01FEF0FEF812F902FDF91CF911F91EA
:104210000F91089582FF14C02E813F818C819D8172
:10422000281739073CF4E881F981CF010196998379
:10423000888310838E819F8101969F838E83E3CF35
:10424000E885F985812F0995892BA1F3DACFFA0149
:10425000AA27283051F1203181F1E8946F936E7FC5
:104260006E5F7F4F8F4F9F4FAF4FB1E03ED0B4E0B6
:104270003CD0670F781F891F9A1FA11D680F791FF7
:104280008A1F911DA11D6A0F711D811D911DA11D08
:1042900020D009F468943F912AE0269F1124301918
:1042A000305D3193DEF6CF010895462F4770405DB3
:1042B0004193B3E00FD0C9F7F6CF462F4F70405D62
:1042C0004A3318F0495D31FD4052419302D0A9F7BD
:1042D000EACFB4E0A6959795879577956795BA95B7
:1042E000C9F700976105710508959B01AC010A2E7D
:1042F00006945795479537952795BA95C9F7620F54
:10430000731F841F951FA01D08952F923F924F92F7
:104310005F926F927F928F929F92AF92BF92CF9255
:10432000DF92EF92FF920F931F93CF93DF93CDB75E
:10433000DEB7CA1BDB0B0FB6F894DEBF0FBECDBFD6
:1043400009942A88398848885F846E847D848C84A7
:104350009B84AA84B984C884DF80EE80FD800C81B0
:104360001B81AA81B981CE0FD11D0FB6F894DEBF93
:0C4370000FBECDBFED010895F894FFCF03
:10437C00010401802500000300000000000100037F
:10438C00000100020003000400563D257520535423
:10439C004F52453D25750D0A0050616E656C00430A
:1043AC00757272656E7400436F6E74726F6C004C34
:1043BC00434400536C6F7753656E736F7273005484
:1043CC00656C656D657472790039003600330030A8
:1043DC00003B003800350032003A00370034003121
:1043EC000053505F5241573D25750D0A00534554FB
:1043FC00252D346420414354252D34642563002538
:10440C0032642525202532642E2564412025326412
:10441C0056202532644300212120545249505045E6
:10442C004420212120202000215452495020434F68
:10443C0044453D256400434F554E543D2575204958
:10444C004E53543D25642046494C543D25640D0A79
:10445C0000244D442C53503D25642C52503D256472
:10446C002C443D25642C493D25642C563D25752C4A
:10447C00543D25642C4449523D25632C53543D2511
:10448C00732C54523D25642C4932543D25642C52D6
:10449C00483D256C752C53433D2564002A2530324C
:1044AC00580D0A00214556542C0020090D0A0053C2
:1044BC0054415455530052554E0053544152542CB0
:1044CC0052454D4F54450053544F502C52454D4F6F
:1044DC0054450052455600524556455253452C52B0
:1044EC00454D4F54450053504545443D25642C25BE
:1044FC0064004449523F004449523D256300434601
:10450C00473F004346473D25642C25642C25642CED
:10451C0025642C25642C25642C25642C25642C25E1
:10452C00642C25642C25642C256400534554004DC3
:10453C00415852504D004D494E52504D004143434D
:10454C00454C00444543454C004445414454494D79
:10455C0045004B50004B49005241544544005348D0
:10456C004F5254004F56455254454D500041434B09
:10457C002C4F4B0041434B2C524546555345442C34
:10458C0041435449564500545249503F00545249F6
:10459C00503D25642C25730054524950533F00481C
:1045AC004F5552533F00484F5552533D2530326CB6
:1045BC00753A2530326C752C53433D2564005455A7
:1045CC004E453F0054554E453D25642C25642C2505
:1045DC006C642C2564005341564500534156452CC0
:1045EC004F4B0048454C50003E2000545249502C33
:1045FC0025732C493D25752C4932543D25750055A4
:10460C004E4B4E0052454D4F54453D25640D0A000E
:10461C0053544152543A2053544154453D2564203F
:10462C0053503D2564204D494E3D2564205452493C
:10463C00503D25640D0A004641494C2053504545D8
:10464C00440D0A005354415254204F4B0D0A005252
:10465C00455345543A2053544154453D256420411B
:10466C0043544956453D2564204553544F503D25F0
:10467C00640D0A0052455345542D3E53544F50502F
:10468C0045440D0A005245534554204641494C209F
:10469C0041435449564520545249500D0A00524545
:1046AC00534554204553544F502D3E53544F505066
:1046BC0045440D0A005245534554204641494C206F
:1046CC004553544F500D0A00524553455420464112
:1046DC00494C2053544154450D0A0052543D257504
:1046EC002052523D2564204D523D256420444946BC
:1046FC00463D256420434E543D256C750D0A0052F1
:10470C004553455420434E540D0A0052554E4E49C4
:10471C004E470D0A00494E4954005354525400520E
:10472C0044574E00444541440042524B00434F41D4
:10473C0053540054524950004553544F50000504F3
:10474C0029040A04A6010F04140419041D042304EB
:10475C0028044255533D2575204C494D3D25750D7A
:10476C000A00554E4B4E4F574E004E4F4E45004F84
:10477C005645524C4F414400554E444552564F4CB1
:10478C0054004F564552564F4C54005354414C4CC8
:10479C00004F5645525350454544004E4F464545F3
:1047AC00444241434B005A0428044E025F04540215
:0A47BC00680472047B0481048B047E
:00000001FF
